{
  "_format": "hh-sol-artifact-1",
  "contractName": "MockGovernance",
  "sourceName": "contracts/MockGovernance.sol",
  "abi": [
    {
      "inputs": [
        {
          "internalType": "address",
          "name": "_governanceToken",
          "type": "address"
        },
        {
          "internalType": "address",
          "name": "_daoRegistry",
          "type": "address"
        }
      ],
      "stateMutability": "nonpayable",
      "type": "constructor"
    },
    {
      "anonymous": false,
      "inputs": [
        {
          "indexed": false,
          "internalType": "uint256",
          "name": "votingPeriod",
          "type": "uint256"
        },
        {
          "indexed": false,
          "internalType": "uint256",
          "name": "quorumVotes",
          "type": "uint256"
        },
        {
          "indexed": false,
          "internalType": "uint256",
          "name": "proposalThreshold",
          "type": "uint256"
        }
      ],
      "name": "GovernanceParametersUpdated",
      "type": "event"
    },
    {
      "anonymous": false,
      "inputs": [
        {
          "indexed": true,
          "internalType": "address",
          "name": "previousOwner",
          "type": "address"
        },
        {
          "indexed": true,
          "internalType": "address",
          "name": "newOwner",
          "type": "address"
        }
      ],
      "name": "OwnershipTransferred",
      "type": "event"
    },
    {
      "anonymous": false,
      "inputs": [
        {
          "indexed": true,
          "internalType": "uint256",
          "name": "proposalId",
          "type": "uint256"
        }
      ],
      "name": "ProposalCanceled",
      "type": "event"
    },
    {
      "anonymous": false,
      "inputs": [
        {
          "indexed": true,
          "internalType": "uint256",
          "name": "proposalId",
          "type": "uint256"
        },
        {
          "indexed": true,
          "internalType": "address",
          "name": "proposer",
          "type": "address"
        },
        {
          "indexed": false,
          "internalType": "string",
          "name": "title",
          "type": "string"
        },
        {
          "indexed": false,
          "internalType": "uint256",
          "name": "startTime",
          "type": "uint256"
        },
        {
          "indexed": false,
          "internalType": "uint256",
          "name": "endTime",
          "type": "uint256"
        }
      ],
      "name": "ProposalCreated",
      "type": "event"
    },
    {
      "anonymous": false,
      "inputs": [
        {
          "indexed": true,
          "internalType": "uint256",
          "name": "proposalId",
          "type": "uint256"
        }
      ],
      "name": "ProposalExecuted",
      "type": "event"
    },
    {
      "anonymous": false,
      "inputs": [
        {
          "indexed": true,
          "internalType": "uint256",
          "name": "proposalId",
          "type": "uint256"
        },
        {
          "indexed": true,
          "internalType": "address",
          "name": "voter",
          "type": "address"
        },
        {
          "indexed": false,
          "internalType": "uint8",
          "name": "support",
          "type": "uint8"
        },
        {
          "indexed": false,
          "internalType": "uint256",
          "name": "weight",
          "type": "uint256"
        },
        {
          "indexed": false,
          "internalType": "string",
          "name": "reason",
          "type": "string"
        }
      ],
      "name": "VoteCast",
      "type": "event"
    },
    {
      "inputs": [
        {
          "internalType": "uint256",
          "name": "proposalId",
          "type": "uint256"
        }
      ],
      "name": "cancel",
      "outputs": [],
      "stateMutability": "nonpayable",
      "type": "function"
    },
    {
      "inputs": [
        {
          "internalType": "uint256",
          "name": "proposalId",
          "type": "uint256"
        },
        {
          "internalType": "uint8",
          "name": "support",
          "type": "uint8"
        },
        {
          "internalType": "string",
          "name": "reason",
          "type": "string"
        }
      ],
      "name": "castVote",
      "outputs": [],
      "stateMutability": "nonpayable",
      "type": "function"
    },
    {
      "inputs": [],
      "name": "daoRegistry",
      "outputs": [
        {
          "internalType": "address",
          "name": "",
          "type": "address"
        }
      ],
      "stateMutability": "view",
      "type": "function"
    },
    {
      "inputs": [
        {
          "internalType": "uint256",
          "name": "proposalId",
          "type": "uint256"
        }
      ],
      "name": "execute",
      "outputs": [],
      "stateMutability": "nonpayable",
      "type": "function"
    },
    {
      "inputs": [],
      "name": "getGovernanceParameters",
      "outputs": [
        {
          "internalType": "uint256",
          "name": "votingPeriod",
          "type": "uint256"
        },
        {
          "internalType": "uint256",
          "name": "quorumVotes",
          "type": "uint256"
        },
        {
          "internalType": "uint256",
          "name": "proposalThreshold",
          "type": "uint256"
        }
      ],
      "stateMutability": "view",
      "type": "function"
    },
    {
      "inputs": [
        {
          "internalType": "uint256",
          "name": "proposalId",
          "type": "uint256"
        }
      ],
      "name": "getProposal",
      "outputs": [
        {
          "internalType": "uint256",
          "name": "id",
          "type": "uint256"
        },
        {
          "internalType": "address",
          "name": "proposer",
          "type": "address"
        },
        {
          "internalType": "string",
          "name": "title",
          "type": "string"
        },
        {
          "internalType": "string",
          "name": "description",
          "type": "string"
        },
        {
          "internalType": "uint256",
          "name": "startTime",
          "type": "uint256"
        },
        {
          "internalType": "uint256",
          "name": "endTime",
          "type": "uint256"
        },
        {
          "internalType": "uint256",
          "name": "forVotes",
          "type": "uint256"
        },
        {
          "internalType": "uint256",
          "name": "againstVotes",
          "type": "uint256"
        },
        {
          "internalType": "uint256",
          "name": "abstainVotes",
          "type": "uint256"
        },
        {
          "internalType": "bool",
          "name": "executed",
          "type": "bool"
        },
        {
          "internalType": "bool",
          "name": "canceled",
          "type": "bool"
        },
        {
          "internalType": "uint256",
          "name": "executedAt",
          "type": "uint256"
        },
        {
          "internalType": "enum MockGovernance.ProposalStatus",
          "name": "status",
          "type": "uint8"
        }
      ],
      "stateMutability": "view",
      "type": "function"
    },
    {
      "inputs": [
        {
          "internalType": "uint256",
          "name": "proposalId",
          "type": "uint256"
        }
      ],
      "name": "getProposalActions",
      "outputs": [
        {
          "components": [
            {
              "internalType": "address",
              "name": "target",
              "type": "address"
            },
            {
              "internalType": "uint256",
              "name": "value",
              "type": "uint256"
            },
            {
              "internalType": "string",
              "name": "signature",
              "type": "string"
            },
            {
              "internalType": "bytes",
              "name": "data",
              "type": "bytes"
            }
          ],
          "internalType": "struct MockGovernance.ProposalAction[]",
          "name": "actions",
          "type": "tuple[]"
        }
      ],
      "stateMutability": "view",
      "type": "function"
    },
    {
      "inputs": [
        {
          "internalType": "uint256",
          "name": "proposalId",
          "type": "uint256"
        }
      ],
      "name": "getProposalState",
      "outputs": [
        {
          "internalType": "string",
          "name": "state",
          "type": "string"
        }
      ],
      "stateMutability": "view",
      "type": "function"
    },
    {
      "inputs": [],
      "name": "getTotalProposals",
      "outputs": [
        {
          "internalType": "uint256",
          "name": "",
          "type": "uint256"
        }
      ],
      "stateMutability": "view",
      "type": "function"
    },
    {
      "inputs": [
        {
          "internalType": "uint256",
          "name": "proposalId",
          "type": "uint256"
        },
        {
          "internalType": "address",
          "name": "voter",
          "type": "address"
        }
      ],
      "name": "getVote",
      "outputs": [
        {
          "internalType": "uint8",
          "name": "support",
          "type": "uint8"
        },
        {
          "internalType": "uint256",
          "name": "weight",
          "type": "uint256"
        },
        {
          "internalType": "string",
          "name": "reason",
          "type": "string"
        }
      ],
      "stateMutability": "view",
      "type": "function"
    },
    {
      "inputs": [
        {
          "internalType": "address",
          "name": "account",
          "type": "address"
        }
      ],
      "name": "getVotingPower",
      "outputs": [
        {
          "internalType": "uint256",
          "name": "",
          "type": "uint256"
        }
      ],
      "stateMutability": "view",
      "type": "function"
    },
    {
      "inputs": [],
      "name": "governanceToken",
      "outputs": [
        {
          "internalType": "contract IERC20",
          "name": "",
          "type": "address"
        }
      ],
      "stateMutability": "view",
      "type": "function"
    },
    {
      "inputs": [
        {
          "internalType": "uint256",
          "name": "",
          "type": "uint256"
        },
        {
          "internalType": "address",
          "name": "",
          "type": "address"
        }
      ],
      "name": "hasVoted",
      "outputs": [
        {
          "internalType": "bool",
          "name": "",
          "type": "bool"
        }
      ],
      "stateMutability": "view",
      "type": "function"
    },
    {
      "inputs": [
        {
          "internalType": "uint256",
          "name": "proposalId",
          "type": "uint256"
        },
        {
          "internalType": "address",
          "name": "voter",
          "type": "address"
        }
      ],
      "name": "hasVotedOnProposal",
      "outputs": [
        {
          "internalType": "bool",
          "name": "",
          "type": "bool"
        }
      ],
      "stateMutability": "view",
      "type": "function"
    },
    {
      "inputs": [],
      "name": "owner",
      "outputs": [
        {
          "internalType": "address",
          "name": "",
          "type": "address"
        }
      ],
      "stateMutability": "view",
      "type": "function"
    },
    {
      "inputs": [],
      "name": "proposalThreshold",
      "outputs": [
        {
          "internalType": "uint256",
          "name": "",
          "type": "uint256"
        }
      ],
      "stateMutability": "view",
      "type": "function"
    },
    {
      "inputs": [
        {
          "internalType": "uint256",
          "name": "",
          "type": "uint256"
        }
      ],
      "name": "proposals",
      "outputs": [
        {
          "internalType": "uint256",
          "name": "id",
          "type": "uint256"
        },
        {
          "internalType": "address",
          "name": "proposer",
          "type": "address"
        },
        {
          "internalType": "string",
          "name": "title",
          "type": "string"
        },
        {
          "internalType": "string",
          "name": "description",
          "type": "string"
        },
        {
          "internalType": "uint256",
          "name": "startTime",
          "type": "uint256"
        },
        {
          "internalType": "uint256",
          "name": "endTime",
          "type": "uint256"
        },
        {
          "internalType": "uint256",
          "name": "forVotes",
          "type": "uint256"
        },
        {
          "internalType": "uint256",
          "name": "againstVotes",
          "type": "uint256"
        },
        {
          "internalType": "uint256",
          "name": "abstainVotes",
          "type": "uint256"
        },
        {
          "internalType": "bool",
          "name": "executed",
          "type": "bool"
        },
        {
          "internalType": "bool",
          "name": "canceled",
          "type": "bool"
        },
        {
          "internalType": "uint256",
          "name": "executedAt",
          "type": "uint256"
        },
        {
          "internalType": "enum MockGovernance.ProposalStatus",
          "name": "status",
          "type": "uint8"
        }
      ],
      "stateMutability": "view",
      "type": "function"
    },
    {
      "inputs": [
        {
          "internalType": "string",
          "name": "title",
          "type": "string"
        },
        {
          "internalType": "string",
          "name": "description",
          "type": "string"
        },
        {
          "components": [
            {
              "internalType": "address",
              "name": "target",
              "type": "address"
            },
            {
              "internalType": "uint256",
              "name": "value",
              "type": "uint256"
            },
            {
              "internalType": "string",
              "name": "signature",
              "type": "string"
            },
            {
              "internalType": "bytes",
              "name": "data",
              "type": "bytes"
            }
          ],
          "internalType": "struct MockGovernance.ProposalAction[]",
          "name": "actions",
          "type": "tuple[]"
        }
      ],
      "name": "propose",
      "outputs": [
        {
          "internalType": "uint256",
          "name": "",
          "type": "uint256"
        }
      ],
      "stateMutability": "nonpayable",
      "type": "function"
    },
    {
      "inputs": [],
      "name": "quorumVotes",
      "outputs": [
        {
          "internalType": "uint256",
          "name": "",
          "type": "uint256"
        }
      ],
      "stateMutability": "view",
      "type": "function"
    },
    {
      "inputs": [],
      "name": "renounceOwnership",
      "outputs": [],
      "stateMutability": "nonpayable",
      "type": "function"
    },
    {
      "inputs": [
        {
          "internalType": "address",
          "name": "newOwner",
          "type": "address"
        }
      ],
      "name": "transferOwnership",
      "outputs": [],
      "stateMutability": "nonpayable",
      "type": "function"
    },
    {
      "inputs": [
        {
          "internalType": "uint256",
          "name": "newVotingPeriod",
          "type": "uint256"
        },
        {
          "internalType": "uint256",
          "name": "newQuorumVotes",
          "type": "uint256"
        },
        {
          "internalType": "uint256",
          "name": "newProposalThreshold",
          "type": "uint256"
        }
      ],
      "name": "updateGovernanceParameters",
      "outputs": [],
      "stateMutability": "nonpayable",
      "type": "function"
    },
    {
      "inputs": [
        {
          "internalType": "uint256",
          "name": "proposalId",
          "type": "uint256"
        }
      ],
      "name": "updateProposalStatus",
      "outputs": [],
      "stateMutability": "nonpayable",
      "type": "function"
    },
    {
      "inputs": [
        {
          "internalType": "uint256",
          "name": "",
          "type": "uint256"
        },
        {
          "internalType": "address",
          "name": "",
          "type": "address"
        }
      ],
      "name": "votes",
      "outputs": [
        {
          "internalType": "uint8",
          "name": "support",
          "type": "uint8"
        },
        {
          "internalType": "uint256",
          "name": "weight",
          "type": "uint256"
        },
        {
          "internalType": "string",
          "name": "reason",
          "type": "string"
        }
      ],
      "stateMutability": "view",
      "type": "function"
    },
    {
      "inputs": [],
      "name": "votingPeriod",
      "outputs": [
        {
          "internalType": "uint256",
          "name": "",
          "type": "uint256"
        }
      ],
      "stateMutability": "view",
      "type": "function"
    }
  ],
  "bytecode": "0x608034620000e157601f620022c838819003918201601f19168301916001600160401b03831184841017620000e6578084926040948552833981010312620000e1576200005a60206200005283620000fc565b9201620000fc565b60008054336001600160a01b0319808316821784556040519590946001600160a01b03949093859391908416907f8be0079c531659141344cd1fd0a4f28419497f9722a3daafe3b4186f6b6457e09080a360018055620151806008556103e880600955600a5516836002541617600255169060035416176003556121b69081620001128239f35b600080fd5b634e487b7160e01b600052604160045260246000fd5b51906001600160a01b0382168203620000e15756fe6080604052600436101561001257600080fd5b60003560e01c8063013cf08b14611a1c57806302a251a3146119fe5780630cbc0a08146110cb5780631a5007dd146110ad57806324bc1a641461108f5780632a2b6ba01461106657806340e58ee514610f525780634385963214610a55578063470b762214610acc5780635835cf3014610aa2578063600303d814610a55578063715018a6146109fc5780638da5cb5b146109d35780639080936f146109a0578063b58131b014610982578063bb4d4436146108f6578063bc3f931f14610881578063c7f758a8146107ce578063c851ed6c14610678578063d23254b414610612578063e26b2bea146104df578063f2fde38b14610416578063f3047c05146103b2578063f96dae0a146103895763fe0d94c11461012f57600080fd5b34610384576020806003193601126103845760043561014c611e45565b80151580610378575b61015e90611e9b565b80600052600582526040600020600b81019283549360ff851690600782101561036257600280920361032457600984019586549060ff82166102df57906004916101ae6005880154421015611f1c565b600160ff19928316811790995542600a88015516179055600092600c01855b6101fd575b85857f712ae1383f79ac853f8d882153778e0260ef8f03b504e2866e0593e04d2b291f600080a28055005b80548410156102da578060005260008061021c85822087861b01611f68565b805186820151606090920151805192908801916001600160a01b03165af13d156102d5573d61024a81611cb2565b906102586040519283611b25565b81526000853d92013e5b1561029057600019841461027a5785809401936101cd565b634e487b7160e01b600052601160045260246000fd5b60405162461bcd60e51b815260048101849052601760248201527f416374696f6e20657865637574696f6e206661696c65640000000000000000006044820152606490fd5b610262565b6101d2565b60405162461bcd60e51b815260048101869052601960248201527f50726f706f73616c20616c7265616479206578656375746564000000000000006044820152606490fd5b60405162461bcd60e51b8152600481018490526016602482015275141c9bdc1bdcd85b081b9bdd081cdd58d8d95959195960521b6044820152606490fd5b634e487b7160e01b600052602160045260246000fd5b50600454811115610155565b600080fd5b34610384576000366003190112610384576002546040516001600160a01b039091168152602090f35b34610384576060366003190112610384577f424aeabaa7adc72f304e1975e2aa85e4daccbad034f693d4661bb0afd3cec28760606004356044356024356103f7611d84565b826008558060095581600a5560405192835260208301526040820152a1005b346103845760203660031901126103845761042f611d4f565b610437611d84565b6001600160a01b0390811690811561048b57600054826bffffffffffffffffffffffff60a01b821617600055167f8be0079c531659141344cd1fd0a4f28419497f9722a3daafe3b4186f6b6457e0600080a3005b60405162461bcd60e51b815260206004820152602660248201527f4f776e61626c653a206e6577206f776e657220697320746865207a65726f206160448201526564647265737360d01b6064820152608490fd5b34610384576020806003193601126103845760043580151580610606575b61050690611e9b565b60005260058152600c6040600020019081549161052283611d22565b926105306040519485611b25565b8084528284018092600052836000206000915b8383106105e35750505050604051918083019381845251809452604083019360408160051b85010192916000955b82871061057e5785850386f35b9091929382806105d3600193603f198a82030186528851858060a01b03815116825283810151848301526105c060408201516080806040860152840190611bec565b9160608092015191818403910152611bec565b9601920196019592919092610571565b6004866001926105f5859a999a611f68565b815201920192019190959495610543565b506004548111156104fd565b346103845760403660031901126103845761062b611d39565b600435600052600660205260406000209060018060a01b0316600052602052604060002060ff815416610674610668600260018501549401611b46565b60405193849384611d65565b0390f35b346103845760208060031936011261038457600435801515806107c2575b61069f90611e9b565b600052600581526040600020600b810191825460ff811660078110156103625760016106cb9114611eda565b6106db6005840154421015611f1c565b600683019161070183549460086106f86007830197885490611ddc565b91015490611ddc565b6002546040516318160ddd60e01b8152919291908290829060049082906001600160a01b03165afa9182156107b657600092610788575b50506009549081810291818304149015171561027a5761271090041161077c5750549054101561076f57805460ff19166002179055005b805460ff19166003179055005b60ff1916600317909255005b90809250813d83116107af575b61079f8183611b25565b8101031261038457518680610738565b503d610795565b6040513d6000823e3d90fd5b50600454811115610696565b346103845760203660031901126103845760043580151580610875575b6107f490611e9b565b60005260056020526040600020805461067482808060018060a01b0360018201541694816004810154600582015460068301549060078401549261085d6003610856600260ff600b600a600960088d01549c01549d01549d0154169c01611b46565b9d01611b46565b6040519c8d9c8d9860ff808c60081c169b1699611c2c565b506004548111156107eb565b346103845760403660031901126103845760043561089d611d39565b90801515806108ea575b6108b090611e9b565b600052600660205260406000209060018060a01b0316600052602052604060002060ff815416610674610668600260018501549401611b46565b506004548111156108a7565b346103845760208060031936011261038457610910611d4f565b6002546040516370a0823160e01b81526001600160a01b03928316600482015291839183916024918391165afa9081156107b657600091610955575b50604051908152f35b90508181813d831161097b575b61096c8183611b25565b8101031261038457518261094c565b503d610962565b34610384576000366003190112610384576020600a54604051908152f35b34610384576020366003190112610384576106746109bf60043561204f565b604051918291602083526020830190611bec565b34610384576000366003190112610384576000546040516001600160a01b039091168152602090f35b3461038457600036600319011261038457610a15611d84565b600080546001600160a01b0319811682556001600160a01b03167f8be0079c531659141344cd1fd0a4f28419497f9722a3daafe3b4186f6b6457e08280a3005b3461038457604036600319011261038457610a6e611d39565b600435600052600760205260406000209060018060a01b0316600052602052602060ff604060002054166040519015158152f35b34610384576000366003190112610384576060604051600081526000602082015260006040820152f35b3461038457606036600319011261038457600435602490813560ff811691828203610384576044926001600160401b03843581811161038457610b13903690600401611d04565b91610b1c611e45565b83151580610f46575b610b2e90611e9b565b60028111610f0b5783600052602060078152604060002033600052815260ff60406000205416610ed957846000526005815260406000209260ff600b85015416976007891015610ec457610b856001809a14611eda565b60048501544210610e8d5760058501544211610e5c576002546040516370a0823160e01b8152336004820152959493929190839087908d9082906001600160a01b03165afa9586156107b657600096610e2d575b508515610df957508660005260078252604060002033600052825260406000209160ff19928a84825416179055604051606081019080821084831117610de45760029160405285815282810188815260408201958a87528b60005260068552604060002033600052855260ff604060002093511690835416178255518c8201550192519a8b51928311610dd05750610c7b82610c758554611ab5565b85611e00565b80601f8311600114610d46575081907f761cce3a1af5d9cfc0d57222f605ce4bd2be345f0ad9ebb7b83a84a91a0c201498999a9b600092610d3b575b5050600019600383901b1c1916908a1b1790555b80610cfa5750600701610cdf828254611ddc565b90555b610cf3604051928392339784611d65565b0390a38055005b808803610d175750600601610d10828254611ddc565b9055610ce2565b600214610d25575b50610ce2565b600801610d33828254611ddc565b905586610d1f565b015190508b80610cb7565b9a601f198316846000528c6000209c6000905b828210610db9575050918b9c91847f761cce3a1af5d9cfc0d57222f605ce4bd2be345f0ad9ebb7b83a84a91a0c20149b9c9d959410610da0575b505050811b019055610ccb565b015160001960f88460031b161c191690558b8080610d93565b838501518f559d8d019d9384019390810190610d59565b634e487b7160e01b60009081526041600452fd5b8c634e487b7160e01b60005260416004526000fd5b826e2737903b37ba34b733903837bbb2b960891b606492600f8e6040519462461bcd60e51b86526004860152840152820152fd5b9095508281813d8311610e55575b610e458183611b25565b810103126103845751948b610bd9565b503d610e3b565b826b159bdd1a5b99c8195b99195960a21b606492600c8d6040519462461bcd60e51b86526004860152840152820152fd5b8271159bdd1a5b99c81b9bdd081cdd185c9d195960721b60649260128d6040519462461bcd60e51b86526004860152840152820152fd5b89634e487b7160e01b60005260216004526000fd5b6064906c105b1c9958591e481d9bdd1959609a1b88600d8b6040519462461bcd60e51b86526004860152840152820152fd5b60405162461bcd60e51b81526020600482015260158189015274496e76616c696420737570706f72742076616c756560581b81880152606490fd5b50600454841115610b25565b34610384576020366003190112610384576004358015158061105a575b610f7890611e9b565b60008181526005602052604090206001810154336001600160a01b039182161490811561104c575b501561100757600b810190815460ff8116600781101561036257600592610fcb600160099314611eda565b01805461ff00191661010017905560ff19161790557f789cf55be980739dad1d0699b93b58e806b51c9d96619bfa8fe0a28abaa7b30c600080a2005b60405162461bcd60e51b815260206004820152601860248201527f4e6f7420617574686f72697a656420746f2063616e63656c00000000000000006044820152606490fd5b905060005416331483610fa0565b50600454811115610f6f565b34610384576000366003190112610384576003546040516001600160a01b039091168152602090f35b34610384576000366003190112610384576020600954604051908152f35b34610384576000366003190112610384576020600454604051908152f35b34610384576060366003190112610384576004356001600160401b038111610384576110fb903690600401611d04565b6024356001600160401b0381116103845761111a903690600401611d04565b6001600160401b036044351161038457366023604435011215610384576044356004013561114781611d22565b906111556040519283611b25565b80825260208201903660248260051b60443501011161038457602460443501915b60248260051b6044350101831061191957505050611192611e45565b6002546040516370a0823160e01b815233600482015290602090829060249082906001600160a01b03165afa9081156107b6576000916118e7575b50600a54116118a25760016004540191826004556111ed60085442611ddc565b9160405191826101c08101106001600160401b036101c085011117611617576101c0830160405284835233602084015285604084015260608301524260808301528260a0830152600060c0830152600060e0830152600061010083015260006101208301526000610140830152600061016083015260016101808301526101a08201528260005260056020526040600020908051825560018060a01b036020820151166bffffffffffffffffffffffff60a01b60018401541617600183015560408101518051906001600160401b0382116116175781906112de826112d56002880154611ab5565b60028801611e00565b602090601f831160011461183057600092611825575b50508160011b916000199060031b1c19161760028301555b60608101518051906001600160401b03821161161757819061133e826113356003880154611ab5565b60038801611e00565b602090601f83116001146117b3576000926117a8575b50508160011b916000199060031b1c19161760038301555b6080810151600483015560a0810151600583015560c0810151600683015560e081015160078301556101008101516008830155600982016101208201511515815460ff61ff00610140860151151560081b1692169061ffff191617179055610160810151600a830155600b820190610180810151916007831015610362576101a09260ff80198354169116179055015180519068010000000000000000821161161757600c83015482600c8501558083106116ab575b506020600c910192016000526020600020916000905b8282106114985760208686817f6c98a8c940418b35614f0cd02412d5c9606faff474cbb6cdd6640ba5d1a9f06b8b61147b60405191606083526060830190611bec565b93428783015260408201528033940390a360018055604051908152f35b8051805185546001600160a01b0319166001600160a01b03919091161785556020810151600186015560408101518051906001600160401b038211611617576114f1826114e860028a0154611ab5565b60028a01611e00565b602090601f83116001146116385760609392916000918361162d575b50508160011b916000199060031b1c19161760028701555b01518051906001600160401b03821161161757611552826115496003890154611ab5565b60038901611e00565b602090601f83116001146115a1579282600493602093600196600092611596575b505081861b916000199060031b1c19161760038801555b01940191019092611438565b015190508c80611573565b906003870160005260206000209160005b601f19851681106115ff575083602093600196938793600497601f198116106115e6575b505050811b01600388015561158a565b015160001960f88460031b161c191690558c80806115d6565b919260206001819286850151815501940192016115b2565b634e487b7160e01b600052604160045260246000fd5b015190508b8061150d565b906002880160005260206000209160005b601f1985168110611693575091839160019360609695601f1981161061167a575b505050811b016002870155611525565b015160001960f88460031b161c191690558b808061166a565b91926020600181928685015181550194019201611649565b6001600160fe1b03818116820361027a578316830361027a57600c840160005260206000208360021b81015b8260021b820181106116ea575050611422565b8060006004925560006001820155600281016117068154611ab5565b908161176a575b50506003810161171d8154611ab5565b908161172c575b5050016116d7565b81601f600093116001146117445750555b8a80611724565b908083918252611763601f60208420940160051c840160018501611de9565b555561173d565b81601f600093116001146117825750555b8a8061170d565b9080839182526117a1601f60208420940160051c840160018501611de9565b555561177b565b015190508780611354565b9250600385016000526020600020906000935b601f198416851061180a576001945083601f198116106117f1575b505050811b01600383015561136c565b015160001960f88460031b161c191690558780806117e1565b818101518355602094850194600190930192909101906117c6565b0151905087806112f4565b9250600285016000526020600020906000935b601f1984168510611887576001945083601f1981161061186e575b505050811b01600283015561130c565b015160001960f88460031b161c1916905587808061185e565b81810151835560209485019460019093019290910190611843565b60405162461bcd60e51b815260206004820152601e60248201527f496e73756666696369656e7420746f6b656e7320746f2070726f706f736500006044820152606490fd5b90506020813d602011611911575b8161190260209383611b25565b810103126103845751846111cd565b3d91506118f5565b82356001600160401b038111610384576080604435820136036023190112610384576040519161194883611aef565b6044358201602401356001600160a01b0381168103610384578352604482813501013560208401526001600160401b03606483604435010135116103845761199d366044358401606481013501602401611d04565b6040840152608482604435010135906001600160401b03821161038457366043838560443501010112156103845760249360209384936119ec9136916044803590920101808901359101611ccd565b60608201528152019301929050611176565b34610384576000366003190112610384576020600854604051908152f35b34610384576020366003190112610384576004356000908152600560205260409020805460018201546001600160a01b03169061067490611a5f60028501611b46565b93611a6c60038201611b46565b916004820154906005830154600684015460078501549060088601549260098701549560ff600b600a8a015499015416986040519c8d9c8d9860ff808c60081c169b1699611c2c565b90600182811c92168015611ae5575b6020831014611acf57565b634e487b7160e01b600052602260045260246000fd5b91607f1691611ac4565b608081019081106001600160401b0382111761161757604052565b604081019081106001600160401b0382111761161757604052565b90601f801991011681019081106001600160401b0382111761161757604052565b9060405191826000825492611b5a84611ab5565b908184526001948581169081600014611bc95750600114611b86575b5050611b8492500383611b25565b565b9093915060005260209081600020936000915b818310611bb1575050611b8493508201013880611b76565b85548884018501529485019487945091830191611b99565b915050611b8494506020925060ff191682840152151560051b8201013880611b76565b919082519283825260005b848110611c18575050826000602080949584010152601f8019910116010190565b602081830181015184830182015201611bf7565b9a9896949d9c9b999795939192611c7193611c63928d5260018060a01b031660208d015260408c6101a091829101528c0190611bec565b908a820360608c0152611bec565b9a608089015260a088015260c087015260e0860152610100850152151561012084015215156101408301526101608201526007821015610362576101800152565b6001600160401b03811161161757601f01601f191660200190565b929192611cd982611cb2565b91611ce76040519384611b25565b829481845281830111610384578281602093846000960137010152565b9080601f8301121561038457816020611d1f93359101611ccd565b90565b6001600160401b0381116116175760051b60200190565b602435906001600160a01b038216820361038457565b600435906001600160a01b038216820361038457565b611d1f939260ff60609316825260208201528160408201520190611bec565b6000546001600160a01b03163303611d9857565b606460405162461bcd60e51b815260206004820152602060248201527f4f776e61626c653a2063616c6c6572206973206e6f7420746865206f776e65726044820152fd5b9190820180921161027a57565b818110611df4575050565b60008155600101611de9565b9190601f8111611e0f57505050565b611b84926000526020600020906020601f840160051c83019310611e3b575b601f0160051c0190611de9565b9091508190611e2e565b600260015414611e56576002600155565b60405162461bcd60e51b815260206004820152601f60248201527f5265656e7472616e637947756172643a207265656e7472616e742063616c6c006044820152606490fd5b15611ea257565b60405162461bcd60e51b815260206004820152601060248201526f125b9d985b1a59081c1c9bdc1bdcd85b60821b6044820152606490fd5b15611ee157565b60405162461bcd60e51b815260206004820152601360248201527250726f706f73616c206e6f742061637469766560681b6044820152606490fd5b15611f2357565b60405162461bcd60e51b815260206004820152601760248201527f566f74696e6720706572696f64206e6f7420656e6465640000000000000000006044820152606490fd5b9060405191611f7683611aef565b8260018060a01b03825416815260016003818401549360209485850152611f9f60028201611b46565b60408501520190604051938492600092815491611fbb83611ab5565b8087529282811690811561202e5750600114611fe9575b5050505060609291611fe5910384611b25565b0152565b60009081528381209695945091905b81831061201657509394509192509082010181611fe5606038611fd2565b86548884018501529586019587945091830191611ff8565b60ff191685880152505050151560051b830101905081611fe5606038611fd2565b80151580612174575b61206190611e9b565b600052602060058152604080600020600981015460ff8160081c166000146120a75750506710d85b98d95b195960c21b90519161209d83611b0a565b6008835282015290565b60ff16156120c8575067115e1958dd5d195960c21b90519161209d83611b0a565b60048101544210156120f657506650656e64696e6760c81b9051916120ec83611b0a565b6007835282015290565b6005810154421161212257506541637469766560d01b90519161211883611b0a565b6006835282015290565b600b015460ff1660078110156103625760020361215c576814dd58d8d95959195960ba1b90519161215283611b0a565b6009835282015290565b6711195999585d195960c21b90519161209d83611b0a565b5060045481111561205856fea26469706673582212206f3373f348ca0f65adc551dc0cbef6896f22e7b722a75108fa73003a341e849f64736f6c63430008130033",
  "linkReferences": {},
  "deployedLinkReferences": {}
}