{"contracts/MockGovernance.sol":{"MockGovernance":{"abi":[{"inputs":[{"internalType":"address","name":"_governanceToken","type":"address"},{"internalType":"address","name":"_daoRegistry","type":"address"}],"stateMutability":"nonpayable","type":"constructor"},{"anonymous":false,"inputs":[{"indexed":false,"internalType":"uint256","name":"votingPeriod","type":"uint256"},{"indexed":false,"internalType":"uint256","name":"quorumVotes","type":"uint256"},{"indexed":false,"internalType":"uint256","name":"proposalThreshold","type":"uint256"}],"name":"GovernanceParametersUpdated","type":"event"},{"anonymous":false,"inputs":[{"indexed":true,"internalType":"address","name":"previousOwner","type":"address"},{"indexed":true,"internalType":"address","name":"newOwner","type":"address"}],"name":"OwnershipTransferred","type":"event"},{"anonymous":false,"inputs":[{"indexed":true,"internalType":"uint256","name":"proposalId","type":"uint256"}],"name":"ProposalCanceled","type":"event"},{"anonymous":false,"inputs":[{"indexed":true,"internalType":"uint256","name":"proposalId","type":"uint256"},{"indexed":true,"internalType":"address","name":"proposer","type":"address"},{"indexed":false,"internalType":"string","name":"title","type":"string"},{"indexed":false,"internalType":"uint256","name":"startTime","type":"uint256"},{"indexed":false,"internalType":"uint256","name":"endTime","type":"uint256"}],"name":"ProposalCreated","type":"event"},{"anonymous":false,"inputs":[{"indexed":true,"internalType":"uint256","name":"proposalId","type":"uint256"}],"name":"ProposalExecuted","type":"event"},{"anonymous":false,"inputs":[{"indexed":true,"internalType":"uint256","name":"proposalId","type":"uint256"},{"indexed":true,"internalType":"address","name":"voter","type":"address"},{"indexed":false,"internalType":"uint8","name":"support","type":"uint8"},{"indexed":false,"internalType":"uint256","name":"weight","type":"uint256"},{"indexed":false,"internalType":"string","name":"reason","type":"string"}],"name":"VoteCast","type":"event"},{"inputs":[{"internalType":"uint256","name":"proposalId","type":"uint256"}],"name":"cancel","outputs":[],"stateMutability":"nonpayable","type":"function"},{"inputs":[{"internalType":"uint256","name":"proposalId","type":"uint256"},{"internalType":"uint8","name":"support","type":"uint8"},{"internalType":"string","name":"reason","type":"string"}],"name":"castVote","outputs":[],"stateMutability":"nonpayable","type":"function"},{"inputs":[],"name":"daoRegistry","outputs":[{"internalType":"address","name":"","type":"address"}],"stateMutability":"view","type":"function"},{"inputs":[{"internalType":"uint256","name":"proposalId","type":"uint256"}],"name":"execute","outputs":[],"stateMutability":"nonpayable","type":"function"},{"inputs":[],"name":"getGovernanceParameters","outputs":[{"internalType":"uint256","name":"votingPeriod","type":"uint256"},{"internalType":"uint256","name":"quorumVotes","type":"uint256"},{"internalType":"uint256","name":"proposalThreshold","type":"uint256"}],"stateMutability":"view","type":"function"},{"inputs":[{"internalType":"uint256","name":"proposalId","type":"uint256"}],"name":"getProposal","outputs":[{"internalType":"uint256","name":"id","type":"uint256"},{"internalType":"address","name":"proposer","type":"address"},{"internalType":"string","name":"title","type":"string"},{"internalType":"string","name":"description","type":"string"},{"internalType":"uint256","name":"startTime","type":"uint256"},{"internalType":"uint256","name":"endTime","type":"uint256"},{"internalType":"uint256","name":"forVotes","type":"uint256"},{"internalType":"uint256","name":"againstVotes","type":"uint256"},{"internalType":"uint256","name":"abstainVotes","type":"uint256"},{"internalType":"bool","name":"executed","type":"bool"},{"internalType":"bool","name":"canceled","type":"bool"},{"internalType":"uint256","name":"executedAt","type":"uint256"},{"internalType":"enum MockGovernance.ProposalStatus","name":"status","type":"uint8"}],"stateMutability":"view","type":"function"},{"inputs":[{"internalType":"uint256","name":"proposalId","type":"uint256"}],"name":"getProposalActions","outputs":[{"components":[{"internalType":"address","name":"target","type":"address"},{"internalType":"uint256","name":"value","type":"uint256"},{"internalType":"string","name":"signature","type":"string"},{"internalType":"bytes","name":"data","type":"bytes"}],"internalType":"struct MockGovernance.ProposalAction[]","name":"actions","type":"tuple[]"}],"stateMutability":"view","type":"function"},{"inputs":[{"internalType":"uint256","name":"proposalId","type":"uint256"}],"name":"getProposalState","outputs":[{"internalType":"string","name":"state","type":"string"}],"stateMutability":"view","type":"function"},{"inputs":[],"name":"getTotalProposals","outputs":[{"internalType":"uint256","name":"","type":"uint256"}],"stateMutability":"view","type":"function"},{"inputs":[{"internalType":"uint256","name":"proposalId","type":"uint256"},{"internalType":"address","name":"voter","type":"address"}],"name":"getVote","outputs":[{"internalType":"uint8","name":"support","type":"uint8"},{"internalType":"uint256","name":"weight","type":"uint256"},{"internalType":"string","name":"reason","type":"string"}],"stateMutability":"view","type":"function"},{"inputs":[{"internalType":"address","name":"account","type":"address"}],"name":"getVotingPower","outputs":[{"internalType":"uint256","name":"","type":"uint256"}],"stateMutability":"view","type":"function"},{"inputs":[],"name":"governanceToken","outputs":[{"internalType":"contract IERC20","name":"","type":"address"}],"stateMutability":"view","type":"function"},{"inputs":[{"internalType":"uint256","name":"","type":"uint256"},{"internalType":"address","name":"","type":"address"}],"name":"hasVoted","outputs":[{"internalType":"bool","name":"","type":"bool"}],"stateMutability":"view","type":"function"},{"inputs":[{"internalType":"uint256","name":"proposalId","type":"uint256"},{"internalType":"address","name":"voter","type":"address"}],"name":"hasVotedOnProposal","outputs":[{"internalType":"bool","name":"","type":"bool"}],"stateMutability":"view","type":"function"},{"inputs":[],"name":"owner","outputs":[{"internalType":"address","name":"","type":"address"}],"stateMutability":"view","type":"function"},{"inputs":[],"name":"proposalThreshold","outputs":[{"internalType":"uint256","name":"","type":"uint256"}],"stateMutability":"view","type":"function"},{"inputs":[{"internalType":"uint256","name":"","type":"uint256"}],"name":"proposals","outputs":[{"internalType":"uint256","name":"id","type":"uint256"},{"internalType":"address","name":"proposer","type":"address"},{"internalType":"string","name":"title","type":"string"},{"internalType":"string","name":"description","type":"string"},{"internalType":"uint256","name":"startTime","type":"uint256"},{"internalType":"uint256","name":"endTime","type":"uint256"},{"internalType":"uint256","name":"forVotes","type":"uint256"},{"internalType":"uint256","name":"againstVotes","type":"uint256"},{"internalType":"uint256","name":"abstainVotes","type":"uint256"},{"internalType":"bool","name":"executed","type":"bool"},{"internalType":"bool","name":"canceled","type":"bool"},{"internalType":"uint256","name":"executedAt","type":"uint256"},{"internalType":"enum MockGovernance.ProposalStatus","name":"status","type":"uint8"}],"stateMutability":"view","type":"function"},{"inputs":[{"internalType":"string","name":"title","type":"string"},{"internalType":"string","name":"description","type":"string"},{"components":[{"internalType":"address","name":"target","type":"address"},{"internalType":"uint256","name":"value","type":"uint256"},{"internalType":"string","name":"signature","type":"string"},{"internalType":"bytes","name":"data","type":"bytes"}],"internalType":"struct MockGovernance.ProposalAction[]","name":"actions","type":"tuple[]"}],"name":"propose","outputs":[{"internalType":"uint256","name":"","type":"uint256"}],"stateMutability":"nonpayable","type":"function"},{"inputs":[],"name":"quorumVotes","outputs":[{"internalType":"uint256","name":"","type":"uint256"}],"stateMutability":"view","type":"function"},{"inputs":[],"name":"renounceOwnership","outputs":[],"stateMutability":"nonpayable","type":"function"},{"inputs":[{"internalType":"address","name":"newOwner","type":"address"}],"name":"transferOwnership","outputs":[],"stateMutability":"nonpayable","type":"function"},{"inputs":[{"internalType":"uint256","name":"newVotingPeriod","type":"uint256"},{"internalType":"uint256","name":"newQuorumVotes","type":"uint256"},{"internalType":"uint256","name":"newProposalThreshold","type":"uint256"}],"name":"updateGovernanceParameters","outputs":[],"stateMutability":"nonpayable","type":"function"},{"inputs":[{"internalType":"uint256","name":"proposalId","type":"uint256"}],"name":"updateProposalStatus","outputs":[],"stateMutability":"nonpayable","type":"function"},{"inputs":[{"internalType":"uint256","name":"","type":"uint256"},{"internalType":"address","name":"","type":"address"}],"name":"votes","outputs":[{"internalType":"uint8","name":"support","type":"uint8"},{"internalType":"uint256","name":"weight","type":"uint256"},{"internalType":"string","name":"reason","type":"string"}],"stateMutability":"view","type":"function"},{"inputs":[],"name":"votingPeriod","outputs":[{"internalType":"uint256","name":"","type":"uint256"}],"stateMutability":"view","type":"function"}],"evm":{"bytecode":{"linkReferences":{},"object":"608034620000e157601f620022c838819003918201601f19168301916001600160401b03831184841017620000e6578084926040948552833981010312620000e1576200005a60206200005283620000fc565b9201620000fc565b60008054336001600160a01b0319808316821784556040519590946001600160a01b03949093859391908416907f8be0079c531659141344cd1fd0a4f28419497f9722a3daafe3b4186f6b6457e09080a360018055620151806008556103e880600955600a5516836002541617600255169060035416176003556121b69081620001128239f35b600080fd5b634e487b7160e01b600052604160045260246000fd5b51906001600160a01b0382168203620000e15756fe6080604052600436101561001257600080fd5b60003560e01c8063013cf08b14611a1c57806302a251a3146119fe5780630cbc0a08146110cb5780631a5007dd146110ad57806324bc1a641461108f5780632a2b6ba01461106657806340e58ee514610f525780634385963214610a55578063470b762214610acc5780635835cf3014610aa2578063600303d814610a55578063715018a6146109fc5780638da5cb5b146109d35780639080936f146109a0578063b58131b014610982578063bb4d4436146108f6578063bc3f931f14610881578063c7f758a8146107ce578063c851ed6c14610678578063d23254b414610612578063e26b2bea146104df578063f2fde38b14610416578063f3047c05146103b2578063f96dae0a146103895763fe0d94c11461012f57600080fd5b34610384576020806003193601126103845760043561014c611e45565b80151580610378575b61015e90611e9b565b80600052600582526040600020600b81019283549360ff851690600782101561036257600280920361032457600984019586549060ff82166102df57906004916101ae6005880154421015611f1c565b600160ff19928316811790995542600a88015516179055600092600c01855b6101fd575b85857f712ae1383f79ac853f8d882153778e0260ef8f03b504e2866e0593e04d2b291f600080a28055005b80548410156102da578060005260008061021c85822087861b01611f68565b805186820151606090920151805192908801916001600160a01b03165af13d156102d5573d61024a81611cb2565b906102586040519283611b25565b81526000853d92013e5b1561029057600019841461027a5785809401936101cd565b634e487b7160e01b600052601160045260246000fd5b60405162461bcd60e51b815260048101849052601760248201527f416374696f6e20657865637574696f6e206661696c65640000000000000000006044820152606490fd5b610262565b6101d2565b60405162461bcd60e51b815260048101869052601960248201527f50726f706f73616c20616c7265616479206578656375746564000000000000006044820152606490fd5b60405162461bcd60e51b8152600481018490526016602482015275141c9bdc1bdcd85b081b9bdd081cdd58d8d95959195960521b6044820152606490fd5b634e487b7160e01b600052602160045260246000fd5b50600454811115610155565b600080fd5b34610384576000366003190112610384576002546040516001600160a01b039091168152602090f35b34610384576060366003190112610384577f424aeabaa7adc72f304e1975e2aa85e4daccbad034f693d4661bb0afd3cec28760606004356044356024356103f7611d84565b826008558060095581600a5560405192835260208301526040820152a1005b346103845760203660031901126103845761042f611d4f565b610437611d84565b6001600160a01b0390811690811561048b57600054826bffffffffffffffffffffffff60a01b821617600055167f8be0079c531659141344cd1fd0a4f28419497f9722a3daafe3b4186f6b6457e0600080a3005b60405162461bcd60e51b815260206004820152602660248201527f4f776e61626c653a206e6577206f776e657220697320746865207a65726f206160448201526564647265737360d01b6064820152608490fd5b34610384576020806003193601126103845760043580151580610606575b61050690611e9b565b60005260058152600c6040600020019081549161052283611d22565b926105306040519485611b25565b8084528284018092600052836000206000915b8383106105e35750505050604051918083019381845251809452604083019360408160051b85010192916000955b82871061057e5785850386f35b9091929382806105d3600193603f198a82030186528851858060a01b03815116825283810151848301526105c060408201516080806040860152840190611bec565b9160608092015191818403910152611bec565b9601920196019592919092610571565b6004866001926105f5859a999a611f68565b815201920192019190959495610543565b506004548111156104fd565b346103845760403660031901126103845761062b611d39565b600435600052600660205260406000209060018060a01b0316600052602052604060002060ff815416610674610668600260018501549401611b46565b60405193849384611d65565b0390f35b346103845760208060031936011261038457600435801515806107c2575b61069f90611e9b565b600052600581526040600020600b810191825460ff811660078110156103625760016106cb9114611eda565b6106db6005840154421015611f1c565b600683019161070183549460086106f86007830197885490611ddc565b91015490611ddc565b6002546040516318160ddd60e01b8152919291908290829060049082906001600160a01b03165afa9182156107b657600092610788575b50506009549081810291818304149015171561027a5761271090041161077c5750549054101561076f57805460ff19166002179055005b805460ff19166003179055005b60ff1916600317909255005b90809250813d83116107af575b61079f8183611b25565b8101031261038457518680610738565b503d610795565b6040513d6000823e3d90fd5b50600454811115610696565b346103845760203660031901126103845760043580151580610875575b6107f490611e9b565b60005260056020526040600020805461067482808060018060a01b0360018201541694816004810154600582015460068301549060078401549261085d6003610856600260ff600b600a600960088d01549c01549d01549d0154169c01611b46565b9d01611b46565b6040519c8d9c8d9860ff808c60081c169b1699611c2c565b506004548111156107eb565b346103845760403660031901126103845760043561089d611d39565b90801515806108ea575b6108b090611e9b565b600052600660205260406000209060018060a01b0316600052602052604060002060ff815416610674610668600260018501549401611b46565b506004548111156108a7565b346103845760208060031936011261038457610910611d4f565b6002546040516370a0823160e01b81526001600160a01b03928316600482015291839183916024918391165afa9081156107b657600091610955575b50604051908152f35b90508181813d831161097b575b61096c8183611b25565b8101031261038457518261094c565b503d610962565b34610384576000366003190112610384576020600a54604051908152f35b34610384576020366003190112610384576106746109bf60043561204f565b604051918291602083526020830190611bec565b34610384576000366003190112610384576000546040516001600160a01b039091168152602090f35b3461038457600036600319011261038457610a15611d84565b600080546001600160a01b0319811682556001600160a01b03167f8be0079c531659141344cd1fd0a4f28419497f9722a3daafe3b4186f6b6457e08280a3005b3461038457604036600319011261038457610a6e611d39565b600435600052600760205260406000209060018060a01b0316600052602052602060ff604060002054166040519015158152f35b34610384576000366003190112610384576060604051600081526000602082015260006040820152f35b3461038457606036600319011261038457600435602490813560ff811691828203610384576044926001600160401b03843581811161038457610b13903690600401611d04565b91610b1c611e45565b83151580610f46575b610b2e90611e9b565b60028111610f0b5783600052602060078152604060002033600052815260ff60406000205416610ed957846000526005815260406000209260ff600b85015416976007891015610ec457610b856001809a14611eda565b60048501544210610e8d5760058501544211610e5c576002546040516370a0823160e01b8152336004820152959493929190839087908d9082906001600160a01b03165afa9586156107b657600096610e2d575b508515610df957508660005260078252604060002033600052825260406000209160ff19928a84825416179055604051606081019080821084831117610de45760029160405285815282810188815260408201958a87528b60005260068552604060002033600052855260ff604060002093511690835416178255518c8201550192519a8b51928311610dd05750610c7b82610c758554611ab5565b85611e00565b80601f8311600114610d46575081907f761cce3a1af5d9cfc0d57222f605ce4bd2be345f0ad9ebb7b83a84a91a0c201498999a9b600092610d3b575b5050600019600383901b1c1916908a1b1790555b80610cfa5750600701610cdf828254611ddc565b90555b610cf3604051928392339784611d65565b0390a38055005b808803610d175750600601610d10828254611ddc565b9055610ce2565b600214610d25575b50610ce2565b600801610d33828254611ddc565b905586610d1f565b015190508b80610cb7565b9a601f198316846000528c6000209c6000905b828210610db9575050918b9c91847f761cce3a1af5d9cfc0d57222f605ce4bd2be345f0ad9ebb7b83a84a91a0c20149b9c9d959410610da0575b505050811b019055610ccb565b015160001960f88460031b161c191690558b8080610d93565b838501518f559d8d019d9384019390810190610d59565b634e487b7160e01b60009081526041600452fd5b8c634e487b7160e01b60005260416004526000fd5b826e2737903b37ba34b733903837bbb2b960891b606492600f8e6040519462461bcd60e51b86526004860152840152820152fd5b9095508281813d8311610e55575b610e458183611b25565b810103126103845751948b610bd9565b503d610e3b565b826b159bdd1a5b99c8195b99195960a21b606492600c8d6040519462461bcd60e51b86526004860152840152820152fd5b8271159bdd1a5b99c81b9bdd081cdd185c9d195960721b60649260128d6040519462461bcd60e51b86526004860152840152820152fd5b89634e487b7160e01b60005260216004526000fd5b6064906c105b1c9958591e481d9bdd1959609a1b88600d8b6040519462461bcd60e51b86526004860152840152820152fd5b60405162461bcd60e51b81526020600482015260158189015274496e76616c696420737570706f72742076616c756560581b81880152606490fd5b50600454841115610b25565b34610384576020366003190112610384576004358015158061105a575b610f7890611e9b565b60008181526005602052604090206001810154336001600160a01b039182161490811561104c575b501561100757600b810190815460ff8116600781101561036257600592610fcb600160099314611eda565b01805461ff00191661010017905560ff19161790557f789cf55be980739dad1d0699b93b58e806b51c9d96619bfa8fe0a28abaa7b30c600080a2005b60405162461bcd60e51b815260206004820152601860248201527f4e6f7420617574686f72697a656420746f2063616e63656c00000000000000006044820152606490fd5b905060005416331483610fa0565b50600454811115610f6f565b34610384576000366003190112610384576003546040516001600160a01b039091168152602090f35b34610384576000366003190112610384576020600954604051908152f35b34610384576000366003190112610384576020600454604051908152f35b34610384576060366003190112610384576004356001600160401b038111610384576110fb903690600401611d04565b6024356001600160401b0381116103845761111a903690600401611d04565b6001600160401b036044351161038457366023604435011215610384576044356004013561114781611d22565b906111556040519283611b25565b80825260208201903660248260051b60443501011161038457602460443501915b60248260051b6044350101831061191957505050611192611e45565b6002546040516370a0823160e01b815233600482015290602090829060249082906001600160a01b03165afa9081156107b6576000916118e7575b50600a54116118a25760016004540191826004556111ed60085442611ddc565b9160405191826101c08101106001600160401b036101c085011117611617576101c0830160405284835233602084015285604084015260608301524260808301528260a0830152600060c0830152600060e0830152600061010083015260006101208301526000610140830152600061016083015260016101808301526101a08201528260005260056020526040600020908051825560018060a01b036020820151166bffffffffffffffffffffffff60a01b60018401541617600183015560408101518051906001600160401b0382116116175781906112de826112d56002880154611ab5565b60028801611e00565b602090601f831160011461183057600092611825575b50508160011b916000199060031b1c19161760028301555b60608101518051906001600160401b03821161161757819061133e826113356003880154611ab5565b60038801611e00565b602090601f83116001146117b3576000926117a8575b50508160011b916000199060031b1c19161760038301555b6080810151600483015560a0810151600583015560c0810151600683015560e081015160078301556101008101516008830155600982016101208201511515815460ff61ff00610140860151151560081b1692169061ffff191617179055610160810151600a830155600b820190610180810151916007831015610362576101a09260ff80198354169116179055015180519068010000000000000000821161161757600c83015482600c8501558083106116ab575b506020600c910192016000526020600020916000905b8282106114985760208686817f6c98a8c940418b35614f0cd02412d5c9606faff474cbb6cdd6640ba5d1a9f06b8b61147b60405191606083526060830190611bec565b93428783015260408201528033940390a360018055604051908152f35b8051805185546001600160a01b0319166001600160a01b03919091161785556020810151600186015560408101518051906001600160401b038211611617576114f1826114e860028a0154611ab5565b60028a01611e00565b602090601f83116001146116385760609392916000918361162d575b50508160011b916000199060031b1c19161760028701555b01518051906001600160401b03821161161757611552826115496003890154611ab5565b60038901611e00565b602090601f83116001146115a1579282600493602093600196600092611596575b505081861b916000199060031b1c19161760038801555b01940191019092611438565b015190508c80611573565b906003870160005260206000209160005b601f19851681106115ff575083602093600196938793600497601f198116106115e6575b505050811b01600388015561158a565b015160001960f88460031b161c191690558c80806115d6565b919260206001819286850151815501940192016115b2565b634e487b7160e01b600052604160045260246000fd5b015190508b8061150d565b906002880160005260206000209160005b601f1985168110611693575091839160019360609695601f1981161061167a575b505050811b016002870155611525565b015160001960f88460031b161c191690558b808061166a565b91926020600181928685015181550194019201611649565b6001600160fe1b03818116820361027a578316830361027a57600c840160005260206000208360021b81015b8260021b820181106116ea575050611422565b8060006004925560006001820155600281016117068154611ab5565b908161176a575b50506003810161171d8154611ab5565b908161172c575b5050016116d7565b81601f600093116001146117445750555b8a80611724565b908083918252611763601f60208420940160051c840160018501611de9565b555561173d565b81601f600093116001146117825750555b8a8061170d565b9080839182526117a1601f60208420940160051c840160018501611de9565b555561177b565b015190508780611354565b9250600385016000526020600020906000935b601f198416851061180a576001945083601f198116106117f1575b505050811b01600383015561136c565b015160001960f88460031b161c191690558780806117e1565b818101518355602094850194600190930192909101906117c6565b0151905087806112f4565b9250600285016000526020600020906000935b601f1984168510611887576001945083601f1981161061186e575b505050811b01600283015561130c565b015160001960f88460031b161c1916905587808061185e565b81810151835560209485019460019093019290910190611843565b60405162461bcd60e51b815260206004820152601e60248201527f496e73756666696369656e7420746f6b656e7320746f2070726f706f736500006044820152606490fd5b90506020813d602011611911575b8161190260209383611b25565b810103126103845751846111cd565b3d91506118f5565b82356001600160401b038111610384576080604435820136036023190112610384576040519161194883611aef565b6044358201602401356001600160a01b0381168103610384578352604482813501013560208401526001600160401b03606483604435010135116103845761199d366044358401606481013501602401611d04565b6040840152608482604435010135906001600160401b03821161038457366043838560443501010112156103845760249360209384936119ec9136916044803590920101808901359101611ccd565b60608201528152019301929050611176565b34610384576000366003190112610384576020600854604051908152f35b34610384576020366003190112610384576004356000908152600560205260409020805460018201546001600160a01b03169061067490611a5f60028501611b46565b93611a6c60038201611b46565b916004820154906005830154600684015460078501549060088601549260098701549560ff600b600a8a015499015416986040519c8d9c8d9860ff808c60081c169b1699611c2c565b90600182811c92168015611ae5575b6020831014611acf57565b634e487b7160e01b600052602260045260246000fd5b91607f1691611ac4565b608081019081106001600160401b0382111761161757604052565b604081019081106001600160401b0382111761161757604052565b90601f801991011681019081106001600160401b0382111761161757604052565b9060405191826000825492611b5a84611ab5565b908184526001948581169081600014611bc95750600114611b86575b5050611b8492500383611b25565b565b9093915060005260209081600020936000915b818310611bb1575050611b8493508201013880611b76565b85548884018501529485019487945091830191611b99565b915050611b8494506020925060ff191682840152151560051b8201013880611b76565b919082519283825260005b848110611c18575050826000602080949584010152601f8019910116010190565b602081830181015184830182015201611bf7565b9a9896949d9c9b999795939192611c7193611c63928d5260018060a01b031660208d015260408c6101a091829101528c0190611bec565b908a820360608c0152611bec565b9a608089015260a088015260c087015260e0860152610100850152151561012084015215156101408301526101608201526007821015610362576101800152565b6001600160401b03811161161757601f01601f191660200190565b929192611cd982611cb2565b91611ce76040519384611b25565b829481845281830111610384578281602093846000960137010152565b9080601f8301121561038457816020611d1f93359101611ccd565b90565b6001600160401b0381116116175760051b60200190565b602435906001600160a01b038216820361038457565b600435906001600160a01b038216820361038457565b611d1f939260ff60609316825260208201528160408201520190611bec565b6000546001600160a01b03163303611d9857565b606460405162461bcd60e51b815260206004820152602060248201527f4f776e61626c653a2063616c6c6572206973206e6f7420746865206f776e65726044820152fd5b9190820180921161027a57565b818110611df4575050565b60008155600101611de9565b9190601f8111611e0f57505050565b611b84926000526020600020906020601f840160051c83019310611e3b575b601f0160051c0190611de9565b9091508190611e2e565b600260015414611e56576002600155565b60405162461bcd60e51b815260206004820152601f60248201527f5265656e7472616e637947756172643a207265656e7472616e742063616c6c006044820152606490fd5b15611ea257565b60405162461bcd60e51b815260206004820152601060248201526f125b9d985b1a59081c1c9bdc1bdcd85b60821b6044820152606490fd5b15611ee157565b60405162461bcd60e51b815260206004820152601360248201527250726f706f73616c206e6f742061637469766560681b6044820152606490fd5b15611f2357565b60405162461bcd60e51b815260206004820152601760248201527f566f74696e6720706572696f64206e6f7420656e6465640000000000000000006044820152606490fd5b9060405191611f7683611aef565b8260018060a01b03825416815260016003818401549360209485850152611f9f60028201611b46565b60408501520190604051938492600092815491611fbb83611ab5565b8087529282811690811561202e5750600114611fe9575b5050505060609291611fe5910384611b25565b0152565b60009081528381209695945091905b81831061201657509394509192509082010181611fe5606038611fd2565b86548884018501529586019587945091830191611ff8565b60ff191685880152505050151560051b830101905081611fe5606038611fd2565b80151580612174575b61206190611e9b565b600052602060058152604080600020600981015460ff8160081c166000146120a75750506710d85b98d95b195960c21b90519161209d83611b0a565b6008835282015290565b60ff16156120c8575067115e1958dd5d195960c21b90519161209d83611b0a565b60048101544210156120f657506650656e64696e6760c81b9051916120ec83611b0a565b6007835282015290565b6005810154421161212257506541637469766560d01b90519161211883611b0a565b6006835282015290565b600b015460ff1660078110156103625760020361215c576814dd58d8d95959195960ba1b90519161215283611b0a565b6009835282015290565b6711195999585d195960c21b90519161209d83611b0a565b5060045481111561205856fea26469706673582212206f3373f348ca0f65adc551dc0cbef6896f22e7b722a75108fa73003a341e849f64736f6c63430008130033","opcodes":"PUSH1 0x80 CALLVALUE PUSH3 0xE1 JUMPI PUSH1 0x1F PUSH3 0x22C8 CODESIZE DUP2 SWAP1 SUB SWAP2 DUP3 ADD PUSH1 0x1F NOT AND DUP4 ADD SWAP2 PUSH1 0x1 PUSH1 0x1 PUSH1 0x40 SHL SUB DUP4 GT DUP5 DUP5 LT OR PUSH3 0xE6 JUMPI DUP1 DUP5 SWAP3 PUSH1 0x40 SWAP5 DUP6 MSTORE DUP4 CODECOPY DUP2 ADD SUB SLT PUSH3 0xE1 JUMPI PUSH3 0x5A PUSH1 0x20 PUSH3 0x52 DUP4 PUSH3 0xFC JUMP JUMPDEST SWAP3 ADD PUSH3 0xFC JUMP JUMPDEST PUSH1 0x0 DUP1 SLOAD CALLER PUSH1 0x1 PUSH1 0x1 PUSH1 0xA0 SHL SUB NOT DUP1 DUP4 AND DUP3 OR DUP5 SSTORE PUSH1 0x40 MLOAD SWAP6 SWAP1 SWAP5 PUSH1 0x1 PUSH1 0x1 PUSH1 0xA0 SHL SUB SWAP5 SWAP1 SWAP4 DUP6 SWAP4 SWAP2 SWAP1 DUP5 AND SWAP1 PUSH32 0x8BE0079C531659141344CD1FD0A4F28419497F9722A3DAAFE3B4186F6B6457E0 SWAP1 DUP1 LOG3 PUSH1 0x1 DUP1 SSTORE PUSH3 0x15180 PUSH1 0x8 SSTORE PUSH2 0x3E8 DUP1 PUSH1 0x9 SSTORE PUSH1 0xA SSTORE AND DUP4 PUSH1 0x2 SLOAD AND OR PUSH1 0x2 SSTORE AND SWAP1 PUSH1 0x3 SLOAD AND OR PUSH1 0x3 SSTORE PUSH2 0x21B6 SWAP1 DUP2 PUSH3 0x112 DUP3 CODECOPY RETURN JUMPDEST PUSH1 0x0 DUP1 REVERT JUMPDEST PUSH4 0x4E487B71 PUSH1 0xE0 SHL PUSH1 0x0 MSTORE PUSH1 0x41 PUSH1 0x4 MSTORE PUSH1 0x24 PUSH1 0x0 REVERT JUMPDEST MLOAD SWAP1 PUSH1 0x1 PUSH1 0x1 PUSH1 0xA0 SHL SUB DUP3 AND DUP3 SUB PUSH3 0xE1 JUMPI JUMP INVALID PUSH1 0x80 PUSH1 0x40 MSTORE PUSH1 0x4 CALLDATASIZE LT ISZERO PUSH2 0x12 JUMPI PUSH1 0x0 DUP1 REVERT JUMPDEST PUSH1 0x0 CALLDATALOAD PUSH1 0xE0 SHR DUP1 PUSH4 0x13CF08B EQ PUSH2 0x1A1C JUMPI DUP1 PUSH4 0x2A251A3 EQ PUSH2 0x19FE JUMPI DUP1 PUSH4 0xCBC0A08 EQ PUSH2 0x10CB JUMPI DUP1 PUSH4 0x1A5007DD EQ PUSH2 0x10AD JUMPI DUP1 PUSH4 0x24BC1A64 EQ PUSH2 0x108F JUMPI DUP1 PUSH4 0x2A2B6BA0 EQ PUSH2 0x1066 JUMPI DUP1 PUSH4 0x40E58EE5 EQ PUSH2 0xF52 JUMPI DUP1 PUSH4 0x43859632 EQ PUSH2 0xA55 JUMPI DUP1 PUSH4 0x470B7622 EQ PUSH2 0xACC JUMPI DUP1 PUSH4 0x5835CF30 EQ PUSH2 0xAA2 JUMPI DUP1 PUSH4 0x600303D8 EQ PUSH2 0xA55 JUMPI DUP1 PUSH4 0x715018A6 EQ PUSH2 0x9FC JUMPI DUP1 PUSH4 0x8DA5CB5B EQ PUSH2 0x9D3 JUMPI DUP1 PUSH4 0x9080936F EQ PUSH2 0x9A0 JUMPI DUP1 PUSH4 0xB58131B0 EQ PUSH2 0x982 JUMPI DUP1 PUSH4 0xBB4D4436 EQ PUSH2 0x8F6 JUMPI DUP1 PUSH4 0xBC3F931F EQ PUSH2 0x881 JUMPI DUP1 PUSH4 0xC7F758A8 EQ PUSH2 0x7CE JUMPI DUP1 PUSH4 0xC851ED6C EQ PUSH2 0x678 JUMPI DUP1 PUSH4 0xD23254B4 EQ PUSH2 0x612 JUMPI DUP1 PUSH4 0xE26B2BEA EQ PUSH2 0x4DF JUMPI DUP1 PUSH4 0xF2FDE38B EQ PUSH2 0x416 JUMPI DUP1 PUSH4 0xF3047C05 EQ PUSH2 0x3B2 JUMPI DUP1 PUSH4 0xF96DAE0A EQ PUSH2 0x389 JUMPI PUSH4 0xFE0D94C1 EQ PUSH2 0x12F JUMPI PUSH1 0x0 DUP1 REVERT JUMPDEST CALLVALUE PUSH2 0x384 JUMPI PUSH1 0x20 DUP1 PUSH1 0x3 NOT CALLDATASIZE ADD SLT PUSH2 0x384 JUMPI PUSH1 0x4 CALLDATALOAD PUSH2 0x14C PUSH2 0x1E45 JUMP JUMPDEST DUP1 ISZERO ISZERO DUP1 PUSH2 0x378 JUMPI JUMPDEST PUSH2 0x15E SWAP1 PUSH2 0x1E9B JUMP JUMPDEST DUP1 PUSH1 0x0 MSTORE PUSH1 0x5 DUP3 MSTORE PUSH1 0x40 PUSH1 0x0 KECCAK256 PUSH1 0xB DUP2 ADD SWAP3 DUP4 SLOAD SWAP4 PUSH1 0xFF DUP6 AND SWAP1 PUSH1 0x7 DUP3 LT ISZERO PUSH2 0x362 JUMPI PUSH1 0x2 DUP1 SWAP3 SUB PUSH2 0x324 JUMPI PUSH1 0x9 DUP5 ADD SWAP6 DUP7 SLOAD SWAP1 PUSH1 0xFF DUP3 AND PUSH2 0x2DF JUMPI SWAP1 PUSH1 0x4 SWAP2 PUSH2 0x1AE PUSH1 0x5 DUP9 ADD SLOAD TIMESTAMP LT ISZERO PUSH2 0x1F1C JUMP JUMPDEST PUSH1 0x1 PUSH1 0xFF NOT SWAP3 DUP4 AND DUP2 OR SWAP1 SWAP10 SSTORE TIMESTAMP PUSH1 0xA DUP9 ADD SSTORE AND OR SWAP1 SSTORE PUSH1 0x0 SWAP3 PUSH1 0xC ADD DUP6 JUMPDEST PUSH2 0x1FD JUMPI JUMPDEST DUP6 DUP6 PUSH32 0x712AE1383F79AC853F8D882153778E0260EF8F03B504E2866E0593E04D2B291F PUSH1 0x0 DUP1 LOG2 DUP1 SSTORE STOP JUMPDEST DUP1 SLOAD DUP5 LT ISZERO PUSH2 0x2DA JUMPI DUP1 PUSH1 0x0 MSTORE PUSH1 0x0 DUP1 PUSH2 0x21C DUP6 DUP3 KECCAK256 DUP8 DUP7 SHL ADD PUSH2 0x1F68 JUMP JUMPDEST DUP1 MLOAD DUP7 DUP3 ADD MLOAD PUSH1 0x60 SWAP1 SWAP3 ADD MLOAD DUP1 MLOAD SWAP3 SWAP1 DUP9 ADD SWAP2 PUSH1 0x1 PUSH1 0x1 PUSH1 0xA0 SHL SUB AND GAS CALL RETURNDATASIZE ISZERO PUSH2 0x2D5 JUMPI RETURNDATASIZE PUSH2 0x24A DUP2 PUSH2 0x1CB2 JUMP JUMPDEST SWAP1 PUSH2 0x258 PUSH1 0x40 MLOAD SWAP3 DUP4 PUSH2 0x1B25 JUMP JUMPDEST DUP2 MSTORE PUSH1 0x0 DUP6 RETURNDATASIZE SWAP3 ADD RETURNDATACOPY JUMPDEST ISZERO PUSH2 0x290 JUMPI PUSH1 0x0 NOT DUP5 EQ PUSH2 0x27A JUMPI DUP6 DUP1 SWAP5 ADD SWAP4 PUSH2 0x1CD JUMP JUMPDEST PUSH4 0x4E487B71 PUSH1 0xE0 SHL PUSH1 0x0 MSTORE PUSH1 0x11 PUSH1 0x4 MSTORE PUSH1 0x24 PUSH1 0x0 REVERT JUMPDEST PUSH1 0x40 MLOAD PUSH3 0x461BCD PUSH1 0xE5 SHL DUP2 MSTORE PUSH1 0x4 DUP2 ADD DUP5 SWAP1 MSTORE PUSH1 0x17 PUSH1 0x24 DUP3 ADD MSTORE PUSH32 0x416374696F6E20657865637574696F6E206661696C6564000000000000000000 PUSH1 0x44 DUP3 ADD MSTORE PUSH1 0x64 SWAP1 REVERT JUMPDEST PUSH2 0x262 JUMP JUMPDEST PUSH2 0x1D2 JUMP JUMPDEST PUSH1 0x40 MLOAD PUSH3 0x461BCD PUSH1 0xE5 SHL DUP2 MSTORE PUSH1 0x4 DUP2 ADD DUP7 SWAP1 MSTORE PUSH1 0x19 PUSH1 0x24 DUP3 ADD MSTORE PUSH32 0x50726F706F73616C20616C726561647920657865637574656400000000000000 PUSH1 0x44 DUP3 ADD MSTORE PUSH1 0x64 SWAP1 REVERT JUMPDEST PUSH1 0x40 MLOAD PUSH3 0x461BCD PUSH1 0xE5 SHL DUP2 MSTORE PUSH1 0x4 DUP2 ADD DUP5 SWAP1 MSTORE PUSH1 0x16 PUSH1 0x24 DUP3 ADD MSTORE PUSH22 0x141C9BDC1BDCD85B081B9BDD081CDD58D8D959591959 PUSH1 0x52 SHL PUSH1 0x44 DUP3 ADD MSTORE PUSH1 0x64 SWAP1 REVERT JUMPDEST PUSH4 0x4E487B71 PUSH1 0xE0 SHL PUSH1 0x0 MSTORE PUSH1 0x21 PUSH1 0x4 MSTORE PUSH1 0x24 PUSH1 0x0 REVERT JUMPDEST POP PUSH1 0x4 SLOAD DUP2 GT ISZERO PUSH2 0x155 JUMP JUMPDEST PUSH1 0x0 DUP1 REVERT JUMPDEST CALLVALUE PUSH2 0x384 JUMPI PUSH1 0x0 CALLDATASIZE PUSH1 0x3 NOT ADD SLT PUSH2 0x384 JUMPI PUSH1 0x2 SLOAD PUSH1 0x40 MLOAD PUSH1 0x1 PUSH1 0x1 PUSH1 0xA0 SHL SUB SWAP1 SWAP2 AND DUP2 MSTORE PUSH1 0x20 SWAP1 RETURN JUMPDEST CALLVALUE PUSH2 0x384 JUMPI PUSH1 0x60 CALLDATASIZE PUSH1 0x3 NOT ADD SLT PUSH2 0x384 JUMPI PUSH32 0x424AEABAA7ADC72F304E1975E2AA85E4DACCBAD034F693D4661BB0AFD3CEC287 PUSH1 0x60 PUSH1 0x4 CALLDATALOAD PUSH1 0x44 CALLDATALOAD PUSH1 0x24 CALLDATALOAD PUSH2 0x3F7 PUSH2 0x1D84 JUMP JUMPDEST DUP3 PUSH1 0x8 SSTORE DUP1 PUSH1 0x9 SSTORE DUP2 PUSH1 0xA SSTORE PUSH1 0x40 MLOAD SWAP3 DUP4 MSTORE PUSH1 0x20 DUP4 ADD MSTORE PUSH1 0x40 DUP3 ADD MSTORE LOG1 STOP JUMPDEST CALLVALUE PUSH2 0x384 JUMPI PUSH1 0x20 CALLDATASIZE PUSH1 0x3 NOT ADD SLT PUSH2 0x384 JUMPI PUSH2 0x42F PUSH2 0x1D4F JUMP JUMPDEST PUSH2 0x437 PUSH2 0x1D84 JUMP JUMPDEST PUSH1 0x1 PUSH1 0x1 PUSH1 0xA0 SHL SUB SWAP1 DUP2 AND SWAP1 DUP2 ISZERO PUSH2 0x48B JUMPI PUSH1 0x0 SLOAD DUP3 PUSH12 0xFFFFFFFFFFFFFFFFFFFFFFFF PUSH1 0xA0 SHL DUP3 AND OR PUSH1 0x0 SSTORE AND PUSH32 0x8BE0079C531659141344CD1FD0A4F28419497F9722A3DAAFE3B4186F6B6457E0 PUSH1 0x0 DUP1 LOG3 STOP JUMPDEST PUSH1 0x40 MLOAD PUSH3 0x461BCD PUSH1 0xE5 SHL DUP2 MSTORE PUSH1 0x20 PUSH1 0x4 DUP3 ADD MSTORE PUSH1 0x26 PUSH1 0x24 DUP3 ADD MSTORE PUSH32 0x4F776E61626C653A206E6577206F776E657220697320746865207A65726F2061 PUSH1 0x44 DUP3 ADD MSTORE PUSH6 0x646472657373 PUSH1 0xD0 SHL PUSH1 0x64 DUP3 ADD MSTORE PUSH1 0x84 SWAP1 REVERT JUMPDEST CALLVALUE PUSH2 0x384 JUMPI PUSH1 0x20 DUP1 PUSH1 0x3 NOT CALLDATASIZE ADD SLT PUSH2 0x384 JUMPI PUSH1 0x4 CALLDATALOAD DUP1 ISZERO ISZERO DUP1 PUSH2 0x606 JUMPI JUMPDEST PUSH2 0x506 SWAP1 PUSH2 0x1E9B JUMP JUMPDEST PUSH1 0x0 MSTORE PUSH1 0x5 DUP2 MSTORE PUSH1 0xC PUSH1 0x40 PUSH1 0x0 KECCAK256 ADD SWAP1 DUP2 SLOAD SWAP2 PUSH2 0x522 DUP4 PUSH2 0x1D22 JUMP JUMPDEST SWAP3 PUSH2 0x530 PUSH1 0x40 MLOAD SWAP5 DUP6 PUSH2 0x1B25 JUMP JUMPDEST DUP1 DUP5 MSTORE DUP3 DUP5 ADD DUP1 SWAP3 PUSH1 0x0 MSTORE DUP4 PUSH1 0x0 KECCAK256 PUSH1 0x0 SWAP2 JUMPDEST DUP4 DUP4 LT PUSH2 0x5E3 JUMPI POP POP POP POP PUSH1 0x40 MLOAD SWAP2 DUP1 DUP4 ADD SWAP4 DUP2 DUP5 MSTORE MLOAD DUP1 SWAP5 MSTORE PUSH1 0x40 DUP4 ADD SWAP4 PUSH1 0x40 DUP2 PUSH1 0x5 SHL DUP6 ADD ADD SWAP3 SWAP2 PUSH1 0x0 SWAP6 JUMPDEST DUP3 DUP8 LT PUSH2 0x57E JUMPI DUP6 DUP6 SUB DUP7 RETURN JUMPDEST SWAP1 SWAP2 SWAP3 SWAP4 DUP3 DUP1 PUSH2 0x5D3 PUSH1 0x1 SWAP4 PUSH1 0x3F NOT DUP11 DUP3 SUB ADD DUP7 MSTORE DUP9 MLOAD DUP6 DUP1 PUSH1 0xA0 SHL SUB DUP2 MLOAD AND DUP3 MSTORE DUP4 DUP2 ADD MLOAD DUP5 DUP4 ADD MSTORE PUSH2 0x5C0 PUSH1 0x40 DUP3 ADD MLOAD PUSH1 0x80 DUP1 PUSH1 0x40 DUP7 ADD MSTORE DUP5 ADD SWAP1 PUSH2 0x1BEC JUMP JUMPDEST SWAP2 PUSH1 0x60 DUP1 SWAP3 ADD MLOAD SWAP2 DUP2 DUP5 SUB SWAP2 ADD MSTORE PUSH2 0x1BEC JUMP JUMPDEST SWAP7 ADD SWAP3 ADD SWAP7 ADD SWAP6 SWAP3 SWAP2 SWAP1 SWAP3 PUSH2 0x571 JUMP JUMPDEST PUSH1 0x4 DUP7 PUSH1 0x1 SWAP3 PUSH2 0x5F5 DUP6 SWAP11 SWAP10 SWAP11 PUSH2 0x1F68 JUMP JUMPDEST DUP2 MSTORE ADD SWAP3 ADD SWAP3 ADD SWAP2 SWAP1 SWAP6 SWAP5 SWAP6 PUSH2 0x543 JUMP JUMPDEST POP PUSH1 0x4 SLOAD DUP2 GT ISZERO PUSH2 0x4FD JUMP JUMPDEST CALLVALUE PUSH2 0x384 JUMPI PUSH1 0x40 CALLDATASIZE PUSH1 0x3 NOT ADD SLT PUSH2 0x384 JUMPI PUSH2 0x62B PUSH2 0x1D39 JUMP JUMPDEST PUSH1 0x4 CALLDATALOAD PUSH1 0x0 MSTORE PUSH1 0x6 PUSH1 0x20 MSTORE PUSH1 0x40 PUSH1 0x0 KECCAK256 SWAP1 PUSH1 0x1 DUP1 PUSH1 0xA0 SHL SUB AND PUSH1 0x0 MSTORE PUSH1 0x20 MSTORE PUSH1 0x40 PUSH1 0x0 KECCAK256 PUSH1 0xFF DUP2 SLOAD AND PUSH2 0x674 PUSH2 0x668 PUSH1 0x2 PUSH1 0x1 DUP6 ADD SLOAD SWAP5 ADD PUSH2 0x1B46 JUMP JUMPDEST PUSH1 0x40 MLOAD SWAP4 DUP5 SWAP4 DUP5 PUSH2 0x1D65 JUMP JUMPDEST SUB SWAP1 RETURN JUMPDEST CALLVALUE PUSH2 0x384 JUMPI PUSH1 0x20 DUP1 PUSH1 0x3 NOT CALLDATASIZE ADD SLT PUSH2 0x384 JUMPI PUSH1 0x4 CALLDATALOAD DUP1 ISZERO ISZERO DUP1 PUSH2 0x7C2 JUMPI JUMPDEST PUSH2 0x69F SWAP1 PUSH2 0x1E9B JUMP JUMPDEST PUSH1 0x0 MSTORE PUSH1 0x5 DUP2 MSTORE PUSH1 0x40 PUSH1 0x0 KECCAK256 PUSH1 0xB DUP2 ADD SWAP2 DUP3 SLOAD PUSH1 0xFF DUP2 AND PUSH1 0x7 DUP2 LT ISZERO PUSH2 0x362 JUMPI PUSH1 0x1 PUSH2 0x6CB SWAP2 EQ PUSH2 0x1EDA JUMP JUMPDEST PUSH2 0x6DB PUSH1 0x5 DUP5 ADD SLOAD TIMESTAMP LT ISZERO PUSH2 0x1F1C JUMP JUMPDEST PUSH1 0x6 DUP4 ADD SWAP2 PUSH2 0x701 DUP4 SLOAD SWAP5 PUSH1 0x8 PUSH2 0x6F8 PUSH1 0x7 DUP4 ADD SWAP8 DUP9 SLOAD SWAP1 PUSH2 0x1DDC JUMP JUMPDEST SWAP2 ADD SLOAD SWAP1 PUSH2 0x1DDC JUMP JUMPDEST PUSH1 0x2 SLOAD PUSH1 0x40 MLOAD PUSH4 0x18160DDD PUSH1 0xE0 SHL DUP2 MSTORE SWAP2 SWAP3 SWAP2 SWAP1 DUP3 SWAP1 DUP3 SWAP1 PUSH1 0x4 SWAP1 DUP3 SWAP1 PUSH1 0x1 PUSH1 0x1 PUSH1 0xA0 SHL SUB AND GAS STATICCALL SWAP2 DUP3 ISZERO PUSH2 0x7B6 JUMPI PUSH1 0x0 SWAP3 PUSH2 0x788 JUMPI JUMPDEST POP POP PUSH1 0x9 SLOAD SWAP1 DUP2 DUP2 MUL SWAP2 DUP2 DUP4 DIV EQ SWAP1 ISZERO OR ISZERO PUSH2 0x27A JUMPI PUSH2 0x2710 SWAP1 DIV GT PUSH2 0x77C JUMPI POP SLOAD SWAP1 SLOAD LT ISZERO PUSH2 0x76F JUMPI DUP1 SLOAD PUSH1 0xFF NOT AND PUSH1 0x2 OR SWAP1 SSTORE STOP JUMPDEST DUP1 SLOAD PUSH1 0xFF NOT AND PUSH1 0x3 OR SWAP1 SSTORE STOP JUMPDEST PUSH1 0xFF NOT AND PUSH1 0x3 OR SWAP1 SWAP3 SSTORE STOP JUMPDEST SWAP1 DUP1 SWAP3 POP DUP2 RETURNDATASIZE DUP4 GT PUSH2 0x7AF JUMPI JUMPDEST PUSH2 0x79F DUP2 DUP4 PUSH2 0x1B25 JUMP JUMPDEST DUP2 ADD SUB SLT PUSH2 0x384 JUMPI MLOAD DUP7 DUP1 PUSH2 0x738 JUMP JUMPDEST POP RETURNDATASIZE PUSH2 0x795 JUMP JUMPDEST PUSH1 0x40 MLOAD RETURNDATASIZE PUSH1 0x0 DUP3 RETURNDATACOPY RETURNDATASIZE SWAP1 REVERT JUMPDEST POP PUSH1 0x4 SLOAD DUP2 GT ISZERO PUSH2 0x696 JUMP JUMPDEST CALLVALUE PUSH2 0x384 JUMPI PUSH1 0x20 CALLDATASIZE PUSH1 0x3 NOT ADD SLT PUSH2 0x384 JUMPI PUSH1 0x4 CALLDATALOAD DUP1 ISZERO ISZERO DUP1 PUSH2 0x875 JUMPI JUMPDEST PUSH2 0x7F4 SWAP1 PUSH2 0x1E9B JUMP JUMPDEST PUSH1 0x0 MSTORE PUSH1 0x5 PUSH1 0x20 MSTORE PUSH1 0x40 PUSH1 0x0 KECCAK256 DUP1 SLOAD PUSH2 0x674 DUP3 DUP1 DUP1 PUSH1 0x1 DUP1 PUSH1 0xA0 SHL SUB PUSH1 0x1 DUP3 ADD SLOAD AND SWAP5 DUP2 PUSH1 0x4 DUP2 ADD SLOAD PUSH1 0x5 DUP3 ADD SLOAD PUSH1 0x6 DUP4 ADD SLOAD SWAP1 PUSH1 0x7 DUP5 ADD SLOAD SWAP3 PUSH2 0x85D PUSH1 0x3 PUSH2 0x856 PUSH1 0x2 PUSH1 0xFF PUSH1 0xB PUSH1 0xA PUSH1 0x9 PUSH1 0x8 DUP14 ADD SLOAD SWAP13 ADD SLOAD SWAP14 ADD SLOAD SWAP14 ADD SLOAD AND SWAP13 ADD PUSH2 0x1B46 JUMP JUMPDEST SWAP14 ADD PUSH2 0x1B46 JUMP JUMPDEST PUSH1 0x40 MLOAD SWAP13 DUP14 SWAP13 DUP14 SWAP9 PUSH1 0xFF DUP1 DUP13 PUSH1 0x8 SHR AND SWAP12 AND SWAP10 PUSH2 0x1C2C JUMP JUMPDEST POP PUSH1 0x4 SLOAD DUP2 GT ISZERO PUSH2 0x7EB JUMP JUMPDEST CALLVALUE PUSH2 0x384 JUMPI PUSH1 0x40 CALLDATASIZE PUSH1 0x3 NOT ADD SLT PUSH2 0x384 JUMPI PUSH1 0x4 CALLDATALOAD PUSH2 0x89D PUSH2 0x1D39 JUMP JUMPDEST SWAP1 DUP1 ISZERO ISZERO DUP1 PUSH2 0x8EA JUMPI JUMPDEST PUSH2 0x8B0 SWAP1 PUSH2 0x1E9B JUMP JUMPDEST PUSH1 0x0 MSTORE PUSH1 0x6 PUSH1 0x20 MSTORE PUSH1 0x40 PUSH1 0x0 KECCAK256 SWAP1 PUSH1 0x1 DUP1 PUSH1 0xA0 SHL SUB AND PUSH1 0x0 MSTORE PUSH1 0x20 MSTORE PUSH1 0x40 PUSH1 0x0 KECCAK256 PUSH1 0xFF DUP2 SLOAD AND PUSH2 0x674 PUSH2 0x668 PUSH1 0x2 PUSH1 0x1 DUP6 ADD SLOAD SWAP5 ADD PUSH2 0x1B46 JUMP JUMPDEST POP PUSH1 0x4 SLOAD DUP2 GT ISZERO PUSH2 0x8A7 JUMP JUMPDEST CALLVALUE PUSH2 0x384 JUMPI PUSH1 0x20 DUP1 PUSH1 0x3 NOT CALLDATASIZE ADD SLT PUSH2 0x384 JUMPI PUSH2 0x910 PUSH2 0x1D4F JUMP JUMPDEST PUSH1 0x2 SLOAD PUSH1 0x40 MLOAD PUSH4 0x70A08231 PUSH1 0xE0 SHL DUP2 MSTORE PUSH1 0x1 PUSH1 0x1 PUSH1 0xA0 SHL SUB SWAP3 DUP4 AND PUSH1 0x4 DUP3 ADD MSTORE SWAP2 DUP4 SWAP2 DUP4 SWAP2 PUSH1 0x24 SWAP2 DUP4 SWAP2 AND GAS STATICCALL SWAP1 DUP2 ISZERO PUSH2 0x7B6 JUMPI PUSH1 0x0 SWAP2 PUSH2 0x955 JUMPI JUMPDEST POP PUSH1 0x40 MLOAD SWAP1 DUP2 MSTORE RETURN JUMPDEST SWAP1 POP DUP2 DUP2 DUP2 RETURNDATASIZE DUP4 GT PUSH2 0x97B JUMPI JUMPDEST PUSH2 0x96C DUP2 DUP4 PUSH2 0x1B25 JUMP JUMPDEST DUP2 ADD SUB SLT PUSH2 0x384 JUMPI MLOAD DUP3 PUSH2 0x94C JUMP JUMPDEST POP RETURNDATASIZE PUSH2 0x962 JUMP JUMPDEST CALLVALUE PUSH2 0x384 JUMPI PUSH1 0x0 CALLDATASIZE PUSH1 0x3 NOT ADD SLT PUSH2 0x384 JUMPI PUSH1 0x20 PUSH1 0xA SLOAD PUSH1 0x40 MLOAD SWAP1 DUP2 MSTORE RETURN JUMPDEST CALLVALUE PUSH2 0x384 JUMPI PUSH1 0x20 CALLDATASIZE PUSH1 0x3 NOT ADD SLT PUSH2 0x384 JUMPI PUSH2 0x674 PUSH2 0x9BF PUSH1 0x4 CALLDATALOAD PUSH2 0x204F JUMP JUMPDEST PUSH1 0x40 MLOAD SWAP2 DUP3 SWAP2 PUSH1 0x20 DUP4 MSTORE PUSH1 0x20 DUP4 ADD SWAP1 PUSH2 0x1BEC JUMP JUMPDEST CALLVALUE PUSH2 0x384 JUMPI PUSH1 0x0 CALLDATASIZE PUSH1 0x3 NOT ADD SLT PUSH2 0x384 JUMPI PUSH1 0x0 SLOAD PUSH1 0x40 MLOAD PUSH1 0x1 PUSH1 0x1 PUSH1 0xA0 SHL SUB SWAP1 SWAP2 AND DUP2 MSTORE PUSH1 0x20 SWAP1 RETURN JUMPDEST CALLVALUE PUSH2 0x384 JUMPI PUSH1 0x0 CALLDATASIZE PUSH1 0x3 NOT ADD SLT PUSH2 0x384 JUMPI PUSH2 0xA15 PUSH2 0x1D84 JUMP JUMPDEST PUSH1 0x0 DUP1 SLOAD PUSH1 0x1 PUSH1 0x1 PUSH1 0xA0 SHL SUB NOT DUP2 AND DUP3 SSTORE PUSH1 0x1 PUSH1 0x1 PUSH1 0xA0 SHL SUB AND PUSH32 0x8BE0079C531659141344CD1FD0A4F28419497F9722A3DAAFE3B4186F6B6457E0 DUP3 DUP1 LOG3 STOP JUMPDEST CALLVALUE PUSH2 0x384 JUMPI PUSH1 0x40 CALLDATASIZE PUSH1 0x3 NOT ADD SLT PUSH2 0x384 JUMPI PUSH2 0xA6E PUSH2 0x1D39 JUMP JUMPDEST PUSH1 0x4 CALLDATALOAD PUSH1 0x0 MSTORE PUSH1 0x7 PUSH1 0x20 MSTORE PUSH1 0x40 PUSH1 0x0 KECCAK256 SWAP1 PUSH1 0x1 DUP1 PUSH1 0xA0 SHL SUB AND PUSH1 0x0 MSTORE PUSH1 0x20 MSTORE PUSH1 0x20 PUSH1 0xFF PUSH1 0x40 PUSH1 0x0 KECCAK256 SLOAD AND PUSH1 0x40 MLOAD SWAP1 ISZERO ISZERO DUP2 MSTORE RETURN JUMPDEST CALLVALUE PUSH2 0x384 JUMPI PUSH1 0x0 CALLDATASIZE PUSH1 0x3 NOT ADD SLT PUSH2 0x384 JUMPI PUSH1 0x60 PUSH1 0x40 MLOAD PUSH1 0x0 DUP2 MSTORE PUSH1 0x0 PUSH1 0x20 DUP3 ADD MSTORE PUSH1 0x0 PUSH1 0x40 DUP3 ADD MSTORE RETURN JUMPDEST CALLVALUE PUSH2 0x384 JUMPI PUSH1 0x60 CALLDATASIZE PUSH1 0x3 NOT ADD SLT PUSH2 0x384 JUMPI PUSH1 0x4 CALLDATALOAD PUSH1 0x24 SWAP1 DUP2 CALLDATALOAD PUSH1 0xFF DUP2 AND SWAP2 DUP3 DUP3 SUB PUSH2 0x384 JUMPI PUSH1 0x44 SWAP3 PUSH1 0x1 PUSH1 0x1 PUSH1 0x40 SHL SUB DUP5 CALLDATALOAD DUP2 DUP2 GT PUSH2 0x384 JUMPI PUSH2 0xB13 SWAP1 CALLDATASIZE SWAP1 PUSH1 0x4 ADD PUSH2 0x1D04 JUMP JUMPDEST SWAP2 PUSH2 0xB1C PUSH2 0x1E45 JUMP JUMPDEST DUP4 ISZERO ISZERO DUP1 PUSH2 0xF46 JUMPI JUMPDEST PUSH2 0xB2E SWAP1 PUSH2 0x1E9B JUMP JUMPDEST PUSH1 0x2 DUP2 GT PUSH2 0xF0B JUMPI DUP4 PUSH1 0x0 MSTORE PUSH1 0x20 PUSH1 0x7 DUP2 MSTORE PUSH1 0x40 PUSH1 0x0 KECCAK256 CALLER PUSH1 0x0 MSTORE DUP2 MSTORE PUSH1 0xFF PUSH1 0x40 PUSH1 0x0 KECCAK256 SLOAD AND PUSH2 0xED9 JUMPI DUP5 PUSH1 0x0 MSTORE PUSH1 0x5 DUP2 MSTORE PUSH1 0x40 PUSH1 0x0 KECCAK256 SWAP3 PUSH1 0xFF PUSH1 0xB DUP6 ADD SLOAD AND SWAP8 PUSH1 0x7 DUP10 LT ISZERO PUSH2 0xEC4 JUMPI PUSH2 0xB85 PUSH1 0x1 DUP1 SWAP11 EQ PUSH2 0x1EDA JUMP JUMPDEST PUSH1 0x4 DUP6 ADD SLOAD TIMESTAMP LT PUSH2 0xE8D JUMPI PUSH1 0x5 DUP6 ADD SLOAD TIMESTAMP GT PUSH2 0xE5C JUMPI PUSH1 0x2 SLOAD PUSH1 0x40 MLOAD PUSH4 0x70A08231 PUSH1 0xE0 SHL DUP2 MSTORE CALLER PUSH1 0x4 DUP3 ADD MSTORE SWAP6 SWAP5 SWAP4 SWAP3 SWAP2 SWAP1 DUP4 SWAP1 DUP8 SWAP1 DUP14 SWAP1 DUP3 SWAP1 PUSH1 0x1 PUSH1 0x1 PUSH1 0xA0 SHL SUB AND GAS STATICCALL SWAP6 DUP7 ISZERO PUSH2 0x7B6 JUMPI PUSH1 0x0 SWAP7 PUSH2 0xE2D JUMPI JUMPDEST POP DUP6 ISZERO PUSH2 0xDF9 JUMPI POP DUP7 PUSH1 0x0 MSTORE PUSH1 0x7 DUP3 MSTORE PUSH1 0x40 PUSH1 0x0 KECCAK256 CALLER PUSH1 0x0 MSTORE DUP3 MSTORE PUSH1 0x40 PUSH1 0x0 KECCAK256 SWAP2 PUSH1 0xFF NOT SWAP3 DUP11 DUP5 DUP3 SLOAD AND OR SWAP1 SSTORE PUSH1 0x40 MLOAD PUSH1 0x60 DUP2 ADD SWAP1 DUP1 DUP3 LT DUP5 DUP4 GT OR PUSH2 0xDE4 JUMPI PUSH1 0x2 SWAP2 PUSH1 0x40 MSTORE DUP6 DUP2 MSTORE DUP3 DUP2 ADD DUP9 DUP2 MSTORE PUSH1 0x40 DUP3 ADD SWAP6 DUP11 DUP8 MSTORE DUP12 PUSH1 0x0 MSTORE PUSH1 0x6 DUP6 MSTORE PUSH1 0x40 PUSH1 0x0 KECCAK256 CALLER PUSH1 0x0 MSTORE DUP6 MSTORE PUSH1 0xFF PUSH1 0x40 PUSH1 0x0 KECCAK256 SWAP4 MLOAD AND SWAP1 DUP4 SLOAD AND OR DUP3 SSTORE MLOAD DUP13 DUP3 ADD SSTORE ADD SWAP3 MLOAD SWAP11 DUP12 MLOAD SWAP3 DUP4 GT PUSH2 0xDD0 JUMPI POP PUSH2 0xC7B DUP3 PUSH2 0xC75 DUP6 SLOAD PUSH2 0x1AB5 JUMP JUMPDEST DUP6 PUSH2 0x1E00 JUMP JUMPDEST DUP1 PUSH1 0x1F DUP4 GT PUSH1 0x1 EQ PUSH2 0xD46 JUMPI POP DUP2 SWAP1 PUSH32 0x761CCE3A1AF5D9CFC0D57222F605CE4BD2BE345F0AD9EBB7B83A84A91A0C2014 SWAP9 SWAP10 SWAP11 SWAP12 PUSH1 0x0 SWAP3 PUSH2 0xD3B JUMPI JUMPDEST POP POP PUSH1 0x0 NOT PUSH1 0x3 DUP4 SWAP1 SHL SHR NOT AND SWAP1 DUP11 SHL OR SWAP1 SSTORE JUMPDEST DUP1 PUSH2 0xCFA JUMPI POP PUSH1 0x7 ADD PUSH2 0xCDF DUP3 DUP3 SLOAD PUSH2 0x1DDC JUMP JUMPDEST SWAP1 SSTORE JUMPDEST PUSH2 0xCF3 PUSH1 0x40 MLOAD SWAP3 DUP4 SWAP3 CALLER SWAP8 DUP5 PUSH2 0x1D65 JUMP JUMPDEST SUB SWAP1 LOG3 DUP1 SSTORE STOP JUMPDEST DUP1 DUP9 SUB PUSH2 0xD17 JUMPI POP PUSH1 0x6 ADD PUSH2 0xD10 DUP3 DUP3 SLOAD PUSH2 0x1DDC JUMP JUMPDEST SWAP1 SSTORE PUSH2 0xCE2 JUMP JUMPDEST PUSH1 0x2 EQ PUSH2 0xD25 JUMPI JUMPDEST POP PUSH2 0xCE2 JUMP JUMPDEST PUSH1 0x8 ADD PUSH2 0xD33 DUP3 DUP3 SLOAD PUSH2 0x1DDC JUMP JUMPDEST SWAP1 SSTORE DUP7 PUSH2 0xD1F JUMP JUMPDEST ADD MLOAD SWAP1 POP DUP12 DUP1 PUSH2 0xCB7 JUMP JUMPDEST SWAP11 PUSH1 0x1F NOT DUP4 AND DUP5 PUSH1 0x0 MSTORE DUP13 PUSH1 0x0 KECCAK256 SWAP13 PUSH1 0x0 SWAP1 JUMPDEST DUP3 DUP3 LT PUSH2 0xDB9 JUMPI POP POP SWAP2 DUP12 SWAP13 SWAP2 DUP5 PUSH32 0x761CCE3A1AF5D9CFC0D57222F605CE4BD2BE345F0AD9EBB7B83A84A91A0C2014 SWAP12 SWAP13 SWAP14 SWAP6 SWAP5 LT PUSH2 0xDA0 JUMPI JUMPDEST POP POP POP DUP2 SHL ADD SWAP1 SSTORE PUSH2 0xCCB JUMP JUMPDEST ADD MLOAD PUSH1 0x0 NOT PUSH1 0xF8 DUP5 PUSH1 0x3 SHL AND SHR NOT AND SWAP1 SSTORE DUP12 DUP1 DUP1 PUSH2 0xD93 JUMP JUMPDEST DUP4 DUP6 ADD MLOAD DUP16 SSTORE SWAP14 DUP14 ADD SWAP14 SWAP4 DUP5 ADD SWAP4 SWAP1 DUP2 ADD SWAP1 PUSH2 0xD59 JUMP JUMPDEST PUSH4 0x4E487B71 PUSH1 0xE0 SHL PUSH1 0x0 SWAP1 DUP2 MSTORE PUSH1 0x41 PUSH1 0x4 MSTORE REVERT JUMPDEST DUP13 PUSH4 0x4E487B71 PUSH1 0xE0 SHL PUSH1 0x0 MSTORE PUSH1 0x41 PUSH1 0x4 MSTORE PUSH1 0x0 REVERT JUMPDEST DUP3 PUSH15 0x2737903B37BA34B733903837BBB2B9 PUSH1 0x89 SHL PUSH1 0x64 SWAP3 PUSH1 0xF DUP15 PUSH1 0x40 MLOAD SWAP5 PUSH3 0x461BCD PUSH1 0xE5 SHL DUP7 MSTORE PUSH1 0x4 DUP7 ADD MSTORE DUP5 ADD MSTORE DUP3 ADD MSTORE REVERT JUMPDEST SWAP1 SWAP6 POP DUP3 DUP2 DUP2 RETURNDATASIZE DUP4 GT PUSH2 0xE55 JUMPI JUMPDEST PUSH2 0xE45 DUP2 DUP4 PUSH2 0x1B25 JUMP JUMPDEST DUP2 ADD SUB SLT PUSH2 0x384 JUMPI MLOAD SWAP5 DUP12 PUSH2 0xBD9 JUMP JUMPDEST POP RETURNDATASIZE PUSH2 0xE3B JUMP JUMPDEST DUP3 PUSH12 0x159BDD1A5B99C8195B991959 PUSH1 0xA2 SHL PUSH1 0x64 SWAP3 PUSH1 0xC DUP14 PUSH1 0x40 MLOAD SWAP5 PUSH3 0x461BCD PUSH1 0xE5 SHL DUP7 MSTORE PUSH1 0x4 DUP7 ADD MSTORE DUP5 ADD MSTORE DUP3 ADD MSTORE REVERT JUMPDEST DUP3 PUSH18 0x159BDD1A5B99C81B9BDD081CDD185C9D1959 PUSH1 0x72 SHL PUSH1 0x64 SWAP3 PUSH1 0x12 DUP14 PUSH1 0x40 MLOAD SWAP5 PUSH3 0x461BCD PUSH1 0xE5 SHL DUP7 MSTORE PUSH1 0x4 DUP7 ADD MSTORE DUP5 ADD MSTORE DUP3 ADD MSTORE REVERT JUMPDEST DUP10 PUSH4 0x4E487B71 PUSH1 0xE0 SHL PUSH1 0x0 MSTORE PUSH1 0x21 PUSH1 0x4 MSTORE PUSH1 0x0 REVERT JUMPDEST PUSH1 0x64 SWAP1 PUSH13 0x105B1C9958591E481D9BDD1959 PUSH1 0x9A SHL DUP9 PUSH1 0xD DUP12 PUSH1 0x40 MLOAD SWAP5 PUSH3 0x461BCD PUSH1 0xE5 SHL DUP7 MSTORE PUSH1 0x4 DUP7 ADD MSTORE DUP5 ADD MSTORE DUP3 ADD MSTORE REVERT JUMPDEST PUSH1 0x40 MLOAD PUSH3 0x461BCD PUSH1 0xE5 SHL DUP2 MSTORE PUSH1 0x20 PUSH1 0x4 DUP3 ADD MSTORE PUSH1 0x15 DUP2 DUP10 ADD MSTORE PUSH21 0x496E76616C696420737570706F72742076616C7565 PUSH1 0x58 SHL DUP2 DUP9 ADD MSTORE PUSH1 0x64 SWAP1 REVERT JUMPDEST POP PUSH1 0x4 SLOAD DUP5 GT ISZERO PUSH2 0xB25 JUMP JUMPDEST CALLVALUE PUSH2 0x384 JUMPI PUSH1 0x20 CALLDATASIZE PUSH1 0x3 NOT ADD SLT PUSH2 0x384 JUMPI PUSH1 0x4 CALLDATALOAD DUP1 ISZERO ISZERO DUP1 PUSH2 0x105A JUMPI JUMPDEST PUSH2 0xF78 SWAP1 PUSH2 0x1E9B JUMP JUMPDEST PUSH1 0x0 DUP2 DUP2 MSTORE PUSH1 0x5 PUSH1 0x20 MSTORE PUSH1 0x40 SWAP1 KECCAK256 PUSH1 0x1 DUP2 ADD SLOAD CALLER PUSH1 0x1 PUSH1 0x1 PUSH1 0xA0 SHL SUB SWAP2 DUP3 AND EQ SWAP1 DUP2 ISZERO PUSH2 0x104C JUMPI JUMPDEST POP ISZERO PUSH2 0x1007 JUMPI PUSH1 0xB DUP2 ADD SWAP1 DUP2 SLOAD PUSH1 0xFF DUP2 AND PUSH1 0x7 DUP2 LT ISZERO PUSH2 0x362 JUMPI PUSH1 0x5 SWAP3 PUSH2 0xFCB PUSH1 0x1 PUSH1 0x9 SWAP4 EQ PUSH2 0x1EDA JUMP JUMPDEST ADD DUP1 SLOAD PUSH2 0xFF00 NOT AND PUSH2 0x100 OR SWAP1 SSTORE PUSH1 0xFF NOT AND OR SWAP1 SSTORE PUSH32 0x789CF55BE980739DAD1D0699B93B58E806B51C9D96619BFA8FE0A28ABAA7B30C PUSH1 0x0 DUP1 LOG2 STOP JUMPDEST PUSH1 0x40 MLOAD PUSH3 0x461BCD PUSH1 0xE5 SHL DUP2 MSTORE PUSH1 0x20 PUSH1 0x4 DUP3 ADD MSTORE PUSH1 0x18 PUSH1 0x24 DUP3 ADD MSTORE PUSH32 0x4E6F7420617574686F72697A656420746F2063616E63656C0000000000000000 PUSH1 0x44 DUP3 ADD MSTORE PUSH1 0x64 SWAP1 REVERT JUMPDEST SWAP1 POP PUSH1 0x0 SLOAD AND CALLER EQ DUP4 PUSH2 0xFA0 JUMP JUMPDEST POP PUSH1 0x4 SLOAD DUP2 GT ISZERO PUSH2 0xF6F JUMP JUMPDEST CALLVALUE PUSH2 0x384 JUMPI PUSH1 0x0 CALLDATASIZE PUSH1 0x3 NOT ADD SLT PUSH2 0x384 JUMPI PUSH1 0x3 SLOAD PUSH1 0x40 MLOAD PUSH1 0x1 PUSH1 0x1 PUSH1 0xA0 SHL SUB SWAP1 SWAP2 AND DUP2 MSTORE PUSH1 0x20 SWAP1 RETURN JUMPDEST CALLVALUE PUSH2 0x384 JUMPI PUSH1 0x0 CALLDATASIZE PUSH1 0x3 NOT ADD SLT PUSH2 0x384 JUMPI PUSH1 0x20 PUSH1 0x9 SLOAD PUSH1 0x40 MLOAD SWAP1 DUP2 MSTORE RETURN JUMPDEST CALLVALUE PUSH2 0x384 JUMPI PUSH1 0x0 CALLDATASIZE PUSH1 0x3 NOT ADD SLT PUSH2 0x384 JUMPI PUSH1 0x20 PUSH1 0x4 SLOAD PUSH1 0x40 MLOAD SWAP1 DUP2 MSTORE RETURN JUMPDEST CALLVALUE PUSH2 0x384 JUMPI PUSH1 0x60 CALLDATASIZE PUSH1 0x3 NOT ADD SLT PUSH2 0x384 JUMPI PUSH1 0x4 CALLDATALOAD PUSH1 0x1 PUSH1 0x1 PUSH1 0x40 SHL SUB DUP2 GT PUSH2 0x384 JUMPI PUSH2 0x10FB SWAP1 CALLDATASIZE SWAP1 PUSH1 0x4 ADD PUSH2 0x1D04 JUMP JUMPDEST PUSH1 0x24 CALLDATALOAD PUSH1 0x1 PUSH1 0x1 PUSH1 0x40 SHL SUB DUP2 GT PUSH2 0x384 JUMPI PUSH2 0x111A SWAP1 CALLDATASIZE SWAP1 PUSH1 0x4 ADD PUSH2 0x1D04 JUMP JUMPDEST PUSH1 0x1 PUSH1 0x1 PUSH1 0x40 SHL SUB PUSH1 0x44 CALLDATALOAD GT PUSH2 0x384 JUMPI CALLDATASIZE PUSH1 0x23 PUSH1 0x44 CALLDATALOAD ADD SLT ISZERO PUSH2 0x384 JUMPI PUSH1 0x44 CALLDATALOAD PUSH1 0x4 ADD CALLDATALOAD PUSH2 0x1147 DUP2 PUSH2 0x1D22 JUMP JUMPDEST SWAP1 PUSH2 0x1155 PUSH1 0x40 MLOAD SWAP3 DUP4 PUSH2 0x1B25 JUMP JUMPDEST DUP1 DUP3 MSTORE PUSH1 0x20 DUP3 ADD SWAP1 CALLDATASIZE PUSH1 0x24 DUP3 PUSH1 0x5 SHL PUSH1 0x44 CALLDATALOAD ADD ADD GT PUSH2 0x384 JUMPI PUSH1 0x24 PUSH1 0x44 CALLDATALOAD ADD SWAP2 JUMPDEST PUSH1 0x24 DUP3 PUSH1 0x5 SHL PUSH1 0x44 CALLDATALOAD ADD ADD DUP4 LT PUSH2 0x1919 JUMPI POP POP POP PUSH2 0x1192 PUSH2 0x1E45 JUMP JUMPDEST PUSH1 0x2 SLOAD PUSH1 0x40 MLOAD PUSH4 0x70A08231 PUSH1 0xE0 SHL DUP2 MSTORE CALLER PUSH1 0x4 DUP3 ADD MSTORE SWAP1 PUSH1 0x20 SWAP1 DUP3 SWAP1 PUSH1 0x24 SWAP1 DUP3 SWAP1 PUSH1 0x1 PUSH1 0x1 PUSH1 0xA0 SHL SUB AND GAS STATICCALL SWAP1 DUP2 ISZERO PUSH2 0x7B6 JUMPI PUSH1 0x0 SWAP2 PUSH2 0x18E7 JUMPI JUMPDEST POP PUSH1 0xA SLOAD GT PUSH2 0x18A2 JUMPI PUSH1 0x1 PUSH1 0x4 SLOAD ADD SWAP2 DUP3 PUSH1 0x4 SSTORE PUSH2 0x11ED PUSH1 0x8 SLOAD TIMESTAMP PUSH2 0x1DDC JUMP JUMPDEST SWAP2 PUSH1 0x40 MLOAD SWAP2 DUP3 PUSH2 0x1C0 DUP2 ADD LT PUSH1 0x1 PUSH1 0x1 PUSH1 0x40 SHL SUB PUSH2 0x1C0 DUP6 ADD GT OR PUSH2 0x1617 JUMPI PUSH2 0x1C0 DUP4 ADD PUSH1 0x40 MSTORE DUP5 DUP4 MSTORE CALLER PUSH1 0x20 DUP5 ADD MSTORE DUP6 PUSH1 0x40 DUP5 ADD MSTORE PUSH1 0x60 DUP4 ADD MSTORE TIMESTAMP PUSH1 0x80 DUP4 ADD MSTORE DUP3 PUSH1 0xA0 DUP4 ADD MSTORE PUSH1 0x0 PUSH1 0xC0 DUP4 ADD MSTORE PUSH1 0x0 PUSH1 0xE0 DUP4 ADD MSTORE PUSH1 0x0 PUSH2 0x100 DUP4 ADD MSTORE PUSH1 0x0 PUSH2 0x120 DUP4 ADD MSTORE PUSH1 0x0 PUSH2 0x140 DUP4 ADD MSTORE PUSH1 0x0 PUSH2 0x160 DUP4 ADD MSTORE PUSH1 0x1 PUSH2 0x180 DUP4 ADD MSTORE PUSH2 0x1A0 DUP3 ADD MSTORE DUP3 PUSH1 0x0 MSTORE PUSH1 0x5 PUSH1 0x20 MSTORE PUSH1 0x40 PUSH1 0x0 KECCAK256 SWAP1 DUP1 MLOAD DUP3 SSTORE PUSH1 0x1 DUP1 PUSH1 0xA0 SHL SUB PUSH1 0x20 DUP3 ADD MLOAD AND PUSH12 0xFFFFFFFFFFFFFFFFFFFFFFFF PUSH1 0xA0 SHL PUSH1 0x1 DUP5 ADD SLOAD AND OR PUSH1 0x1 DUP4 ADD SSTORE PUSH1 0x40 DUP2 ADD MLOAD DUP1 MLOAD SWAP1 PUSH1 0x1 PUSH1 0x1 PUSH1 0x40 SHL SUB DUP3 GT PUSH2 0x1617 JUMPI DUP2 SWAP1 PUSH2 0x12DE DUP3 PUSH2 0x12D5 PUSH1 0x2 DUP9 ADD SLOAD PUSH2 0x1AB5 JUMP JUMPDEST PUSH1 0x2 DUP9 ADD PUSH2 0x1E00 JUMP JUMPDEST PUSH1 0x20 SWAP1 PUSH1 0x1F DUP4 GT PUSH1 0x1 EQ PUSH2 0x1830 JUMPI PUSH1 0x0 SWAP3 PUSH2 0x1825 JUMPI JUMPDEST POP POP DUP2 PUSH1 0x1 SHL SWAP2 PUSH1 0x0 NOT SWAP1 PUSH1 0x3 SHL SHR NOT AND OR PUSH1 0x2 DUP4 ADD SSTORE JUMPDEST PUSH1 0x60 DUP2 ADD MLOAD DUP1 MLOAD SWAP1 PUSH1 0x1 PUSH1 0x1 PUSH1 0x40 SHL SUB DUP3 GT PUSH2 0x1617 JUMPI DUP2 SWAP1 PUSH2 0x133E DUP3 PUSH2 0x1335 PUSH1 0x3 DUP9 ADD SLOAD PUSH2 0x1AB5 JUMP JUMPDEST PUSH1 0x3 DUP9 ADD PUSH2 0x1E00 JUMP JUMPDEST PUSH1 0x20 SWAP1 PUSH1 0x1F DUP4 GT PUSH1 0x1 EQ PUSH2 0x17B3 JUMPI PUSH1 0x0 SWAP3 PUSH2 0x17A8 JUMPI JUMPDEST POP POP DUP2 PUSH1 0x1 SHL SWAP2 PUSH1 0x0 NOT SWAP1 PUSH1 0x3 SHL SHR NOT AND OR PUSH1 0x3 DUP4 ADD SSTORE JUMPDEST PUSH1 0x80 DUP2 ADD MLOAD PUSH1 0x4 DUP4 ADD SSTORE PUSH1 0xA0 DUP2 ADD MLOAD PUSH1 0x5 DUP4 ADD SSTORE PUSH1 0xC0 DUP2 ADD MLOAD PUSH1 0x6 DUP4 ADD SSTORE PUSH1 0xE0 DUP2 ADD MLOAD PUSH1 0x7 DUP4 ADD SSTORE PUSH2 0x100 DUP2 ADD MLOAD PUSH1 0x8 DUP4 ADD SSTORE PUSH1 0x9 DUP3 ADD PUSH2 0x120 DUP3 ADD MLOAD ISZERO ISZERO DUP2 SLOAD PUSH1 0xFF PUSH2 0xFF00 PUSH2 0x140 DUP7 ADD MLOAD ISZERO ISZERO PUSH1 0x8 SHL AND SWAP3 AND SWAP1 PUSH2 0xFFFF NOT AND OR OR SWAP1 SSTORE PUSH2 0x160 DUP2 ADD MLOAD PUSH1 0xA DUP4 ADD SSTORE PUSH1 0xB DUP3 ADD SWAP1 PUSH2 0x180 DUP2 ADD MLOAD SWAP2 PUSH1 0x7 DUP4 LT ISZERO PUSH2 0x362 JUMPI PUSH2 0x1A0 SWAP3 PUSH1 0xFF DUP1 NOT DUP4 SLOAD AND SWAP2 AND OR SWAP1 SSTORE ADD MLOAD DUP1 MLOAD SWAP1 PUSH9 0x10000000000000000 DUP3 GT PUSH2 0x1617 JUMPI PUSH1 0xC DUP4 ADD SLOAD DUP3 PUSH1 0xC DUP6 ADD SSTORE DUP1 DUP4 LT PUSH2 0x16AB JUMPI JUMPDEST POP PUSH1 0x20 PUSH1 0xC SWAP2 ADD SWAP3 ADD PUSH1 0x0 MSTORE PUSH1 0x20 PUSH1 0x0 KECCAK256 SWAP2 PUSH1 0x0 SWAP1 JUMPDEST DUP3 DUP3 LT PUSH2 0x1498 JUMPI PUSH1 0x20 DUP7 DUP7 DUP2 PUSH32 0x6C98A8C940418B35614F0CD02412D5C9606FAFF474CBB6CDD6640BA5D1A9F06B DUP12 PUSH2 0x147B PUSH1 0x40 MLOAD SWAP2 PUSH1 0x60 DUP4 MSTORE PUSH1 0x60 DUP4 ADD SWAP1 PUSH2 0x1BEC JUMP JUMPDEST SWAP4 TIMESTAMP DUP8 DUP4 ADD MSTORE PUSH1 0x40 DUP3 ADD MSTORE DUP1 CALLER SWAP5 SUB SWAP1 LOG3 PUSH1 0x1 DUP1 SSTORE PUSH1 0x40 MLOAD SWAP1 DUP2 MSTORE RETURN JUMPDEST DUP1 MLOAD DUP1 MLOAD DUP6 SLOAD PUSH1 0x1 PUSH1 0x1 PUSH1 0xA0 SHL SUB NOT AND PUSH1 0x1 PUSH1 0x1 PUSH1 0xA0 SHL SUB SWAP2 SWAP1 SWAP2 AND OR DUP6 SSTORE PUSH1 0x20 DUP2 ADD MLOAD PUSH1 0x1 DUP7 ADD SSTORE PUSH1 0x40 DUP2 ADD MLOAD DUP1 MLOAD SWAP1 PUSH1 0x1 PUSH1 0x1 PUSH1 0x40 SHL SUB DUP3 GT PUSH2 0x1617 JUMPI PUSH2 0x14F1 DUP3 PUSH2 0x14E8 PUSH1 0x2 DUP11 ADD SLOAD PUSH2 0x1AB5 JUMP JUMPDEST PUSH1 0x2 DUP11 ADD PUSH2 0x1E00 JUMP JUMPDEST PUSH1 0x20 SWAP1 PUSH1 0x1F DUP4 GT PUSH1 0x1 EQ PUSH2 0x1638 JUMPI PUSH1 0x60 SWAP4 SWAP3 SWAP2 PUSH1 0x0 SWAP2 DUP4 PUSH2 0x162D JUMPI JUMPDEST POP POP DUP2 PUSH1 0x1 SHL SWAP2 PUSH1 0x0 NOT SWAP1 PUSH1 0x3 SHL SHR NOT AND OR PUSH1 0x2 DUP8 ADD SSTORE JUMPDEST ADD MLOAD DUP1 MLOAD SWAP1 PUSH1 0x1 PUSH1 0x1 PUSH1 0x40 SHL SUB DUP3 GT PUSH2 0x1617 JUMPI PUSH2 0x1552 DUP3 PUSH2 0x1549 PUSH1 0x3 DUP10 ADD SLOAD PUSH2 0x1AB5 JUMP JUMPDEST PUSH1 0x3 DUP10 ADD PUSH2 0x1E00 JUMP JUMPDEST PUSH1 0x20 SWAP1 PUSH1 0x1F DUP4 GT PUSH1 0x1 EQ PUSH2 0x15A1 JUMPI SWAP3 DUP3 PUSH1 0x4 SWAP4 PUSH1 0x20 SWAP4 PUSH1 0x1 SWAP7 PUSH1 0x0 SWAP3 PUSH2 0x1596 JUMPI JUMPDEST POP POP DUP2 DUP7 SHL SWAP2 PUSH1 0x0 NOT SWAP1 PUSH1 0x3 SHL SHR NOT AND OR PUSH1 0x3 DUP9 ADD SSTORE JUMPDEST ADD SWAP5 ADD SWAP2 ADD SWAP1 SWAP3 PUSH2 0x1438 JUMP JUMPDEST ADD MLOAD SWAP1 POP DUP13 DUP1 PUSH2 0x1573 JUMP JUMPDEST SWAP1 PUSH1 0x3 DUP8 ADD PUSH1 0x0 MSTORE PUSH1 0x20 PUSH1 0x0 KECCAK256 SWAP2 PUSH1 0x0 JUMPDEST PUSH1 0x1F NOT DUP6 AND DUP2 LT PUSH2 0x15FF JUMPI POP DUP4 PUSH1 0x20 SWAP4 PUSH1 0x1 SWAP7 SWAP4 DUP8 SWAP4 PUSH1 0x4 SWAP8 PUSH1 0x1F NOT DUP2 AND LT PUSH2 0x15E6 JUMPI JUMPDEST POP POP POP DUP2 SHL ADD PUSH1 0x3 DUP9 ADD SSTORE PUSH2 0x158A JUMP JUMPDEST ADD MLOAD PUSH1 0x0 NOT PUSH1 0xF8 DUP5 PUSH1 0x3 SHL AND SHR NOT AND SWAP1 SSTORE DUP13 DUP1 DUP1 PUSH2 0x15D6 JUMP JUMPDEST SWAP2 SWAP3 PUSH1 0x20 PUSH1 0x1 DUP2 SWAP3 DUP7 DUP6 ADD MLOAD DUP2 SSTORE ADD SWAP5 ADD SWAP3 ADD PUSH2 0x15B2 JUMP JUMPDEST PUSH4 0x4E487B71 PUSH1 0xE0 SHL PUSH1 0x0 MSTORE PUSH1 0x41 PUSH1 0x4 MSTORE PUSH1 0x24 PUSH1 0x0 REVERT JUMPDEST ADD MLOAD SWAP1 POP DUP12 DUP1 PUSH2 0x150D JUMP JUMPDEST SWAP1 PUSH1 0x2 DUP9 ADD PUSH1 0x0 MSTORE PUSH1 0x20 PUSH1 0x0 KECCAK256 SWAP2 PUSH1 0x0 JUMPDEST PUSH1 0x1F NOT DUP6 AND DUP2 LT PUSH2 0x1693 JUMPI POP SWAP2 DUP4 SWAP2 PUSH1 0x1 SWAP4 PUSH1 0x60 SWAP7 SWAP6 PUSH1 0x1F NOT DUP2 AND LT PUSH2 0x167A JUMPI JUMPDEST POP POP POP DUP2 SHL ADD PUSH1 0x2 DUP8 ADD SSTORE PUSH2 0x1525 JUMP JUMPDEST ADD MLOAD PUSH1 0x0 NOT PUSH1 0xF8 DUP5 PUSH1 0x3 SHL AND SHR NOT AND SWAP1 SSTORE DUP12 DUP1 DUP1 PUSH2 0x166A JUMP JUMPDEST SWAP2 SWAP3 PUSH1 0x20 PUSH1 0x1 DUP2 SWAP3 DUP7 DUP6 ADD MLOAD DUP2 SSTORE ADD SWAP5 ADD SWAP3 ADD PUSH2 0x1649 JUMP JUMPDEST PUSH1 0x1 PUSH1 0x1 PUSH1 0xFE SHL SUB DUP2 DUP2 AND DUP3 SUB PUSH2 0x27A JUMPI DUP4 AND DUP4 SUB PUSH2 0x27A JUMPI PUSH1 0xC DUP5 ADD PUSH1 0x0 MSTORE PUSH1 0x20 PUSH1 0x0 KECCAK256 DUP4 PUSH1 0x2 SHL DUP2 ADD JUMPDEST DUP3 PUSH1 0x2 SHL DUP3 ADD DUP2 LT PUSH2 0x16EA JUMPI POP POP PUSH2 0x1422 JUMP JUMPDEST DUP1 PUSH1 0x0 PUSH1 0x4 SWAP3 SSTORE PUSH1 0x0 PUSH1 0x1 DUP3 ADD SSTORE PUSH1 0x2 DUP2 ADD PUSH2 0x1706 DUP2 SLOAD PUSH2 0x1AB5 JUMP JUMPDEST SWAP1 DUP2 PUSH2 0x176A JUMPI JUMPDEST POP POP PUSH1 0x3 DUP2 ADD PUSH2 0x171D DUP2 SLOAD PUSH2 0x1AB5 JUMP JUMPDEST SWAP1 DUP2 PUSH2 0x172C JUMPI JUMPDEST POP POP ADD PUSH2 0x16D7 JUMP JUMPDEST DUP2 PUSH1 0x1F PUSH1 0x0 SWAP4 GT PUSH1 0x1 EQ PUSH2 0x1744 JUMPI POP SSTORE JUMPDEST DUP11 DUP1 PUSH2 0x1724 JUMP JUMPDEST SWAP1 DUP1 DUP4 SWAP2 DUP3 MSTORE PUSH2 0x1763 PUSH1 0x1F PUSH1 0x20 DUP5 KECCAK256 SWAP5 ADD PUSH1 0x5 SHR DUP5 ADD PUSH1 0x1 DUP6 ADD PUSH2 0x1DE9 JUMP JUMPDEST SSTORE SSTORE PUSH2 0x173D JUMP JUMPDEST DUP2 PUSH1 0x1F PUSH1 0x0 SWAP4 GT PUSH1 0x1 EQ PUSH2 0x1782 JUMPI POP SSTORE JUMPDEST DUP11 DUP1 PUSH2 0x170D JUMP JUMPDEST SWAP1 DUP1 DUP4 SWAP2 DUP3 MSTORE PUSH2 0x17A1 PUSH1 0x1F PUSH1 0x20 DUP5 KECCAK256 SWAP5 ADD PUSH1 0x5 SHR DUP5 ADD PUSH1 0x1 DUP6 ADD PUSH2 0x1DE9 JUMP JUMPDEST SSTORE SSTORE PUSH2 0x177B JUMP JUMPDEST ADD MLOAD SWAP1 POP DUP8 DUP1 PUSH2 0x1354 JUMP JUMPDEST SWAP3 POP PUSH1 0x3 DUP6 ADD PUSH1 0x0 MSTORE PUSH1 0x20 PUSH1 0x0 KECCAK256 SWAP1 PUSH1 0x0 SWAP4 JUMPDEST PUSH1 0x1F NOT DUP5 AND DUP6 LT PUSH2 0x180A JUMPI PUSH1 0x1 SWAP5 POP DUP4 PUSH1 0x1F NOT DUP2 AND LT PUSH2 0x17F1 JUMPI JUMPDEST POP POP POP DUP2 SHL ADD PUSH1 0x3 DUP4 ADD SSTORE PUSH2 0x136C JUMP JUMPDEST ADD MLOAD PUSH1 0x0 NOT PUSH1 0xF8 DUP5 PUSH1 0x3 SHL AND SHR NOT AND SWAP1 SSTORE DUP8 DUP1 DUP1 PUSH2 0x17E1 JUMP JUMPDEST DUP2 DUP2 ADD MLOAD DUP4 SSTORE PUSH1 0x20 SWAP5 DUP6 ADD SWAP5 PUSH1 0x1 SWAP1 SWAP4 ADD SWAP3 SWAP1 SWAP2 ADD SWAP1 PUSH2 0x17C6 JUMP JUMPDEST ADD MLOAD SWAP1 POP DUP8 DUP1 PUSH2 0x12F4 JUMP JUMPDEST SWAP3 POP PUSH1 0x2 DUP6 ADD PUSH1 0x0 MSTORE PUSH1 0x20 PUSH1 0x0 KECCAK256 SWAP1 PUSH1 0x0 SWAP4 JUMPDEST PUSH1 0x1F NOT DUP5 AND DUP6 LT PUSH2 0x1887 JUMPI PUSH1 0x1 SWAP5 POP DUP4 PUSH1 0x1F NOT DUP2 AND LT PUSH2 0x186E JUMPI JUMPDEST POP POP POP DUP2 SHL ADD PUSH1 0x2 DUP4 ADD SSTORE PUSH2 0x130C JUMP JUMPDEST ADD MLOAD PUSH1 0x0 NOT PUSH1 0xF8 DUP5 PUSH1 0x3 SHL AND SHR NOT AND SWAP1 SSTORE DUP8 DUP1 DUP1 PUSH2 0x185E JUMP JUMPDEST DUP2 DUP2 ADD MLOAD DUP4 SSTORE PUSH1 0x20 SWAP5 DUP6 ADD SWAP5 PUSH1 0x1 SWAP1 SWAP4 ADD SWAP3 SWAP1 SWAP2 ADD SWAP1 PUSH2 0x1843 JUMP JUMPDEST PUSH1 0x40 MLOAD PUSH3 0x461BCD PUSH1 0xE5 SHL DUP2 MSTORE PUSH1 0x20 PUSH1 0x4 DUP3 ADD MSTORE PUSH1 0x1E PUSH1 0x24 DUP3 ADD MSTORE PUSH32 0x496E73756666696369656E7420746F6B656E7320746F2070726F706F73650000 PUSH1 0x44 DUP3 ADD MSTORE PUSH1 0x64 SWAP1 REVERT JUMPDEST SWAP1 POP PUSH1 0x20 DUP2 RETURNDATASIZE PUSH1 0x20 GT PUSH2 0x1911 JUMPI JUMPDEST DUP2 PUSH2 0x1902 PUSH1 0x20 SWAP4 DUP4 PUSH2 0x1B25 JUMP JUMPDEST DUP2 ADD SUB SLT PUSH2 0x384 JUMPI MLOAD DUP5 PUSH2 0x11CD JUMP JUMPDEST RETURNDATASIZE SWAP2 POP PUSH2 0x18F5 JUMP JUMPDEST DUP3 CALLDATALOAD PUSH1 0x1 PUSH1 0x1 PUSH1 0x40 SHL SUB DUP2 GT PUSH2 0x384 JUMPI PUSH1 0x80 PUSH1 0x44 CALLDATALOAD DUP3 ADD CALLDATASIZE SUB PUSH1 0x23 NOT ADD SLT PUSH2 0x384 JUMPI PUSH1 0x40 MLOAD SWAP2 PUSH2 0x1948 DUP4 PUSH2 0x1AEF JUMP JUMPDEST PUSH1 0x44 CALLDATALOAD DUP3 ADD PUSH1 0x24 ADD CALLDATALOAD PUSH1 0x1 PUSH1 0x1 PUSH1 0xA0 SHL SUB DUP2 AND DUP2 SUB PUSH2 0x384 JUMPI DUP4 MSTORE PUSH1 0x44 DUP3 DUP2 CALLDATALOAD ADD ADD CALLDATALOAD PUSH1 0x20 DUP5 ADD MSTORE PUSH1 0x1 PUSH1 0x1 PUSH1 0x40 SHL SUB PUSH1 0x64 DUP4 PUSH1 0x44 CALLDATALOAD ADD ADD CALLDATALOAD GT PUSH2 0x384 JUMPI PUSH2 0x199D CALLDATASIZE PUSH1 0x44 CALLDATALOAD DUP5 ADD PUSH1 0x64 DUP2 ADD CALLDATALOAD ADD PUSH1 0x24 ADD PUSH2 0x1D04 JUMP JUMPDEST PUSH1 0x40 DUP5 ADD MSTORE PUSH1 0x84 DUP3 PUSH1 0x44 CALLDATALOAD ADD ADD CALLDATALOAD SWAP1 PUSH1 0x1 PUSH1 0x1 PUSH1 0x40 SHL SUB DUP3 GT PUSH2 0x384 JUMPI CALLDATASIZE PUSH1 0x43 DUP4 DUP6 PUSH1 0x44 CALLDATALOAD ADD ADD ADD SLT ISZERO PUSH2 0x384 JUMPI PUSH1 0x24 SWAP4 PUSH1 0x20 SWAP4 DUP5 SWAP4 PUSH2 0x19EC SWAP2 CALLDATASIZE SWAP2 PUSH1 0x44 DUP1 CALLDATALOAD SWAP1 SWAP3 ADD ADD DUP1 DUP10 ADD CALLDATALOAD SWAP2 ADD PUSH2 0x1CCD JUMP JUMPDEST PUSH1 0x60 DUP3 ADD MSTORE DUP2 MSTORE ADD SWAP4 ADD SWAP3 SWAP1 POP PUSH2 0x1176 JUMP JUMPDEST CALLVALUE PUSH2 0x384 JUMPI PUSH1 0x0 CALLDATASIZE PUSH1 0x3 NOT ADD SLT PUSH2 0x384 JUMPI PUSH1 0x20 PUSH1 0x8 SLOAD PUSH1 0x40 MLOAD SWAP1 DUP2 MSTORE RETURN JUMPDEST CALLVALUE PUSH2 0x384 JUMPI PUSH1 0x20 CALLDATASIZE PUSH1 0x3 NOT ADD SLT PUSH2 0x384 JUMPI PUSH1 0x4 CALLDATALOAD PUSH1 0x0 SWAP1 DUP2 MSTORE PUSH1 0x5 PUSH1 0x20 MSTORE PUSH1 0x40 SWAP1 KECCAK256 DUP1 SLOAD PUSH1 0x1 DUP3 ADD SLOAD PUSH1 0x1 PUSH1 0x1 PUSH1 0xA0 SHL SUB AND SWAP1 PUSH2 0x674 SWAP1 PUSH2 0x1A5F PUSH1 0x2 DUP6 ADD PUSH2 0x1B46 JUMP JUMPDEST SWAP4 PUSH2 0x1A6C PUSH1 0x3 DUP3 ADD PUSH2 0x1B46 JUMP JUMPDEST SWAP2 PUSH1 0x4 DUP3 ADD SLOAD SWAP1 PUSH1 0x5 DUP4 ADD SLOAD PUSH1 0x6 DUP5 ADD SLOAD PUSH1 0x7 DUP6 ADD SLOAD SWAP1 PUSH1 0x8 DUP7 ADD SLOAD SWAP3 PUSH1 0x9 DUP8 ADD SLOAD SWAP6 PUSH1 0xFF PUSH1 0xB PUSH1 0xA DUP11 ADD SLOAD SWAP10 ADD SLOAD AND SWAP9 PUSH1 0x40 MLOAD SWAP13 DUP14 SWAP13 DUP14 SWAP9 PUSH1 0xFF DUP1 DUP13 PUSH1 0x8 SHR AND SWAP12 AND SWAP10 PUSH2 0x1C2C JUMP JUMPDEST SWAP1 PUSH1 0x1 DUP3 DUP2 SHR SWAP3 AND DUP1 ISZERO PUSH2 0x1AE5 JUMPI JUMPDEST PUSH1 0x20 DUP4 LT EQ PUSH2 0x1ACF JUMPI JUMP JUMPDEST PUSH4 0x4E487B71 PUSH1 0xE0 SHL PUSH1 0x0 MSTORE PUSH1 0x22 PUSH1 0x4 MSTORE PUSH1 0x24 PUSH1 0x0 REVERT JUMPDEST SWAP2 PUSH1 0x7F AND SWAP2 PUSH2 0x1AC4 JUMP JUMPDEST PUSH1 0x80 DUP2 ADD SWAP1 DUP2 LT PUSH1 0x1 PUSH1 0x1 PUSH1 0x40 SHL SUB DUP3 GT OR PUSH2 0x1617 JUMPI PUSH1 0x40 MSTORE JUMP JUMPDEST PUSH1 0x40 DUP2 ADD SWAP1 DUP2 LT PUSH1 0x1 PUSH1 0x1 PUSH1 0x40 SHL SUB DUP3 GT OR PUSH2 0x1617 JUMPI PUSH1 0x40 MSTORE JUMP JUMPDEST SWAP1 PUSH1 0x1F DUP1 NOT SWAP2 ADD AND DUP2 ADD SWAP1 DUP2 LT PUSH1 0x1 PUSH1 0x1 PUSH1 0x40 SHL SUB DUP3 GT OR PUSH2 0x1617 JUMPI PUSH1 0x40 MSTORE JUMP JUMPDEST SWAP1 PUSH1 0x40 MLOAD SWAP2 DUP3 PUSH1 0x0 DUP3 SLOAD SWAP3 PUSH2 0x1B5A DUP5 PUSH2 0x1AB5 JUMP JUMPDEST SWAP1 DUP2 DUP5 MSTORE PUSH1 0x1 SWAP5 DUP6 DUP2 AND SWAP1 DUP2 PUSH1 0x0 EQ PUSH2 0x1BC9 JUMPI POP PUSH1 0x1 EQ PUSH2 0x1B86 JUMPI JUMPDEST POP POP PUSH2 0x1B84 SWAP3 POP SUB DUP4 PUSH2 0x1B25 JUMP JUMPDEST JUMP JUMPDEST SWAP1 SWAP4 SWAP2 POP PUSH1 0x0 MSTORE PUSH1 0x20 SWAP1 DUP2 PUSH1 0x0 KECCAK256 SWAP4 PUSH1 0x0 SWAP2 JUMPDEST DUP2 DUP4 LT PUSH2 0x1BB1 JUMPI POP POP PUSH2 0x1B84 SWAP4 POP DUP3 ADD ADD CODESIZE DUP1 PUSH2 0x1B76 JUMP JUMPDEST DUP6 SLOAD DUP9 DUP5 ADD DUP6 ADD MSTORE SWAP5 DUP6 ADD SWAP5 DUP8 SWAP5 POP SWAP2 DUP4 ADD SWAP2 PUSH2 0x1B99 JUMP JUMPDEST SWAP2 POP POP PUSH2 0x1B84 SWAP5 POP PUSH1 0x20 SWAP3 POP PUSH1 0xFF NOT AND DUP3 DUP5 ADD MSTORE ISZERO ISZERO PUSH1 0x5 SHL DUP3 ADD ADD CODESIZE DUP1 PUSH2 0x1B76 JUMP JUMPDEST SWAP2 SWAP1 DUP3 MLOAD SWAP3 DUP4 DUP3 MSTORE PUSH1 0x0 JUMPDEST DUP5 DUP2 LT PUSH2 0x1C18 JUMPI POP POP DUP3 PUSH1 0x0 PUSH1 0x20 DUP1 SWAP5 SWAP6 DUP5 ADD ADD MSTORE PUSH1 0x1F DUP1 NOT SWAP2 ADD AND ADD ADD SWAP1 JUMP JUMPDEST PUSH1 0x20 DUP2 DUP4 ADD DUP2 ADD MLOAD DUP5 DUP4 ADD DUP3 ADD MSTORE ADD PUSH2 0x1BF7 JUMP JUMPDEST SWAP11 SWAP9 SWAP7 SWAP5 SWAP14 SWAP13 SWAP12 SWAP10 SWAP8 SWAP6 SWAP4 SWAP2 SWAP3 PUSH2 0x1C71 SWAP4 PUSH2 0x1C63 SWAP3 DUP14 MSTORE PUSH1 0x1 DUP1 PUSH1 0xA0 SHL SUB AND PUSH1 0x20 DUP14 ADD MSTORE PUSH1 0x40 DUP13 PUSH2 0x1A0 SWAP2 DUP3 SWAP2 ADD MSTORE DUP13 ADD SWAP1 PUSH2 0x1BEC JUMP JUMPDEST SWAP1 DUP11 DUP3 SUB PUSH1 0x60 DUP13 ADD MSTORE PUSH2 0x1BEC JUMP JUMPDEST SWAP11 PUSH1 0x80 DUP10 ADD MSTORE PUSH1 0xA0 DUP9 ADD MSTORE PUSH1 0xC0 DUP8 ADD MSTORE PUSH1 0xE0 DUP7 ADD MSTORE PUSH2 0x100 DUP6 ADD MSTORE ISZERO ISZERO PUSH2 0x120 DUP5 ADD MSTORE ISZERO ISZERO PUSH2 0x140 DUP4 ADD MSTORE PUSH2 0x160 DUP3 ADD MSTORE PUSH1 0x7 DUP3 LT ISZERO PUSH2 0x362 JUMPI PUSH2 0x180 ADD MSTORE JUMP JUMPDEST PUSH1 0x1 PUSH1 0x1 PUSH1 0x40 SHL SUB DUP2 GT PUSH2 0x1617 JUMPI PUSH1 0x1F ADD PUSH1 0x1F NOT AND PUSH1 0x20 ADD SWAP1 JUMP JUMPDEST SWAP3 SWAP2 SWAP3 PUSH2 0x1CD9 DUP3 PUSH2 0x1CB2 JUMP JUMPDEST SWAP2 PUSH2 0x1CE7 PUSH1 0x40 MLOAD SWAP4 DUP5 PUSH2 0x1B25 JUMP JUMPDEST DUP3 SWAP5 DUP2 DUP5 MSTORE DUP2 DUP4 ADD GT PUSH2 0x384 JUMPI DUP3 DUP2 PUSH1 0x20 SWAP4 DUP5 PUSH1 0x0 SWAP7 ADD CALLDATACOPY ADD ADD MSTORE JUMP JUMPDEST SWAP1 DUP1 PUSH1 0x1F DUP4 ADD SLT ISZERO PUSH2 0x384 JUMPI DUP2 PUSH1 0x20 PUSH2 0x1D1F SWAP4 CALLDATALOAD SWAP2 ADD PUSH2 0x1CCD JUMP JUMPDEST SWAP1 JUMP JUMPDEST PUSH1 0x1 PUSH1 0x1 PUSH1 0x40 SHL SUB DUP2 GT PUSH2 0x1617 JUMPI PUSH1 0x5 SHL PUSH1 0x20 ADD SWAP1 JUMP JUMPDEST PUSH1 0x24 CALLDATALOAD SWAP1 PUSH1 0x1 PUSH1 0x1 PUSH1 0xA0 SHL SUB DUP3 AND DUP3 SUB PUSH2 0x384 JUMPI JUMP JUMPDEST PUSH1 0x4 CALLDATALOAD SWAP1 PUSH1 0x1 PUSH1 0x1 PUSH1 0xA0 SHL SUB DUP3 AND DUP3 SUB PUSH2 0x384 JUMPI JUMP JUMPDEST PUSH2 0x1D1F SWAP4 SWAP3 PUSH1 0xFF PUSH1 0x60 SWAP4 AND DUP3 MSTORE PUSH1 0x20 DUP3 ADD MSTORE DUP2 PUSH1 0x40 DUP3 ADD MSTORE ADD SWAP1 PUSH2 0x1BEC JUMP JUMPDEST PUSH1 0x0 SLOAD PUSH1 0x1 PUSH1 0x1 PUSH1 0xA0 SHL SUB AND CALLER SUB PUSH2 0x1D98 JUMPI JUMP JUMPDEST PUSH1 0x64 PUSH1 0x40 MLOAD PUSH3 0x461BCD PUSH1 0xE5 SHL DUP2 MSTORE PUSH1 0x20 PUSH1 0x4 DUP3 ADD MSTORE PUSH1 0x20 PUSH1 0x24 DUP3 ADD MSTORE PUSH32 0x4F776E61626C653A2063616C6C6572206973206E6F7420746865206F776E6572 PUSH1 0x44 DUP3 ADD MSTORE REVERT JUMPDEST SWAP2 SWAP1 DUP3 ADD DUP1 SWAP3 GT PUSH2 0x27A JUMPI JUMP JUMPDEST DUP2 DUP2 LT PUSH2 0x1DF4 JUMPI POP POP JUMP JUMPDEST PUSH1 0x0 DUP2 SSTORE PUSH1 0x1 ADD PUSH2 0x1DE9 JUMP JUMPDEST SWAP2 SWAP1 PUSH1 0x1F DUP2 GT PUSH2 0x1E0F JUMPI POP POP POP JUMP JUMPDEST PUSH2 0x1B84 SWAP3 PUSH1 0x0 MSTORE PUSH1 0x20 PUSH1 0x0 KECCAK256 SWAP1 PUSH1 0x20 PUSH1 0x1F DUP5 ADD PUSH1 0x5 SHR DUP4 ADD SWAP4 LT PUSH2 0x1E3B JUMPI JUMPDEST PUSH1 0x1F ADD PUSH1 0x5 SHR ADD SWAP1 PUSH2 0x1DE9 JUMP JUMPDEST SWAP1 SWAP2 POP DUP2 SWAP1 PUSH2 0x1E2E JUMP JUMPDEST PUSH1 0x2 PUSH1 0x1 SLOAD EQ PUSH2 0x1E56 JUMPI PUSH1 0x2 PUSH1 0x1 SSTORE JUMP JUMPDEST PUSH1 0x40 MLOAD PUSH3 0x461BCD PUSH1 0xE5 SHL DUP2 MSTORE PUSH1 0x20 PUSH1 0x4 DUP3 ADD MSTORE PUSH1 0x1F PUSH1 0x24 DUP3 ADD MSTORE PUSH32 0x5265656E7472616E637947756172643A207265656E7472616E742063616C6C00 PUSH1 0x44 DUP3 ADD MSTORE PUSH1 0x64 SWAP1 REVERT JUMPDEST ISZERO PUSH2 0x1EA2 JUMPI JUMP JUMPDEST PUSH1 0x40 MLOAD PUSH3 0x461BCD PUSH1 0xE5 SHL DUP2 MSTORE PUSH1 0x20 PUSH1 0x4 DUP3 ADD MSTORE PUSH1 0x10 PUSH1 0x24 DUP3 ADD MSTORE PUSH16 0x125B9D985B1A59081C1C9BDC1BDCD85B PUSH1 0x82 SHL PUSH1 0x44 DUP3 ADD MSTORE PUSH1 0x64 SWAP1 REVERT JUMPDEST ISZERO PUSH2 0x1EE1 JUMPI JUMP JUMPDEST PUSH1 0x40 MLOAD PUSH3 0x461BCD PUSH1 0xE5 SHL DUP2 MSTORE PUSH1 0x20 PUSH1 0x4 DUP3 ADD MSTORE PUSH1 0x13 PUSH1 0x24 DUP3 ADD MSTORE PUSH19 0x50726F706F73616C206E6F7420616374697665 PUSH1 0x68 SHL PUSH1 0x44 DUP3 ADD MSTORE PUSH1 0x64 SWAP1 REVERT JUMPDEST ISZERO PUSH2 0x1F23 JUMPI JUMP JUMPDEST PUSH1 0x40 MLOAD PUSH3 0x461BCD PUSH1 0xE5 SHL DUP2 MSTORE PUSH1 0x20 PUSH1 0x4 DUP3 ADD MSTORE PUSH1 0x17 PUSH1 0x24 DUP3 ADD MSTORE PUSH32 0x566F74696E6720706572696F64206E6F7420656E646564000000000000000000 PUSH1 0x44 DUP3 ADD MSTORE PUSH1 0x64 SWAP1 REVERT JUMPDEST SWAP1 PUSH1 0x40 MLOAD SWAP2 PUSH2 0x1F76 DUP4 PUSH2 0x1AEF JUMP JUMPDEST DUP3 PUSH1 0x1 DUP1 PUSH1 0xA0 SHL SUB DUP3 SLOAD AND DUP2 MSTORE PUSH1 0x1 PUSH1 0x3 DUP2 DUP5 ADD SLOAD SWAP4 PUSH1 0x20 SWAP5 DUP6 DUP6 ADD MSTORE PUSH2 0x1F9F PUSH1 0x2 DUP3 ADD PUSH2 0x1B46 JUMP JUMPDEST PUSH1 0x40 DUP6 ADD MSTORE ADD SWAP1 PUSH1 0x40 MLOAD SWAP4 DUP5 SWAP3 PUSH1 0x0 SWAP3 DUP2 SLOAD SWAP2 PUSH2 0x1FBB DUP4 PUSH2 0x1AB5 JUMP JUMPDEST DUP1 DUP8 MSTORE SWAP3 DUP3 DUP2 AND SWAP1 DUP2 ISZERO PUSH2 0x202E JUMPI POP PUSH1 0x1 EQ PUSH2 0x1FE9 JUMPI JUMPDEST POP POP POP POP PUSH1 0x60 SWAP3 SWAP2 PUSH2 0x1FE5 SWAP2 SUB DUP5 PUSH2 0x1B25 JUMP JUMPDEST ADD MSTORE JUMP JUMPDEST PUSH1 0x0 SWAP1 DUP2 MSTORE DUP4 DUP2 KECCAK256 SWAP7 SWAP6 SWAP5 POP SWAP2 SWAP1 JUMPDEST DUP2 DUP4 LT PUSH2 0x2016 JUMPI POP SWAP4 SWAP5 POP SWAP2 SWAP3 POP SWAP1 DUP3 ADD ADD DUP2 PUSH2 0x1FE5 PUSH1 0x60 CODESIZE PUSH2 0x1FD2 JUMP JUMPDEST DUP7 SLOAD DUP9 DUP5 ADD DUP6 ADD MSTORE SWAP6 DUP7 ADD SWAP6 DUP8 SWAP5 POP SWAP2 DUP4 ADD SWAP2 PUSH2 0x1FF8 JUMP JUMPDEST PUSH1 0xFF NOT AND DUP6 DUP9 ADD MSTORE POP POP POP ISZERO ISZERO PUSH1 0x5 SHL DUP4 ADD ADD SWAP1 POP DUP2 PUSH2 0x1FE5 PUSH1 0x60 CODESIZE PUSH2 0x1FD2 JUMP JUMPDEST DUP1 ISZERO ISZERO DUP1 PUSH2 0x2174 JUMPI JUMPDEST PUSH2 0x2061 SWAP1 PUSH2 0x1E9B JUMP JUMPDEST PUSH1 0x0 MSTORE PUSH1 0x20 PUSH1 0x5 DUP2 MSTORE PUSH1 0x40 DUP1 PUSH1 0x0 KECCAK256 PUSH1 0x9 DUP2 ADD SLOAD PUSH1 0xFF DUP2 PUSH1 0x8 SHR AND PUSH1 0x0 EQ PUSH2 0x20A7 JUMPI POP POP PUSH8 0x10D85B98D95B1959 PUSH1 0xC2 SHL SWAP1 MLOAD SWAP2 PUSH2 0x209D DUP4 PUSH2 0x1B0A JUMP JUMPDEST PUSH1 0x8 DUP4 MSTORE DUP3 ADD MSTORE SWAP1 JUMP JUMPDEST PUSH1 0xFF AND ISZERO PUSH2 0x20C8 JUMPI POP PUSH8 0x115E1958DD5D1959 PUSH1 0xC2 SHL SWAP1 MLOAD SWAP2 PUSH2 0x209D DUP4 PUSH2 0x1B0A JUMP JUMPDEST PUSH1 0x4 DUP2 ADD SLOAD TIMESTAMP LT ISZERO PUSH2 0x20F6 JUMPI POP PUSH7 0x50656E64696E67 PUSH1 0xC8 SHL SWAP1 MLOAD SWAP2 PUSH2 0x20EC DUP4 PUSH2 0x1B0A JUMP JUMPDEST PUSH1 0x7 DUP4 MSTORE DUP3 ADD MSTORE SWAP1 JUMP JUMPDEST PUSH1 0x5 DUP2 ADD SLOAD TIMESTAMP GT PUSH2 0x2122 JUMPI POP PUSH6 0x416374697665 PUSH1 0xD0 SHL SWAP1 MLOAD SWAP2 PUSH2 0x2118 DUP4 PUSH2 0x1B0A JUMP JUMPDEST PUSH1 0x6 DUP4 MSTORE DUP3 ADD MSTORE SWAP1 JUMP JUMPDEST PUSH1 0xB ADD SLOAD PUSH1 0xFF AND PUSH1 0x7 DUP2 LT ISZERO PUSH2 0x362 JUMPI PUSH1 0x2 SUB PUSH2 0x215C JUMPI PUSH9 0x14DD58D8D959591959 PUSH1 0xBA SHL SWAP1 MLOAD SWAP2 PUSH2 0x2152 DUP4 PUSH2 0x1B0A JUMP JUMPDEST PUSH1 0x9 DUP4 MSTORE DUP3 ADD MSTORE SWAP1 JUMP JUMPDEST PUSH8 0x11195999585D1959 PUSH1 0xC2 SHL SWAP1 MLOAD SWAP2 PUSH2 0x209D DUP4 PUSH2 0x1B0A JUMP JUMPDEST POP PUSH1 0x4 SLOAD DUP2 GT ISZERO PUSH2 0x2058 JUMP INVALID LOG2 PUSH5 0x6970667358 0x22 SLT KECCAK256 PUSH16 0x3373F348CA0F65ADC551DC0CBEF6896F 0x22 0xE7 0xB7 0x22 0xA7 MLOAD ADDMOD STATICCALL PUSH20 0x3A341E849F64736F6C63430008130033000000 "},"methodIdentifiers":{"cancel(uint256)":"40e58ee5","castVote(uint256,uint8,string)":"470b7622","daoRegistry()":"2a2b6ba0","execute(uint256)":"fe0d94c1","getGovernanceParameters()":"5835cf30","getProposal(uint256)":"c7f758a8","getProposalActions(uint256)":"e26b2bea","getProposalState(uint256)":"9080936f","getTotalProposals()":"1a5007dd","getVote(uint256,address)":"bc3f931f","getVotingPower(address)":"bb4d4436","governanceToken()":"f96dae0a","hasVoted(uint256,address)":"43859632","hasVotedOnProposal(uint256,address)":"600303d8","owner()":"8da5cb5b","proposalThreshold()":"b58131b0","proposals(uint256)":"013cf08b","propose(string,string,(address,uint256,string,bytes)[])":"0cbc0a08","quorumVotes()":"24bc1a64","renounceOwnership()":"715018a6","transferOwnership(address)":"f2fde38b","updateGovernanceParameters(uint256,uint256,uint256)":"f3047c05","updateProposalStatus(uint256)":"c851ed6c","votes(uint256,address)":"d23254b4","votingPeriod()":"02a251a3"}}}}}