{"contracts/MockTreasury.sol":{"MockTreasury":{"abi":[{"inputs":[],"stateMutability":"nonpayable","type":"constructor"},{"anonymous":false,"inputs":[{"indexed":true,"internalType":"address","name":"from","type":"address"},{"indexed":false,"internalType":"uint256","name":"amount","type":"uint256"}],"name":"ETHDeposited","type":"event"},{"anonymous":false,"inputs":[{"indexed":true,"internalType":"address","name":"to","type":"address"},{"indexed":false,"internalType":"uint256","name":"amount","type":"uint256"}],"name":"ETHWithdrawn","type":"event"},{"anonymous":false,"inputs":[{"indexed":true,"internalType":"address","name":"nft","type":"address"},{"indexed":true,"internalType":"address","name":"from","type":"address"},{"indexed":false,"internalType":"uint256","name":"tokenId","type":"uint256"}],"name":"NFTDeposited","type":"event"},{"anonymous":false,"inputs":[{"indexed":true,"internalType":"address","name":"nft","type":"address"},{"indexed":true,"internalType":"address","name":"to","type":"address"},{"indexed":false,"internalType":"uint256","name":"tokenId","type":"uint256"}],"name":"NFTWithdrawn","type":"event"},{"anonymous":false,"inputs":[{"indexed":true,"internalType":"address","name":"previousOwner","type":"address"},{"indexed":true,"internalType":"address","name":"newOwner","type":"address"}],"name":"OwnershipTransferred","type":"event"},{"anonymous":false,"inputs":[{"indexed":true,"internalType":"address","name":"token","type":"address"},{"indexed":true,"internalType":"address","name":"from","type":"address"},{"indexed":false,"internalType":"uint256","name":"amount","type":"uint256"}],"name":"TokenDeposited","type":"event"},{"anonymous":false,"inputs":[{"indexed":true,"internalType":"address","name":"token","type":"address"},{"indexed":true,"internalType":"address","name":"to","type":"address"},{"indexed":false,"internalType":"uint256","name":"amount","type":"uint256"}],"name":"TokenWithdrawn","type":"event"},{"anonymous":false,"inputs":[{"indexed":false,"internalType":"uint256","name":"totalValue","type":"uint256"},{"indexed":false,"internalType":"uint256","name":"timestamp","type":"uint256"}],"name":"TreasuryUpdated","type":"event"},{"inputs":[],"name":"depositETH","outputs":[],"stateMutability":"payable","type":"function"},{"inputs":[{"internalType":"address","name":"nft","type":"address"},{"internalType":"uint256","name":"tokenId","type":"uint256"}],"name":"depositNFT","outputs":[],"stateMutability":"nonpayable","type":"function"},{"inputs":[{"internalType":"address","name":"token","type":"address"},{"internalType":"uint256","name":"amount","type":"uint256"}],"name":"depositToken","outputs":[],"stateMutability":"nonpayable","type":"function"},{"inputs":[],"name":"description","outputs":[{"internalType":"string","name":"","type":"string"}],"stateMutability":"view","type":"function"},{"inputs":[{"internalType":"address","name":"to","type":"address"},{"internalType":"uint256","name":"amount","type":"uint256"}],"name":"emergencyRecoverETH","outputs":[],"stateMutability":"nonpayable","type":"function"},{"inputs":[{"internalType":"address","name":"nftAddress","type":"address"},{"internalType":"address","name":"to","type":"address"},{"internalType":"uint256","name":"tokenId","type":"uint256"}],"name":"emergencyRecoverNFT","outputs":[],"stateMutability":"nonpayable","type":"function"},{"inputs":[{"internalType":"address","name":"tokenAddress","type":"address"},{"internalType":"address","name":"to","type":"address"},{"internalType":"uint256","name":"amount","type":"uint256"}],"name":"emergencyRecoverTokens","outputs":[],"stateMutability":"nonpayable","type":"function"},{"inputs":[{"internalType":"address","name":"","type":"address"}],"name":"ethBalance","outputs":[{"internalType":"uint256","name":"","type":"uint256"}],"stateMutability":"view","type":"function"},{"inputs":[{"internalType":"address","name":"account","type":"address"}],"name":"getAccountBalance","outputs":[{"internalType":"uint256","name":"ethBal","type":"uint256"},{"internalType":"uint256","name":"tokenCount","type":"uint256"},{"internalType":"uint256","name":"nftCount","type":"uint256"}],"stateMutability":"view","type":"function"},{"inputs":[],"name":"getTreasuryStats","outputs":[{"internalType":"uint256","name":"totalETH","type":"uint256"},{"internalType":"uint256","name":"totalTokens","type":"uint256"},{"internalType":"uint256","name":"totalNFTs","type":"uint256"},{"internalType":"uint256","name":"lastUpdate","type":"uint256"}],"stateMutability":"view","type":"function"},{"inputs":[],"name":"getTreasuryValueUSD","outputs":[{"internalType":"uint256","name":"value","type":"uint256"}],"stateMutability":"view","type":"function"},{"inputs":[{"internalType":"address","name":"token","type":"address"},{"internalType":"uint256","name":"amount","type":"uint256"}],"name":"hasSufficientBalance","outputs":[{"internalType":"bool","name":"","type":"bool"}],"stateMutability":"view","type":"function"},{"inputs":[],"name":"lastUpdated","outputs":[{"internalType":"uint256","name":"","type":"uint256"}],"stateMutability":"view","type":"function"},{"inputs":[],"name":"name","outputs":[{"internalType":"string","name":"","type":"string"}],"stateMutability":"view","type":"function"},{"inputs":[{"internalType":"address","name":"","type":"address"},{"internalType":"uint256","name":"","type":"uint256"}],"name":"nftBalances","outputs":[{"internalType":"bool","name":"","type":"bool"}],"stateMutability":"view","type":"function"},{"inputs":[],"name":"owner","outputs":[{"internalType":"address","name":"","type":"address"}],"stateMutability":"view","type":"function"},{"inputs":[],"name":"renounceOwnership","outputs":[],"stateMutability":"nonpayable","type":"function"},{"inputs":[{"internalType":"address","name":"","type":"address"},{"internalType":"address","name":"","type":"address"}],"name":"tokenBalances","outputs":[{"internalType":"uint256","name":"","type":"uint256"}],"stateMutability":"view","type":"function"},{"inputs":[],"name":"totalValue","outputs":[{"internalType":"uint256","name":"","type":"uint256"}],"stateMutability":"view","type":"function"},{"inputs":[{"internalType":"address","name":"newOwner","type":"address"}],"name":"transferOwnership","outputs":[],"stateMutability":"nonpayable","type":"function"},{"inputs":[{"internalType":"string","name":"newName","type":"string"},{"internalType":"string","name":"newDescription","type":"string"}],"name":"updateTreasuryInfo","outputs":[],"stateMutability":"nonpayable","type":"function"},{"inputs":[{"internalType":"address","name":"to","type":"address"},{"internalType":"uint256","name":"amount","type":"uint256"}],"name":"withdrawETH","outputs":[],"stateMutability":"nonpayable","type":"function"},{"inputs":[{"internalType":"address","name":"nft","type":"address"},{"internalType":"address","name":"to","type":"address"},{"internalType":"uint256","name":"tokenId","type":"uint256"}],"name":"withdrawNFT","outputs":[],"stateMutability":"nonpayable","type":"function"},{"inputs":[{"internalType":"address","name":"token","type":"address"},{"internalType":"address","name":"to","type":"address"},{"internalType":"uint256","name":"amount","type":"uint256"}],"name":"withdrawToken","outputs":[],"stateMutability":"nonpayable","type":"function"},{"stateMutability":"payable","type":"receive"}],"evm":{"bytecode":{"linkReferences":{},"object":"608060405234620001a65760008054336001600160a01b0319821681178355906001600160a01b03167f8be0079c531659141344cd1fd0a4f28419497f9722a3daafe3b4186f6b6457e08380a36001908180556200005f600554620001ab565b601f811162000176575b507f4d6f636b2044414f2054726561737572790000000000000000000000000000226005556006546200009c90620001ab565b601f81116200010e575b7f52656769737472792066756e6374696f6e616c6974790000000000000000000083602084606d60065560068152207f41206d6f636b20747265617375727920666f722074657374696e672044414f2081550155426008556040516119c69081620001e98239f35b60068252601f0160051c7ff652222313e28459528d920b65115c16c04f3efc82aaedc97be59f3f377c0d3f017ff652222313e28459528d920b65115c16c04f3efc82aaedc97be59f3f377c0d415b8181106200016b5750620000a6565b82815583016200015c565b6005825282601f60208420920160051c8201915b8281106200019a57505062000069565b8381550183906200018a565b600080fd5b90600182811c92168015620001dd575b6020831014620001c757565b634e487b7160e01b600052602260045260246000fd5b91607f1691620001bb56fe6040608081526004803610156100de575b361561001b57600080fd5b6100236116a0565b34156100a457600080516020611971833981519152823360005260026020528060002061005134825461167d565b905561005f3460075461167d565b806007554260085581513481527f6c703791f399558807424f489ccd811c72b4ff0b74af547264fad7c646776df060203392a28151908152426020820152a160018055005b6020606492519162461bcd60e51b8352820152601560248201527409aeae6e840c8cae0dee6d2e840e6dedaca408aa89605b1b6044820152fd5b6000803560e01c806301e33667146112c257806306fdde03146111ef57806333760d8714611165578063338b5dea146110265780634613f29114610fdf5780634782f77914610e785780634dbf6c5a14610e21578063715018a614610dc757806371d277e714610d045780637284e41614610c225780638da5cb5b14610bfa57806393423e9c14610bb75780639b5b9b18146109d0578063b4b649e8146106e9578063bff863ec14610546578063c8692e3f14610509578063d0b06f5d146104ea578063d3df304e146104a3578063d4c3eea014610484578063d5395d2b14610452578063d8f3790f1461041a578063e110976f1461035a578063f2fde38b1461028c5763f6326fb3146101f25750610010565b919082600319360112610288576102076116a0565b34156100a4575060008051602061197183398151915290338352600260205280832061023434825461167d565b90556102423460075461167d565b806007554260085581513481527f6c703791f399558807424f489ccd811c72b4ff0b74af547264fad7c646776df060203392a28151908152426020820152a16001805580f35b8280fd5b50919034610288576020366003190112610288576102a86114a8565b906102b1611625565b6001600160a01b03918216928315610308575050600054826bffffffffffffffffffffffff60a01b821617600055167f8be0079c531659141344cd1fd0a4f28419497f9722a3daafe3b4186f6b6457e0600080a380f35b906020608492519162461bcd60e51b8352820152602660248201527f4f776e61626c653a206e6577206f776e657220697320746865207a65726f206160448201526564647265737360d01b6064820152fd5b5080929134610416576103b391602091610373366114be565b9390919261037f611625565b875163a9059cbb60e01b81526001600160a01b03909316908301908152602081019490945290948593849291839160400190565b03926001600160a01b03165af190811561040a576103d9925083916103dc575b50611932565b80f35b6103fd915060203d8111610403575b6103f58183611557565b81019061180f565b386103d3565b503d6103eb565b505051903d90823e3d90fd5b5080fd5b5082346104165760203660031901126104165760209181906001600160a01b036104426114a8565b1681526002845220549051908152f35b50823461041657806003193601126104165760209061047b6104726114a8565b602435906118ad565b90519015158152f35b5082346104165781600319360112610416576020906007549051908152f35b5091903461028857816003193601126102885760209260ff918391906001600160a01b036104cf6114a8565b16825285528181206024358252855220541690519015158152f35b5082346104165781600319360112610416576020906008549051908152f35b50823461041657816003193601126104165790608091479161052d8360075461178e565b9160085492815194855260208501528301526060820152f35b50823461041657610556366114be565b9161055f611625565b6105676116a0565b6001600160a01b039081169061057e82151561186b565b82169061058c821515611742565b808652602092878452858720858852845260ff8688205416156106b057813b156106ac5785516323b872dd60e01b8152308982019081526001600160a01b0390921660208301526040820186905290879082908190606001038183865af180156106a25790879161068a575b508190528683528486208487528352848620805460ff1916905560075460001981019490851161067757600080516020611971833981519152969750837fbbde41973f9ce4890f7ad9762c23d8191f261fd643bdf13ed8bbc10549b49fcb9186600755426008558751908152a382519182524290820152a16001805580f35b634e487b7160e01b875260118852602487fd5b6106939061152d565b61069e5785886105f8565b8580fd5b86513d89823e3d90fd5b8680fd5b855162461bcd60e51b815280890185905260136024820152724e4654206e6f7420696e20747265617375727960681b6044820152606490fd5b508234610416573660031901126109cd5767ffffffffffffffff82358181116102885761071990369085016115de565b926024358281116109c95761073190369083016115de565b9061073a611625565b8451908382116108c1576005918061075284546114f3565b97601f98898111610960575b506020908983116001146108df5788926108d4575b50508160011b916000199060031b1c19161782555b82519384116108c1575061079d6006546114f3565b90858211610867575b505060209382116001146107e7579282938293926107dc575b50508160011b916000199060031b1c1916176006555b4260085580f35b0151905083806107bf565b60068352601f198216937ff652222313e28459528d920b65115c16c04f3efc82aaedc97be59f3f377c0d3f91845b86811061084f5750836001959610610836575b505050811b016006556107d5565b015160001960f88460031b161c19169055838080610828565b91926020600181928685015181550194019201610815565b600685527ff652222313e28459528d920b65115c16c04f3efc82aaedc97be59f3f377c0d3f9086808601821c830193602087106108b8575b01901c01905b818110156107a6578481556001016108a5565b9350829361089f565b634e487b7160e01b855260419052602484fd5b015190508880610773565b8589527f036b6384b5eca791c62761152d0c79bb0604c104a5fb6f4eb0703f3154bb3db09250601f198416895b818110610948575090846001959493921061092f575b505050811b018255610788565b015160001960f88460031b161c19169055888080610922565b9293602060018192878601518155019501930161090c565b9091508488527f036b6384b5eca791c62761152d0c79bb0604c104a5fb6f4eb0703f3154bb3db089808501871c820192602086106109c0575b90859493929101871c01905b8181106109b2575061075e565b8981558493506001016109a5565b92508192610999565b8380fd5b80fd5b5082346104165780600319360112610416576109ea6114a8565b602435906109f66116a0565b6001600160a01b0390811691610a0d83151561186b565b83516331a9108f60e11b81528681018290526020928382602481885afa9182156106a2578792610b7f575b5033911603610b3c57823b15610b2e5783516323b872dd60e01b81523387820190815230602082015260408101839052869082908190606001038183885af18015610b3257908691610b1a575b508390528582528385208186528252838520600160ff198254161790556007549260018401809411610b0757600080516020611971833981519152959650836007554260085584519182527f2214288c094665e4969e2968c71e56e0ab3c69646a5c773ec8c2a7ca3bf18808833393a382519182524290820152a16001805580f35b634e487b7160e01b865260118752602486fd5b610b239061152d565b610b2e578487610a85565b8480fd5b85513d88823e3d90fd5b835162461bcd60e51b8152808701839052601960248201527f4e6f7420746865206f776e6572206f662074686973204e4654000000000000006044820152606490fd5b9091508381813d8311610bb0575b610b978183611557565b810103126106ac575181811681036106ac579088610a38565b503d610b8d565b508234610416576020366003190112610416576060916001600160a01b03610bdd6114a8565b168152600260205281812054918051928352816020840152820152f35b508234610416578160031936011261041657905490516001600160a01b039091168152602090f35b8382346109cd57806003193601126109cd57508051600091600654610c46816114f3565b80845290600190818116908115610cdc5750600114610c7f575b5050610c7182610c7b940383611557565b5191829182611579565b0390f35b6006600090815294507ff652222313e28459528d920b65115c16c04f3efc82aaedc97be59f3f377c0d3f5b828610610cc45750505091810160200191610c7182610c60565b80546020878701810191909152909501948101610caa565b610c7b96508592506020915092610c719360ff191682840152151560051b8201019450610c60565b509134610288578060031936011261028857610d1e6114a8565b9160243592610d2b611625565b6001600160a01b0316918215610d9057478411610d5657846103d98180808089895af16103d361179b565b906020606492519162461bcd60e51b83528201526014602482015273496e73756666696369656e742062616c616e636560601b6044820152fd5b906020606492519162461bcd60e51b83528201526011602482015270125b9d985b1a59081c9958da5c1a595b9d607a1b6044820152fd5b50346109cd57806003193601126109cd57610de0611625565b600080546001600160a01b0319811682556001600160a01b03167f8be0079c531659141344cd1fd0a4f28419497f9722a3daafe3b4186f6b6457e08280a380f35b508234610416578060031936011261041657610e3b6114a8565b6001600160a01b0392602435848116929190839003610e73576020948492168152600385522090600052825280600020549051908152f35b600080fd5b508234610416578060031936011261041657610e926114a8565b60243593610e9e611625565b610ea66116a0565b610eb18515156116f6565b478511610f9c576001600160a01b0391821691610ecf831515611742565b84541684526002602052828420610ee786825461178e565b9055610ef58560075461178e565b600755426008558380808088865af1610f0c61179b565b5015610f6357507f94b2de810873337ed265c5f8cf98c9cffefa06b8607f9a2f1fbaebdfbcfbef1c602060008051602061197183398151915294958451908152a26007548151908152426020820152a16001805580f35b606490602084519162461bcd60e51b83528201526013602482015272115512081d1c985b9cd9995c8819985a5b1959606a1b6044820152fd5b606490602084519162461bcd60e51b8352820152601860248201527f496e73756666696369656e74204554482062616c616e636500000000000000006044820152fd5b508234610416578160031936011261041657600754916107d092838102938185041490151715611013576020838351908152f35b634e487b7160e01b815260118452602490fd5b5091346102885780600319360112610288576110406114a8565b6024359061104c6116a0565b6001600160a01b0316906110618215156117cb565b61106c8115156116f6565b82516323b872dd60e01b81523394810194855230602086810191909152604086018390529094909190829086908190606001038189875af194851561115b57600080516020611971833981519152956110cc91889161113e575b50611827565b82865260038252838620336000528252836000206110eb82825461167d565b90556110f98160075461167d565b92836007554260085584519182527ff1444b5cad7ce70cb018d1b8edc8618fe303f3c7f034d8d572a6e27facbf2bef833393a382519182524290820152a16001805580f35b6111559150843d8611610403576103f58183611557565b386110c6565b84513d88823e3d90fd5b5091346102885782611176366114be565b9161117f611625565b6001600160a01b031690813b156109c95784516323b872dd60e01b8152309681019687526001600160a01b0390911660208701526040860192909252909384919082908490829060600103925af19081156111e657506111dd575080f35b6103d99061152d565b513d84823e3d90fd5b50823461041657816003193601126104165780519082600554611211816114f3565b8085529160019180831690811561129a575060011461123d575b505050610c7182610c7b940383611557565b9450600585527f036b6384b5eca791c62761152d0c79bb0604c104a5fb6f4eb0703f3154bb3db05b82861061128257505050610c71826020610c7b958201019461122b565b80546020878701810191909152909501948101611265565b610c7b975086935060209250610c7194915060ff191682840152151560051b8201019461122b565b509134610288576112d2366114be565b93906112dc611625565b6112e46116a0565b6001600160a01b03928316906112fb8215156117cb565b6113068615156116f6565b83811692611315841515611742565b85516370a0823160e01b81523082820152602095908681602481885afa90811561149e579089918b91611469575b5010611426579185918893858b5260038452888b20908b54168b528352878a2061136e85825461178e565b905561137c8460075461178e565b60075542600855875163a9059cbb60e01b81526001600160a01b039092169082019081526020810193909352918290819060400103818a865af190811561141c57600080516020611971833981519152966114007f8210728e7c071f615b840ee026032693858fbcd5e5359e67e438c890f59e56209387938b9161113e5750611827565b8651908152a36007549082519182524290820152a16001805580f35b85513d89823e3d90fd5b865162461bcd60e51b8152808301879052601a60248201527f496e73756666696369656e7420746f6b656e2062616c616e63650000000000006044820152606490fd5b809250888092503d8311611497575b6114828183611557565b810103126114935788905138611343565b8980fd5b503d611478565b88513d8c823e3d90fd5b600435906001600160a01b0382168203610e7357565b6060906003190112610e73576001600160a01b03906004358281168103610e7357916024359081168103610e73579060443590565b90600182811c92168015611523575b602083101461150d57565b634e487b7160e01b600052602260045260246000fd5b91607f1691611502565b67ffffffffffffffff811161154157604052565b634e487b7160e01b600052604160045260246000fd5b90601f8019910116810190811067ffffffffffffffff82111761154157604052565b6020808252825181830181905290939260005b8281106115ae57505060409293506000838284010152601f8019910116010190565b81810186015184820160400152850161158c565b67ffffffffffffffff811161154157601f01601f191660200190565b81601f82011215610e73578035906115f5826115c2565b926116036040519485611557565b82845260208383010111610e7357816000926020809301838601378301015290565b6000546001600160a01b0316330361163957565b606460405162461bcd60e51b815260206004820152602060248201527f4f776e61626c653a2063616c6c6572206973206e6f7420746865206f776e65726044820152fd5b9190820180921161168a57565b634e487b7160e01b600052601160045260246000fd5b6002600154146116b1576002600155565b60405162461bcd60e51b815260206004820152601f60248201527f5265656e7472616e637947756172643a207265656e7472616e742063616c6c006044820152606490fd5b156116fd57565b60405162461bcd60e51b815260206004820152601d60248201527f416d6f756e74206d7573742062652067726561746572207468616e20300000006044820152606490fd5b1561174957565b60405162461bcd60e51b815260206004820152601960248201527f496e76616c696420726563697069656e742061646472657373000000000000006044820152606490fd5b9190820391821161168a57565b3d156117c6573d906117ac826115c2565b916117ba6040519384611557565b82523d6000602084013e565b606090565b156117d257565b60405162461bcd60e51b8152602060048201526015602482015274496e76616c696420746f6b656e206164647265737360581b6044820152606490fd5b90816020910312610e7357518015158103610e735790565b1561182e57565b60405162461bcd60e51b8152602060048201526015602482015274151bdad95b881d1c985b9cd9995c8819985a5b1959605a1b6044820152606490fd5b1561187257565b60405162461bcd60e51b8152602060048201526013602482015272496e76616c6964204e4654206164647265737360681b6044820152606490fd5b6001600160a01b0316806118c2575047101590565b6020602491604051928380926370a0823160e01b82523060048301525afa908115611926576000916118f5575b50101590565b906020823d821161191e575b8161190e60209383611557565b810103126109cd575051386118ef565b3d9150611901565b6040513d6000823e3d90fd5b1561193957565b60405162461bcd60e51b815260206004820152600f60248201526e151c985b9cd9995c8819985a5b1959608a1b6044820152606490fdfe407273b7dc7179e97b93ca77cca640253dcde7bf9894a989ad94a9ebef6e9465a2646970667358221220991be545ca1d6b2ceaeedc95d44588263bdc947cf8f675694aa9f3c4f4c6176664736f6c63430008130033","opcodes":"PUSH1 0x80 PUSH1 0x40 MSTORE CALLVALUE PUSH3 0x1A6 JUMPI PUSH1 0x0 DUP1 SLOAD CALLER PUSH1 0x1 PUSH1 0x1 PUSH1 0xA0 SHL SUB NOT DUP3 AND DUP2 OR DUP4 SSTORE SWAP1 PUSH1 0x1 PUSH1 0x1 PUSH1 0xA0 SHL SUB AND PUSH32 0x8BE0079C531659141344CD1FD0A4F28419497F9722A3DAAFE3B4186F6B6457E0 DUP4 DUP1 LOG3 PUSH1 0x1 SWAP1 DUP2 DUP1 SSTORE PUSH3 0x5F PUSH1 0x5 SLOAD PUSH3 0x1AB JUMP JUMPDEST PUSH1 0x1F DUP2 GT PUSH3 0x176 JUMPI JUMPDEST POP PUSH32 0x4D6F636B2044414F205472656173757279000000000000000000000000000022 PUSH1 0x5 SSTORE PUSH1 0x6 SLOAD PUSH3 0x9C SWAP1 PUSH3 0x1AB JUMP JUMPDEST PUSH1 0x1F DUP2 GT PUSH3 0x10E JUMPI JUMPDEST PUSH32 0x52656769737472792066756E6374696F6E616C69747900000000000000000000 DUP4 PUSH1 0x20 DUP5 PUSH1 0x6D PUSH1 0x6 SSTORE PUSH1 0x6 DUP2 MSTORE KECCAK256 PUSH32 0x41206D6F636B20747265617375727920666F722074657374696E672044414F20 DUP2 SSTORE ADD SSTORE TIMESTAMP PUSH1 0x8 SSTORE PUSH1 0x40 MLOAD PUSH2 0x19C6 SWAP1 DUP2 PUSH3 0x1E9 DUP3 CODECOPY RETURN JUMPDEST PUSH1 0x6 DUP3 MSTORE PUSH1 0x1F ADD PUSH1 0x5 SHR PUSH32 0xF652222313E28459528D920B65115C16C04F3EFC82AAEDC97BE59F3F377C0D3F ADD PUSH32 0xF652222313E28459528D920B65115C16C04F3EFC82AAEDC97BE59F3F377C0D41 JUMPDEST DUP2 DUP2 LT PUSH3 0x16B JUMPI POP PUSH3 0xA6 JUMP JUMPDEST DUP3 DUP2 SSTORE DUP4 ADD PUSH3 0x15C JUMP JUMPDEST PUSH1 0x5 DUP3 MSTORE DUP3 PUSH1 0x1F PUSH1 0x20 DUP5 KECCAK256 SWAP3 ADD PUSH1 0x5 SHR DUP3 ADD SWAP2 JUMPDEST DUP3 DUP2 LT PUSH3 0x19A JUMPI POP POP PUSH3 0x69 JUMP JUMPDEST DUP4 DUP2 SSTORE ADD DUP4 SWAP1 PUSH3 0x18A JUMP JUMPDEST PUSH1 0x0 DUP1 REVERT JUMPDEST SWAP1 PUSH1 0x1 DUP3 DUP2 SHR SWAP3 AND DUP1 ISZERO PUSH3 0x1DD JUMPI JUMPDEST PUSH1 0x20 DUP4 LT EQ PUSH3 0x1C7 JUMPI JUMP JUMPDEST PUSH4 0x4E487B71 PUSH1 0xE0 SHL PUSH1 0x0 MSTORE PUSH1 0x22 PUSH1 0x4 MSTORE PUSH1 0x24 PUSH1 0x0 REVERT JUMPDEST SWAP2 PUSH1 0x7F AND SWAP2 PUSH3 0x1BB JUMP INVALID PUSH1 0x40 PUSH1 0x80 DUP2 MSTORE PUSH1 0x4 DUP1 CALLDATASIZE LT ISZERO PUSH2 0xDE JUMPI JUMPDEST CALLDATASIZE ISZERO PUSH2 0x1B JUMPI PUSH1 0x0 DUP1 REVERT JUMPDEST PUSH2 0x23 PUSH2 0x16A0 JUMP JUMPDEST CALLVALUE ISZERO PUSH2 0xA4 JUMPI PUSH1 0x0 DUP1 MLOAD PUSH1 0x20 PUSH2 0x1971 DUP4 CODECOPY DUP2 MLOAD SWAP2 MSTORE DUP3 CALLER PUSH1 0x0 MSTORE PUSH1 0x2 PUSH1 0x20 MSTORE DUP1 PUSH1 0x0 KECCAK256 PUSH2 0x51 CALLVALUE DUP3 SLOAD PUSH2 0x167D JUMP JUMPDEST SWAP1 SSTORE PUSH2 0x5F CALLVALUE PUSH1 0x7 SLOAD PUSH2 0x167D JUMP JUMPDEST DUP1 PUSH1 0x7 SSTORE TIMESTAMP PUSH1 0x8 SSTORE DUP2 MLOAD CALLVALUE DUP2 MSTORE PUSH32 0x6C703791F399558807424F489CCD811C72B4FF0B74AF547264FAD7C646776DF0 PUSH1 0x20 CALLER SWAP3 LOG2 DUP2 MLOAD SWAP1 DUP2 MSTORE TIMESTAMP PUSH1 0x20 DUP3 ADD MSTORE LOG1 PUSH1 0x1 DUP1 SSTORE STOP JUMPDEST PUSH1 0x20 PUSH1 0x64 SWAP3 MLOAD SWAP2 PUSH3 0x461BCD PUSH1 0xE5 SHL DUP4 MSTORE DUP3 ADD MSTORE PUSH1 0x15 PUSH1 0x24 DUP3 ADD MSTORE PUSH21 0x9AEAE6E840C8CAE0DEE6D2E840E6DEDACA408AA89 PUSH1 0x5B SHL PUSH1 0x44 DUP3 ADD MSTORE REVERT JUMPDEST PUSH1 0x0 DUP1 CALLDATALOAD PUSH1 0xE0 SHR DUP1 PUSH4 0x1E33667 EQ PUSH2 0x12C2 JUMPI DUP1 PUSH4 0x6FDDE03 EQ PUSH2 0x11EF JUMPI DUP1 PUSH4 0x33760D87 EQ PUSH2 0x1165 JUMPI DUP1 PUSH4 0x338B5DEA EQ PUSH2 0x1026 JUMPI DUP1 PUSH4 0x4613F291 EQ PUSH2 0xFDF JUMPI DUP1 PUSH4 0x4782F779 EQ PUSH2 0xE78 JUMPI DUP1 PUSH4 0x4DBF6C5A EQ PUSH2 0xE21 JUMPI DUP1 PUSH4 0x715018A6 EQ PUSH2 0xDC7 JUMPI DUP1 PUSH4 0x71D277E7 EQ PUSH2 0xD04 JUMPI DUP1 PUSH4 0x7284E416 EQ PUSH2 0xC22 JUMPI DUP1 PUSH4 0x8DA5CB5B EQ PUSH2 0xBFA JUMPI DUP1 PUSH4 0x93423E9C EQ PUSH2 0xBB7 JUMPI DUP1 PUSH4 0x9B5B9B18 EQ PUSH2 0x9D0 JUMPI DUP1 PUSH4 0xB4B649E8 EQ PUSH2 0x6E9 JUMPI DUP1 PUSH4 0xBFF863EC EQ PUSH2 0x546 JUMPI DUP1 PUSH4 0xC8692E3F EQ PUSH2 0x509 JUMPI DUP1 PUSH4 0xD0B06F5D EQ PUSH2 0x4EA JUMPI DUP1 PUSH4 0xD3DF304E EQ PUSH2 0x4A3 JUMPI DUP1 PUSH4 0xD4C3EEA0 EQ PUSH2 0x484 JUMPI DUP1 PUSH4 0xD5395D2B EQ PUSH2 0x452 JUMPI DUP1 PUSH4 0xD8F3790F EQ PUSH2 0x41A JUMPI DUP1 PUSH4 0xE110976F EQ PUSH2 0x35A JUMPI DUP1 PUSH4 0xF2FDE38B EQ PUSH2 0x28C JUMPI PUSH4 0xF6326FB3 EQ PUSH2 0x1F2 JUMPI POP PUSH2 0x10 JUMP JUMPDEST SWAP2 SWAP1 DUP3 PUSH1 0x3 NOT CALLDATASIZE ADD SLT PUSH2 0x288 JUMPI PUSH2 0x207 PUSH2 0x16A0 JUMP JUMPDEST CALLVALUE ISZERO PUSH2 0xA4 JUMPI POP PUSH1 0x0 DUP1 MLOAD PUSH1 0x20 PUSH2 0x1971 DUP4 CODECOPY DUP2 MLOAD SWAP2 MSTORE SWAP1 CALLER DUP4 MSTORE PUSH1 0x2 PUSH1 0x20 MSTORE DUP1 DUP4 KECCAK256 PUSH2 0x234 CALLVALUE DUP3 SLOAD PUSH2 0x167D JUMP JUMPDEST SWAP1 SSTORE PUSH2 0x242 CALLVALUE PUSH1 0x7 SLOAD PUSH2 0x167D JUMP JUMPDEST DUP1 PUSH1 0x7 SSTORE TIMESTAMP PUSH1 0x8 SSTORE DUP2 MLOAD CALLVALUE DUP2 MSTORE PUSH32 0x6C703791F399558807424F489CCD811C72B4FF0B74AF547264FAD7C646776DF0 PUSH1 0x20 CALLER SWAP3 LOG2 DUP2 MLOAD SWAP1 DUP2 MSTORE TIMESTAMP PUSH1 0x20 DUP3 ADD MSTORE LOG1 PUSH1 0x1 DUP1 SSTORE DUP1 RETURN JUMPDEST DUP3 DUP1 REVERT JUMPDEST POP SWAP2 SWAP1 CALLVALUE PUSH2 0x288 JUMPI PUSH1 0x20 CALLDATASIZE PUSH1 0x3 NOT ADD SLT PUSH2 0x288 JUMPI PUSH2 0x2A8 PUSH2 0x14A8 JUMP JUMPDEST SWAP1 PUSH2 0x2B1 PUSH2 0x1625 JUMP JUMPDEST PUSH1 0x1 PUSH1 0x1 PUSH1 0xA0 SHL SUB SWAP2 DUP3 AND SWAP3 DUP4 ISZERO PUSH2 0x308 JUMPI POP POP PUSH1 0x0 SLOAD DUP3 PUSH12 0xFFFFFFFFFFFFFFFFFFFFFFFF PUSH1 0xA0 SHL DUP3 AND OR PUSH1 0x0 SSTORE AND PUSH32 0x8BE0079C531659141344CD1FD0A4F28419497F9722A3DAAFE3B4186F6B6457E0 PUSH1 0x0 DUP1 LOG3 DUP1 RETURN JUMPDEST SWAP1 PUSH1 0x20 PUSH1 0x84 SWAP3 MLOAD SWAP2 PUSH3 0x461BCD PUSH1 0xE5 SHL DUP4 MSTORE DUP3 ADD MSTORE PUSH1 0x26 PUSH1 0x24 DUP3 ADD MSTORE PUSH32 0x4F776E61626C653A206E6577206F776E657220697320746865207A65726F2061 PUSH1 0x44 DUP3 ADD MSTORE PUSH6 0x646472657373 PUSH1 0xD0 SHL PUSH1 0x64 DUP3 ADD MSTORE REVERT JUMPDEST POP DUP1 SWAP3 SWAP2 CALLVALUE PUSH2 0x416 JUMPI PUSH2 0x3B3 SWAP2 PUSH1 0x20 SWAP2 PUSH2 0x373 CALLDATASIZE PUSH2 0x14BE JUMP JUMPDEST SWAP4 SWAP1 SWAP2 SWAP3 PUSH2 0x37F PUSH2 0x1625 JUMP JUMPDEST DUP8 MLOAD PUSH4 0xA9059CBB PUSH1 0xE0 SHL DUP2 MSTORE PUSH1 0x1 PUSH1 0x1 PUSH1 0xA0 SHL SUB SWAP1 SWAP4 AND SWAP1 DUP4 ADD SWAP1 DUP2 MSTORE PUSH1 0x20 DUP2 ADD SWAP5 SWAP1 SWAP5 MSTORE SWAP1 SWAP5 DUP6 SWAP4 DUP5 SWAP3 SWAP2 DUP4 SWAP2 PUSH1 0x40 ADD SWAP1 JUMP JUMPDEST SUB SWAP3 PUSH1 0x1 PUSH1 0x1 PUSH1 0xA0 SHL SUB AND GAS CALL SWAP1 DUP2 ISZERO PUSH2 0x40A JUMPI PUSH2 0x3D9 SWAP3 POP DUP4 SWAP2 PUSH2 0x3DC JUMPI JUMPDEST POP PUSH2 0x1932 JUMP JUMPDEST DUP1 RETURN JUMPDEST PUSH2 0x3FD SWAP2 POP PUSH1 0x20 RETURNDATASIZE DUP2 GT PUSH2 0x403 JUMPI JUMPDEST PUSH2 0x3F5 DUP2 DUP4 PUSH2 0x1557 JUMP JUMPDEST DUP2 ADD SWAP1 PUSH2 0x180F JUMP JUMPDEST CODESIZE PUSH2 0x3D3 JUMP JUMPDEST POP RETURNDATASIZE PUSH2 0x3EB JUMP JUMPDEST POP POP MLOAD SWAP1 RETURNDATASIZE SWAP1 DUP3 RETURNDATACOPY RETURNDATASIZE SWAP1 REVERT JUMPDEST POP DUP1 REVERT JUMPDEST POP DUP3 CALLVALUE PUSH2 0x416 JUMPI PUSH1 0x20 CALLDATASIZE PUSH1 0x3 NOT ADD SLT PUSH2 0x416 JUMPI PUSH1 0x20 SWAP2 DUP2 SWAP1 PUSH1 0x1 PUSH1 0x1 PUSH1 0xA0 SHL SUB PUSH2 0x442 PUSH2 0x14A8 JUMP JUMPDEST AND DUP2 MSTORE PUSH1 0x2 DUP5 MSTORE KECCAK256 SLOAD SWAP1 MLOAD SWAP1 DUP2 MSTORE RETURN JUMPDEST POP DUP3 CALLVALUE PUSH2 0x416 JUMPI DUP1 PUSH1 0x3 NOT CALLDATASIZE ADD SLT PUSH2 0x416 JUMPI PUSH1 0x20 SWAP1 PUSH2 0x47B PUSH2 0x472 PUSH2 0x14A8 JUMP JUMPDEST PUSH1 0x24 CALLDATALOAD SWAP1 PUSH2 0x18AD JUMP JUMPDEST SWAP1 MLOAD SWAP1 ISZERO ISZERO DUP2 MSTORE RETURN JUMPDEST POP DUP3 CALLVALUE PUSH2 0x416 JUMPI DUP2 PUSH1 0x3 NOT CALLDATASIZE ADD SLT PUSH2 0x416 JUMPI PUSH1 0x20 SWAP1 PUSH1 0x7 SLOAD SWAP1 MLOAD SWAP1 DUP2 MSTORE RETURN JUMPDEST POP SWAP2 SWAP1 CALLVALUE PUSH2 0x288 JUMPI DUP2 PUSH1 0x3 NOT CALLDATASIZE ADD SLT PUSH2 0x288 JUMPI PUSH1 0x20 SWAP3 PUSH1 0xFF SWAP2 DUP4 SWAP2 SWAP1 PUSH1 0x1 PUSH1 0x1 PUSH1 0xA0 SHL SUB PUSH2 0x4CF PUSH2 0x14A8 JUMP JUMPDEST AND DUP3 MSTORE DUP6 MSTORE DUP2 DUP2 KECCAK256 PUSH1 0x24 CALLDATALOAD DUP3 MSTORE DUP6 MSTORE KECCAK256 SLOAD AND SWAP1 MLOAD SWAP1 ISZERO ISZERO DUP2 MSTORE RETURN JUMPDEST POP DUP3 CALLVALUE PUSH2 0x416 JUMPI DUP2 PUSH1 0x3 NOT CALLDATASIZE ADD SLT PUSH2 0x416 JUMPI PUSH1 0x20 SWAP1 PUSH1 0x8 SLOAD SWAP1 MLOAD SWAP1 DUP2 MSTORE RETURN JUMPDEST POP DUP3 CALLVALUE PUSH2 0x416 JUMPI DUP2 PUSH1 0x3 NOT CALLDATASIZE ADD SLT PUSH2 0x416 JUMPI SWAP1 PUSH1 0x80 SWAP2 SELFBALANCE SWAP2 PUSH2 0x52D DUP4 PUSH1 0x7 SLOAD PUSH2 0x178E JUMP JUMPDEST SWAP2 PUSH1 0x8 SLOAD SWAP3 DUP2 MLOAD SWAP5 DUP6 MSTORE PUSH1 0x20 DUP6 ADD MSTORE DUP4 ADD MSTORE PUSH1 0x60 DUP3 ADD MSTORE RETURN JUMPDEST POP DUP3 CALLVALUE PUSH2 0x416 JUMPI PUSH2 0x556 CALLDATASIZE PUSH2 0x14BE JUMP JUMPDEST SWAP2 PUSH2 0x55F PUSH2 0x1625 JUMP JUMPDEST PUSH2 0x567 PUSH2 0x16A0 JUMP JUMPDEST PUSH1 0x1 PUSH1 0x1 PUSH1 0xA0 SHL SUB SWAP1 DUP2 AND SWAP1 PUSH2 0x57E DUP3 ISZERO ISZERO PUSH2 0x186B JUMP JUMPDEST DUP3 AND SWAP1 PUSH2 0x58C DUP3 ISZERO ISZERO PUSH2 0x1742 JUMP JUMPDEST DUP1 DUP7 MSTORE PUSH1 0x20 SWAP3 DUP8 DUP5 MSTORE DUP6 DUP8 KECCAK256 DUP6 DUP9 MSTORE DUP5 MSTORE PUSH1 0xFF DUP7 DUP9 KECCAK256 SLOAD AND ISZERO PUSH2 0x6B0 JUMPI DUP2 EXTCODESIZE ISZERO PUSH2 0x6AC JUMPI DUP6 MLOAD PUSH4 0x23B872DD PUSH1 0xE0 SHL DUP2 MSTORE ADDRESS DUP10 DUP3 ADD SWAP1 DUP2 MSTORE PUSH1 0x1 PUSH1 0x1 PUSH1 0xA0 SHL SUB SWAP1 SWAP3 AND PUSH1 0x20 DUP4 ADD MSTORE PUSH1 0x40 DUP3 ADD DUP7 SWAP1 MSTORE SWAP1 DUP8 SWAP1 DUP3 SWAP1 DUP2 SWAP1 PUSH1 0x60 ADD SUB DUP2 DUP4 DUP7 GAS CALL DUP1 ISZERO PUSH2 0x6A2 JUMPI SWAP1 DUP8 SWAP2 PUSH2 0x68A JUMPI JUMPDEST POP DUP2 SWAP1 MSTORE DUP7 DUP4 MSTORE DUP5 DUP7 KECCAK256 DUP5 DUP8 MSTORE DUP4 MSTORE DUP5 DUP7 KECCAK256 DUP1 SLOAD PUSH1 0xFF NOT AND SWAP1 SSTORE PUSH1 0x7 SLOAD PUSH1 0x0 NOT DUP2 ADD SWAP5 SWAP1 DUP6 GT PUSH2 0x677 JUMPI PUSH1 0x0 DUP1 MLOAD PUSH1 0x20 PUSH2 0x1971 DUP4 CODECOPY DUP2 MLOAD SWAP2 MSTORE SWAP7 SWAP8 POP DUP4 PUSH32 0xBBDE41973F9CE4890F7AD9762C23D8191F261FD643BDF13ED8BBC10549B49FCB SWAP2 DUP7 PUSH1 0x7 SSTORE TIMESTAMP PUSH1 0x8 SSTORE DUP8 MLOAD SWAP1 DUP2 MSTORE LOG3 DUP3 MLOAD SWAP2 DUP3 MSTORE TIMESTAMP SWAP1 DUP3 ADD MSTORE LOG1 PUSH1 0x1 DUP1 SSTORE DUP1 RETURN JUMPDEST PUSH4 0x4E487B71 PUSH1 0xE0 SHL DUP8 MSTORE PUSH1 0x11 DUP9 MSTORE PUSH1 0x24 DUP8 REVERT JUMPDEST PUSH2 0x693 SWAP1 PUSH2 0x152D JUMP JUMPDEST PUSH2 0x69E JUMPI DUP6 DUP9 PUSH2 0x5F8 JUMP JUMPDEST DUP6 DUP1 REVERT JUMPDEST DUP7 MLOAD RETURNDATASIZE DUP10 DUP3 RETURNDATACOPY RETURNDATASIZE SWAP1 REVERT JUMPDEST DUP7 DUP1 REVERT JUMPDEST DUP6 MLOAD PUSH3 0x461BCD PUSH1 0xE5 SHL DUP2 MSTORE DUP1 DUP10 ADD DUP6 SWAP1 MSTORE PUSH1 0x13 PUSH1 0x24 DUP3 ADD MSTORE PUSH19 0x4E4654206E6F7420696E207472656173757279 PUSH1 0x68 SHL PUSH1 0x44 DUP3 ADD MSTORE PUSH1 0x64 SWAP1 REVERT JUMPDEST POP DUP3 CALLVALUE PUSH2 0x416 JUMPI CALLDATASIZE PUSH1 0x3 NOT ADD SLT PUSH2 0x9CD JUMPI PUSH8 0xFFFFFFFFFFFFFFFF DUP3 CALLDATALOAD DUP2 DUP2 GT PUSH2 0x288 JUMPI PUSH2 0x719 SWAP1 CALLDATASIZE SWAP1 DUP6 ADD PUSH2 0x15DE JUMP JUMPDEST SWAP3 PUSH1 0x24 CALLDATALOAD DUP3 DUP2 GT PUSH2 0x9C9 JUMPI PUSH2 0x731 SWAP1 CALLDATASIZE SWAP1 DUP4 ADD PUSH2 0x15DE JUMP JUMPDEST SWAP1 PUSH2 0x73A PUSH2 0x1625 JUMP JUMPDEST DUP5 MLOAD SWAP1 DUP4 DUP3 GT PUSH2 0x8C1 JUMPI PUSH1 0x5 SWAP2 DUP1 PUSH2 0x752 DUP5 SLOAD PUSH2 0x14F3 JUMP JUMPDEST SWAP8 PUSH1 0x1F SWAP9 DUP10 DUP2 GT PUSH2 0x960 JUMPI JUMPDEST POP PUSH1 0x20 SWAP1 DUP10 DUP4 GT PUSH1 0x1 EQ PUSH2 0x8DF JUMPI DUP9 SWAP3 PUSH2 0x8D4 JUMPI JUMPDEST POP POP DUP2 PUSH1 0x1 SHL SWAP2 PUSH1 0x0 NOT SWAP1 PUSH1 0x3 SHL SHR NOT AND OR DUP3 SSTORE JUMPDEST DUP3 MLOAD SWAP4 DUP5 GT PUSH2 0x8C1 JUMPI POP PUSH2 0x79D PUSH1 0x6 SLOAD PUSH2 0x14F3 JUMP JUMPDEST SWAP1 DUP6 DUP3 GT PUSH2 0x867 JUMPI JUMPDEST POP POP PUSH1 0x20 SWAP4 DUP3 GT PUSH1 0x1 EQ PUSH2 0x7E7 JUMPI SWAP3 DUP3 SWAP4 DUP3 SWAP4 SWAP3 PUSH2 0x7DC JUMPI JUMPDEST POP POP DUP2 PUSH1 0x1 SHL SWAP2 PUSH1 0x0 NOT SWAP1 PUSH1 0x3 SHL SHR NOT AND OR PUSH1 0x6 SSTORE JUMPDEST TIMESTAMP PUSH1 0x8 SSTORE DUP1 RETURN JUMPDEST ADD MLOAD SWAP1 POP DUP4 DUP1 PUSH2 0x7BF JUMP JUMPDEST PUSH1 0x6 DUP4 MSTORE PUSH1 0x1F NOT DUP3 AND SWAP4 PUSH32 0xF652222313E28459528D920B65115C16C04F3EFC82AAEDC97BE59F3F377C0D3F SWAP2 DUP5 JUMPDEST DUP7 DUP2 LT PUSH2 0x84F JUMPI POP DUP4 PUSH1 0x1 SWAP6 SWAP7 LT PUSH2 0x836 JUMPI JUMPDEST POP POP POP DUP2 SHL ADD PUSH1 0x6 SSTORE PUSH2 0x7D5 JUMP JUMPDEST ADD MLOAD PUSH1 0x0 NOT PUSH1 0xF8 DUP5 PUSH1 0x3 SHL AND SHR NOT AND SWAP1 SSTORE DUP4 DUP1 DUP1 PUSH2 0x828 JUMP JUMPDEST SWAP2 SWAP3 PUSH1 0x20 PUSH1 0x1 DUP2 SWAP3 DUP7 DUP6 ADD MLOAD DUP2 SSTORE ADD SWAP5 ADD SWAP3 ADD PUSH2 0x815 JUMP JUMPDEST PUSH1 0x6 DUP6 MSTORE PUSH32 0xF652222313E28459528D920B65115C16C04F3EFC82AAEDC97BE59F3F377C0D3F SWAP1 DUP7 DUP1 DUP7 ADD DUP3 SHR DUP4 ADD SWAP4 PUSH1 0x20 DUP8 LT PUSH2 0x8B8 JUMPI JUMPDEST ADD SWAP1 SHR ADD SWAP1 JUMPDEST DUP2 DUP2 LT ISZERO PUSH2 0x7A6 JUMPI DUP5 DUP2 SSTORE PUSH1 0x1 ADD PUSH2 0x8A5 JUMP JUMPDEST SWAP4 POP DUP3 SWAP4 PUSH2 0x89F JUMP JUMPDEST PUSH4 0x4E487B71 PUSH1 0xE0 SHL DUP6 MSTORE PUSH1 0x41 SWAP1 MSTORE PUSH1 0x24 DUP5 REVERT JUMPDEST ADD MLOAD SWAP1 POP DUP9 DUP1 PUSH2 0x773 JUMP JUMPDEST DUP6 DUP10 MSTORE PUSH32 0x36B6384B5ECA791C62761152D0C79BB0604C104A5FB6F4EB0703F3154BB3DB0 SWAP3 POP PUSH1 0x1F NOT DUP5 AND DUP10 JUMPDEST DUP2 DUP2 LT PUSH2 0x948 JUMPI POP SWAP1 DUP5 PUSH1 0x1 SWAP6 SWAP5 SWAP4 SWAP3 LT PUSH2 0x92F JUMPI JUMPDEST POP POP POP DUP2 SHL ADD DUP3 SSTORE PUSH2 0x788 JUMP JUMPDEST ADD MLOAD PUSH1 0x0 NOT PUSH1 0xF8 DUP5 PUSH1 0x3 SHL AND SHR NOT AND SWAP1 SSTORE DUP9 DUP1 DUP1 PUSH2 0x922 JUMP JUMPDEST SWAP3 SWAP4 PUSH1 0x20 PUSH1 0x1 DUP2 SWAP3 DUP8 DUP7 ADD MLOAD DUP2 SSTORE ADD SWAP6 ADD SWAP4 ADD PUSH2 0x90C JUMP JUMPDEST SWAP1 SWAP2 POP DUP5 DUP9 MSTORE PUSH32 0x36B6384B5ECA791C62761152D0C79BB0604C104A5FB6F4EB0703F3154BB3DB0 DUP10 DUP1 DUP6 ADD DUP8 SHR DUP3 ADD SWAP3 PUSH1 0x20 DUP7 LT PUSH2 0x9C0 JUMPI JUMPDEST SWAP1 DUP6 SWAP5 SWAP4 SWAP3 SWAP2 ADD DUP8 SHR ADD SWAP1 JUMPDEST DUP2 DUP2 LT PUSH2 0x9B2 JUMPI POP PUSH2 0x75E JUMP JUMPDEST DUP10 DUP2 SSTORE DUP5 SWAP4 POP PUSH1 0x1 ADD PUSH2 0x9A5 JUMP JUMPDEST SWAP3 POP DUP2 SWAP3 PUSH2 0x999 JUMP JUMPDEST DUP4 DUP1 REVERT JUMPDEST DUP1 REVERT JUMPDEST POP DUP3 CALLVALUE PUSH2 0x416 JUMPI DUP1 PUSH1 0x3 NOT CALLDATASIZE ADD SLT PUSH2 0x416 JUMPI PUSH2 0x9EA PUSH2 0x14A8 JUMP JUMPDEST PUSH1 0x24 CALLDATALOAD SWAP1 PUSH2 0x9F6 PUSH2 0x16A0 JUMP JUMPDEST PUSH1 0x1 PUSH1 0x1 PUSH1 0xA0 SHL SUB SWAP1 DUP2 AND SWAP2 PUSH2 0xA0D DUP4 ISZERO ISZERO PUSH2 0x186B JUMP JUMPDEST DUP4 MLOAD PUSH4 0x31A9108F PUSH1 0xE1 SHL DUP2 MSTORE DUP7 DUP2 ADD DUP3 SWAP1 MSTORE PUSH1 0x20 SWAP3 DUP4 DUP3 PUSH1 0x24 DUP2 DUP9 GAS STATICCALL SWAP2 DUP3 ISZERO PUSH2 0x6A2 JUMPI DUP8 SWAP3 PUSH2 0xB7F JUMPI JUMPDEST POP CALLER SWAP2 AND SUB PUSH2 0xB3C JUMPI DUP3 EXTCODESIZE ISZERO PUSH2 0xB2E JUMPI DUP4 MLOAD PUSH4 0x23B872DD PUSH1 0xE0 SHL DUP2 MSTORE CALLER DUP8 DUP3 ADD SWAP1 DUP2 MSTORE ADDRESS PUSH1 0x20 DUP3 ADD MSTORE PUSH1 0x40 DUP2 ADD DUP4 SWAP1 MSTORE DUP7 SWAP1 DUP3 SWAP1 DUP2 SWAP1 PUSH1 0x60 ADD SUB DUP2 DUP4 DUP9 GAS CALL DUP1 ISZERO PUSH2 0xB32 JUMPI SWAP1 DUP7 SWAP2 PUSH2 0xB1A JUMPI JUMPDEST POP DUP4 SWAP1 MSTORE DUP6 DUP3 MSTORE DUP4 DUP6 KECCAK256 DUP2 DUP7 MSTORE DUP3 MSTORE DUP4 DUP6 KECCAK256 PUSH1 0x1 PUSH1 0xFF NOT DUP3 SLOAD AND OR SWAP1 SSTORE PUSH1 0x7 SLOAD SWAP3 PUSH1 0x1 DUP5 ADD DUP1 SWAP5 GT PUSH2 0xB07 JUMPI PUSH1 0x0 DUP1 MLOAD PUSH1 0x20 PUSH2 0x1971 DUP4 CODECOPY DUP2 MLOAD SWAP2 MSTORE SWAP6 SWAP7 POP DUP4 PUSH1 0x7 SSTORE TIMESTAMP PUSH1 0x8 SSTORE DUP5 MLOAD SWAP2 DUP3 MSTORE PUSH32 0x2214288C094665E4969E2968C71E56E0AB3C69646A5C773EC8C2A7CA3BF18808 DUP4 CALLER SWAP4 LOG3 DUP3 MLOAD SWAP2 DUP3 MSTORE TIMESTAMP SWAP1 DUP3 ADD MSTORE LOG1 PUSH1 0x1 DUP1 SSTORE DUP1 RETURN JUMPDEST PUSH4 0x4E487B71 PUSH1 0xE0 SHL DUP7 MSTORE PUSH1 0x11 DUP8 MSTORE PUSH1 0x24 DUP7 REVERT JUMPDEST PUSH2 0xB23 SWAP1 PUSH2 0x152D JUMP JUMPDEST PUSH2 0xB2E JUMPI DUP5 DUP8 PUSH2 0xA85 JUMP JUMPDEST DUP5 DUP1 REVERT JUMPDEST DUP6 MLOAD RETURNDATASIZE DUP9 DUP3 RETURNDATACOPY RETURNDATASIZE SWAP1 REVERT JUMPDEST DUP4 MLOAD PUSH3 0x461BCD PUSH1 0xE5 SHL DUP2 MSTORE DUP1 DUP8 ADD DUP4 SWAP1 MSTORE PUSH1 0x19 PUSH1 0x24 DUP3 ADD MSTORE PUSH32 0x4E6F7420746865206F776E6572206F662074686973204E465400000000000000 PUSH1 0x44 DUP3 ADD MSTORE PUSH1 0x64 SWAP1 REVERT JUMPDEST SWAP1 SWAP2 POP DUP4 DUP2 DUP2 RETURNDATASIZE DUP4 GT PUSH2 0xBB0 JUMPI JUMPDEST PUSH2 0xB97 DUP2 DUP4 PUSH2 0x1557 JUMP JUMPDEST DUP2 ADD SUB SLT PUSH2 0x6AC JUMPI MLOAD DUP2 DUP2 AND DUP2 SUB PUSH2 0x6AC JUMPI SWAP1 DUP9 PUSH2 0xA38 JUMP JUMPDEST POP RETURNDATASIZE PUSH2 0xB8D JUMP JUMPDEST POP DUP3 CALLVALUE PUSH2 0x416 JUMPI PUSH1 0x20 CALLDATASIZE PUSH1 0x3 NOT ADD SLT PUSH2 0x416 JUMPI PUSH1 0x60 SWAP2 PUSH1 0x1 PUSH1 0x1 PUSH1 0xA0 SHL SUB PUSH2 0xBDD PUSH2 0x14A8 JUMP JUMPDEST AND DUP2 MSTORE PUSH1 0x2 PUSH1 0x20 MSTORE DUP2 DUP2 KECCAK256 SLOAD SWAP2 DUP1 MLOAD SWAP3 DUP4 MSTORE DUP2 PUSH1 0x20 DUP5 ADD MSTORE DUP3 ADD MSTORE RETURN JUMPDEST POP DUP3 CALLVALUE PUSH2 0x416 JUMPI DUP2 PUSH1 0x3 NOT CALLDATASIZE ADD SLT PUSH2 0x416 JUMPI SWAP1 SLOAD SWAP1 MLOAD PUSH1 0x1 PUSH1 0x1 PUSH1 0xA0 SHL SUB SWAP1 SWAP2 AND DUP2 MSTORE PUSH1 0x20 SWAP1 RETURN JUMPDEST DUP4 DUP3 CALLVALUE PUSH2 0x9CD JUMPI DUP1 PUSH1 0x3 NOT CALLDATASIZE ADD SLT PUSH2 0x9CD JUMPI POP DUP1 MLOAD PUSH1 0x0 SWAP2 PUSH1 0x6 SLOAD PUSH2 0xC46 DUP2 PUSH2 0x14F3 JUMP JUMPDEST DUP1 DUP5 MSTORE SWAP1 PUSH1 0x1 SWAP1 DUP2 DUP2 AND SWAP1 DUP2 ISZERO PUSH2 0xCDC JUMPI POP PUSH1 0x1 EQ PUSH2 0xC7F JUMPI JUMPDEST POP POP PUSH2 0xC71 DUP3 PUSH2 0xC7B SWAP5 SUB DUP4 PUSH2 0x1557 JUMP JUMPDEST MLOAD SWAP2 DUP3 SWAP2 DUP3 PUSH2 0x1579 JUMP JUMPDEST SUB SWAP1 RETURN JUMPDEST PUSH1 0x6 PUSH1 0x0 SWAP1 DUP2 MSTORE SWAP5 POP PUSH32 0xF652222313E28459528D920B65115C16C04F3EFC82AAEDC97BE59F3F377C0D3F JUMPDEST DUP3 DUP7 LT PUSH2 0xCC4 JUMPI POP POP POP SWAP2 DUP2 ADD PUSH1 0x20 ADD SWAP2 PUSH2 0xC71 DUP3 PUSH2 0xC60 JUMP JUMPDEST DUP1 SLOAD PUSH1 0x20 DUP8 DUP8 ADD DUP2 ADD SWAP2 SWAP1 SWAP2 MSTORE SWAP1 SWAP6 ADD SWAP5 DUP2 ADD PUSH2 0xCAA JUMP JUMPDEST PUSH2 0xC7B SWAP7 POP DUP6 SWAP3 POP PUSH1 0x20 SWAP2 POP SWAP3 PUSH2 0xC71 SWAP4 PUSH1 0xFF NOT AND DUP3 DUP5 ADD MSTORE ISZERO ISZERO PUSH1 0x5 SHL DUP3 ADD ADD SWAP5 POP PUSH2 0xC60 JUMP JUMPDEST POP SWAP2 CALLVALUE PUSH2 0x288 JUMPI DUP1 PUSH1 0x3 NOT CALLDATASIZE ADD SLT PUSH2 0x288 JUMPI PUSH2 0xD1E PUSH2 0x14A8 JUMP JUMPDEST SWAP2 PUSH1 0x24 CALLDATALOAD SWAP3 PUSH2 0xD2B PUSH2 0x1625 JUMP JUMPDEST PUSH1 0x1 PUSH1 0x1 PUSH1 0xA0 SHL SUB AND SWAP2 DUP3 ISZERO PUSH2 0xD90 JUMPI SELFBALANCE DUP5 GT PUSH2 0xD56 JUMPI DUP5 PUSH2 0x3D9 DUP2 DUP1 DUP1 DUP1 DUP10 DUP10 GAS CALL PUSH2 0x3D3 PUSH2 0x179B JUMP JUMPDEST SWAP1 PUSH1 0x20 PUSH1 0x64 SWAP3 MLOAD SWAP2 PUSH3 0x461BCD PUSH1 0xE5 SHL DUP4 MSTORE DUP3 ADD MSTORE PUSH1 0x14 PUSH1 0x24 DUP3 ADD MSTORE PUSH20 0x496E73756666696369656E742062616C616E6365 PUSH1 0x60 SHL PUSH1 0x44 DUP3 ADD MSTORE REVERT JUMPDEST SWAP1 PUSH1 0x20 PUSH1 0x64 SWAP3 MLOAD SWAP2 PUSH3 0x461BCD PUSH1 0xE5 SHL DUP4 MSTORE DUP3 ADD MSTORE PUSH1 0x11 PUSH1 0x24 DUP3 ADD MSTORE PUSH17 0x125B9D985B1A59081C9958DA5C1A595B9D PUSH1 0x7A SHL PUSH1 0x44 DUP3 ADD MSTORE REVERT JUMPDEST POP CALLVALUE PUSH2 0x9CD JUMPI DUP1 PUSH1 0x3 NOT CALLDATASIZE ADD SLT PUSH2 0x9CD JUMPI PUSH2 0xDE0 PUSH2 0x1625 JUMP JUMPDEST PUSH1 0x0 DUP1 SLOAD PUSH1 0x1 PUSH1 0x1 PUSH1 0xA0 SHL SUB NOT DUP2 AND DUP3 SSTORE PUSH1 0x1 PUSH1 0x1 PUSH1 0xA0 SHL SUB AND PUSH32 0x8BE0079C531659141344CD1FD0A4F28419497F9722A3DAAFE3B4186F6B6457E0 DUP3 DUP1 LOG3 DUP1 RETURN JUMPDEST POP DUP3 CALLVALUE PUSH2 0x416 JUMPI DUP1 PUSH1 0x3 NOT CALLDATASIZE ADD SLT PUSH2 0x416 JUMPI PUSH2 0xE3B PUSH2 0x14A8 JUMP JUMPDEST PUSH1 0x1 PUSH1 0x1 PUSH1 0xA0 SHL SUB SWAP3 PUSH1 0x24 CALLDATALOAD DUP5 DUP2 AND SWAP3 SWAP2 SWAP1 DUP4 SWAP1 SUB PUSH2 0xE73 JUMPI PUSH1 0x20 SWAP5 DUP5 SWAP3 AND DUP2 MSTORE PUSH1 0x3 DUP6 MSTORE KECCAK256 SWAP1 PUSH1 0x0 MSTORE DUP3 MSTORE DUP1 PUSH1 0x0 KECCAK256 SLOAD SWAP1 MLOAD SWAP1 DUP2 MSTORE RETURN JUMPDEST PUSH1 0x0 DUP1 REVERT JUMPDEST POP DUP3 CALLVALUE PUSH2 0x416 JUMPI DUP1 PUSH1 0x3 NOT CALLDATASIZE ADD SLT PUSH2 0x416 JUMPI PUSH2 0xE92 PUSH2 0x14A8 JUMP JUMPDEST PUSH1 0x24 CALLDATALOAD SWAP4 PUSH2 0xE9E PUSH2 0x1625 JUMP JUMPDEST PUSH2 0xEA6 PUSH2 0x16A0 JUMP JUMPDEST PUSH2 0xEB1 DUP6 ISZERO ISZERO PUSH2 0x16F6 JUMP JUMPDEST SELFBALANCE DUP6 GT PUSH2 0xF9C JUMPI PUSH1 0x1 PUSH1 0x1 PUSH1 0xA0 SHL SUB SWAP2 DUP3 AND SWAP2 PUSH2 0xECF DUP4 ISZERO ISZERO PUSH2 0x1742 JUMP JUMPDEST DUP5 SLOAD AND DUP5 MSTORE PUSH1 0x2 PUSH1 0x20 MSTORE DUP3 DUP5 KECCAK256 PUSH2 0xEE7 DUP7 DUP3 SLOAD PUSH2 0x178E JUMP JUMPDEST SWAP1 SSTORE PUSH2 0xEF5 DUP6 PUSH1 0x7 SLOAD PUSH2 0x178E JUMP JUMPDEST PUSH1 0x7 SSTORE TIMESTAMP PUSH1 0x8 SSTORE DUP4 DUP1 DUP1 DUP1 DUP9 DUP7 GAS CALL PUSH2 0xF0C PUSH2 0x179B JUMP JUMPDEST POP ISZERO PUSH2 0xF63 JUMPI POP PUSH32 0x94B2DE810873337ED265C5F8CF98C9CFFEFA06B8607F9A2F1FBAEBDFBCFBEF1C PUSH1 0x20 PUSH1 0x0 DUP1 MLOAD PUSH1 0x20 PUSH2 0x1971 DUP4 CODECOPY DUP2 MLOAD SWAP2 MSTORE SWAP5 SWAP6 DUP5 MLOAD SWAP1 DUP2 MSTORE LOG2 PUSH1 0x7 SLOAD DUP2 MLOAD SWAP1 DUP2 MSTORE TIMESTAMP PUSH1 0x20 DUP3 ADD MSTORE LOG1 PUSH1 0x1 DUP1 SSTORE DUP1 RETURN JUMPDEST PUSH1 0x64 SWAP1 PUSH1 0x20 DUP5 MLOAD SWAP2 PUSH3 0x461BCD PUSH1 0xE5 SHL DUP4 MSTORE DUP3 ADD MSTORE PUSH1 0x13 PUSH1 0x24 DUP3 ADD MSTORE PUSH19 0x115512081D1C985B9CD9995C8819985A5B1959 PUSH1 0x6A SHL PUSH1 0x44 DUP3 ADD MSTORE REVERT JUMPDEST PUSH1 0x64 SWAP1 PUSH1 0x20 DUP5 MLOAD SWAP2 PUSH3 0x461BCD PUSH1 0xE5 SHL DUP4 MSTORE DUP3 ADD MSTORE PUSH1 0x18 PUSH1 0x24 DUP3 ADD MSTORE PUSH32 0x496E73756666696369656E74204554482062616C616E63650000000000000000 PUSH1 0x44 DUP3 ADD MSTORE REVERT JUMPDEST POP DUP3 CALLVALUE PUSH2 0x416 JUMPI DUP2 PUSH1 0x3 NOT CALLDATASIZE ADD SLT PUSH2 0x416 JUMPI PUSH1 0x7 SLOAD SWAP2 PUSH2 0x7D0 SWAP3 DUP4 DUP2 MUL SWAP4 DUP2 DUP6 DIV EQ SWAP1 ISZERO OR ISZERO PUSH2 0x1013 JUMPI PUSH1 0x20 DUP4 DUP4 MLOAD SWAP1 DUP2 MSTORE RETURN JUMPDEST PUSH4 0x4E487B71 PUSH1 0xE0 SHL DUP2 MSTORE PUSH1 0x11 DUP5 MSTORE PUSH1 0x24 SWAP1 REVERT JUMPDEST POP SWAP2 CALLVALUE PUSH2 0x288 JUMPI DUP1 PUSH1 0x3 NOT CALLDATASIZE ADD SLT PUSH2 0x288 JUMPI PUSH2 0x1040 PUSH2 0x14A8 JUMP JUMPDEST PUSH1 0x24 CALLDATALOAD SWAP1 PUSH2 0x104C PUSH2 0x16A0 JUMP JUMPDEST PUSH1 0x1 PUSH1 0x1 PUSH1 0xA0 SHL SUB AND SWAP1 PUSH2 0x1061 DUP3 ISZERO ISZERO PUSH2 0x17CB JUMP JUMPDEST PUSH2 0x106C DUP2 ISZERO ISZERO PUSH2 0x16F6 JUMP JUMPDEST DUP3 MLOAD PUSH4 0x23B872DD PUSH1 0xE0 SHL DUP2 MSTORE CALLER SWAP5 DUP2 ADD SWAP5 DUP6 MSTORE ADDRESS PUSH1 0x20 DUP7 DUP2 ADD SWAP2 SWAP1 SWAP2 MSTORE PUSH1 0x40 DUP7 ADD DUP4 SWAP1 MSTORE SWAP1 SWAP5 SWAP1 SWAP2 SWAP1 DUP3 SWAP1 DUP7 SWAP1 DUP2 SWAP1 PUSH1 0x60 ADD SUB DUP2 DUP10 DUP8 GAS CALL SWAP5 DUP6 ISZERO PUSH2 0x115B JUMPI PUSH1 0x0 DUP1 MLOAD PUSH1 0x20 PUSH2 0x1971 DUP4 CODECOPY DUP2 MLOAD SWAP2 MSTORE SWAP6 PUSH2 0x10CC SWAP2 DUP9 SWAP2 PUSH2 0x113E JUMPI JUMPDEST POP PUSH2 0x1827 JUMP JUMPDEST DUP3 DUP7 MSTORE PUSH1 0x3 DUP3 MSTORE DUP4 DUP7 KECCAK256 CALLER PUSH1 0x0 MSTORE DUP3 MSTORE DUP4 PUSH1 0x0 KECCAK256 PUSH2 0x10EB DUP3 DUP3 SLOAD PUSH2 0x167D JUMP JUMPDEST SWAP1 SSTORE PUSH2 0x10F9 DUP2 PUSH1 0x7 SLOAD PUSH2 0x167D JUMP JUMPDEST SWAP3 DUP4 PUSH1 0x7 SSTORE TIMESTAMP PUSH1 0x8 SSTORE DUP5 MLOAD SWAP2 DUP3 MSTORE PUSH32 0xF1444B5CAD7CE70CB018D1B8EDC8618FE303F3C7F034D8D572A6E27FACBF2BEF DUP4 CALLER SWAP4 LOG3 DUP3 MLOAD SWAP2 DUP3 MSTORE TIMESTAMP SWAP1 DUP3 ADD MSTORE LOG1 PUSH1 0x1 DUP1 SSTORE DUP1 RETURN JUMPDEST PUSH2 0x1155 SWAP2 POP DUP5 RETURNDATASIZE DUP7 GT PUSH2 0x403 JUMPI PUSH2 0x3F5 DUP2 DUP4 PUSH2 0x1557 JUMP JUMPDEST CODESIZE PUSH2 0x10C6 JUMP JUMPDEST DUP5 MLOAD RETURNDATASIZE DUP9 DUP3 RETURNDATACOPY RETURNDATASIZE SWAP1 REVERT JUMPDEST POP SWAP2 CALLVALUE PUSH2 0x288 JUMPI DUP3 PUSH2 0x1176 CALLDATASIZE PUSH2 0x14BE JUMP JUMPDEST SWAP2 PUSH2 0x117F PUSH2 0x1625 JUMP JUMPDEST PUSH1 0x1 PUSH1 0x1 PUSH1 0xA0 SHL SUB AND SWAP1 DUP2 EXTCODESIZE ISZERO PUSH2 0x9C9 JUMPI DUP5 MLOAD PUSH4 0x23B872DD PUSH1 0xE0 SHL DUP2 MSTORE ADDRESS SWAP7 DUP2 ADD SWAP7 DUP8 MSTORE PUSH1 0x1 PUSH1 0x1 PUSH1 0xA0 SHL SUB SWAP1 SWAP2 AND PUSH1 0x20 DUP8 ADD MSTORE PUSH1 0x40 DUP7 ADD SWAP3 SWAP1 SWAP3 MSTORE SWAP1 SWAP4 DUP5 SWAP2 SWAP1 DUP3 SWAP1 DUP5 SWAP1 DUP3 SWAP1 PUSH1 0x60 ADD SUB SWAP3 GAS CALL SWAP1 DUP2 ISZERO PUSH2 0x11E6 JUMPI POP PUSH2 0x11DD JUMPI POP DUP1 RETURN JUMPDEST PUSH2 0x3D9 SWAP1 PUSH2 0x152D JUMP JUMPDEST MLOAD RETURNDATASIZE DUP5 DUP3 RETURNDATACOPY RETURNDATASIZE SWAP1 REVERT JUMPDEST POP DUP3 CALLVALUE PUSH2 0x416 JUMPI DUP2 PUSH1 0x3 NOT CALLDATASIZE ADD SLT PUSH2 0x416 JUMPI DUP1 MLOAD SWAP1 DUP3 PUSH1 0x5 SLOAD PUSH2 0x1211 DUP2 PUSH2 0x14F3 JUMP JUMPDEST DUP1 DUP6 MSTORE SWAP2 PUSH1 0x1 SWAP2 DUP1 DUP4 AND SWAP1 DUP2 ISZERO PUSH2 0x129A JUMPI POP PUSH1 0x1 EQ PUSH2 0x123D JUMPI JUMPDEST POP POP POP PUSH2 0xC71 DUP3 PUSH2 0xC7B SWAP5 SUB DUP4 PUSH2 0x1557 JUMP JUMPDEST SWAP5 POP PUSH1 0x5 DUP6 MSTORE PUSH32 0x36B6384B5ECA791C62761152D0C79BB0604C104A5FB6F4EB0703F3154BB3DB0 JUMPDEST DUP3 DUP7 LT PUSH2 0x1282 JUMPI POP POP POP PUSH2 0xC71 DUP3 PUSH1 0x20 PUSH2 0xC7B SWAP6 DUP3 ADD ADD SWAP5 PUSH2 0x122B JUMP JUMPDEST DUP1 SLOAD PUSH1 0x20 DUP8 DUP8 ADD DUP2 ADD SWAP2 SWAP1 SWAP2 MSTORE SWAP1 SWAP6 ADD SWAP5 DUP2 ADD PUSH2 0x1265 JUMP JUMPDEST PUSH2 0xC7B SWAP8 POP DUP7 SWAP4 POP PUSH1 0x20 SWAP3 POP PUSH2 0xC71 SWAP5 SWAP2 POP PUSH1 0xFF NOT AND DUP3 DUP5 ADD MSTORE ISZERO ISZERO PUSH1 0x5 SHL DUP3 ADD ADD SWAP5 PUSH2 0x122B JUMP JUMPDEST POP SWAP2 CALLVALUE PUSH2 0x288 JUMPI PUSH2 0x12D2 CALLDATASIZE PUSH2 0x14BE JUMP JUMPDEST SWAP4 SWAP1 PUSH2 0x12DC PUSH2 0x1625 JUMP JUMPDEST PUSH2 0x12E4 PUSH2 0x16A0 JUMP JUMPDEST PUSH1 0x1 PUSH1 0x1 PUSH1 0xA0 SHL SUB SWAP3 DUP4 AND SWAP1 PUSH2 0x12FB DUP3 ISZERO ISZERO PUSH2 0x17CB JUMP JUMPDEST PUSH2 0x1306 DUP7 ISZERO ISZERO PUSH2 0x16F6 JUMP JUMPDEST DUP4 DUP2 AND SWAP3 PUSH2 0x1315 DUP5 ISZERO ISZERO PUSH2 0x1742 JUMP JUMPDEST DUP6 MLOAD PUSH4 0x70A08231 PUSH1 0xE0 SHL DUP2 MSTORE ADDRESS DUP3 DUP3 ADD MSTORE PUSH1 0x20 SWAP6 SWAP1 DUP7 DUP2 PUSH1 0x24 DUP2 DUP9 GAS STATICCALL SWAP1 DUP2 ISZERO PUSH2 0x149E JUMPI SWAP1 DUP10 SWAP2 DUP12 SWAP2 PUSH2 0x1469 JUMPI JUMPDEST POP LT PUSH2 0x1426 JUMPI SWAP2 DUP6 SWAP2 DUP9 SWAP4 DUP6 DUP12 MSTORE PUSH1 0x3 DUP5 MSTORE DUP9 DUP12 KECCAK256 SWAP1 DUP12 SLOAD AND DUP12 MSTORE DUP4 MSTORE DUP8 DUP11 KECCAK256 PUSH2 0x136E DUP6 DUP3 SLOAD PUSH2 0x178E JUMP JUMPDEST SWAP1 SSTORE PUSH2 0x137C DUP5 PUSH1 0x7 SLOAD PUSH2 0x178E JUMP JUMPDEST PUSH1 0x7 SSTORE TIMESTAMP PUSH1 0x8 SSTORE DUP8 MLOAD PUSH4 0xA9059CBB PUSH1 0xE0 SHL DUP2 MSTORE PUSH1 0x1 PUSH1 0x1 PUSH1 0xA0 SHL SUB SWAP1 SWAP3 AND SWAP1 DUP3 ADD SWAP1 DUP2 MSTORE PUSH1 0x20 DUP2 ADD SWAP4 SWAP1 SWAP4 MSTORE SWAP2 DUP3 SWAP1 DUP2 SWAP1 PUSH1 0x40 ADD SUB DUP2 DUP11 DUP7 GAS CALL SWAP1 DUP2 ISZERO PUSH2 0x141C JUMPI PUSH1 0x0 DUP1 MLOAD PUSH1 0x20 PUSH2 0x1971 DUP4 CODECOPY DUP2 MLOAD SWAP2 MSTORE SWAP7 PUSH2 0x1400 PUSH32 0x8210728E7C071F615B840EE026032693858FBCD5E5359E67E438C890F59E5620 SWAP4 DUP8 SWAP4 DUP12 SWAP2 PUSH2 0x113E JUMPI POP PUSH2 0x1827 JUMP JUMPDEST DUP7 MLOAD SWAP1 DUP2 MSTORE LOG3 PUSH1 0x7 SLOAD SWAP1 DUP3 MLOAD SWAP2 DUP3 MSTORE TIMESTAMP SWAP1 DUP3 ADD MSTORE LOG1 PUSH1 0x1 DUP1 SSTORE DUP1 RETURN JUMPDEST DUP6 MLOAD RETURNDATASIZE DUP10 DUP3 RETURNDATACOPY RETURNDATASIZE SWAP1 REVERT JUMPDEST DUP7 MLOAD PUSH3 0x461BCD PUSH1 0xE5 SHL DUP2 MSTORE DUP1 DUP4 ADD DUP8 SWAP1 MSTORE PUSH1 0x1A PUSH1 0x24 DUP3 ADD MSTORE PUSH32 0x496E73756666696369656E7420746F6B656E2062616C616E6365000000000000 PUSH1 0x44 DUP3 ADD MSTORE PUSH1 0x64 SWAP1 REVERT JUMPDEST DUP1 SWAP3 POP DUP9 DUP1 SWAP3 POP RETURNDATASIZE DUP4 GT PUSH2 0x1497 JUMPI JUMPDEST PUSH2 0x1482 DUP2 DUP4 PUSH2 0x1557 JUMP JUMPDEST DUP2 ADD SUB SLT PUSH2 0x1493 JUMPI DUP9 SWAP1 MLOAD CODESIZE PUSH2 0x1343 JUMP JUMPDEST DUP10 DUP1 REVERT JUMPDEST POP RETURNDATASIZE PUSH2 0x1478 JUMP JUMPDEST DUP9 MLOAD RETURNDATASIZE DUP13 DUP3 RETURNDATACOPY RETURNDATASIZE SWAP1 REVERT JUMPDEST PUSH1 0x4 CALLDATALOAD SWAP1 PUSH1 0x1 PUSH1 0x1 PUSH1 0xA0 SHL SUB DUP3 AND DUP3 SUB PUSH2 0xE73 JUMPI JUMP JUMPDEST PUSH1 0x60 SWAP1 PUSH1 0x3 NOT ADD SLT PUSH2 0xE73 JUMPI PUSH1 0x1 PUSH1 0x1 PUSH1 0xA0 SHL SUB SWAP1 PUSH1 0x4 CALLDATALOAD DUP3 DUP2 AND DUP2 SUB PUSH2 0xE73 JUMPI SWAP2 PUSH1 0x24 CALLDATALOAD SWAP1 DUP2 AND DUP2 SUB PUSH2 0xE73 JUMPI SWAP1 PUSH1 0x44 CALLDATALOAD SWAP1 JUMP JUMPDEST SWAP1 PUSH1 0x1 DUP3 DUP2 SHR SWAP3 AND DUP1 ISZERO PUSH2 0x1523 JUMPI JUMPDEST PUSH1 0x20 DUP4 LT EQ PUSH2 0x150D JUMPI JUMP JUMPDEST PUSH4 0x4E487B71 PUSH1 0xE0 SHL PUSH1 0x0 MSTORE PUSH1 0x22 PUSH1 0x4 MSTORE PUSH1 0x24 PUSH1 0x0 REVERT JUMPDEST SWAP2 PUSH1 0x7F AND SWAP2 PUSH2 0x1502 JUMP JUMPDEST PUSH8 0xFFFFFFFFFFFFFFFF DUP2 GT PUSH2 0x1541 JUMPI PUSH1 0x40 MSTORE JUMP JUMPDEST PUSH4 0x4E487B71 PUSH1 0xE0 SHL PUSH1 0x0 MSTORE PUSH1 0x41 PUSH1 0x4 MSTORE PUSH1 0x24 PUSH1 0x0 REVERT JUMPDEST SWAP1 PUSH1 0x1F DUP1 NOT SWAP2 ADD AND DUP2 ADD SWAP1 DUP2 LT PUSH8 0xFFFFFFFFFFFFFFFF DUP3 GT OR PUSH2 0x1541 JUMPI PUSH1 0x40 MSTORE JUMP JUMPDEST PUSH1 0x20 DUP1 DUP3 MSTORE DUP3 MLOAD DUP2 DUP4 ADD DUP2 SWAP1 MSTORE SWAP1 SWAP4 SWAP3 PUSH1 0x0 JUMPDEST DUP3 DUP2 LT PUSH2 0x15AE JUMPI POP POP PUSH1 0x40 SWAP3 SWAP4 POP PUSH1 0x0 DUP4 DUP3 DUP5 ADD ADD MSTORE PUSH1 0x1F DUP1 NOT SWAP2 ADD AND ADD ADD SWAP1 JUMP JUMPDEST DUP2 DUP2 ADD DUP7 ADD MLOAD DUP5 DUP3 ADD PUSH1 0x40 ADD MSTORE DUP6 ADD PUSH2 0x158C JUMP JUMPDEST PUSH8 0xFFFFFFFFFFFFFFFF DUP2 GT PUSH2 0x1541 JUMPI PUSH1 0x1F ADD PUSH1 0x1F NOT AND PUSH1 0x20 ADD SWAP1 JUMP JUMPDEST DUP2 PUSH1 0x1F DUP3 ADD SLT ISZERO PUSH2 0xE73 JUMPI DUP1 CALLDATALOAD SWAP1 PUSH2 0x15F5 DUP3 PUSH2 0x15C2 JUMP JUMPDEST SWAP3 PUSH2 0x1603 PUSH1 0x40 MLOAD SWAP5 DUP6 PUSH2 0x1557 JUMP JUMPDEST DUP3 DUP5 MSTORE PUSH1 0x20 DUP4 DUP4 ADD ADD GT PUSH2 0xE73 JUMPI DUP2 PUSH1 0x0 SWAP3 PUSH1 0x20 DUP1 SWAP4 ADD DUP4 DUP7 ADD CALLDATACOPY DUP4 ADD ADD MSTORE SWAP1 JUMP JUMPDEST PUSH1 0x0 SLOAD PUSH1 0x1 PUSH1 0x1 PUSH1 0xA0 SHL SUB AND CALLER SUB PUSH2 0x1639 JUMPI JUMP JUMPDEST PUSH1 0x64 PUSH1 0x40 MLOAD PUSH3 0x461BCD PUSH1 0xE5 SHL DUP2 MSTORE PUSH1 0x20 PUSH1 0x4 DUP3 ADD MSTORE PUSH1 0x20 PUSH1 0x24 DUP3 ADD MSTORE PUSH32 0x4F776E61626C653A2063616C6C6572206973206E6F7420746865206F776E6572 PUSH1 0x44 DUP3 ADD MSTORE REVERT JUMPDEST SWAP2 SWAP1 DUP3 ADD DUP1 SWAP3 GT PUSH2 0x168A JUMPI JUMP JUMPDEST PUSH4 0x4E487B71 PUSH1 0xE0 SHL PUSH1 0x0 MSTORE PUSH1 0x11 PUSH1 0x4 MSTORE PUSH1 0x24 PUSH1 0x0 REVERT JUMPDEST PUSH1 0x2 PUSH1 0x1 SLOAD EQ PUSH2 0x16B1 JUMPI PUSH1 0x2 PUSH1 0x1 SSTORE JUMP JUMPDEST PUSH1 0x40 MLOAD PUSH3 0x461BCD PUSH1 0xE5 SHL DUP2 MSTORE PUSH1 0x20 PUSH1 0x4 DUP3 ADD MSTORE PUSH1 0x1F PUSH1 0x24 DUP3 ADD MSTORE PUSH32 0x5265656E7472616E637947756172643A207265656E7472616E742063616C6C00 PUSH1 0x44 DUP3 ADD MSTORE PUSH1 0x64 SWAP1 REVERT JUMPDEST ISZERO PUSH2 0x16FD JUMPI JUMP JUMPDEST PUSH1 0x40 MLOAD PUSH3 0x461BCD PUSH1 0xE5 SHL DUP2 MSTORE PUSH1 0x20 PUSH1 0x4 DUP3 ADD MSTORE PUSH1 0x1D PUSH1 0x24 DUP3 ADD MSTORE PUSH32 0x416D6F756E74206D7573742062652067726561746572207468616E2030000000 PUSH1 0x44 DUP3 ADD MSTORE PUSH1 0x64 SWAP1 REVERT JUMPDEST ISZERO PUSH2 0x1749 JUMPI JUMP JUMPDEST PUSH1 0x40 MLOAD PUSH3 0x461BCD PUSH1 0xE5 SHL DUP2 MSTORE PUSH1 0x20 PUSH1 0x4 DUP3 ADD MSTORE PUSH1 0x19 PUSH1 0x24 DUP3 ADD MSTORE PUSH32 0x496E76616C696420726563697069656E74206164647265737300000000000000 PUSH1 0x44 DUP3 ADD MSTORE PUSH1 0x64 SWAP1 REVERT JUMPDEST SWAP2 SWAP1 DUP3 SUB SWAP2 DUP3 GT PUSH2 0x168A JUMPI JUMP JUMPDEST RETURNDATASIZE ISZERO PUSH2 0x17C6 JUMPI RETURNDATASIZE SWAP1 PUSH2 0x17AC DUP3 PUSH2 0x15C2 JUMP JUMPDEST SWAP2 PUSH2 0x17BA PUSH1 0x40 MLOAD SWAP4 DUP5 PUSH2 0x1557 JUMP JUMPDEST DUP3 MSTORE RETURNDATASIZE PUSH1 0x0 PUSH1 0x20 DUP5 ADD RETURNDATACOPY JUMP JUMPDEST PUSH1 0x60 SWAP1 JUMP JUMPDEST ISZERO PUSH2 0x17D2 JUMPI JUMP JUMPDEST PUSH1 0x40 MLOAD PUSH3 0x461BCD PUSH1 0xE5 SHL DUP2 MSTORE PUSH1 0x20 PUSH1 0x4 DUP3 ADD MSTORE PUSH1 0x15 PUSH1 0x24 DUP3 ADD MSTORE PUSH21 0x496E76616C696420746F6B656E2061646472657373 PUSH1 0x58 SHL PUSH1 0x44 DUP3 ADD MSTORE PUSH1 0x64 SWAP1 REVERT JUMPDEST SWAP1 DUP2 PUSH1 0x20 SWAP2 SUB SLT PUSH2 0xE73 JUMPI MLOAD DUP1 ISZERO ISZERO DUP2 SUB PUSH2 0xE73 JUMPI SWAP1 JUMP JUMPDEST ISZERO PUSH2 0x182E JUMPI JUMP JUMPDEST PUSH1 0x40 MLOAD PUSH3 0x461BCD PUSH1 0xE5 SHL DUP2 MSTORE PUSH1 0x20 PUSH1 0x4 DUP3 ADD MSTORE PUSH1 0x15 PUSH1 0x24 DUP3 ADD MSTORE PUSH21 0x151BDAD95B881D1C985B9CD9995C8819985A5B1959 PUSH1 0x5A SHL PUSH1 0x44 DUP3 ADD MSTORE PUSH1 0x64 SWAP1 REVERT JUMPDEST ISZERO PUSH2 0x1872 JUMPI JUMP JUMPDEST PUSH1 0x40 MLOAD PUSH3 0x461BCD PUSH1 0xE5 SHL DUP2 MSTORE PUSH1 0x20 PUSH1 0x4 DUP3 ADD MSTORE PUSH1 0x13 PUSH1 0x24 DUP3 ADD MSTORE PUSH19 0x496E76616C6964204E46542061646472657373 PUSH1 0x68 SHL PUSH1 0x44 DUP3 ADD MSTORE PUSH1 0x64 SWAP1 REVERT JUMPDEST PUSH1 0x1 PUSH1 0x1 PUSH1 0xA0 SHL SUB AND DUP1 PUSH2 0x18C2 JUMPI POP SELFBALANCE LT ISZERO SWAP1 JUMP JUMPDEST PUSH1 0x20 PUSH1 0x24 SWAP2 PUSH1 0x40 MLOAD SWAP3 DUP4 DUP1 SWAP3 PUSH4 0x70A08231 PUSH1 0xE0 SHL DUP3 MSTORE ADDRESS PUSH1 0x4 DUP4 ADD MSTORE GAS STATICCALL SWAP1 DUP2 ISZERO PUSH2 0x1926 JUMPI PUSH1 0x0 SWAP2 PUSH2 0x18F5 JUMPI JUMPDEST POP LT ISZERO SWAP1 JUMP JUMPDEST SWAP1 PUSH1 0x20 DUP3 RETURNDATASIZE DUP3 GT PUSH2 0x191E JUMPI JUMPDEST DUP2 PUSH2 0x190E PUSH1 0x20 SWAP4 DUP4 PUSH2 0x1557 JUMP JUMPDEST DUP2 ADD SUB SLT PUSH2 0x9CD JUMPI POP MLOAD CODESIZE PUSH2 0x18EF JUMP JUMPDEST RETURNDATASIZE SWAP2 POP PUSH2 0x1901 JUMP JUMPDEST PUSH1 0x40 MLOAD RETURNDATASIZE PUSH1 0x0 DUP3 RETURNDATACOPY RETURNDATASIZE SWAP1 REVERT JUMPDEST ISZERO PUSH2 0x1939 JUMPI JUMP JUMPDEST PUSH1 0x40 MLOAD PUSH3 0x461BCD PUSH1 0xE5 SHL DUP2 MSTORE PUSH1 0x20 PUSH1 0x4 DUP3 ADD MSTORE PUSH1 0xF PUSH1 0x24 DUP3 ADD MSTORE PUSH15 0x151C985B9CD9995C8819985A5B1959 PUSH1 0x8A SHL PUSH1 0x44 DUP3 ADD MSTORE PUSH1 0x64 SWAP1 REVERT INVALID BLOCKHASH PUSH19 0x73B7DC7179E97B93CA77CCA640253DCDE7BF98 SWAP5 0xA9 DUP10 0xAD SWAP5 0xA9 0xEB 0xEF PUSH15 0x9465A2646970667358221220991BE5 GASLIMIT 0xCA SAR PUSH12 0x2CEAEEDC95D44588263BDC94 PUSH29 0xF8F675694AA9F3C4F4C6176664736F6C63430008130033000000000000 "},"methodIdentifiers":{"depositETH()":"f6326fb3","depositNFT(address,uint256)":"9b5b9b18","depositToken(address,uint256)":"338b5dea","description()":"7284e416","emergencyRecoverETH(address,uint256)":"71d277e7","emergencyRecoverNFT(address,address,uint256)":"33760d87","emergencyRecoverTokens(address,address,uint256)":"e110976f","ethBalance(address)":"d8f3790f","getAccountBalance(address)":"93423e9c","getTreasuryStats()":"c8692e3f","getTreasuryValueUSD()":"4613f291","hasSufficientBalance(address,uint256)":"d5395d2b","lastUpdated()":"d0b06f5d","name()":"06fdde03","nftBalances(address,uint256)":"d3df304e","owner()":"8da5cb5b","renounceOwnership()":"715018a6","tokenBalances(address,address)":"4dbf6c5a","totalValue()":"d4c3eea0","transferOwnership(address)":"f2fde38b","updateTreasuryInfo(string,string)":"b4b649e8","withdrawETH(address,uint256)":"4782f779","withdrawNFT(address,address,uint256)":"bff863ec","withdrawToken(address,address,uint256)":"01e33667"}}}}}