{"contracts/ReservedSubdomains.sol":{"ReservedSubdomains":{"abi":[{"inputs":[],"stateMutability":"nonpayable","type":"constructor"},{"anonymous":false,"inputs":[{"indexed":true,"internalType":"string","name":"subdomain","type":"string"},{"indexed":true,"internalType":"bytes32","name":"dataHash","type":"bytes32"},{"indexed":true,"internalType":"address","name":"dataProvider","type":"address"}],"name":"CCIPDataStored","type":"event"},{"anonymous":false,"inputs":[{"indexed":true,"internalType":"address","name":"previousOwner","type":"address"},{"indexed":true,"internalType":"address","name":"newOwner","type":"address"}],"name":"OwnershipTransferred","type":"event"},{"anonymous":false,"inputs":[{"indexed":true,"internalType":"string","name":"subdomain","type":"string"},{"indexed":false,"internalType":"string","name":"role","type":"string"},{"indexed":true,"internalType":"address","name":"addedBy","type":"address"}],"name":"RoleAdded","type":"event"},{"anonymous":false,"inputs":[{"indexed":true,"internalType":"string","name":"subdomain","type":"string"},{"indexed":false,"internalType":"string","name":"role","type":"string"},{"indexed":true,"internalType":"address","name":"removedBy","type":"address"}],"name":"RoleRemoved","type":"event"},{"anonymous":false,"inputs":[{"indexed":true,"internalType":"string","name":"subdomain","type":"string"},{"indexed":false,"internalType":"enum ReservedSubdomains.SchemaPriority","name":"priority","type":"uint8"},{"indexed":false,"internalType":"string","name":"category","type":"string"},{"indexed":false,"internalType":"string","name":"version","type":"string"},{"indexed":true,"internalType":"address","name":"definedBy","type":"address"}],"name":"SchemaDefined","type":"event"},{"anonymous":false,"inputs":[{"indexed":true,"internalType":"string","name":"subdomain","type":"string"},{"indexed":false,"internalType":"string","name":"version","type":"string"},{"indexed":true,"internalType":"address","name":"deprecatedBy","type":"address"}],"name":"SchemaDeprecated","type":"event"},{"anonymous":false,"inputs":[{"indexed":true,"internalType":"string","name":"subdomain","type":"string"},{"indexed":false,"internalType":"string","name":"oldVersion","type":"string"},{"indexed":false,"internalType":"string","name":"newVersion","type":"string"},{"indexed":true,"internalType":"address","name":"updatedBy","type":"address"}],"name":"SchemaUpdated","type":"event"},{"inputs":[{"internalType":"address","name":"admin","type":"address"}],"name":"addAdministrator","outputs":[],"stateMutability":"nonpayable","type":"function"},{"inputs":[{"internalType":"address","name":"provider","type":"address"}],"name":"addDataProvider","outputs":[],"stateMutability":"nonpayable","type":"function"},{"inputs":[{"internalType":"address","name":"moderator","type":"address"}],"name":"addModerator","outputs":[],"stateMutability":"nonpayable","type":"function"},{"inputs":[{"internalType":"string","name":"subdomain","type":"string"},{"internalType":"enum ReservedSubdomains.SchemaPriority","name":"priority","type":"uint8"},{"internalType":"string","name":"category","type":"string"},{"internalType":"string","name":"description","type":"string"},{"internalType":"string","name":"version","type":"string"},{"internalType":"string","name":"ccipInterface","type":"string"},{"components":[{"internalType":"string","name":"fieldName","type":"string"},{"internalType":"enum ReservedSubdomains.DataType","name":"dataType","type":"uint8"},{"internalType":"bool","name":"required","type":"bool"},{"internalType":"string","name":"description","type":"string"},{"internalType":"string","name":"validationRule","type":"string"},{"internalType":"string","name":"defaultValue","type":"string"}],"internalType":"struct ReservedSubdomains.SchemaField[]","name":"fields","type":"tuple[]"},{"internalType":"string[]","name":"allowedRoles","type":"string[]"},{"internalType":"string[]","name":"restrictions","type":"string[]"},{"internalType":"string","name":"apiEndpoint","type":"string"},{"internalType":"string","name":"documentationUrl","type":"string"}],"name":"addSchema","outputs":[],"stateMutability":"nonpayable","type":"function"},{"inputs":[{"internalType":"address","name":"","type":"address"}],"name":"administrators","outputs":[{"internalType":"bool","name":"","type":"bool"}],"stateMutability":"view","type":"function"},{"inputs":[{"internalType":"string","name":"","type":"string"},{"internalType":"bytes32","name":"","type":"bytes32"}],"name":"ccipData","outputs":[{"internalType":"string","name":"subdomain","type":"string"},{"internalType":"string","name":"schemaVersion","type":"string"},{"internalType":"bytes32","name":"dataHash","type":"bytes32"},{"internalType":"uint256","name":"timestamp","type":"uint256"},{"internalType":"address","name":"dataProvider","type":"address"},{"internalType":"bool","name":"isValid","type":"bool"}],"stateMutability":"view","type":"function"},{"inputs":[{"internalType":"address","name":"","type":"address"}],"name":"dataProviders","outputs":[{"internalType":"bool","name":"","type":"bool"}],"stateMutability":"view","type":"function"},{"inputs":[{"internalType":"string","name":"subdomain","type":"string"},{"internalType":"enum ReservedSubdomains.SchemaPriority","name":"priority","type":"uint8"},{"internalType":"string","name":"category","type":"string"},{"internalType":"string","name":"description","type":"string"},{"internalType":"string","name":"version","type":"string"},{"internalType":"string","name":"ccipInterface","type":"string"},{"components":[{"internalType":"string","name":"fieldName","type":"string"},{"internalType":"enum ReservedSubdomains.DataType","name":"dataType","type":"uint8"},{"internalType":"bool","name":"required","type":"bool"},{"internalType":"string","name":"description","type":"string"},{"internalType":"string","name":"validationRule","type":"string"},{"internalType":"string","name":"defaultValue","type":"string"}],"internalType":"struct ReservedSubdomains.SchemaField[]","name":"fields","type":"tuple[]"},{"internalType":"string[]","name":"allowedRoles","type":"string[]"},{"internalType":"string[]","name":"restrictions","type":"string[]"},{"internalType":"string","name":"apiEndpoint","type":"string"},{"internalType":"string","name":"documentationUrl","type":"string"}],"name":"defineSchema","outputs":[],"stateMutability":"nonpayable","type":"function"},{"inputs":[],"name":"emergencyPause","outputs":[],"stateMutability":"nonpayable","type":"function"},{"inputs":[],"name":"emergencyUnpause","outputs":[],"stateMutability":"nonpayable","type":"function"},{"inputs":[{"internalType":"string","name":"subdomain","type":"string"},{"internalType":"bytes32","name":"dataHash","type":"bytes32"}],"name":"getCCIPData","outputs":[{"components":[{"internalType":"string","name":"subdomain","type":"string"},{"internalType":"string","name":"schemaVersion","type":"string"},{"internalType":"bytes32","name":"dataHash","type":"bytes32"},{"internalType":"uint256","name":"timestamp","type":"uint256"},{"internalType":"address","name":"dataProvider","type":"address"},{"internalType":"bool","name":"isValid","type":"bool"},{"internalType":"string[]","name":"fieldNames","type":"string[]"},{"internalType":"bytes[]","name":"fieldValues","type":"bytes[]"}],"internalType":"struct ReservedSubdomains.CCIPData","name":"","type":"tuple"}],"stateMutability":"view","type":"function"},{"inputs":[{"internalType":"string","name":"subdomain","type":"string"}],"name":"getSchema","outputs":[{"components":[{"internalType":"string","name":"subdomain","type":"string"},{"internalType":"enum ReservedSubdomains.SchemaPriority","name":"priority","type":"uint8"},{"internalType":"string","name":"category","type":"string"},{"internalType":"string","name":"description","type":"string"},{"internalType":"string","name":"version","type":"string"},{"internalType":"string","name":"ccipInterface","type":"string"},{"components":[{"internalType":"string","name":"fieldName","type":"string"},{"internalType":"enum ReservedSubdomains.DataType","name":"dataType","type":"uint8"},{"internalType":"bool","name":"required","type":"bool"},{"internalType":"string","name":"description","type":"string"},{"internalType":"string","name":"validationRule","type":"string"},{"internalType":"string","name":"defaultValue","type":"string"}],"internalType":"struct ReservedSubdomains.SchemaField[]","name":"fields","type":"tuple[]"},{"internalType":"string[]","name":"allowedRoles","type":"string[]"},{"internalType":"string[]","name":"restrictions","type":"string[]"},{"internalType":"bool","name":"active","type":"bool"},{"internalType":"uint256","name":"createdAt","type":"uint256"},{"internalType":"uint256","name":"updatedAt","type":"uint256"},{"internalType":"string","name":"apiEndpoint","type":"string"},{"internalType":"string","name":"documentationUrl","type":"string"}],"internalType":"struct ReservedSubdomains.ReservedSubdomainSchema","name":"","type":"tuple"}],"stateMutability":"view","type":"function"},{"inputs":[{"internalType":"string","name":"subdomain","type":"string"},{"internalType":"string","name":"fieldName","type":"string"}],"name":"getSchemaField","outputs":[{"components":[{"internalType":"string","name":"fieldName","type":"string"},{"internalType":"enum ReservedSubdomains.DataType","name":"dataType","type":"uint8"},{"internalType":"bool","name":"required","type":"bool"},{"internalType":"string","name":"description","type":"string"},{"internalType":"string","name":"validationRule","type":"string"},{"internalType":"string","name":"defaultValue","type":"string"}],"internalType":"struct ReservedSubdomains.SchemaField","name":"","type":"tuple"}],"stateMutability":"view","type":"function"},{"inputs":[{"internalType":"string","name":"subdomain","type":"string"}],"name":"getSchemaPriority","outputs":[{"internalType":"enum ReservedSubdomains.SchemaPriority","name":"","type":"uint8"}],"stateMutability":"view","type":"function"},{"inputs":[{"internalType":"string","name":"subdomain","type":"string"}],"name":"getSchemaValidationRules","outputs":[{"internalType":"string[]","name":"fieldNames","type":"string[]"},{"internalType":"string[]","name":"validationRules","type":"string[]"}],"stateMutability":"view","type":"function"},{"inputs":[{"internalType":"string","name":"category","type":"string"}],"name":"getSchemasByCategory","outputs":[{"internalType":"string[]","name":"","type":"string[]"}],"stateMutability":"view","type":"function"},{"inputs":[{"internalType":"enum ReservedSubdomains.SchemaPriority","name":"priority","type":"uint8"}],"name":"getSchemasByPriority","outputs":[{"internalType":"string[]","name":"","type":"string[]"}],"stateMutability":"view","type":"function"},{"inputs":[],"name":"getStatistics","outputs":[{"internalType":"uint256","name":"total","type":"uint256"},{"internalType":"uint256","name":"critical","type":"uint256"},{"internalType":"uint256","name":"high","type":"uint256"},{"internalType":"uint256","name":"medium","type":"uint256"},{"internalType":"uint256","name":"low","type":"uint256"}],"stateMutability":"view","type":"function"},{"inputs":[{"internalType":"string","name":"subdomain","type":"string"}],"name":"getSubdomainDataHashes","outputs":[{"internalType":"bytes32[]","name":"","type":"bytes32[]"}],"stateMutability":"view","type":"function"},{"inputs":[{"internalType":"string","name":"","type":"string"}],"name":"hasSchema","outputs":[{"internalType":"bool","name":"","type":"bool"}],"stateMutability":"view","type":"function"},{"inputs":[{"internalType":"string","name":"subdomain","type":"string"},{"internalType":"string","name":"fieldName","type":"string"}],"name":"hasSchemaField","outputs":[{"internalType":"bool","name":"","type":"bool"}],"stateMutability":"view","type":"function"},{"inputs":[{"internalType":"string","name":"subdomain","type":"string"}],"name":"hasSubdomainSchema","outputs":[{"internalType":"bool","name":"","type":"bool"}],"stateMutability":"view","type":"function"},{"inputs":[{"internalType":"address","name":"addr","type":"address"}],"name":"isAdministrator","outputs":[{"internalType":"bool","name":"","type":"bool"}],"stateMutability":"view","type":"function"},{"inputs":[{"internalType":"address","name":"addr","type":"address"}],"name":"isDataProvider","outputs":[{"internalType":"bool","name":"","type":"bool"}],"stateMutability":"view","type":"function"},{"inputs":[{"internalType":"address","name":"addr","type":"address"}],"name":"isModerator","outputs":[{"internalType":"bool","name":"","type":"bool"}],"stateMutability":"view","type":"function"},{"inputs":[{"internalType":"address","name":"","type":"address"}],"name":"moderators","outputs":[{"internalType":"bool","name":"","type":"bool"}],"stateMutability":"view","type":"function"},{"inputs":[],"name":"owner","outputs":[{"internalType":"address","name":"","type":"address"}],"stateMutability":"view","type":"function"},{"inputs":[{"internalType":"address","name":"admin","type":"address"}],"name":"removeAdministrator","outputs":[],"stateMutability":"nonpayable","type":"function"},{"inputs":[{"internalType":"address","name":"provider","type":"address"}],"name":"removeDataProvider","outputs":[],"stateMutability":"nonpayable","type":"function"},{"inputs":[{"internalType":"address","name":"moderator","type":"address"}],"name":"removeModerator","outputs":[],"stateMutability":"nonpayable","type":"function"},{"inputs":[{"internalType":"string","name":"subdomain","type":"string"}],"name":"removeSchema","outputs":[],"stateMutability":"nonpayable","type":"function"},{"inputs":[],"name":"renounceOwnership","outputs":[],"stateMutability":"nonpayable","type":"function"},{"inputs":[{"internalType":"string","name":"","type":"string"},{"internalType":"uint256","name":"","type":"uint256"}],"name":"schemaCategories","outputs":[{"internalType":"string","name":"","type":"string"}],"stateMutability":"view","type":"function"},{"inputs":[{"internalType":"string","name":"","type":"string"}],"name":"schemaPriority","outputs":[{"internalType":"enum ReservedSubdomains.SchemaPriority","name":"","type":"uint8"}],"stateMutability":"view","type":"function"},{"inputs":[{"internalType":"string","name":"","type":"string"}],"name":"schemasByCategory","outputs":[{"internalType":"uint256","name":"","type":"uint256"}],"stateMutability":"view","type":"function"},{"inputs":[{"internalType":"enum ReservedSubdomains.SchemaPriority","name":"","type":"uint8"}],"name":"schemasByPriority","outputs":[{"internalType":"uint256","name":"","type":"uint256"}],"stateMutability":"view","type":"function"},{"inputs":[{"internalType":"string","name":"subdomain","type":"string"},{"internalType":"string","name":"schemaVersion","type":"string"},{"internalType":"string[]","name":"fieldNames","type":"string[]"},{"internalType":"bytes[]","name":"fieldValues","type":"bytes[]"}],"name":"storeCCIPData","outputs":[],"stateMutability":"nonpayable","type":"function"},{"inputs":[{"internalType":"string","name":"","type":"string"},{"internalType":"uint256","name":"","type":"uint256"}],"name":"subdomainDataHashes","outputs":[{"internalType":"bytes32","name":"","type":"bytes32"}],"stateMutability":"view","type":"function"},{"inputs":[{"internalType":"string","name":"","type":"string"}],"name":"subdomainSchemas","outputs":[{"internalType":"string","name":"subdomain","type":"string"},{"internalType":"enum ReservedSubdomains.SchemaPriority","name":"priority","type":"uint8"},{"internalType":"string","name":"category","type":"string"},{"internalType":"string","name":"description","type":"string"},{"internalType":"string","name":"version","type":"string"},{"internalType":"string","name":"ccipInterface","type":"string"},{"internalType":"bool","name":"active","type":"bool"},{"internalType":"uint256","name":"createdAt","type":"uint256"},{"internalType":"uint256","name":"updatedAt","type":"uint256"},{"internalType":"string","name":"apiEndpoint","type":"string"},{"internalType":"string","name":"documentationUrl","type":"string"}],"stateMutability":"view","type":"function"},{"inputs":[],"name":"totalSchemas","outputs":[{"internalType":"uint256","name":"","type":"uint256"}],"stateMutability":"view","type":"function"},{"inputs":[{"internalType":"address","name":"newOwner","type":"address"}],"name":"transferOwnership","outputs":[],"stateMutability":"nonpayable","type":"function"},{"inputs":[{"internalType":"string","name":"subdomain","type":"string"},{"internalType":"enum ReservedSubdomains.SchemaPriority","name":"priority","type":"uint8"},{"internalType":"string","name":"category","type":"string"},{"internalType":"string","name":"description","type":"string"},{"internalType":"string","name":"newVersion","type":"string"},{"internalType":"string","name":"ccipInterface","type":"string"},{"components":[{"internalType":"string","name":"fieldName","type":"string"},{"internalType":"enum ReservedSubdomains.DataType","name":"dataType","type":"uint8"},{"internalType":"bool","name":"required","type":"bool"},{"internalType":"string","name":"description","type":"string"},{"internalType":"string","name":"validationRule","type":"string"},{"internalType":"string","name":"defaultValue","type":"string"}],"internalType":"struct ReservedSubdomains.SchemaField[]","name":"fields","type":"tuple[]"},{"internalType":"string[]","name":"allowedRoles","type":"string[]"},{"internalType":"string[]","name":"restrictions","type":"string[]"},{"internalType":"string","name":"apiEndpoint","type":"string"},{"internalType":"string","name":"documentationUrl","type":"string"}],"name":"updateSchema","outputs":[],"stateMutability":"nonpayable","type":"function"}],"evm":{"bytecode":{"linkReferences":{},"object":"346300006bb65760008054336001600160a01b0319821681178355916001600160a01b03909116907f8be0079c531659141344cd1fd0a4f28419497f9722a3daafe3b4186f6b6457e09080a3600180556101a0604052600860805260005b61010081106300006b755763000000746300006bbb565b63000000806300006bfe565b600d81526c1c1c9bdc1bdcd85b10dbdd5b9d609a1b60208201528152600160208201526001604082015263000000b66300006bfe565b601981527f546f74616c206e756d626572206f662070726f706f73616c73000000000000006020820152606082015263000000f16300006bfe565b600481526303e3d20360e41b6020820152608082015263000001136300006bfe565b60018152600360fc1b602082015260a0820152630000013460806300006c61565b52630000014360806300006c61565b5063000001506300006bbb565b630000015c6300006bfe565b600f81526e61637469766550726f706f73616c7360881b60208201528152600160208201526001604082015263000001946300006bfe565b601a81527f4e756d626572206f66206163746976652070726f706f73616c730000000000006020820152606082015263000001cf6300006bfe565b600481526303e3d20360e41b6020820152608082015263000001f16300006bfe565b60018152600360fc1b602082015260a0820152630000021260806300006c86565b52630000022160806300006c86565b50630000022e6300006bbb565b630000023a6300006bfe565b600c81526b1d9bdd1a5b99d4195c9a5bd960a21b602082015281526001602082015260016040820152630000026f6300006bfe565b601881527f566f74696e6720706572696f6420696e207365636f6e647300000000000000006020820152606082015263000002aa6300006bfe565b600381526203e20360ec1b6020820152608082015263000002cb6300006bfe565b600681526503630343830360d41b602082015260a082015263000002f160806300006c98565b52630000030060806300006c98565b50630000030d6300006bbb565b63000003196300006bfe565b600681526571756f72756d60d01b60208201528152600160208201526001604082015263000003486300006c1f565b602181527f4d696e696d756d20766f74657320726571756972656420666f722071756f72756020820152606d60f81b60408201526060820152630000038d6300006bfe565b600381526203e20360ec1b6020820152608082015263000003ae6300006bfe565b60048152630313030360e41b602082015260a082015263000003d260806300006caa565b5263000003e160806300006caa565b5063000003ee6300006bbb565b63000003fa6300006bfe565b60118152701c1c9bdc1bdcd85b151a1c995cda1bdb19607a1b60208201528152600160208201526001604082015263000004346300006c1f565b602a81527f4d696e696d756d20746f6b656e7320726571756972656420746f20637265617460208201526919481c1c9bdc1bdcd85b60b21b6040820152606082015263000004826300006bfe565b600481526303e3d20360e41b6020820152608082015263000004a46300006bfe565b600381526203130360ec1b602082015260a082015263000004c760806300006cbc565b5263000004d660806300006cbc565b5063000004e36300006bbb565b63000004ef6300006bfe565b600f81526e33b7bb32b93730b731b2aa37b5b2b760891b60208201528152600260208201526001604082015263000005276300006c1f565b602181527f476f7665726e616e636520746f6b656e20636f6e7472616374206164647265736020820152607360f81b60408201526060820152630000056c6300006bfe565b601081526f6e6f6e2d7a65726f206164647265737360801b60208201526080820152630000059a6300006d05565b60a082015263000005ad60806300006cce565b5263000005bc60806300006cce565b5063000005c96300006bbb565b63000005d56300006bfe565b600881526732bc32b1baba37b960c11b60208201528152600260208201526001604082015263000006066300006c1f565b602281527f50726f706f73616c206578656375746f7220636f6e7472616374206164647265602082015261737360f01b60408201526060820152630000064c6300006bfe565b601081526f6e6f6e2d7a65726f206164647265737360801b60208201526080820152630000067a6300006d05565b60a0820152630000068d60806300006ce0565b52630000069c60806300006ce0565b5063000006a96300006bbb565b63000006b56300006bfe565b600881526774696d656c6f636b60c01b60208201528152600260208201526000604082015263000006e66300006bfe565b601981527f54696d656c6f636b20636f6e74726163742061646472657373000000000000006020820152606082015263000007216300006bfe565b601081526f6f7074696f6e616c206164647265737360801b60208201526080820152630000074f6300006d05565b60a0820152630000076260806300006cf2565b52630000077160806300006cf2565b50630000077e6300006d51565b630000078a6300006e6f565b63000007966300006bfe565b600a815269676f7665726e616e636560b01b602082015263000007b96300006bfe565b9160138352600080516020630000b55a833981519152602084015263000007e06300006c1f565b90603082527f476f7665726e616e63652073797374656d20736368656d6120666f722044414f60208301526f206465636973696f6e2d6d616b696e6760801b604083015263000008306300006bfe565b9460058652640312e302e360dc1b6020870152630000084f6300006bfe565b91600b83526a49476f7665726e616e636560a81b602084015263000008746300006bfe565b9160128352712f6170692f76312f676f7665726e616e636560701b602084015263000008a06300006c1f565b9360308552600080516020630000b53a83398151915260208601526f68656d61732f676f7665726e616e636560801b604086015286511563000041065760ff6040516020818163000008fa8c838151938492016300006f07565b600381830152810103019020541663000040c157630000091a6300006bdc565b9587875260006020880152886040880152606087015288608087015260a0860152608060c086015260e0850152610100840152600161012084015242610140840152426101608401526101808301526101a08201526040516020818451630000098881838589016300006f07565b8101600281520301902090805180519060018060401b038211630000336b57819063000009b785546300006f2e565b601f81116300006b3b575b50602090601f83116001146300006ac5576000926300006ab8575b50508160011b916000199060031b1c19161782555b602081015160048110156300003b6e576300000a1390600184016300006f89565b60408101518051906001600160401b038211630000336b5781906300000a3e60028601546300006f2e565b601f81116300006a7b575b50602090601f831160011463000069ff5760009263000069f2575b50508160011b916000199060031b1c19161760028301555b60608101518051906001600160401b038211630000336b5781906300000aa760038601546300006f2e565b601f811163000069b5575b50602090601f8311600114630000693957600092630000692c575b50508160011b916000199060031b1c19161760038301555b60808101518051906001600160401b038211630000336b5781906300000b1060048601546300006f2e565b601f811163000068ef575b50602090601f83116001146300006873576000926300006866575b50508160011b916000199060031b1c19161760048301555b60a08101518051906001600160401b038211630000336b5781906300000b7960058601546300006f2e565b601f81116300006829575b50602090601f831160011463000067ad5760009263000067a0575b50508160011b916000199060031b1c19161760058301555b60c0810151805190680100000000000000008211630000336b576006840154826006860155808310630000670b575b5060200190600684016000526020600020916000905b8282106300006211575050505060e0810151805190680100000000000000008211630000336b57600784015482600786015580831063000061d4575b5060200190600784016000526020600020916000905b828210630000609d5750505050610100810151805190680100000000000000008211630000336b5760088401548260088601558083106300006060575b5060200190600884016000526020600020916000905b8282106300005f2957505050506300000cd06101208201511515600984019060ff801983541691151516179055565b610140810151600a830155610160810151600b8301556101808101518051906001600160401b038211630000336b576300000d10600c8501546300006f2e565b601f81116300005eec575b50602090601f83116001146300005e6e576101a0939291600091836300005e61575b50508160011b916000199060031b1c191617600c8401555b01518051906001600160401b038211630000336b576300000d7b600d8401546300006f2e565b601f81116300005e24575b50602090601f83116001146300005da95792600d836300000ec994600080516020630000b57a83398151915297946300000ef197600092630000327d575b50508160011b916000199060031b1c1916179101555b60405160208183516300000df381838588016300006f07565b81016003815203019020600160ff1982541617905560405160208183516300000e2181838588016300006f07565b8101600481520301902060ff1981541690556300000e42600b546300006ff8565b600b5560008052600c6020527f13649b2456f1b42fef0f0040b3aaeabcd21a76a0f3f5defd4f583839455116e880546300000e7e906300006ff8565b905560405160208187516300000e998183858c016300006f07565b8101600d8152030190206300000eb181546300006ff8565b90556020604051928284809451938492016300006f07565b8101039020926300000f02604051928392600084526060602085015260608401906300007009565b828103604084015233966300007009565b0390a36040516001600160401b0360e0820190811190821117630000336b5760e081016040526006815260005b60c081106300005d6757506300000f466300006bbb565b6300000f526300006bfe565b600c81526b746f74616c42616c616e636560a01b6020820152815260016020820152600160408201526300000f876300006bfe565b601d81527f546f74616c2074726561737572792062616c616e636520696e20776569000000602082015260608201526300000fc26300006bfe565b600481526303e3d20360e41b602082015260808201526300000fe46300006bfe565b60018152600360fc1b602082015260a08201526300001004826300006c61565b526300001012816300006c61565b50630000101f6300006bbb565b630000102b6300006bfe565b600a81526965746842616c616e636560b01b602082015281526001602082015260016040820152630000105e6300006bfe565b60128152714554482062616c616e636520696e2077656960701b60208201526060820152630000108e6300006bfe565b600481526303e3d20360e41b6020820152608082015263000010b06300006bfe565b60018152600360fc1b602082015260a082015263000010d0826300006c86565b5263000010de816300006c86565b5063000010eb6300006bbb565b63000010f76300006bfe565b600d81526c746f6b656e42616c616e63657360981b602082015281526006602082015260016040820152630000112d6300006bfe565b601781527f4172726179206f6620746f6b656e2062616c616e6365730000000000000000006020820152606082015263000011686300006bfe565b601081526f30b93930bc9037b3103ab4b73a191a9b60811b6020820152608082015263000011966300006bfe565b60028152615b5d60f01b602082015260a082015263000011b7826300006c98565b5263000011c5816300006c98565b5063000011d26300006bbb565b63000011de6300006bfe565b600e81526d746f6b656e41646472657373657360901b60208201528152600760208201526001604082015263000012156300006c1f565b602181527f4172726179206f6620746f6b656e20636f6e74726163742061646472657373656020820152607360f81b60408201526060820152630000125a6300006bfe565b60128152716172726179206f662061646472657373657360701b60208201526080820152630000128a6300006bfe565b60028152615b5d60f01b602082015260a082015263000012ab826300006caa565b5263000012b9816300006caa565b5063000012c66300006bbb565b63000012d26300006bfe565b600f81526e3a3932b0b9bab93ca6b0b730b3b2b960891b602082015281526002602082015260016040820152630000130a6300006c1f565b602181527f5472656173757279206d616e6167657220636f6e7472616374206164647265736020820152607360f81b60408201526060820152630000134f6300006bfe565b601081526f6e6f6e2d7a65726f206164647265737360801b60208201526080820152630000137d6300006d05565b60a0820152630000138f826300006cbc565b52630000139d816300006cbc565b5063000013aa6300006bbb565b63000013b66300006bfe565b60088152676d756c746973696760c01b60208201528152600260208201526000604082015263000013e76300006bfe565b601781527f4d756c74697369672077616c6c657420616464726573730000000000000000006020820152606082015263000014226300006bfe565b601081526f6f7074696f6e616c206164647265737360801b6020820152608082015263000014506300006d05565b60a08201526300001462826300006cce565b526300001470816300006cce565b50630000147d6300006d51565b63000014896300006e6f565b9163000014966300006bfe565b906008825267747265617375727960c01b602083015263000014b86300006bfe565b9260138452600080516020630000b55a833981519152602085015263000014df6300006c1f565b91602883527f5472656173757279206d616e6167656d656e7420736368656d6120666f722044602084015267414f2066756e647360c01b604084015263000015276300006bfe565b9560058752640312e302e360dc1b602088015263000015466300006bfe565b92600984526849547265617375727960b81b602085015263000015696300006bfe565b92601084526f2f6170692f76312f747265617375727960801b602085015263000015936300006c1f565b94602e8652600080516020630000b53a83398151915260208701526d68656d61732f747265617375727960901b604087015287511563000041065760ff6040516020818163000015eb8d838151938492016300006f07565b81016003815203019020541663000040c15763000016096300006bdc565b9688885260006020890152896040890152606088015289608088015260a087015260c086015260e0850152610100840152600161012084015242610140840152426101608401526101808301526101a08201526040516020818451630000167581838589016300006f07565b8101600281520301902090805180519060018060401b038211630000336b57819063000016a485546300006f2e565b601f81116300005d2d575b50602090601f83116001146300005cb7576000926300005caa575b50508160011b916000199060031b1c19161782555b602081015160048110156300003b6e57630000170090600184016300006f89565b60408101518051906001600160401b038211630000336b578190630000172b60028601546300006f2e565b601f81116300005c6d575b50602090601f83116001146300005bf1576000926300005be4575b50508160011b916000199060031b1c19161760028301555b60608101518051906001600160401b038211630000336b578190630000179460038601546300006f2e565b601f81116300005ba7575b50602090601f83116001146300005b2b576000926300005b1e575b50508160011b916000199060031b1c19161760038301555b60808101518051906001600160401b038211630000336b57819063000017fd60048601546300006f2e565b601f81116300005ae1575b50602090601f83116001146300005a65576000926300005a58575b50508160011b916000199060031b1c19161760048301555b60a08101518051906001600160401b038211630000336b578190630000186660058601546300006f2e565b601f81116300005a1b575b50602090601f8311600114630000599f576000926300005992575b50508160011b916000199060031b1c19161760058301555b60c0810151805190680100000000000000008211630000336b57600684015482600686015580831063000058fd575b5060200190600684016000526020600020916000905b8282106300005403575050505060e0810151805190680100000000000000008211630000336b57600784015482600786015580831063000053c6575b5060200190600784016000526020600020916000905b828210630000528f5750505050610100810151805190680100000000000000008211630000336b5760088401548260088601558083106300005252575b5060200190600884016000526020600020916000905b828210630000511b575050505063000019bd6101208201511515600984019060ff801983541691151516179055565b610140810151600a830155610160810151600b8301556101808101518051906001600160401b038211630000336b5763000019fd600c8501546300006f2e565b601f811163000050de575b50602090601f83116001146300005060576101a0939291600091836300005053575b50508160011b916000199060031b1c191617600c8401555b01518051906001600160401b038211630000336b576300001a68600d8401546300006f2e565b601f81116300005016575b50602090601f83116001146300004f9b5792600d836300001ade94600080516020630000b57a83398151915297946300000ef197600092630000327d5750508160011b916000199060031b1c19161791015560405160208183516300000df381838588016300006f07565b8101039020926300001b06604051928392600084526060602085015260608401906300007009565b0390a36040516001600160401b03610100820190811190821117630000336b5761010081016040526007815260005b60e081106300004f5957506300001b4c6300006bbb565b6300001b586300006bfe565b60048152636e616d6560e01b6020820152815260006020820152600160408201526300001b856300006bfe565b600a815269546f6b656e206e616d6560b01b602082015260608201526300001bad6300006bfe565b90601082526f6e6f6e2d656d70747920737472696e6760801b9182602082015260808201526300001bde6300006c40565b6000815260a08201526300001bf4836300006c61565b526300001c02826300006c61565b506300001c0f6300006bbb565b906300001c1c6300006bfe565b60068152651cde5b589bdb60d21b6020820152825260006020830152600160408301526300001c4b6300006bfe565b600c81526b151bdad95b881cde5b589bdb60a21b602082015260608301526300001c756300006bfe565b9060108252602082015260808201526300001c906300006c40565b6000815260a08201526300001ca6826300006c86565b526300001cb4816300006c86565b506300001cc16300006bbb565b6300001ccd6300006bfe565b6008815267646563696d616c7360c01b6020820152815260016020820152600160408201526300001cfe6300006bfe565b600e81526d546f6b656e20646563696d616c7360901b602082015260608201526300001d2a6300006bfe565b600d81526c07c7a4060404c4c40787a40627609b1b602082015260808201526300001d556300006bfe565b6002815261062760f31b602082015260a08201526300001d76826300006c98565b526300001d84816300006c98565b506300001d916300006bbb565b6300001d9d6300006bfe565b600b81526a746f74616c537570706c7960a81b6020820152815260016020820152600160408201526300001dd16300006bfe565b6012815271546f74616c20746f6b656e20737570706c7960701b602082015260608201526300001e016300006bfe565b600481526303e3d20360e41b602082015260808201526300001e236300006bfe565b60018152600360fc1b602082015260a08201526300001e43826300006caa565b526300001e51816300006caa565b506300001e5e6300006bbb565b6300001e6a6300006bfe565b600f81526e636f6e74726163744164647265737360881b6020820152815260026020820152600160408201526300001ea26300006bfe565b601681527f546f6b656e20636f6e7472616374206164647265737300000000000000000000602082015260608201526300001edd6300006bfe565b601081526f6e6f6e2d7a65726f206164647265737360801b602082015260808201526300001f0b6300006d05565b60a08201526300001f1d826300006cbc565b526300001f2b816300006cbc565b506300001f386300006bbb565b6300001f446300006bfe565b601181527034b9a3b7bb32b93730b731b2aa37b5b2b760791b6020820152815260036020820152600160408201526300001f7e6300006c1f565b602481527f5768657468657220746869732069732074686520676f7665726e616e6365207460208201526337b5b2b760e11b604082015260608201526300001fc66300006bfe565b60078152663137b7b632b0b760c91b602082015260808201526300001feb6300006bfe565b600581526466616c736560d81b602082015260a0820152630000200f826300006cce565b52630000201d816300006cce565b50630000202a6300006bbb565b63000020366300006bfe565b6007815266686f6c6465727360c81b60208201528152600160208201526001604082015263000020666300006bfe565b601781527f4e756d626572206f6620746f6b656e20686f6c646572730000000000000000006020820152606082015263000020a16300006bfe565b600481526303e3d20360e41b6020820152608082015263000020c36300006bfe565b60018152600360fc1b602082015260a082015263000020e3826300006ce0565b5263000020f1816300006ce0565b5063000020fe6300006d51565b630000210a6300006e6f565b9163000021176300006bfe565b9060058252643a37b5b2b760d91b602083015263000021366300006bfe565b9260138452600080516020630000b55a8339815191526020850152630000215d6300006c1f565b91602683527f546f6b656e206d616e6167656d656e7420736368656d6120666f722044414f20602084015265746f6b656e7360d01b604084015263000021a36300006bfe565b9560058752640312e302e360dc1b602088015263000021c26300006bfe565b92600684526524aa37b5b2b760d11b602085015263000021e26300006bfe565b92600d84526c17b0b83497bb1897ba37b5b2b760991b602085015263000022096300006c1f565b94602b8652600080516020630000b53a83398151915260208701526a3432b6b0b997ba37b5b2b760a91b604087015287511563000041065760ff60405160208181630000225e8d838151938492016300006f07565b81016003815203019020541663000040c157630000227c6300006bdc565b9688885260006020890152896040890152606088015289608088015260a087015260c086015260e0850152610100840152600161012084015242610140840152426101608401526101808301526101a0820152604051602081845163000022e881838589016300006f07565b8101600281520301902090805180519060018060401b038211630000336b578190630000231785546300006f2e565b601f81116300004f1f575b50602090601f83116001146300004ea9576000926300004e9c575b50508160011b916000199060031b1c19161782555b602081015160048110156300003b6e57630000237390600184016300006f89565b60408101518051906001600160401b038211630000336b578190630000239e60028601546300006f2e565b601f81116300004e5f575b50602090601f83116001146300004de3576000926300004dd6575b50508160011b916000199060031b1c19161760028301555b60608101518051906001600160401b038211630000336b578190630000240760038601546300006f2e565b601f81116300004d99575b50602090601f83116001146300004d1d576000926300004d10575b50508160011b916000199060031b1c19161760038301555b60808101518051906001600160401b038211630000336b578190630000247060048601546300006f2e565b601f81116300004cd3575b50602090601f83116001146300004c57576000926300004c4a575b50508160011b916000199060031b1c19161760048301555b60a08101518051906001600160401b038211630000336b57819063000024d960058601546300006f2e565b601f81116300004c0d575b50602090601f83116001146300004b91576000926300004b84575b50508160011b916000199060031b1c19161760058301555b60c0810151805190680100000000000000008211630000336b5760068401548260068601558083106300004aef575b5060200190600684016000526020600020916000905b82821063000045f5575050505060e0810151805190680100000000000000008211630000336b57600784015482600786015580831063000045b8575b5060200190600784016000526020600020916000905b82821063000044815750505050610100810151805190680100000000000000008211630000336b5760088401548260088601558083106300004444575b5060200190600884016000526020600020916000905b828210630000430d575050505063000026306101208201511515600984019060ff801983541691151516179055565b610140810151600a830155610160810151600b8301556101808101518051906001600160401b038211630000336b576300002670600c8501546300006f2e565b601f811163000042d0575b50602090601f83116001146300004252576101a0939291600091836300004245575b50508160011b916000199060031b1c191617600c8401555b01518051906001600160401b038211630000336b5763000026db600d8401546300006f2e565b601f81116300004208575b50602090601f8311600114630000418d5792600d83630000275194600080516020630000b57a83398151915297946300000ef197600092630000327d5750508160011b916000199060031b1c19161791015560405160208183516300000df381838588016300006f07565b8101039020926300002779604051928392600084526060602085015260608401906300007009565b0390a363000027886300006bbb565b6005815260005b60a08110630000414b575063000027a66300006bbb565b63000027b26300006bfe565b600781526618985cd9555c9b60ca1b60208201528152600060208201526001604082015263000027e26300006bfe565b600c81526b10985cd9481054124815549360a21b60208201526060820152630000280c6300006bfe565b601081526f1d985b1a590815549308199bdc9b585d60821b60208201526080820152630000283a6300006c40565b6000815260a08201526300002850826300006c61565b52630000285e816300006c61565b50630000286b6300006bbb565b63000028776300006bfe565b60078152663b32b939b4b7b760c91b60208201528152600060208201526001604082015263000028a76300006bfe565b600b81526a20a824903b32b939b4b7b760a91b6020820152606082015263000028d06300006bfe565b601081526f39b2b6b0b73a34b1903b32b939b4b7b760811b6020820152608082015263000028fe6300006bfe565b6002815261763160f01b602082015260a0820152630000291f826300006c86565b52630000292d816300006c86565b50630000293a6300006bbb565b63000029466300006bfe565b6009815268656e64706f696e747360b81b60208201528152600560208201526001604082015263000029786300006bfe565b601781527f417661696c61626c652041504920656e64706f696e74730000000000000000006020820152606082015263000029b36300006bfe565b601081526f6172726179206f6620737472696e677360801b6020820152608082015263000029e16300006bfe565b60028152615b5d60f01b602082015260a08201526300002a02826300006c98565b526300002a10816300006c98565b506300002a1d6300006bbb565b6300002a296300006bfe565b60098152681c985d19531a5b5a5d60ba1b6020820152815260016020820152600160408201526300002a5b6300006bfe565b601581527f52617465206c696d697420706572206d696e7574650000000000000000000000602082015260608201526300002a966300006bfe565b600381526203e20360ec1b602082015260808201526300002ab76300006bfe565b60048152630313030360e41b602082015260a08201526300002ada826300006caa565b526300002ae8816300006caa565b506300002af56300006bbb565b6300002b016300006bfe565b600e81526d30baba3432b73a34b1b0ba34b7b760911b6020820152815260006020820152600060408201526300002b386300006bfe565b601581527f41757468656e7469636174696f6e206d6574686f640000000000000000000000602082015260608201526300002b736300006bfe565b600f81526e6f7074696f6e616c20737472696e6760881b602082015260808201526300002ba06300006bfe565b60048152636e6f6e6560e01b602082015260a08201526300002bc3826300006cbc565b526300002bd1816300006cbc565b506300002bde6300006d51565b6300002bea6300006e6f565b916300002bf76300006bfe565b90600382526261706960e81b60208301526300002c146300006bfe565b9260138452600080516020630000b55a83398151915260208501526300002c3b6300006c1f565b91602583527f41504920656e64706f696e747320736368656d6120666f722044414f20736572602084015264766963657360d81b60408401526300002c806300006bfe565b9560058752640312e302e360dc1b60208801526300002c9f6300006bfe565b9260048452634941504960e01b60208501526300002cbd6300006bfe565b92600b84526a2f6170692f76312f61706960a81b60208501526300002ce26300006c1f565b9460298652600080516020630000b53a83398151915260208701526868656d61732f61706960b81b604087015287511563000041065760ff604051602081816300002d358d838151938492016300006f07565b81016003815203019020541663000040c1576300002d536300006bdc565b9688885260006020890152896040890152606088015289608088015260a087015260c086015260e0850152610100840152600161012084015242610140840152426101608401526101808301526101a082015260405160208184516300002dbf81838589016300006f07565b8101600281520301902090805180519060018060401b038211630000336b5781906300002dee85546300006f2e565b601f81116300004087575b50602090601f83116001146300004011576000926300004004575b50508160011b916000199060031b1c19161782555b602081015160048110156300003b6e576300002e4a90600184016300006f89565b60408101518051906001600160401b038211630000336b5781906300002e7560028601546300006f2e565b601f81116300003fc7575b50602090601f83116001146300003f4b576000926300003f3e575b50508160011b916000199060031b1c19161760028301555b60608101518051906001600160401b038211630000336b5781906300002ede60038601546300006f2e565b601f81116300003f01575b50602090601f83116001146300003e85576000926300003e78575b50508160011b916000199060031b1c19161760038301555b60808101518051906001600160401b038211630000336b5781906300002f4760048601546300006f2e565b601f81116300003e3b575b50602090601f83116001146300003dbf576000926300003db2575b50508160011b916000199060031b1c19161760048301555b60a08101518051906001600160401b038211630000336b5781906300002fb060058601546300006f2e565b601f81116300003d75575b50602090601f83116001146300003cf9576000926300003cec575b50508160011b916000199060031b1c19161760058301555b60c0810151805190680100000000000000008211630000336b5760068401548260068601558083106300003c41575b5060200190600684016000526020600020916000905b8282106300003731575050505060e0810151805190680100000000000000008211630000336b57600784015482600786015580831063000036f4575b5060200190600784016000526020600020916000905b82821063000035bd5750505050610100810151805190680100000000000000008211630000336b5760088401548260088601558083106300003580575b5060200190600884016000526020600020916000905b8282106300003449575050505063000031076101208201511515600984019060ff801983541691151516179055565b610140810151600a830155610160810151600b8301556101808101518051906001600160401b038211630000336b576300003147600c8501546300006f2e565b601f8111630000340c575b50602090601f8311600114630000338e576101a0939291600091836300003381575b50508160011b916000199060031b1c191617600c8401555b01518051906001600160401b038211630000336b5763000031b2600d8401546300006f2e565b601f81116300003321575b50602090601f8311600114630000328a5792600d83630000322894600080516020630000b57a83398151915297946300000ef197600092630000327d5750508160011b916000199060031b1c19161791015560405160208183516300000df381838588016300006f07565b8101039020926300003250604051928392600084526060602085015260608401906300007009565b0390a33360005260086020526040600020600160ff19825416179055604051614507908163000070338239f35b015190508a806300000dc4565b90600d840160005260206000209160005b601f198516811063000033075750600184600080516020630000b57a83398151915297946300000ef19794600d94630000322898601f1981161063000032ec575b505050811b019101556300000dda565b015160001960f88460031b161c191690558a808063000032dc565b91926020600181928685015181550194019201630000329b565b630000335790600d85016000526020600020601f850160051c81019160208610630000335f575b601f0160051c01906300006f6e565b8663000031bd565b90915081906300003348565b634e487b7160e01b600052604160045260246000fd5b0151905088806300003174565b90600c850160005260206000209160005b601f198516811063000033f257509183916001936101a09695601f1981161063000033d7575b505050811b01600c840155630000318c565b015160001960f88460031b161c1916905588808063000033c5565b91926020600181928685015181550194019201630000339f565b630000344190600c86016000526020600020601f850160051c81019160208610630000335f57601f0160051c01906300006f6e565b876300003152565b80518051906001600160401b038211630000336b57630000346c86546300006f2e565b601f81116300003546575b50602090601f831160011463000034cc57928260019493602093869560009263000034bf575b5050600019600383901b1c191690841b1787555b0194019101909263000030d8565b015190508e80630000349d565b908660005260206000209160005b601f1985168110630000352c575083602093600196938796938794601f198116106300003511575b505050811b01875563000034b1565b015160001960f88460031b161c191690558e80806300003502565b9192602060018192868501518155019401920163000034da565b630000357890876000526020600020601f850160051c81019160208610630000335f57601f0160051c01906300006f6e565b8b6300003477565b600885016000526020600020908382015b818301811063000035a557505063000030c2565b8063000035b56001926300006fa3565b016300003591565b80518051906001600160401b038211630000336b5763000035e086546300006f2e565b601f811163000036ba575b50602090601f831160011463000036405792826001949360209386956000926300003633575b5050600019600383901b1c191690841b1787555b019401910190926300003085565b015190508e806300003611565b908660005260206000209160005b601f198516811063000036a0575083602093600196938796938794601f198116106300003685575b505050811b0187556300003625565b015160001960f88460031b161c191690558e80806300003676565b91926020600181928685015181550194019201630000364e565b63000036ec90876000526020600020601f850160051c81019160208610630000335f57601f0160051c01906300006f6e565b8b63000035eb565b600785016000526020600020908382015b81830181106300003719575050630000306f565b8063000037296001926300006fa3565b016300003705565b805180518051906001600160401b038211630000336b578190630000375888546300006f2e565b601f81116300003c07575b50602090601f83116001146300003b91576000926300003b84575b50508160011b916000199060031b1c19161785555b6020810151600a8110156300003b6e576001860190815460ff61ff006040860151151560081b1692169061ffff191617179055606081015180519060018060401b038211630000336b57819063000037f060028901546300006f2e565b601f81116300003b31575b50602090601f83116001146300003ab5576000926300003aa8575b50508160011b916000199060031b1c19161760028601555b60808101518051906001600160401b038211630000336b57630000385760038801546300006f2e565b601f81116300003a6b575b50602090601f831160011463000039ee5760a09392916000918363000039e1575b50508160011b916000199060031b1c19161760038701555b01518051906001600160401b038211630000336b5763000038c160048701546300006f2e565b601f811163000039a4575b50602090601f831160011463000039245792826005936020936001966000926300003917575b5050600019600383901b1c191690851b1760048801555b019401910190926300003033565b015190508e8063000038f2565b906004870160005260206000209160005b601f1985168110630000398a575083602093600196938793600597601f19811610630000396f575b505050811b0160048801556300003909565b015160001960f88460031b161c191690558e8080630000395d565b919260206001819286850151815501940192016300003935565b63000039d990600488016000526020600020601f850160051c81019160208610630000335f57601f0160051c01906300006f6e565b8b63000038cc565b015190508d806300003883565b906003880160005260206000209160005b601f19851681106300003a51575091839160019360a09695601f198116106300003a36575b505050811b016003870155630000389b565b015160001960f88460031b161c191690558d80806300003a24565b9192602060018192868501518155019401920163000039ff565b6300003aa090600389016000526020600020601f850160051c81019160208610630000335f57601f0160051c01906300006f6e565b8c6300003862565b015190508c806300003816565b9250600288016000526020600020906000935b601f19841685106300003b14576001945083601f198116106300003af9575b505050811b016002860155630000382e565b015160001960f88460031b161c191690558c80806300003ae7565b818101518355602094850194600190930192909101906300003ac8565b6300003b669060028a016000526020600020601f850160051c81019160208610630000335f57601f0160051c01906300006f6e565b8d63000037fb565b634e487b7160e01b600052602160045260246000fd5b015190508c80630000377e565b9250876000526020600020906000935b601f19841685106300003bea576001945083601f198116106300003bcf575b505050811b0185556300003793565b015160001960f88460031b161c191690558c80806300003bc0565b818101518355602094850194600190930192909101906300003ba1565b6300003c3990896000526020600020601f850160051c81019160208610630000335f57601f0160051c01906300006f6e565b8d6300003763565b60058181020481036300003cd65760058381020483036300003cd6576006850160005260206000208360050281015b82600502820181106300003c87575050630000301d565b806300003c976005926300006fa3565b600060018201556300003cae600282016300006fa3565b6300003cbe600382016300006fa3565b6300003cce600482016300006fa3565b016300003c70565b634e487b7160e01b600052601160045260246000fd5b0151905087806300002fd6565b9250600585016000526020600020906000935b601f19841685106300003d58576001945083601f198116106300003d3d575b505050811b0160058301556300002fee565b015160001960f88460031b161c191690558780806300003d2b565b818101518355602094850194600190930192909101906300003d0c565b6300003daa90600587016000526020600020601f850160051c81019160208610630000335f57601f0160051c01906300006f6e565b886300002fbb565b0151905087806300002f6d565b9250600485016000526020600020906000935b601f19841685106300003e1e576001945083601f198116106300003e03575b505050811b0160048301556300002f85565b015160001960f88460031b161c191690558780806300003df1565b818101518355602094850194600190930192909101906300003dd2565b6300003e7090600487016000526020600020601f850160051c81019160208610630000335f57601f0160051c01906300006f6e565b886300002f52565b0151905087806300002f04565b9250600385016000526020600020906000935b601f19841685106300003ee4576001945083601f198116106300003ec9575b505050811b0160038301556300002f1c565b015160001960f88460031b161c191690558780806300003eb7565b818101518355602094850194600190930192909101906300003e98565b6300003f3690600387016000526020600020601f850160051c81019160208610630000335f57601f0160051c01906300006f6e565b886300002ee9565b0151905087806300002e9b565b9250600285016000526020600020906000935b601f19841685106300003faa576001945083601f198116106300003f8f575b505050811b0160028301556300002eb3565b015160001960f88460031b161c191690558780806300003f7d565b818101518355602094850194600190930192909101906300003f5e565b6300003ffc90600287016000526020600020601f850160051c81019160208610630000335f57601f0160051c01906300006f6e565b886300002e80565b0151905087806300002e14565b9250846000526020600020906000935b601f1984168510630000406a576001945083601f19811610630000404f575b505050811b0182556300002e29565b015160001960f88460031b161c191690558780806300004040565b818101518355602094850194600190930192909101906300004021565b63000040b990866000526020600020601f850160051c81019160208610630000335f57601f0160051c01906300006f6e565b886300002df9565b60405162461bcd60e51b815260206004820152601660248201527f536368656d6120616c726561647920646566696e6564000000000000000000006044820152606490fd5b60405162461bcd60e51b815260206004820152601960248201527f537562646f6d61696e2063616e6e6f7420626520656d707479000000000000006044820152606490fd5b602090630000415a6300006bbb565b606081526000838201526000604082015260608082015260606080820152606060a082015282828501015201630000278f565b90600d840160005260206000209160005b601f198516811063000041ee5750600184600080516020630000b57a83398151915297946300000ef19794600d94630000275198601f1981161063000032ec57505050811b019101556300000dda565b91926020600181928685015181550194019201630000419e565b630000423d90600d85016000526020600020601f850160051c81019160208610630000335f57601f0160051c01906300006f6e565b8663000026e6565b015190508880630000269d565b90600c850160005260206000209160005b601f198516811063000042b657509183916001936101a09695601f19811610630000429b575b505050811b01600c84015563000026b5565b015160001960f88460031b161c191690558880806300004289565b919260206001819286850151815501940192016300004263565b630000430590600c86016000526020600020601f850160051c81019160208610630000335f57601f0160051c01906300006f6e565b87630000267b565b80518051906001600160401b038211630000336b57630000433086546300006f2e565b601f8111630000440a575b50602090601f831160011463000043905792826001949360209386956000926300004383575b5050600019600383901b1c191690841b1787555b019401910190926300002601565b015190508e806300004361565b908660005260206000209160005b601f198516811063000043f0575083602093600196938796938794601f1981161063000043d5575b505050811b0187556300004375565b015160001960f88460031b161c191690558e808063000043c6565b91926020600181928685015181550194019201630000439e565b630000443c90876000526020600020601f850160051c81019160208610630000335f57601f0160051c01906300006f6e565b8b630000433b565b600885016000526020600020908382015b8183018110630000446957505063000025eb565b8063000044796001926300006fa3565b016300004455565b80518051906001600160401b038211630000336b5763000044a486546300006f2e565b601f8111630000457e575b50602090601f8311600114630000450457928260019493602093869560009263000044f7575b5050600019600383901b1c191690841b1787555b0194019101909263000025ae565b015190508e8063000044d5565b908660005260206000209160005b601f19851681106300004564575083602093600196938796938794601f198116106300004549575b505050811b01875563000044e9565b015160001960f88460031b161c191690558e8080630000453a565b919260206001819286850151815501940192016300004512565b63000045b090876000526020600020601f850160051c81019160208610630000335f57601f0160051c01906300006f6e565b8b63000044af565b600785016000526020600020908382015b818301811063000045dd5750506300002598565b8063000045ed6001926300006fa3565b0163000045c9565b805180518051906001600160401b038211630000336b578190630000461c88546300006f2e565b601f81116300004ab5575b50602090601f83116001146300004a3f576000926300004a32575b50508160011b916000199060031b1c19161785555b6020810151600a8110156300003b6e576001860190815460ff61ff006040860151151560081b1692169061ffff191617179055606081015180519060018060401b038211630000336b57819063000046b460028901546300006f2e565b601f811163000049f5575b50602090601f8311600114630000497957600092630000496c575b50508160011b916000199060031b1c19161760028601555b60808101518051906001600160401b038211630000336b57630000471b60038801546300006f2e565b601f8111630000492f575b50602090601f831160011463000048b25760a09392916000918363000048a5575b50508160011b916000199060031b1c19161760038701555b01518051906001600160401b038211630000336b57630000478560048701546300006f2e565b601f81116300004868575b50602090601f831160011463000047e857928260059360209360019660009263000047db575b5050600019600383901b1c191690851b1760048801555b01940191019092630000255c565b015190508e8063000047b6565b906004870160005260206000209160005b601f1985168110630000484e575083602093600196938793600597601f198116106300004833575b505050811b01600488015563000047cd565b015160001960f88460031b161c191690558e80806300004821565b9192602060018192868501518155019401920163000047f9565b630000489d90600488016000526020600020601f850160051c81019160208610630000335f57601f0160051c01906300006f6e565b8b6300004790565b015190508d806300004747565b906003880160005260206000209160005b601f19851681106300004915575091839160019360a09695601f1981161063000048fa575b505050811b016003870155630000475f565b015160001960f88460031b161c191690558d808063000048e8565b9192602060018192868501518155019401920163000048c3565b630000496490600389016000526020600020601f850160051c81019160208610630000335f57601f0160051c01906300006f6e565b8c6300004726565b015190508c8063000046da565b9250600288016000526020600020906000935b601f198416851063000049d8576001945083601f1981161063000049bd575b505050811b01600286015563000046f2565b015160001960f88460031b161c191690558c808063000049ab565b81810151835560209485019460019093019290910190630000498c565b6300004a2a9060028a016000526020600020601f850160051c81019160208610630000335f57601f0160051c01906300006f6e565b8d63000046bf565b015190508c806300004642565b9250876000526020600020906000935b601f19841685106300004a98576001945083601f198116106300004a7d575b505050811b0185556300004657565b015160001960f88460031b161c191690558c80806300004a6e565b818101518355602094850194600190930192909101906300004a4f565b6300004ae790896000526020600020601f850160051c81019160208610630000335f57601f0160051c01906300006f6e565b8d6300004627565b60058181020481036300003cd65760058381020483036300003cd6576006850160005260206000208360050281015b82600502820181106300004b355750506300002546565b806300004b456005926300006fa3565b600060018201556300004b5c600282016300006fa3565b6300004b6c600382016300006fa3565b6300004b7c600482016300006fa3565b016300004b1e565b01519050878063000024ff565b9250600585016000526020600020906000935b601f19841685106300004bf0576001945083601f198116106300004bd5575b505050811b0160058301556300002517565b015160001960f88460031b161c191690558780806300004bc3565b818101518355602094850194600190930192909101906300004ba4565b6300004c4290600587016000526020600020601f850160051c81019160208610630000335f57601f0160051c01906300006f6e565b8863000024e4565b0151905087806300002496565b9250600485016000526020600020906000935b601f19841685106300004cb6576001945083601f198116106300004c9b575b505050811b01600483015563000024ae565b015160001960f88460031b161c191690558780806300004c89565b818101518355602094850194600190930192909101906300004c6a565b6300004d0890600487016000526020600020601f850160051c81019160208610630000335f57601f0160051c01906300006f6e565b88630000247b565b015190508780630000242d565b9250600385016000526020600020906000935b601f19841685106300004d7c576001945083601f198116106300004d61575b505050811b0160038301556300002445565b015160001960f88460031b161c191690558780806300004d4f565b818101518355602094850194600190930192909101906300004d30565b6300004dce90600387016000526020600020601f850160051c81019160208610630000335f57601f0160051c01906300006f6e565b886300002412565b01519050878063000023c4565b9250600285016000526020600020906000935b601f19841685106300004e42576001945083601f198116106300004e27575b505050811b01600283015563000023dc565b015160001960f88460031b161c191690558780806300004e15565b818101518355602094850194600190930192909101906300004df6565b6300004e9490600287016000526020600020601f850160051c81019160208610630000335f57601f0160051c01906300006f6e565b8863000023a9565b015190508780630000233d565b9250846000526020600020906000935b601f19841685106300004f02576001945083601f198116106300004ee7575b505050811b0182556300002352565b015160001960f88460031b161c191690558780806300004ed8565b818101518355602094850194600190930192909101906300004eb9565b6300004f5190866000526020600020601f850160051c81019160208610630000335f57601f0160051c01906300006f6e565b886300002322565b6020906300004f686300006bbb565b606081526000838201526000604082015260608082015260606080820152606060a0820152828285010152016300001b35565b90600d840160005260206000209160005b601f19851681106300004ffc5750600184600080516020630000b57a83398151915297946300000ef19794600d946300001ade98601f1981161063000032ec57505050811b019101556300000dda565b919260206001819286850151815501940192016300004fac565b630000504b90600d85016000526020600020601f850160051c81019160208610630000335f57601f0160051c01906300006f6e565b866300001a73565b0151905088806300001a2a565b90600c850160005260206000209160005b601f198516811063000050c457509183916001936101a09695601f1981161063000050a9575b505050811b01600c8401556300001a42565b015160001960f88460031b161c191690558880806300005097565b919260206001819286850151815501940192016300005071565b630000511390600c86016000526020600020601f850160051c81019160208610630000335f57601f0160051c01906300006f6e565b876300001a08565b80518051906001600160401b038211630000336b57630000513e86546300006f2e565b601f81116300005218575b50602090601f8311600114630000519e5792826001949360209386956000926300005191575b5050600019600383901b1c191690841b1787555b01940191019092630000198e565b015190508e80630000516f565b908660005260206000209160005b601f198516811063000051fe575083602093600196938796938794601f1981161063000051e3575b505050811b0187556300005183565b015160001960f88460031b161c191690558e808063000051d4565b9192602060018192868501518155019401920163000051ac565b630000524a90876000526020600020601f850160051c81019160208610630000335f57601f0160051c01906300006f6e565b8b6300005149565b600885016000526020600020908382015b818301811063000052775750506300001978565b8063000052876001926300006fa3565b016300005263565b80518051906001600160401b038211630000336b5763000052b286546300006f2e565b601f8111630000538c575b50602090601f831160011463000053125792826001949360209386956000926300005305575b5050600019600383901b1c191690841b1787555b01940191019092630000193b565b015190508e8063000052e3565b908660005260206000209160005b601f19851681106300005372575083602093600196938796938794601f198116106300005357575b505050811b01875563000052f7565b015160001960f88460031b161c191690558e80806300005348565b919260206001819286850151815501940192016300005320565b63000053be90876000526020600020601f850160051c81019160208610630000335f57601f0160051c01906300006f6e565b8b63000052bd565b600785016000526020600020908382015b818301811063000053eb5750506300001925565b8063000053fb6001926300006fa3565b0163000053d7565b805180518051906001600160401b038211630000336b578190630000542a88546300006f2e565b601f811163000058c3575b50602090601f8311600114630000584d576000926300005840575b50508160011b916000199060031b1c19161785555b6020810151600a8110156300003b6e576001860190815460ff61ff006040860151151560081b1692169061ffff191617179055606081015180519060018060401b038211630000336b57819063000054c260028901546300006f2e565b601f81116300005803575b50602090601f8311600114630000578757600092630000577a575b50508160011b916000199060031b1c19161760028601555b60808101518051906001600160401b038211630000336b57630000552960038801546300006f2e565b601f8111630000573d575b50602090601f831160011463000056c05760a09392916000918363000056b3575b50508160011b916000199060031b1c19161760038701555b01518051906001600160401b038211630000336b57630000559360048701546300006f2e565b601f81116300005676575b50602090601f831160011463000055f657928260059360209360019660009263000055e9575b5050600019600383901b1c191690851b1760048801555b0194019101909263000018e9565b015190508e8063000055c4565b906004870160005260206000209160005b601f1985168110630000565c575083602093600196938793600597601f198116106300005641575b505050811b01600488015563000055db565b015160001960f88460031b161c191690558e8080630000562f565b919260206001819286850151815501940192016300005607565b63000056ab90600488016000526020600020601f850160051c81019160208610630000335f57601f0160051c01906300006f6e565b8b630000559e565b015190508d806300005555565b906003880160005260206000209160005b601f19851681106300005723575091839160019360a09695601f198116106300005708575b505050811b016003870155630000556d565b015160001960f88460031b161c191690558d808063000056f6565b9192602060018192868501518155019401920163000056d1565b630000577290600389016000526020600020601f850160051c81019160208610630000335f57601f0160051c01906300006f6e565b8c6300005534565b015190508c8063000054e8565b9250600288016000526020600020906000935b601f198416851063000057e6576001945083601f1981161063000057cb575b505050811b0160028601556300005500565b015160001960f88460031b161c191690558c808063000057b9565b81810151835560209485019460019093019290910190630000579a565b63000058389060028a016000526020600020601f850160051c81019160208610630000335f57601f0160051c01906300006f6e565b8d63000054cd565b015190508c806300005450565b9250876000526020600020906000935b601f198416851063000058a6576001945083601f19811610630000588b575b505050811b0185556300005465565b015160001960f88460031b161c191690558c8080630000587c565b81810151835560209485019460019093019290910190630000585d565b63000058f590896000526020600020601f850160051c81019160208610630000335f57601f0160051c01906300006f6e565b8d6300005435565b60058181020481036300003cd65760058381020483036300003cd6576006850160005260206000208360050281015b8260050282018110630000594357505063000018d3565b8063000059536005926300006fa3565b60006001820155630000596a600282016300006fa3565b630000597a600382016300006fa3565b630000598a600482016300006fa3565b01630000592c565b015190508780630000188c565b9250600585016000526020600020906000935b601f198416851063000059fe576001945083601f1981161063000059e3575b505050811b01600583015563000018a4565b015160001960f88460031b161c1916905587808063000059d1565b8181015183556020948501946001909301929091019063000059b2565b6300005a5090600587016000526020600020601f850160051c81019160208610630000335f57601f0160051c01906300006f6e565b886300001871565b0151905087806300001823565b9250600485016000526020600020906000935b601f19841685106300005ac4576001945083601f198116106300005aa9575b505050811b016004830155630000183b565b015160001960f88460031b161c191690558780806300005a97565b818101518355602094850194600190930192909101906300005a78565b6300005b1690600487016000526020600020601f850160051c81019160208610630000335f57601f0160051c01906300006f6e565b886300001808565b01519050878063000017ba565b9250600385016000526020600020906000935b601f19841685106300005b8a576001945083601f198116106300005b6f575b505050811b01600383015563000017d2565b015160001960f88460031b161c191690558780806300005b5d565b818101518355602094850194600190930192909101906300005b3e565b6300005bdc90600387016000526020600020601f850160051c81019160208610630000335f57601f0160051c01906300006f6e565b88630000179f565b0151905087806300001751565b9250600285016000526020600020906000935b601f19841685106300005c50576001945083601f198116106300005c35575b505050811b0160028301556300001769565b015160001960f88460031b161c191690558780806300005c23565b818101518355602094850194600190930192909101906300005c04565b6300005ca290600287016000526020600020601f850160051c81019160208610630000335f57601f0160051c01906300006f6e565b886300001736565b01519050878063000016ca565b9250846000526020600020906000935b601f19841685106300005d10576001945083601f198116106300005cf5575b505050811b01825563000016df565b015160001960f88460031b161c191690558780806300005ce6565b818101518355602094850194600190930192909101906300005cc7565b6300005d5f90866000526020600020601f850160051c81019160208610630000335f57601f0160051c01906300006f6e565b8863000016af565b6020906300005d766300006bbb565b606081526000838201526000604082015260608082015260606080820152606060a0820152828285010152016300000f2f565b90600d840160005260206000209160005b601f19851681106300005e0a5750600184600080516020630000b57a83398151915297946300000ef19794600d946300000ec998601f1981161063000032ec57505050811b019101556300000dda565b919260206001819286850151815501940192016300005dba565b6300005e5990600d85016000526020600020601f850160051c81019160208610630000335f57601f0160051c01906300006f6e565b866300000d86565b0151905088806300000d3d565b90600c850160005260206000209160005b601f19851681106300005ed257509183916001936101a09695601f198116106300005eb7575b505050811b01600c8401556300000d55565b015160001960f88460031b161c191690558880806300005ea5565b919260206001819286850151815501940192016300005e7f565b6300005f2190600c86016000526020600020601f850160051c81019160208610630000335f57601f0160051c01906300006f6e565b876300000d1b565b80518051906001600160401b038211630000336b576300005f4c86546300006f2e565b601f81116300006026575b50602090601f83116001146300005fac5792826001949360209386956000926300005f9f575b5050600019600383901b1c191690841b1787555b019401910190926300000ca1565b015190508e806300005f7d565b908660005260206000209160005b601f1985168110630000600c575083602093600196938796938794601f198116106300005ff1575b505050811b0187556300005f91565b015160001960f88460031b161c191690558e80806300005fe2565b919260206001819286850151815501940192016300005fba565b630000605890876000526020600020601f850160051c81019160208610630000335f57601f0160051c01906300006f6e565b8b6300005f57565b600885016000526020600020908382015b818301811063000060855750506300000c8b565b8063000060956001926300006fa3565b016300006071565b80518051906001600160401b038211630000336b5763000060c086546300006f2e565b601f8111630000619a575b50602090601f831160011463000061205792826001949360209386956000926300006113575b5050600019600383901b1c191690841b1787555b019401910190926300000c4e565b015190508e8063000060f1565b908660005260206000209160005b601f19851681106300006180575083602093600196938796938794601f198116106300006165575b505050811b0187556300006105565b015160001960f88460031b161c191690558e80806300006156565b91926020600181928685015181550194019201630000612e565b63000061cc90876000526020600020601f850160051c81019160208610630000335f57601f0160051c01906300006f6e565b8b63000060cb565b600785016000526020600020908382015b818301811063000061f95750506300000c38565b8063000062096001926300006fa3565b0163000061e5565b805180518051906001600160401b038211630000336b578190630000623888546300006f2e565b601f811163000066d1575b50602090601f8311600114630000665b57600092630000664e575b50508160011b916000199060031b1c19161785555b6020810151600a8110156300003b6e576001860190815460ff61ff006040860151151560081b1692169061ffff191617179055606081015180519060018060401b038211630000336b57819063000062d060028901546300006f2e565b601f81116300006611575b50602090601f83116001146300006595576000926300006588575b50508160011b916000199060031b1c19161760028601555b60808101518051906001600160401b038211630000336b57630000633760038801546300006f2e565b601f8111630000654b575b50602090601f831160011463000064ce5760a09392916000918363000064c1575b50508160011b916000199060031b1c19161760038701555b01518051906001600160401b038211630000336b5763000063a160048701546300006f2e565b601f81116300006484575b50602090601f8311600114630000640457928260059360209360019660009263000063f7575b5050600019600383901b1c191690851b1760048801555b019401910190926300000bfc565b015190508e8063000063d2565b906004870160005260206000209160005b601f1985168110630000646a575083602093600196938793600597601f19811610630000644f575b505050811b01600488015563000063e9565b015160001960f88460031b161c191690558e8080630000643d565b919260206001819286850151815501940192016300006415565b63000064b990600488016000526020600020601f850160051c81019160208610630000335f57601f0160051c01906300006f6e565b8b63000063ac565b015190508d806300006363565b906003880160005260206000209160005b601f19851681106300006531575091839160019360a09695601f198116106300006516575b505050811b016003870155630000637b565b015160001960f88460031b161c191690558d80806300006504565b9192602060018192868501518155019401920163000064df565b630000658090600389016000526020600020601f850160051c81019160208610630000335f57601f0160051c01906300006f6e565b8c6300006342565b015190508c8063000062f6565b9250600288016000526020600020906000935b601f198416851063000065f4576001945083601f1981161063000065d9575b505050811b016002860155630000630e565b015160001960f88460031b161c191690558c808063000065c7565b8181015183556020948501946001909301929091019063000065a8565b63000066469060028a016000526020600020601f850160051c81019160208610630000335f57601f0160051c01906300006f6e565b8d63000062db565b015190508c80630000625e565b9250876000526020600020906000935b601f198416851063000066b4576001945083601f198116106300006699575b505050811b0185556300006273565b015160001960f88460031b161c191690558c8080630000668a565b81810151835560209485019460019093019290910190630000666b565b630000670390896000526020600020601f850160051c81019160208610630000335f57601f0160051c01906300006f6e565b8d6300006243565b60058181020481036300003cd65760058381020483036300003cd6576006850160005260206000208360050281015b826005028201811063000067515750506300000be6565b8063000067616005926300006fa3565b600060018201556300006778600282016300006fa3565b6300006788600382016300006fa3565b6300006798600482016300006fa3565b01630000673a565b0151905087806300000b9f565b9250600585016000526020600020906000935b601f1984168510630000680c576001945083601f1981161063000067f1575b505050811b0160058301556300000bb7565b015160001960f88460031b161c1916905587808063000067df565b8181015183556020948501946001909301929091019063000067c0565b630000685e90600587016000526020600020601f850160051c81019160208610630000335f57601f0160051c01906300006f6e565b886300000b84565b0151905087806300000b36565b9250600485016000526020600020906000935b601f198416851063000068d2576001945083601f1981161063000068b7575b505050811b0160048301556300000b4e565b015160001960f88460031b161c1916905587808063000068a5565b818101518355602094850194600190930192909101906300006886565b630000692490600487016000526020600020601f850160051c81019160208610630000335f57601f0160051c01906300006f6e565b886300000b1b565b0151905087806300000acd565b9250600385016000526020600020906000935b601f19841685106300006998576001945083601f19811610630000697d575b505050811b0160038301556300000ae5565b015160001960f88460031b161c19169055878080630000696b565b81810151835560209485019460019093019290910190630000694c565b63000069ea90600387016000526020600020601f850160051c81019160208610630000335f57601f0160051c01906300006f6e565b886300000ab2565b0151905087806300000a64565b9250600285016000526020600020906000935b601f19841685106300006a5e576001945083601f198116106300006a43575b505050811b0160028301556300000a7c565b015160001960f88460031b161c191690558780806300006a31565b818101518355602094850194600190930192909101906300006a12565b6300006ab090600287016000526020600020601f850160051c81019160208610630000335f57601f0160051c01906300006f6e565b886300000a49565b01519050878063000009dd565b9250846000526020600020906000935b601f19841685106300006b1e576001945083601f198116106300006b03575b505050811b01825563000009f2565b015160001960f88460031b161c191690558780806300006af4565b818101518355602094850194600190930192909101906300006ad5565b6300006b6d90866000526020600020601f850160051c81019160208610630000335f57601f0160051c01906300006f6e565b8863000009c2565b6020906300006b846300006bbb565b6060808252839060008284015260006040840152808084015280608084015260a083015282608001015201630000005d565b600080fd5b6040519060c082016001600160401b03811183821017630000336b57604052565b604051906101c082016001600160401b03811183821017630000336b57604052565b60408051919082016001600160401b03811183821017630000336b57604052565b60405190606082016001600160401b03811183821017630000336b57604052565b60405190602082016001600160401b03811183821017630000336b57604052565b8051156300006c705760200190565b634e487b7160e01b600052603260045260246000fd5b8051600110156300006c705760400190565b8051600210156300006c705760600190565b8051600310156300006c705760800190565b8051600410156300006c705760a00190565b8051600510156300006c705760c00190565b8051600610156300006c705760e00190565b8051600710156300006c70576101000190565b6300006d116300006c1f565b90602a8252690303030303030303030360b41b6040837f307830303030303030303030303030303030303030303030303030303030303060208201520152565b60405190608082016001600160401b03811183821017630000336b576040526003825260005b6060808210156300006d955790602091828286010152016300006d77565b5050906300006da46300006bfe565b600a81526944414f206f776e65727360b01b60208201526300006dc8826300006c61565b526300006dd6816300006c61565b506300006de36300006bfe565b601581527f53797374656d2061646d696e6973747261746f7273000000000000000000000060208201526300006e1a826300006c86565b526300006e28816300006c86565b506300006e356300006bfe565b600e81526d446174612070726f76696465727360901b60208201526300006e5d826300006c98565b526300006e6b816300006c98565b5090565b6300006e7b6300006bfe565b6001815260005b602090818110156300006ea15760606020928285010152016300006e82565b50506300006eaf6300006c1f565b602a81527f5374616e64617264697a656420736368656d6120666f72204343495020636f6d6020820152697061746962696c69747960b01b60408201526300006ef9826300006c61565b526300006e6b816300006c61565b60005b8381106300006f1c5750506000910152565b81810151838201526020016300006f0a565b90600182811c921680156300006f62575b60208310146300006f4c57565b634e487b7160e01b600052602260045260246000fd5b91607f16916300006f3f565b8181106300006f7b575050565b600081556001016300006f6e565b9060048110156300003b6e5760ff80198354169116179055565b6300006fb181546300006f2e565b90816300006fbd575050565b81601f600093116001146300006fd1575055565b9080839182526300006ff4601f60208420940160051c8401600185016300006f6e565b5555565b60001981146300003cd65760010190565b906020916300007026815180928185528580860191016300006f07565b601f01601f191601019056fe608080604052600436101561001357600080fd5b60003560e01c9081630a2eb301146122bd57508063137be5b214610baa57806314d0f1ba1461227a5780632cf52fe81461223e5780632d1d70de146121ac5780632db74af31461213e578063372d6b27146120725780633d4fcbe61461204057806341c260dd14611f7c57806344aca90414611f4b57806348c7dc9214611eed5780634a4e3bd514611c945780634f471e8f14611d1257806350910ad614611cad57806351858e2714611c9457806354874b2b14611b6057806368fa813414611ad4578063715018a614611a7b57806376be158514611a38578063780aac03146119f55780637a327d94146119ac578063869d785f1461194a5780638da5cb5b146119215780639b1c7ca6146116d6578063ab0602cf14610e0f578063ad7159cb14610b49578063ae2251e814610d1c578063b03c206a14610cdc578063b532e4cb14610c77578063b544c08314610bfd578063b7b05f1614610baa578063b8acb00814610b49578063b8c7724a14610b2b578063bc7efc5f14610a72578063c999117614610a29578063d3ed5a11146109a0578063e81ee43e146108e9578063f1a03f1b146104f6578063f23378ca146103a6578063f2fde38b146102db578063f9244dd71461026a5763fa6f3936146101ed57600080fd5b34610265576020366003190112610265576004356001600160a01b038181169182900361026557816020926000526009835260ff60406000205416918215610251575b8215610243575b50506040519015158152f35b600054161490503880610237565b6008845260406000205460ff169250610230565b600080fd5b34610265576020366003190112610265576004356001600160a01b0381811691829003610265576102b59033600052600860205260ff604060002054169081156102cd575b50612a64565b6000908152600a60205260409020805460ff19169055005b6000541633149050836102af565b34610265576020366003190112610265576004356001600160a01b03818116918290036102655761030a612a0c565b811561035257600054826bffffffffffffffffffffffff60a01b821617600055167f8be0079c531659141344cd1fd0a4f28419497f9722a3daafe3b4186f6b6457e0600080a3005b60405162461bcd60e51b815260206004820152602660248201527f4f776e61626c653a206e6577206f776e657220697320746865207a65726f206160448201526564647265737360d01b6064820152608490fd5b34610265576103b4366124ec565b95809a98999795919594929433600052600860205260ff6040600020541680156104e2575b6103e290612a64565b6040518a51908060208d01926103f98183866127ab565b8101600381520360200190205460ff1661041290613b9d565b8251151561041f90613d2a565b8151151561042c90613cde565b8451151561043990613d76565b6040518080928d51809261044c926127ab565b8101600281520360200190206004019a60405161046a81809e6128a2565b03610475908d61236a565b61047e8b613eb9565b610488998b612cc5565b61049190612ca5565b90604051809160408252604082016104a8916127ce565b93818503602083015233946104bc916127ce565b037f13b0fe0315832ca9294aebfaec7c66b0a8fa8abf1458e42623de230a1c00d30091a3005b506000546001600160a01b031633146103d9565b34610265576020366003190112610265576004356001600160401b03811161026557602061052b6105cf9236906004016123d1565b60606101a060405161053c8161234e565b82815260008582015282604082015282808201528260808201528260a08201528260c08201528260e082015282610100820152600061012082015260006101408201526000610160820152826101808201520152604051906105be60ff8251938581818601966105ad81838a6127ab565b810160038152030190205416613b9d565b6040519384928392519283916127ab565b81016002815203019020604051906105e68261234e565b6040516105fe816105f781856128a2565b038261236a565b825261061460ff60018301541660208401612b32565b604051610628816105f781600286016128a2565b6040830152604051610641816105f781600386016128a2565b606083015260405161065a816105f781600486016128a2565b6080830152604051610673816105f781600586016128a2565b60a083015260068101805461068781612455565b91610695604051938461236a565b818352602083019060005260206000206000915b8383106108cb5786600d610730888860c08501526106c960078201613c79565b60e08501526106da60088201613c79565b61010085015260ff6009820154161515610120850152600a810154610140850152600b81015461016085015260405161071a816105f781600c86016128a2565b6101808501526105f760405180948193016128a2565b6101a08201526040518091602082526107cd6107b76107a161078b61076385516101c060208901526101e08801906127ce565b610775602087015160408901906123ef565b6040860151878203601f190160608901526127ce565b6060850151868203601f190160808801526127ce565b6080840151858203601f190160a08701526127ce565b60a0830151848203601f190160c08601526127ce565b60c082015190601f198482030160e0850152815180825260208201916020808360051b8301019401926000915b838310610898578780610894896101a061087f61084361082b8d60e0860151601f19898303016101008a01526127f3565b610100850151878203601f19016101208901526127f3565b6101208401511515610140870152610140840151610160870152610160840151610180870152610180840151601f1987830301848801526127ce565b910151838203601f19016101c08501526127ce565b0390f35b919395965091936020806108b8600193601f198682030187528951612997565b97019301930190928796959492936107fa565b600560206001926108db85613bde565b8152019201920191906106a9565b346102655761098a6108fa366124ec565b9998909897919796929695939533600052600860205260ff60406000205416801561098c575b61092990612a64565b61095560ff60405160208185516109438183858a016127ab565b81016003815203019020541615612aa1565b61096181511515612ae6565b61096d84511515613cde565b61097985511515613d2a565b61098587511515613d76565b612cc5565b005b506000546001600160a01b03163314610920565b346102655760206109c86109b336612938565b929081604051938285809451938492016127ab565b81016005815203019020908154811015610265576109e591612969565b610a13576105f76109ff61089492604051928380926128a2565b6040519182916020835260208301906127ce565b634e487b7160e01b600052600060045260246000fd5b34610265576020366003190112610265576004356001600160a01b0381169081900361026557610a57612a0c565b6000908152600860205260409020805460ff19166001179055005b34610265576020610a856109b336612938565b8101600681520301902090600052602052610af5604060002060405190610ab782610ab081846128a2565b038361236a565b60ff604051610acd816105f781600187016128a2565b600283015492610b03600460038301549201549260405197889760c0895260c08901906127ce565b9087820360208901526127ce565b936040860152606085015260018060a01b038116608085015260a01c16151560a08301520390f35b34610265576000366003190112610265576020600b54604051908152f35b34610265576020366003190112610265576004356001600160401b0381116102655760ff610b946020610b81819436906004016123d1565b81604051938285809451938492016127ab565b8101600381520301902054166040519015158152f35b34610265576020366003190112610265576004356001600160401b0381116102655760ff610be26020610b81819436906004016123d1565b810160048152030190205416610bfb60405180926123ef565bf35b3461026557610894610c63610c1136612412565b90604051610c1e81612333565b60608152600060208201526000604082015260608082015260606080820152606060a0820152610c5e60ff60405160208186516105ad8183858b016127ab565b614373565b604051918291602083526020830190612997565b34610265576020366003190112610265576004356001600160a01b038181169182900361026557610cc19033600052600860205260ff604060002054169081156102cd5750612a64565b6000908152600960205260409020805460ff19166001179055005b34610265576020610cef6109b336612938565b81016007815203019020805482101561026557602091610d0e91612969565b90546040519160031b1c8152f35b3461026557602080600319360112610265576004356001600160401b03811161026557610d4d9036906004016123d1565b336000526008825260ff604060002054168015610dfb575b610d6e90612a64565b7f6b8bc325ab87de6fd5db76a0ea6091f95b945ac6a07d14c92810ec1093d1fc94610df6610de26004610dd186604051610db760ff8951928481818d01956105ad8183896127ab565b610dc088613eb9565b604051809381928a519283916127ab565b810160028152030190200193612ca5565b9260405191829186835233968301906128a2565b0390a3005b506000546001600160a01b03163314610d65565b34610265576080366003190112610265576004356001600160401b03811161026557610e3f9036906004016123d1565b6024356001600160401b03811161026557610e5e9036906004016123d1565b6044356001600160401b03811161026557610e7d90369060040161246c565b906001600160401b0360643511610265573660236064350112156102655760643560040135610eab81612455565b90610eb9604051928361236a565b8082526020820180913660248260051b60643501011161026557602460643501915b60248260051b6064350101831061168a5750505033600052600a60205260ff604060002054168015611676575b8015611662575b801561164e575b610f1f90612a64565b610f4e60ff60405160208181610f3b8b838151938492016127ab565b6003818301528101030190205416613b9d565b83518251036116095760405190602080830152610f8082610f7260408201886127f3565b03601f19810184528361236a565b604051908160408101916020808301528551809352606082019260608160051b84010191936000905b8282106115dc57505050610fc6925003601f19810183528261236a565b61103960408051809360208201956020610fe68c898151938492016127ab565b8301895190610ffc828c602080850191016127ab565b0161101082518093602080850191016127ab565b0161102482518093602080850191016127ab565b0142602082015203602081018452018261236a565b519020926040519261104a84612317565b8584526020840152836040840152426060840152336080840152600160a084015260c083015260e0820152604051602081855161108a8183858a016127ab565b810160068152030190208260005260205260406000209080518051906001600160401b03821161129a5781906110ca826110c48754612868565b87612b55565b602090601f831160011461157057600092611565575b50508160011b916000199060031b1c19161782555b60208101518051906001600160401b03821161129a5781906111278261111e6001880154612868565b60018801612b55565b602090601f83116001146114f3576000926114e8575b50508160011b916000199060031b1c19161760018301555b60408101516002830155606081015160038301556004820160018060a01b0360808301511681549060ff60a01b60a0850151151560a01b16916affffffffffffffffffffff60a81b16171790556005820160c082015160208151916111ba8385612c37565b01916000526020600020916000905b82821061140b575050505060e00151805190600160401b821161129a576006830154826006850155808310611393575b5060206006910192016000526020600020916000905b8282106112b0578585604051602081845161122d81838589016127ab565b810160078152030190208054600160401b81101561129a5761125491600182018155612969565b81549060031b9083821b91600019901b19161790556112733392612ca5565b7fd43380d9043f9dc8fa2b83a8c42ddc2397ccb419725982a86e035c9b67153910600080a4005b634e487b7160e01b600052604160045260246000fd5b80518051906001600160401b03821161129a576112d7826112d18854612868565b88612b55565b602090601f8311600114611323579282600194936020938695600092611318575b5050600019600383901b1c191690841b1787555b0194019101909261120f565b015190508b806112f8565b908660005260206000209160005b601f198516811061137b575083602093600196938796938794601f19811610611362575b505050811b01875561130c565b015160001960f88460031b161c191690558b8080611355565b91926020600181928685015181550194019201611331565b600684016000526020600020908382015b81830181106113b45750506111f9565b806113c160019254612868565b806113ce575b50016113a4565b601f811183146113e45750600081555b896113c7565b600090828252611402601f60208420920160051c8201858301612b3e565b818355556113de565b80518051906001600160401b03821161129a5761142c826112d18854612868565b602090601f831160011461147857928260019493602093869560009261146d575b5050600019600383901b1c191690841b1787555b019401910190926111c9565b015190508d8061144d565b908660005260206000209160005b601f19851681106114d0575083602093600196938796938794601f198116106114b7575b505050811b018755611461565b015160001960f88460031b161c191690558d80806114aa565b91926020600181928685015181550194019201611486565b01519050868061113d565b9250600185016000526020600020906000935b601f198416851061154a576001945083601f19811610611531575b505050811b016001830155611155565b015160001960f88460031b161c19169055868080611521565b81810151835560209485019460019093019290910190611506565b0151905086806110e0565b9250846000526020600020906000935b601f19841685106115c1576001945083601f198116106115a8575b505050811b0182556110f5565b015160001960f88460031b161c1916905586808061159b565b81810151835560209485019460019093019290910190611580565b919350916020806115f9600193605f198a820301865288516127ce565b9601920192018593919492610fa9565b60405162461bcd60e51b815260206004820152601f60248201527f4669656c64206e616d657320616e642076616c756573206d69736d61746368006044820152606490fd5b506000546001600160a01b03163314610f16565b50600860205260ff60406000205416610f0f565b50600960205260ff60406000205416610f08565b8235906001600160401b0382116102655736604383606435010112156102655760249160209182916116c990369060643501808701359060440161238b565b8152019301929050610edb565b346102655760206117396116e936612938565b9290606060e06040516116fb81612317565b82815282858201526000604082015260008382015260006080820152600060a08201528260c0820152015281604051938285809451938492016127ab565b8101600681520301902090600052602052604060002060066040519161175e83612317565b60405161176f816105f781856128a2565b8352604051611785816105f781600186016128a2565b6020840152600281015460408401526003810154606084015260048101546001600160a01b038116608085015260a090811c60ff161515908401526117cc60058201613c79565b60c08401520180546117dd81612455565b916117eb604051938461236a565b818352602083019060005260206000206000915b8383106118fc57858560e082015260405180916020825261182e815161010060208501526101208401906127ce565b60e061189461184f602085015193601f1994858883030160408901526127ce565b604085015160608701526060850151608087015260018060a01b0360808601511660a087015260a0850151151560c087015260c08501518487830301848801526127f3565b920151918184820301610100850152825190818152602081016020808460051b8401019501936000925b8484106118cb5787870388f35b919395819395975060206118ea82600194868495030188528a516127ce565b980194019401918796959394916118be565b600160208192604051611913816105f781896128a2565b8152019201920191906117ff565b34610265576000366003190112610265576000546040516001600160a01b039091168152602090f35b34610265576020366003190112610265576004356001600160a01b0381811691829003610265576119949033600052600860205260ff604060002054169081156102cd5750612a64565b6000908152600960205260409020805460ff19169055005b34610265576020366003190112610265576004356001600160401b038111610265576119e26020610b81819336906004016123d1565b8101600d81520301902054604051908152f35b34610265576020366003190112610265576004356001600160a01b0381169081900361026557600052600a602052602060ff604060002054166040519015158152f35b34610265576020366003190112610265576004356001600160a01b03811690819003610265576000526008602052602060ff604060002054166040519015158152f35b3461026557600036600319011261026557611a94612a0c565b600080546001600160a01b0319811682556001600160a01b03167f8be0079c531659141344cd1fd0a4f28419497f9722a3daafe3b4186f6b6457e08280a3005b34610265576020366003190112610265576004356001600160a01b038181169182900361026557611b03612a0c565b600054168114611b25576000908152600860205260409020805460ff19169055005b60405162461bcd60e51b815260206004820152601360248201527221b0b73737ba103932b6b7bb329037bbb732b960691b6044820152606490fd5b34610265576020366003190112610265576004356001600160401b03811161026557611b909036906004016123d1565b6006611bc86020604051938051906105be60ff84830193611bb2818a876127ab565b880197858160039a8b8152030190205416613b9d565b8101600281520301902001805490611bdf8261430d565b91611be98161430d565b9160005b828110611c1e57611c1085610894866040519384936040855260408501906127f3565b9083820360208501526127f3565b806105f7611c3f611c32611c8f9486614357565b50604051928380926128a2565b611c4982886144bd565b52611c5481876144bd565b5086611c74611c638386614357565b506105f760405180948193016128a2565b611c7e82876144bd565b52611c8981866144bd565b50612c80565b611bed565b346102655760003660031901126102655761098a612a0c565b34610265576020366003190112610265576004356001600160a01b038181169182900361026557611cf79033600052600860205260ff604060002054169081156102cd5750612a64565b6000908152600a60205260409020805460ff19166001179055005b34610265576020366003190112610265576004356001600160401b03811161026557611d429036906004016123d1565b6040518181809351602081930191611d59926127ab565b81016002815203602001902060405180611d7381846128a2565b03611d7e908261236a565b600182015460ff169160405180806002840190611d9a916128a2565b03611da5908261236a565b60405180611db681600386016128a2565b03611dc1908261236a565b6040519081611dd381600487016128a2565b03611dde908361236a565b6040519182611df081600588016128a2565b03611dfb908461236a565b600985015460ff1692600a86015491600b87015493604051968780600c8b0190611e24916128a2565b03611e2f908961236a565b60405180600d819b0190611e42916128a2565b03611e4d908a61236a565b6040519a8b9a610160808d528c01611e64916127ce565b9060208c01611e72916123ef565b8a810360408c0152611e83916127ce565b89810360608b0152611e94916127ce565b88810360808a0152611ea5916127ce565b87810360a0890152611eb6916127ce565b92151560c087015260e0860152610100850152838103610120850152611edb916127ce565b828103610140840152610894916127ce565b34610265576020366003190112610265576004356001600160401b03811161026557611f37611f286020610b816108949436906004016123d1565b81016005815203019020613c79565b6040519182916020835260208301906127f3565b3461026557602036600319011261026557600435600481101561026557611f7360209161284f565b54604051908152f35b3461026557602080600319360112610265576004356001600160401b0381116102655781610b81611fb19236906004016123d1565b8101600781520301902060405190818382549182815201908192600052846000209060005b8682821061202c578686611fec8288038361236a565b604051928392818401908285525180915260408401929160005b82811061201557505050500390f35b835185528695509381019392810192600101612006565b835485529093019260019283019201611fd6565b3461026557602036600319011261026557600435600481101561026557611f3761206c6108949261284f565b5461430d565b3461026557600036600319011261026557600b54600c60209081527f13649b2456f1b42fef0f0040b3aaeabcd21a76a0f3f5defd4f583839455116e8547fd421a5181c571bba3f01190c922c3b2a896fc1d84e86c9f17ac10e67ebef8b5c547f5d6016397a73f5e079297ac5a36fef17b4d9c3831618e63ab105738020ddd7205460036000527fc0da782485e77ae272268ae0a3ff44c1552ecb60b3743924de17a815e0a3cfd7546040805196875294860193909352928401526060830191909152608082015260a090f35b346102655761098a61214f366124ec565b9998909897919796929695939533600052600860205260ff604060002054168015612198575b61217e90612a64565b61098560ff60405160208185516109438183858a016127ab565b506000546001600160a01b03163314612175565b34610265576020366003190112610265576004356001600160a01b03818116918290036102655781602092600052600a835260ff6040600020541691821561222a575b8215612216575b82156122085750506040519015158152f35b600054161490508280610237565b6008845260406000205460ff1692506121f6565b6009845260406000205460ff1692506121ef565b3461026557602061227061225136612412565b9061226b60ff604051868185516105ad8183858a016127ab565b614436565b6040519015158152f35b34610265576020366003190112610265576004356001600160a01b03811690819003610265576000526009602052602060ff604060002054166040519015158152f35b34610265576020366003190112610265576004356001600160a01b03818116929183900361026557826020936000526008845260ff60406000205416918215612309575b505015158152f35b600054161490508380612301565b61010081019081106001600160401b0382111761129a57604052565b60c081019081106001600160401b0382111761129a57604052565b6101c081019081106001600160401b0382111761129a57604052565b90601f801991011681019081106001600160401b0382111761129a57604052565b9291926001600160401b03821161129a57604051916123b4601f8201601f19166020018461236a565b829481845281830111610265578281602093846000960137010152565b9080601f83011215610265578160206123ec9335910161238b565b90565b9060048210156123fc5752565b634e487b7160e01b600052602160045260246000fd5b906040600319830112610265576001600160401b03600435818111610265578361243e916004016123d1565b92602435918211610265576123ec916004016123d1565b6001600160401b03811161129a5760051b60200190565b9080601f830112156102655781359061248482612455565b92612492604051948561236a565b828452602092838086019160051b8301019280841161026557848301915b8483106124c05750505050505090565b82356001600160401b0381116102655786916124e1848480948901016123d1565b8152019201916124b0565b6101606003198201126102655760049081356001600160401b03811161026557816125189184016123d1565b926024358381101561026557926044356001600160401b03811161026557836125429183016123d1565b9260649081356001600160401b03811161026557816125629185016123d1565b9360849384356001600160401b03811161026557836125829183016123d1565b9460a480356001600160401b03811161026557856125a19185016123d1565b9560c4916001600160401b03833511610265578660238435011215610265578235850135916125cf83612455565b946125dd604051968761236a565b83865260208601928960248660051b8835010111610265576024863501935b60248660051b88350101851061268c57505050505050509260e4356001600160401b038111610265578161263191840161246c565b92610104356001600160401b038111610265578261265091850161246c565b92610124356001600160401b038111610265578361266f9183016123d1565b92610144356001600160401b038111610265576123ec92016123d1565b8435906001600160401b0382116102655760c0883583018d03602319011261026557604051916126bb83612333565b6024818a350101356001600160401b038111610265578d60246126e392848d350101016123d1565b8352600a6044828b350101351015610265578835810160448101356020850152860135801515810361026557604084015284818a350101356001600160401b038111610265578d602461273b92848d350101016123d1565b606084015283818a350101356001600160401b038111610265578d602461276792848d350101016123d1565b608084015288818135010135916001600160401b038311610265576024936127998f8660209687968f350101016123d1565b60a082015281520195019490506125fc565b60005b8381106127be5750506000910152565b81810151838201526020016127ae565b906020916127e7815180928185528580860191016127ab565b601f01601f1916010190565b908082519081815260208091019281808460051b8301019501936000915b8483106128215750505050505090565b909192939495848061283f600193601f198682030187528a516127ce565b9801930193019194939290612811565b60048110156123fc57600052600c602052604060002090565b90600182811c92168015612898575b602083101461288257565b634e487b7160e01b600052602260045260246000fd5b91607f1691612877565b90600092918054916128b383612868565b91828252600193848116908160001461291557506001146128d5575b50505050565b90919394506000526020928360002092846000945b8386106129015750505050010190388080806128cf565b8054858701830152940193859082016128ea565b9294505050602093945060ff191683830152151560051b010190388080806128cf565b604060031982011261026557600435906001600160401b03821161026557612962916004016123d1565b9060243590565b80548210156129815760005260206000200190600090565b634e487b7160e01b600052603260045260246000fd5b6129aa815160c0845260c08401906127ce565b916020820151600a8110156123fc576129fb6129e96123ec9560a0936020860152604086015115156040860152606086015185820360608701526127ce565b608085015184820360808601526127ce565b9201519060a08184039101526127ce565b6000546001600160a01b03163303612a2057565b606460405162461bcd60e51b815260206004820152602060248201527f4f776e61626c653a2063616c6c6572206973206e6f7420746865206f776e65726044820152fd5b15612a6b57565b60405162461bcd60e51b815260206004820152600e60248201526d139bdd08185d5d1a1bdc9a5e995960921b6044820152606490fd5b15612aa857565b60405162461bcd60e51b815260206004820152601660248201527514d8da195b5848185b1c9958591e481919599a5b995960521b6044820152606490fd5b15612aed57565b60405162461bcd60e51b815260206004820152601960248201527f537562646f6d61696e2063616e6e6f7420626520656d707479000000000000006044820152606490fd5b60048210156123fc5752565b818110612b49575050565b60008155600101612b3e565b9190601f8111612b6457505050565b612b90926000526020600020906020601f840160051c83019310612b92575b601f0160051c0190612b3e565b565b9091508190612b83565b9060048110156123fc5760ff80198354169116179055565b612bbe8154612868565b9081612bc8575050565b81601f60009311600114612bda575055565b908083918252612bf9601f60208420940160051c840160018501612b3e565b5555565b8054906000815581612c0d575050565b6000526020600020908101905b818110612c25575050565b80612c31600192612bb4565b01612c1a565b90600160401b811161129a57815491818155828210612c5557505050565b600052602060002091820191015b818110612c6e575050565b80612c7a600192612bb4565b01612c63565b6000198114612c8f5760010190565b634e487b7160e01b600052601160045260246000fd5b612cbd906020604051928284809451938492016127ab565b810103902090565b9691989399949792959097612cdc88511515612ae6565b612d0e60ff612cfa60208b81604051938285809451938492016127ab565b600381830152810103019020541615612aa1565b60405196612d1b8861234e565b888852612d2b8a60208a01612b32565b8a604089015260608801528a608088015260a087015260c086015260e0850152610100840152600161012084015242610140840152426101608401526101808301526101a08201526040516020818451612d8881838589016127ab565b810160028152030190209080518051906001600160401b03821161129a578190612db6826110c48754612868565b602090601f8311600114613b3157600092613b26575b50508160011b916000199060031b1c19161782555b602081015160048110156123fc57612dfc9060018401612b9c565b60408101518051906001600160401b03821161129a578190612e2e82612e256002880154612868565b60028801612b55565b602090601f8311600114613ab457600092613aa9575b50508160011b916000199060031b1c19161760028301555b60608101518051906001600160401b03821161129a578190612e8e82612e856003880154612868565b60038801612b55565b602090601f8311600114613a3757600092613a2c575b50508160011b916000199060031b1c19161760038301555b60808101518051906001600160401b03821161129a578190612eee82612ee56004880154612868565b60048801612b55565b602090601f83116001146139ba576000926139af575b50508160011b916000199060031b1c19161760048301555b60a08101518051906001600160401b03821161129a578190612f4e82612f456005880154612868565b60058801612b55565b602090601f831160011461393d57600092613932575b50508160011b916000199060031b1c19161760058301555b60c0810151805190600160401b821161129a5760068401548260068601558083106138b7575b5060200190600684016000526020600020916000905b82821061350857505050506007820160e08201516020815191612fdb8385612c37565b01916000526020600020916000905b82821061342b575050505060088201610100820151602081519161300e8385612c37565b01916000526020600020916000905b82821061334e575050505060098201610120820151151560ff80198354169116179055610140810151600a830155610160810151600b8301556101808101518051906001600160401b03821161129a576130878261307e600c870154612868565b600c8701612b55565b602090601f83116001146132da576101a0939291600091836132cf575b50508160011b916000199060031b1c191617600c8401555b01518051906001600160401b03821161129a576130e9826130e0600d860154612868565b600d8601612b55565b602090601f831160011461322f576131ff947fbc5e30b99f14bbf3d59c8cf7aca16b6cd889c273f13c2c4854e4d760969f07669694600d8561321f96613210966131f296600092613224575b50508160011b916000199060031b1c1916179101555b604051602081835161316081838588016127ab565b81016003815203019020600160ff1982541617905561319d85604051602081855161318e8183858a016127ab565b81016004815203019020612b9c565b6131a8600b54612c80565b600b556131b48561284f565b6131be8154612c80565b9055604051602081816131d78c838151938492016127ab565b8101600d8152030190206131eb8154612c80565b9055612ca5565b95604051948580956123ef565b6060602085015260608401906127ce565b828103604084015233966127ce565b0390a3565b015190503880613135565b90600d840160005260206000209160005b601f19851681106132b75750947fbc5e30b99f14bbf3d59c8cf7aca16b6cd889c273f13c2c4854e4d760969f07669694600d600186613210966131f2966131ff9b61321f9a601f1981161061329e575b505050811b0191015561314b565b015160001960f88460031b161c19169055388080613290565b91926020600181928685015181550194019201613240565b0151905038806130a4565b90600c850160005260206000209160005b601f198516811061333657509183916001936101a09695601f1981161061331d575b505050811b01600c8401556130bc565b015160001960f88460031b161c1916905538808061330d565b919260206001819286850151815501940192016132eb565b80518051906001600160401b03821161129a5761336f826112d18854612868565b602090601f83116001146133bb5792826001949360209386956000926133b0575b5050600019600383901b1c191690841b1787555b0194019101909261301d565b015190503880613390565b908660005260206000209160005b601f1985168110613413575083602093600196938796938794601f198116106133fa575b505050811b0187556133a4565b015160001960f88460031b161c191690553880806133ed565b919260206001819286850151815501940192016133c9565b80518051906001600160401b03821161129a5761344c826112d18854612868565b602090601f831160011461349857928260019493602093869560009261348d575b5050600019600383901b1c191690841b1787555b01940191019092612fea565b01519050388061346d565b908660005260206000209160005b601f19851681106134f0575083602093600196938796938794601f198116106134d7575b505050811b018755613481565b015160001960f88460031b161c191690553880806134ca565b919260206001819286850151815501940192016134a6565b805180518051906001600160401b03821161129a5781906135338261352d8a54612868565b8a612b55565b602090601f831160011461384b57600092613840575b50508160011b916000199060031b1c19161785555b6020810151600a8110156123fc576001860190815460ff61ff006040860151151560081b1692169061ffff19161717905560608101518051906001600160401b03821161129a5781906135c1826135b860028b0154612868565b60028b01612b55565b602090601f83116001146137ce576000926137c3575b50508160011b916000199060031b1c19161760028601555b60808101518051906001600160401b03821161129a5761361f8261361660038a0154612868565b60038a01612b55565b602090601f83116001146137505760a093929160009183613745575b50508160011b916000199060031b1c19161760038701555b01518051906001600160401b03821161129a57613680826136776004890154612868565b60048901612b55565b602090601f83116001146136cf5792826005936020936001966000926136c4575b5050600019600383901b1c191690851b1760048801555b01940191019092612fb8565b0151905038806136a1565b906004870160005260206000209160005b601f198516811061372d575083602093600196938793600597601f19811610613714575b505050811b0160048801556136b8565b015160001960f88460031b161c19169055388080613704565b919260206001819286850151815501940192016136e0565b01519050388061363b565b906003880160005260206000209160005b601f19851681106137ab575091839160019360a09695601f19811610613792575b505050811b016003870155613653565b015160001960f88460031b161c19169055388080613782565b91926020600181928685015181550194019201613761565b0151905038806135d7565b9250600288016000526020600020906000935b601f1984168510613825576001945083601f1981161061380c575b505050811b0160028601556135ef565b015160001960f88460031b161c191690553880806137fc565b818101518355602094850194600190930192909101906137e1565b015190503880613549565b9250876000526020600020906000935b601f198416851061389c576001945083601f19811610613883575b505050811b01855561355e565b015160001960f88460031b161c19169055388080613876565b8181015183556020948501946001909301929091019061385b565b6005818102048103612c8f576005838102048303612c8f576006850160005260206000208360050281015b82600502820181106138f5575050612fa2565b80613901600592612bb4565b6000600182015561391460028201612bb4565b61392060038201612bb4565b61392c60048201612bb4565b016138e2565b015190503880612f64565b9250600585016000526020600020906000935b601f1984168510613994576001945083601f1981161061397b575b505050811b016005830155612f7c565b015160001960f88460031b161c1916905538808061396b565b81810151835560209485019460019093019290910190613950565b015190503880612f04565b9250600485016000526020600020906000935b601f1984168510613a11576001945083601f198116106139f8575b505050811b016004830155612f1c565b015160001960f88460031b161c191690553880806139e8565b818101518355602094850194600190930192909101906139cd565b015190503880612ea4565b9250600385016000526020600020906000935b601f1984168510613a8e576001945083601f19811610613a75575b505050811b016003830155612ebc565b015160001960f88460031b161c19169055388080613a65565b81810151835560209485019460019093019290910190613a4a565b015190503880612e44565b9250600285016000526020600020906000935b601f1984168510613b0b576001945083601f19811610613af2575b505050811b016002830155612e5c565b015160001960f88460031b161c19169055388080613ae2565b81810151835560209485019460019093019290910190613ac7565b015190503880612dcc565b9250846000526020600020906000935b601f1984168510613b82576001945083601f19811610613b69575b505050811b018255612de1565b015160001960f88460031b161c19169055388080613b5c565b81810151835560209485019460019093019290910190613b41565b15613ba457565b60405162461bcd60e51b815260206004820152601260248201527114d8da195b58481b9bdd081919599a5b995960721b6044820152606490fd5b90604091825192613bee84612333565b838151613bff816105f781876128a2565b815260018301549260ff841690600a8210156123fc57613c6e60a09460ff600497613c7595602088015260081c161515818601528051613c46816105f781600288016128a2565b60608601528051613c5e816105f781600388016128a2565b60808601525180968193016128a2565b038461236a565b0152565b908154613c8581612455565b92604093613c958551918261236a565b828152809460208092019260005281600020906000935b858510613cbb57505050505050565b60018481928451613cd0816105f7818a6128a2565b815201930194019391613cac565b15613ce557565b60405162461bcd60e51b815260206004820152601b60248201527f4465736372697074696f6e2063616e6e6f7420626520656d70747900000000006044820152606490fd5b15613d3157565b60405162461bcd60e51b815260206004820152601760248201527f56657273696f6e2063616e6e6f7420626520656d7074790000000000000000006044820152606490fd5b15613d7d57565b60405162461bcd60e51b815260206004820152602360248201527f536368656d61206d7573742068617665206174206c65617374206f6e65206669604482015262195b1960ea1b6064820152608490fd5b8015612c8f576000190190565b90808214613eb557613ded8154612868565b906001600160401b03821161129a578190613e1282613e0c8654612868565b86612b55565b600090601f8311600114613e4957600092613e3e575b50508160011b916000199060031b1c1916179055565b015490503880613e28565b81526020808220858352818320935090601f1985169083905b828210613e9c575050908460019594939210613e83575b505050811b019055565b015460001960f88460031b161c19169055388080613e79565b8495819295850154815560018091019601940190613e62565b5050565b906040805183519160209081860193613ed38185876127ab565b83019282816002958681520301902093613eee600b54613dce565b600b5583600195613f0460ff888301541661284f565b613f0e8154613dce565b905501938251848160008854613f2381612868565b908b81169081156142f857506001146142c0575b50600d815203019020613f4a8154613dce565b90558251918851613f5c8185846127ab565b8301928581600395868152030190209860ff19998a81541690558451948151613f868188866127ab565b8601958781600498898152030190208b815416905580516000988054613fab81612868565b9d818d169182156142a9575050600114614273575b50899a9b50878160059a8b815203019020896000905b61410f575b50508697985090613ffa939495969291519384928392519283916127ab565b8101848152030190209561400d87612bb4565b60008188015561401e828801612bb4565b614029838801612bb4565b614034848801612bb4565b61403f868801612bb4565b6006870194855495600081558661409e575b5050505050505050600d8161406b6007612b909401612bfd565b61407760088201612bfd565b600060098201556000600a8201556000600b820155614098600c8201612bb4565b01612bb4565b86880296888804036140fa57600052600020948501945b8581106140c25780614051565b806140cd8892612bb4565b6000838201556140de848201612bb4565b6140e9858201612bb4565b6140f4868201612bb4565b016140b5565b601186634e487b7160e01b6000525260246000fd5b81548082101561426d576105f76141356141298486612969565b508651928380926128a2565b8a81519101208551872014614154575061414e90612c80565b8a613fd6565b9192939495969798999a50600019918281019081116142585761417a6141829185612969565b509184612969565b614244579061419091613ddb565b8154801561422f5701906141a48282612969565b61421b5791613ffa9593918b848e6141be8e999754612868565b90816141d9575b5050505055909192969594938a9998613fdb565b600093601f8084116001146141f75750505050555b8b38808f6141c5565b9161421491859387959686528d86209601901c8501908501612b3e565b55556141ee565b600089634e487b7160e01b82525260246000fd5b603189634e487b7160e01b6000525260246000fd5b60008a634e487b7160e01b82525260246000fd5b60118a634e487b7160e01b6000525260246000fd5b50613fdb565b909850600052866000209a60009b5b818d106142985750899a9b508801978b9a613fc0565b80548a8e01529b88019b8a01614282565b168352509a9b8c9b50801515028101985089613fc0565b905088600052826000208a6000915b8383106142e157505050810138613f37565b8054878401528a95879550909201918c91016142cf565b60ff1916845250801515028201905038613f37565b9061431782612455565b614324604051918261236a565b8281528092614335601f1991612455565b019060005b82811061434657505050565b80606060208093850101520161433a565b8054821015612981576000526005602060002091020190600090565b919091506040908151838180955161439181602098898096016127ab565b60029082019081520301902060060180549160005b8381106143e357845162461bcd60e51b815260048101879052600f60248201526e119a595b19081b9bdd08199bdd5b99608a1b6044820152606490fd5b6105f76143ff6143f38386614357565b508751928380926128a2565b8681519101208251878401201461441e5761441990612c80565b6143a6565b9250506123ec93506144309250614357565b50613bde565b6040918251828180945161445081602097888096016127ab565b81016002815203019020926006600094018054945b85811061447757505050505050600090565b6105f76144936144878385614357565b508551928380926128a2565b858151910120845186860120146144b2576144ad90612c80565b614465565b505050505050600190565b80518210156129815760209160051b01019056fea2646970667358221220168b0ca5ef520e8b9fc96a5e1979caed9c441e7193b6c66db7c5e6aa87ae802a64736f6c6343000813003368747470733a2f2f646f63732e64616f2d72656769737472792e636f6d2f7363436f72652044414f20436f6d706f6e656e747300000000000000000000000000bc5e30b99f14bbf3d59c8cf7aca16b6cd889c273f13c2c4854e4d760969f0766","opcodes":"CALLVALUE PUSH4 0x6BB6 JUMPI PUSH1 0x0 DUP1 SLOAD CALLER PUSH1 0x1 PUSH1 0x1 PUSH1 0xA0 SHL SUB NOT DUP3 AND DUP2 OR DUP4 SSTORE SWAP2 PUSH1 0x1 PUSH1 0x1 PUSH1 0xA0 SHL SUB SWAP1 SWAP2 AND SWAP1 PUSH32 0x8BE0079C531659141344CD1FD0A4F28419497F9722A3DAAFE3B4186F6B6457E0 SWAP1 DUP1 LOG3 PUSH1 0x1 DUP1 SSTORE PUSH2 0x1A0 PUSH1 0x40 MSTORE PUSH1 0x8 PUSH1 0x80 MSTORE PUSH1 0x0 JUMPDEST PUSH2 0x100 DUP2 LT PUSH4 0x6B75 JUMPI PUSH4 0x74 PUSH4 0x6BBB JUMP JUMPDEST PUSH4 0x80 PUSH4 0x6BFE JUMP JUMPDEST PUSH1 0xD DUP2 MSTORE PUSH13 0x1C1C9BDC1BDCD85B10DBDD5B9D PUSH1 0x9A SHL PUSH1 0x20 DUP3 ADD MSTORE DUP2 MSTORE PUSH1 0x1 PUSH1 0x20 DUP3 ADD MSTORE PUSH1 0x1 PUSH1 0x40 DUP3 ADD MSTORE PUSH4 0xB6 PUSH4 0x6BFE JUMP JUMPDEST PUSH1 0x19 DUP2 MSTORE PUSH32 0x546F74616C206E756D626572206F662070726F706F73616C7300000000000000 PUSH1 0x20 DUP3 ADD MSTORE PUSH1 0x60 DUP3 ADD MSTORE PUSH4 0xF1 PUSH4 0x6BFE JUMP JUMPDEST PUSH1 0x4 DUP2 MSTORE PUSH4 0x3E3D203 PUSH1 0xE4 SHL PUSH1 0x20 DUP3 ADD MSTORE PUSH1 0x80 DUP3 ADD MSTORE PUSH4 0x113 PUSH4 0x6BFE JUMP JUMPDEST PUSH1 0x1 DUP2 MSTORE PUSH1 0x3 PUSH1 0xFC SHL PUSH1 0x20 DUP3 ADD MSTORE PUSH1 0xA0 DUP3 ADD MSTORE PUSH4 0x134 PUSH1 0x80 PUSH4 0x6C61 JUMP JUMPDEST MSTORE PUSH4 0x143 PUSH1 0x80 PUSH4 0x6C61 JUMP JUMPDEST POP PUSH4 0x150 PUSH4 0x6BBB JUMP JUMPDEST PUSH4 0x15C PUSH4 0x6BFE JUMP JUMPDEST PUSH1 0xF DUP2 MSTORE PUSH15 0x61637469766550726F706F73616C73 PUSH1 0x88 SHL PUSH1 0x20 DUP3 ADD MSTORE DUP2 MSTORE PUSH1 0x1 PUSH1 0x20 DUP3 ADD MSTORE PUSH1 0x1 PUSH1 0x40 DUP3 ADD MSTORE PUSH4 0x194 PUSH4 0x6BFE JUMP JUMPDEST PUSH1 0x1A DUP2 MSTORE PUSH32 0x4E756D626572206F66206163746976652070726F706F73616C73000000000000 PUSH1 0x20 DUP3 ADD MSTORE PUSH1 0x60 DUP3 ADD MSTORE PUSH4 0x1CF PUSH4 0x6BFE JUMP JUMPDEST PUSH1 0x4 DUP2 MSTORE PUSH4 0x3E3D203 PUSH1 0xE4 SHL PUSH1 0x20 DUP3 ADD MSTORE PUSH1 0x80 DUP3 ADD MSTORE PUSH4 0x1F1 PUSH4 0x6BFE JUMP JUMPDEST PUSH1 0x1 DUP2 MSTORE PUSH1 0x3 PUSH1 0xFC SHL PUSH1 0x20 DUP3 ADD MSTORE PUSH1 0xA0 DUP3 ADD MSTORE PUSH4 0x212 PUSH1 0x80 PUSH4 0x6C86 JUMP JUMPDEST MSTORE PUSH4 0x221 PUSH1 0x80 PUSH4 0x6C86 JUMP JUMPDEST POP PUSH4 0x22E PUSH4 0x6BBB JUMP JUMPDEST PUSH4 0x23A PUSH4 0x6BFE JUMP JUMPDEST PUSH1 0xC DUP2 MSTORE PUSH12 0x1D9BDD1A5B99D4195C9A5BD9 PUSH1 0xA2 SHL PUSH1 0x20 DUP3 ADD MSTORE DUP2 MSTORE PUSH1 0x1 PUSH1 0x20 DUP3 ADD MSTORE PUSH1 0x1 PUSH1 0x40 DUP3 ADD MSTORE PUSH4 0x26F PUSH4 0x6BFE JUMP JUMPDEST PUSH1 0x18 DUP2 MSTORE PUSH32 0x566F74696E6720706572696F6420696E207365636F6E64730000000000000000 PUSH1 0x20 DUP3 ADD MSTORE PUSH1 0x60 DUP3 ADD MSTORE PUSH4 0x2AA PUSH4 0x6BFE JUMP JUMPDEST PUSH1 0x3 DUP2 MSTORE PUSH3 0x3E203 PUSH1 0xEC SHL PUSH1 0x20 DUP3 ADD MSTORE PUSH1 0x80 DUP3 ADD MSTORE PUSH4 0x2CB PUSH4 0x6BFE JUMP JUMPDEST PUSH1 0x6 DUP2 MSTORE PUSH6 0x36303438303 PUSH1 0xD4 SHL PUSH1 0x20 DUP3 ADD MSTORE PUSH1 0xA0 DUP3 ADD MSTORE PUSH4 0x2F1 PUSH1 0x80 PUSH4 0x6C98 JUMP JUMPDEST MSTORE PUSH4 0x300 PUSH1 0x80 PUSH4 0x6C98 JUMP JUMPDEST POP PUSH4 0x30D PUSH4 0x6BBB JUMP JUMPDEST PUSH4 0x319 PUSH4 0x6BFE JUMP JUMPDEST PUSH1 0x6 DUP2 MSTORE PUSH6 0x71756F72756D PUSH1 0xD0 SHL PUSH1 0x20 DUP3 ADD MSTORE DUP2 MSTORE PUSH1 0x1 PUSH1 0x20 DUP3 ADD MSTORE PUSH1 0x1 PUSH1 0x40 DUP3 ADD MSTORE PUSH4 0x348 PUSH4 0x6C1F JUMP JUMPDEST PUSH1 0x21 DUP2 MSTORE PUSH32 0x4D696E696D756D20766F74657320726571756972656420666F722071756F7275 PUSH1 0x20 DUP3 ADD MSTORE PUSH1 0x6D PUSH1 0xF8 SHL PUSH1 0x40 DUP3 ADD MSTORE PUSH1 0x60 DUP3 ADD MSTORE PUSH4 0x38D PUSH4 0x6BFE JUMP JUMPDEST PUSH1 0x3 DUP2 MSTORE PUSH3 0x3E203 PUSH1 0xEC SHL PUSH1 0x20 DUP3 ADD MSTORE PUSH1 0x80 DUP3 ADD MSTORE PUSH4 0x3AE PUSH4 0x6BFE JUMP JUMPDEST PUSH1 0x4 DUP2 MSTORE PUSH4 0x3130303 PUSH1 0xE4 SHL PUSH1 0x20 DUP3 ADD MSTORE PUSH1 0xA0 DUP3 ADD MSTORE PUSH4 0x3D2 PUSH1 0x80 PUSH4 0x6CAA JUMP JUMPDEST MSTORE PUSH4 0x3E1 PUSH1 0x80 PUSH4 0x6CAA JUMP JUMPDEST POP PUSH4 0x3EE PUSH4 0x6BBB JUMP JUMPDEST PUSH4 0x3FA PUSH4 0x6BFE JUMP JUMPDEST PUSH1 0x11 DUP2 MSTORE PUSH17 0x1C1C9BDC1BDCD85B151A1C995CDA1BDB19 PUSH1 0x7A SHL PUSH1 0x20 DUP3 ADD MSTORE DUP2 MSTORE PUSH1 0x1 PUSH1 0x20 DUP3 ADD MSTORE PUSH1 0x1 PUSH1 0x40 DUP3 ADD MSTORE PUSH4 0x434 PUSH4 0x6C1F JUMP JUMPDEST PUSH1 0x2A DUP2 MSTORE PUSH32 0x4D696E696D756D20746F6B656E7320726571756972656420746F206372656174 PUSH1 0x20 DUP3 ADD MSTORE PUSH10 0x19481C1C9BDC1BDCD85B PUSH1 0xB2 SHL PUSH1 0x40 DUP3 ADD MSTORE PUSH1 0x60 DUP3 ADD MSTORE PUSH4 0x482 PUSH4 0x6BFE JUMP JUMPDEST PUSH1 0x4 DUP2 MSTORE PUSH4 0x3E3D203 PUSH1 0xE4 SHL PUSH1 0x20 DUP3 ADD MSTORE PUSH1 0x80 DUP3 ADD MSTORE PUSH4 0x4A4 PUSH4 0x6BFE JUMP JUMPDEST PUSH1 0x3 DUP2 MSTORE PUSH3 0x31303 PUSH1 0xEC SHL PUSH1 0x20 DUP3 ADD MSTORE PUSH1 0xA0 DUP3 ADD MSTORE PUSH4 0x4C7 PUSH1 0x80 PUSH4 0x6CBC JUMP JUMPDEST MSTORE PUSH4 0x4D6 PUSH1 0x80 PUSH4 0x6CBC JUMP JUMPDEST POP PUSH4 0x4E3 PUSH4 0x6BBB JUMP JUMPDEST PUSH4 0x4EF PUSH4 0x6BFE JUMP JUMPDEST PUSH1 0xF DUP2 MSTORE PUSH15 0x33B7BB32B93730B731B2AA37B5B2B7 PUSH1 0x89 SHL PUSH1 0x20 DUP3 ADD MSTORE DUP2 MSTORE PUSH1 0x2 PUSH1 0x20 DUP3 ADD MSTORE PUSH1 0x1 PUSH1 0x40 DUP3 ADD MSTORE PUSH4 0x527 PUSH4 0x6C1F JUMP JUMPDEST PUSH1 0x21 DUP2 MSTORE PUSH32 0x476F7665726E616E636520746F6B656E20636F6E747261637420616464726573 PUSH1 0x20 DUP3 ADD MSTORE PUSH1 0x73 PUSH1 0xF8 SHL PUSH1 0x40 DUP3 ADD MSTORE PUSH1 0x60 DUP3 ADD MSTORE PUSH4 0x56C PUSH4 0x6BFE JUMP JUMPDEST PUSH1 0x10 DUP2 MSTORE PUSH16 0x6E6F6E2D7A65726F2061646472657373 PUSH1 0x80 SHL PUSH1 0x20 DUP3 ADD MSTORE PUSH1 0x80 DUP3 ADD MSTORE PUSH4 0x59A PUSH4 0x6D05 JUMP JUMPDEST PUSH1 0xA0 DUP3 ADD MSTORE PUSH4 0x5AD PUSH1 0x80 PUSH4 0x6CCE JUMP JUMPDEST MSTORE PUSH4 0x5BC PUSH1 0x80 PUSH4 0x6CCE JUMP JUMPDEST POP PUSH4 0x5C9 PUSH4 0x6BBB JUMP JUMPDEST PUSH4 0x5D5 PUSH4 0x6BFE JUMP JUMPDEST PUSH1 0x8 DUP2 MSTORE PUSH8 0x32BC32B1BABA37B9 PUSH1 0xC1 SHL PUSH1 0x20 DUP3 ADD MSTORE DUP2 MSTORE PUSH1 0x2 PUSH1 0x20 DUP3 ADD MSTORE PUSH1 0x1 PUSH1 0x40 DUP3 ADD MSTORE PUSH4 0x606 PUSH4 0x6C1F JUMP JUMPDEST PUSH1 0x22 DUP2 MSTORE PUSH32 0x50726F706F73616C206578656375746F7220636F6E7472616374206164647265 PUSH1 0x20 DUP3 ADD MSTORE PUSH2 0x7373 PUSH1 0xF0 SHL PUSH1 0x40 DUP3 ADD MSTORE PUSH1 0x60 DUP3 ADD MSTORE PUSH4 0x64C PUSH4 0x6BFE JUMP JUMPDEST PUSH1 0x10 DUP2 MSTORE PUSH16 0x6E6F6E2D7A65726F2061646472657373 PUSH1 0x80 SHL PUSH1 0x20 DUP3 ADD MSTORE PUSH1 0x80 DUP3 ADD MSTORE PUSH4 0x67A PUSH4 0x6D05 JUMP JUMPDEST PUSH1 0xA0 DUP3 ADD MSTORE PUSH4 0x68D PUSH1 0x80 PUSH4 0x6CE0 JUMP JUMPDEST MSTORE PUSH4 0x69C PUSH1 0x80 PUSH4 0x6CE0 JUMP JUMPDEST POP PUSH4 0x6A9 PUSH4 0x6BBB JUMP JUMPDEST PUSH4 0x6B5 PUSH4 0x6BFE JUMP JUMPDEST PUSH1 0x8 DUP2 MSTORE PUSH8 0x74696D656C6F636B PUSH1 0xC0 SHL PUSH1 0x20 DUP3 ADD MSTORE DUP2 MSTORE PUSH1 0x2 PUSH1 0x20 DUP3 ADD MSTORE PUSH1 0x0 PUSH1 0x40 DUP3 ADD MSTORE PUSH4 0x6E6 PUSH4 0x6BFE JUMP JUMPDEST PUSH1 0x19 DUP2 MSTORE PUSH32 0x54696D656C6F636B20636F6E7472616374206164647265737300000000000000 PUSH1 0x20 DUP3 ADD MSTORE PUSH1 0x60 DUP3 ADD MSTORE PUSH4 0x721 PUSH4 0x6BFE JUMP JUMPDEST PUSH1 0x10 DUP2 MSTORE PUSH16 0x6F7074696F6E616C2061646472657373 PUSH1 0x80 SHL PUSH1 0x20 DUP3 ADD MSTORE PUSH1 0x80 DUP3 ADD MSTORE PUSH4 0x74F PUSH4 0x6D05 JUMP JUMPDEST PUSH1 0xA0 DUP3 ADD MSTORE PUSH4 0x762 PUSH1 0x80 PUSH4 0x6CF2 JUMP JUMPDEST MSTORE PUSH4 0x771 PUSH1 0x80 PUSH4 0x6CF2 JUMP JUMPDEST POP PUSH4 0x77E PUSH4 0x6D51 JUMP JUMPDEST PUSH4 0x78A PUSH4 0x6E6F JUMP JUMPDEST PUSH4 0x796 PUSH4 0x6BFE JUMP JUMPDEST PUSH1 0xA DUP2 MSTORE PUSH10 0x676F7665726E616E6365 PUSH1 0xB0 SHL PUSH1 0x20 DUP3 ADD MSTORE PUSH4 0x7B9 PUSH4 0x6BFE JUMP JUMPDEST SWAP2 PUSH1 0x13 DUP4 MSTORE PUSH1 0x0 DUP1 MLOAD PUSH1 0x20 PUSH4 0xB55A DUP4 CODECOPY DUP2 MLOAD SWAP2 MSTORE PUSH1 0x20 DUP5 ADD MSTORE PUSH4 0x7E0 PUSH4 0x6C1F JUMP JUMPDEST SWAP1 PUSH1 0x30 DUP3 MSTORE PUSH32 0x476F7665726E616E63652073797374656D20736368656D6120666F722044414F PUSH1 0x20 DUP4 ADD MSTORE PUSH16 0x206465636973696F6E2D6D616B696E67 PUSH1 0x80 SHL PUSH1 0x40 DUP4 ADD MSTORE PUSH4 0x830 PUSH4 0x6BFE JUMP JUMPDEST SWAP5 PUSH1 0x5 DUP7 MSTORE PUSH5 0x312E302E3 PUSH1 0xDC SHL PUSH1 0x20 DUP8 ADD MSTORE PUSH4 0x84F PUSH4 0x6BFE JUMP JUMPDEST SWAP2 PUSH1 0xB DUP4 MSTORE PUSH11 0x49476F7665726E616E6365 PUSH1 0xA8 SHL PUSH1 0x20 DUP5 ADD MSTORE PUSH4 0x874 PUSH4 0x6BFE JUMP JUMPDEST SWAP2 PUSH1 0x12 DUP4 MSTORE PUSH18 0x2F6170692F76312F676F7665726E616E6365 PUSH1 0x70 SHL PUSH1 0x20 DUP5 ADD MSTORE PUSH4 0x8A0 PUSH4 0x6C1F JUMP JUMPDEST SWAP4 PUSH1 0x30 DUP6 MSTORE PUSH1 0x0 DUP1 MLOAD PUSH1 0x20 PUSH4 0xB53A DUP4 CODECOPY DUP2 MLOAD SWAP2 MSTORE PUSH1 0x20 DUP7 ADD MSTORE PUSH16 0x68656D61732F676F7665726E616E6365 PUSH1 0x80 SHL PUSH1 0x40 DUP7 ADD MSTORE DUP7 MLOAD ISZERO PUSH4 0x4106 JUMPI PUSH1 0xFF PUSH1 0x40 MLOAD PUSH1 0x20 DUP2 DUP2 PUSH4 0x8FA DUP13 DUP4 DUP2 MLOAD SWAP4 DUP5 SWAP3 ADD PUSH4 0x6F07 JUMP JUMPDEST PUSH1 0x3 DUP2 DUP4 ADD MSTORE DUP2 ADD SUB ADD SWAP1 KECCAK256 SLOAD AND PUSH4 0x40C1 JUMPI PUSH4 0x91A PUSH4 0x6BDC JUMP JUMPDEST SWAP6 DUP8 DUP8 MSTORE PUSH1 0x0 PUSH1 0x20 DUP9 ADD MSTORE DUP9 PUSH1 0x40 DUP9 ADD MSTORE PUSH1 0x60 DUP8 ADD MSTORE DUP9 PUSH1 0x80 DUP8 ADD MSTORE PUSH1 0xA0 DUP7 ADD MSTORE PUSH1 0x80 PUSH1 0xC0 DUP7 ADD MSTORE PUSH1 0xE0 DUP6 ADD MSTORE PUSH2 0x100 DUP5 ADD MSTORE PUSH1 0x1 PUSH2 0x120 DUP5 ADD MSTORE TIMESTAMP PUSH2 0x140 DUP5 ADD MSTORE TIMESTAMP PUSH2 0x160 DUP5 ADD MSTORE PUSH2 0x180 DUP4 ADD MSTORE PUSH2 0x1A0 DUP3 ADD MSTORE PUSH1 0x40 MLOAD PUSH1 0x20 DUP2 DUP5 MLOAD PUSH4 0x988 DUP2 DUP4 DUP6 DUP10 ADD PUSH4 0x6F07 JUMP JUMPDEST DUP2 ADD PUSH1 0x2 DUP2 MSTORE SUB ADD SWAP1 KECCAK256 SWAP1 DUP1 MLOAD DUP1 MLOAD SWAP1 PUSH1 0x1 DUP1 PUSH1 0x40 SHL SUB DUP3 GT PUSH4 0x336B JUMPI DUP2 SWAP1 PUSH4 0x9B7 DUP6 SLOAD PUSH4 0x6F2E JUMP JUMPDEST PUSH1 0x1F DUP2 GT PUSH4 0x6B3B JUMPI JUMPDEST POP PUSH1 0x20 SWAP1 PUSH1 0x1F DUP4 GT PUSH1 0x1 EQ PUSH4 0x6AC5 JUMPI PUSH1 0x0 SWAP3 PUSH4 0x6AB8 JUMPI JUMPDEST POP POP DUP2 PUSH1 0x1 SHL SWAP2 PUSH1 0x0 NOT SWAP1 PUSH1 0x3 SHL SHR NOT AND OR DUP3 SSTORE JUMPDEST PUSH1 0x20 DUP2 ADD MLOAD PUSH1 0x4 DUP2 LT ISZERO PUSH4 0x3B6E JUMPI PUSH4 0xA13 SWAP1 PUSH1 0x1 DUP5 ADD PUSH4 0x6F89 JUMP JUMPDEST PUSH1 0x40 DUP2 ADD MLOAD DUP1 MLOAD SWAP1 PUSH1 0x1 PUSH1 0x1 PUSH1 0x40 SHL SUB DUP3 GT PUSH4 0x336B JUMPI DUP2 SWAP1 PUSH4 0xA3E PUSH1 0x2 DUP7 ADD SLOAD PUSH4 0x6F2E JUMP JUMPDEST PUSH1 0x1F DUP2 GT PUSH4 0x6A7B JUMPI JUMPDEST POP PUSH1 0x20 SWAP1 PUSH1 0x1F DUP4 GT PUSH1 0x1 EQ PUSH4 0x69FF JUMPI PUSH1 0x0 SWAP3 PUSH4 0x69F2 JUMPI JUMPDEST POP POP DUP2 PUSH1 0x1 SHL SWAP2 PUSH1 0x0 NOT SWAP1 PUSH1 0x3 SHL SHR NOT AND OR PUSH1 0x2 DUP4 ADD SSTORE JUMPDEST PUSH1 0x60 DUP2 ADD MLOAD DUP1 MLOAD SWAP1 PUSH1 0x1 PUSH1 0x1 PUSH1 0x40 SHL SUB DUP3 GT PUSH4 0x336B JUMPI DUP2 SWAP1 PUSH4 0xAA7 PUSH1 0x3 DUP7 ADD SLOAD PUSH4 0x6F2E JUMP JUMPDEST PUSH1 0x1F DUP2 GT PUSH4 0x69B5 JUMPI JUMPDEST POP PUSH1 0x20 SWAP1 PUSH1 0x1F DUP4 GT PUSH1 0x1 EQ PUSH4 0x6939 JUMPI PUSH1 0x0 SWAP3 PUSH4 0x692C JUMPI JUMPDEST POP POP DUP2 PUSH1 0x1 SHL SWAP2 PUSH1 0x0 NOT SWAP1 PUSH1 0x3 SHL SHR NOT AND OR PUSH1 0x3 DUP4 ADD SSTORE JUMPDEST PUSH1 0x80 DUP2 ADD MLOAD DUP1 MLOAD SWAP1 PUSH1 0x1 PUSH1 0x1 PUSH1 0x40 SHL SUB DUP3 GT PUSH4 0x336B JUMPI DUP2 SWAP1 PUSH4 0xB10 PUSH1 0x4 DUP7 ADD SLOAD PUSH4 0x6F2E JUMP JUMPDEST PUSH1 0x1F DUP2 GT PUSH4 0x68EF JUMPI JUMPDEST POP PUSH1 0x20 SWAP1 PUSH1 0x1F DUP4 GT PUSH1 0x1 EQ PUSH4 0x6873 JUMPI PUSH1 0x0 SWAP3 PUSH4 0x6866 JUMPI JUMPDEST POP POP DUP2 PUSH1 0x1 SHL SWAP2 PUSH1 0x0 NOT SWAP1 PUSH1 0x3 SHL SHR NOT AND OR PUSH1 0x4 DUP4 ADD SSTORE JUMPDEST PUSH1 0xA0 DUP2 ADD MLOAD DUP1 MLOAD SWAP1 PUSH1 0x1 PUSH1 0x1 PUSH1 0x40 SHL SUB DUP3 GT PUSH4 0x336B JUMPI DUP2 SWAP1 PUSH4 0xB79 PUSH1 0x5 DUP7 ADD SLOAD PUSH4 0x6F2E JUMP JUMPDEST PUSH1 0x1F DUP2 GT PUSH4 0x6829 JUMPI JUMPDEST POP PUSH1 0x20 SWAP1 PUSH1 0x1F DUP4 GT PUSH1 0x1 EQ PUSH4 0x67AD JUMPI PUSH1 0x0 SWAP3 PUSH4 0x67A0 JUMPI JUMPDEST POP POP DUP2 PUSH1 0x1 SHL SWAP2 PUSH1 0x0 NOT SWAP1 PUSH1 0x3 SHL SHR NOT AND OR PUSH1 0x5 DUP4 ADD SSTORE JUMPDEST PUSH1 0xC0 DUP2 ADD MLOAD DUP1 MLOAD SWAP1 PUSH9 0x10000000000000000 DUP3 GT PUSH4 0x336B JUMPI PUSH1 0x6 DUP5 ADD SLOAD DUP3 PUSH1 0x6 DUP7 ADD SSTORE DUP1 DUP4 LT PUSH4 0x670B JUMPI JUMPDEST POP PUSH1 0x20 ADD SWAP1 PUSH1 0x6 DUP5 ADD PUSH1 0x0 MSTORE PUSH1 0x20 PUSH1 0x0 KECCAK256 SWAP2 PUSH1 0x0 SWAP1 JUMPDEST DUP3 DUP3 LT PUSH4 0x6211 JUMPI POP POP POP POP PUSH1 0xE0 DUP2 ADD MLOAD DUP1 MLOAD SWAP1 PUSH9 0x10000000000000000 DUP3 GT PUSH4 0x336B JUMPI PUSH1 0x7 DUP5 ADD SLOAD DUP3 PUSH1 0x7 DUP7 ADD SSTORE DUP1 DUP4 LT PUSH4 0x61D4 JUMPI JUMPDEST POP PUSH1 0x20 ADD SWAP1 PUSH1 0x7 DUP5 ADD PUSH1 0x0 MSTORE PUSH1 0x20 PUSH1 0x0 KECCAK256 SWAP2 PUSH1 0x0 SWAP1 JUMPDEST DUP3 DUP3 LT PUSH4 0x609D JUMPI POP POP POP POP PUSH2 0x100 DUP2 ADD MLOAD DUP1 MLOAD SWAP1 PUSH9 0x10000000000000000 DUP3 GT PUSH4 0x336B JUMPI PUSH1 0x8 DUP5 ADD SLOAD DUP3 PUSH1 0x8 DUP7 ADD SSTORE DUP1 DUP4 LT PUSH4 0x6060 JUMPI JUMPDEST POP PUSH1 0x20 ADD SWAP1 PUSH1 0x8 DUP5 ADD PUSH1 0x0 MSTORE PUSH1 0x20 PUSH1 0x0 KECCAK256 SWAP2 PUSH1 0x0 SWAP1 JUMPDEST DUP3 DUP3 LT PUSH4 0x5F29 JUMPI POP POP POP POP PUSH4 0xCD0 PUSH2 0x120 DUP3 ADD MLOAD ISZERO ISZERO PUSH1 0x9 DUP5 ADD SWAP1 PUSH1 0xFF DUP1 NOT DUP4 SLOAD AND SWAP2 ISZERO ISZERO AND OR SWAP1 SSTORE JUMP JUMPDEST PUSH2 0x140 DUP2 ADD MLOAD PUSH1 0xA DUP4 ADD SSTORE PUSH2 0x160 DUP2 ADD MLOAD PUSH1 0xB DUP4 ADD SSTORE PUSH2 0x180 DUP2 ADD MLOAD DUP1 MLOAD SWAP1 PUSH1 0x1 PUSH1 0x1 PUSH1 0x40 SHL SUB DUP3 GT PUSH4 0x336B JUMPI PUSH4 0xD10 PUSH1 0xC DUP6 ADD SLOAD PUSH4 0x6F2E JUMP JUMPDEST PUSH1 0x1F DUP2 GT PUSH4 0x5EEC JUMPI JUMPDEST POP PUSH1 0x20 SWAP1 PUSH1 0x1F DUP4 GT PUSH1 0x1 EQ PUSH4 0x5E6E JUMPI PUSH2 0x1A0 SWAP4 SWAP3 SWAP2 PUSH1 0x0 SWAP2 DUP4 PUSH4 0x5E61 JUMPI JUMPDEST POP POP DUP2 PUSH1 0x1 SHL SWAP2 PUSH1 0x0 NOT SWAP1 PUSH1 0x3 SHL SHR NOT AND OR PUSH1 0xC DUP5 ADD SSTORE JUMPDEST ADD MLOAD DUP1 MLOAD SWAP1 PUSH1 0x1 PUSH1 0x1 PUSH1 0x40 SHL SUB DUP3 GT PUSH4 0x336B JUMPI PUSH4 0xD7B PUSH1 0xD DUP5 ADD SLOAD PUSH4 0x6F2E JUMP JUMPDEST PUSH1 0x1F DUP2 GT PUSH4 0x5E24 JUMPI JUMPDEST POP PUSH1 0x20 SWAP1 PUSH1 0x1F DUP4 GT PUSH1 0x1 EQ PUSH4 0x5DA9 JUMPI SWAP3 PUSH1 0xD DUP4 PUSH4 0xEC9 SWAP5 PUSH1 0x0 DUP1 MLOAD PUSH1 0x20 PUSH4 0xB57A DUP4 CODECOPY DUP2 MLOAD SWAP2 MSTORE SWAP8 SWAP5 PUSH4 0xEF1 SWAP8 PUSH1 0x0 SWAP3 PUSH4 0x327D JUMPI JUMPDEST POP POP DUP2 PUSH1 0x1 SHL SWAP2 PUSH1 0x0 NOT SWAP1 PUSH1 0x3 SHL SHR NOT AND OR SWAP2 ADD SSTORE JUMPDEST PUSH1 0x40 MLOAD PUSH1 0x20 DUP2 DUP4 MLOAD PUSH4 0xDF3 DUP2 DUP4 DUP6 DUP9 ADD PUSH4 0x6F07 JUMP JUMPDEST DUP2 ADD PUSH1 0x3 DUP2 MSTORE SUB ADD SWAP1 KECCAK256 PUSH1 0x1 PUSH1 0xFF NOT DUP3 SLOAD AND OR SWAP1 SSTORE PUSH1 0x40 MLOAD PUSH1 0x20 DUP2 DUP4 MLOAD PUSH4 0xE21 DUP2 DUP4 DUP6 DUP9 ADD PUSH4 0x6F07 JUMP JUMPDEST DUP2 ADD PUSH1 0x4 DUP2 MSTORE SUB ADD SWAP1 KECCAK256 PUSH1 0xFF NOT DUP2 SLOAD AND SWAP1 SSTORE PUSH4 0xE42 PUSH1 0xB SLOAD PUSH4 0x6FF8 JUMP JUMPDEST PUSH1 0xB SSTORE PUSH1 0x0 DUP1 MSTORE PUSH1 0xC PUSH1 0x20 MSTORE PUSH32 0x13649B2456F1B42FEF0F0040B3AAEABCD21A76A0F3F5DEFD4F583839455116E8 DUP1 SLOAD PUSH4 0xE7E SWAP1 PUSH4 0x6FF8 JUMP JUMPDEST SWAP1 SSTORE PUSH1 0x40 MLOAD PUSH1 0x20 DUP2 DUP8 MLOAD PUSH4 0xE99 DUP2 DUP4 DUP6 DUP13 ADD PUSH4 0x6F07 JUMP JUMPDEST DUP2 ADD PUSH1 0xD DUP2 MSTORE SUB ADD SWAP1 KECCAK256 PUSH4 0xEB1 DUP2 SLOAD PUSH4 0x6FF8 JUMP JUMPDEST SWAP1 SSTORE PUSH1 0x20 PUSH1 0x40 MLOAD SWAP3 DUP3 DUP5 DUP1 SWAP5 MLOAD SWAP4 DUP5 SWAP3 ADD PUSH4 0x6F07 JUMP JUMPDEST DUP2 ADD SUB SWAP1 KECCAK256 SWAP3 PUSH4 0xF02 PUSH1 0x40 MLOAD SWAP3 DUP4 SWAP3 PUSH1 0x0 DUP5 MSTORE PUSH1 0x60 PUSH1 0x20 DUP6 ADD MSTORE PUSH1 0x60 DUP5 ADD SWAP1 PUSH4 0x7009 JUMP JUMPDEST DUP3 DUP2 SUB PUSH1 0x40 DUP5 ADD MSTORE CALLER SWAP7 PUSH4 0x7009 JUMP JUMPDEST SUB SWAP1 LOG3 PUSH1 0x40 MLOAD PUSH1 0x1 PUSH1 0x1 PUSH1 0x40 SHL SUB PUSH1 0xE0 DUP3 ADD SWAP1 DUP2 GT SWAP1 DUP3 GT OR PUSH4 0x336B JUMPI PUSH1 0xE0 DUP2 ADD PUSH1 0x40 MSTORE PUSH1 0x6 DUP2 MSTORE PUSH1 0x0 JUMPDEST PUSH1 0xC0 DUP2 LT PUSH4 0x5D67 JUMPI POP PUSH4 0xF46 PUSH4 0x6BBB JUMP JUMPDEST PUSH4 0xF52 PUSH4 0x6BFE JUMP JUMPDEST PUSH1 0xC DUP2 MSTORE PUSH12 0x746F74616C42616C616E6365 PUSH1 0xA0 SHL PUSH1 0x20 DUP3 ADD MSTORE DUP2 MSTORE PUSH1 0x1 PUSH1 0x20 DUP3 ADD MSTORE PUSH1 0x1 PUSH1 0x40 DUP3 ADD MSTORE PUSH4 0xF87 PUSH4 0x6BFE JUMP JUMPDEST PUSH1 0x1D DUP2 MSTORE PUSH32 0x546F74616C2074726561737572792062616C616E636520696E20776569000000 PUSH1 0x20 DUP3 ADD MSTORE PUSH1 0x60 DUP3 ADD MSTORE PUSH4 0xFC2 PUSH4 0x6BFE JUMP JUMPDEST PUSH1 0x4 DUP2 MSTORE PUSH4 0x3E3D203 PUSH1 0xE4 SHL PUSH1 0x20 DUP3 ADD MSTORE PUSH1 0x80 DUP3 ADD MSTORE PUSH4 0xFE4 PUSH4 0x6BFE JUMP JUMPDEST PUSH1 0x1 DUP2 MSTORE PUSH1 0x3 PUSH1 0xFC SHL PUSH1 0x20 DUP3 ADD MSTORE PUSH1 0xA0 DUP3 ADD MSTORE PUSH4 0x1004 DUP3 PUSH4 0x6C61 JUMP JUMPDEST MSTORE PUSH4 0x1012 DUP2 PUSH4 0x6C61 JUMP JUMPDEST POP PUSH4 0x101F PUSH4 0x6BBB JUMP JUMPDEST PUSH4 0x102B PUSH4 0x6BFE JUMP JUMPDEST PUSH1 0xA DUP2 MSTORE PUSH10 0x65746842616C616E6365 PUSH1 0xB0 SHL PUSH1 0x20 DUP3 ADD MSTORE DUP2 MSTORE PUSH1 0x1 PUSH1 0x20 DUP3 ADD MSTORE PUSH1 0x1 PUSH1 0x40 DUP3 ADD MSTORE PUSH4 0x105E PUSH4 0x6BFE JUMP JUMPDEST PUSH1 0x12 DUP2 MSTORE PUSH18 0x4554482062616C616E636520696E20776569 PUSH1 0x70 SHL PUSH1 0x20 DUP3 ADD MSTORE PUSH1 0x60 DUP3 ADD MSTORE PUSH4 0x108E PUSH4 0x6BFE JUMP JUMPDEST PUSH1 0x4 DUP2 MSTORE PUSH4 0x3E3D203 PUSH1 0xE4 SHL PUSH1 0x20 DUP3 ADD MSTORE PUSH1 0x80 DUP3 ADD MSTORE PUSH4 0x10B0 PUSH4 0x6BFE JUMP JUMPDEST PUSH1 0x1 DUP2 MSTORE PUSH1 0x3 PUSH1 0xFC SHL PUSH1 0x20 DUP3 ADD MSTORE PUSH1 0xA0 DUP3 ADD MSTORE PUSH4 0x10D0 DUP3 PUSH4 0x6C86 JUMP JUMPDEST MSTORE PUSH4 0x10DE DUP2 PUSH4 0x6C86 JUMP JUMPDEST POP PUSH4 0x10EB PUSH4 0x6BBB JUMP JUMPDEST PUSH4 0x10F7 PUSH4 0x6BFE JUMP JUMPDEST PUSH1 0xD DUP2 MSTORE PUSH13 0x746F6B656E42616C616E636573 PUSH1 0x98 SHL PUSH1 0x20 DUP3 ADD MSTORE DUP2 MSTORE PUSH1 0x6 PUSH1 0x20 DUP3 ADD MSTORE PUSH1 0x1 PUSH1 0x40 DUP3 ADD MSTORE PUSH4 0x112D PUSH4 0x6BFE JUMP JUMPDEST PUSH1 0x17 DUP2 MSTORE PUSH32 0x4172726179206F6620746F6B656E2062616C616E636573000000000000000000 PUSH1 0x20 DUP3 ADD MSTORE PUSH1 0x60 DUP3 ADD MSTORE PUSH4 0x1168 PUSH4 0x6BFE JUMP JUMPDEST PUSH1 0x10 DUP2 MSTORE PUSH16 0x30B93930BC9037B3103AB4B73A191A9B PUSH1 0x81 SHL PUSH1 0x20 DUP3 ADD MSTORE PUSH1 0x80 DUP3 ADD MSTORE PUSH4 0x1196 PUSH4 0x6BFE JUMP JUMPDEST PUSH1 0x2 DUP2 MSTORE PUSH2 0x5B5D PUSH1 0xF0 SHL PUSH1 0x20 DUP3 ADD MSTORE PUSH1 0xA0 DUP3 ADD MSTORE PUSH4 0x11B7 DUP3 PUSH4 0x6C98 JUMP JUMPDEST MSTORE PUSH4 0x11C5 DUP2 PUSH4 0x6C98 JUMP JUMPDEST POP PUSH4 0x11D2 PUSH4 0x6BBB JUMP JUMPDEST PUSH4 0x11DE PUSH4 0x6BFE JUMP JUMPDEST PUSH1 0xE DUP2 MSTORE PUSH14 0x746F6B656E416464726573736573 PUSH1 0x90 SHL PUSH1 0x20 DUP3 ADD MSTORE DUP2 MSTORE PUSH1 0x7 PUSH1 0x20 DUP3 ADD MSTORE PUSH1 0x1 PUSH1 0x40 DUP3 ADD MSTORE PUSH4 0x1215 PUSH4 0x6C1F JUMP JUMPDEST PUSH1 0x21 DUP2 MSTORE PUSH32 0x4172726179206F6620746F6B656E20636F6E7472616374206164647265737365 PUSH1 0x20 DUP3 ADD MSTORE PUSH1 0x73 PUSH1 0xF8 SHL PUSH1 0x40 DUP3 ADD MSTORE PUSH1 0x60 DUP3 ADD MSTORE PUSH4 0x125A PUSH4 0x6BFE JUMP JUMPDEST PUSH1 0x12 DUP2 MSTORE PUSH18 0x6172726179206F6620616464726573736573 PUSH1 0x70 SHL PUSH1 0x20 DUP3 ADD MSTORE PUSH1 0x80 DUP3 ADD MSTORE PUSH4 0x128A PUSH4 0x6BFE JUMP JUMPDEST PUSH1 0x2 DUP2 MSTORE PUSH2 0x5B5D PUSH1 0xF0 SHL PUSH1 0x20 DUP3 ADD MSTORE PUSH1 0xA0 DUP3 ADD MSTORE PUSH4 0x12AB DUP3 PUSH4 0x6CAA JUMP JUMPDEST MSTORE PUSH4 0x12B9 DUP2 PUSH4 0x6CAA JUMP JUMPDEST POP PUSH4 0x12C6 PUSH4 0x6BBB JUMP JUMPDEST PUSH4 0x12D2 PUSH4 0x6BFE JUMP JUMPDEST PUSH1 0xF DUP2 MSTORE PUSH15 0x3A3932B0B9BAB93CA6B0B730B3B2B9 PUSH1 0x89 SHL PUSH1 0x20 DUP3 ADD MSTORE DUP2 MSTORE PUSH1 0x2 PUSH1 0x20 DUP3 ADD MSTORE PUSH1 0x1 PUSH1 0x40 DUP3 ADD MSTORE PUSH4 0x130A PUSH4 0x6C1F JUMP JUMPDEST PUSH1 0x21 DUP2 MSTORE PUSH32 0x5472656173757279206D616E6167657220636F6E747261637420616464726573 PUSH1 0x20 DUP3 ADD MSTORE PUSH1 0x73 PUSH1 0xF8 SHL PUSH1 0x40 DUP3 ADD MSTORE PUSH1 0x60 DUP3 ADD MSTORE PUSH4 0x134F PUSH4 0x6BFE JUMP JUMPDEST PUSH1 0x10 DUP2 MSTORE PUSH16 0x6E6F6E2D7A65726F2061646472657373 PUSH1 0x80 SHL PUSH1 0x20 DUP3 ADD MSTORE PUSH1 0x80 DUP3 ADD MSTORE PUSH4 0x137D PUSH4 0x6D05 JUMP JUMPDEST PUSH1 0xA0 DUP3 ADD MSTORE PUSH4 0x138F DUP3 PUSH4 0x6CBC JUMP JUMPDEST MSTORE PUSH4 0x139D DUP2 PUSH4 0x6CBC JUMP JUMPDEST POP PUSH4 0x13AA PUSH4 0x6BBB JUMP JUMPDEST PUSH4 0x13B6 PUSH4 0x6BFE JUMP JUMPDEST PUSH1 0x8 DUP2 MSTORE PUSH8 0x6D756C7469736967 PUSH1 0xC0 SHL PUSH1 0x20 DUP3 ADD MSTORE DUP2 MSTORE PUSH1 0x2 PUSH1 0x20 DUP3 ADD MSTORE PUSH1 0x0 PUSH1 0x40 DUP3 ADD MSTORE PUSH4 0x13E7 PUSH4 0x6BFE JUMP JUMPDEST PUSH1 0x17 DUP2 MSTORE PUSH32 0x4D756C74697369672077616C6C65742061646472657373000000000000000000 PUSH1 0x20 DUP3 ADD MSTORE PUSH1 0x60 DUP3 ADD MSTORE PUSH4 0x1422 PUSH4 0x6BFE JUMP JUMPDEST PUSH1 0x10 DUP2 MSTORE PUSH16 0x6F7074696F6E616C2061646472657373 PUSH1 0x80 SHL PUSH1 0x20 DUP3 ADD MSTORE PUSH1 0x80 DUP3 ADD MSTORE PUSH4 0x1450 PUSH4 0x6D05 JUMP JUMPDEST PUSH1 0xA0 DUP3 ADD MSTORE PUSH4 0x1462 DUP3 PUSH4 0x6CCE JUMP JUMPDEST MSTORE PUSH4 0x1470 DUP2 PUSH4 0x6CCE JUMP JUMPDEST POP PUSH4 0x147D PUSH4 0x6D51 JUMP JUMPDEST PUSH4 0x1489 PUSH4 0x6E6F JUMP JUMPDEST SWAP2 PUSH4 0x1496 PUSH4 0x6BFE JUMP JUMPDEST SWAP1 PUSH1 0x8 DUP3 MSTORE PUSH8 0x7472656173757279 PUSH1 0xC0 SHL PUSH1 0x20 DUP4 ADD MSTORE PUSH4 0x14B8 PUSH4 0x6BFE JUMP JUMPDEST SWAP3 PUSH1 0x13 DUP5 MSTORE PUSH1 0x0 DUP1 MLOAD PUSH1 0x20 PUSH4 0xB55A DUP4 CODECOPY DUP2 MLOAD SWAP2 MSTORE PUSH1 0x20 DUP6 ADD MSTORE PUSH4 0x14DF PUSH4 0x6C1F JUMP JUMPDEST SWAP2 PUSH1 0x28 DUP4 MSTORE PUSH32 0x5472656173757279206D616E6167656D656E7420736368656D6120666F722044 PUSH1 0x20 DUP5 ADD MSTORE PUSH8 0x414F2066756E6473 PUSH1 0xC0 SHL PUSH1 0x40 DUP5 ADD MSTORE PUSH4 0x1527 PUSH4 0x6BFE JUMP JUMPDEST SWAP6 PUSH1 0x5 DUP8 MSTORE PUSH5 0x312E302E3 PUSH1 0xDC SHL PUSH1 0x20 DUP9 ADD MSTORE PUSH4 0x1546 PUSH4 0x6BFE JUMP JUMPDEST SWAP3 PUSH1 0x9 DUP5 MSTORE PUSH9 0x495472656173757279 PUSH1 0xB8 SHL PUSH1 0x20 DUP6 ADD MSTORE PUSH4 0x1569 PUSH4 0x6BFE JUMP JUMPDEST SWAP3 PUSH1 0x10 DUP5 MSTORE PUSH16 0x2F6170692F76312F7472656173757279 PUSH1 0x80 SHL PUSH1 0x20 DUP6 ADD MSTORE PUSH4 0x1593 PUSH4 0x6C1F JUMP JUMPDEST SWAP5 PUSH1 0x2E DUP7 MSTORE PUSH1 0x0 DUP1 MLOAD PUSH1 0x20 PUSH4 0xB53A DUP4 CODECOPY DUP2 MLOAD SWAP2 MSTORE PUSH1 0x20 DUP8 ADD MSTORE PUSH14 0x68656D61732F7472656173757279 PUSH1 0x90 SHL PUSH1 0x40 DUP8 ADD MSTORE DUP8 MLOAD ISZERO PUSH4 0x4106 JUMPI PUSH1 0xFF PUSH1 0x40 MLOAD PUSH1 0x20 DUP2 DUP2 PUSH4 0x15EB DUP14 DUP4 DUP2 MLOAD SWAP4 DUP5 SWAP3 ADD PUSH4 0x6F07 JUMP JUMPDEST DUP2 ADD PUSH1 0x3 DUP2 MSTORE SUB ADD SWAP1 KECCAK256 SLOAD AND PUSH4 0x40C1 JUMPI PUSH4 0x1609 PUSH4 0x6BDC JUMP JUMPDEST SWAP7 DUP9 DUP9 MSTORE PUSH1 0x0 PUSH1 0x20 DUP10 ADD MSTORE DUP10 PUSH1 0x40 DUP10 ADD MSTORE PUSH1 0x60 DUP9 ADD MSTORE DUP10 PUSH1 0x80 DUP9 ADD MSTORE PUSH1 0xA0 DUP8 ADD MSTORE PUSH1 0xC0 DUP7 ADD MSTORE PUSH1 0xE0 DUP6 ADD MSTORE PUSH2 0x100 DUP5 ADD MSTORE PUSH1 0x1 PUSH2 0x120 DUP5 ADD MSTORE TIMESTAMP PUSH2 0x140 DUP5 ADD MSTORE TIMESTAMP PUSH2 0x160 DUP5 ADD MSTORE PUSH2 0x180 DUP4 ADD MSTORE PUSH2 0x1A0 DUP3 ADD MSTORE PUSH1 0x40 MLOAD PUSH1 0x20 DUP2 DUP5 MLOAD PUSH4 0x1675 DUP2 DUP4 DUP6 DUP10 ADD PUSH4 0x6F07 JUMP JUMPDEST DUP2 ADD PUSH1 0x2 DUP2 MSTORE SUB ADD SWAP1 KECCAK256 SWAP1 DUP1 MLOAD DUP1 MLOAD SWAP1 PUSH1 0x1 DUP1 PUSH1 0x40 SHL SUB DUP3 GT PUSH4 0x336B JUMPI DUP2 SWAP1 PUSH4 0x16A4 DUP6 SLOAD PUSH4 0x6F2E JUMP JUMPDEST PUSH1 0x1F DUP2 GT PUSH4 0x5D2D JUMPI JUMPDEST POP PUSH1 0x20 SWAP1 PUSH1 0x1F DUP4 GT PUSH1 0x1 EQ PUSH4 0x5CB7 JUMPI PUSH1 0x0 SWAP3 PUSH4 0x5CAA JUMPI JUMPDEST POP POP DUP2 PUSH1 0x1 SHL SWAP2 PUSH1 0x0 NOT SWAP1 PUSH1 0x3 SHL SHR NOT AND OR DUP3 SSTORE JUMPDEST PUSH1 0x20 DUP2 ADD MLOAD PUSH1 0x4 DUP2 LT ISZERO PUSH4 0x3B6E JUMPI PUSH4 0x1700 SWAP1 PUSH1 0x1 DUP5 ADD PUSH4 0x6F89 JUMP JUMPDEST PUSH1 0x40 DUP2 ADD MLOAD DUP1 MLOAD SWAP1 PUSH1 0x1 PUSH1 0x1 PUSH1 0x40 SHL SUB DUP3 GT PUSH4 0x336B JUMPI DUP2 SWAP1 PUSH4 0x172B PUSH1 0x2 DUP7 ADD SLOAD PUSH4 0x6F2E JUMP JUMPDEST PUSH1 0x1F DUP2 GT PUSH4 0x5C6D JUMPI JUMPDEST POP PUSH1 0x20 SWAP1 PUSH1 0x1F DUP4 GT PUSH1 0x1 EQ PUSH4 0x5BF1 JUMPI PUSH1 0x0 SWAP3 PUSH4 0x5BE4 JUMPI JUMPDEST POP POP DUP2 PUSH1 0x1 SHL SWAP2 PUSH1 0x0 NOT SWAP1 PUSH1 0x3 SHL SHR NOT AND OR PUSH1 0x2 DUP4 ADD SSTORE JUMPDEST PUSH1 0x60 DUP2 ADD MLOAD DUP1 MLOAD SWAP1 PUSH1 0x1 PUSH1 0x1 PUSH1 0x40 SHL SUB DUP3 GT PUSH4 0x336B JUMPI DUP2 SWAP1 PUSH4 0x1794 PUSH1 0x3 DUP7 ADD SLOAD PUSH4 0x6F2E JUMP JUMPDEST PUSH1 0x1F DUP2 GT PUSH4 0x5BA7 JUMPI JUMPDEST POP PUSH1 0x20 SWAP1 PUSH1 0x1F DUP4 GT PUSH1 0x1 EQ PUSH4 0x5B2B JUMPI PUSH1 0x0 SWAP3 PUSH4 0x5B1E JUMPI JUMPDEST POP POP DUP2 PUSH1 0x1 SHL SWAP2 PUSH1 0x0 NOT SWAP1 PUSH1 0x3 SHL SHR NOT AND OR PUSH1 0x3 DUP4 ADD SSTORE JUMPDEST PUSH1 0x80 DUP2 ADD MLOAD DUP1 MLOAD SWAP1 PUSH1 0x1 PUSH1 0x1 PUSH1 0x40 SHL SUB DUP3 GT PUSH4 0x336B JUMPI DUP2 SWAP1 PUSH4 0x17FD PUSH1 0x4 DUP7 ADD SLOAD PUSH4 0x6F2E JUMP JUMPDEST PUSH1 0x1F DUP2 GT PUSH4 0x5AE1 JUMPI JUMPDEST POP PUSH1 0x20 SWAP1 PUSH1 0x1F DUP4 GT PUSH1 0x1 EQ PUSH4 0x5A65 JUMPI PUSH1 0x0 SWAP3 PUSH4 0x5A58 JUMPI JUMPDEST POP POP DUP2 PUSH1 0x1 SHL SWAP2 PUSH1 0x0 NOT SWAP1 PUSH1 0x3 SHL SHR NOT AND OR PUSH1 0x4 DUP4 ADD SSTORE JUMPDEST PUSH1 0xA0 DUP2 ADD MLOAD DUP1 MLOAD SWAP1 PUSH1 0x1 PUSH1 0x1 PUSH1 0x40 SHL SUB DUP3 GT PUSH4 0x336B JUMPI DUP2 SWAP1 PUSH4 0x1866 PUSH1 0x5 DUP7 ADD SLOAD PUSH4 0x6F2E JUMP JUMPDEST PUSH1 0x1F DUP2 GT PUSH4 0x5A1B JUMPI JUMPDEST POP PUSH1 0x20 SWAP1 PUSH1 0x1F DUP4 GT PUSH1 0x1 EQ PUSH4 0x599F JUMPI PUSH1 0x0 SWAP3 PUSH4 0x5992 JUMPI JUMPDEST POP POP DUP2 PUSH1 0x1 SHL SWAP2 PUSH1 0x0 NOT SWAP1 PUSH1 0x3 SHL SHR NOT AND OR PUSH1 0x5 DUP4 ADD SSTORE JUMPDEST PUSH1 0xC0 DUP2 ADD MLOAD DUP1 MLOAD SWAP1 PUSH9 0x10000000000000000 DUP3 GT PUSH4 0x336B JUMPI PUSH1 0x6 DUP5 ADD SLOAD DUP3 PUSH1 0x6 DUP7 ADD SSTORE DUP1 DUP4 LT PUSH4 0x58FD JUMPI JUMPDEST POP PUSH1 0x20 ADD SWAP1 PUSH1 0x6 DUP5 ADD PUSH1 0x0 MSTORE PUSH1 0x20 PUSH1 0x0 KECCAK256 SWAP2 PUSH1 0x0 SWAP1 JUMPDEST DUP3 DUP3 LT PUSH4 0x5403 JUMPI POP POP POP POP PUSH1 0xE0 DUP2 ADD MLOAD DUP1 MLOAD SWAP1 PUSH9 0x10000000000000000 DUP3 GT PUSH4 0x336B JUMPI PUSH1 0x7 DUP5 ADD SLOAD DUP3 PUSH1 0x7 DUP7 ADD SSTORE DUP1 DUP4 LT PUSH4 0x53C6 JUMPI JUMPDEST POP PUSH1 0x20 ADD SWAP1 PUSH1 0x7 DUP5 ADD PUSH1 0x0 MSTORE PUSH1 0x20 PUSH1 0x0 KECCAK256 SWAP2 PUSH1 0x0 SWAP1 JUMPDEST DUP3 DUP3 LT PUSH4 0x528F JUMPI POP POP POP POP PUSH2 0x100 DUP2 ADD MLOAD DUP1 MLOAD SWAP1 PUSH9 0x10000000000000000 DUP3 GT PUSH4 0x336B JUMPI PUSH1 0x8 DUP5 ADD SLOAD DUP3 PUSH1 0x8 DUP7 ADD SSTORE DUP1 DUP4 LT PUSH4 0x5252 JUMPI JUMPDEST POP PUSH1 0x20 ADD SWAP1 PUSH1 0x8 DUP5 ADD PUSH1 0x0 MSTORE PUSH1 0x20 PUSH1 0x0 KECCAK256 SWAP2 PUSH1 0x0 SWAP1 JUMPDEST DUP3 DUP3 LT PUSH4 0x511B JUMPI POP POP POP POP PUSH4 0x19BD PUSH2 0x120 DUP3 ADD MLOAD ISZERO ISZERO PUSH1 0x9 DUP5 ADD SWAP1 PUSH1 0xFF DUP1 NOT DUP4 SLOAD AND SWAP2 ISZERO ISZERO AND OR SWAP1 SSTORE JUMP JUMPDEST PUSH2 0x140 DUP2 ADD MLOAD PUSH1 0xA DUP4 ADD SSTORE PUSH2 0x160 DUP2 ADD MLOAD PUSH1 0xB DUP4 ADD SSTORE PUSH2 0x180 DUP2 ADD MLOAD DUP1 MLOAD SWAP1 PUSH1 0x1 PUSH1 0x1 PUSH1 0x40 SHL SUB DUP3 GT PUSH4 0x336B JUMPI PUSH4 0x19FD PUSH1 0xC DUP6 ADD SLOAD PUSH4 0x6F2E JUMP JUMPDEST PUSH1 0x1F DUP2 GT PUSH4 0x50DE JUMPI JUMPDEST POP PUSH1 0x20 SWAP1 PUSH1 0x1F DUP4 GT PUSH1 0x1 EQ PUSH4 0x5060 JUMPI PUSH2 0x1A0 SWAP4 SWAP3 SWAP2 PUSH1 0x0 SWAP2 DUP4 PUSH4 0x5053 JUMPI JUMPDEST POP POP DUP2 PUSH1 0x1 SHL SWAP2 PUSH1 0x0 NOT SWAP1 PUSH1 0x3 SHL SHR NOT AND OR PUSH1 0xC DUP5 ADD SSTORE JUMPDEST ADD MLOAD DUP1 MLOAD SWAP1 PUSH1 0x1 PUSH1 0x1 PUSH1 0x40 SHL SUB DUP3 GT PUSH4 0x336B JUMPI PUSH4 0x1A68 PUSH1 0xD DUP5 ADD SLOAD PUSH4 0x6F2E JUMP JUMPDEST PUSH1 0x1F DUP2 GT PUSH4 0x5016 JUMPI JUMPDEST POP PUSH1 0x20 SWAP1 PUSH1 0x1F DUP4 GT PUSH1 0x1 EQ PUSH4 0x4F9B JUMPI SWAP3 PUSH1 0xD DUP4 PUSH4 0x1ADE SWAP5 PUSH1 0x0 DUP1 MLOAD PUSH1 0x20 PUSH4 0xB57A DUP4 CODECOPY DUP2 MLOAD SWAP2 MSTORE SWAP8 SWAP5 PUSH4 0xEF1 SWAP8 PUSH1 0x0 SWAP3 PUSH4 0x327D JUMPI POP POP DUP2 PUSH1 0x1 SHL SWAP2 PUSH1 0x0 NOT SWAP1 PUSH1 0x3 SHL SHR NOT AND OR SWAP2 ADD SSTORE PUSH1 0x40 MLOAD PUSH1 0x20 DUP2 DUP4 MLOAD PUSH4 0xDF3 DUP2 DUP4 DUP6 DUP9 ADD PUSH4 0x6F07 JUMP JUMPDEST DUP2 ADD SUB SWAP1 KECCAK256 SWAP3 PUSH4 0x1B06 PUSH1 0x40 MLOAD SWAP3 DUP4 SWAP3 PUSH1 0x0 DUP5 MSTORE PUSH1 0x60 PUSH1 0x20 DUP6 ADD MSTORE PUSH1 0x60 DUP5 ADD SWAP1 PUSH4 0x7009 JUMP JUMPDEST SUB SWAP1 LOG3 PUSH1 0x40 MLOAD PUSH1 0x1 PUSH1 0x1 PUSH1 0x40 SHL SUB PUSH2 0x100 DUP3 ADD SWAP1 DUP2 GT SWAP1 DUP3 GT OR PUSH4 0x336B JUMPI PUSH2 0x100 DUP2 ADD PUSH1 0x40 MSTORE PUSH1 0x7 DUP2 MSTORE PUSH1 0x0 JUMPDEST PUSH1 0xE0 DUP2 LT PUSH4 0x4F59 JUMPI POP PUSH4 0x1B4C PUSH4 0x6BBB JUMP JUMPDEST PUSH4 0x1B58 PUSH4 0x6BFE JUMP JUMPDEST PUSH1 0x4 DUP2 MSTORE PUSH4 0x6E616D65 PUSH1 0xE0 SHL PUSH1 0x20 DUP3 ADD MSTORE DUP2 MSTORE PUSH1 0x0 PUSH1 0x20 DUP3 ADD MSTORE PUSH1 0x1 PUSH1 0x40 DUP3 ADD MSTORE PUSH4 0x1B85 PUSH4 0x6BFE JUMP JUMPDEST PUSH1 0xA DUP2 MSTORE PUSH10 0x546F6B656E206E616D65 PUSH1 0xB0 SHL PUSH1 0x20 DUP3 ADD MSTORE PUSH1 0x60 DUP3 ADD MSTORE PUSH4 0x1BAD PUSH4 0x6BFE JUMP JUMPDEST SWAP1 PUSH1 0x10 DUP3 MSTORE PUSH16 0x6E6F6E2D656D70747920737472696E67 PUSH1 0x80 SHL SWAP2 DUP3 PUSH1 0x20 DUP3 ADD MSTORE PUSH1 0x80 DUP3 ADD MSTORE PUSH4 0x1BDE PUSH4 0x6C40 JUMP JUMPDEST PUSH1 0x0 DUP2 MSTORE PUSH1 0xA0 DUP3 ADD MSTORE PUSH4 0x1BF4 DUP4 PUSH4 0x6C61 JUMP JUMPDEST MSTORE PUSH4 0x1C02 DUP3 PUSH4 0x6C61 JUMP JUMPDEST POP PUSH4 0x1C0F PUSH4 0x6BBB JUMP JUMPDEST SWAP1 PUSH4 0x1C1C PUSH4 0x6BFE JUMP JUMPDEST PUSH1 0x6 DUP2 MSTORE PUSH6 0x1CDE5B589BDB PUSH1 0xD2 SHL PUSH1 0x20 DUP3 ADD MSTORE DUP3 MSTORE PUSH1 0x0 PUSH1 0x20 DUP4 ADD MSTORE PUSH1 0x1 PUSH1 0x40 DUP4 ADD MSTORE PUSH4 0x1C4B PUSH4 0x6BFE JUMP JUMPDEST PUSH1 0xC DUP2 MSTORE PUSH12 0x151BDAD95B881CDE5B589BDB PUSH1 0xA2 SHL PUSH1 0x20 DUP3 ADD MSTORE PUSH1 0x60 DUP4 ADD MSTORE PUSH4 0x1C75 PUSH4 0x6BFE JUMP JUMPDEST SWAP1 PUSH1 0x10 DUP3 MSTORE PUSH1 0x20 DUP3 ADD MSTORE PUSH1 0x80 DUP3 ADD MSTORE PUSH4 0x1C90 PUSH4 0x6C40 JUMP JUMPDEST PUSH1 0x0 DUP2 MSTORE PUSH1 0xA0 DUP3 ADD MSTORE PUSH4 0x1CA6 DUP3 PUSH4 0x6C86 JUMP JUMPDEST MSTORE PUSH4 0x1CB4 DUP2 PUSH4 0x6C86 JUMP JUMPDEST POP PUSH4 0x1CC1 PUSH4 0x6BBB JUMP JUMPDEST PUSH4 0x1CCD PUSH4 0x6BFE JUMP JUMPDEST PUSH1 0x8 DUP2 MSTORE PUSH8 0x646563696D616C73 PUSH1 0xC0 SHL PUSH1 0x20 DUP3 ADD MSTORE DUP2 MSTORE PUSH1 0x1 PUSH1 0x20 DUP3 ADD MSTORE PUSH1 0x1 PUSH1 0x40 DUP3 ADD MSTORE PUSH4 0x1CFE PUSH4 0x6BFE JUMP JUMPDEST PUSH1 0xE DUP2 MSTORE PUSH14 0x546F6B656E20646563696D616C73 PUSH1 0x90 SHL PUSH1 0x20 DUP3 ADD MSTORE PUSH1 0x60 DUP3 ADD MSTORE PUSH4 0x1D2A PUSH4 0x6BFE JUMP JUMPDEST PUSH1 0xD DUP2 MSTORE PUSH13 0x7C7A4060404C4C40787A40627 PUSH1 0x9B SHL PUSH1 0x20 DUP3 ADD MSTORE PUSH1 0x80 DUP3 ADD MSTORE PUSH4 0x1D55 PUSH4 0x6BFE JUMP JUMPDEST PUSH1 0x2 DUP2 MSTORE PUSH2 0x627 PUSH1 0xF3 SHL PUSH1 0x20 DUP3 ADD MSTORE PUSH1 0xA0 DUP3 ADD MSTORE PUSH4 0x1D76 DUP3 PUSH4 0x6C98 JUMP JUMPDEST MSTORE PUSH4 0x1D84 DUP2 PUSH4 0x6C98 JUMP JUMPDEST POP PUSH4 0x1D91 PUSH4 0x6BBB JUMP JUMPDEST PUSH4 0x1D9D PUSH4 0x6BFE JUMP JUMPDEST PUSH1 0xB DUP2 MSTORE PUSH11 0x746F74616C537570706C79 PUSH1 0xA8 SHL PUSH1 0x20 DUP3 ADD MSTORE DUP2 MSTORE PUSH1 0x1 PUSH1 0x20 DUP3 ADD MSTORE PUSH1 0x1 PUSH1 0x40 DUP3 ADD MSTORE PUSH4 0x1DD1 PUSH4 0x6BFE JUMP JUMPDEST PUSH1 0x12 DUP2 MSTORE PUSH18 0x546F74616C20746F6B656E20737570706C79 PUSH1 0x70 SHL PUSH1 0x20 DUP3 ADD MSTORE PUSH1 0x60 DUP3 ADD MSTORE PUSH4 0x1E01 PUSH4 0x6BFE JUMP JUMPDEST PUSH1 0x4 DUP2 MSTORE PUSH4 0x3E3D203 PUSH1 0xE4 SHL PUSH1 0x20 DUP3 ADD MSTORE PUSH1 0x80 DUP3 ADD MSTORE PUSH4 0x1E23 PUSH4 0x6BFE JUMP JUMPDEST PUSH1 0x1 DUP2 MSTORE PUSH1 0x3 PUSH1 0xFC SHL PUSH1 0x20 DUP3 ADD MSTORE PUSH1 0xA0 DUP3 ADD MSTORE PUSH4 0x1E43 DUP3 PUSH4 0x6CAA JUMP JUMPDEST MSTORE PUSH4 0x1E51 DUP2 PUSH4 0x6CAA JUMP JUMPDEST POP PUSH4 0x1E5E PUSH4 0x6BBB JUMP JUMPDEST PUSH4 0x1E6A PUSH4 0x6BFE JUMP JUMPDEST PUSH1 0xF DUP2 MSTORE PUSH15 0x636F6E747261637441646472657373 PUSH1 0x88 SHL PUSH1 0x20 DUP3 ADD MSTORE DUP2 MSTORE PUSH1 0x2 PUSH1 0x20 DUP3 ADD MSTORE PUSH1 0x1 PUSH1 0x40 DUP3 ADD MSTORE PUSH4 0x1EA2 PUSH4 0x6BFE JUMP JUMPDEST PUSH1 0x16 DUP2 MSTORE PUSH32 0x546F6B656E20636F6E7472616374206164647265737300000000000000000000 PUSH1 0x20 DUP3 ADD MSTORE PUSH1 0x60 DUP3 ADD MSTORE PUSH4 0x1EDD PUSH4 0x6BFE JUMP JUMPDEST PUSH1 0x10 DUP2 MSTORE PUSH16 0x6E6F6E2D7A65726F2061646472657373 PUSH1 0x80 SHL PUSH1 0x20 DUP3 ADD MSTORE PUSH1 0x80 DUP3 ADD MSTORE PUSH4 0x1F0B PUSH4 0x6D05 JUMP JUMPDEST PUSH1 0xA0 DUP3 ADD MSTORE PUSH4 0x1F1D DUP3 PUSH4 0x6CBC JUMP JUMPDEST MSTORE PUSH4 0x1F2B DUP2 PUSH4 0x6CBC JUMP JUMPDEST POP PUSH4 0x1F38 PUSH4 0x6BBB JUMP JUMPDEST PUSH4 0x1F44 PUSH4 0x6BFE JUMP JUMPDEST PUSH1 0x11 DUP2 MSTORE PUSH17 0x34B9A3B7BB32B93730B731B2AA37B5B2B7 PUSH1 0x79 SHL PUSH1 0x20 DUP3 ADD MSTORE DUP2 MSTORE PUSH1 0x3 PUSH1 0x20 DUP3 ADD MSTORE PUSH1 0x1 PUSH1 0x40 DUP3 ADD MSTORE PUSH4 0x1F7E PUSH4 0x6C1F JUMP JUMPDEST PUSH1 0x24 DUP2 MSTORE PUSH32 0x5768657468657220746869732069732074686520676F7665726E616E63652074 PUSH1 0x20 DUP3 ADD MSTORE PUSH4 0x37B5B2B7 PUSH1 0xE1 SHL PUSH1 0x40 DUP3 ADD MSTORE PUSH1 0x60 DUP3 ADD MSTORE PUSH4 0x1FC6 PUSH4 0x6BFE JUMP JUMPDEST PUSH1 0x7 DUP2 MSTORE PUSH7 0x3137B7B632B0B7 PUSH1 0xC9 SHL PUSH1 0x20 DUP3 ADD MSTORE PUSH1 0x80 DUP3 ADD MSTORE PUSH4 0x1FEB PUSH4 0x6BFE JUMP JUMPDEST PUSH1 0x5 DUP2 MSTORE PUSH5 0x66616C7365 PUSH1 0xD8 SHL PUSH1 0x20 DUP3 ADD MSTORE PUSH1 0xA0 DUP3 ADD MSTORE PUSH4 0x200F DUP3 PUSH4 0x6CCE JUMP JUMPDEST MSTORE PUSH4 0x201D DUP2 PUSH4 0x6CCE JUMP JUMPDEST POP PUSH4 0x202A PUSH4 0x6BBB JUMP JUMPDEST PUSH4 0x2036 PUSH4 0x6BFE JUMP JUMPDEST PUSH1 0x7 DUP2 MSTORE PUSH7 0x686F6C64657273 PUSH1 0xC8 SHL PUSH1 0x20 DUP3 ADD MSTORE DUP2 MSTORE PUSH1 0x1 PUSH1 0x20 DUP3 ADD MSTORE PUSH1 0x1 PUSH1 0x40 DUP3 ADD MSTORE PUSH4 0x2066 PUSH4 0x6BFE JUMP JUMPDEST PUSH1 0x17 DUP2 MSTORE PUSH32 0x4E756D626572206F6620746F6B656E20686F6C64657273000000000000000000 PUSH1 0x20 DUP3 ADD MSTORE PUSH1 0x60 DUP3 ADD MSTORE PUSH4 0x20A1 PUSH4 0x6BFE JUMP JUMPDEST PUSH1 0x4 DUP2 MSTORE PUSH4 0x3E3D203 PUSH1 0xE4 SHL PUSH1 0x20 DUP3 ADD MSTORE PUSH1 0x80 DUP3 ADD MSTORE PUSH4 0x20C3 PUSH4 0x6BFE JUMP JUMPDEST PUSH1 0x1 DUP2 MSTORE PUSH1 0x3 PUSH1 0xFC SHL PUSH1 0x20 DUP3 ADD MSTORE PUSH1 0xA0 DUP3 ADD MSTORE PUSH4 0x20E3 DUP3 PUSH4 0x6CE0 JUMP JUMPDEST MSTORE PUSH4 0x20F1 DUP2 PUSH4 0x6CE0 JUMP JUMPDEST POP PUSH4 0x20FE PUSH4 0x6D51 JUMP JUMPDEST PUSH4 0x210A PUSH4 0x6E6F JUMP JUMPDEST SWAP2 PUSH4 0x2117 PUSH4 0x6BFE JUMP JUMPDEST SWAP1 PUSH1 0x5 DUP3 MSTORE PUSH5 0x3A37B5B2B7 PUSH1 0xD9 SHL PUSH1 0x20 DUP4 ADD MSTORE PUSH4 0x2136 PUSH4 0x6BFE JUMP JUMPDEST SWAP3 PUSH1 0x13 DUP5 MSTORE PUSH1 0x0 DUP1 MLOAD PUSH1 0x20 PUSH4 0xB55A DUP4 CODECOPY DUP2 MLOAD SWAP2 MSTORE PUSH1 0x20 DUP6 ADD MSTORE PUSH4 0x215D PUSH4 0x6C1F JUMP JUMPDEST SWAP2 PUSH1 0x26 DUP4 MSTORE PUSH32 0x546F6B656E206D616E6167656D656E7420736368656D6120666F722044414F20 PUSH1 0x20 DUP5 ADD MSTORE PUSH6 0x746F6B656E73 PUSH1 0xD0 SHL PUSH1 0x40 DUP5 ADD MSTORE PUSH4 0x21A3 PUSH4 0x6BFE JUMP JUMPDEST SWAP6 PUSH1 0x5 DUP8 MSTORE PUSH5 0x312E302E3 PUSH1 0xDC SHL PUSH1 0x20 DUP9 ADD MSTORE PUSH4 0x21C2 PUSH4 0x6BFE JUMP JUMPDEST SWAP3 PUSH1 0x6 DUP5 MSTORE PUSH6 0x24AA37B5B2B7 PUSH1 0xD1 SHL PUSH1 0x20 DUP6 ADD MSTORE PUSH4 0x21E2 PUSH4 0x6BFE JUMP JUMPDEST SWAP3 PUSH1 0xD DUP5 MSTORE PUSH13 0x17B0B83497BB1897BA37B5B2B7 PUSH1 0x99 SHL PUSH1 0x20 DUP6 ADD MSTORE PUSH4 0x2209 PUSH4 0x6C1F JUMP JUMPDEST SWAP5 PUSH1 0x2B DUP7 MSTORE PUSH1 0x0 DUP1 MLOAD PUSH1 0x20 PUSH4 0xB53A DUP4 CODECOPY DUP2 MLOAD SWAP2 MSTORE PUSH1 0x20 DUP8 ADD MSTORE PUSH11 0x3432B6B0B997BA37B5B2B7 PUSH1 0xA9 SHL PUSH1 0x40 DUP8 ADD MSTORE DUP8 MLOAD ISZERO PUSH4 0x4106 JUMPI PUSH1 0xFF PUSH1 0x40 MLOAD PUSH1 0x20 DUP2 DUP2 PUSH4 0x225E DUP14 DUP4 DUP2 MLOAD SWAP4 DUP5 SWAP3 ADD PUSH4 0x6F07 JUMP JUMPDEST DUP2 ADD PUSH1 0x3 DUP2 MSTORE SUB ADD SWAP1 KECCAK256 SLOAD AND PUSH4 0x40C1 JUMPI PUSH4 0x227C PUSH4 0x6BDC JUMP JUMPDEST SWAP7 DUP9 DUP9 MSTORE PUSH1 0x0 PUSH1 0x20 DUP10 ADD MSTORE DUP10 PUSH1 0x40 DUP10 ADD MSTORE PUSH1 0x60 DUP9 ADD MSTORE DUP10 PUSH1 0x80 DUP9 ADD MSTORE PUSH1 0xA0 DUP8 ADD MSTORE PUSH1 0xC0 DUP7 ADD MSTORE PUSH1 0xE0 DUP6 ADD MSTORE PUSH2 0x100 DUP5 ADD MSTORE PUSH1 0x1 PUSH2 0x120 DUP5 ADD MSTORE TIMESTAMP PUSH2 0x140 DUP5 ADD MSTORE TIMESTAMP PUSH2 0x160 DUP5 ADD MSTORE PUSH2 0x180 DUP4 ADD MSTORE PUSH2 0x1A0 DUP3 ADD MSTORE PUSH1 0x40 MLOAD PUSH1 0x20 DUP2 DUP5 MLOAD PUSH4 0x22E8 DUP2 DUP4 DUP6 DUP10 ADD PUSH4 0x6F07 JUMP JUMPDEST DUP2 ADD PUSH1 0x2 DUP2 MSTORE SUB ADD SWAP1 KECCAK256 SWAP1 DUP1 MLOAD DUP1 MLOAD SWAP1 PUSH1 0x1 DUP1 PUSH1 0x40 SHL SUB DUP3 GT PUSH4 0x336B JUMPI DUP2 SWAP1 PUSH4 0x2317 DUP6 SLOAD PUSH4 0x6F2E JUMP JUMPDEST PUSH1 0x1F DUP2 GT PUSH4 0x4F1F JUMPI JUMPDEST POP PUSH1 0x20 SWAP1 PUSH1 0x1F DUP4 GT PUSH1 0x1 EQ PUSH4 0x4EA9 JUMPI PUSH1 0x0 SWAP3 PUSH4 0x4E9C JUMPI JUMPDEST POP POP DUP2 PUSH1 0x1 SHL SWAP2 PUSH1 0x0 NOT SWAP1 PUSH1 0x3 SHL SHR NOT AND OR DUP3 SSTORE JUMPDEST PUSH1 0x20 DUP2 ADD MLOAD PUSH1 0x4 DUP2 LT ISZERO PUSH4 0x3B6E JUMPI PUSH4 0x2373 SWAP1 PUSH1 0x1 DUP5 ADD PUSH4 0x6F89 JUMP JUMPDEST PUSH1 0x40 DUP2 ADD MLOAD DUP1 MLOAD SWAP1 PUSH1 0x1 PUSH1 0x1 PUSH1 0x40 SHL SUB DUP3 GT PUSH4 0x336B JUMPI DUP2 SWAP1 PUSH4 0x239E PUSH1 0x2 DUP7 ADD SLOAD PUSH4 0x6F2E JUMP JUMPDEST PUSH1 0x1F DUP2 GT PUSH4 0x4E5F JUMPI JUMPDEST POP PUSH1 0x20 SWAP1 PUSH1 0x1F DUP4 GT PUSH1 0x1 EQ PUSH4 0x4DE3 JUMPI PUSH1 0x0 SWAP3 PUSH4 0x4DD6 JUMPI JUMPDEST POP POP DUP2 PUSH1 0x1 SHL SWAP2 PUSH1 0x0 NOT SWAP1 PUSH1 0x3 SHL SHR NOT AND OR PUSH1 0x2 DUP4 ADD SSTORE JUMPDEST PUSH1 0x60 DUP2 ADD MLOAD DUP1 MLOAD SWAP1 PUSH1 0x1 PUSH1 0x1 PUSH1 0x40 SHL SUB DUP3 GT PUSH4 0x336B JUMPI DUP2 SWAP1 PUSH4 0x2407 PUSH1 0x3 DUP7 ADD SLOAD PUSH4 0x6F2E JUMP JUMPDEST PUSH1 0x1F DUP2 GT PUSH4 0x4D99 JUMPI JUMPDEST POP PUSH1 0x20 SWAP1 PUSH1 0x1F DUP4 GT PUSH1 0x1 EQ PUSH4 0x4D1D JUMPI PUSH1 0x0 SWAP3 PUSH4 0x4D10 JUMPI JUMPDEST POP POP DUP2 PUSH1 0x1 SHL SWAP2 PUSH1 0x0 NOT SWAP1 PUSH1 0x3 SHL SHR NOT AND OR PUSH1 0x3 DUP4 ADD SSTORE JUMPDEST PUSH1 0x80 DUP2 ADD MLOAD DUP1 MLOAD SWAP1 PUSH1 0x1 PUSH1 0x1 PUSH1 0x40 SHL SUB DUP3 GT PUSH4 0x336B JUMPI DUP2 SWAP1 PUSH4 0x2470 PUSH1 0x4 DUP7 ADD SLOAD PUSH4 0x6F2E JUMP JUMPDEST PUSH1 0x1F DUP2 GT PUSH4 0x4CD3 JUMPI JUMPDEST POP PUSH1 0x20 SWAP1 PUSH1 0x1F DUP4 GT PUSH1 0x1 EQ PUSH4 0x4C57 JUMPI PUSH1 0x0 SWAP3 PUSH4 0x4C4A JUMPI JUMPDEST POP POP DUP2 PUSH1 0x1 SHL SWAP2 PUSH1 0x0 NOT SWAP1 PUSH1 0x3 SHL SHR NOT AND OR PUSH1 0x4 DUP4 ADD SSTORE JUMPDEST PUSH1 0xA0 DUP2 ADD MLOAD DUP1 MLOAD SWAP1 PUSH1 0x1 PUSH1 0x1 PUSH1 0x40 SHL SUB DUP3 GT PUSH4 0x336B JUMPI DUP2 SWAP1 PUSH4 0x24D9 PUSH1 0x5 DUP7 ADD SLOAD PUSH4 0x6F2E JUMP JUMPDEST PUSH1 0x1F DUP2 GT PUSH4 0x4C0D JUMPI JUMPDEST POP PUSH1 0x20 SWAP1 PUSH1 0x1F DUP4 GT PUSH1 0x1 EQ PUSH4 0x4B91 JUMPI PUSH1 0x0 SWAP3 PUSH4 0x4B84 JUMPI JUMPDEST POP POP DUP2 PUSH1 0x1 SHL SWAP2 PUSH1 0x0 NOT SWAP1 PUSH1 0x3 SHL SHR NOT AND OR PUSH1 0x5 DUP4 ADD SSTORE JUMPDEST PUSH1 0xC0 DUP2 ADD MLOAD DUP1 MLOAD SWAP1 PUSH9 0x10000000000000000 DUP3 GT PUSH4 0x336B JUMPI PUSH1 0x6 DUP5 ADD SLOAD DUP3 PUSH1 0x6 DUP7 ADD SSTORE DUP1 DUP4 LT PUSH4 0x4AEF JUMPI JUMPDEST POP PUSH1 0x20 ADD SWAP1 PUSH1 0x6 DUP5 ADD PUSH1 0x0 MSTORE PUSH1 0x20 PUSH1 0x0 KECCAK256 SWAP2 PUSH1 0x0 SWAP1 JUMPDEST DUP3 DUP3 LT PUSH4 0x45F5 JUMPI POP POP POP POP PUSH1 0xE0 DUP2 ADD MLOAD DUP1 MLOAD SWAP1 PUSH9 0x10000000000000000 DUP3 GT PUSH4 0x336B JUMPI PUSH1 0x7 DUP5 ADD SLOAD DUP3 PUSH1 0x7 DUP7 ADD SSTORE DUP1 DUP4 LT PUSH4 0x45B8 JUMPI JUMPDEST POP PUSH1 0x20 ADD SWAP1 PUSH1 0x7 DUP5 ADD PUSH1 0x0 MSTORE PUSH1 0x20 PUSH1 0x0 KECCAK256 SWAP2 PUSH1 0x0 SWAP1 JUMPDEST DUP3 DUP3 LT PUSH4 0x4481 JUMPI POP POP POP POP PUSH2 0x100 DUP2 ADD MLOAD DUP1 MLOAD SWAP1 PUSH9 0x10000000000000000 DUP3 GT PUSH4 0x336B JUMPI PUSH1 0x8 DUP5 ADD SLOAD DUP3 PUSH1 0x8 DUP7 ADD SSTORE DUP1 DUP4 LT PUSH4 0x4444 JUMPI JUMPDEST POP PUSH1 0x20 ADD SWAP1 PUSH1 0x8 DUP5 ADD PUSH1 0x0 MSTORE PUSH1 0x20 PUSH1 0x0 KECCAK256 SWAP2 PUSH1 0x0 SWAP1 JUMPDEST DUP3 DUP3 LT PUSH4 0x430D JUMPI POP POP POP POP PUSH4 0x2630 PUSH2 0x120 DUP3 ADD MLOAD ISZERO ISZERO PUSH1 0x9 DUP5 ADD SWAP1 PUSH1 0xFF DUP1 NOT DUP4 SLOAD AND SWAP2 ISZERO ISZERO AND OR SWAP1 SSTORE JUMP JUMPDEST PUSH2 0x140 DUP2 ADD MLOAD PUSH1 0xA DUP4 ADD SSTORE PUSH2 0x160 DUP2 ADD MLOAD PUSH1 0xB DUP4 ADD SSTORE PUSH2 0x180 DUP2 ADD MLOAD DUP1 MLOAD SWAP1 PUSH1 0x1 PUSH1 0x1 PUSH1 0x40 SHL SUB DUP3 GT PUSH4 0x336B JUMPI PUSH4 0x2670 PUSH1 0xC DUP6 ADD SLOAD PUSH4 0x6F2E JUMP JUMPDEST PUSH1 0x1F DUP2 GT PUSH4 0x42D0 JUMPI JUMPDEST POP PUSH1 0x20 SWAP1 PUSH1 0x1F DUP4 GT PUSH1 0x1 EQ PUSH4 0x4252 JUMPI PUSH2 0x1A0 SWAP4 SWAP3 SWAP2 PUSH1 0x0 SWAP2 DUP4 PUSH4 0x4245 JUMPI JUMPDEST POP POP DUP2 PUSH1 0x1 SHL SWAP2 PUSH1 0x0 NOT SWAP1 PUSH1 0x3 SHL SHR NOT AND OR PUSH1 0xC DUP5 ADD SSTORE JUMPDEST ADD MLOAD DUP1 MLOAD SWAP1 PUSH1 0x1 PUSH1 0x1 PUSH1 0x40 SHL SUB DUP3 GT PUSH4 0x336B JUMPI PUSH4 0x26DB PUSH1 0xD DUP5 ADD SLOAD PUSH4 0x6F2E JUMP JUMPDEST PUSH1 0x1F DUP2 GT PUSH4 0x4208 JUMPI JUMPDEST POP PUSH1 0x20 SWAP1 PUSH1 0x1F DUP4 GT PUSH1 0x1 EQ PUSH4 0x418D JUMPI SWAP3 PUSH1 0xD DUP4 PUSH4 0x2751 SWAP5 PUSH1 0x0 DUP1 MLOAD PUSH1 0x20 PUSH4 0xB57A DUP4 CODECOPY DUP2 MLOAD SWAP2 MSTORE SWAP8 SWAP5 PUSH4 0xEF1 SWAP8 PUSH1 0x0 SWAP3 PUSH4 0x327D JUMPI POP POP DUP2 PUSH1 0x1 SHL SWAP2 PUSH1 0x0 NOT SWAP1 PUSH1 0x3 SHL SHR NOT AND OR SWAP2 ADD SSTORE PUSH1 0x40 MLOAD PUSH1 0x20 DUP2 DUP4 MLOAD PUSH4 0xDF3 DUP2 DUP4 DUP6 DUP9 ADD PUSH4 0x6F07 JUMP JUMPDEST DUP2 ADD SUB SWAP1 KECCAK256 SWAP3 PUSH4 0x2779 PUSH1 0x40 MLOAD SWAP3 DUP4 SWAP3 PUSH1 0x0 DUP5 MSTORE PUSH1 0x60 PUSH1 0x20 DUP6 ADD MSTORE PUSH1 0x60 DUP5 ADD SWAP1 PUSH4 0x7009 JUMP JUMPDEST SUB SWAP1 LOG3 PUSH4 0x2788 PUSH4 0x6BBB JUMP JUMPDEST PUSH1 0x5 DUP2 MSTORE PUSH1 0x0 JUMPDEST PUSH1 0xA0 DUP2 LT PUSH4 0x414B JUMPI POP PUSH4 0x27A6 PUSH4 0x6BBB JUMP JUMPDEST PUSH4 0x27B2 PUSH4 0x6BFE JUMP JUMPDEST PUSH1 0x7 DUP2 MSTORE PUSH7 0x18985CD9555C9B PUSH1 0xCA SHL PUSH1 0x20 DUP3 ADD MSTORE DUP2 MSTORE PUSH1 0x0 PUSH1 0x20 DUP3 ADD MSTORE PUSH1 0x1 PUSH1 0x40 DUP3 ADD MSTORE PUSH4 0x27E2 PUSH4 0x6BFE JUMP JUMPDEST PUSH1 0xC DUP2 MSTORE PUSH12 0x10985CD94810541248155493 PUSH1 0xA2 SHL PUSH1 0x20 DUP3 ADD MSTORE PUSH1 0x60 DUP3 ADD MSTORE PUSH4 0x280C PUSH4 0x6BFE JUMP JUMPDEST PUSH1 0x10 DUP2 MSTORE PUSH16 0x1D985B1A590815549308199BDC9B585D PUSH1 0x82 SHL PUSH1 0x20 DUP3 ADD MSTORE PUSH1 0x80 DUP3 ADD MSTORE PUSH4 0x283A PUSH4 0x6C40 JUMP JUMPDEST PUSH1 0x0 DUP2 MSTORE PUSH1 0xA0 DUP3 ADD MSTORE PUSH4 0x2850 DUP3 PUSH4 0x6C61 JUMP JUMPDEST MSTORE PUSH4 0x285E DUP2 PUSH4 0x6C61 JUMP JUMPDEST POP PUSH4 0x286B PUSH4 0x6BBB JUMP JUMPDEST PUSH4 0x2877 PUSH4 0x6BFE JUMP JUMPDEST PUSH1 0x7 DUP2 MSTORE PUSH7 0x3B32B939B4B7B7 PUSH1 0xC9 SHL PUSH1 0x20 DUP3 ADD MSTORE DUP2 MSTORE PUSH1 0x0 PUSH1 0x20 DUP3 ADD MSTORE PUSH1 0x1 PUSH1 0x40 DUP3 ADD MSTORE PUSH4 0x28A7 PUSH4 0x6BFE JUMP JUMPDEST PUSH1 0xB DUP2 MSTORE PUSH11 0x20A824903B32B939B4B7B7 PUSH1 0xA9 SHL PUSH1 0x20 DUP3 ADD MSTORE PUSH1 0x60 DUP3 ADD MSTORE PUSH4 0x28D0 PUSH4 0x6BFE JUMP JUMPDEST PUSH1 0x10 DUP2 MSTORE PUSH16 0x39B2B6B0B73A34B1903B32B939B4B7B7 PUSH1 0x81 SHL PUSH1 0x20 DUP3 ADD MSTORE PUSH1 0x80 DUP3 ADD MSTORE PUSH4 0x28FE PUSH4 0x6BFE JUMP JUMPDEST PUSH1 0x2 DUP2 MSTORE PUSH2 0x7631 PUSH1 0xF0 SHL PUSH1 0x20 DUP3 ADD MSTORE PUSH1 0xA0 DUP3 ADD MSTORE PUSH4 0x291F DUP3 PUSH4 0x6C86 JUMP JUMPDEST MSTORE PUSH4 0x292D DUP2 PUSH4 0x6C86 JUMP JUMPDEST POP PUSH4 0x293A PUSH4 0x6BBB JUMP JUMPDEST PUSH4 0x2946 PUSH4 0x6BFE JUMP JUMPDEST PUSH1 0x9 DUP2 MSTORE PUSH9 0x656E64706F696E7473 PUSH1 0xB8 SHL PUSH1 0x20 DUP3 ADD MSTORE DUP2 MSTORE PUSH1 0x5 PUSH1 0x20 DUP3 ADD MSTORE PUSH1 0x1 PUSH1 0x40 DUP3 ADD MSTORE PUSH4 0x2978 PUSH4 0x6BFE JUMP JUMPDEST PUSH1 0x17 DUP2 MSTORE PUSH32 0x417661696C61626C652041504920656E64706F696E7473000000000000000000 PUSH1 0x20 DUP3 ADD MSTORE PUSH1 0x60 DUP3 ADD MSTORE PUSH4 0x29B3 PUSH4 0x6BFE JUMP JUMPDEST PUSH1 0x10 DUP2 MSTORE PUSH16 0x6172726179206F6620737472696E6773 PUSH1 0x80 SHL PUSH1 0x20 DUP3 ADD MSTORE PUSH1 0x80 DUP3 ADD MSTORE PUSH4 0x29E1 PUSH4 0x6BFE JUMP JUMPDEST PUSH1 0x2 DUP2 MSTORE PUSH2 0x5B5D PUSH1 0xF0 SHL PUSH1 0x20 DUP3 ADD MSTORE PUSH1 0xA0 DUP3 ADD MSTORE PUSH4 0x2A02 DUP3 PUSH4 0x6C98 JUMP JUMPDEST MSTORE PUSH4 0x2A10 DUP2 PUSH4 0x6C98 JUMP JUMPDEST POP PUSH4 0x2A1D PUSH4 0x6BBB JUMP JUMPDEST PUSH4 0x2A29 PUSH4 0x6BFE JUMP JUMPDEST PUSH1 0x9 DUP2 MSTORE PUSH9 0x1C985D19531A5B5A5D PUSH1 0xBA SHL PUSH1 0x20 DUP3 ADD MSTORE DUP2 MSTORE PUSH1 0x1 PUSH1 0x20 DUP3 ADD MSTORE PUSH1 0x1 PUSH1 0x40 DUP3 ADD MSTORE PUSH4 0x2A5B PUSH4 0x6BFE JUMP JUMPDEST PUSH1 0x15 DUP2 MSTORE PUSH32 0x52617465206C696D697420706572206D696E7574650000000000000000000000 PUSH1 0x20 DUP3 ADD MSTORE PUSH1 0x60 DUP3 ADD MSTORE PUSH4 0x2A96 PUSH4 0x6BFE JUMP JUMPDEST PUSH1 0x3 DUP2 MSTORE PUSH3 0x3E203 PUSH1 0xEC SHL PUSH1 0x20 DUP3 ADD MSTORE PUSH1 0x80 DUP3 ADD MSTORE PUSH4 0x2AB7 PUSH4 0x6BFE JUMP JUMPDEST PUSH1 0x4 DUP2 MSTORE PUSH4 0x3130303 PUSH1 0xE4 SHL PUSH1 0x20 DUP3 ADD MSTORE PUSH1 0xA0 DUP3 ADD MSTORE PUSH4 0x2ADA DUP3 PUSH4 0x6CAA JUMP JUMPDEST MSTORE PUSH4 0x2AE8 DUP2 PUSH4 0x6CAA JUMP JUMPDEST POP PUSH4 0x2AF5 PUSH4 0x6BBB JUMP JUMPDEST PUSH4 0x2B01 PUSH4 0x6BFE JUMP JUMPDEST PUSH1 0xE DUP2 MSTORE PUSH14 0x30BABA3432B73A34B1B0BA34B7B7 PUSH1 0x91 SHL PUSH1 0x20 DUP3 ADD MSTORE DUP2 MSTORE PUSH1 0x0 PUSH1 0x20 DUP3 ADD MSTORE PUSH1 0x0 PUSH1 0x40 DUP3 ADD MSTORE PUSH4 0x2B38 PUSH4 0x6BFE JUMP JUMPDEST PUSH1 0x15 DUP2 MSTORE PUSH32 0x41757468656E7469636174696F6E206D6574686F640000000000000000000000 PUSH1 0x20 DUP3 ADD MSTORE PUSH1 0x60 DUP3 ADD MSTORE PUSH4 0x2B73 PUSH4 0x6BFE JUMP JUMPDEST PUSH1 0xF DUP2 MSTORE PUSH15 0x6F7074696F6E616C20737472696E67 PUSH1 0x88 SHL PUSH1 0x20 DUP3 ADD MSTORE PUSH1 0x80 DUP3 ADD MSTORE PUSH4 0x2BA0 PUSH4 0x6BFE JUMP JUMPDEST PUSH1 0x4 DUP2 MSTORE PUSH4 0x6E6F6E65 PUSH1 0xE0 SHL PUSH1 0x20 DUP3 ADD MSTORE PUSH1 0xA0 DUP3 ADD MSTORE PUSH4 0x2BC3 DUP3 PUSH4 0x6CBC JUMP JUMPDEST MSTORE PUSH4 0x2BD1 DUP2 PUSH4 0x6CBC JUMP JUMPDEST POP PUSH4 0x2BDE PUSH4 0x6D51 JUMP JUMPDEST PUSH4 0x2BEA PUSH4 0x6E6F JUMP JUMPDEST SWAP2 PUSH4 0x2BF7 PUSH4 0x6BFE JUMP JUMPDEST SWAP1 PUSH1 0x3 DUP3 MSTORE PUSH3 0x617069 PUSH1 0xE8 SHL PUSH1 0x20 DUP4 ADD MSTORE PUSH4 0x2C14 PUSH4 0x6BFE JUMP JUMPDEST SWAP3 PUSH1 0x13 DUP5 MSTORE PUSH1 0x0 DUP1 MLOAD PUSH1 0x20 PUSH4 0xB55A DUP4 CODECOPY DUP2 MLOAD SWAP2 MSTORE PUSH1 0x20 DUP6 ADD MSTORE PUSH4 0x2C3B PUSH4 0x6C1F JUMP JUMPDEST SWAP2 PUSH1 0x25 DUP4 MSTORE PUSH32 0x41504920656E64706F696E747320736368656D6120666F722044414F20736572 PUSH1 0x20 DUP5 ADD MSTORE PUSH5 0x7669636573 PUSH1 0xD8 SHL PUSH1 0x40 DUP5 ADD MSTORE PUSH4 0x2C80 PUSH4 0x6BFE JUMP JUMPDEST SWAP6 PUSH1 0x5 DUP8 MSTORE PUSH5 0x312E302E3 PUSH1 0xDC SHL PUSH1 0x20 DUP9 ADD MSTORE PUSH4 0x2C9F PUSH4 0x6BFE JUMP JUMPDEST SWAP3 PUSH1 0x4 DUP5 MSTORE PUSH4 0x49415049 PUSH1 0xE0 SHL PUSH1 0x20 DUP6 ADD MSTORE PUSH4 0x2CBD PUSH4 0x6BFE JUMP JUMPDEST SWAP3 PUSH1 0xB DUP5 MSTORE PUSH11 0x2F6170692F76312F617069 PUSH1 0xA8 SHL PUSH1 0x20 DUP6 ADD MSTORE PUSH4 0x2CE2 PUSH4 0x6C1F JUMP JUMPDEST SWAP5 PUSH1 0x29 DUP7 MSTORE PUSH1 0x0 DUP1 MLOAD PUSH1 0x20 PUSH4 0xB53A DUP4 CODECOPY DUP2 MLOAD SWAP2 MSTORE PUSH1 0x20 DUP8 ADD MSTORE PUSH9 0x68656D61732F617069 PUSH1 0xB8 SHL PUSH1 0x40 DUP8 ADD MSTORE DUP8 MLOAD ISZERO PUSH4 0x4106 JUMPI PUSH1 0xFF PUSH1 0x40 MLOAD PUSH1 0x20 DUP2 DUP2 PUSH4 0x2D35 DUP14 DUP4 DUP2 MLOAD SWAP4 DUP5 SWAP3 ADD PUSH4 0x6F07 JUMP JUMPDEST DUP2 ADD PUSH1 0x3 DUP2 MSTORE SUB ADD SWAP1 KECCAK256 SLOAD AND PUSH4 0x40C1 JUMPI PUSH4 0x2D53 PUSH4 0x6BDC JUMP JUMPDEST SWAP7 DUP9 DUP9 MSTORE PUSH1 0x0 PUSH1 0x20 DUP10 ADD MSTORE DUP10 PUSH1 0x40 DUP10 ADD MSTORE PUSH1 0x60 DUP9 ADD MSTORE DUP10 PUSH1 0x80 DUP9 ADD MSTORE PUSH1 0xA0 DUP8 ADD MSTORE PUSH1 0xC0 DUP7 ADD MSTORE PUSH1 0xE0 DUP6 ADD MSTORE PUSH2 0x100 DUP5 ADD MSTORE PUSH1 0x1 PUSH2 0x120 DUP5 ADD MSTORE TIMESTAMP PUSH2 0x140 DUP5 ADD MSTORE TIMESTAMP PUSH2 0x160 DUP5 ADD MSTORE PUSH2 0x180 DUP4 ADD MSTORE PUSH2 0x1A0 DUP3 ADD MSTORE PUSH1 0x40 MLOAD PUSH1 0x20 DUP2 DUP5 MLOAD PUSH4 0x2DBF DUP2 DUP4 DUP6 DUP10 ADD PUSH4 0x6F07 JUMP JUMPDEST DUP2 ADD PUSH1 0x2 DUP2 MSTORE SUB ADD SWAP1 KECCAK256 SWAP1 DUP1 MLOAD DUP1 MLOAD SWAP1 PUSH1 0x1 DUP1 PUSH1 0x40 SHL SUB DUP3 GT PUSH4 0x336B JUMPI DUP2 SWAP1 PUSH4 0x2DEE DUP6 SLOAD PUSH4 0x6F2E JUMP JUMPDEST PUSH1 0x1F DUP2 GT PUSH4 0x4087 JUMPI JUMPDEST POP PUSH1 0x20 SWAP1 PUSH1 0x1F DUP4 GT PUSH1 0x1 EQ PUSH4 0x4011 JUMPI PUSH1 0x0 SWAP3 PUSH4 0x4004 JUMPI JUMPDEST POP POP DUP2 PUSH1 0x1 SHL SWAP2 PUSH1 0x0 NOT SWAP1 PUSH1 0x3 SHL SHR NOT AND OR DUP3 SSTORE JUMPDEST PUSH1 0x20 DUP2 ADD MLOAD PUSH1 0x4 DUP2 LT ISZERO PUSH4 0x3B6E JUMPI PUSH4 0x2E4A SWAP1 PUSH1 0x1 DUP5 ADD PUSH4 0x6F89 JUMP JUMPDEST PUSH1 0x40 DUP2 ADD MLOAD DUP1 MLOAD SWAP1 PUSH1 0x1 PUSH1 0x1 PUSH1 0x40 SHL SUB DUP3 GT PUSH4 0x336B JUMPI DUP2 SWAP1 PUSH4 0x2E75 PUSH1 0x2 DUP7 ADD SLOAD PUSH4 0x6F2E JUMP JUMPDEST PUSH1 0x1F DUP2 GT PUSH4 0x3FC7 JUMPI JUMPDEST POP PUSH1 0x20 SWAP1 PUSH1 0x1F DUP4 GT PUSH1 0x1 EQ PUSH4 0x3F4B JUMPI PUSH1 0x0 SWAP3 PUSH4 0x3F3E JUMPI JUMPDEST POP POP DUP2 PUSH1 0x1 SHL SWAP2 PUSH1 0x0 NOT SWAP1 PUSH1 0x3 SHL SHR NOT AND OR PUSH1 0x2 DUP4 ADD SSTORE JUMPDEST PUSH1 0x60 DUP2 ADD MLOAD DUP1 MLOAD SWAP1 PUSH1 0x1 PUSH1 0x1 PUSH1 0x40 SHL SUB DUP3 GT PUSH4 0x336B JUMPI DUP2 SWAP1 PUSH4 0x2EDE PUSH1 0x3 DUP7 ADD SLOAD PUSH4 0x6F2E JUMP JUMPDEST PUSH1 0x1F DUP2 GT PUSH4 0x3F01 JUMPI JUMPDEST POP PUSH1 0x20 SWAP1 PUSH1 0x1F DUP4 GT PUSH1 0x1 EQ PUSH4 0x3E85 JUMPI PUSH1 0x0 SWAP3 PUSH4 0x3E78 JUMPI JUMPDEST POP POP DUP2 PUSH1 0x1 SHL SWAP2 PUSH1 0x0 NOT SWAP1 PUSH1 0x3 SHL SHR NOT AND OR PUSH1 0x3 DUP4 ADD SSTORE JUMPDEST PUSH1 0x80 DUP2 ADD MLOAD DUP1 MLOAD SWAP1 PUSH1 0x1 PUSH1 0x1 PUSH1 0x40 SHL SUB DUP3 GT PUSH4 0x336B JUMPI DUP2 SWAP1 PUSH4 0x2F47 PUSH1 0x4 DUP7 ADD SLOAD PUSH4 0x6F2E JUMP JUMPDEST PUSH1 0x1F DUP2 GT PUSH4 0x3E3B JUMPI JUMPDEST POP PUSH1 0x20 SWAP1 PUSH1 0x1F DUP4 GT PUSH1 0x1 EQ PUSH4 0x3DBF JUMPI PUSH1 0x0 SWAP3 PUSH4 0x3DB2 JUMPI JUMPDEST POP POP DUP2 PUSH1 0x1 SHL SWAP2 PUSH1 0x0 NOT SWAP1 PUSH1 0x3 SHL SHR NOT AND OR PUSH1 0x4 DUP4 ADD SSTORE JUMPDEST PUSH1 0xA0 DUP2 ADD MLOAD DUP1 MLOAD SWAP1 PUSH1 0x1 PUSH1 0x1 PUSH1 0x40 SHL SUB DUP3 GT PUSH4 0x336B JUMPI DUP2 SWAP1 PUSH4 0x2FB0 PUSH1 0x5 DUP7 ADD SLOAD PUSH4 0x6F2E JUMP JUMPDEST PUSH1 0x1F DUP2 GT PUSH4 0x3D75 JUMPI JUMPDEST POP PUSH1 0x20 SWAP1 PUSH1 0x1F DUP4 GT PUSH1 0x1 EQ PUSH4 0x3CF9 JUMPI PUSH1 0x0 SWAP3 PUSH4 0x3CEC JUMPI JUMPDEST POP POP DUP2 PUSH1 0x1 SHL SWAP2 PUSH1 0x0 NOT SWAP1 PUSH1 0x3 SHL SHR NOT AND OR PUSH1 0x5 DUP4 ADD SSTORE JUMPDEST PUSH1 0xC0 DUP2 ADD MLOAD DUP1 MLOAD SWAP1 PUSH9 0x10000000000000000 DUP3 GT PUSH4 0x336B JUMPI PUSH1 0x6 DUP5 ADD SLOAD DUP3 PUSH1 0x6 DUP7 ADD SSTORE DUP1 DUP4 LT PUSH4 0x3C41 JUMPI JUMPDEST POP PUSH1 0x20 ADD SWAP1 PUSH1 0x6 DUP5 ADD PUSH1 0x0 MSTORE PUSH1 0x20 PUSH1 0x0 KECCAK256 SWAP2 PUSH1 0x0 SWAP1 JUMPDEST DUP3 DUP3 LT PUSH4 0x3731 JUMPI POP POP POP POP PUSH1 0xE0 DUP2 ADD MLOAD DUP1 MLOAD SWAP1 PUSH9 0x10000000000000000 DUP3 GT PUSH4 0x336B JUMPI PUSH1 0x7 DUP5 ADD SLOAD DUP3 PUSH1 0x7 DUP7 ADD SSTORE DUP1 DUP4 LT PUSH4 0x36F4 JUMPI JUMPDEST POP PUSH1 0x20 ADD SWAP1 PUSH1 0x7 DUP5 ADD PUSH1 0x0 MSTORE PUSH1 0x20 PUSH1 0x0 KECCAK256 SWAP2 PUSH1 0x0 SWAP1 JUMPDEST DUP3 DUP3 LT PUSH4 0x35BD JUMPI POP POP POP POP PUSH2 0x100 DUP2 ADD MLOAD DUP1 MLOAD SWAP1 PUSH9 0x10000000000000000 DUP3 GT PUSH4 0x336B JUMPI PUSH1 0x8 DUP5 ADD SLOAD DUP3 PUSH1 0x8 DUP7 ADD SSTORE DUP1 DUP4 LT PUSH4 0x3580 JUMPI JUMPDEST POP PUSH1 0x20 ADD SWAP1 PUSH1 0x8 DUP5 ADD PUSH1 0x0 MSTORE PUSH1 0x20 PUSH1 0x0 KECCAK256 SWAP2 PUSH1 0x0 SWAP1 JUMPDEST DUP3 DUP3 LT PUSH4 0x3449 JUMPI POP POP POP POP PUSH4 0x3107 PUSH2 0x120 DUP3 ADD MLOAD ISZERO ISZERO PUSH1 0x9 DUP5 ADD SWAP1 PUSH1 0xFF DUP1 NOT DUP4 SLOAD AND SWAP2 ISZERO ISZERO AND OR SWAP1 SSTORE JUMP JUMPDEST PUSH2 0x140 DUP2 ADD MLOAD PUSH1 0xA DUP4 ADD SSTORE PUSH2 0x160 DUP2 ADD MLOAD PUSH1 0xB DUP4 ADD SSTORE PUSH2 0x180 DUP2 ADD MLOAD DUP1 MLOAD SWAP1 PUSH1 0x1 PUSH1 0x1 PUSH1 0x40 SHL SUB DUP3 GT PUSH4 0x336B JUMPI PUSH4 0x3147 PUSH1 0xC DUP6 ADD SLOAD PUSH4 0x6F2E JUMP JUMPDEST PUSH1 0x1F DUP2 GT PUSH4 0x340C JUMPI JUMPDEST POP PUSH1 0x20 SWAP1 PUSH1 0x1F DUP4 GT PUSH1 0x1 EQ PUSH4 0x338E JUMPI PUSH2 0x1A0 SWAP4 SWAP3 SWAP2 PUSH1 0x0 SWAP2 DUP4 PUSH4 0x3381 JUMPI JUMPDEST POP POP DUP2 PUSH1 0x1 SHL SWAP2 PUSH1 0x0 NOT SWAP1 PUSH1 0x3 SHL SHR NOT AND OR PUSH1 0xC DUP5 ADD SSTORE JUMPDEST ADD MLOAD DUP1 MLOAD SWAP1 PUSH1 0x1 PUSH1 0x1 PUSH1 0x40 SHL SUB DUP3 GT PUSH4 0x336B JUMPI PUSH4 0x31B2 PUSH1 0xD DUP5 ADD SLOAD PUSH4 0x6F2E JUMP JUMPDEST PUSH1 0x1F DUP2 GT PUSH4 0x3321 JUMPI JUMPDEST POP PUSH1 0x20 SWAP1 PUSH1 0x1F DUP4 GT PUSH1 0x1 EQ PUSH4 0x328A JUMPI SWAP3 PUSH1 0xD DUP4 PUSH4 0x3228 SWAP5 PUSH1 0x0 DUP1 MLOAD PUSH1 0x20 PUSH4 0xB57A DUP4 CODECOPY DUP2 MLOAD SWAP2 MSTORE SWAP8 SWAP5 PUSH4 0xEF1 SWAP8 PUSH1 0x0 SWAP3 PUSH4 0x327D JUMPI POP POP DUP2 PUSH1 0x1 SHL SWAP2 PUSH1 0x0 NOT SWAP1 PUSH1 0x3 SHL SHR NOT AND OR SWAP2 ADD SSTORE PUSH1 0x40 MLOAD PUSH1 0x20 DUP2 DUP4 MLOAD PUSH4 0xDF3 DUP2 DUP4 DUP6 DUP9 ADD PUSH4 0x6F07 JUMP JUMPDEST DUP2 ADD SUB SWAP1 KECCAK256 SWAP3 PUSH4 0x3250 PUSH1 0x40 MLOAD SWAP3 DUP4 SWAP3 PUSH1 0x0 DUP5 MSTORE PUSH1 0x60 PUSH1 0x20 DUP6 ADD MSTORE PUSH1 0x60 DUP5 ADD SWAP1 PUSH4 0x7009 JUMP JUMPDEST SUB SWAP1 LOG3 CALLER PUSH1 0x0 MSTORE PUSH1 0x8 PUSH1 0x20 MSTORE PUSH1 0x40 PUSH1 0x0 KECCAK256 PUSH1 0x1 PUSH1 0xFF NOT DUP3 SLOAD AND OR SWAP1 SSTORE PUSH1 0x40 MLOAD PUSH2 0x4507 SWAP1 DUP2 PUSH4 0x7033 DUP3 CODECOPY RETURN JUMPDEST ADD MLOAD SWAP1 POP DUP11 DUP1 PUSH4 0xDC4 JUMP JUMPDEST SWAP1 PUSH1 0xD DUP5 ADD PUSH1 0x0 MSTORE PUSH1 0x20 PUSH1 0x0 KECCAK256 SWAP2 PUSH1 0x0 JUMPDEST PUSH1 0x1F NOT DUP6 AND DUP2 LT PUSH4 0x3307 JUMPI POP PUSH1 0x1 DUP5 PUSH1 0x0 DUP1 MLOAD PUSH1 0x20 PUSH4 0xB57A DUP4 CODECOPY DUP2 MLOAD SWAP2 MSTORE SWAP8 SWAP5 PUSH4 0xEF1 SWAP8 SWAP5 PUSH1 0xD SWAP5 PUSH4 0x3228 SWAP9 PUSH1 0x1F NOT DUP2 AND LT PUSH4 0x32EC JUMPI JUMPDEST POP POP POP DUP2 SHL ADD SWAP2 ADD SSTORE PUSH4 0xDDA JUMP JUMPDEST ADD MLOAD PUSH1 0x0 NOT PUSH1 0xF8 DUP5 PUSH1 0x3 SHL AND SHR NOT AND SWAP1 SSTORE DUP11 DUP1 DUP1 PUSH4 0x32DC JUMP JUMPDEST SWAP2 SWAP3 PUSH1 0x20 PUSH1 0x1 DUP2 SWAP3 DUP7 DUP6 ADD MLOAD DUP2 SSTORE ADD SWAP5 ADD SWAP3 ADD PUSH4 0x329B JUMP JUMPDEST PUSH4 0x3357 SWAP1 PUSH1 0xD DUP6 ADD PUSH1 0x0 MSTORE PUSH1 0x20 PUSH1 0x0 KECCAK256 PUSH1 0x1F DUP6 ADD PUSH1 0x5 SHR DUP2 ADD SWAP2 PUSH1 0x20 DUP7 LT PUSH4 0x335F JUMPI JUMPDEST PUSH1 0x1F ADD PUSH1 0x5 SHR ADD SWAP1 PUSH4 0x6F6E JUMP JUMPDEST DUP7 PUSH4 0x31BD JUMP JUMPDEST SWAP1 SWAP2 POP DUP2 SWAP1 PUSH4 0x3348 JUMP JUMPDEST PUSH4 0x4E487B71 PUSH1 0xE0 SHL PUSH1 0x0 MSTORE PUSH1 0x41 PUSH1 0x4 MSTORE PUSH1 0x24 PUSH1 0x0 REVERT JUMPDEST ADD MLOAD SWAP1 POP DUP9 DUP1 PUSH4 0x3174 JUMP JUMPDEST SWAP1 PUSH1 0xC DUP6 ADD PUSH1 0x0 MSTORE PUSH1 0x20 PUSH1 0x0 KECCAK256 SWAP2 PUSH1 0x0 JUMPDEST PUSH1 0x1F NOT DUP6 AND DUP2 LT PUSH4 0x33F2 JUMPI POP SWAP2 DUP4 SWAP2 PUSH1 0x1 SWAP4 PUSH2 0x1A0 SWAP7 SWAP6 PUSH1 0x1F NOT DUP2 AND LT PUSH4 0x33D7 JUMPI JUMPDEST POP POP POP DUP2 SHL ADD PUSH1 0xC DUP5 ADD SSTORE PUSH4 0x318C JUMP JUMPDEST ADD MLOAD PUSH1 0x0 NOT PUSH1 0xF8 DUP5 PUSH1 0x3 SHL AND SHR NOT AND SWAP1 SSTORE DUP9 DUP1 DUP1 PUSH4 0x33C5 JUMP JUMPDEST SWAP2 SWAP3 PUSH1 0x20 PUSH1 0x1 DUP2 SWAP3 DUP7 DUP6 ADD MLOAD DUP2 SSTORE ADD SWAP5 ADD SWAP3 ADD PUSH4 0x339F JUMP JUMPDEST PUSH4 0x3441 SWAP1 PUSH1 0xC DUP7 ADD PUSH1 0x0 MSTORE PUSH1 0x20 PUSH1 0x0 KECCAK256 PUSH1 0x1F DUP6 ADD PUSH1 0x5 SHR DUP2 ADD SWAP2 PUSH1 0x20 DUP7 LT PUSH4 0x335F JUMPI PUSH1 0x1F ADD PUSH1 0x5 SHR ADD SWAP1 PUSH4 0x6F6E JUMP JUMPDEST DUP8 PUSH4 0x3152 JUMP JUMPDEST DUP1 MLOAD DUP1 MLOAD SWAP1 PUSH1 0x1 PUSH1 0x1 PUSH1 0x40 SHL SUB DUP3 GT PUSH4 0x336B JUMPI PUSH4 0x346C DUP7 SLOAD PUSH4 0x6F2E JUMP JUMPDEST PUSH1 0x1F DUP2 GT PUSH4 0x3546 JUMPI JUMPDEST POP PUSH1 0x20 SWAP1 PUSH1 0x1F DUP4 GT PUSH1 0x1 EQ PUSH4 0x34CC JUMPI SWAP3 DUP3 PUSH1 0x1 SWAP5 SWAP4 PUSH1 0x20 SWAP4 DUP7 SWAP6 PUSH1 0x0 SWAP3 PUSH4 0x34BF JUMPI JUMPDEST POP POP PUSH1 0x0 NOT PUSH1 0x3 DUP4 SWAP1 SHL SHR NOT AND SWAP1 DUP5 SHL OR DUP8 SSTORE JUMPDEST ADD SWAP5 ADD SWAP2 ADD SWAP1 SWAP3 PUSH4 0x30D8 JUMP JUMPDEST ADD MLOAD SWAP1 POP DUP15 DUP1 PUSH4 0x349D JUMP JUMPDEST SWAP1 DUP7 PUSH1 0x0 MSTORE PUSH1 0x20 PUSH1 0x0 KECCAK256 SWAP2 PUSH1 0x0 JUMPDEST PUSH1 0x1F NOT DUP6 AND DUP2 LT PUSH4 0x352C JUMPI POP DUP4 PUSH1 0x20 SWAP4 PUSH1 0x1 SWAP7 SWAP4 DUP8 SWAP7 SWAP4 DUP8 SWAP5 PUSH1 0x1F NOT DUP2 AND LT PUSH4 0x3511 JUMPI JUMPDEST POP POP POP DUP2 SHL ADD DUP8 SSTORE PUSH4 0x34B1 JUMP JUMPDEST ADD MLOAD PUSH1 0x0 NOT PUSH1 0xF8 DUP5 PUSH1 0x3 SHL AND SHR NOT AND SWAP1 SSTORE DUP15 DUP1 DUP1 PUSH4 0x3502 JUMP JUMPDEST SWAP2 SWAP3 PUSH1 0x20 PUSH1 0x1 DUP2 SWAP3 DUP7 DUP6 ADD MLOAD DUP2 SSTORE ADD SWAP5 ADD SWAP3 ADD PUSH4 0x34DA JUMP JUMPDEST PUSH4 0x3578 SWAP1 DUP8 PUSH1 0x0 MSTORE PUSH1 0x20 PUSH1 0x0 KECCAK256 PUSH1 0x1F DUP6 ADD PUSH1 0x5 SHR DUP2 ADD SWAP2 PUSH1 0x20 DUP7 LT PUSH4 0x335F JUMPI PUSH1 0x1F ADD PUSH1 0x5 SHR ADD SWAP1 PUSH4 0x6F6E JUMP JUMPDEST DUP12 PUSH4 0x3477 JUMP JUMPDEST PUSH1 0x8 DUP6 ADD PUSH1 0x0 MSTORE PUSH1 0x20 PUSH1 0x0 KECCAK256 SWAP1 DUP4 DUP3 ADD JUMPDEST DUP2 DUP4 ADD DUP2 LT PUSH4 0x35A5 JUMPI POP POP PUSH4 0x30C2 JUMP JUMPDEST DUP1 PUSH4 0x35B5 PUSH1 0x1 SWAP3 PUSH4 0x6FA3 JUMP JUMPDEST ADD PUSH4 0x3591 JUMP JUMPDEST DUP1 MLOAD DUP1 MLOAD SWAP1 PUSH1 0x1 PUSH1 0x1 PUSH1 0x40 SHL SUB DUP3 GT PUSH4 0x336B JUMPI PUSH4 0x35E0 DUP7 SLOAD PUSH4 0x6F2E JUMP JUMPDEST PUSH1 0x1F DUP2 GT PUSH4 0x36BA JUMPI JUMPDEST POP PUSH1 0x20 SWAP1 PUSH1 0x1F DUP4 GT PUSH1 0x1 EQ PUSH4 0x3640 JUMPI SWAP3 DUP3 PUSH1 0x1 SWAP5 SWAP4 PUSH1 0x20 SWAP4 DUP7 SWAP6 PUSH1 0x0 SWAP3 PUSH4 0x3633 JUMPI JUMPDEST POP POP PUSH1 0x0 NOT PUSH1 0x3 DUP4 SWAP1 SHL SHR NOT AND SWAP1 DUP5 SHL OR DUP8 SSTORE JUMPDEST ADD SWAP5 ADD SWAP2 ADD SWAP1 SWAP3 PUSH4 0x3085 JUMP JUMPDEST ADD MLOAD SWAP1 POP DUP15 DUP1 PUSH4 0x3611 JUMP JUMPDEST SWAP1 DUP7 PUSH1 0x0 MSTORE PUSH1 0x20 PUSH1 0x0 KECCAK256 SWAP2 PUSH1 0x0 JUMPDEST PUSH1 0x1F NOT DUP6 AND DUP2 LT PUSH4 0x36A0 JUMPI POP DUP4 PUSH1 0x20 SWAP4 PUSH1 0x1 SWAP7 SWAP4 DUP8 SWAP7 SWAP4 DUP8 SWAP5 PUSH1 0x1F NOT DUP2 AND LT PUSH4 0x3685 JUMPI JUMPDEST POP POP POP DUP2 SHL ADD DUP8 SSTORE PUSH4 0x3625 JUMP JUMPDEST ADD MLOAD PUSH1 0x0 NOT PUSH1 0xF8 DUP5 PUSH1 0x3 SHL AND SHR NOT AND SWAP1 SSTORE DUP15 DUP1 DUP1 PUSH4 0x3676 JUMP JUMPDEST SWAP2 SWAP3 PUSH1 0x20 PUSH1 0x1 DUP2 SWAP3 DUP7 DUP6 ADD MLOAD DUP2 SSTORE ADD SWAP5 ADD SWAP3 ADD PUSH4 0x364E JUMP JUMPDEST PUSH4 0x36EC SWAP1 DUP8 PUSH1 0x0 MSTORE PUSH1 0x20 PUSH1 0x0 KECCAK256 PUSH1 0x1F DUP6 ADD PUSH1 0x5 SHR DUP2 ADD SWAP2 PUSH1 0x20 DUP7 LT PUSH4 0x335F JUMPI PUSH1 0x1F ADD PUSH1 0x5 SHR ADD SWAP1 PUSH4 0x6F6E JUMP JUMPDEST DUP12 PUSH4 0x35EB JUMP JUMPDEST PUSH1 0x7 DUP6 ADD PUSH1 0x0 MSTORE PUSH1 0x20 PUSH1 0x0 KECCAK256 SWAP1 DUP4 DUP3 ADD JUMPDEST DUP2 DUP4 ADD DUP2 LT PUSH4 0x3719 JUMPI POP POP PUSH4 0x306F JUMP JUMPDEST DUP1 PUSH4 0x3729 PUSH1 0x1 SWAP3 PUSH4 0x6FA3 JUMP JUMPDEST ADD PUSH4 0x3705 JUMP JUMPDEST DUP1 MLOAD DUP1 MLOAD DUP1 MLOAD SWAP1 PUSH1 0x1 PUSH1 0x1 PUSH1 0x40 SHL SUB DUP3 GT PUSH4 0x336B JUMPI DUP2 SWAP1 PUSH4 0x3758 DUP9 SLOAD PUSH4 0x6F2E JUMP JUMPDEST PUSH1 0x1F DUP2 GT PUSH4 0x3C07 JUMPI JUMPDEST POP PUSH1 0x20 SWAP1 PUSH1 0x1F DUP4 GT PUSH1 0x1 EQ PUSH4 0x3B91 JUMPI PUSH1 0x0 SWAP3 PUSH4 0x3B84 JUMPI JUMPDEST POP POP DUP2 PUSH1 0x1 SHL SWAP2 PUSH1 0x0 NOT SWAP1 PUSH1 0x3 SHL SHR NOT AND OR DUP6 SSTORE JUMPDEST PUSH1 0x20 DUP2 ADD MLOAD PUSH1 0xA DUP2 LT ISZERO PUSH4 0x3B6E JUMPI PUSH1 0x1 DUP7 ADD SWAP1 DUP2 SLOAD PUSH1 0xFF PUSH2 0xFF00 PUSH1 0x40 DUP7 ADD MLOAD ISZERO ISZERO PUSH1 0x8 SHL AND SWAP3 AND SWAP1 PUSH2 0xFFFF NOT AND OR OR SWAP1 SSTORE PUSH1 0x60 DUP2 ADD MLOAD DUP1 MLOAD SWAP1 PUSH1 0x1 DUP1 PUSH1 0x40 SHL SUB DUP3 GT PUSH4 0x336B JUMPI DUP2 SWAP1 PUSH4 0x37F0 PUSH1 0x2 DUP10 ADD SLOAD PUSH4 0x6F2E JUMP JUMPDEST PUSH1 0x1F DUP2 GT PUSH4 0x3B31 JUMPI JUMPDEST POP PUSH1 0x20 SWAP1 PUSH1 0x1F DUP4 GT PUSH1 0x1 EQ PUSH4 0x3AB5 JUMPI PUSH1 0x0 SWAP3 PUSH4 0x3AA8 JUMPI JUMPDEST POP POP DUP2 PUSH1 0x1 SHL SWAP2 PUSH1 0x0 NOT SWAP1 PUSH1 0x3 SHL SHR NOT AND OR PUSH1 0x2 DUP7 ADD SSTORE JUMPDEST PUSH1 0x80 DUP2 ADD MLOAD DUP1 MLOAD SWAP1 PUSH1 0x1 PUSH1 0x1 PUSH1 0x40 SHL SUB DUP3 GT PUSH4 0x336B JUMPI PUSH4 0x3857 PUSH1 0x3 DUP9 ADD SLOAD PUSH4 0x6F2E JUMP JUMPDEST PUSH1 0x1F DUP2 GT PUSH4 0x3A6B JUMPI JUMPDEST POP PUSH1 0x20 SWAP1 PUSH1 0x1F DUP4 GT PUSH1 0x1 EQ PUSH4 0x39EE JUMPI PUSH1 0xA0 SWAP4 SWAP3 SWAP2 PUSH1 0x0 SWAP2 DUP4 PUSH4 0x39E1 JUMPI JUMPDEST POP POP DUP2 PUSH1 0x1 SHL SWAP2 PUSH1 0x0 NOT SWAP1 PUSH1 0x3 SHL SHR NOT AND OR PUSH1 0x3 DUP8 ADD SSTORE JUMPDEST ADD MLOAD DUP1 MLOAD SWAP1 PUSH1 0x1 PUSH1 0x1 PUSH1 0x40 SHL SUB DUP3 GT PUSH4 0x336B JUMPI PUSH4 0x38C1 PUSH1 0x4 DUP8 ADD SLOAD PUSH4 0x6F2E JUMP JUMPDEST PUSH1 0x1F DUP2 GT PUSH4 0x39A4 JUMPI JUMPDEST POP PUSH1 0x20 SWAP1 PUSH1 0x1F DUP4 GT PUSH1 0x1 EQ PUSH4 0x3924 JUMPI SWAP3 DUP3 PUSH1 0x5 SWAP4 PUSH1 0x20 SWAP4 PUSH1 0x1 SWAP7 PUSH1 0x0 SWAP3 PUSH4 0x3917 JUMPI JUMPDEST POP POP PUSH1 0x0 NOT PUSH1 0x3 DUP4 SWAP1 SHL SHR NOT AND SWAP1 DUP6 SHL OR PUSH1 0x4 DUP9 ADD SSTORE JUMPDEST ADD SWAP5 ADD SWAP2 ADD SWAP1 SWAP3 PUSH4 0x3033 JUMP JUMPDEST ADD MLOAD SWAP1 POP DUP15 DUP1 PUSH4 0x38F2 JUMP JUMPDEST SWAP1 PUSH1 0x4 DUP8 ADD PUSH1 0x0 MSTORE PUSH1 0x20 PUSH1 0x0 KECCAK256 SWAP2 PUSH1 0x0 JUMPDEST PUSH1 0x1F NOT DUP6 AND DUP2 LT PUSH4 0x398A JUMPI POP DUP4 PUSH1 0x20 SWAP4 PUSH1 0x1 SWAP7 SWAP4 DUP8 SWAP4 PUSH1 0x5 SWAP8 PUSH1 0x1F NOT DUP2 AND LT PUSH4 0x396F JUMPI JUMPDEST POP POP POP DUP2 SHL ADD PUSH1 0x4 DUP9 ADD SSTORE PUSH4 0x3909 JUMP JUMPDEST ADD MLOAD PUSH1 0x0 NOT PUSH1 0xF8 DUP5 PUSH1 0x3 SHL AND SHR NOT AND SWAP1 SSTORE DUP15 DUP1 DUP1 PUSH4 0x395D JUMP JUMPDEST SWAP2 SWAP3 PUSH1 0x20 PUSH1 0x1 DUP2 SWAP3 DUP7 DUP6 ADD MLOAD DUP2 SSTORE ADD SWAP5 ADD SWAP3 ADD PUSH4 0x3935 JUMP JUMPDEST PUSH4 0x39D9 SWAP1 PUSH1 0x4 DUP9 ADD PUSH1 0x0 MSTORE PUSH1 0x20 PUSH1 0x0 KECCAK256 PUSH1 0x1F DUP6 ADD PUSH1 0x5 SHR DUP2 ADD SWAP2 PUSH1 0x20 DUP7 LT PUSH4 0x335F JUMPI PUSH1 0x1F ADD PUSH1 0x5 SHR ADD SWAP1 PUSH4 0x6F6E JUMP JUMPDEST DUP12 PUSH4 0x38CC JUMP JUMPDEST ADD MLOAD SWAP1 POP DUP14 DUP1 PUSH4 0x3883 JUMP JUMPDEST SWAP1 PUSH1 0x3 DUP9 ADD PUSH1 0x0 MSTORE PUSH1 0x20 PUSH1 0x0 KECCAK256 SWAP2 PUSH1 0x0 JUMPDEST PUSH1 0x1F NOT DUP6 AND DUP2 LT PUSH4 0x3A51 JUMPI POP SWAP2 DUP4 SWAP2 PUSH1 0x1 SWAP4 PUSH1 0xA0 SWAP7 SWAP6 PUSH1 0x1F NOT DUP2 AND LT PUSH4 0x3A36 JUMPI JUMPDEST POP POP POP DUP2 SHL ADD PUSH1 0x3 DUP8 ADD SSTORE PUSH4 0x389B JUMP JUMPDEST ADD MLOAD PUSH1 0x0 NOT PUSH1 0xF8 DUP5 PUSH1 0x3 SHL AND SHR NOT AND SWAP1 SSTORE DUP14 DUP1 DUP1 PUSH4 0x3A24 JUMP JUMPDEST SWAP2 SWAP3 PUSH1 0x20 PUSH1 0x1 DUP2 SWAP3 DUP7 DUP6 ADD MLOAD DUP2 SSTORE ADD SWAP5 ADD SWAP3 ADD PUSH4 0x39FF JUMP JUMPDEST PUSH4 0x3AA0 SWAP1 PUSH1 0x3 DUP10 ADD PUSH1 0x0 MSTORE PUSH1 0x20 PUSH1 0x0 KECCAK256 PUSH1 0x1F DUP6 ADD PUSH1 0x5 SHR DUP2 ADD SWAP2 PUSH1 0x20 DUP7 LT PUSH4 0x335F JUMPI PUSH1 0x1F ADD PUSH1 0x5 SHR ADD SWAP1 PUSH4 0x6F6E JUMP JUMPDEST DUP13 PUSH4 0x3862 JUMP JUMPDEST ADD MLOAD SWAP1 POP DUP13 DUP1 PUSH4 0x3816 JUMP JUMPDEST SWAP3 POP PUSH1 0x2 DUP9 ADD PUSH1 0x0 MSTORE PUSH1 0x20 PUSH1 0x0 KECCAK256 SWAP1 PUSH1 0x0 SWAP4 JUMPDEST PUSH1 0x1F NOT DUP5 AND DUP6 LT PUSH4 0x3B14 JUMPI PUSH1 0x1 SWAP5 POP DUP4 PUSH1 0x1F NOT DUP2 AND LT PUSH4 0x3AF9 JUMPI JUMPDEST POP POP POP DUP2 SHL ADD PUSH1 0x2 DUP7 ADD SSTORE PUSH4 0x382E JUMP JUMPDEST ADD MLOAD PUSH1 0x0 NOT PUSH1 0xF8 DUP5 PUSH1 0x3 SHL AND SHR NOT AND SWAP1 SSTORE DUP13 DUP1 DUP1 PUSH4 0x3AE7 JUMP JUMPDEST DUP2 DUP2 ADD MLOAD DUP4 SSTORE PUSH1 0x20 SWAP5 DUP6 ADD SWAP5 PUSH1 0x1 SWAP1 SWAP4 ADD SWAP3 SWAP1 SWAP2 ADD SWAP1 PUSH4 0x3AC8 JUMP JUMPDEST PUSH4 0x3B66 SWAP1 PUSH1 0x2 DUP11 ADD PUSH1 0x0 MSTORE PUSH1 0x20 PUSH1 0x0 KECCAK256 PUSH1 0x1F DUP6 ADD PUSH1 0x5 SHR DUP2 ADD SWAP2 PUSH1 0x20 DUP7 LT PUSH4 0x335F JUMPI PUSH1 0x1F ADD PUSH1 0x5 SHR ADD SWAP1 PUSH4 0x6F6E JUMP JUMPDEST DUP14 PUSH4 0x37FB JUMP JUMPDEST PUSH4 0x4E487B71 PUSH1 0xE0 SHL PUSH1 0x0 MSTORE PUSH1 0x21 PUSH1 0x4 MSTORE PUSH1 0x24 PUSH1 0x0 REVERT JUMPDEST ADD MLOAD SWAP1 POP DUP13 DUP1 PUSH4 0x377E JUMP JUMPDEST SWAP3 POP DUP8 PUSH1 0x0 MSTORE PUSH1 0x20 PUSH1 0x0 KECCAK256 SWAP1 PUSH1 0x0 SWAP4 JUMPDEST PUSH1 0x1F NOT DUP5 AND DUP6 LT PUSH4 0x3BEA JUMPI PUSH1 0x1 SWAP5 POP DUP4 PUSH1 0x1F NOT DUP2 AND LT PUSH4 0x3BCF JUMPI JUMPDEST POP POP POP DUP2 SHL ADD DUP6 SSTORE PUSH4 0x3793 JUMP JUMPDEST ADD MLOAD PUSH1 0x0 NOT PUSH1 0xF8 DUP5 PUSH1 0x3 SHL AND SHR NOT AND SWAP1 SSTORE DUP13 DUP1 DUP1 PUSH4 0x3BC0 JUMP JUMPDEST DUP2 DUP2 ADD MLOAD DUP4 SSTORE PUSH1 0x20 SWAP5 DUP6 ADD SWAP5 PUSH1 0x1 SWAP1 SWAP4 ADD SWAP3 SWAP1 SWAP2 ADD SWAP1 PUSH4 0x3BA1 JUMP JUMPDEST PUSH4 0x3C39 SWAP1 DUP10 PUSH1 0x0 MSTORE PUSH1 0x20 PUSH1 0x0 KECCAK256 PUSH1 0x1F DUP6 ADD PUSH1 0x5 SHR DUP2 ADD SWAP2 PUSH1 0x20 DUP7 LT PUSH4 0x335F JUMPI PUSH1 0x1F ADD PUSH1 0x5 SHR ADD SWAP1 PUSH4 0x6F6E JUMP JUMPDEST DUP14 PUSH4 0x3763 JUMP JUMPDEST PUSH1 0x5 DUP2 DUP2 MUL DIV DUP2 SUB PUSH4 0x3CD6 JUMPI PUSH1 0x5 DUP4 DUP2 MUL DIV DUP4 SUB PUSH4 0x3CD6 JUMPI PUSH1 0x6 DUP6 ADD PUSH1 0x0 MSTORE PUSH1 0x20 PUSH1 0x0 KECCAK256 DUP4 PUSH1 0x5 MUL DUP2 ADD JUMPDEST DUP3 PUSH1 0x5 MUL DUP3 ADD DUP2 LT PUSH4 0x3C87 JUMPI POP POP PUSH4 0x301D JUMP JUMPDEST DUP1 PUSH4 0x3C97 PUSH1 0x5 SWAP3 PUSH4 0x6FA3 JUMP JUMPDEST PUSH1 0x0 PUSH1 0x1 DUP3 ADD SSTORE PUSH4 0x3CAE PUSH1 0x2 DUP3 ADD PUSH4 0x6FA3 JUMP JUMPDEST PUSH4 0x3CBE PUSH1 0x3 DUP3 ADD PUSH4 0x6FA3 JUMP JUMPDEST PUSH4 0x3CCE PUSH1 0x4 DUP3 ADD PUSH4 0x6FA3 JUMP JUMPDEST ADD PUSH4 0x3C70 JUMP JUMPDEST PUSH4 0x4E487B71 PUSH1 0xE0 SHL PUSH1 0x0 MSTORE PUSH1 0x11 PUSH1 0x4 MSTORE PUSH1 0x24 PUSH1 0x0 REVERT JUMPDEST ADD MLOAD SWAP1 POP DUP8 DUP1 PUSH4 0x2FD6 JUMP JUMPDEST SWAP3 POP PUSH1 0x5 DUP6 ADD PUSH1 0x0 MSTORE PUSH1 0x20 PUSH1 0x0 KECCAK256 SWAP1 PUSH1 0x0 SWAP4 JUMPDEST PUSH1 0x1F NOT DUP5 AND DUP6 LT PUSH4 0x3D58 JUMPI PUSH1 0x1 SWAP5 POP DUP4 PUSH1 0x1F NOT DUP2 AND LT PUSH4 0x3D3D JUMPI JUMPDEST POP POP POP DUP2 SHL ADD PUSH1 0x5 DUP4 ADD SSTORE PUSH4 0x2FEE JUMP JUMPDEST ADD MLOAD PUSH1 0x0 NOT PUSH1 0xF8 DUP5 PUSH1 0x3 SHL AND SHR NOT AND SWAP1 SSTORE DUP8 DUP1 DUP1 PUSH4 0x3D2B JUMP JUMPDEST DUP2 DUP2 ADD MLOAD DUP4 SSTORE PUSH1 0x20 SWAP5 DUP6 ADD SWAP5 PUSH1 0x1 SWAP1 SWAP4 ADD SWAP3 SWAP1 SWAP2 ADD SWAP1 PUSH4 0x3D0C JUMP JUMPDEST PUSH4 0x3DAA SWAP1 PUSH1 0x5 DUP8 ADD PUSH1 0x0 MSTORE PUSH1 0x20 PUSH1 0x0 KECCAK256 PUSH1 0x1F DUP6 ADD PUSH1 0x5 SHR DUP2 ADD SWAP2 PUSH1 0x20 DUP7 LT PUSH4 0x335F JUMPI PUSH1 0x1F ADD PUSH1 0x5 SHR ADD SWAP1 PUSH4 0x6F6E JUMP JUMPDEST DUP9 PUSH4 0x2FBB JUMP JUMPDEST ADD MLOAD SWAP1 POP DUP8 DUP1 PUSH4 0x2F6D JUMP JUMPDEST SWAP3 POP PUSH1 0x4 DUP6 ADD PUSH1 0x0 MSTORE PUSH1 0x20 PUSH1 0x0 KECCAK256 SWAP1 PUSH1 0x0 SWAP4 JUMPDEST PUSH1 0x1F NOT DUP5 AND DUP6 LT PUSH4 0x3E1E JUMPI PUSH1 0x1 SWAP5 POP DUP4 PUSH1 0x1F NOT DUP2 AND LT PUSH4 0x3E03 JUMPI JUMPDEST POP POP POP DUP2 SHL ADD PUSH1 0x4 DUP4 ADD SSTORE PUSH4 0x2F85 JUMP JUMPDEST ADD MLOAD PUSH1 0x0 NOT PUSH1 0xF8 DUP5 PUSH1 0x3 SHL AND SHR NOT AND SWAP1 SSTORE DUP8 DUP1 DUP1 PUSH4 0x3DF1 JUMP JUMPDEST DUP2 DUP2 ADD MLOAD DUP4 SSTORE PUSH1 0x20 SWAP5 DUP6 ADD SWAP5 PUSH1 0x1 SWAP1 SWAP4 ADD SWAP3 SWAP1 SWAP2 ADD SWAP1 PUSH4 0x3DD2 JUMP JUMPDEST PUSH4 0x3E70 SWAP1 PUSH1 0x4 DUP8 ADD PUSH1 0x0 MSTORE PUSH1 0x20 PUSH1 0x0 KECCAK256 PUSH1 0x1F DUP6 ADD PUSH1 0x5 SHR DUP2 ADD SWAP2 PUSH1 0x20 DUP7 LT PUSH4 0x335F JUMPI PUSH1 0x1F ADD PUSH1 0x5 SHR ADD SWAP1 PUSH4 0x6F6E JUMP JUMPDEST DUP9 PUSH4 0x2F52 JUMP JUMPDEST ADD MLOAD SWAP1 POP DUP8 DUP1 PUSH4 0x2F04 JUMP JUMPDEST SWAP3 POP PUSH1 0x3 DUP6 ADD PUSH1 0x0 MSTORE PUSH1 0x20 PUSH1 0x0 KECCAK256 SWAP1 PUSH1 0x0 SWAP4 JUMPDEST PUSH1 0x1F NOT DUP5 AND DUP6 LT PUSH4 0x3EE4 JUMPI PUSH1 0x1 SWAP5 POP DUP4 PUSH1 0x1F NOT DUP2 AND LT PUSH4 0x3EC9 JUMPI JUMPDEST POP POP POP DUP2 SHL ADD PUSH1 0x3 DUP4 ADD SSTORE PUSH4 0x2F1C JUMP JUMPDEST ADD MLOAD PUSH1 0x0 NOT PUSH1 0xF8 DUP5 PUSH1 0x3 SHL AND SHR NOT AND SWAP1 SSTORE DUP8 DUP1 DUP1 PUSH4 0x3EB7 JUMP JUMPDEST DUP2 DUP2 ADD MLOAD DUP4 SSTORE PUSH1 0x20 SWAP5 DUP6 ADD SWAP5 PUSH1 0x1 SWAP1 SWAP4 ADD SWAP3 SWAP1 SWAP2 ADD SWAP1 PUSH4 0x3E98 JUMP JUMPDEST PUSH4 0x3F36 SWAP1 PUSH1 0x3 DUP8 ADD PUSH1 0x0 MSTORE PUSH1 0x20 PUSH1 0x0 KECCAK256 PUSH1 0x1F DUP6 ADD PUSH1 0x5 SHR DUP2 ADD SWAP2 PUSH1 0x20 DUP7 LT PUSH4 0x335F JUMPI PUSH1 0x1F ADD PUSH1 0x5 SHR ADD SWAP1 PUSH4 0x6F6E JUMP JUMPDEST DUP9 PUSH4 0x2EE9 JUMP JUMPDEST ADD MLOAD SWAP1 POP DUP8 DUP1 PUSH4 0x2E9B JUMP JUMPDEST SWAP3 POP PUSH1 0x2 DUP6 ADD PUSH1 0x0 MSTORE PUSH1 0x20 PUSH1 0x0 KECCAK256 SWAP1 PUSH1 0x0 SWAP4 JUMPDEST PUSH1 0x1F NOT DUP5 AND DUP6 LT PUSH4 0x3FAA JUMPI PUSH1 0x1 SWAP5 POP DUP4 PUSH1 0x1F NOT DUP2 AND LT PUSH4 0x3F8F JUMPI JUMPDEST POP POP POP DUP2 SHL ADD PUSH1 0x2 DUP4 ADD SSTORE PUSH4 0x2EB3 JUMP JUMPDEST ADD MLOAD PUSH1 0x0 NOT PUSH1 0xF8 DUP5 PUSH1 0x3 SHL AND SHR NOT AND SWAP1 SSTORE DUP8 DUP1 DUP1 PUSH4 0x3F7D JUMP JUMPDEST DUP2 DUP2 ADD MLOAD DUP4 SSTORE PUSH1 0x20 SWAP5 DUP6 ADD SWAP5 PUSH1 0x1 SWAP1 SWAP4 ADD SWAP3 SWAP1 SWAP2 ADD SWAP1 PUSH4 0x3F5E JUMP JUMPDEST PUSH4 0x3FFC SWAP1 PUSH1 0x2 DUP8 ADD PUSH1 0x0 MSTORE PUSH1 0x20 PUSH1 0x0 KECCAK256 PUSH1 0x1F DUP6 ADD PUSH1 0x5 SHR DUP2 ADD SWAP2 PUSH1 0x20 DUP7 LT PUSH4 0x335F JUMPI PUSH1 0x1F ADD PUSH1 0x5 SHR ADD SWAP1 PUSH4 0x6F6E JUMP JUMPDEST DUP9 PUSH4 0x2E80 JUMP JUMPDEST ADD MLOAD SWAP1 POP DUP8 DUP1 PUSH4 0x2E14 JUMP JUMPDEST SWAP3 POP DUP5 PUSH1 0x0 MSTORE PUSH1 0x20 PUSH1 0x0 KECCAK256 SWAP1 PUSH1 0x0 SWAP4 JUMPDEST PUSH1 0x1F NOT DUP5 AND DUP6 LT PUSH4 0x406A JUMPI PUSH1 0x1 SWAP5 POP DUP4 PUSH1 0x1F NOT DUP2 AND LT PUSH4 0x404F JUMPI JUMPDEST POP POP POP DUP2 SHL ADD DUP3 SSTORE PUSH4 0x2E29 JUMP JUMPDEST ADD MLOAD PUSH1 0x0 NOT PUSH1 0xF8 DUP5 PUSH1 0x3 SHL AND SHR NOT AND SWAP1 SSTORE DUP8 DUP1 DUP1 PUSH4 0x4040 JUMP JUMPDEST DUP2 DUP2 ADD MLOAD DUP4 SSTORE PUSH1 0x20 SWAP5 DUP6 ADD SWAP5 PUSH1 0x1 SWAP1 SWAP4 ADD SWAP3 SWAP1 SWAP2 ADD SWAP1 PUSH4 0x4021 JUMP JUMPDEST PUSH4 0x40B9 SWAP1 DUP7 PUSH1 0x0 MSTORE PUSH1 0x20 PUSH1 0x0 KECCAK256 PUSH1 0x1F DUP6 ADD PUSH1 0x5 SHR DUP2 ADD SWAP2 PUSH1 0x20 DUP7 LT PUSH4 0x335F JUMPI PUSH1 0x1F ADD PUSH1 0x5 SHR ADD SWAP1 PUSH4 0x6F6E JUMP JUMPDEST DUP9 PUSH4 0x2DF9 JUMP JUMPDEST PUSH1 0x40 MLOAD PUSH3 0x461BCD PUSH1 0xE5 SHL DUP2 MSTORE PUSH1 0x20 PUSH1 0x4 DUP3 ADD MSTORE PUSH1 0x16 PUSH1 0x24 DUP3 ADD MSTORE PUSH32 0x536368656D6120616C726561647920646566696E656400000000000000000000 PUSH1 0x44 DUP3 ADD MSTORE PUSH1 0x64 SWAP1 REVERT JUMPDEST PUSH1 0x40 MLOAD PUSH3 0x461BCD PUSH1 0xE5 SHL DUP2 MSTORE PUSH1 0x20 PUSH1 0x4 DUP3 ADD MSTORE PUSH1 0x19 PUSH1 0x24 DUP3 ADD MSTORE PUSH32 0x537562646F6D61696E2063616E6E6F7420626520656D70747900000000000000 PUSH1 0x44 DUP3 ADD MSTORE PUSH1 0x64 SWAP1 REVERT JUMPDEST PUSH1 0x20 SWAP1 PUSH4 0x415A PUSH4 0x6BBB JUMP JUMPDEST PUSH1 0x60 DUP2 MSTORE PUSH1 0x0 DUP4 DUP3 ADD MSTORE PUSH1 0x0 PUSH1 0x40 DUP3 ADD MSTORE PUSH1 0x60 DUP1 DUP3 ADD MSTORE PUSH1 0x60 PUSH1 0x80 DUP3 ADD MSTORE PUSH1 0x60 PUSH1 0xA0 DUP3 ADD MSTORE DUP3 DUP3 DUP6 ADD ADD MSTORE ADD PUSH4 0x278F JUMP JUMPDEST SWAP1 PUSH1 0xD DUP5 ADD PUSH1 0x0 MSTORE PUSH1 0x20 PUSH1 0x0 KECCAK256 SWAP2 PUSH1 0x0 JUMPDEST PUSH1 0x1F NOT DUP6 AND DUP2 LT PUSH4 0x41EE JUMPI POP PUSH1 0x1 DUP5 PUSH1 0x0 DUP1 MLOAD PUSH1 0x20 PUSH4 0xB57A DUP4 CODECOPY DUP2 MLOAD SWAP2 MSTORE SWAP8 SWAP5 PUSH4 0xEF1 SWAP8 SWAP5 PUSH1 0xD SWAP5 PUSH4 0x2751 SWAP9 PUSH1 0x1F NOT DUP2 AND LT PUSH4 0x32EC JUMPI POP POP POP DUP2 SHL ADD SWAP2 ADD SSTORE PUSH4 0xDDA JUMP JUMPDEST SWAP2 SWAP3 PUSH1 0x20 PUSH1 0x1 DUP2 SWAP3 DUP7 DUP6 ADD MLOAD DUP2 SSTORE ADD SWAP5 ADD SWAP3 ADD PUSH4 0x419E JUMP JUMPDEST PUSH4 0x423D SWAP1 PUSH1 0xD DUP6 ADD PUSH1 0x0 MSTORE PUSH1 0x20 PUSH1 0x0 KECCAK256 PUSH1 0x1F DUP6 ADD PUSH1 0x5 SHR DUP2 ADD SWAP2 PUSH1 0x20 DUP7 LT PUSH4 0x335F JUMPI PUSH1 0x1F ADD PUSH1 0x5 SHR ADD SWAP1 PUSH4 0x6F6E JUMP JUMPDEST DUP7 PUSH4 0x26E6 JUMP JUMPDEST ADD MLOAD SWAP1 POP DUP9 DUP1 PUSH4 0x269D JUMP JUMPDEST SWAP1 PUSH1 0xC DUP6 ADD PUSH1 0x0 MSTORE PUSH1 0x20 PUSH1 0x0 KECCAK256 SWAP2 PUSH1 0x0 JUMPDEST PUSH1 0x1F NOT DUP6 AND DUP2 LT PUSH4 0x42B6 JUMPI POP SWAP2 DUP4 SWAP2 PUSH1 0x1 SWAP4 PUSH2 0x1A0 SWAP7 SWAP6 PUSH1 0x1F NOT DUP2 AND LT PUSH4 0x429B JUMPI JUMPDEST POP POP POP DUP2 SHL ADD PUSH1 0xC DUP5 ADD SSTORE PUSH4 0x26B5 JUMP JUMPDEST ADD MLOAD PUSH1 0x0 NOT PUSH1 0xF8 DUP5 PUSH1 0x3 SHL AND SHR NOT AND SWAP1 SSTORE DUP9 DUP1 DUP1 PUSH4 0x4289 JUMP JUMPDEST SWAP2 SWAP3 PUSH1 0x20 PUSH1 0x1 DUP2 SWAP3 DUP7 DUP6 ADD MLOAD DUP2 SSTORE ADD SWAP5 ADD SWAP3 ADD PUSH4 0x4263 JUMP JUMPDEST PUSH4 0x4305 SWAP1 PUSH1 0xC DUP7 ADD PUSH1 0x0 MSTORE PUSH1 0x20 PUSH1 0x0 KECCAK256 PUSH1 0x1F DUP6 ADD PUSH1 0x5 SHR DUP2 ADD SWAP2 PUSH1 0x20 DUP7 LT PUSH4 0x335F JUMPI PUSH1 0x1F ADD PUSH1 0x5 SHR ADD SWAP1 PUSH4 0x6F6E JUMP JUMPDEST DUP8 PUSH4 0x267B JUMP JUMPDEST DUP1 MLOAD DUP1 MLOAD SWAP1 PUSH1 0x1 PUSH1 0x1 PUSH1 0x40 SHL SUB DUP3 GT PUSH4 0x336B JUMPI PUSH4 0x4330 DUP7 SLOAD PUSH4 0x6F2E JUMP JUMPDEST PUSH1 0x1F DUP2 GT PUSH4 0x440A JUMPI JUMPDEST POP PUSH1 0x20 SWAP1 PUSH1 0x1F DUP4 GT PUSH1 0x1 EQ PUSH4 0x4390 JUMPI SWAP3 DUP3 PUSH1 0x1 SWAP5 SWAP4 PUSH1 0x20 SWAP4 DUP7 SWAP6 PUSH1 0x0 SWAP3 PUSH4 0x4383 JUMPI JUMPDEST POP POP PUSH1 0x0 NOT PUSH1 0x3 DUP4 SWAP1 SHL SHR NOT AND SWAP1 DUP5 SHL OR DUP8 SSTORE JUMPDEST ADD SWAP5 ADD SWAP2 ADD SWAP1 SWAP3 PUSH4 0x2601 JUMP JUMPDEST ADD MLOAD SWAP1 POP DUP15 DUP1 PUSH4 0x4361 JUMP JUMPDEST SWAP1 DUP7 PUSH1 0x0 MSTORE PUSH1 0x20 PUSH1 0x0 KECCAK256 SWAP2 PUSH1 0x0 JUMPDEST PUSH1 0x1F NOT DUP6 AND DUP2 LT PUSH4 0x43F0 JUMPI POP DUP4 PUSH1 0x20 SWAP4 PUSH1 0x1 SWAP7 SWAP4 DUP8 SWAP7 SWAP4 DUP8 SWAP5 PUSH1 0x1F NOT DUP2 AND LT PUSH4 0x43D5 JUMPI JUMPDEST POP POP POP DUP2 SHL ADD DUP8 SSTORE PUSH4 0x4375 JUMP JUMPDEST ADD MLOAD PUSH1 0x0 NOT PUSH1 0xF8 DUP5 PUSH1 0x3 SHL AND SHR NOT AND SWAP1 SSTORE DUP15 DUP1 DUP1 PUSH4 0x43C6 JUMP JUMPDEST SWAP2 SWAP3 PUSH1 0x20 PUSH1 0x1 DUP2 SWAP3 DUP7 DUP6 ADD MLOAD DUP2 SSTORE ADD SWAP5 ADD SWAP3 ADD PUSH4 0x439E JUMP JUMPDEST PUSH4 0x443C SWAP1 DUP8 PUSH1 0x0 MSTORE PUSH1 0x20 PUSH1 0x0 KECCAK256 PUSH1 0x1F DUP6 ADD PUSH1 0x5 SHR DUP2 ADD SWAP2 PUSH1 0x20 DUP7 LT PUSH4 0x335F JUMPI PUSH1 0x1F ADD PUSH1 0x5 SHR ADD SWAP1 PUSH4 0x6F6E JUMP JUMPDEST DUP12 PUSH4 0x433B JUMP JUMPDEST PUSH1 0x8 DUP6 ADD PUSH1 0x0 MSTORE PUSH1 0x20 PUSH1 0x0 KECCAK256 SWAP1 DUP4 DUP3 ADD JUMPDEST DUP2 DUP4 ADD DUP2 LT PUSH4 0x4469 JUMPI POP POP PUSH4 0x25EB JUMP JUMPDEST DUP1 PUSH4 0x4479 PUSH1 0x1 SWAP3 PUSH4 0x6FA3 JUMP JUMPDEST ADD PUSH4 0x4455 JUMP JUMPDEST DUP1 MLOAD DUP1 MLOAD SWAP1 PUSH1 0x1 PUSH1 0x1 PUSH1 0x40 SHL SUB DUP3 GT PUSH4 0x336B JUMPI PUSH4 0x44A4 DUP7 SLOAD PUSH4 0x6F2E JUMP JUMPDEST PUSH1 0x1F DUP2 GT PUSH4 0x457E JUMPI JUMPDEST POP PUSH1 0x20 SWAP1 PUSH1 0x1F DUP4 GT PUSH1 0x1 EQ PUSH4 0x4504 JUMPI SWAP3 DUP3 PUSH1 0x1 SWAP5 SWAP4 PUSH1 0x20 SWAP4 DUP7 SWAP6 PUSH1 0x0 SWAP3 PUSH4 0x44F7 JUMPI JUMPDEST POP POP PUSH1 0x0 NOT PUSH1 0x3 DUP4 SWAP1 SHL SHR NOT AND SWAP1 DUP5 SHL OR DUP8 SSTORE JUMPDEST ADD SWAP5 ADD SWAP2 ADD SWAP1 SWAP3 PUSH4 0x25AE JUMP JUMPDEST ADD MLOAD SWAP1 POP DUP15 DUP1 PUSH4 0x44D5 JUMP JUMPDEST SWAP1 DUP7 PUSH1 0x0 MSTORE PUSH1 0x20 PUSH1 0x0 KECCAK256 SWAP2 PUSH1 0x0 JUMPDEST PUSH1 0x1F NOT DUP6 AND DUP2 LT PUSH4 0x4564 JUMPI POP DUP4 PUSH1 0x20 SWAP4 PUSH1 0x1 SWAP7 SWAP4 DUP8 SWAP7 SWAP4 DUP8 SWAP5 PUSH1 0x1F NOT DUP2 AND LT PUSH4 0x4549 JUMPI JUMPDEST POP POP POP DUP2 SHL ADD DUP8 SSTORE PUSH4 0x44E9 JUMP JUMPDEST ADD MLOAD PUSH1 0x0 NOT PUSH1 0xF8 DUP5 PUSH1 0x3 SHL AND SHR NOT AND SWAP1 SSTORE DUP15 DUP1 DUP1 PUSH4 0x453A JUMP JUMPDEST SWAP2 SWAP3 PUSH1 0x20 PUSH1 0x1 DUP2 SWAP3 DUP7 DUP6 ADD MLOAD DUP2 SSTORE ADD SWAP5 ADD SWAP3 ADD PUSH4 0x4512 JUMP JUMPDEST PUSH4 0x45B0 SWAP1 DUP8 PUSH1 0x0 MSTORE PUSH1 0x20 PUSH1 0x0 KECCAK256 PUSH1 0x1F DUP6 ADD PUSH1 0x5 SHR DUP2 ADD SWAP2 PUSH1 0x20 DUP7 LT PUSH4 0x335F JUMPI PUSH1 0x1F ADD PUSH1 0x5 SHR ADD SWAP1 PUSH4 0x6F6E JUMP JUMPDEST DUP12 PUSH4 0x44AF JUMP JUMPDEST PUSH1 0x7 DUP6 ADD PUSH1 0x0 MSTORE PUSH1 0x20 PUSH1 0x0 KECCAK256 SWAP1 DUP4 DUP3 ADD JUMPDEST DUP2 DUP4 ADD DUP2 LT PUSH4 0x45DD JUMPI POP POP PUSH4 0x2598 JUMP JUMPDEST DUP1 PUSH4 0x45ED PUSH1 0x1 SWAP3 PUSH4 0x6FA3 JUMP JUMPDEST ADD PUSH4 0x45C9 JUMP JUMPDEST DUP1 MLOAD DUP1 MLOAD DUP1 MLOAD SWAP1 PUSH1 0x1 PUSH1 0x1 PUSH1 0x40 SHL SUB DUP3 GT PUSH4 0x336B JUMPI DUP2 SWAP1 PUSH4 0x461C DUP9 SLOAD PUSH4 0x6F2E JUMP JUMPDEST PUSH1 0x1F DUP2 GT PUSH4 0x4AB5 JUMPI JUMPDEST POP PUSH1 0x20 SWAP1 PUSH1 0x1F DUP4 GT PUSH1 0x1 EQ PUSH4 0x4A3F JUMPI PUSH1 0x0 SWAP3 PUSH4 0x4A32 JUMPI JUMPDEST POP POP DUP2 PUSH1 0x1 SHL SWAP2 PUSH1 0x0 NOT SWAP1 PUSH1 0x3 SHL SHR NOT AND OR DUP6 SSTORE JUMPDEST PUSH1 0x20 DUP2 ADD MLOAD PUSH1 0xA DUP2 LT ISZERO PUSH4 0x3B6E JUMPI PUSH1 0x1 DUP7 ADD SWAP1 DUP2 SLOAD PUSH1 0xFF PUSH2 0xFF00 PUSH1 0x40 DUP7 ADD MLOAD ISZERO ISZERO PUSH1 0x8 SHL AND SWAP3 AND SWAP1 PUSH2 0xFFFF NOT AND OR OR SWAP1 SSTORE PUSH1 0x60 DUP2 ADD MLOAD DUP1 MLOAD SWAP1 PUSH1 0x1 DUP1 PUSH1 0x40 SHL SUB DUP3 GT PUSH4 0x336B JUMPI DUP2 SWAP1 PUSH4 0x46B4 PUSH1 0x2 DUP10 ADD SLOAD PUSH4 0x6F2E JUMP JUMPDEST PUSH1 0x1F DUP2 GT PUSH4 0x49F5 JUMPI JUMPDEST POP PUSH1 0x20 SWAP1 PUSH1 0x1F DUP4 GT PUSH1 0x1 EQ PUSH4 0x4979 JUMPI PUSH1 0x0 SWAP3 PUSH4 0x496C JUMPI JUMPDEST POP POP DUP2 PUSH1 0x1 SHL SWAP2 PUSH1 0x0 NOT SWAP1 PUSH1 0x3 SHL SHR NOT AND OR PUSH1 0x2 DUP7 ADD SSTORE JUMPDEST PUSH1 0x80 DUP2 ADD MLOAD DUP1 MLOAD SWAP1 PUSH1 0x1 PUSH1 0x1 PUSH1 0x40 SHL SUB DUP3 GT PUSH4 0x336B JUMPI PUSH4 0x471B PUSH1 0x3 DUP9 ADD SLOAD PUSH4 0x6F2E JUMP JUMPDEST PUSH1 0x1F DUP2 GT PUSH4 0x492F JUMPI JUMPDEST POP PUSH1 0x20 SWAP1 PUSH1 0x1F DUP4 GT PUSH1 0x1 EQ PUSH4 0x48B2 JUMPI PUSH1 0xA0 SWAP4 SWAP3 SWAP2 PUSH1 0x0 SWAP2 DUP4 PUSH4 0x48A5 JUMPI JUMPDEST POP POP DUP2 PUSH1 0x1 SHL SWAP2 PUSH1 0x0 NOT SWAP1 PUSH1 0x3 SHL SHR NOT AND OR PUSH1 0x3 DUP8 ADD SSTORE JUMPDEST ADD MLOAD DUP1 MLOAD SWAP1 PUSH1 0x1 PUSH1 0x1 PUSH1 0x40 SHL SUB DUP3 GT PUSH4 0x336B JUMPI PUSH4 0x4785 PUSH1 0x4 DUP8 ADD SLOAD PUSH4 0x6F2E JUMP JUMPDEST PUSH1 0x1F DUP2 GT PUSH4 0x4868 JUMPI JUMPDEST POP PUSH1 0x20 SWAP1 PUSH1 0x1F DUP4 GT PUSH1 0x1 EQ PUSH4 0x47E8 JUMPI SWAP3 DUP3 PUSH1 0x5 SWAP4 PUSH1 0x20 SWAP4 PUSH1 0x1 SWAP7 PUSH1 0x0 SWAP3 PUSH4 0x47DB JUMPI JUMPDEST POP POP PUSH1 0x0 NOT PUSH1 0x3 DUP4 SWAP1 SHL SHR NOT AND SWAP1 DUP6 SHL OR PUSH1 0x4 DUP9 ADD SSTORE JUMPDEST ADD SWAP5 ADD SWAP2 ADD SWAP1 SWAP3 PUSH4 0x255C JUMP JUMPDEST ADD MLOAD SWAP1 POP DUP15 DUP1 PUSH4 0x47B6 JUMP JUMPDEST SWAP1 PUSH1 0x4 DUP8 ADD PUSH1 0x0 MSTORE PUSH1 0x20 PUSH1 0x0 KECCAK256 SWAP2 PUSH1 0x0 JUMPDEST PUSH1 0x1F NOT DUP6 AND DUP2 LT PUSH4 0x484E JUMPI POP DUP4 PUSH1 0x20 SWAP4 PUSH1 0x1 SWAP7 SWAP4 DUP8 SWAP4 PUSH1 0x5 SWAP8 PUSH1 0x1F NOT DUP2 AND LT PUSH4 0x4833 JUMPI JUMPDEST POP POP POP DUP2 SHL ADD PUSH1 0x4 DUP9 ADD SSTORE PUSH4 0x47CD JUMP JUMPDEST ADD MLOAD PUSH1 0x0 NOT PUSH1 0xF8 DUP5 PUSH1 0x3 SHL AND SHR NOT AND SWAP1 SSTORE DUP15 DUP1 DUP1 PUSH4 0x4821 JUMP JUMPDEST SWAP2 SWAP3 PUSH1 0x20 PUSH1 0x1 DUP2 SWAP3 DUP7 DUP6 ADD MLOAD DUP2 SSTORE ADD SWAP5 ADD SWAP3 ADD PUSH4 0x47F9 JUMP JUMPDEST PUSH4 0x489D SWAP1 PUSH1 0x4 DUP9 ADD PUSH1 0x0 MSTORE PUSH1 0x20 PUSH1 0x0 KECCAK256 PUSH1 0x1F DUP6 ADD PUSH1 0x5 SHR DUP2 ADD SWAP2 PUSH1 0x20 DUP7 LT PUSH4 0x335F JUMPI PUSH1 0x1F ADD PUSH1 0x5 SHR ADD SWAP1 PUSH4 0x6F6E JUMP JUMPDEST DUP12 PUSH4 0x4790 JUMP JUMPDEST ADD MLOAD SWAP1 POP DUP14 DUP1 PUSH4 0x4747 JUMP JUMPDEST SWAP1 PUSH1 0x3 DUP9 ADD PUSH1 0x0 MSTORE PUSH1 0x20 PUSH1 0x0 KECCAK256 SWAP2 PUSH1 0x0 JUMPDEST PUSH1 0x1F NOT DUP6 AND DUP2 LT PUSH4 0x4915 JUMPI POP SWAP2 DUP4 SWAP2 PUSH1 0x1 SWAP4 PUSH1 0xA0 SWAP7 SWAP6 PUSH1 0x1F NOT DUP2 AND LT PUSH4 0x48FA JUMPI JUMPDEST POP POP POP DUP2 SHL ADD PUSH1 0x3 DUP8 ADD SSTORE PUSH4 0x475F JUMP JUMPDEST ADD MLOAD PUSH1 0x0 NOT PUSH1 0xF8 DUP5 PUSH1 0x3 SHL AND SHR NOT AND SWAP1 SSTORE DUP14 DUP1 DUP1 PUSH4 0x48E8 JUMP JUMPDEST SWAP2 SWAP3 PUSH1 0x20 PUSH1 0x1 DUP2 SWAP3 DUP7 DUP6 ADD MLOAD DUP2 SSTORE ADD SWAP5 ADD SWAP3 ADD PUSH4 0x48C3 JUMP JUMPDEST PUSH4 0x4964 SWAP1 PUSH1 0x3 DUP10 ADD PUSH1 0x0 MSTORE PUSH1 0x20 PUSH1 0x0 KECCAK256 PUSH1 0x1F DUP6 ADD PUSH1 0x5 SHR DUP2 ADD SWAP2 PUSH1 0x20 DUP7 LT PUSH4 0x335F JUMPI PUSH1 0x1F ADD PUSH1 0x5 SHR ADD SWAP1 PUSH4 0x6F6E JUMP JUMPDEST DUP13 PUSH4 0x4726 JUMP JUMPDEST ADD MLOAD SWAP1 POP DUP13 DUP1 PUSH4 0x46DA JUMP JUMPDEST SWAP3 POP PUSH1 0x2 DUP9 ADD PUSH1 0x0 MSTORE PUSH1 0x20 PUSH1 0x0 KECCAK256 SWAP1 PUSH1 0x0 SWAP4 JUMPDEST PUSH1 0x1F NOT DUP5 AND DUP6 LT PUSH4 0x49D8 JUMPI PUSH1 0x1 SWAP5 POP DUP4 PUSH1 0x1F NOT DUP2 AND LT PUSH4 0x49BD JUMPI JUMPDEST POP POP POP DUP2 SHL ADD PUSH1 0x2 DUP7 ADD SSTORE PUSH4 0x46F2 JUMP JUMPDEST ADD MLOAD PUSH1 0x0 NOT PUSH1 0xF8 DUP5 PUSH1 0x3 SHL AND SHR NOT AND SWAP1 SSTORE DUP13 DUP1 DUP1 PUSH4 0x49AB JUMP JUMPDEST DUP2 DUP2 ADD MLOAD DUP4 SSTORE PUSH1 0x20 SWAP5 DUP6 ADD SWAP5 PUSH1 0x1 SWAP1 SWAP4 ADD SWAP3 SWAP1 SWAP2 ADD SWAP1 PUSH4 0x498C JUMP JUMPDEST PUSH4 0x4A2A SWAP1 PUSH1 0x2 DUP11 ADD PUSH1 0x0 MSTORE PUSH1 0x20 PUSH1 0x0 KECCAK256 PUSH1 0x1F DUP6 ADD PUSH1 0x5 SHR DUP2 ADD SWAP2 PUSH1 0x20 DUP7 LT PUSH4 0x335F JUMPI PUSH1 0x1F ADD PUSH1 0x5 SHR ADD SWAP1 PUSH4 0x6F6E JUMP JUMPDEST DUP14 PUSH4 0x46BF JUMP JUMPDEST ADD MLOAD SWAP1 POP DUP13 DUP1 PUSH4 0x4642 JUMP JUMPDEST SWAP3 POP DUP8 PUSH1 0x0 MSTORE PUSH1 0x20 PUSH1 0x0 KECCAK256 SWAP1 PUSH1 0x0 SWAP4 JUMPDEST PUSH1 0x1F NOT DUP5 AND DUP6 LT PUSH4 0x4A98 JUMPI PUSH1 0x1 SWAP5 POP DUP4 PUSH1 0x1F NOT DUP2 AND LT PUSH4 0x4A7D JUMPI JUMPDEST POP POP POP DUP2 SHL ADD DUP6 SSTORE PUSH4 0x4657 JUMP JUMPDEST ADD MLOAD PUSH1 0x0 NOT PUSH1 0xF8 DUP5 PUSH1 0x3 SHL AND SHR NOT AND SWAP1 SSTORE DUP13 DUP1 DUP1 PUSH4 0x4A6E JUMP JUMPDEST DUP2 DUP2 ADD MLOAD DUP4 SSTORE PUSH1 0x20 SWAP5 DUP6 ADD SWAP5 PUSH1 0x1 SWAP1 SWAP4 ADD SWAP3 SWAP1 SWAP2 ADD SWAP1 PUSH4 0x4A4F JUMP JUMPDEST PUSH4 0x4AE7 SWAP1 DUP10 PUSH1 0x0 MSTORE PUSH1 0x20 PUSH1 0x0 KECCAK256 PUSH1 0x1F DUP6 ADD PUSH1 0x5 SHR DUP2 ADD SWAP2 PUSH1 0x20 DUP7 LT PUSH4 0x335F JUMPI PUSH1 0x1F ADD PUSH1 0x5 SHR ADD SWAP1 PUSH4 0x6F6E JUMP JUMPDEST DUP14 PUSH4 0x4627 JUMP JUMPDEST PUSH1 0x5 DUP2 DUP2 MUL DIV DUP2 SUB PUSH4 0x3CD6 JUMPI PUSH1 0x5 DUP4 DUP2 MUL DIV DUP4 SUB PUSH4 0x3CD6 JUMPI PUSH1 0x6 DUP6 ADD PUSH1 0x0 MSTORE PUSH1 0x20 PUSH1 0x0 KECCAK256 DUP4 PUSH1 0x5 MUL DUP2 ADD JUMPDEST DUP3 PUSH1 0x5 MUL DUP3 ADD DUP2 LT PUSH4 0x4B35 JUMPI POP POP PUSH4 0x2546 JUMP JUMPDEST DUP1 PUSH4 0x4B45 PUSH1 0x5 SWAP3 PUSH4 0x6FA3 JUMP JUMPDEST PUSH1 0x0 PUSH1 0x1 DUP3 ADD SSTORE PUSH4 0x4B5C PUSH1 0x2 DUP3 ADD PUSH4 0x6FA3 JUMP JUMPDEST PUSH4 0x4B6C PUSH1 0x3 DUP3 ADD PUSH4 0x6FA3 JUMP JUMPDEST PUSH4 0x4B7C PUSH1 0x4 DUP3 ADD PUSH4 0x6FA3 JUMP JUMPDEST ADD PUSH4 0x4B1E JUMP JUMPDEST ADD MLOAD SWAP1 POP DUP8 DUP1 PUSH4 0x24FF JUMP JUMPDEST SWAP3 POP PUSH1 0x5 DUP6 ADD PUSH1 0x0 MSTORE PUSH1 0x20 PUSH1 0x0 KECCAK256 SWAP1 PUSH1 0x0 SWAP4 JUMPDEST PUSH1 0x1F NOT DUP5 AND DUP6 LT PUSH4 0x4BF0 JUMPI PUSH1 0x1 SWAP5 POP DUP4 PUSH1 0x1F NOT DUP2 AND LT PUSH4 0x4BD5 JUMPI JUMPDEST POP POP POP DUP2 SHL ADD PUSH1 0x5 DUP4 ADD SSTORE PUSH4 0x2517 JUMP JUMPDEST ADD MLOAD PUSH1 0x0 NOT PUSH1 0xF8 DUP5 PUSH1 0x3 SHL AND SHR NOT AND SWAP1 SSTORE DUP8 DUP1 DUP1 PUSH4 0x4BC3 JUMP JUMPDEST DUP2 DUP2 ADD MLOAD DUP4 SSTORE PUSH1 0x20 SWAP5 DUP6 ADD SWAP5 PUSH1 0x1 SWAP1 SWAP4 ADD SWAP3 SWAP1 SWAP2 ADD SWAP1 PUSH4 0x4BA4 JUMP JUMPDEST PUSH4 0x4C42 SWAP1 PUSH1 0x5 DUP8 ADD PUSH1 0x0 MSTORE PUSH1 0x20 PUSH1 0x0 KECCAK256 PUSH1 0x1F DUP6 ADD PUSH1 0x5 SHR DUP2 ADD SWAP2 PUSH1 0x20 DUP7 LT PUSH4 0x335F JUMPI PUSH1 0x1F ADD PUSH1 0x5 SHR ADD SWAP1 PUSH4 0x6F6E JUMP JUMPDEST DUP9 PUSH4 0x24E4 JUMP JUMPDEST ADD MLOAD SWAP1 POP DUP8 DUP1 PUSH4 0x2496 JUMP JUMPDEST SWAP3 POP PUSH1 0x4 DUP6 ADD PUSH1 0x0 MSTORE PUSH1 0x20 PUSH1 0x0 KECCAK256 SWAP1 PUSH1 0x0 SWAP4 JUMPDEST PUSH1 0x1F NOT DUP5 AND DUP6 LT PUSH4 0x4CB6 JUMPI PUSH1 0x1 SWAP5 POP DUP4 PUSH1 0x1F NOT DUP2 AND LT PUSH4 0x4C9B JUMPI JUMPDEST POP POP POP DUP2 SHL ADD PUSH1 0x4 DUP4 ADD SSTORE PUSH4 0x24AE JUMP JUMPDEST ADD MLOAD PUSH1 0x0 NOT PUSH1 0xF8 DUP5 PUSH1 0x3 SHL AND SHR NOT AND SWAP1 SSTORE DUP8 DUP1 DUP1 PUSH4 0x4C89 JUMP JUMPDEST DUP2 DUP2 ADD MLOAD DUP4 SSTORE PUSH1 0x20 SWAP5 DUP6 ADD SWAP5 PUSH1 0x1 SWAP1 SWAP4 ADD SWAP3 SWAP1 SWAP2 ADD SWAP1 PUSH4 0x4C6A JUMP JUMPDEST PUSH4 0x4D08 SWAP1 PUSH1 0x4 DUP8 ADD PUSH1 0x0 MSTORE PUSH1 0x20 PUSH1 0x0 KECCAK256 PUSH1 0x1F DUP6 ADD PUSH1 0x5 SHR DUP2 ADD SWAP2 PUSH1 0x20 DUP7 LT PUSH4 0x335F JUMPI PUSH1 0x1F ADD PUSH1 0x5 SHR ADD SWAP1 PUSH4 0x6F6E JUMP JUMPDEST DUP9 PUSH4 0x247B JUMP JUMPDEST ADD MLOAD SWAP1 POP DUP8 DUP1 PUSH4 0x242D JUMP JUMPDEST SWAP3 POP PUSH1 0x3 DUP6 ADD PUSH1 0x0 MSTORE PUSH1 0x20 PUSH1 0x0 KECCAK256 SWAP1 PUSH1 0x0 SWAP4 JUMPDEST PUSH1 0x1F NOT DUP5 AND DUP6 LT PUSH4 0x4D7C JUMPI PUSH1 0x1 SWAP5 POP DUP4 PUSH1 0x1F NOT DUP2 AND LT PUSH4 0x4D61 JUMPI JUMPDEST POP POP POP DUP2 SHL ADD PUSH1 0x3 DUP4 ADD SSTORE PUSH4 0x2445 JUMP JUMPDEST ADD MLOAD PUSH1 0x0 NOT PUSH1 0xF8 DUP5 PUSH1 0x3 SHL AND SHR NOT AND SWAP1 SSTORE DUP8 DUP1 DUP1 PUSH4 0x4D4F JUMP JUMPDEST DUP2 DUP2 ADD MLOAD DUP4 SSTORE PUSH1 0x20 SWAP5 DUP6 ADD SWAP5 PUSH1 0x1 SWAP1 SWAP4 ADD SWAP3 SWAP1 SWAP2 ADD SWAP1 PUSH4 0x4D30 JUMP JUMPDEST PUSH4 0x4DCE SWAP1 PUSH1 0x3 DUP8 ADD PUSH1 0x0 MSTORE PUSH1 0x20 PUSH1 0x0 KECCAK256 PUSH1 0x1F DUP6 ADD PUSH1 0x5 SHR DUP2 ADD SWAP2 PUSH1 0x20 DUP7 LT PUSH4 0x335F JUMPI PUSH1 0x1F ADD PUSH1 0x5 SHR ADD SWAP1 PUSH4 0x6F6E JUMP JUMPDEST DUP9 PUSH4 0x2412 JUMP JUMPDEST ADD MLOAD SWAP1 POP DUP8 DUP1 PUSH4 0x23C4 JUMP JUMPDEST SWAP3 POP PUSH1 0x2 DUP6 ADD PUSH1 0x0 MSTORE PUSH1 0x20 PUSH1 0x0 KECCAK256 SWAP1 PUSH1 0x0 SWAP4 JUMPDEST PUSH1 0x1F NOT DUP5 AND DUP6 LT PUSH4 0x4E42 JUMPI PUSH1 0x1 SWAP5 POP DUP4 PUSH1 0x1F NOT DUP2 AND LT PUSH4 0x4E27 JUMPI JUMPDEST POP POP POP DUP2 SHL ADD PUSH1 0x2 DUP4 ADD SSTORE PUSH4 0x23DC JUMP JUMPDEST ADD MLOAD PUSH1 0x0 NOT PUSH1 0xF8 DUP5 PUSH1 0x3 SHL AND SHR NOT AND SWAP1 SSTORE DUP8 DUP1 DUP1 PUSH4 0x4E15 JUMP JUMPDEST DUP2 DUP2 ADD MLOAD DUP4 SSTORE PUSH1 0x20 SWAP5 DUP6 ADD SWAP5 PUSH1 0x1 SWAP1 SWAP4 ADD SWAP3 SWAP1 SWAP2 ADD SWAP1 PUSH4 0x4DF6 JUMP JUMPDEST PUSH4 0x4E94 SWAP1 PUSH1 0x2 DUP8 ADD PUSH1 0x0 MSTORE PUSH1 0x20 PUSH1 0x0 KECCAK256 PUSH1 0x1F DUP6 ADD PUSH1 0x5 SHR DUP2 ADD SWAP2 PUSH1 0x20 DUP7 LT PUSH4 0x335F JUMPI PUSH1 0x1F ADD PUSH1 0x5 SHR ADD SWAP1 PUSH4 0x6F6E JUMP JUMPDEST DUP9 PUSH4 0x23A9 JUMP JUMPDEST ADD MLOAD SWAP1 POP DUP8 DUP1 PUSH4 0x233D JUMP JUMPDEST SWAP3 POP DUP5 PUSH1 0x0 MSTORE PUSH1 0x20 PUSH1 0x0 KECCAK256 SWAP1 PUSH1 0x0 SWAP4 JUMPDEST PUSH1 0x1F NOT DUP5 AND DUP6 LT PUSH4 0x4F02 JUMPI PUSH1 0x1 SWAP5 POP DUP4 PUSH1 0x1F NOT DUP2 AND LT PUSH4 0x4EE7 JUMPI JUMPDEST POP POP POP DUP2 SHL ADD DUP3 SSTORE PUSH4 0x2352 JUMP JUMPDEST ADD MLOAD PUSH1 0x0 NOT PUSH1 0xF8 DUP5 PUSH1 0x3 SHL AND SHR NOT AND SWAP1 SSTORE DUP8 DUP1 DUP1 PUSH4 0x4ED8 JUMP JUMPDEST DUP2 DUP2 ADD MLOAD DUP4 SSTORE PUSH1 0x20 SWAP5 DUP6 ADD SWAP5 PUSH1 0x1 SWAP1 SWAP4 ADD SWAP3 SWAP1 SWAP2 ADD SWAP1 PUSH4 0x4EB9 JUMP JUMPDEST PUSH4 0x4F51 SWAP1 DUP7 PUSH1 0x0 MSTORE PUSH1 0x20 PUSH1 0x0 KECCAK256 PUSH1 0x1F DUP6 ADD PUSH1 0x5 SHR DUP2 ADD SWAP2 PUSH1 0x20 DUP7 LT PUSH4 0x335F JUMPI PUSH1 0x1F ADD PUSH1 0x5 SHR ADD SWAP1 PUSH4 0x6F6E JUMP JUMPDEST DUP9 PUSH4 0x2322 JUMP JUMPDEST PUSH1 0x20 SWAP1 PUSH4 0x4F68 PUSH4 0x6BBB JUMP JUMPDEST PUSH1 0x60 DUP2 MSTORE PUSH1 0x0 DUP4 DUP3 ADD MSTORE PUSH1 0x0 PUSH1 0x40 DUP3 ADD MSTORE PUSH1 0x60 DUP1 DUP3 ADD MSTORE PUSH1 0x60 PUSH1 0x80 DUP3 ADD MSTORE PUSH1 0x60 PUSH1 0xA0 DUP3 ADD MSTORE DUP3 DUP3 DUP6 ADD ADD MSTORE ADD PUSH4 0x1B35 JUMP JUMPDEST SWAP1 PUSH1 0xD DUP5 ADD PUSH1 0x0 MSTORE PUSH1 0x20 PUSH1 0x0 KECCAK256 SWAP2 PUSH1 0x0 JUMPDEST PUSH1 0x1F NOT DUP6 AND DUP2 LT PUSH4 0x4FFC JUMPI POP PUSH1 0x1 DUP5 PUSH1 0x0 DUP1 MLOAD PUSH1 0x20 PUSH4 0xB57A DUP4 CODECOPY DUP2 MLOAD SWAP2 MSTORE SWAP8 SWAP5 PUSH4 0xEF1 SWAP8 SWAP5 PUSH1 0xD SWAP5 PUSH4 0x1ADE SWAP9 PUSH1 0x1F NOT DUP2 AND LT PUSH4 0x32EC JUMPI POP POP POP DUP2 SHL ADD SWAP2 ADD SSTORE PUSH4 0xDDA JUMP JUMPDEST SWAP2 SWAP3 PUSH1 0x20 PUSH1 0x1 DUP2 SWAP3 DUP7 DUP6 ADD MLOAD DUP2 SSTORE ADD SWAP5 ADD SWAP3 ADD PUSH4 0x4FAC JUMP JUMPDEST PUSH4 0x504B SWAP1 PUSH1 0xD DUP6 ADD PUSH1 0x0 MSTORE PUSH1 0x20 PUSH1 0x0 KECCAK256 PUSH1 0x1F DUP6 ADD PUSH1 0x5 SHR DUP2 ADD SWAP2 PUSH1 0x20 DUP7 LT PUSH4 0x335F JUMPI PUSH1 0x1F ADD PUSH1 0x5 SHR ADD SWAP1 PUSH4 0x6F6E JUMP JUMPDEST DUP7 PUSH4 0x1A73 JUMP JUMPDEST ADD MLOAD SWAP1 POP DUP9 DUP1 PUSH4 0x1A2A JUMP JUMPDEST SWAP1 PUSH1 0xC DUP6 ADD PUSH1 0x0 MSTORE PUSH1 0x20 PUSH1 0x0 KECCAK256 SWAP2 PUSH1 0x0 JUMPDEST PUSH1 0x1F NOT DUP6 AND DUP2 LT PUSH4 0x50C4 JUMPI POP SWAP2 DUP4 SWAP2 PUSH1 0x1 SWAP4 PUSH2 0x1A0 SWAP7 SWAP6 PUSH1 0x1F NOT DUP2 AND LT PUSH4 0x50A9 JUMPI JUMPDEST POP POP POP DUP2 SHL ADD PUSH1 0xC DUP5 ADD SSTORE PUSH4 0x1A42 JUMP JUMPDEST ADD MLOAD PUSH1 0x0 NOT PUSH1 0xF8 DUP5 PUSH1 0x3 SHL AND SHR NOT AND SWAP1 SSTORE DUP9 DUP1 DUP1 PUSH4 0x5097 JUMP JUMPDEST SWAP2 SWAP3 PUSH1 0x20 PUSH1 0x1 DUP2 SWAP3 DUP7 DUP6 ADD MLOAD DUP2 SSTORE ADD SWAP5 ADD SWAP3 ADD PUSH4 0x5071 JUMP JUMPDEST PUSH4 0x5113 SWAP1 PUSH1 0xC DUP7 ADD PUSH1 0x0 MSTORE PUSH1 0x20 PUSH1 0x0 KECCAK256 PUSH1 0x1F DUP6 ADD PUSH1 0x5 SHR DUP2 ADD SWAP2 PUSH1 0x20 DUP7 LT PUSH4 0x335F JUMPI PUSH1 0x1F ADD PUSH1 0x5 SHR ADD SWAP1 PUSH4 0x6F6E JUMP JUMPDEST DUP8 PUSH4 0x1A08 JUMP JUMPDEST DUP1 MLOAD DUP1 MLOAD SWAP1 PUSH1 0x1 PUSH1 0x1 PUSH1 0x40 SHL SUB DUP3 GT PUSH4 0x336B JUMPI PUSH4 0x513E DUP7 SLOAD PUSH4 0x6F2E JUMP JUMPDEST PUSH1 0x1F DUP2 GT PUSH4 0x5218 JUMPI JUMPDEST POP PUSH1 0x20 SWAP1 PUSH1 0x1F DUP4 GT PUSH1 0x1 EQ PUSH4 0x519E JUMPI SWAP3 DUP3 PUSH1 0x1 SWAP5 SWAP4 PUSH1 0x20 SWAP4 DUP7 SWAP6 PUSH1 0x0 SWAP3 PUSH4 0x5191 JUMPI JUMPDEST POP POP PUSH1 0x0 NOT PUSH1 0x3 DUP4 SWAP1 SHL SHR NOT AND SWAP1 DUP5 SHL OR DUP8 SSTORE JUMPDEST ADD SWAP5 ADD SWAP2 ADD SWAP1 SWAP3 PUSH4 0x198E JUMP JUMPDEST ADD MLOAD SWAP1 POP DUP15 DUP1 PUSH4 0x516F JUMP JUMPDEST SWAP1 DUP7 PUSH1 0x0 MSTORE PUSH1 0x20 PUSH1 0x0 KECCAK256 SWAP2 PUSH1 0x0 JUMPDEST PUSH1 0x1F NOT DUP6 AND DUP2 LT PUSH4 0x51FE JUMPI POP DUP4 PUSH1 0x20 SWAP4 PUSH1 0x1 SWAP7 SWAP4 DUP8 SWAP7 SWAP4 DUP8 SWAP5 PUSH1 0x1F NOT DUP2 AND LT PUSH4 0x51E3 JUMPI JUMPDEST POP POP POP DUP2 SHL ADD DUP8 SSTORE PUSH4 0x5183 JUMP JUMPDEST ADD MLOAD PUSH1 0x0 NOT PUSH1 0xF8 DUP5 PUSH1 0x3 SHL AND SHR NOT AND SWAP1 SSTORE DUP15 DUP1 DUP1 PUSH4 0x51D4 JUMP JUMPDEST SWAP2 SWAP3 PUSH1 0x20 PUSH1 0x1 DUP2 SWAP3 DUP7 DUP6 ADD MLOAD DUP2 SSTORE ADD SWAP5 ADD SWAP3 ADD PUSH4 0x51AC JUMP JUMPDEST PUSH4 0x524A SWAP1 DUP8 PUSH1 0x0 MSTORE PUSH1 0x20 PUSH1 0x0 KECCAK256 PUSH1 0x1F DUP6 ADD PUSH1 0x5 SHR DUP2 ADD SWAP2 PUSH1 0x20 DUP7 LT PUSH4 0x335F JUMPI PUSH1 0x1F ADD PUSH1 0x5 SHR ADD SWAP1 PUSH4 0x6F6E JUMP JUMPDEST DUP12 PUSH4 0x5149 JUMP JUMPDEST PUSH1 0x8 DUP6 ADD PUSH1 0x0 MSTORE PUSH1 0x20 PUSH1 0x0 KECCAK256 SWAP1 DUP4 DUP3 ADD JUMPDEST DUP2 DUP4 ADD DUP2 LT PUSH4 0x5277 JUMPI POP POP PUSH4 0x1978 JUMP JUMPDEST DUP1 PUSH4 0x5287 PUSH1 0x1 SWAP3 PUSH4 0x6FA3 JUMP JUMPDEST ADD PUSH4 0x5263 JUMP JUMPDEST DUP1 MLOAD DUP1 MLOAD SWAP1 PUSH1 0x1 PUSH1 0x1 PUSH1 0x40 SHL SUB DUP3 GT PUSH4 0x336B JUMPI PUSH4 0x52B2 DUP7 SLOAD PUSH4 0x6F2E JUMP JUMPDEST PUSH1 0x1F DUP2 GT PUSH4 0x538C JUMPI JUMPDEST POP PUSH1 0x20 SWAP1 PUSH1 0x1F DUP4 GT PUSH1 0x1 EQ PUSH4 0x5312 JUMPI SWAP3 DUP3 PUSH1 0x1 SWAP5 SWAP4 PUSH1 0x20 SWAP4 DUP7 SWAP6 PUSH1 0x0 SWAP3 PUSH4 0x5305 JUMPI JUMPDEST POP POP PUSH1 0x0 NOT PUSH1 0x3 DUP4 SWAP1 SHL SHR NOT AND SWAP1 DUP5 SHL OR DUP8 SSTORE JUMPDEST ADD SWAP5 ADD SWAP2 ADD SWAP1 SWAP3 PUSH4 0x193B JUMP JUMPDEST ADD MLOAD SWAP1 POP DUP15 DUP1 PUSH4 0x52E3 JUMP JUMPDEST SWAP1 DUP7 PUSH1 0x0 MSTORE PUSH1 0x20 PUSH1 0x0 KECCAK256 SWAP2 PUSH1 0x0 JUMPDEST PUSH1 0x1F NOT DUP6 AND DUP2 LT PUSH4 0x5372 JUMPI POP DUP4 PUSH1 0x20 SWAP4 PUSH1 0x1 SWAP7 SWAP4 DUP8 SWAP7 SWAP4 DUP8 SWAP5 PUSH1 0x1F NOT DUP2 AND LT PUSH4 0x5357 JUMPI JUMPDEST POP POP POP DUP2 SHL ADD DUP8 SSTORE PUSH4 0x52F7 JUMP JUMPDEST ADD MLOAD PUSH1 0x0 NOT PUSH1 0xF8 DUP5 PUSH1 0x3 SHL AND SHR NOT AND SWAP1 SSTORE DUP15 DUP1 DUP1 PUSH4 0x5348 JUMP JUMPDEST SWAP2 SWAP3 PUSH1 0x20 PUSH1 0x1 DUP2 SWAP3 DUP7 DUP6 ADD MLOAD DUP2 SSTORE ADD SWAP5 ADD SWAP3 ADD PUSH4 0x5320 JUMP JUMPDEST PUSH4 0x53BE SWAP1 DUP8 PUSH1 0x0 MSTORE PUSH1 0x20 PUSH1 0x0 KECCAK256 PUSH1 0x1F DUP6 ADD PUSH1 0x5 SHR DUP2 ADD SWAP2 PUSH1 0x20 DUP7 LT PUSH4 0x335F JUMPI PUSH1 0x1F ADD PUSH1 0x5 SHR ADD SWAP1 PUSH4 0x6F6E JUMP JUMPDEST DUP12 PUSH4 0x52BD JUMP JUMPDEST PUSH1 0x7 DUP6 ADD PUSH1 0x0 MSTORE PUSH1 0x20 PUSH1 0x0 KECCAK256 SWAP1 DUP4 DUP3 ADD JUMPDEST DUP2 DUP4 ADD DUP2 LT PUSH4 0x53EB JUMPI POP POP PUSH4 0x1925 JUMP JUMPDEST DUP1 PUSH4 0x53FB PUSH1 0x1 SWAP3 PUSH4 0x6FA3 JUMP JUMPDEST ADD PUSH4 0x53D7 JUMP JUMPDEST DUP1 MLOAD DUP1 MLOAD DUP1 MLOAD SWAP1 PUSH1 0x1 PUSH1 0x1 PUSH1 0x40 SHL SUB DUP3 GT PUSH4 0x336B JUMPI DUP2 SWAP1 PUSH4 0x542A DUP9 SLOAD PUSH4 0x6F2E JUMP JUMPDEST PUSH1 0x1F DUP2 GT PUSH4 0x58C3 JUMPI JUMPDEST POP PUSH1 0x20 SWAP1 PUSH1 0x1F DUP4 GT PUSH1 0x1 EQ PUSH4 0x584D JUMPI PUSH1 0x0 SWAP3 PUSH4 0x5840 JUMPI JUMPDEST POP POP DUP2 PUSH1 0x1 SHL SWAP2 PUSH1 0x0 NOT SWAP1 PUSH1 0x3 SHL SHR NOT AND OR DUP6 SSTORE JUMPDEST PUSH1 0x20 DUP2 ADD MLOAD PUSH1 0xA DUP2 LT ISZERO PUSH4 0x3B6E JUMPI PUSH1 0x1 DUP7 ADD SWAP1 DUP2 SLOAD PUSH1 0xFF PUSH2 0xFF00 PUSH1 0x40 DUP7 ADD MLOAD ISZERO ISZERO PUSH1 0x8 SHL AND SWAP3 AND SWAP1 PUSH2 0xFFFF NOT AND OR OR SWAP1 SSTORE PUSH1 0x60 DUP2 ADD MLOAD DUP1 MLOAD SWAP1 PUSH1 0x1 DUP1 PUSH1 0x40 SHL SUB DUP3 GT PUSH4 0x336B JUMPI DUP2 SWAP1 PUSH4 0x54C2 PUSH1 0x2 DUP10 ADD SLOAD PUSH4 0x6F2E JUMP JUMPDEST PUSH1 0x1F DUP2 GT PUSH4 0x5803 JUMPI JUMPDEST POP PUSH1 0x20 SWAP1 PUSH1 0x1F DUP4 GT PUSH1 0x1 EQ PUSH4 0x5787 JUMPI PUSH1 0x0 SWAP3 PUSH4 0x577A JUMPI JUMPDEST POP POP DUP2 PUSH1 0x1 SHL SWAP2 PUSH1 0x0 NOT SWAP1 PUSH1 0x3 SHL SHR NOT AND OR PUSH1 0x2 DUP7 ADD SSTORE JUMPDEST PUSH1 0x80 DUP2 ADD MLOAD DUP1 MLOAD SWAP1 PUSH1 0x1 PUSH1 0x1 PUSH1 0x40 SHL SUB DUP3 GT PUSH4 0x336B JUMPI PUSH4 0x5529 PUSH1 0x3 DUP9 ADD SLOAD PUSH4 0x6F2E JUMP JUMPDEST PUSH1 0x1F DUP2 GT PUSH4 0x573D JUMPI JUMPDEST POP PUSH1 0x20 SWAP1 PUSH1 0x1F DUP4 GT PUSH1 0x1 EQ PUSH4 0x56C0 JUMPI PUSH1 0xA0 SWAP4 SWAP3 SWAP2 PUSH1 0x0 SWAP2 DUP4 PUSH4 0x56B3 JUMPI JUMPDEST POP POP DUP2 PUSH1 0x1 SHL SWAP2 PUSH1 0x0 NOT SWAP1 PUSH1 0x3 SHL SHR NOT AND OR PUSH1 0x3 DUP8 ADD SSTORE JUMPDEST ADD MLOAD DUP1 MLOAD SWAP1 PUSH1 0x1 PUSH1 0x1 PUSH1 0x40 SHL SUB DUP3 GT PUSH4 0x336B JUMPI PUSH4 0x5593 PUSH1 0x4 DUP8 ADD SLOAD PUSH4 0x6F2E JUMP JUMPDEST PUSH1 0x1F DUP2 GT PUSH4 0x5676 JUMPI JUMPDEST POP PUSH1 0x20 SWAP1 PUSH1 0x1F DUP4 GT PUSH1 0x1 EQ PUSH4 0x55F6 JUMPI SWAP3 DUP3 PUSH1 0x5 SWAP4 PUSH1 0x20 SWAP4 PUSH1 0x1 SWAP7 PUSH1 0x0 SWAP3 PUSH4 0x55E9 JUMPI JUMPDEST POP POP PUSH1 0x0 NOT PUSH1 0x3 DUP4 SWAP1 SHL SHR NOT AND SWAP1 DUP6 SHL OR PUSH1 0x4 DUP9 ADD SSTORE JUMPDEST ADD SWAP5 ADD SWAP2 ADD SWAP1 SWAP3 PUSH4 0x18E9 JUMP JUMPDEST ADD MLOAD SWAP1 POP DUP15 DUP1 PUSH4 0x55C4 JUMP JUMPDEST SWAP1 PUSH1 0x4 DUP8 ADD PUSH1 0x0 MSTORE PUSH1 0x20 PUSH1 0x0 KECCAK256 SWAP2 PUSH1 0x0 JUMPDEST PUSH1 0x1F NOT DUP6 AND DUP2 LT PUSH4 0x565C JUMPI POP DUP4 PUSH1 0x20 SWAP4 PUSH1 0x1 SWAP7 SWAP4 DUP8 SWAP4 PUSH1 0x5 SWAP8 PUSH1 0x1F NOT DUP2 AND LT PUSH4 0x5641 JUMPI JUMPDEST POP POP POP DUP2 SHL ADD PUSH1 0x4 DUP9 ADD SSTORE PUSH4 0x55DB JUMP JUMPDEST ADD MLOAD PUSH1 0x0 NOT PUSH1 0xF8 DUP5 PUSH1 0x3 SHL AND SHR NOT AND SWAP1 SSTORE DUP15 DUP1 DUP1 PUSH4 0x562F JUMP JUMPDEST SWAP2 SWAP3 PUSH1 0x20 PUSH1 0x1 DUP2 SWAP3 DUP7 DUP6 ADD MLOAD DUP2 SSTORE ADD SWAP5 ADD SWAP3 ADD PUSH4 0x5607 JUMP JUMPDEST PUSH4 0x56AB SWAP1 PUSH1 0x4 DUP9 ADD PUSH1 0x0 MSTORE PUSH1 0x20 PUSH1 0x0 KECCAK256 PUSH1 0x1F DUP6 ADD PUSH1 0x5 SHR DUP2 ADD SWAP2 PUSH1 0x20 DUP7 LT PUSH4 0x335F JUMPI PUSH1 0x1F ADD PUSH1 0x5 SHR ADD SWAP1 PUSH4 0x6F6E JUMP JUMPDEST DUP12 PUSH4 0x559E JUMP JUMPDEST ADD MLOAD SWAP1 POP DUP14 DUP1 PUSH4 0x5555 JUMP JUMPDEST SWAP1 PUSH1 0x3 DUP9 ADD PUSH1 0x0 MSTORE PUSH1 0x20 PUSH1 0x0 KECCAK256 SWAP2 PUSH1 0x0 JUMPDEST PUSH1 0x1F NOT DUP6 AND DUP2 LT PUSH4 0x5723 JUMPI POP SWAP2 DUP4 SWAP2 PUSH1 0x1 SWAP4 PUSH1 0xA0 SWAP7 SWAP6 PUSH1 0x1F NOT DUP2 AND LT PUSH4 0x5708 JUMPI JUMPDEST POP POP POP DUP2 SHL ADD PUSH1 0x3 DUP8 ADD SSTORE PUSH4 0x556D JUMP JUMPDEST ADD MLOAD PUSH1 0x0 NOT PUSH1 0xF8 DUP5 PUSH1 0x3 SHL AND SHR NOT AND SWAP1 SSTORE DUP14 DUP1 DUP1 PUSH4 0x56F6 JUMP JUMPDEST SWAP2 SWAP3 PUSH1 0x20 PUSH1 0x1 DUP2 SWAP3 DUP7 DUP6 ADD MLOAD DUP2 SSTORE ADD SWAP5 ADD SWAP3 ADD PUSH4 0x56D1 JUMP JUMPDEST PUSH4 0x5772 SWAP1 PUSH1 0x3 DUP10 ADD PUSH1 0x0 MSTORE PUSH1 0x20 PUSH1 0x0 KECCAK256 PUSH1 0x1F DUP6 ADD PUSH1 0x5 SHR DUP2 ADD SWAP2 PUSH1 0x20 DUP7 LT PUSH4 0x335F JUMPI PUSH1 0x1F ADD PUSH1 0x5 SHR ADD SWAP1 PUSH4 0x6F6E JUMP JUMPDEST DUP13 PUSH4 0x5534 JUMP JUMPDEST ADD MLOAD SWAP1 POP DUP13 DUP1 PUSH4 0x54E8 JUMP JUMPDEST SWAP3 POP PUSH1 0x2 DUP9 ADD PUSH1 0x0 MSTORE PUSH1 0x20 PUSH1 0x0 KECCAK256 SWAP1 PUSH1 0x0 SWAP4 JUMPDEST PUSH1 0x1F NOT DUP5 AND DUP6 LT PUSH4 0x57E6 JUMPI PUSH1 0x1 SWAP5 POP DUP4 PUSH1 0x1F NOT DUP2 AND LT PUSH4 0x57CB JUMPI JUMPDEST POP POP POP DUP2 SHL ADD PUSH1 0x2 DUP7 ADD SSTORE PUSH4 0x5500 JUMP JUMPDEST ADD MLOAD PUSH1 0x0 NOT PUSH1 0xF8 DUP5 PUSH1 0x3 SHL AND SHR NOT AND SWAP1 SSTORE DUP13 DUP1 DUP1 PUSH4 0x57B9 JUMP JUMPDEST DUP2 DUP2 ADD MLOAD DUP4 SSTORE PUSH1 0x20 SWAP5 DUP6 ADD SWAP5 PUSH1 0x1 SWAP1 SWAP4 ADD SWAP3 SWAP1 SWAP2 ADD SWAP1 PUSH4 0x579A JUMP JUMPDEST PUSH4 0x5838 SWAP1 PUSH1 0x2 DUP11 ADD PUSH1 0x0 MSTORE PUSH1 0x20 PUSH1 0x0 KECCAK256 PUSH1 0x1F DUP6 ADD PUSH1 0x5 SHR DUP2 ADD SWAP2 PUSH1 0x20 DUP7 LT PUSH4 0x335F JUMPI PUSH1 0x1F ADD PUSH1 0x5 SHR ADD SWAP1 PUSH4 0x6F6E JUMP JUMPDEST DUP14 PUSH4 0x54CD JUMP JUMPDEST ADD MLOAD SWAP1 POP DUP13 DUP1 PUSH4 0x5450 JUMP JUMPDEST SWAP3 POP DUP8 PUSH1 0x0 MSTORE PUSH1 0x20 PUSH1 0x0 KECCAK256 SWAP1 PUSH1 0x0 SWAP4 JUMPDEST PUSH1 0x1F NOT DUP5 AND DUP6 LT PUSH4 0x58A6 JUMPI PUSH1 0x1 SWAP5 POP DUP4 PUSH1 0x1F NOT DUP2 AND LT PUSH4 0x588B JUMPI JUMPDEST POP POP POP DUP2 SHL ADD DUP6 SSTORE PUSH4 0x5465 JUMP JUMPDEST ADD MLOAD PUSH1 0x0 NOT PUSH1 0xF8 DUP5 PUSH1 0x3 SHL AND SHR NOT AND SWAP1 SSTORE DUP13 DUP1 DUP1 PUSH4 0x587C JUMP JUMPDEST DUP2 DUP2 ADD MLOAD DUP4 SSTORE PUSH1 0x20 SWAP5 DUP6 ADD SWAP5 PUSH1 0x1 SWAP1 SWAP4 ADD SWAP3 SWAP1 SWAP2 ADD SWAP1 PUSH4 0x585D JUMP JUMPDEST PUSH4 0x58F5 SWAP1 DUP10 PUSH1 0x0 MSTORE PUSH1 0x20 PUSH1 0x0 KECCAK256 PUSH1 0x1F DUP6 ADD PUSH1 0x5 SHR DUP2 ADD SWAP2 PUSH1 0x20 DUP7 LT PUSH4 0x335F JUMPI PUSH1 0x1F ADD PUSH1 0x5 SHR ADD SWAP1 PUSH4 0x6F6E JUMP JUMPDEST DUP14 PUSH4 0x5435 JUMP JUMPDEST PUSH1 0x5 DUP2 DUP2 MUL DIV DUP2 SUB PUSH4 0x3CD6 JUMPI PUSH1 0x5 DUP4 DUP2 MUL DIV DUP4 SUB PUSH4 0x3CD6 JUMPI PUSH1 0x6 DUP6 ADD PUSH1 0x0 MSTORE PUSH1 0x20 PUSH1 0x0 KECCAK256 DUP4 PUSH1 0x5 MUL DUP2 ADD JUMPDEST DUP3 PUSH1 0x5 MUL DUP3 ADD DUP2 LT PUSH4 0x5943 JUMPI POP POP PUSH4 0x18D3 JUMP JUMPDEST DUP1 PUSH4 0x5953 PUSH1 0x5 SWAP3 PUSH4 0x6FA3 JUMP JUMPDEST PUSH1 0x0 PUSH1 0x1 DUP3 ADD SSTORE PUSH4 0x596A PUSH1 0x2 DUP3 ADD PUSH4 0x6FA3 JUMP JUMPDEST PUSH4 0x597A PUSH1 0x3 DUP3 ADD PUSH4 0x6FA3 JUMP JUMPDEST PUSH4 0x598A PUSH1 0x4 DUP3 ADD PUSH4 0x6FA3 JUMP JUMPDEST ADD PUSH4 0x592C JUMP JUMPDEST ADD MLOAD SWAP1 POP DUP8 DUP1 PUSH4 0x188C JUMP JUMPDEST SWAP3 POP PUSH1 0x5 DUP6 ADD PUSH1 0x0 MSTORE PUSH1 0x20 PUSH1 0x0 KECCAK256 SWAP1 PUSH1 0x0 SWAP4 JUMPDEST PUSH1 0x1F NOT DUP5 AND DUP6 LT PUSH4 0x59FE JUMPI PUSH1 0x1 SWAP5 POP DUP4 PUSH1 0x1F NOT DUP2 AND LT PUSH4 0x59E3 JUMPI JUMPDEST POP POP POP DUP2 SHL ADD PUSH1 0x5 DUP4 ADD SSTORE PUSH4 0x18A4 JUMP JUMPDEST ADD MLOAD PUSH1 0x0 NOT PUSH1 0xF8 DUP5 PUSH1 0x3 SHL AND SHR NOT AND SWAP1 SSTORE DUP8 DUP1 DUP1 PUSH4 0x59D1 JUMP JUMPDEST DUP2 DUP2 ADD MLOAD DUP4 SSTORE PUSH1 0x20 SWAP5 DUP6 ADD SWAP5 PUSH1 0x1 SWAP1 SWAP4 ADD SWAP3 SWAP1 SWAP2 ADD SWAP1 PUSH4 0x59B2 JUMP JUMPDEST PUSH4 0x5A50 SWAP1 PUSH1 0x5 DUP8 ADD PUSH1 0x0 MSTORE PUSH1 0x20 PUSH1 0x0 KECCAK256 PUSH1 0x1F DUP6 ADD PUSH1 0x5 SHR DUP2 ADD SWAP2 PUSH1 0x20 DUP7 LT PUSH4 0x335F JUMPI PUSH1 0x1F ADD PUSH1 0x5 SHR ADD SWAP1 PUSH4 0x6F6E JUMP JUMPDEST DUP9 PUSH4 0x1871 JUMP JUMPDEST ADD MLOAD SWAP1 POP DUP8 DUP1 PUSH4 0x1823 JUMP JUMPDEST SWAP3 POP PUSH1 0x4 DUP6 ADD PUSH1 0x0 MSTORE PUSH1 0x20 PUSH1 0x0 KECCAK256 SWAP1 PUSH1 0x0 SWAP4 JUMPDEST PUSH1 0x1F NOT DUP5 AND DUP6 LT PUSH4 0x5AC4 JUMPI PUSH1 0x1 SWAP5 POP DUP4 PUSH1 0x1F NOT DUP2 AND LT PUSH4 0x5AA9 JUMPI JUMPDEST POP POP POP DUP2 SHL ADD PUSH1 0x4 DUP4 ADD SSTORE PUSH4 0x183B JUMP JUMPDEST ADD MLOAD PUSH1 0x0 NOT PUSH1 0xF8 DUP5 PUSH1 0x3 SHL AND SHR NOT AND SWAP1 SSTORE DUP8 DUP1 DUP1 PUSH4 0x5A97 JUMP JUMPDEST DUP2 DUP2 ADD MLOAD DUP4 SSTORE PUSH1 0x20 SWAP5 DUP6 ADD SWAP5 PUSH1 0x1 SWAP1 SWAP4 ADD SWAP3 SWAP1 SWAP2 ADD SWAP1 PUSH4 0x5A78 JUMP JUMPDEST PUSH4 0x5B16 SWAP1 PUSH1 0x4 DUP8 ADD PUSH1 0x0 MSTORE PUSH1 0x20 PUSH1 0x0 KECCAK256 PUSH1 0x1F DUP6 ADD PUSH1 0x5 SHR DUP2 ADD SWAP2 PUSH1 0x20 DUP7 LT PUSH4 0x335F JUMPI PUSH1 0x1F ADD PUSH1 0x5 SHR ADD SWAP1 PUSH4 0x6F6E JUMP JUMPDEST DUP9 PUSH4 0x1808 JUMP JUMPDEST ADD MLOAD SWAP1 POP DUP8 DUP1 PUSH4 0x17BA JUMP JUMPDEST SWAP3 POP PUSH1 0x3 DUP6 ADD PUSH1 0x0 MSTORE PUSH1 0x20 PUSH1 0x0 KECCAK256 SWAP1 PUSH1 0x0 SWAP4 JUMPDEST PUSH1 0x1F NOT DUP5 AND DUP6 LT PUSH4 0x5B8A JUMPI PUSH1 0x1 SWAP5 POP DUP4 PUSH1 0x1F NOT DUP2 AND LT PUSH4 0x5B6F JUMPI JUMPDEST POP POP POP DUP2 SHL ADD PUSH1 0x3 DUP4 ADD SSTORE PUSH4 0x17D2 JUMP JUMPDEST ADD MLOAD PUSH1 0x0 NOT PUSH1 0xF8 DUP5 PUSH1 0x3 SHL AND SHR NOT AND SWAP1 SSTORE DUP8 DUP1 DUP1 PUSH4 0x5B5D JUMP JUMPDEST DUP2 DUP2 ADD MLOAD DUP4 SSTORE PUSH1 0x20 SWAP5 DUP6 ADD SWAP5 PUSH1 0x1 SWAP1 SWAP4 ADD SWAP3 SWAP1 SWAP2 ADD SWAP1 PUSH4 0x5B3E JUMP JUMPDEST PUSH4 0x5BDC SWAP1 PUSH1 0x3 DUP8 ADD PUSH1 0x0 MSTORE PUSH1 0x20 PUSH1 0x0 KECCAK256 PUSH1 0x1F DUP6 ADD PUSH1 0x5 SHR DUP2 ADD SWAP2 PUSH1 0x20 DUP7 LT PUSH4 0x335F JUMPI PUSH1 0x1F ADD PUSH1 0x5 SHR ADD SWAP1 PUSH4 0x6F6E JUMP JUMPDEST DUP9 PUSH4 0x179F JUMP JUMPDEST ADD MLOAD SWAP1 POP DUP8 DUP1 PUSH4 0x1751 JUMP JUMPDEST SWAP3 POP PUSH1 0x2 DUP6 ADD PUSH1 0x0 MSTORE PUSH1 0x20 PUSH1 0x0 KECCAK256 SWAP1 PUSH1 0x0 SWAP4 JUMPDEST PUSH1 0x1F NOT DUP5 AND DUP6 LT PUSH4 0x5C50 JUMPI PUSH1 0x1 SWAP5 POP DUP4 PUSH1 0x1F NOT DUP2 AND LT PUSH4 0x5C35 JUMPI JUMPDEST POP POP POP DUP2 SHL ADD PUSH1 0x2 DUP4 ADD SSTORE PUSH4 0x1769 JUMP JUMPDEST ADD MLOAD PUSH1 0x0 NOT PUSH1 0xF8 DUP5 PUSH1 0x3 SHL AND SHR NOT AND SWAP1 SSTORE DUP8 DUP1 DUP1 PUSH4 0x5C23 JUMP JUMPDEST DUP2 DUP2 ADD MLOAD DUP4 SSTORE PUSH1 0x20 SWAP5 DUP6 ADD SWAP5 PUSH1 0x1 SWAP1 SWAP4 ADD SWAP3 SWAP1 SWAP2 ADD SWAP1 PUSH4 0x5C04 JUMP JUMPDEST PUSH4 0x5CA2 SWAP1 PUSH1 0x2 DUP8 ADD PUSH1 0x0 MSTORE PUSH1 0x20 PUSH1 0x0 KECCAK256 PUSH1 0x1F DUP6 ADD PUSH1 0x5 SHR DUP2 ADD SWAP2 PUSH1 0x20 DUP7 LT PUSH4 0x335F JUMPI PUSH1 0x1F ADD PUSH1 0x5 SHR ADD SWAP1 PUSH4 0x6F6E JUMP JUMPDEST DUP9 PUSH4 0x1736 JUMP JUMPDEST ADD MLOAD SWAP1 POP DUP8 DUP1 PUSH4 0x16CA JUMP JUMPDEST SWAP3 POP DUP5 PUSH1 0x0 MSTORE PUSH1 0x20 PUSH1 0x0 KECCAK256 SWAP1 PUSH1 0x0 SWAP4 JUMPDEST PUSH1 0x1F NOT DUP5 AND DUP6 LT PUSH4 0x5D10 JUMPI PUSH1 0x1 SWAP5 POP DUP4 PUSH1 0x1F NOT DUP2 AND LT PUSH4 0x5CF5 JUMPI JUMPDEST POP POP POP DUP2 SHL ADD DUP3 SSTORE PUSH4 0x16DF JUMP JUMPDEST ADD MLOAD PUSH1 0x0 NOT PUSH1 0xF8 DUP5 PUSH1 0x3 SHL AND SHR NOT AND SWAP1 SSTORE DUP8 DUP1 DUP1 PUSH4 0x5CE6 JUMP JUMPDEST DUP2 DUP2 ADD MLOAD DUP4 SSTORE PUSH1 0x20 SWAP5 DUP6 ADD SWAP5 PUSH1 0x1 SWAP1 SWAP4 ADD SWAP3 SWAP1 SWAP2 ADD SWAP1 PUSH4 0x5CC7 JUMP JUMPDEST PUSH4 0x5D5F SWAP1 DUP7 PUSH1 0x0 MSTORE PUSH1 0x20 PUSH1 0x0 KECCAK256 PUSH1 0x1F DUP6 ADD PUSH1 0x5 SHR DUP2 ADD SWAP2 PUSH1 0x20 DUP7 LT PUSH4 0x335F JUMPI PUSH1 0x1F ADD PUSH1 0x5 SHR ADD SWAP1 PUSH4 0x6F6E JUMP JUMPDEST DUP9 PUSH4 0x16AF JUMP JUMPDEST PUSH1 0x20 SWAP1 PUSH4 0x5D76 PUSH4 0x6BBB JUMP JUMPDEST PUSH1 0x60 DUP2 MSTORE PUSH1 0x0 DUP4 DUP3 ADD MSTORE PUSH1 0x0 PUSH1 0x40 DUP3 ADD MSTORE PUSH1 0x60 DUP1 DUP3 ADD MSTORE PUSH1 0x60 PUSH1 0x80 DUP3 ADD MSTORE PUSH1 0x60 PUSH1 0xA0 DUP3 ADD MSTORE DUP3 DUP3 DUP6 ADD ADD MSTORE ADD PUSH4 0xF2F JUMP JUMPDEST SWAP1 PUSH1 0xD DUP5 ADD PUSH1 0x0 MSTORE PUSH1 0x20 PUSH1 0x0 KECCAK256 SWAP2 PUSH1 0x0 JUMPDEST PUSH1 0x1F NOT DUP6 AND DUP2 LT PUSH4 0x5E0A JUMPI POP PUSH1 0x1 DUP5 PUSH1 0x0 DUP1 MLOAD PUSH1 0x20 PUSH4 0xB57A DUP4 CODECOPY DUP2 MLOAD SWAP2 MSTORE SWAP8 SWAP5 PUSH4 0xEF1 SWAP8 SWAP5 PUSH1 0xD SWAP5 PUSH4 0xEC9 SWAP9 PUSH1 0x1F NOT DUP2 AND LT PUSH4 0x32EC JUMPI POP POP POP DUP2 SHL ADD SWAP2 ADD SSTORE PUSH4 0xDDA JUMP JUMPDEST SWAP2 SWAP3 PUSH1 0x20 PUSH1 0x1 DUP2 SWAP3 DUP7 DUP6 ADD MLOAD DUP2 SSTORE ADD SWAP5 ADD SWAP3 ADD PUSH4 0x5DBA JUMP JUMPDEST PUSH4 0x5E59 SWAP1 PUSH1 0xD DUP6 ADD PUSH1 0x0 MSTORE PUSH1 0x20 PUSH1 0x0 KECCAK256 PUSH1 0x1F DUP6 ADD PUSH1 0x5 SHR DUP2 ADD SWAP2 PUSH1 0x20 DUP7 LT PUSH4 0x335F JUMPI PUSH1 0x1F ADD PUSH1 0x5 SHR ADD SWAP1 PUSH4 0x6F6E JUMP JUMPDEST DUP7 PUSH4 0xD86 JUMP JUMPDEST ADD MLOAD SWAP1 POP DUP9 DUP1 PUSH4 0xD3D JUMP JUMPDEST SWAP1 PUSH1 0xC DUP6 ADD PUSH1 0x0 MSTORE PUSH1 0x20 PUSH1 0x0 KECCAK256 SWAP2 PUSH1 0x0 JUMPDEST PUSH1 0x1F NOT DUP6 AND DUP2 LT PUSH4 0x5ED2 JUMPI POP SWAP2 DUP4 SWAP2 PUSH1 0x1 SWAP4 PUSH2 0x1A0 SWAP7 SWAP6 PUSH1 0x1F NOT DUP2 AND LT PUSH4 0x5EB7 JUMPI JUMPDEST POP POP POP DUP2 SHL ADD PUSH1 0xC DUP5 ADD SSTORE PUSH4 0xD55 JUMP JUMPDEST ADD MLOAD PUSH1 0x0 NOT PUSH1 0xF8 DUP5 PUSH1 0x3 SHL AND SHR NOT AND SWAP1 SSTORE DUP9 DUP1 DUP1 PUSH4 0x5EA5 JUMP JUMPDEST SWAP2 SWAP3 PUSH1 0x20 PUSH1 0x1 DUP2 SWAP3 DUP7 DUP6 ADD MLOAD DUP2 SSTORE ADD SWAP5 ADD SWAP3 ADD PUSH4 0x5E7F JUMP JUMPDEST PUSH4 0x5F21 SWAP1 PUSH1 0xC DUP7 ADD PUSH1 0x0 MSTORE PUSH1 0x20 PUSH1 0x0 KECCAK256 PUSH1 0x1F DUP6 ADD PUSH1 0x5 SHR DUP2 ADD SWAP2 PUSH1 0x20 DUP7 LT PUSH4 0x335F JUMPI PUSH1 0x1F ADD PUSH1 0x5 SHR ADD SWAP1 PUSH4 0x6F6E JUMP JUMPDEST DUP8 PUSH4 0xD1B JUMP JUMPDEST DUP1 MLOAD DUP1 MLOAD SWAP1 PUSH1 0x1 PUSH1 0x1 PUSH1 0x40 SHL SUB DUP3 GT PUSH4 0x336B JUMPI PUSH4 0x5F4C DUP7 SLOAD PUSH4 0x6F2E JUMP JUMPDEST PUSH1 0x1F DUP2 GT PUSH4 0x6026 JUMPI JUMPDEST POP PUSH1 0x20 SWAP1 PUSH1 0x1F DUP4 GT PUSH1 0x1 EQ PUSH4 0x5FAC JUMPI SWAP3 DUP3 PUSH1 0x1 SWAP5 SWAP4 PUSH1 0x20 SWAP4 DUP7 SWAP6 PUSH1 0x0 SWAP3 PUSH4 0x5F9F JUMPI JUMPDEST POP POP PUSH1 0x0 NOT PUSH1 0x3 DUP4 SWAP1 SHL SHR NOT AND SWAP1 DUP5 SHL OR DUP8 SSTORE JUMPDEST ADD SWAP5 ADD SWAP2 ADD SWAP1 SWAP3 PUSH4 0xCA1 JUMP JUMPDEST ADD MLOAD SWAP1 POP DUP15 DUP1 PUSH4 0x5F7D JUMP JUMPDEST SWAP1 DUP7 PUSH1 0x0 MSTORE PUSH1 0x20 PUSH1 0x0 KECCAK256 SWAP2 PUSH1 0x0 JUMPDEST PUSH1 0x1F NOT DUP6 AND DUP2 LT PUSH4 0x600C JUMPI POP DUP4 PUSH1 0x20 SWAP4 PUSH1 0x1 SWAP7 SWAP4 DUP8 SWAP7 SWAP4 DUP8 SWAP5 PUSH1 0x1F NOT DUP2 AND LT PUSH4 0x5FF1 JUMPI JUMPDEST POP POP POP DUP2 SHL ADD DUP8 SSTORE PUSH4 0x5F91 JUMP JUMPDEST ADD MLOAD PUSH1 0x0 NOT PUSH1 0xF8 DUP5 PUSH1 0x3 SHL AND SHR NOT AND SWAP1 SSTORE DUP15 DUP1 DUP1 PUSH4 0x5FE2 JUMP JUMPDEST SWAP2 SWAP3 PUSH1 0x20 PUSH1 0x1 DUP2 SWAP3 DUP7 DUP6 ADD MLOAD DUP2 SSTORE ADD SWAP5 ADD SWAP3 ADD PUSH4 0x5FBA JUMP JUMPDEST PUSH4 0x6058 SWAP1 DUP8 PUSH1 0x0 MSTORE PUSH1 0x20 PUSH1 0x0 KECCAK256 PUSH1 0x1F DUP6 ADD PUSH1 0x5 SHR DUP2 ADD SWAP2 PUSH1 0x20 DUP7 LT PUSH4 0x335F JUMPI PUSH1 0x1F ADD PUSH1 0x5 SHR ADD SWAP1 PUSH4 0x6F6E JUMP JUMPDEST DUP12 PUSH4 0x5F57 JUMP JUMPDEST PUSH1 0x8 DUP6 ADD PUSH1 0x0 MSTORE PUSH1 0x20 PUSH1 0x0 KECCAK256 SWAP1 DUP4 DUP3 ADD JUMPDEST DUP2 DUP4 ADD DUP2 LT PUSH4 0x6085 JUMPI POP POP PUSH4 0xC8B JUMP JUMPDEST DUP1 PUSH4 0x6095 PUSH1 0x1 SWAP3 PUSH4 0x6FA3 JUMP JUMPDEST ADD PUSH4 0x6071 JUMP JUMPDEST DUP1 MLOAD DUP1 MLOAD SWAP1 PUSH1 0x1 PUSH1 0x1 PUSH1 0x40 SHL SUB DUP3 GT PUSH4 0x336B JUMPI PUSH4 0x60C0 DUP7 SLOAD PUSH4 0x6F2E JUMP JUMPDEST PUSH1 0x1F DUP2 GT PUSH4 0x619A JUMPI JUMPDEST POP PUSH1 0x20 SWAP1 PUSH1 0x1F DUP4 GT PUSH1 0x1 EQ PUSH4 0x6120 JUMPI SWAP3 DUP3 PUSH1 0x1 SWAP5 SWAP4 PUSH1 0x20 SWAP4 DUP7 SWAP6 PUSH1 0x0 SWAP3 PUSH4 0x6113 JUMPI JUMPDEST POP POP PUSH1 0x0 NOT PUSH1 0x3 DUP4 SWAP1 SHL SHR NOT AND SWAP1 DUP5 SHL OR DUP8 SSTORE JUMPDEST ADD SWAP5 ADD SWAP2 ADD SWAP1 SWAP3 PUSH4 0xC4E JUMP JUMPDEST ADD MLOAD SWAP1 POP DUP15 DUP1 PUSH4 0x60F1 JUMP JUMPDEST SWAP1 DUP7 PUSH1 0x0 MSTORE PUSH1 0x20 PUSH1 0x0 KECCAK256 SWAP2 PUSH1 0x0 JUMPDEST PUSH1 0x1F NOT DUP6 AND DUP2 LT PUSH4 0x6180 JUMPI POP DUP4 PUSH1 0x20 SWAP4 PUSH1 0x1 SWAP7 SWAP4 DUP8 SWAP7 SWAP4 DUP8 SWAP5 PUSH1 0x1F NOT DUP2 AND LT PUSH4 0x6165 JUMPI JUMPDEST POP POP POP DUP2 SHL ADD DUP8 SSTORE PUSH4 0x6105 JUMP JUMPDEST ADD MLOAD PUSH1 0x0 NOT PUSH1 0xF8 DUP5 PUSH1 0x3 SHL AND SHR NOT AND SWAP1 SSTORE DUP15 DUP1 DUP1 PUSH4 0x6156 JUMP JUMPDEST SWAP2 SWAP3 PUSH1 0x20 PUSH1 0x1 DUP2 SWAP3 DUP7 DUP6 ADD MLOAD DUP2 SSTORE ADD SWAP5 ADD SWAP3 ADD PUSH4 0x612E JUMP JUMPDEST PUSH4 0x61CC SWAP1 DUP8 PUSH1 0x0 MSTORE PUSH1 0x20 PUSH1 0x0 KECCAK256 PUSH1 0x1F DUP6 ADD PUSH1 0x5 SHR DUP2 ADD SWAP2 PUSH1 0x20 DUP7 LT PUSH4 0x335F JUMPI PUSH1 0x1F ADD PUSH1 0x5 SHR ADD SWAP1 PUSH4 0x6F6E JUMP JUMPDEST DUP12 PUSH4 0x60CB JUMP JUMPDEST PUSH1 0x7 DUP6 ADD PUSH1 0x0 MSTORE PUSH1 0x20 PUSH1 0x0 KECCAK256 SWAP1 DUP4 DUP3 ADD JUMPDEST DUP2 DUP4 ADD DUP2 LT PUSH4 0x61F9 JUMPI POP POP PUSH4 0xC38 JUMP JUMPDEST DUP1 PUSH4 0x6209 PUSH1 0x1 SWAP3 PUSH4 0x6FA3 JUMP JUMPDEST ADD PUSH4 0x61E5 JUMP JUMPDEST DUP1 MLOAD DUP1 MLOAD DUP1 MLOAD SWAP1 PUSH1 0x1 PUSH1 0x1 PUSH1 0x40 SHL SUB DUP3 GT PUSH4 0x336B JUMPI DUP2 SWAP1 PUSH4 0x6238 DUP9 SLOAD PUSH4 0x6F2E JUMP JUMPDEST PUSH1 0x1F DUP2 GT PUSH4 0x66D1 JUMPI JUMPDEST POP PUSH1 0x20 SWAP1 PUSH1 0x1F DUP4 GT PUSH1 0x1 EQ PUSH4 0x665B JUMPI PUSH1 0x0 SWAP3 PUSH4 0x664E JUMPI JUMPDEST POP POP DUP2 PUSH1 0x1 SHL SWAP2 PUSH1 0x0 NOT SWAP1 PUSH1 0x3 SHL SHR NOT AND OR DUP6 SSTORE JUMPDEST PUSH1 0x20 DUP2 ADD MLOAD PUSH1 0xA DUP2 LT ISZERO PUSH4 0x3B6E JUMPI PUSH1 0x1 DUP7 ADD SWAP1 DUP2 SLOAD PUSH1 0xFF PUSH2 0xFF00 PUSH1 0x40 DUP7 ADD MLOAD ISZERO ISZERO PUSH1 0x8 SHL AND SWAP3 AND SWAP1 PUSH2 0xFFFF NOT AND OR OR SWAP1 SSTORE PUSH1 0x60 DUP2 ADD MLOAD DUP1 MLOAD SWAP1 PUSH1 0x1 DUP1 PUSH1 0x40 SHL SUB DUP3 GT PUSH4 0x336B JUMPI DUP2 SWAP1 PUSH4 0x62D0 PUSH1 0x2 DUP10 ADD SLOAD PUSH4 0x6F2E JUMP JUMPDEST PUSH1 0x1F DUP2 GT PUSH4 0x6611 JUMPI JUMPDEST POP PUSH1 0x20 SWAP1 PUSH1 0x1F DUP4 GT PUSH1 0x1 EQ PUSH4 0x6595 JUMPI PUSH1 0x0 SWAP3 PUSH4 0x6588 JUMPI JUMPDEST POP POP DUP2 PUSH1 0x1 SHL SWAP2 PUSH1 0x0 NOT SWAP1 PUSH1 0x3 SHL SHR NOT AND OR PUSH1 0x2 DUP7 ADD SSTORE JUMPDEST PUSH1 0x80 DUP2 ADD MLOAD DUP1 MLOAD SWAP1 PUSH1 0x1 PUSH1 0x1 PUSH1 0x40 SHL SUB DUP3 GT PUSH4 0x336B JUMPI PUSH4 0x6337 PUSH1 0x3 DUP9 ADD SLOAD PUSH4 0x6F2E JUMP JUMPDEST PUSH1 0x1F DUP2 GT PUSH4 0x654B JUMPI JUMPDEST POP PUSH1 0x20 SWAP1 PUSH1 0x1F DUP4 GT PUSH1 0x1 EQ PUSH4 0x64CE JUMPI PUSH1 0xA0 SWAP4 SWAP3 SWAP2 PUSH1 0x0 SWAP2 DUP4 PUSH4 0x64C1 JUMPI JUMPDEST POP POP DUP2 PUSH1 0x1 SHL SWAP2 PUSH1 0x0 NOT SWAP1 PUSH1 0x3 SHL SHR NOT AND OR PUSH1 0x3 DUP8 ADD SSTORE JUMPDEST ADD MLOAD DUP1 MLOAD SWAP1 PUSH1 0x1 PUSH1 0x1 PUSH1 0x40 SHL SUB DUP3 GT PUSH4 0x336B JUMPI PUSH4 0x63A1 PUSH1 0x4 DUP8 ADD SLOAD PUSH4 0x6F2E JUMP JUMPDEST PUSH1 0x1F DUP2 GT PUSH4 0x6484 JUMPI JUMPDEST POP PUSH1 0x20 SWAP1 PUSH1 0x1F DUP4 GT PUSH1 0x1 EQ PUSH4 0x6404 JUMPI SWAP3 DUP3 PUSH1 0x5 SWAP4 PUSH1 0x20 SWAP4 PUSH1 0x1 SWAP7 PUSH1 0x0 SWAP3 PUSH4 0x63F7 JUMPI JUMPDEST POP POP PUSH1 0x0 NOT PUSH1 0x3 DUP4 SWAP1 SHL SHR NOT AND SWAP1 DUP6 SHL OR PUSH1 0x4 DUP9 ADD SSTORE JUMPDEST ADD SWAP5 ADD SWAP2 ADD SWAP1 SWAP3 PUSH4 0xBFC JUMP JUMPDEST ADD MLOAD SWAP1 POP DUP15 DUP1 PUSH4 0x63D2 JUMP JUMPDEST SWAP1 PUSH1 0x4 DUP8 ADD PUSH1 0x0 MSTORE PUSH1 0x20 PUSH1 0x0 KECCAK256 SWAP2 PUSH1 0x0 JUMPDEST PUSH1 0x1F NOT DUP6 AND DUP2 LT PUSH4 0x646A JUMPI POP DUP4 PUSH1 0x20 SWAP4 PUSH1 0x1 SWAP7 SWAP4 DUP8 SWAP4 PUSH1 0x5 SWAP8 PUSH1 0x1F NOT DUP2 AND LT PUSH4 0x644F JUMPI JUMPDEST POP POP POP DUP2 SHL ADD PUSH1 0x4 DUP9 ADD SSTORE PUSH4 0x63E9 JUMP JUMPDEST ADD MLOAD PUSH1 0x0 NOT PUSH1 0xF8 DUP5 PUSH1 0x3 SHL AND SHR NOT AND SWAP1 SSTORE DUP15 DUP1 DUP1 PUSH4 0x643D JUMP JUMPDEST SWAP2 SWAP3 PUSH1 0x20 PUSH1 0x1 DUP2 SWAP3 DUP7 DUP6 ADD MLOAD DUP2 SSTORE ADD SWAP5 ADD SWAP3 ADD PUSH4 0x6415 JUMP JUMPDEST PUSH4 0x64B9 SWAP1 PUSH1 0x4 DUP9 ADD PUSH1 0x0 MSTORE PUSH1 0x20 PUSH1 0x0 KECCAK256 PUSH1 0x1F DUP6 ADD PUSH1 0x5 SHR DUP2 ADD SWAP2 PUSH1 0x20 DUP7 LT PUSH4 0x335F JUMPI PUSH1 0x1F ADD PUSH1 0x5 SHR ADD SWAP1 PUSH4 0x6F6E JUMP JUMPDEST DUP12 PUSH4 0x63AC JUMP JUMPDEST ADD MLOAD SWAP1 POP DUP14 DUP1 PUSH4 0x6363 JUMP JUMPDEST SWAP1 PUSH1 0x3 DUP9 ADD PUSH1 0x0 MSTORE PUSH1 0x20 PUSH1 0x0 KECCAK256 SWAP2 PUSH1 0x0 JUMPDEST PUSH1 0x1F NOT DUP6 AND DUP2 LT PUSH4 0x6531 JUMPI POP SWAP2 DUP4 SWAP2 PUSH1 0x1 SWAP4 PUSH1 0xA0 SWAP7 SWAP6 PUSH1 0x1F NOT DUP2 AND LT PUSH4 0x6516 JUMPI JUMPDEST POP POP POP DUP2 SHL ADD PUSH1 0x3 DUP8 ADD SSTORE PUSH4 0x637B JUMP JUMPDEST ADD MLOAD PUSH1 0x0 NOT PUSH1 0xF8 DUP5 PUSH1 0x3 SHL AND SHR NOT AND SWAP1 SSTORE DUP14 DUP1 DUP1 PUSH4 0x6504 JUMP JUMPDEST SWAP2 SWAP3 PUSH1 0x20 PUSH1 0x1 DUP2 SWAP3 DUP7 DUP6 ADD MLOAD DUP2 SSTORE ADD SWAP5 ADD SWAP3 ADD PUSH4 0x64DF JUMP JUMPDEST PUSH4 0x6580 SWAP1 PUSH1 0x3 DUP10 ADD PUSH1 0x0 MSTORE PUSH1 0x20 PUSH1 0x0 KECCAK256 PUSH1 0x1F DUP6 ADD PUSH1 0x5 SHR DUP2 ADD SWAP2 PUSH1 0x20 DUP7 LT PUSH4 0x335F JUMPI PUSH1 0x1F ADD PUSH1 0x5 SHR ADD SWAP1 PUSH4 0x6F6E JUMP JUMPDEST DUP13 PUSH4 0x6342 JUMP JUMPDEST ADD MLOAD SWAP1 POP DUP13 DUP1 PUSH4 0x62F6 JUMP JUMPDEST SWAP3 POP PUSH1 0x2 DUP9 ADD PUSH1 0x0 MSTORE PUSH1 0x20 PUSH1 0x0 KECCAK256 SWAP1 PUSH1 0x0 SWAP4 JUMPDEST PUSH1 0x1F NOT DUP5 AND DUP6 LT PUSH4 0x65F4 JUMPI PUSH1 0x1 SWAP5 POP DUP4 PUSH1 0x1F NOT DUP2 AND LT PUSH4 0x65D9 JUMPI JUMPDEST POP POP POP DUP2 SHL ADD PUSH1 0x2 DUP7 ADD SSTORE PUSH4 0x630E JUMP JUMPDEST ADD MLOAD PUSH1 0x0 NOT PUSH1 0xF8 DUP5 PUSH1 0x3 SHL AND SHR NOT AND SWAP1 SSTORE DUP13 DUP1 DUP1 PUSH4 0x65C7 JUMP JUMPDEST DUP2 DUP2 ADD MLOAD DUP4 SSTORE PUSH1 0x20 SWAP5 DUP6 ADD SWAP5 PUSH1 0x1 SWAP1 SWAP4 ADD SWAP3 SWAP1 SWAP2 ADD SWAP1 PUSH4 0x65A8 JUMP JUMPDEST PUSH4 0x6646 SWAP1 PUSH1 0x2 DUP11 ADD PUSH1 0x0 MSTORE PUSH1 0x20 PUSH1 0x0 KECCAK256 PUSH1 0x1F DUP6 ADD PUSH1 0x5 SHR DUP2 ADD SWAP2 PUSH1 0x20 DUP7 LT PUSH4 0x335F JUMPI PUSH1 0x1F ADD PUSH1 0x5 SHR ADD SWAP1 PUSH4 0x6F6E JUMP JUMPDEST DUP14 PUSH4 0x62DB JUMP JUMPDEST ADD MLOAD SWAP1 POP DUP13 DUP1 PUSH4 0x625E JUMP JUMPDEST SWAP3 POP DUP8 PUSH1 0x0 MSTORE PUSH1 0x20 PUSH1 0x0 KECCAK256 SWAP1 PUSH1 0x0 SWAP4 JUMPDEST PUSH1 0x1F NOT DUP5 AND DUP6 LT PUSH4 0x66B4 JUMPI PUSH1 0x1 SWAP5 POP DUP4 PUSH1 0x1F NOT DUP2 AND LT PUSH4 0x6699 JUMPI JUMPDEST POP POP POP DUP2 SHL ADD DUP6 SSTORE PUSH4 0x6273 JUMP JUMPDEST ADD MLOAD PUSH1 0x0 NOT PUSH1 0xF8 DUP5 PUSH1 0x3 SHL AND SHR NOT AND SWAP1 SSTORE DUP13 DUP1 DUP1 PUSH4 0x668A JUMP JUMPDEST DUP2 DUP2 ADD MLOAD DUP4 SSTORE PUSH1 0x20 SWAP5 DUP6 ADD SWAP5 PUSH1 0x1 SWAP1 SWAP4 ADD SWAP3 SWAP1 SWAP2 ADD SWAP1 PUSH4 0x666B JUMP JUMPDEST PUSH4 0x6703 SWAP1 DUP10 PUSH1 0x0 MSTORE PUSH1 0x20 PUSH1 0x0 KECCAK256 PUSH1 0x1F DUP6 ADD PUSH1 0x5 SHR DUP2 ADD SWAP2 PUSH1 0x20 DUP7 LT PUSH4 0x335F JUMPI PUSH1 0x1F ADD PUSH1 0x5 SHR ADD SWAP1 PUSH4 0x6F6E JUMP JUMPDEST DUP14 PUSH4 0x6243 JUMP JUMPDEST PUSH1 0x5 DUP2 DUP2 MUL DIV DUP2 SUB PUSH4 0x3CD6 JUMPI PUSH1 0x5 DUP4 DUP2 MUL DIV DUP4 SUB PUSH4 0x3CD6 JUMPI PUSH1 0x6 DUP6 ADD PUSH1 0x0 MSTORE PUSH1 0x20 PUSH1 0x0 KECCAK256 DUP4 PUSH1 0x5 MUL DUP2 ADD JUMPDEST DUP3 PUSH1 0x5 MUL DUP3 ADD DUP2 LT PUSH4 0x6751 JUMPI POP POP PUSH4 0xBE6 JUMP JUMPDEST DUP1 PUSH4 0x6761 PUSH1 0x5 SWAP3 PUSH4 0x6FA3 JUMP JUMPDEST PUSH1 0x0 PUSH1 0x1 DUP3 ADD SSTORE PUSH4 0x6778 PUSH1 0x2 DUP3 ADD PUSH4 0x6FA3 JUMP JUMPDEST PUSH4 0x6788 PUSH1 0x3 DUP3 ADD PUSH4 0x6FA3 JUMP JUMPDEST PUSH4 0x6798 PUSH1 0x4 DUP3 ADD PUSH4 0x6FA3 JUMP JUMPDEST ADD PUSH4 0x673A JUMP JUMPDEST ADD MLOAD SWAP1 POP DUP8 DUP1 PUSH4 0xB9F JUMP JUMPDEST SWAP3 POP PUSH1 0x5 DUP6 ADD PUSH1 0x0 MSTORE PUSH1 0x20 PUSH1 0x0 KECCAK256 SWAP1 PUSH1 0x0 SWAP4 JUMPDEST PUSH1 0x1F NOT DUP5 AND DUP6 LT PUSH4 0x680C JUMPI PUSH1 0x1 SWAP5 POP DUP4 PUSH1 0x1F NOT DUP2 AND LT PUSH4 0x67F1 JUMPI JUMPDEST POP POP POP DUP2 SHL ADD PUSH1 0x5 DUP4 ADD SSTORE PUSH4 0xBB7 JUMP JUMPDEST ADD MLOAD PUSH1 0x0 NOT PUSH1 0xF8 DUP5 PUSH1 0x3 SHL AND SHR NOT AND SWAP1 SSTORE DUP8 DUP1 DUP1 PUSH4 0x67DF JUMP JUMPDEST DUP2 DUP2 ADD MLOAD DUP4 SSTORE PUSH1 0x20 SWAP5 DUP6 ADD SWAP5 PUSH1 0x1 SWAP1 SWAP4 ADD SWAP3 SWAP1 SWAP2 ADD SWAP1 PUSH4 0x67C0 JUMP JUMPDEST PUSH4 0x685E SWAP1 PUSH1 0x5 DUP8 ADD PUSH1 0x0 MSTORE PUSH1 0x20 PUSH1 0x0 KECCAK256 PUSH1 0x1F DUP6 ADD PUSH1 0x5 SHR DUP2 ADD SWAP2 PUSH1 0x20 DUP7 LT PUSH4 0x335F JUMPI PUSH1 0x1F ADD PUSH1 0x5 SHR ADD SWAP1 PUSH4 0x6F6E JUMP JUMPDEST DUP9 PUSH4 0xB84 JUMP JUMPDEST ADD MLOAD SWAP1 POP DUP8 DUP1 PUSH4 0xB36 JUMP JUMPDEST SWAP3 POP PUSH1 0x4 DUP6 ADD PUSH1 0x0 MSTORE PUSH1 0x20 PUSH1 0x0 KECCAK256 SWAP1 PUSH1 0x0 SWAP4 JUMPDEST PUSH1 0x1F NOT DUP5 AND DUP6 LT PUSH4 0x68D2 JUMPI PUSH1 0x1 SWAP5 POP DUP4 PUSH1 0x1F NOT DUP2 AND LT PUSH4 0x68B7 JUMPI JUMPDEST POP POP POP DUP2 SHL ADD PUSH1 0x4 DUP4 ADD SSTORE PUSH4 0xB4E JUMP JUMPDEST ADD MLOAD PUSH1 0x0 NOT PUSH1 0xF8 DUP5 PUSH1 0x3 SHL AND SHR NOT AND SWAP1 SSTORE DUP8 DUP1 DUP1 PUSH4 0x68A5 JUMP JUMPDEST DUP2 DUP2 ADD MLOAD DUP4 SSTORE PUSH1 0x20 SWAP5 DUP6 ADD SWAP5 PUSH1 0x1 SWAP1 SWAP4 ADD SWAP3 SWAP1 SWAP2 ADD SWAP1 PUSH4 0x6886 JUMP JUMPDEST PUSH4 0x6924 SWAP1 PUSH1 0x4 DUP8 ADD PUSH1 0x0 MSTORE PUSH1 0x20 PUSH1 0x0 KECCAK256 PUSH1 0x1F DUP6 ADD PUSH1 0x5 SHR DUP2 ADD SWAP2 PUSH1 0x20 DUP7 LT PUSH4 0x335F JUMPI PUSH1 0x1F ADD PUSH1 0x5 SHR ADD SWAP1 PUSH4 0x6F6E JUMP JUMPDEST DUP9 PUSH4 0xB1B JUMP JUMPDEST ADD MLOAD SWAP1 POP DUP8 DUP1 PUSH4 0xACD JUMP JUMPDEST SWAP3 POP PUSH1 0x3 DUP6 ADD PUSH1 0x0 MSTORE PUSH1 0x20 PUSH1 0x0 KECCAK256 SWAP1 PUSH1 0x0 SWAP4 JUMPDEST PUSH1 0x1F NOT DUP5 AND DUP6 LT PUSH4 0x6998 JUMPI PUSH1 0x1 SWAP5 POP DUP4 PUSH1 0x1F NOT DUP2 AND LT PUSH4 0x697D JUMPI JUMPDEST POP POP POP DUP2 SHL ADD PUSH1 0x3 DUP4 ADD SSTORE PUSH4 0xAE5 JUMP JUMPDEST ADD MLOAD PUSH1 0x0 NOT PUSH1 0xF8 DUP5 PUSH1 0x3 SHL AND SHR NOT AND SWAP1 SSTORE DUP8 DUP1 DUP1 PUSH4 0x696B JUMP JUMPDEST DUP2 DUP2 ADD MLOAD DUP4 SSTORE PUSH1 0x20 SWAP5 DUP6 ADD SWAP5 PUSH1 0x1 SWAP1 SWAP4 ADD SWAP3 SWAP1 SWAP2 ADD SWAP1 PUSH4 0x694C JUMP JUMPDEST PUSH4 0x69EA SWAP1 PUSH1 0x3 DUP8 ADD PUSH1 0x0 MSTORE PUSH1 0x20 PUSH1 0x0 KECCAK256 PUSH1 0x1F DUP6 ADD PUSH1 0x5 SHR DUP2 ADD SWAP2 PUSH1 0x20 DUP7 LT PUSH4 0x335F JUMPI PUSH1 0x1F ADD PUSH1 0x5 SHR ADD SWAP1 PUSH4 0x6F6E JUMP JUMPDEST DUP9 PUSH4 0xAB2 JUMP JUMPDEST ADD MLOAD SWAP1 POP DUP8 DUP1 PUSH4 0xA64 JUMP JUMPDEST SWAP3 POP PUSH1 0x2 DUP6 ADD PUSH1 0x0 MSTORE PUSH1 0x20 PUSH1 0x0 KECCAK256 SWAP1 PUSH1 0x0 SWAP4 JUMPDEST PUSH1 0x1F NOT DUP5 AND DUP6 LT PUSH4 0x6A5E JUMPI PUSH1 0x1 SWAP5 POP DUP4 PUSH1 0x1F NOT DUP2 AND LT PUSH4 0x6A43 JUMPI JUMPDEST POP POP POP DUP2 SHL ADD PUSH1 0x2 DUP4 ADD SSTORE PUSH4 0xA7C JUMP JUMPDEST ADD MLOAD PUSH1 0x0 NOT PUSH1 0xF8 DUP5 PUSH1 0x3 SHL AND SHR NOT AND SWAP1 SSTORE DUP8 DUP1 DUP1 PUSH4 0x6A31 JUMP JUMPDEST DUP2 DUP2 ADD MLOAD DUP4 SSTORE PUSH1 0x20 SWAP5 DUP6 ADD SWAP5 PUSH1 0x1 SWAP1 SWAP4 ADD SWAP3 SWAP1 SWAP2 ADD SWAP1 PUSH4 0x6A12 JUMP JUMPDEST PUSH4 0x6AB0 SWAP1 PUSH1 0x2 DUP8 ADD PUSH1 0x0 MSTORE PUSH1 0x20 PUSH1 0x0 KECCAK256 PUSH1 0x1F DUP6 ADD PUSH1 0x5 SHR DUP2 ADD SWAP2 PUSH1 0x20 DUP7 LT PUSH4 0x335F JUMPI PUSH1 0x1F ADD PUSH1 0x5 SHR ADD SWAP1 PUSH4 0x6F6E JUMP JUMPDEST DUP9 PUSH4 0xA49 JUMP JUMPDEST ADD MLOAD SWAP1 POP DUP8 DUP1 PUSH4 0x9DD JUMP JUMPDEST SWAP3 POP DUP5 PUSH1 0x0 MSTORE PUSH1 0x20 PUSH1 0x0 KECCAK256 SWAP1 PUSH1 0x0 SWAP4 JUMPDEST PUSH1 0x1F NOT DUP5 AND DUP6 LT PUSH4 0x6B1E JUMPI PUSH1 0x1 SWAP5 POP DUP4 PUSH1 0x1F NOT DUP2 AND LT PUSH4 0x6B03 JUMPI JUMPDEST POP POP POP DUP2 SHL ADD DUP3 SSTORE PUSH4 0x9F2 JUMP JUMPDEST ADD MLOAD PUSH1 0x0 NOT PUSH1 0xF8 DUP5 PUSH1 0x3 SHL AND SHR NOT AND SWAP1 SSTORE DUP8 DUP1 DUP1 PUSH4 0x6AF4 JUMP JUMPDEST DUP2 DUP2 ADD MLOAD DUP4 SSTORE PUSH1 0x20 SWAP5 DUP6 ADD SWAP5 PUSH1 0x1 SWAP1 SWAP4 ADD SWAP3 SWAP1 SWAP2 ADD SWAP1 PUSH4 0x6AD5 JUMP JUMPDEST PUSH4 0x6B6D SWAP1 DUP7 PUSH1 0x0 MSTORE PUSH1 0x20 PUSH1 0x0 KECCAK256 PUSH1 0x1F DUP6 ADD PUSH1 0x5 SHR DUP2 ADD SWAP2 PUSH1 0x20 DUP7 LT PUSH4 0x335F JUMPI PUSH1 0x1F ADD PUSH1 0x5 SHR ADD SWAP1 PUSH4 0x6F6E JUMP JUMPDEST DUP9 PUSH4 0x9C2 JUMP JUMPDEST PUSH1 0x20 SWAP1 PUSH4 0x6B84 PUSH4 0x6BBB JUMP JUMPDEST PUSH1 0x60 DUP1 DUP3 MSTORE DUP4 SWAP1 PUSH1 0x0 DUP3 DUP5 ADD MSTORE PUSH1 0x0 PUSH1 0x40 DUP5 ADD MSTORE DUP1 DUP1 DUP5 ADD MSTORE DUP1 PUSH1 0x80 DUP5 ADD MSTORE PUSH1 0xA0 DUP4 ADD MSTORE DUP3 PUSH1 0x80 ADD ADD MSTORE ADD PUSH4 0x5D JUMP JUMPDEST PUSH1 0x0 DUP1 REVERT JUMPDEST PUSH1 0x40 MLOAD SWAP1 PUSH1 0xC0 DUP3 ADD PUSH1 0x1 PUSH1 0x1 PUSH1 0x40 SHL SUB DUP2 GT DUP4 DUP3 LT OR PUSH4 0x336B JUMPI PUSH1 0x40 MSTORE JUMP JUMPDEST PUSH1 0x40 MLOAD SWAP1 PUSH2 0x1C0 DUP3 ADD PUSH1 0x1 PUSH1 0x1 PUSH1 0x40 SHL SUB DUP2 GT DUP4 DUP3 LT OR PUSH4 0x336B JUMPI PUSH1 0x40 MSTORE JUMP JUMPDEST PUSH1 0x40 DUP1 MLOAD SWAP2 SWAP1 DUP3 ADD PUSH1 0x1 PUSH1 0x1 PUSH1 0x40 SHL SUB DUP2 GT DUP4 DUP3 LT OR PUSH4 0x336B JUMPI PUSH1 0x40 MSTORE JUMP JUMPDEST PUSH1 0x40 MLOAD SWAP1 PUSH1 0x60 DUP3 ADD PUSH1 0x1 PUSH1 0x1 PUSH1 0x40 SHL SUB DUP2 GT DUP4 DUP3 LT OR PUSH4 0x336B JUMPI PUSH1 0x40 MSTORE JUMP JUMPDEST PUSH1 0x40 MLOAD SWAP1 PUSH1 0x20 DUP3 ADD PUSH1 0x1 PUSH1 0x1 PUSH1 0x40 SHL SUB DUP2 GT DUP4 DUP3 LT OR PUSH4 0x336B JUMPI PUSH1 0x40 MSTORE JUMP JUMPDEST DUP1 MLOAD ISZERO PUSH4 0x6C70 JUMPI PUSH1 0x20 ADD SWAP1 JUMP JUMPDEST PUSH4 0x4E487B71 PUSH1 0xE0 SHL PUSH1 0x0 MSTORE PUSH1 0x32 PUSH1 0x4 MSTORE PUSH1 0x24 PUSH1 0x0 REVERT JUMPDEST DUP1 MLOAD PUSH1 0x1 LT ISZERO PUSH4 0x6C70 JUMPI PUSH1 0x40 ADD SWAP1 JUMP JUMPDEST DUP1 MLOAD PUSH1 0x2 LT ISZERO PUSH4 0x6C70 JUMPI PUSH1 0x60 ADD SWAP1 JUMP JUMPDEST DUP1 MLOAD PUSH1 0x3 LT ISZERO PUSH4 0x6C70 JUMPI PUSH1 0x80 ADD SWAP1 JUMP JUMPDEST DUP1 MLOAD PUSH1 0x4 LT ISZERO PUSH4 0x6C70 JUMPI PUSH1 0xA0 ADD SWAP1 JUMP JUMPDEST DUP1 MLOAD PUSH1 0x5 LT ISZERO PUSH4 0x6C70 JUMPI PUSH1 0xC0 ADD SWAP1 JUMP JUMPDEST DUP1 MLOAD PUSH1 0x6 LT ISZERO PUSH4 0x6C70 JUMPI PUSH1 0xE0 ADD SWAP1 JUMP JUMPDEST DUP1 MLOAD PUSH1 0x7 LT ISZERO PUSH4 0x6C70 JUMPI PUSH2 0x100 ADD SWAP1 JUMP JUMPDEST PUSH4 0x6D11 PUSH4 0x6C1F JUMP JUMPDEST SWAP1 PUSH1 0x2A DUP3 MSTORE PUSH10 0x3030303030303030303 PUSH1 0xB4 SHL PUSH1 0x40 DUP4 PUSH32 0x3078303030303030303030303030303030303030303030303030303030303030 PUSH1 0x20 DUP3 ADD MSTORE ADD MSTORE JUMP JUMPDEST PUSH1 0x40 MLOAD SWAP1 PUSH1 0x80 DUP3 ADD PUSH1 0x1 PUSH1 0x1 PUSH1 0x40 SHL SUB DUP2 GT DUP4 DUP3 LT OR PUSH4 0x336B JUMPI PUSH1 0x40 MSTORE PUSH1 0x3 DUP3 MSTORE PUSH1 0x0 JUMPDEST PUSH1 0x60 DUP1 DUP3 LT ISZERO PUSH4 0x6D95 JUMPI SWAP1 PUSH1 0x20 SWAP2 DUP3 DUP3 DUP7 ADD ADD MSTORE ADD PUSH4 0x6D77 JUMP JUMPDEST POP POP SWAP1 PUSH4 0x6DA4 PUSH4 0x6BFE JUMP JUMPDEST PUSH1 0xA DUP2 MSTORE PUSH10 0x44414F206F776E657273 PUSH1 0xB0 SHL PUSH1 0x20 DUP3 ADD MSTORE PUSH4 0x6DC8 DUP3 PUSH4 0x6C61 JUMP JUMPDEST MSTORE PUSH4 0x6DD6 DUP2 PUSH4 0x6C61 JUMP JUMPDEST POP PUSH4 0x6DE3 PUSH4 0x6BFE JUMP JUMPDEST PUSH1 0x15 DUP2 MSTORE PUSH32 0x53797374656D2061646D696E6973747261746F72730000000000000000000000 PUSH1 0x20 DUP3 ADD MSTORE PUSH4 0x6E1A DUP3 PUSH4 0x6C86 JUMP JUMPDEST MSTORE PUSH4 0x6E28 DUP2 PUSH4 0x6C86 JUMP JUMPDEST POP PUSH4 0x6E35 PUSH4 0x6BFE JUMP JUMPDEST PUSH1 0xE DUP2 MSTORE PUSH14 0x446174612070726F766964657273 PUSH1 0x90 SHL PUSH1 0x20 DUP3 ADD MSTORE PUSH4 0x6E5D DUP3 PUSH4 0x6C98 JUMP JUMPDEST MSTORE PUSH4 0x6E6B DUP2 PUSH4 0x6C98 JUMP JUMPDEST POP SWAP1 JUMP JUMPDEST PUSH4 0x6E7B PUSH4 0x6BFE JUMP JUMPDEST PUSH1 0x1 DUP2 MSTORE PUSH1 0x0 JUMPDEST PUSH1 0x20 SWAP1 DUP2 DUP2 LT ISZERO PUSH4 0x6EA1 JUMPI PUSH1 0x60 PUSH1 0x20 SWAP3 DUP3 DUP6 ADD ADD MSTORE ADD PUSH4 0x6E82 JUMP JUMPDEST POP POP PUSH4 0x6EAF PUSH4 0x6C1F JUMP JUMPDEST PUSH1 0x2A DUP2 MSTORE PUSH32 0x5374616E64617264697A656420736368656D6120666F72204343495020636F6D PUSH1 0x20 DUP3 ADD MSTORE PUSH10 0x7061746962696C697479 PUSH1 0xB0 SHL PUSH1 0x40 DUP3 ADD MSTORE PUSH4 0x6EF9 DUP3 PUSH4 0x6C61 JUMP JUMPDEST MSTORE PUSH4 0x6E6B DUP2 PUSH4 0x6C61 JUMP JUMPDEST PUSH1 0x0 JUMPDEST DUP4 DUP2 LT PUSH4 0x6F1C JUMPI POP POP PUSH1 0x0 SWAP2 ADD MSTORE JUMP JUMPDEST DUP2 DUP2 ADD MLOAD DUP4 DUP3 ADD MSTORE PUSH1 0x20 ADD PUSH4 0x6F0A JUMP JUMPDEST SWAP1 PUSH1 0x1 DUP3 DUP2 SHR SWAP3 AND DUP1 ISZERO PUSH4 0x6F62 JUMPI JUMPDEST PUSH1 0x20 DUP4 LT EQ PUSH4 0x6F4C JUMPI JUMP JUMPDEST PUSH4 0x4E487B71 PUSH1 0xE0 SHL PUSH1 0x0 MSTORE PUSH1 0x22 PUSH1 0x4 MSTORE PUSH1 0x24 PUSH1 0x0 REVERT JUMPDEST SWAP2 PUSH1 0x7F AND SWAP2 PUSH4 0x6F3F JUMP JUMPDEST DUP2 DUP2 LT PUSH4 0x6F7B JUMPI POP POP JUMP JUMPDEST PUSH1 0x0 DUP2 SSTORE PUSH1 0x1 ADD PUSH4 0x6F6E JUMP JUMPDEST SWAP1 PUSH1 0x4 DUP2 LT ISZERO PUSH4 0x3B6E JUMPI PUSH1 0xFF DUP1 NOT DUP4 SLOAD AND SWAP2 AND OR SWAP1 SSTORE JUMP JUMPDEST PUSH4 0x6FB1 DUP2 SLOAD PUSH4 0x6F2E JUMP JUMPDEST SWAP1 DUP2 PUSH4 0x6FBD JUMPI POP POP JUMP JUMPDEST DUP2 PUSH1 0x1F PUSH1 0x0 SWAP4 GT PUSH1 0x1 EQ PUSH4 0x6FD1 JUMPI POP SSTORE JUMP JUMPDEST SWAP1 DUP1 DUP4 SWAP2 DUP3 MSTORE PUSH4 0x6FF4 PUSH1 0x1F PUSH1 0x20 DUP5 KECCAK256 SWAP5 ADD PUSH1 0x5 SHR DUP5 ADD PUSH1 0x1 DUP6 ADD PUSH4 0x6F6E JUMP JUMPDEST SSTORE SSTORE JUMP JUMPDEST PUSH1 0x0 NOT DUP2 EQ PUSH4 0x3CD6 JUMPI PUSH1 0x1 ADD SWAP1 JUMP JUMPDEST SWAP1 PUSH1 0x20 SWAP2 PUSH4 0x7026 DUP2 MLOAD DUP1 SWAP3 DUP2 DUP6 MSTORE DUP6 DUP1 DUP7 ADD SWAP2 ADD PUSH4 0x6F07 JUMP JUMPDEST PUSH1 0x1F ADD PUSH1 0x1F NOT AND ADD ADD SWAP1 JUMP INVALID PUSH1 0x80 DUP1 PUSH1 0x40 MSTORE PUSH1 0x4 CALLDATASIZE LT ISZERO PUSH2 0x13 JUMPI PUSH1 0x0 DUP1 REVERT JUMPDEST PUSH1 0x0 CALLDATALOAD PUSH1 0xE0 SHR SWAP1 DUP2 PUSH4 0xA2EB301 EQ PUSH2 0x22BD JUMPI POP DUP1 PUSH4 0x137BE5B2 EQ PUSH2 0xBAA JUMPI DUP1 PUSH4 0x14D0F1BA EQ PUSH2 0x227A JUMPI DUP1 PUSH4 0x2CF52FE8 EQ PUSH2 0x223E JUMPI DUP1 PUSH4 0x2D1D70DE EQ PUSH2 0x21AC JUMPI DUP1 PUSH4 0x2DB74AF3 EQ PUSH2 0x213E JUMPI DUP1 PUSH4 0x372D6B27 EQ PUSH2 0x2072 JUMPI DUP1 PUSH4 0x3D4FCBE6 EQ PUSH2 0x2040 JUMPI DUP1 PUSH4 0x41C260DD EQ PUSH2 0x1F7C JUMPI DUP1 PUSH4 0x44ACA904 EQ PUSH2 0x1F4B JUMPI DUP1 PUSH4 0x48C7DC92 EQ PUSH2 0x1EED JUMPI DUP1 PUSH4 0x4A4E3BD5 EQ PUSH2 0x1C94 JUMPI DUP1 PUSH4 0x4F471E8F EQ PUSH2 0x1D12 JUMPI DUP1 PUSH4 0x50910AD6 EQ PUSH2 0x1CAD JUMPI DUP1 PUSH4 0x51858E27 EQ PUSH2 0x1C94 JUMPI DUP1 PUSH4 0x54874B2B EQ PUSH2 0x1B60 JUMPI DUP1 PUSH4 0x68FA8134 EQ PUSH2 0x1AD4 JUMPI DUP1 PUSH4 0x715018A6 EQ PUSH2 0x1A7B JUMPI DUP1 PUSH4 0x76BE1585 EQ PUSH2 0x1A38 JUMPI DUP1 PUSH4 0x780AAC03 EQ PUSH2 0x19F5 JUMPI DUP1 PUSH4 0x7A327D94 EQ PUSH2 0x19AC JUMPI DUP1 PUSH4 0x869D785F EQ PUSH2 0x194A JUMPI DUP1 PUSH4 0x8DA5CB5B EQ PUSH2 0x1921 JUMPI DUP1 PUSH4 0x9B1C7CA6 EQ PUSH2 0x16D6 JUMPI DUP1 PUSH4 0xAB0602CF EQ PUSH2 0xE0F JUMPI DUP1 PUSH4 0xAD7159CB EQ PUSH2 0xB49 JUMPI DUP1 PUSH4 0xAE2251E8 EQ PUSH2 0xD1C JUMPI DUP1 PUSH4 0xB03C206A EQ PUSH2 0xCDC JUMPI DUP1 PUSH4 0xB532E4CB EQ PUSH2 0xC77 JUMPI DUP1 PUSH4 0xB544C083 EQ PUSH2 0xBFD JUMPI DUP1 PUSH4 0xB7B05F16 EQ PUSH2 0xBAA JUMPI DUP1 PUSH4 0xB8ACB008 EQ PUSH2 0xB49 JUMPI DUP1 PUSH4 0xB8C7724A EQ PUSH2 0xB2B JUMPI DUP1 PUSH4 0xBC7EFC5F EQ PUSH2 0xA72 JUMPI DUP1 PUSH4 0xC9991176 EQ PUSH2 0xA29 JUMPI DUP1 PUSH4 0xD3ED5A11 EQ PUSH2 0x9A0 JUMPI DUP1 PUSH4 0xE81EE43E EQ PUSH2 0x8E9 JUMPI DUP1 PUSH4 0xF1A03F1B EQ PUSH2 0x4F6 JUMPI DUP1 PUSH4 0xF23378CA EQ PUSH2 0x3A6 JUMPI DUP1 PUSH4 0xF2FDE38B EQ PUSH2 0x2DB JUMPI DUP1 PUSH4 0xF9244DD7 EQ PUSH2 0x26A JUMPI PUSH4 0xFA6F3936 EQ PUSH2 0x1ED JUMPI PUSH1 0x0 DUP1 REVERT JUMPDEST CALLVALUE PUSH2 0x265 JUMPI PUSH1 0x20 CALLDATASIZE PUSH1 0x3 NOT ADD SLT PUSH2 0x265 JUMPI PUSH1 0x4 CALLDATALOAD PUSH1 0x1 PUSH1 0x1 PUSH1 0xA0 SHL SUB DUP2 DUP2 AND SWAP2 DUP3 SWAP1 SUB PUSH2 0x265 JUMPI DUP2 PUSH1 0x20 SWAP3 PUSH1 0x0 MSTORE PUSH1 0x9 DUP4 MSTORE PUSH1 0xFF PUSH1 0x40 PUSH1 0x0 KECCAK256 SLOAD AND SWAP2 DUP3 ISZERO PUSH2 0x251 JUMPI JUMPDEST DUP3 ISZERO PUSH2 0x243 JUMPI JUMPDEST POP POP PUSH1 0x40 MLOAD SWAP1 ISZERO ISZERO DUP2 MSTORE RETURN JUMPDEST PUSH1 0x0 SLOAD AND EQ SWAP1 POP CODESIZE DUP1 PUSH2 0x237 JUMP JUMPDEST PUSH1 0x8 DUP5 MSTORE PUSH1 0x40 PUSH1 0x0 KECCAK256 SLOAD PUSH1 0xFF AND SWAP3 POP PUSH2 0x230 JUMP JUMPDEST PUSH1 0x0 DUP1 REVERT JUMPDEST CALLVALUE PUSH2 0x265 JUMPI PUSH1 0x20 CALLDATASIZE PUSH1 0x3 NOT ADD SLT PUSH2 0x265 JUMPI PUSH1 0x4 CALLDATALOAD PUSH1 0x1 PUSH1 0x1 PUSH1 0xA0 SHL SUB DUP2 DUP2 AND SWAP2 DUP3 SWAP1 SUB PUSH2 0x265 JUMPI PUSH2 0x2B5 SWAP1 CALLER PUSH1 0x0 MSTORE PUSH1 0x8 PUSH1 0x20 MSTORE PUSH1 0xFF PUSH1 0x40 PUSH1 0x0 KECCAK256 SLOAD AND SWAP1 DUP2 ISZERO PUSH2 0x2CD JUMPI JUMPDEST POP PUSH2 0x2A64 JUMP JUMPDEST PUSH1 0x0 SWAP1 DUP2 MSTORE PUSH1 0xA PUSH1 0x20 MSTORE PUSH1 0x40 SWAP1 KECCAK256 DUP1 SLOAD PUSH1 0xFF NOT AND SWAP1 SSTORE STOP JUMPDEST PUSH1 0x0 SLOAD AND CALLER EQ SWAP1 POP DUP4 PUSH2 0x2AF JUMP JUMPDEST CALLVALUE PUSH2 0x265 JUMPI PUSH1 0x20 CALLDATASIZE PUSH1 0x3 NOT ADD SLT PUSH2 0x265 JUMPI PUSH1 0x4 CALLDATALOAD PUSH1 0x1 PUSH1 0x1 PUSH1 0xA0 SHL SUB DUP2 DUP2 AND SWAP2 DUP3 SWAP1 SUB PUSH2 0x265 JUMPI PUSH2 0x30A PUSH2 0x2A0C JUMP JUMPDEST DUP2 ISZERO PUSH2 0x352 JUMPI PUSH1 0x0 SLOAD DUP3 PUSH12 0xFFFFFFFFFFFFFFFFFFFFFFFF PUSH1 0xA0 SHL DUP3 AND OR PUSH1 0x0 SSTORE AND PUSH32 0x8BE0079C531659141344CD1FD0A4F28419497F9722A3DAAFE3B4186F6B6457E0 PUSH1 0x0 DUP1 LOG3 STOP JUMPDEST PUSH1 0x40 MLOAD PUSH3 0x461BCD PUSH1 0xE5 SHL DUP2 MSTORE PUSH1 0x20 PUSH1 0x4 DUP3 ADD MSTORE PUSH1 0x26 PUSH1 0x24 DUP3 ADD MSTORE PUSH32 0x4F776E61626C653A206E6577206F776E657220697320746865207A65726F2061 PUSH1 0x44 DUP3 ADD MSTORE PUSH6 0x646472657373 PUSH1 0xD0 SHL PUSH1 0x64 DUP3 ADD MSTORE PUSH1 0x84 SWAP1 REVERT JUMPDEST CALLVALUE PUSH2 0x265 JUMPI PUSH2 0x3B4 CALLDATASIZE PUSH2 0x24EC JUMP JUMPDEST SWAP6 DUP1 SWAP11 SWAP9 SWAP10 SWAP8 SWAP6 SWAP2 SWAP6 SWAP5 SWAP3 SWAP5 CALLER PUSH1 0x0 MSTORE PUSH1 0x8 PUSH1 0x20 MSTORE PUSH1 0xFF PUSH1 0x40 PUSH1 0x0 KECCAK256 SLOAD AND DUP1 ISZERO PUSH2 0x4E2 JUMPI JUMPDEST PUSH2 0x3E2 SWAP1 PUSH2 0x2A64 JUMP JUMPDEST PUSH1 0x40 MLOAD DUP11 MLOAD SWAP1 DUP1 PUSH1 0x20 DUP14 ADD SWAP3 PUSH2 0x3F9 DUP2 DUP4 DUP7 PUSH2 0x27AB JUMP JUMPDEST DUP2 ADD PUSH1 0x3 DUP2 MSTORE SUB PUSH1 0x20 ADD SWAP1 KECCAK256 SLOAD PUSH1 0xFF AND PUSH2 0x412 SWAP1 PUSH2 0x3B9D JUMP JUMPDEST DUP3 MLOAD ISZERO ISZERO PUSH2 0x41F SWAP1 PUSH2 0x3D2A JUMP JUMPDEST DUP2 MLOAD ISZERO ISZERO PUSH2 0x42C SWAP1 PUSH2 0x3CDE JUMP JUMPDEST DUP5 MLOAD ISZERO ISZERO PUSH2 0x439 SWAP1 PUSH2 0x3D76 JUMP JUMPDEST PUSH1 0x40 MLOAD DUP1 DUP1 SWAP3 DUP14 MLOAD DUP1 SWAP3 PUSH2 0x44C SWAP3 PUSH2 0x27AB JUMP JUMPDEST DUP2 ADD PUSH1 0x2 DUP2 MSTORE SUB PUSH1 0x20 ADD SWAP1 KECCAK256 PUSH1 0x4 ADD SWAP11 PUSH1 0x40 MLOAD PUSH2 0x46A DUP2 DUP1 SWAP15 PUSH2 0x28A2 JUMP JUMPDEST SUB PUSH2 0x475 SWAP1 DUP14 PUSH2 0x236A JUMP JUMPDEST PUSH2 0x47E DUP12 PUSH2 0x3EB9 JUMP JUMPDEST PUSH2 0x488 SWAP10 DUP12 PUSH2 0x2CC5 JUMP JUMPDEST PUSH2 0x491 SWAP1 PUSH2 0x2CA5 JUMP JUMPDEST SWAP1 PUSH1 0x40 MLOAD DUP1 SWAP2 PUSH1 0x40 DUP3 MSTORE PUSH1 0x40 DUP3 ADD PUSH2 0x4A8 SWAP2 PUSH2 0x27CE JUMP JUMPDEST SWAP4 DUP2 DUP6 SUB PUSH1 0x20 DUP4 ADD MSTORE CALLER SWAP5 PUSH2 0x4BC SWAP2 PUSH2 0x27CE JUMP JUMPDEST SUB PUSH32 0x13B0FE0315832CA9294AEBFAEC7C66B0A8FA8ABF1458E42623DE230A1C00D300 SWAP2 LOG3 STOP JUMPDEST POP PUSH1 0x0 SLOAD PUSH1 0x1 PUSH1 0x1 PUSH1 0xA0 SHL SUB AND CALLER EQ PUSH2 0x3D9 JUMP JUMPDEST CALLVALUE PUSH2 0x265 JUMPI PUSH1 0x20 CALLDATASIZE PUSH1 0x3 NOT ADD SLT PUSH2 0x265 JUMPI PUSH1 0x4 CALLDATALOAD PUSH1 0x1 PUSH1 0x1 PUSH1 0x40 SHL SUB DUP2 GT PUSH2 0x265 JUMPI PUSH1 0x20 PUSH2 0x52B PUSH2 0x5CF SWAP3 CALLDATASIZE SWAP1 PUSH1 0x4 ADD PUSH2 0x23D1 JUMP JUMPDEST PUSH1 0x60 PUSH2 0x1A0 PUSH1 0x40 MLOAD PUSH2 0x53C DUP2 PUSH2 0x234E JUMP JUMPDEST DUP3 DUP2 MSTORE PUSH1 0x0 DUP6 DUP3 ADD MSTORE DUP3 PUSH1 0x40 DUP3 ADD MSTORE DUP3 DUP1 DUP3 ADD MSTORE DUP3 PUSH1 0x80 DUP3 ADD MSTORE DUP3 PUSH1 0xA0 DUP3 ADD MSTORE DUP3 PUSH1 0xC0 DUP3 ADD MSTORE DUP3 PUSH1 0xE0 DUP3 ADD MSTORE DUP3 PUSH2 0x100 DUP3 ADD MSTORE PUSH1 0x0 PUSH2 0x120 DUP3 ADD MSTORE PUSH1 0x0 PUSH2 0x140 DUP3 ADD MSTORE PUSH1 0x0 PUSH2 0x160 DUP3 ADD MSTORE DUP3 PUSH2 0x180 DUP3 ADD MSTORE ADD MSTORE PUSH1 0x40 MLOAD SWAP1 PUSH2 0x5BE PUSH1 0xFF DUP3 MLOAD SWAP4 DUP6 DUP2 DUP2 DUP7 ADD SWAP7 PUSH2 0x5AD DUP2 DUP4 DUP11 PUSH2 0x27AB JUMP JUMPDEST DUP2 ADD PUSH1 0x3 DUP2 MSTORE SUB ADD SWAP1 KECCAK256 SLOAD AND PUSH2 0x3B9D JUMP JUMPDEST PUSH1 0x40 MLOAD SWAP4 DUP5 SWAP3 DUP4 SWAP3 MLOAD SWAP3 DUP4 SWAP2 PUSH2 0x27AB JUMP JUMPDEST DUP2 ADD PUSH1 0x2 DUP2 MSTORE SUB ADD SWAP1 KECCAK256 PUSH1 0x40 MLOAD SWAP1 PUSH2 0x5E6 DUP3 PUSH2 0x234E JUMP JUMPDEST PUSH1 0x40 MLOAD PUSH2 0x5FE DUP2 PUSH2 0x5F7 DUP2 DUP6 PUSH2 0x28A2 JUMP JUMPDEST SUB DUP3 PUSH2 0x236A JUMP JUMPDEST DUP3 MSTORE PUSH2 0x614 PUSH1 0xFF PUSH1 0x1 DUP4 ADD SLOAD AND PUSH1 0x20 DUP5 ADD PUSH2 0x2B32 JUMP JUMPDEST PUSH1 0x40 MLOAD PUSH2 0x628 DUP2 PUSH2 0x5F7 DUP2 PUSH1 0x2 DUP7 ADD PUSH2 0x28A2 JUMP JUMPDEST PUSH1 0x40 DUP4 ADD MSTORE PUSH1 0x40 MLOAD PUSH2 0x641 DUP2 PUSH2 0x5F7 DUP2 PUSH1 0x3 DUP7 ADD PUSH2 0x28A2 JUMP JUMPDEST PUSH1 0x60 DUP4 ADD MSTORE PUSH1 0x40 MLOAD PUSH2 0x65A DUP2 PUSH2 0x5F7 DUP2 PUSH1 0x4 DUP7 ADD PUSH2 0x28A2 JUMP JUMPDEST PUSH1 0x80 DUP4 ADD MSTORE PUSH1 0x40 MLOAD PUSH2 0x673 DUP2 PUSH2 0x5F7 DUP2 PUSH1 0x5 DUP7 ADD PUSH2 0x28A2 JUMP JUMPDEST PUSH1 0xA0 DUP4 ADD MSTORE PUSH1 0x6 DUP2 ADD DUP1 SLOAD PUSH2 0x687 DUP2 PUSH2 0x2455 JUMP JUMPDEST SWAP2 PUSH2 0x695 PUSH1 0x40 MLOAD SWAP4 DUP5 PUSH2 0x236A JUMP JUMPDEST DUP2 DUP4 MSTORE PUSH1 0x20 DUP4 ADD SWAP1 PUSH1 0x0 MSTORE PUSH1 0x20 PUSH1 0x0 KECCAK256 PUSH1 0x0 SWAP2 JUMPDEST DUP4 DUP4 LT PUSH2 0x8CB JUMPI DUP7 PUSH1 0xD PUSH2 0x730 DUP9 DUP9 PUSH1 0xC0 DUP6 ADD MSTORE PUSH2 0x6C9 PUSH1 0x7 DUP3 ADD PUSH2 0x3C79 JUMP JUMPDEST PUSH1 0xE0 DUP6 ADD MSTORE PUSH2 0x6DA PUSH1 0x8 DUP3 ADD PUSH2 0x3C79 JUMP JUMPDEST PUSH2 0x100 DUP6 ADD MSTORE PUSH1 0xFF PUSH1 0x9 DUP3 ADD SLOAD AND ISZERO ISZERO PUSH2 0x120 DUP6 ADD MSTORE PUSH1 0xA DUP2 ADD SLOAD PUSH2 0x140 DUP6 ADD MSTORE PUSH1 0xB DUP2 ADD SLOAD PUSH2 0x160 DUP6 ADD MSTORE PUSH1 0x40 MLOAD PUSH2 0x71A DUP2 PUSH2 0x5F7 DUP2 PUSH1 0xC DUP7 ADD PUSH2 0x28A2 JUMP JUMPDEST PUSH2 0x180 DUP6 ADD MSTORE PUSH2 0x5F7 PUSH1 0x40 MLOAD DUP1 SWAP5 DUP2 SWAP4 ADD PUSH2 0x28A2 JUMP JUMPDEST PUSH2 0x1A0 DUP3 ADD MSTORE PUSH1 0x40 MLOAD DUP1 SWAP2 PUSH1 0x20 DUP3 MSTORE PUSH2 0x7CD PUSH2 0x7B7 PUSH2 0x7A1 PUSH2 0x78B PUSH2 0x763 DUP6 MLOAD PUSH2 0x1C0 PUSH1 0x20 DUP10 ADD MSTORE PUSH2 0x1E0 DUP9 ADD SWAP1 PUSH2 0x27CE JUMP JUMPDEST PUSH2 0x775 PUSH1 0x20 DUP8 ADD MLOAD PUSH1 0x40 DUP10 ADD SWAP1 PUSH2 0x23EF JUMP JUMPDEST PUSH1 0x40 DUP7 ADD MLOAD DUP8 DUP3 SUB PUSH1 0x1F NOT ADD PUSH1 0x60 DUP10 ADD MSTORE PUSH2 0x27CE JUMP JUMPDEST PUSH1 0x60 DUP6 ADD MLOAD DUP7 DUP3 SUB PUSH1 0x1F NOT ADD PUSH1 0x80 DUP9 ADD MSTORE PUSH2 0x27CE JUMP JUMPDEST PUSH1 0x80 DUP5 ADD MLOAD DUP6 DUP3 SUB PUSH1 0x1F NOT ADD PUSH1 0xA0 DUP8 ADD MSTORE PUSH2 0x27CE JUMP JUMPDEST PUSH1 0xA0 DUP4 ADD MLOAD DUP5 DUP3 SUB PUSH1 0x1F NOT ADD PUSH1 0xC0 DUP7 ADD MSTORE PUSH2 0x27CE JUMP JUMPDEST PUSH1 0xC0 DUP3 ADD MLOAD SWAP1 PUSH1 0x1F NOT DUP5 DUP3 SUB ADD PUSH1 0xE0 DUP6 ADD MSTORE DUP2 MLOAD DUP1 DUP3 MSTORE PUSH1 0x20 DUP3 ADD SWAP2 PUSH1 0x20 DUP1 DUP4 PUSH1 0x5 SHL DUP4 ADD ADD SWAP5 ADD SWAP3 PUSH1 0x0 SWAP2 JUMPDEST DUP4 DUP4 LT PUSH2 0x898 JUMPI DUP8 DUP1 PUSH2 0x894 DUP10 PUSH2 0x1A0 PUSH2 0x87F PUSH2 0x843 PUSH2 0x82B DUP14 PUSH1 0xE0 DUP7 ADD MLOAD PUSH1 0x1F NOT DUP10 DUP4 SUB ADD PUSH2 0x100 DUP11 ADD MSTORE PUSH2 0x27F3 JUMP JUMPDEST PUSH2 0x100 DUP6 ADD MLOAD DUP8 DUP3 SUB PUSH1 0x1F NOT ADD PUSH2 0x120 DUP10 ADD MSTORE PUSH2 0x27F3 JUMP JUMPDEST PUSH2 0x120 DUP5 ADD MLOAD ISZERO ISZERO PUSH2 0x140 DUP8 ADD MSTORE PUSH2 0x140 DUP5 ADD MLOAD PUSH2 0x160 DUP8 ADD MSTORE PUSH2 0x160 DUP5 ADD MLOAD PUSH2 0x180 DUP8 ADD MSTORE PUSH2 0x180 DUP5 ADD MLOAD PUSH1 0x1F NOT DUP8 DUP4 SUB ADD DUP5 DUP9 ADD MSTORE PUSH2 0x27CE JUMP JUMPDEST SWAP2 ADD MLOAD DUP4 DUP3 SUB PUSH1 0x1F NOT ADD PUSH2 0x1C0 DUP6 ADD MSTORE PUSH2 0x27CE JUMP JUMPDEST SUB SWAP1 RETURN JUMPDEST SWAP2 SWAP4 SWAP6 SWAP7 POP SWAP2 SWAP4 PUSH1 0x20 DUP1 PUSH2 0x8B8 PUSH1 0x1 SWAP4 PUSH1 0x1F NOT DUP7 DUP3 SUB ADD DUP8 MSTORE DUP10 MLOAD PUSH2 0x2997 JUMP JUMPDEST SWAP8 ADD SWAP4 ADD SWAP4 ADD SWAP1 SWAP3 DUP8 SWAP7 SWAP6 SWAP5 SWAP3 SWAP4 PUSH2 0x7FA JUMP JUMPDEST PUSH1 0x5 PUSH1 0x20 PUSH1 0x1 SWAP3 PUSH2 0x8DB DUP6 PUSH2 0x3BDE JUMP JUMPDEST DUP2 MSTORE ADD SWAP3 ADD SWAP3 ADD SWAP2 SWAP1 PUSH2 0x6A9 JUMP JUMPDEST CALLVALUE PUSH2 0x265 JUMPI PUSH2 0x98A PUSH2 0x8FA CALLDATASIZE PUSH2 0x24EC JUMP JUMPDEST SWAP10 SWAP9 SWAP1 SWAP9 SWAP8 SWAP2 SWAP8 SWAP7 SWAP3 SWAP7 SWAP6 SWAP4 SWAP6 CALLER PUSH1 0x0 MSTORE PUSH1 0x8 PUSH1 0x20 MSTORE PUSH1 0xFF PUSH1 0x40 PUSH1 0x0 KECCAK256 SLOAD AND DUP1 ISZERO PUSH2 0x98C JUMPI JUMPDEST PUSH2 0x929 SWAP1 PUSH2 0x2A64 JUMP JUMPDEST PUSH2 0x955 PUSH1 0xFF PUSH1 0x40 MLOAD PUSH1 0x20 DUP2 DUP6 MLOAD PUSH2 0x943 DUP2 DUP4 DUP6 DUP11 ADD PUSH2 0x27AB JUMP JUMPDEST DUP2 ADD PUSH1 0x3 DUP2 MSTORE SUB ADD SWAP1 KECCAK256 SLOAD AND ISZERO PUSH2 0x2AA1 JUMP JUMPDEST PUSH2 0x961 DUP2 MLOAD ISZERO ISZERO PUSH2 0x2AE6 JUMP JUMPDEST PUSH2 0x96D DUP5 MLOAD ISZERO ISZERO PUSH2 0x3CDE JUMP JUMPDEST PUSH2 0x979 DUP6 MLOAD ISZERO ISZERO PUSH2 0x3D2A JUMP JUMPDEST PUSH2 0x985 DUP8 MLOAD ISZERO ISZERO PUSH2 0x3D76 JUMP JUMPDEST PUSH2 0x2CC5 JUMP JUMPDEST STOP JUMPDEST POP PUSH1 0x0 SLOAD PUSH1 0x1 PUSH1 0x1 PUSH1 0xA0 SHL SUB AND CALLER EQ PUSH2 0x920 JUMP JUMPDEST CALLVALUE PUSH2 0x265 JUMPI PUSH1 0x20 PUSH2 0x9C8 PUSH2 0x9B3 CALLDATASIZE PUSH2 0x2938 JUMP JUMPDEST SWAP3 SWAP1 DUP2 PUSH1 0x40 MLOAD SWAP4 DUP3 DUP6 DUP1 SWAP5 MLOAD SWAP4 DUP5 SWAP3 ADD PUSH2 0x27AB JUMP JUMPDEST DUP2 ADD PUSH1 0x5 DUP2 MSTORE SUB ADD SWAP1 KECCAK256 SWAP1 DUP2 SLOAD DUP2 LT ISZERO PUSH2 0x265 JUMPI PUSH2 0x9E5 SWAP2 PUSH2 0x2969 JUMP JUMPDEST PUSH2 0xA13 JUMPI PUSH2 0x5F7 PUSH2 0x9FF PUSH2 0x894 SWAP3 PUSH1 0x40 MLOAD SWAP3 DUP4 DUP1 SWAP3 PUSH2 0x28A2 JUMP JUMPDEST PUSH1 0x40 MLOAD SWAP2 DUP3 SWAP2 PUSH1 0x20 DUP4 MSTORE PUSH1 0x20 DUP4 ADD SWAP1 PUSH2 0x27CE JUMP JUMPDEST PUSH4 0x4E487B71 PUSH1 0xE0 SHL PUSH1 0x0 MSTORE PUSH1 0x0 PUSH1 0x4 MSTORE PUSH1 0x24 PUSH1 0x0 REVERT JUMPDEST CALLVALUE PUSH2 0x265 JUMPI PUSH1 0x20 CALLDATASIZE PUSH1 0x3 NOT ADD SLT PUSH2 0x265 JUMPI PUSH1 0x4 CALLDATALOAD PUSH1 0x1 PUSH1 0x1 PUSH1 0xA0 SHL SUB DUP2 AND SWAP1 DUP2 SWAP1 SUB PUSH2 0x265 JUMPI PUSH2 0xA57 PUSH2 0x2A0C JUMP JUMPDEST PUSH1 0x0 SWAP1 DUP2 MSTORE PUSH1 0x8 PUSH1 0x20 MSTORE PUSH1 0x40 SWAP1 KECCAK256 DUP1 SLOAD PUSH1 0xFF NOT AND PUSH1 0x1 OR SWAP1 SSTORE STOP JUMPDEST CALLVALUE PUSH2 0x265 JUMPI PUSH1 0x20 PUSH2 0xA85 PUSH2 0x9B3 CALLDATASIZE PUSH2 0x2938 JUMP JUMPDEST DUP2 ADD PUSH1 0x6 DUP2 MSTORE SUB ADD SWAP1 KECCAK256 SWAP1 PUSH1 0x0 MSTORE PUSH1 0x20 MSTORE PUSH2 0xAF5 PUSH1 0x40 PUSH1 0x0 KECCAK256 PUSH1 0x40 MLOAD SWAP1 PUSH2 0xAB7 DUP3 PUSH2 0xAB0 DUP2 DUP5 PUSH2 0x28A2 JUMP JUMPDEST SUB DUP4 PUSH2 0x236A JUMP JUMPDEST PUSH1 0xFF PUSH1 0x40 MLOAD PUSH2 0xACD DUP2 PUSH2 0x5F7 DUP2 PUSH1 0x1 DUP8 ADD PUSH2 0x28A2 JUMP JUMPDEST PUSH1 0x2 DUP4 ADD SLOAD SWAP3 PUSH2 0xB03 PUSH1 0x4 PUSH1 0x3 DUP4 ADD SLOAD SWAP3 ADD SLOAD SWAP3 PUSH1 0x40 MLOAD SWAP8 DUP9 SWAP8 PUSH1 0xC0 DUP10 MSTORE PUSH1 0xC0 DUP10 ADD SWAP1 PUSH2 0x27CE JUMP JUMPDEST SWAP1 DUP8 DUP3 SUB PUSH1 0x20 DUP10 ADD MSTORE PUSH2 0x27CE JUMP JUMPDEST SWAP4 PUSH1 0x40 DUP7 ADD MSTORE PUSH1 0x60 DUP6 ADD MSTORE PUSH1 0x1 DUP1 PUSH1 0xA0 SHL SUB DUP2 AND PUSH1 0x80 DUP6 ADD MSTORE PUSH1 0xA0 SHR AND ISZERO ISZERO PUSH1 0xA0 DUP4 ADD MSTORE SUB SWAP1 RETURN JUMPDEST CALLVALUE PUSH2 0x265 JUMPI PUSH1 0x0 CALLDATASIZE PUSH1 0x3 NOT ADD SLT PUSH2 0x265 JUMPI PUSH1 0x20 PUSH1 0xB SLOAD PUSH1 0x40 MLOAD SWAP1 DUP2 MSTORE RETURN JUMPDEST CALLVALUE PUSH2 0x265 JUMPI PUSH1 0x20 CALLDATASIZE PUSH1 0x3 NOT ADD SLT PUSH2 0x265 JUMPI PUSH1 0x4 CALLDATALOAD PUSH1 0x1 PUSH1 0x1 PUSH1 0x40 SHL SUB DUP2 GT PUSH2 0x265 JUMPI PUSH1 0xFF PUSH2 0xB94 PUSH1 0x20 PUSH2 0xB81 DUP2 SWAP5 CALLDATASIZE SWAP1 PUSH1 0x4 ADD PUSH2 0x23D1 JUMP JUMPDEST DUP2 PUSH1 0x40 MLOAD SWAP4 DUP3 DUP6 DUP1 SWAP5 MLOAD SWAP4 DUP5 SWAP3 ADD PUSH2 0x27AB JUMP JUMPDEST DUP2 ADD PUSH1 0x3 DUP2 MSTORE SUB ADD SWAP1 KECCAK256 SLOAD AND PUSH1 0x40 MLOAD SWAP1 ISZERO ISZERO DUP2 MSTORE RETURN JUMPDEST CALLVALUE PUSH2 0x265 JUMPI PUSH1 0x20 CALLDATASIZE PUSH1 0x3 NOT ADD SLT PUSH2 0x265 JUMPI PUSH1 0x4 CALLDATALOAD PUSH1 0x1 PUSH1 0x1 PUSH1 0x40 SHL SUB DUP2 GT PUSH2 0x265 JUMPI PUSH1 0xFF PUSH2 0xBE2 PUSH1 0x20 PUSH2 0xB81 DUP2 SWAP5 CALLDATASIZE SWAP1 PUSH1 0x4 ADD PUSH2 0x23D1 JUMP JUMPDEST DUP2 ADD PUSH1 0x4 DUP2 MSTORE SUB ADD SWAP1 KECCAK256 SLOAD AND PUSH2 0xBFB PUSH1 0x40 MLOAD DUP1 SWAP3 PUSH2 0x23EF JUMP JUMPDEST RETURN JUMPDEST CALLVALUE PUSH2 0x265 JUMPI PUSH2 0x894 PUSH2 0xC63 PUSH2 0xC11 CALLDATASIZE PUSH2 0x2412 JUMP JUMPDEST SWAP1 PUSH1 0x40 MLOAD PUSH2 0xC1E DUP2 PUSH2 0x2333 JUMP JUMPDEST PUSH1 0x60 DUP2 MSTORE PUSH1 0x0 PUSH1 0x20 DUP3 ADD MSTORE PUSH1 0x0 PUSH1 0x40 DUP3 ADD MSTORE PUSH1 0x60 DUP1 DUP3 ADD MSTORE PUSH1 0x60 PUSH1 0x80 DUP3 ADD MSTORE PUSH1 0x60 PUSH1 0xA0 DUP3 ADD MSTORE PUSH2 0xC5E PUSH1 0xFF PUSH1 0x40 MLOAD PUSH1 0x20 DUP2 DUP7 MLOAD PUSH2 0x5AD DUP2 DUP4 DUP6 DUP12 ADD PUSH2 0x27AB JUMP JUMPDEST PUSH2 0x4373 JUMP JUMPDEST PUSH1 0x40 MLOAD SWAP2 DUP3 SWAP2 PUSH1 0x20 DUP4 MSTORE PUSH1 0x20 DUP4 ADD SWAP1 PUSH2 0x2997 JUMP JUMPDEST CALLVALUE PUSH2 0x265 JUMPI PUSH1 0x20 CALLDATASIZE PUSH1 0x3 NOT ADD SLT PUSH2 0x265 JUMPI PUSH1 0x4 CALLDATALOAD PUSH1 0x1 PUSH1 0x1 PUSH1 0xA0 SHL SUB DUP2 DUP2 AND SWAP2 DUP3 SWAP1 SUB PUSH2 0x265 JUMPI PUSH2 0xCC1 SWAP1 CALLER PUSH1 0x0 MSTORE PUSH1 0x8 PUSH1 0x20 MSTORE PUSH1 0xFF PUSH1 0x40 PUSH1 0x0 KECCAK256 SLOAD AND SWAP1 DUP2 ISZERO PUSH2 0x2CD JUMPI POP PUSH2 0x2A64 JUMP JUMPDEST PUSH1 0x0 SWAP1 DUP2 MSTORE PUSH1 0x9 PUSH1 0x20 MSTORE PUSH1 0x40 SWAP1 KECCAK256 DUP1 SLOAD PUSH1 0xFF NOT AND PUSH1 0x1 OR SWAP1 SSTORE STOP JUMPDEST CALLVALUE PUSH2 0x265 JUMPI PUSH1 0x20 PUSH2 0xCEF PUSH2 0x9B3 CALLDATASIZE PUSH2 0x2938 JUMP JUMPDEST DUP2 ADD PUSH1 0x7 DUP2 MSTORE SUB ADD SWAP1 KECCAK256 DUP1 SLOAD DUP3 LT ISZERO PUSH2 0x265 JUMPI PUSH1 0x20 SWAP2 PUSH2 0xD0E SWAP2 PUSH2 0x2969 JUMP JUMPDEST SWAP1 SLOAD PUSH1 0x40 MLOAD SWAP2 PUSH1 0x3 SHL SHR DUP2 MSTORE RETURN JUMPDEST CALLVALUE PUSH2 0x265 JUMPI PUSH1 0x20 DUP1 PUSH1 0x3 NOT CALLDATASIZE ADD SLT PUSH2 0x265 JUMPI PUSH1 0x4 CALLDATALOAD PUSH1 0x1 PUSH1 0x1 PUSH1 0x40 SHL SUB DUP2 GT PUSH2 0x265 JUMPI PUSH2 0xD4D SWAP1 CALLDATASIZE SWAP1 PUSH1 0x4 ADD PUSH2 0x23D1 JUMP JUMPDEST CALLER PUSH1 0x0 MSTORE PUSH1 0x8 DUP3 MSTORE PUSH1 0xFF PUSH1 0x40 PUSH1 0x0 KECCAK256 SLOAD AND DUP1 ISZERO PUSH2 0xDFB JUMPI JUMPDEST PUSH2 0xD6E SWAP1 PUSH2 0x2A64 JUMP JUMPDEST PUSH32 0x6B8BC325AB87DE6FD5DB76A0EA6091F95B945AC6A07D14C92810EC1093D1FC94 PUSH2 0xDF6 PUSH2 0xDE2 PUSH1 0x4 PUSH2 0xDD1 DUP7 PUSH1 0x40 MLOAD PUSH2 0xDB7 PUSH1 0xFF DUP10 MLOAD SWAP3 DUP5 DUP2 DUP2 DUP14 ADD SWAP6 PUSH2 0x5AD DUP2 DUP4 DUP10 PUSH2 0x27AB JUMP JUMPDEST PUSH2 0xDC0 DUP9 PUSH2 0x3EB9 JUMP JUMPDEST PUSH1 0x40 MLOAD DUP1 SWAP4 DUP2 SWAP3 DUP11 MLOAD SWAP3 DUP4 SWAP2 PUSH2 0x27AB JUMP JUMPDEST DUP2 ADD PUSH1 0x2 DUP2 MSTORE SUB ADD SWAP1 KECCAK256 ADD SWAP4 PUSH2 0x2CA5 JUMP JUMPDEST SWAP3 PUSH1 0x40 MLOAD SWAP2 DUP3 SWAP2 DUP7 DUP4 MSTORE CALLER SWAP7 DUP4 ADD SWAP1 PUSH2 0x28A2 JUMP JUMPDEST SUB SWAP1 LOG3 STOP JUMPDEST POP PUSH1 0x0 SLOAD PUSH1 0x1 PUSH1 0x1 PUSH1 0xA0 SHL SUB AND CALLER EQ PUSH2 0xD65 JUMP JUMPDEST CALLVALUE PUSH2 0x265 JUMPI PUSH1 0x80 CALLDATASIZE PUSH1 0x3 NOT ADD SLT PUSH2 0x265 JUMPI PUSH1 0x4 CALLDATALOAD PUSH1 0x1 PUSH1 0x1 PUSH1 0x40 SHL SUB DUP2 GT PUSH2 0x265 JUMPI PUSH2 0xE3F SWAP1 CALLDATASIZE SWAP1 PUSH1 0x4 ADD PUSH2 0x23D1 JUMP JUMPDEST PUSH1 0x24 CALLDATALOAD PUSH1 0x1 PUSH1 0x1 PUSH1 0x40 SHL SUB DUP2 GT PUSH2 0x265 JUMPI PUSH2 0xE5E SWAP1 CALLDATASIZE SWAP1 PUSH1 0x4 ADD PUSH2 0x23D1 JUMP JUMPDEST PUSH1 0x44 CALLDATALOAD PUSH1 0x1 PUSH1 0x1 PUSH1 0x40 SHL SUB DUP2 GT PUSH2 0x265 JUMPI PUSH2 0xE7D SWAP1 CALLDATASIZE SWAP1 PUSH1 0x4 ADD PUSH2 0x246C JUMP JUMPDEST SWAP1 PUSH1 0x1 PUSH1 0x1 PUSH1 0x40 SHL SUB PUSH1 0x64 CALLDATALOAD GT PUSH2 0x265 JUMPI CALLDATASIZE PUSH1 0x23 PUSH1 0x64 CALLDATALOAD ADD SLT ISZERO PUSH2 0x265 JUMPI PUSH1 0x64 CALLDATALOAD PUSH1 0x4 ADD CALLDATALOAD PUSH2 0xEAB DUP2 PUSH2 0x2455 JUMP JUMPDEST SWAP1 PUSH2 0xEB9 PUSH1 0x40 MLOAD SWAP3 DUP4 PUSH2 0x236A JUMP JUMPDEST DUP1 DUP3 MSTORE PUSH1 0x20 DUP3 ADD DUP1 SWAP2 CALLDATASIZE PUSH1 0x24 DUP3 PUSH1 0x5 SHL PUSH1 0x64 CALLDATALOAD ADD ADD GT PUSH2 0x265 JUMPI PUSH1 0x24 PUSH1 0x64 CALLDATALOAD ADD SWAP2 JUMPDEST PUSH1 0x24 DUP3 PUSH1 0x5 SHL PUSH1 0x64 CALLDATALOAD ADD ADD DUP4 LT PUSH2 0x168A JUMPI POP POP POP CALLER PUSH1 0x0 MSTORE PUSH1 0xA PUSH1 0x20 MSTORE PUSH1 0xFF PUSH1 0x40 PUSH1 0x0 KECCAK256 SLOAD AND DUP1 ISZERO PUSH2 0x1676 JUMPI JUMPDEST DUP1 ISZERO PUSH2 0x1662 JUMPI JUMPDEST DUP1 ISZERO PUSH2 0x164E JUMPI JUMPDEST PUSH2 0xF1F SWAP1 PUSH2 0x2A64 JUMP JUMPDEST PUSH2 0xF4E PUSH1 0xFF PUSH1 0x40 MLOAD PUSH1 0x20 DUP2 DUP2 PUSH2 0xF3B DUP12 DUP4 DUP2 MLOAD SWAP4 DUP5 SWAP3 ADD PUSH2 0x27AB JUMP JUMPDEST PUSH1 0x3 DUP2 DUP4 ADD MSTORE DUP2 ADD SUB ADD SWAP1 KECCAK256 SLOAD AND PUSH2 0x3B9D JUMP JUMPDEST DUP4 MLOAD DUP3 MLOAD SUB PUSH2 0x1609 JUMPI PUSH1 0x40 MLOAD SWAP1 PUSH1 0x20 DUP1 DUP4 ADD MSTORE PUSH2 0xF80 DUP3 PUSH2 0xF72 PUSH1 0x40 DUP3 ADD DUP9 PUSH2 0x27F3 JUMP JUMPDEST SUB PUSH1 0x1F NOT DUP2 ADD DUP5 MSTORE DUP4 PUSH2 0x236A JUMP JUMPDEST PUSH1 0x40 MLOAD SWAP1 DUP2 PUSH1 0x40 DUP2 ADD SWAP2 PUSH1 0x20 DUP1 DUP4 ADD MSTORE DUP6 MLOAD DUP1 SWAP4 MSTORE PUSH1 0x60 DUP3 ADD SWAP3 PUSH1 0x60 DUP2 PUSH1 0x5 SHL DUP5 ADD ADD SWAP2 SWAP4 PUSH1 0x0 SWAP1 JUMPDEST DUP3 DUP3 LT PUSH2 0x15DC JUMPI POP POP POP PUSH2 0xFC6 SWAP3 POP SUB PUSH1 0x1F NOT DUP2 ADD DUP4 MSTORE DUP3 PUSH2 0x236A JUMP JUMPDEST PUSH2 0x1039 PUSH1 0x40 DUP1 MLOAD DUP1 SWAP4 PUSH1 0x20 DUP3 ADD SWAP6 PUSH1 0x20 PUSH2 0xFE6 DUP13 DUP10 DUP2 MLOAD SWAP4 DUP5 SWAP3 ADD PUSH2 0x27AB JUMP JUMPDEST DUP4 ADD DUP10 MLOAD SWAP1 PUSH2 0xFFC DUP3 DUP13 PUSH1 0x20 DUP1 DUP6 ADD SWAP2 ADD PUSH2 0x27AB JUMP JUMPDEST ADD PUSH2 0x1010 DUP3 MLOAD DUP1 SWAP4 PUSH1 0x20 DUP1 DUP6 ADD SWAP2 ADD PUSH2 0x27AB JUMP JUMPDEST ADD PUSH2 0x1024 DUP3 MLOAD DUP1 SWAP4 PUSH1 0x20 DUP1 DUP6 ADD SWAP2 ADD PUSH2 0x27AB JUMP JUMPDEST ADD TIMESTAMP PUSH1 0x20 DUP3 ADD MSTORE SUB PUSH1 0x20 DUP2 ADD DUP5 MSTORE ADD DUP3 PUSH2 0x236A JUMP JUMPDEST MLOAD SWAP1 KECCAK256 SWAP3 PUSH1 0x40 MLOAD SWAP3 PUSH2 0x104A DUP5 PUSH2 0x2317 JUMP JUMPDEST DUP6 DUP5 MSTORE PUSH1 0x20 DUP5 ADD MSTORE DUP4 PUSH1 0x40 DUP5 ADD MSTORE TIMESTAMP PUSH1 0x60 DUP5 ADD MSTORE CALLER PUSH1 0x80 DUP5 ADD MSTORE PUSH1 0x1 PUSH1 0xA0 DUP5 ADD MSTORE PUSH1 0xC0 DUP4 ADD MSTORE PUSH1 0xE0 DUP3 ADD MSTORE PUSH1 0x40 MLOAD PUSH1 0x20 DUP2 DUP6 MLOAD PUSH2 0x108A DUP2 DUP4 DUP6 DUP11 ADD PUSH2 0x27AB JUMP JUMPDEST DUP2 ADD PUSH1 0x6 DUP2 MSTORE SUB ADD SWAP1 KECCAK256 DUP3 PUSH1 0x0 MSTORE PUSH1 0x20 MSTORE PUSH1 0x40 PUSH1 0x0 KECCAK256 SWAP1 DUP1 MLOAD DUP1 MLOAD SWAP1 PUSH1 0x1 PUSH1 0x1 PUSH1 0x40 SHL SUB DUP3 GT PUSH2 0x129A JUMPI DUP2 SWAP1 PUSH2 0x10CA DUP3 PUSH2 0x10C4 DUP8 SLOAD PUSH2 0x2868 JUMP JUMPDEST DUP8 PUSH2 0x2B55 JUMP JUMPDEST PUSH1 0x20 SWAP1 PUSH1 0x1F DUP4 GT PUSH1 0x1 EQ PUSH2 0x1570 JUMPI PUSH1 0x0 SWAP3 PUSH2 0x1565 JUMPI JUMPDEST POP POP DUP2 PUSH1 0x1 SHL SWAP2 PUSH1 0x0 NOT SWAP1 PUSH1 0x3 SHL SHR NOT AND OR DUP3 SSTORE JUMPDEST PUSH1 0x20 DUP2 ADD MLOAD DUP1 MLOAD SWAP1 PUSH1 0x1 PUSH1 0x1 PUSH1 0x40 SHL SUB DUP3 GT PUSH2 0x129A JUMPI DUP2 SWAP1 PUSH2 0x1127 DUP3 PUSH2 0x111E PUSH1 0x1 DUP9 ADD SLOAD PUSH2 0x2868 JUMP JUMPDEST PUSH1 0x1 DUP9 ADD PUSH2 0x2B55 JUMP JUMPDEST PUSH1 0x20 SWAP1 PUSH1 0x1F DUP4 GT PUSH1 0x1 EQ PUSH2 0x14F3 JUMPI PUSH1 0x0 SWAP3 PUSH2 0x14E8 JUMPI JUMPDEST POP POP DUP2 PUSH1 0x1 SHL SWAP2 PUSH1 0x0 NOT SWAP1 PUSH1 0x3 SHL SHR NOT AND OR PUSH1 0x1 DUP4 ADD SSTORE JUMPDEST PUSH1 0x40 DUP2 ADD MLOAD PUSH1 0x2 DUP4 ADD SSTORE PUSH1 0x60 DUP2 ADD MLOAD PUSH1 0x3 DUP4 ADD SSTORE PUSH1 0x4 DUP3 ADD PUSH1 0x1 DUP1 PUSH1 0xA0 SHL SUB PUSH1 0x80 DUP4 ADD MLOAD AND DUP2 SLOAD SWAP1 PUSH1 0xFF PUSH1 0xA0 SHL PUSH1 0xA0 DUP6 ADD MLOAD ISZERO ISZERO PUSH1 0xA0 SHL AND SWAP2 PUSH11 0xFFFFFFFFFFFFFFFFFFFFFF PUSH1 0xA8 SHL AND OR OR SWAP1 SSTORE PUSH1 0x5 DUP3 ADD PUSH1 0xC0 DUP3 ADD MLOAD PUSH1 0x20 DUP2 MLOAD SWAP2 PUSH2 0x11BA DUP4 DUP6 PUSH2 0x2C37 JUMP JUMPDEST ADD SWAP2 PUSH1 0x0 MSTORE PUSH1 0x20 PUSH1 0x0 KECCAK256 SWAP2 PUSH1 0x0 SWAP1 JUMPDEST DUP3 DUP3 LT PUSH2 0x140B JUMPI POP POP POP POP PUSH1 0xE0 ADD MLOAD DUP1 MLOAD SWAP1 PUSH1 0x1 PUSH1 0x40 SHL DUP3 GT PUSH2 0x129A JUMPI PUSH1 0x6 DUP4 ADD SLOAD DUP3 PUSH1 0x6 DUP6 ADD SSTORE DUP1 DUP4 LT PUSH2 0x1393 JUMPI JUMPDEST POP PUSH1 0x20 PUSH1 0x6 SWAP2 ADD SWAP3 ADD PUSH1 0x0 MSTORE PUSH1 0x20 PUSH1 0x0 KECCAK256 SWAP2 PUSH1 0x0 SWAP1 JUMPDEST DUP3 DUP3 LT PUSH2 0x12B0 JUMPI DUP6 DUP6 PUSH1 0x40 MLOAD PUSH1 0x20 DUP2 DUP5 MLOAD PUSH2 0x122D DUP2 DUP4 DUP6 DUP10 ADD PUSH2 0x27AB JUMP JUMPDEST DUP2 ADD PUSH1 0x7 DUP2 MSTORE SUB ADD SWAP1 KECCAK256 DUP1 SLOAD PUSH1 0x1 PUSH1 0x40 SHL DUP2 LT ISZERO PUSH2 0x129A JUMPI PUSH2 0x1254 SWAP2 PUSH1 0x1 DUP3 ADD DUP2 SSTORE PUSH2 0x2969 JUMP JUMPDEST DUP2 SLOAD SWAP1 PUSH1 0x3 SHL SWAP1 DUP4 DUP3 SHL SWAP2 PUSH1 0x0 NOT SWAP1 SHL NOT AND OR SWAP1 SSTORE PUSH2 0x1273 CALLER SWAP3 PUSH2 0x2CA5 JUMP JUMPDEST PUSH32 0xD43380D9043F9DC8FA2B83A8C42DDC2397CCB419725982A86E035C9B67153910 PUSH1 0x0 DUP1 LOG4 STOP JUMPDEST PUSH4 0x4E487B71 PUSH1 0xE0 SHL PUSH1 0x0 MSTORE PUSH1 0x41 PUSH1 0x4 MSTORE PUSH1 0x24 PUSH1 0x0 REVERT JUMPDEST DUP1 MLOAD DUP1 MLOAD SWAP1 PUSH1 0x1 PUSH1 0x1 PUSH1 0x40 SHL SUB DUP3 GT PUSH2 0x129A JUMPI PUSH2 0x12D7 DUP3 PUSH2 0x12D1 DUP9 SLOAD PUSH2 0x2868 JUMP JUMPDEST DUP9 PUSH2 0x2B55 JUMP JUMPDEST PUSH1 0x20 SWAP1 PUSH1 0x1F DUP4 GT PUSH1 0x1 EQ PUSH2 0x1323 JUMPI SWAP3 DUP3 PUSH1 0x1 SWAP5 SWAP4 PUSH1 0x20 SWAP4 DUP7 SWAP6 PUSH1 0x0 SWAP3 PUSH2 0x1318 JUMPI JUMPDEST POP POP PUSH1 0x0 NOT PUSH1 0x3 DUP4 SWAP1 SHL SHR NOT AND SWAP1 DUP5 SHL OR DUP8 SSTORE JUMPDEST ADD SWAP5 ADD SWAP2 ADD SWAP1 SWAP3 PUSH2 0x120F JUMP JUMPDEST ADD MLOAD SWAP1 POP DUP12 DUP1 PUSH2 0x12F8 JUMP JUMPDEST SWAP1 DUP7 PUSH1 0x0 MSTORE PUSH1 0x20 PUSH1 0x0 KECCAK256 SWAP2 PUSH1 0x0 JUMPDEST PUSH1 0x1F NOT DUP6 AND DUP2 LT PUSH2 0x137B JUMPI POP DUP4 PUSH1 0x20 SWAP4 PUSH1 0x1 SWAP7 SWAP4 DUP8 SWAP7 SWAP4 DUP8 SWAP5 PUSH1 0x1F NOT DUP2 AND LT PUSH2 0x1362 JUMPI JUMPDEST POP POP POP DUP2 SHL ADD DUP8 SSTORE PUSH2 0x130C JUMP JUMPDEST ADD MLOAD PUSH1 0x0 NOT PUSH1 0xF8 DUP5 PUSH1 0x3 SHL AND SHR NOT AND SWAP1 SSTORE DUP12 DUP1 DUP1 PUSH2 0x1355 JUMP JUMPDEST SWAP2 SWAP3 PUSH1 0x20 PUSH1 0x1 DUP2 SWAP3 DUP7 DUP6 ADD MLOAD DUP2 SSTORE ADD SWAP5 ADD SWAP3 ADD PUSH2 0x1331 JUMP JUMPDEST PUSH1 0x6 DUP5 ADD PUSH1 0x0 MSTORE PUSH1 0x20 PUSH1 0x0 KECCAK256 SWAP1 DUP4 DUP3 ADD JUMPDEST DUP2 DUP4 ADD DUP2 LT PUSH2 0x13B4 JUMPI POP POP PUSH2 0x11F9 JUMP JUMPDEST DUP1 PUSH2 0x13C1 PUSH1 0x1 SWAP3 SLOAD PUSH2 0x2868 JUMP JUMPDEST DUP1 PUSH2 0x13CE JUMPI JUMPDEST POP ADD PUSH2 0x13A4 JUMP JUMPDEST PUSH1 0x1F DUP2 GT DUP4 EQ PUSH2 0x13E4 JUMPI POP PUSH1 0x0 DUP2 SSTORE JUMPDEST DUP10 PUSH2 0x13C7 JUMP JUMPDEST PUSH1 0x0 SWAP1 DUP3 DUP3 MSTORE PUSH2 0x1402 PUSH1 0x1F PUSH1 0x20 DUP5 KECCAK256 SWAP3 ADD PUSH1 0x5 SHR DUP3 ADD DUP6 DUP4 ADD PUSH2 0x2B3E JUMP JUMPDEST DUP2 DUP4 SSTORE SSTORE PUSH2 0x13DE JUMP JUMPDEST DUP1 MLOAD DUP1 MLOAD SWAP1 PUSH1 0x1 PUSH1 0x1 PUSH1 0x40 SHL SUB DUP3 GT PUSH2 0x129A JUMPI PUSH2 0x142C DUP3 PUSH2 0x12D1 DUP9 SLOAD PUSH2 0x2868 JUMP JUMPDEST PUSH1 0x20 SWAP1 PUSH1 0x1F DUP4 GT PUSH1 0x1 EQ PUSH2 0x1478 JUMPI SWAP3 DUP3 PUSH1 0x1 SWAP5 SWAP4 PUSH1 0x20 SWAP4 DUP7 SWAP6 PUSH1 0x0 SWAP3 PUSH2 0x146D JUMPI JUMPDEST POP POP PUSH1 0x0 NOT PUSH1 0x3 DUP4 SWAP1 SHL SHR NOT AND SWAP1 DUP5 SHL OR DUP8 SSTORE JUMPDEST ADD SWAP5 ADD SWAP2 ADD SWAP1 SWAP3 PUSH2 0x11C9 JUMP JUMPDEST ADD MLOAD SWAP1 POP DUP14 DUP1 PUSH2 0x144D JUMP JUMPDEST SWAP1 DUP7 PUSH1 0x0 MSTORE PUSH1 0x20 PUSH1 0x0 KECCAK256 SWAP2 PUSH1 0x0 JUMPDEST PUSH1 0x1F NOT DUP6 AND DUP2 LT PUSH2 0x14D0 JUMPI POP DUP4 PUSH1 0x20 SWAP4 PUSH1 0x1 SWAP7 SWAP4 DUP8 SWAP7 SWAP4 DUP8 SWAP5 PUSH1 0x1F NOT DUP2 AND LT PUSH2 0x14B7 JUMPI JUMPDEST POP POP POP DUP2 SHL ADD DUP8 SSTORE PUSH2 0x1461 JUMP JUMPDEST ADD MLOAD PUSH1 0x0 NOT PUSH1 0xF8 DUP5 PUSH1 0x3 SHL AND SHR NOT AND SWAP1 SSTORE DUP14 DUP1 DUP1 PUSH2 0x14AA JUMP JUMPDEST SWAP2 SWAP3 PUSH1 0x20 PUSH1 0x1 DUP2 SWAP3 DUP7 DUP6 ADD MLOAD DUP2 SSTORE ADD SWAP5 ADD SWAP3 ADD PUSH2 0x1486 JUMP JUMPDEST ADD MLOAD SWAP1 POP DUP7 DUP1 PUSH2 0x113D JUMP JUMPDEST SWAP3 POP PUSH1 0x1 DUP6 ADD PUSH1 0x0 MSTORE PUSH1 0x20 PUSH1 0x0 KECCAK256 SWAP1 PUSH1 0x0 SWAP4 JUMPDEST PUSH1 0x1F NOT DUP5 AND DUP6 LT PUSH2 0x154A JUMPI PUSH1 0x1 SWAP5 POP DUP4 PUSH1 0x1F NOT DUP2 AND LT PUSH2 0x1531 JUMPI JUMPDEST POP POP POP DUP2 SHL ADD PUSH1 0x1 DUP4 ADD SSTORE PUSH2 0x1155 JUMP JUMPDEST ADD MLOAD PUSH1 0x0 NOT PUSH1 0xF8 DUP5 PUSH1 0x3 SHL AND SHR NOT AND SWAP1 SSTORE DUP7 DUP1 DUP1 PUSH2 0x1521 JUMP JUMPDEST DUP2 DUP2 ADD MLOAD DUP4 SSTORE PUSH1 0x20 SWAP5 DUP6 ADD SWAP5 PUSH1 0x1 SWAP1 SWAP4 ADD SWAP3 SWAP1 SWAP2 ADD SWAP1 PUSH2 0x1506 JUMP JUMPDEST ADD MLOAD SWAP1 POP DUP7 DUP1 PUSH2 0x10E0 JUMP JUMPDEST SWAP3 POP DUP5 PUSH1 0x0 MSTORE PUSH1 0x20 PUSH1 0x0 KECCAK256 SWAP1 PUSH1 0x0 SWAP4 JUMPDEST PUSH1 0x1F NOT DUP5 AND DUP6 LT PUSH2 0x15C1 JUMPI PUSH1 0x1 SWAP5 POP DUP4 PUSH1 0x1F NOT DUP2 AND LT PUSH2 0x15A8 JUMPI JUMPDEST POP POP POP DUP2 SHL ADD DUP3 SSTORE PUSH2 0x10F5 JUMP JUMPDEST ADD MLOAD PUSH1 0x0 NOT PUSH1 0xF8 DUP5 PUSH1 0x3 SHL AND SHR NOT AND SWAP1 SSTORE DUP7 DUP1 DUP1 PUSH2 0x159B JUMP JUMPDEST DUP2 DUP2 ADD MLOAD DUP4 SSTORE PUSH1 0x20 SWAP5 DUP6 ADD SWAP5 PUSH1 0x1 SWAP1 SWAP4 ADD SWAP3 SWAP1 SWAP2 ADD SWAP1 PUSH2 0x1580 JUMP JUMPDEST SWAP2 SWAP4 POP SWAP2 PUSH1 0x20 DUP1 PUSH2 0x15F9 PUSH1 0x1 SWAP4 PUSH1 0x5F NOT DUP11 DUP3 SUB ADD DUP7 MSTORE DUP9 MLOAD PUSH2 0x27CE JUMP JUMPDEST SWAP7 ADD SWAP3 ADD SWAP3 ADD DUP6 SWAP4 SWAP2 SWAP5 SWAP3 PUSH2 0xFA9 JUMP JUMPDEST PUSH1 0x40 MLOAD PUSH3 0x461BCD PUSH1 0xE5 SHL DUP2 MSTORE PUSH1 0x20 PUSH1 0x4 DUP3 ADD MSTORE PUSH1 0x1F PUSH1 0x24 DUP3 ADD MSTORE PUSH32 0x4669656C64206E616D657320616E642076616C756573206D69736D6174636800 PUSH1 0x44 DUP3 ADD MSTORE PUSH1 0x64 SWAP1 REVERT JUMPDEST POP PUSH1 0x0 SLOAD PUSH1 0x1 PUSH1 0x1 PUSH1 0xA0 SHL SUB AND CALLER EQ PUSH2 0xF16 JUMP JUMPDEST POP PUSH1 0x8 PUSH1 0x20 MSTORE PUSH1 0xFF PUSH1 0x40 PUSH1 0x0 KECCAK256 SLOAD AND PUSH2 0xF0F JUMP JUMPDEST POP PUSH1 0x9 PUSH1 0x20 MSTORE PUSH1 0xFF PUSH1 0x40 PUSH1 0x0 KECCAK256 SLOAD AND PUSH2 0xF08 JUMP JUMPDEST DUP3 CALLDATALOAD SWAP1 PUSH1 0x1 PUSH1 0x1 PUSH1 0x40 SHL SUB DUP3 GT PUSH2 0x265 JUMPI CALLDATASIZE PUSH1 0x43 DUP4 PUSH1 0x64 CALLDATALOAD ADD ADD SLT ISZERO PUSH2 0x265 JUMPI PUSH1 0x24 SWAP2 PUSH1 0x20 SWAP2 DUP3 SWAP2 PUSH2 0x16C9 SWAP1 CALLDATASIZE SWAP1 PUSH1 0x64 CALLDATALOAD ADD DUP1 DUP8 ADD CALLDATALOAD SWAP1 PUSH1 0x44 ADD PUSH2 0x238B JUMP JUMPDEST DUP2 MSTORE ADD SWAP4 ADD SWAP3 SWAP1 POP PUSH2 0xEDB JUMP JUMPDEST CALLVALUE PUSH2 0x265 JUMPI PUSH1 0x20 PUSH2 0x1739 PUSH2 0x16E9 CALLDATASIZE PUSH2 0x2938 JUMP JUMPDEST SWAP3 SWAP1 PUSH1 0x60 PUSH1 0xE0 PUSH1 0x40 MLOAD PUSH2 0x16FB DUP2 PUSH2 0x2317 JUMP JUMPDEST DUP3 DUP2 MSTORE DUP3 DUP6 DUP3 ADD MSTORE PUSH1 0x0 PUSH1 0x40 DUP3 ADD MSTORE PUSH1 0x0 DUP4 DUP3 ADD MSTORE PUSH1 0x0 PUSH1 0x80 DUP3 ADD MSTORE PUSH1 0x0 PUSH1 0xA0 DUP3 ADD MSTORE DUP3 PUSH1 0xC0 DUP3 ADD MSTORE ADD MSTORE DUP2 PUSH1 0x40 MLOAD SWAP4 DUP3 DUP6 DUP1 SWAP5 MLOAD SWAP4 DUP5 SWAP3 ADD PUSH2 0x27AB JUMP JUMPDEST DUP2 ADD PUSH1 0x6 DUP2 MSTORE SUB ADD SWAP1 KECCAK256 SWAP1 PUSH1 0x0 MSTORE PUSH1 0x20 MSTORE PUSH1 0x40 PUSH1 0x0 KECCAK256 PUSH1 0x6 PUSH1 0x40 MLOAD SWAP2 PUSH2 0x175E DUP4 PUSH2 0x2317 JUMP JUMPDEST PUSH1 0x40 MLOAD PUSH2 0x176F DUP2 PUSH2 0x5F7 DUP2 DUP6 PUSH2 0x28A2 JUMP JUMPDEST DUP4 MSTORE PUSH1 0x40 MLOAD PUSH2 0x1785 DUP2 PUSH2 0x5F7 DUP2 PUSH1 0x1 DUP7 ADD PUSH2 0x28A2 JUMP JUMPDEST PUSH1 0x20 DUP5 ADD MSTORE PUSH1 0x2 DUP2 ADD SLOAD PUSH1 0x40 DUP5 ADD MSTORE PUSH1 0x3 DUP2 ADD SLOAD PUSH1 0x60 DUP5 ADD MSTORE PUSH1 0x4 DUP2 ADD SLOAD PUSH1 0x1 PUSH1 0x1 PUSH1 0xA0 SHL SUB DUP2 AND PUSH1 0x80 DUP6 ADD MSTORE PUSH1 0xA0 SWAP1 DUP2 SHR PUSH1 0xFF AND ISZERO ISZERO SWAP1 DUP5 ADD MSTORE PUSH2 0x17CC PUSH1 0x5 DUP3 ADD PUSH2 0x3C79 JUMP JUMPDEST PUSH1 0xC0 DUP5 ADD MSTORE ADD DUP1 SLOAD PUSH2 0x17DD DUP2 PUSH2 0x2455 JUMP JUMPDEST SWAP2 PUSH2 0x17EB PUSH1 0x40 MLOAD SWAP4 DUP5 PUSH2 0x236A JUMP JUMPDEST DUP2 DUP4 MSTORE PUSH1 0x20 DUP4 ADD SWAP1 PUSH1 0x0 MSTORE PUSH1 0x20 PUSH1 0x0 KECCAK256 PUSH1 0x0 SWAP2 JUMPDEST DUP4 DUP4 LT PUSH2 0x18FC JUMPI DUP6 DUP6 PUSH1 0xE0 DUP3 ADD MSTORE PUSH1 0x40 MLOAD DUP1 SWAP2 PUSH1 0x20 DUP3 MSTORE PUSH2 0x182E DUP2 MLOAD PUSH2 0x100 PUSH1 0x20 DUP6 ADD MSTORE PUSH2 0x120 DUP5 ADD SWAP1 PUSH2 0x27CE JUMP JUMPDEST PUSH1 0xE0 PUSH2 0x1894 PUSH2 0x184F PUSH1 0x20 DUP6 ADD MLOAD SWAP4 PUSH1 0x1F NOT SWAP5 DUP6 DUP9 DUP4 SUB ADD PUSH1 0x40 DUP10 ADD MSTORE PUSH2 0x27CE JUMP JUMPDEST PUSH1 0x40 DUP6 ADD MLOAD PUSH1 0x60 DUP8 ADD MSTORE PUSH1 0x60 DUP6 ADD MLOAD PUSH1 0x80 DUP8 ADD MSTORE PUSH1 0x1 DUP1 PUSH1 0xA0 SHL SUB PUSH1 0x80 DUP7 ADD MLOAD AND PUSH1 0xA0 DUP8 ADD MSTORE PUSH1 0xA0 DUP6 ADD MLOAD ISZERO ISZERO PUSH1 0xC0 DUP8 ADD MSTORE PUSH1 0xC0 DUP6 ADD MLOAD DUP5 DUP8 DUP4 SUB ADD DUP5 DUP9 ADD MSTORE PUSH2 0x27F3 JUMP JUMPDEST SWAP3 ADD MLOAD SWAP2 DUP2 DUP5 DUP3 SUB ADD PUSH2 0x100 DUP6 ADD MSTORE DUP3 MLOAD SWAP1 DUP2 DUP2 MSTORE PUSH1 0x20 DUP2 ADD PUSH1 0x20 DUP1 DUP5 PUSH1 0x5 SHL DUP5 ADD ADD SWAP6 ADD SWAP4 PUSH1 0x0 SWAP3 JUMPDEST DUP5 DUP5 LT PUSH2 0x18CB JUMPI DUP8 DUP8 SUB DUP9 RETURN JUMPDEST SWAP2 SWAP4 SWAP6 DUP2 SWAP4 SWAP6 SWAP8 POP PUSH1 0x20 PUSH2 0x18EA DUP3 PUSH1 0x1 SWAP5 DUP7 DUP5 SWAP6 SUB ADD DUP9 MSTORE DUP11 MLOAD PUSH2 0x27CE JUMP JUMPDEST SWAP9 ADD SWAP5 ADD SWAP5 ADD SWAP2 DUP8 SWAP7 SWAP6 SWAP4 SWAP5 SWAP2 PUSH2 0x18BE JUMP JUMPDEST PUSH1 0x1 PUSH1 0x20 DUP2 SWAP3 PUSH1 0x40 MLOAD PUSH2 0x1913 DUP2 PUSH2 0x5F7 DUP2 DUP10 PUSH2 0x28A2 JUMP JUMPDEST DUP2 MSTORE ADD SWAP3 ADD SWAP3 ADD SWAP2 SWAP1 PUSH2 0x17FF JUMP JUMPDEST CALLVALUE PUSH2 0x265 JUMPI PUSH1 0x0 CALLDATASIZE PUSH1 0x3 NOT ADD SLT PUSH2 0x265 JUMPI PUSH1 0x0 SLOAD PUSH1 0x40 MLOAD PUSH1 0x1 PUSH1 0x1 PUSH1 0xA0 SHL SUB SWAP1 SWAP2 AND DUP2 MSTORE PUSH1 0x20 SWAP1 RETURN JUMPDEST CALLVALUE PUSH2 0x265 JUMPI PUSH1 0x20 CALLDATASIZE PUSH1 0x3 NOT ADD SLT PUSH2 0x265 JUMPI PUSH1 0x4 CALLDATALOAD PUSH1 0x1 PUSH1 0x1 PUSH1 0xA0 SHL SUB DUP2 DUP2 AND SWAP2 DUP3 SWAP1 SUB PUSH2 0x265 JUMPI PUSH2 0x1994 SWAP1 CALLER PUSH1 0x0 MSTORE PUSH1 0x8 PUSH1 0x20 MSTORE PUSH1 0xFF PUSH1 0x40 PUSH1 0x0 KECCAK256 SLOAD AND SWAP1 DUP2 ISZERO PUSH2 0x2CD JUMPI POP PUSH2 0x2A64 JUMP JUMPDEST PUSH1 0x0 SWAP1 DUP2 MSTORE PUSH1 0x9 PUSH1 0x20 MSTORE PUSH1 0x40 SWAP1 KECCAK256 DUP1 SLOAD PUSH1 0xFF NOT AND SWAP1 SSTORE STOP JUMPDEST CALLVALUE PUSH2 0x265 JUMPI PUSH1 0x20 CALLDATASIZE PUSH1 0x3 NOT ADD SLT PUSH2 0x265 JUMPI PUSH1 0x4 CALLDATALOAD PUSH1 0x1 PUSH1 0x1 PUSH1 0x40 SHL SUB DUP2 GT PUSH2 0x265 JUMPI PUSH2 0x19E2 PUSH1 0x20 PUSH2 0xB81 DUP2 SWAP4 CALLDATASIZE SWAP1 PUSH1 0x4 ADD PUSH2 0x23D1 JUMP JUMPDEST DUP2 ADD PUSH1 0xD DUP2 MSTORE SUB ADD SWAP1 KECCAK256 SLOAD PUSH1 0x40 MLOAD SWAP1 DUP2 MSTORE RETURN JUMPDEST CALLVALUE PUSH2 0x265 JUMPI PUSH1 0x20 CALLDATASIZE PUSH1 0x3 NOT ADD SLT PUSH2 0x265 JUMPI PUSH1 0x4 CALLDATALOAD PUSH1 0x1 PUSH1 0x1 PUSH1 0xA0 SHL SUB DUP2 AND SWAP1 DUP2 SWAP1 SUB PUSH2 0x265 JUMPI PUSH1 0x0 MSTORE PUSH1 0xA PUSH1 0x20 MSTORE PUSH1 0x20 PUSH1 0xFF PUSH1 0x40 PUSH1 0x0 KECCAK256 SLOAD AND PUSH1 0x40 MLOAD SWAP1 ISZERO ISZERO DUP2 MSTORE RETURN JUMPDEST CALLVALUE PUSH2 0x265 JUMPI PUSH1 0x20 CALLDATASIZE PUSH1 0x3 NOT ADD SLT PUSH2 0x265 JUMPI PUSH1 0x4 CALLDATALOAD PUSH1 0x1 PUSH1 0x1 PUSH1 0xA0 SHL SUB DUP2 AND SWAP1 DUP2 SWAP1 SUB PUSH2 0x265 JUMPI PUSH1 0x0 MSTORE PUSH1 0x8 PUSH1 0x20 MSTORE PUSH1 0x20 PUSH1 0xFF PUSH1 0x40 PUSH1 0x0 KECCAK256 SLOAD AND PUSH1 0x40 MLOAD SWAP1 ISZERO ISZERO DUP2 MSTORE RETURN JUMPDEST CALLVALUE PUSH2 0x265 JUMPI PUSH1 0x0 CALLDATASIZE PUSH1 0x3 NOT ADD SLT PUSH2 0x265 JUMPI PUSH2 0x1A94 PUSH2 0x2A0C JUMP JUMPDEST PUSH1 0x0 DUP1 SLOAD PUSH1 0x1 PUSH1 0x1 PUSH1 0xA0 SHL SUB NOT DUP2 AND DUP3 SSTORE PUSH1 0x1 PUSH1 0x1 PUSH1 0xA0 SHL SUB AND PUSH32 0x8BE0079C531659141344CD1FD0A4F28419497F9722A3DAAFE3B4186F6B6457E0 DUP3 DUP1 LOG3 STOP JUMPDEST CALLVALUE PUSH2 0x265 JUMPI PUSH1 0x20 CALLDATASIZE PUSH1 0x3 NOT ADD SLT PUSH2 0x265 JUMPI PUSH1 0x4 CALLDATALOAD PUSH1 0x1 PUSH1 0x1 PUSH1 0xA0 SHL SUB DUP2 DUP2 AND SWAP2 DUP3 SWAP1 SUB PUSH2 0x265 JUMPI PUSH2 0x1B03 PUSH2 0x2A0C JUMP JUMPDEST PUSH1 0x0 SLOAD AND DUP2 EQ PUSH2 0x1B25 JUMPI PUSH1 0x0 SWAP1 DUP2 MSTORE PUSH1 0x8 PUSH1 0x20 MSTORE PUSH1 0x40 SWAP1 KECCAK256 DUP1 SLOAD PUSH1 0xFF NOT AND SWAP1 SSTORE STOP JUMPDEST PUSH1 0x40 MLOAD PUSH3 0x461BCD PUSH1 0xE5 SHL DUP2 MSTORE PUSH1 0x20 PUSH1 0x4 DUP3 ADD MSTORE PUSH1 0x13 PUSH1 0x24 DUP3 ADD MSTORE PUSH19 0x21B0B73737BA103932B6B7BB329037BBB732B9 PUSH1 0x69 SHL PUSH1 0x44 DUP3 ADD MSTORE PUSH1 0x64 SWAP1 REVERT JUMPDEST CALLVALUE PUSH2 0x265 JUMPI PUSH1 0x20 CALLDATASIZE PUSH1 0x3 NOT ADD SLT PUSH2 0x265 JUMPI PUSH1 0x4 CALLDATALOAD PUSH1 0x1 PUSH1 0x1 PUSH1 0x40 SHL SUB DUP2 GT PUSH2 0x265 JUMPI PUSH2 0x1B90 SWAP1 CALLDATASIZE SWAP1 PUSH1 0x4 ADD PUSH2 0x23D1 JUMP JUMPDEST PUSH1 0x6 PUSH2 0x1BC8 PUSH1 0x20 PUSH1 0x40 MLOAD SWAP4 DUP1 MLOAD SWAP1 PUSH2 0x5BE PUSH1 0xFF DUP5 DUP4 ADD SWAP4 PUSH2 0x1BB2 DUP2 DUP11 DUP8 PUSH2 0x27AB JUMP JUMPDEST DUP9 ADD SWAP8 DUP6 DUP2 PUSH1 0x3 SWAP11 DUP12 DUP2 MSTORE SUB ADD SWAP1 KECCAK256 SLOAD AND PUSH2 0x3B9D JUMP JUMPDEST DUP2 ADD PUSH1 0x2 DUP2 MSTORE SUB ADD SWAP1 KECCAK256 ADD DUP1 SLOAD SWAP1 PUSH2 0x1BDF DUP3 PUSH2 0x430D JUMP JUMPDEST SWAP2 PUSH2 0x1BE9 DUP2 PUSH2 0x430D JUMP JUMPDEST SWAP2 PUSH1 0x0 JUMPDEST DUP3 DUP2 LT PUSH2 0x1C1E JUMPI PUSH2 0x1C10 DUP6 PUSH2 0x894 DUP7 PUSH1 0x40 MLOAD SWAP4 DUP5 SWAP4 PUSH1 0x40 DUP6 MSTORE PUSH1 0x40 DUP6 ADD SWAP1 PUSH2 0x27F3 JUMP JUMPDEST SWAP1 DUP4 DUP3 SUB PUSH1 0x20 DUP6 ADD MSTORE PUSH2 0x27F3 JUMP JUMPDEST DUP1 PUSH2 0x5F7 PUSH2 0x1C3F PUSH2 0x1C32 PUSH2 0x1C8F SWAP5 DUP7 PUSH2 0x4357 JUMP JUMPDEST POP PUSH1 0x40 MLOAD SWAP3 DUP4 DUP1 SWAP3 PUSH2 0x28A2 JUMP JUMPDEST PUSH2 0x1C49 DUP3 DUP9 PUSH2 0x44BD JUMP JUMPDEST MSTORE PUSH2 0x1C54 DUP2 DUP8 PUSH2 0x44BD JUMP JUMPDEST POP DUP7 PUSH2 0x1C74 PUSH2 0x1C63 DUP4 DUP7 PUSH2 0x4357 JUMP JUMPDEST POP PUSH2 0x5F7 PUSH1 0x40 MLOAD DUP1 SWAP5 DUP2 SWAP4 ADD PUSH2 0x28A2 JUMP JUMPDEST PUSH2 0x1C7E DUP3 DUP8 PUSH2 0x44BD JUMP JUMPDEST MSTORE PUSH2 0x1C89 DUP2 DUP7 PUSH2 0x44BD JUMP JUMPDEST POP PUSH2 0x2C80 JUMP JUMPDEST PUSH2 0x1BED JUMP JUMPDEST CALLVALUE PUSH2 0x265 JUMPI PUSH1 0x0 CALLDATASIZE PUSH1 0x3 NOT ADD SLT PUSH2 0x265 JUMPI PUSH2 0x98A PUSH2 0x2A0C JUMP JUMPDEST CALLVALUE PUSH2 0x265 JUMPI PUSH1 0x20 CALLDATASIZE PUSH1 0x3 NOT ADD SLT PUSH2 0x265 JUMPI PUSH1 0x4 CALLDATALOAD PUSH1 0x1 PUSH1 0x1 PUSH1 0xA0 SHL SUB DUP2 DUP2 AND SWAP2 DUP3 SWAP1 SUB PUSH2 0x265 JUMPI PUSH2 0x1CF7 SWAP1 CALLER PUSH1 0x0 MSTORE PUSH1 0x8 PUSH1 0x20 MSTORE PUSH1 0xFF PUSH1 0x40 PUSH1 0x0 KECCAK256 SLOAD AND SWAP1 DUP2 ISZERO PUSH2 0x2CD JUMPI POP PUSH2 0x2A64 JUMP JUMPDEST PUSH1 0x0 SWAP1 DUP2 MSTORE PUSH1 0xA PUSH1 0x20 MSTORE PUSH1 0x40 SWAP1 KECCAK256 DUP1 SLOAD PUSH1 0xFF NOT AND PUSH1 0x1 OR SWAP1 SSTORE STOP JUMPDEST CALLVALUE PUSH2 0x265 JUMPI PUSH1 0x20 CALLDATASIZE PUSH1 0x3 NOT ADD SLT PUSH2 0x265 JUMPI PUSH1 0x4 CALLDATALOAD PUSH1 0x1 PUSH1 0x1 PUSH1 0x40 SHL SUB DUP2 GT PUSH2 0x265 JUMPI PUSH2 0x1D42 SWAP1 CALLDATASIZE SWAP1 PUSH1 0x4 ADD PUSH2 0x23D1 JUMP JUMPDEST PUSH1 0x40 MLOAD DUP2 DUP2 DUP1 SWAP4 MLOAD PUSH1 0x20 DUP2 SWAP4 ADD SWAP2 PUSH2 0x1D59 SWAP3 PUSH2 0x27AB JUMP JUMPDEST DUP2 ADD PUSH1 0x2 DUP2 MSTORE SUB PUSH1 0x20 ADD SWAP1 KECCAK256 PUSH1 0x40 MLOAD DUP1 PUSH2 0x1D73 DUP2 DUP5 PUSH2 0x28A2 JUMP JUMPDEST SUB PUSH2 0x1D7E SWAP1 DUP3 PUSH2 0x236A JUMP JUMPDEST PUSH1 0x1 DUP3 ADD SLOAD PUSH1 0xFF AND SWAP2 PUSH1 0x40 MLOAD DUP1 DUP1 PUSH1 0x2 DUP5 ADD SWAP1 PUSH2 0x1D9A SWAP2 PUSH2 0x28A2 JUMP JUMPDEST SUB PUSH2 0x1DA5 SWAP1 DUP3 PUSH2 0x236A JUMP JUMPDEST PUSH1 0x40 MLOAD DUP1 PUSH2 0x1DB6 DUP2 PUSH1 0x3 DUP7 ADD PUSH2 0x28A2 JUMP JUMPDEST SUB PUSH2 0x1DC1 SWAP1 DUP3 PUSH2 0x236A JUMP JUMPDEST PUSH1 0x40 MLOAD SWAP1 DUP2 PUSH2 0x1DD3 DUP2 PUSH1 0x4 DUP8 ADD PUSH2 0x28A2 JUMP JUMPDEST SUB PUSH2 0x1DDE SWAP1 DUP4 PUSH2 0x236A JUMP JUMPDEST PUSH1 0x40 MLOAD SWAP2 DUP3 PUSH2 0x1DF0 DUP2 PUSH1 0x5 DUP9 ADD PUSH2 0x28A2 JUMP JUMPDEST SUB PUSH2 0x1DFB SWAP1 DUP5 PUSH2 0x236A JUMP JUMPDEST PUSH1 0x9 DUP6 ADD SLOAD PUSH1 0xFF AND SWAP3 PUSH1 0xA DUP7 ADD SLOAD SWAP2 PUSH1 0xB DUP8 ADD SLOAD SWAP4 PUSH1 0x40 MLOAD SWAP7 DUP8 DUP1 PUSH1 0xC DUP12 ADD SWAP1 PUSH2 0x1E24 SWAP2 PUSH2 0x28A2 JUMP JUMPDEST SUB PUSH2 0x1E2F SWAP1 DUP10 PUSH2 0x236A JUMP JUMPDEST PUSH1 0x40 MLOAD DUP1 PUSH1 0xD DUP2 SWAP12 ADD SWAP1 PUSH2 0x1E42 SWAP2 PUSH2 0x28A2 JUMP JUMPDEST SUB PUSH2 0x1E4D SWAP1 DUP11 PUSH2 0x236A JUMP JUMPDEST PUSH1 0x40 MLOAD SWAP11 DUP12 SWAP11 PUSH2 0x160 DUP1 DUP14 MSTORE DUP13 ADD PUSH2 0x1E64 SWAP2 PUSH2 0x27CE JUMP JUMPDEST SWAP1 PUSH1 0x20 DUP13 ADD PUSH2 0x1E72 SWAP2 PUSH2 0x23EF JUMP JUMPDEST DUP11 DUP2 SUB PUSH1 0x40 DUP13 ADD MSTORE PUSH2 0x1E83 SWAP2 PUSH2 0x27CE JUMP JUMPDEST DUP10 DUP2 SUB PUSH1 0x60 DUP12 ADD MSTORE PUSH2 0x1E94 SWAP2 PUSH2 0x27CE JUMP JUMPDEST DUP9 DUP2 SUB PUSH1 0x80 DUP11 ADD MSTORE PUSH2 0x1EA5 SWAP2 PUSH2 0x27CE JUMP JUMPDEST DUP8 DUP2 SUB PUSH1 0xA0 DUP10 ADD MSTORE PUSH2 0x1EB6 SWAP2 PUSH2 0x27CE JUMP JUMPDEST SWAP3 ISZERO ISZERO PUSH1 0xC0 DUP8 ADD MSTORE PUSH1 0xE0 DUP7 ADD MSTORE PUSH2 0x100 DUP6 ADD MSTORE DUP4 DUP2 SUB PUSH2 0x120 DUP6 ADD MSTORE PUSH2 0x1EDB SWAP2 PUSH2 0x27CE JUMP JUMPDEST DUP3 DUP2 SUB PUSH2 0x140 DUP5 ADD MSTORE PUSH2 0x894 SWAP2 PUSH2 0x27CE JUMP JUMPDEST CALLVALUE PUSH2 0x265 JUMPI PUSH1 0x20 CALLDATASIZE PUSH1 0x3 NOT ADD SLT PUSH2 0x265 JUMPI PUSH1 0x4 CALLDATALOAD PUSH1 0x1 PUSH1 0x1 PUSH1 0x40 SHL SUB DUP2 GT PUSH2 0x265 JUMPI PUSH2 0x1F37 PUSH2 0x1F28 PUSH1 0x20 PUSH2 0xB81 PUSH2 0x894 SWAP5 CALLDATASIZE SWAP1 PUSH1 0x4 ADD PUSH2 0x23D1 JUMP JUMPDEST DUP2 ADD PUSH1 0x5 DUP2 MSTORE SUB ADD SWAP1 KECCAK256 PUSH2 0x3C79 JUMP JUMPDEST PUSH1 0x40 MLOAD SWAP2 DUP3 SWAP2 PUSH1 0x20 DUP4 MSTORE PUSH1 0x20 DUP4 ADD SWAP1 PUSH2 0x27F3 JUMP JUMPDEST CALLVALUE PUSH2 0x265 JUMPI PUSH1 0x20 CALLDATASIZE PUSH1 0x3 NOT ADD SLT PUSH2 0x265 JUMPI PUSH1 0x4 CALLDATALOAD PUSH1 0x4 DUP2 LT ISZERO PUSH2 0x265 JUMPI PUSH2 0x1F73 PUSH1 0x20 SWAP2 PUSH2 0x284F JUMP JUMPDEST SLOAD PUSH1 0x40 MLOAD SWAP1 DUP2 MSTORE RETURN JUMPDEST CALLVALUE PUSH2 0x265 JUMPI PUSH1 0x20 DUP1 PUSH1 0x3 NOT CALLDATASIZE ADD SLT PUSH2 0x265 JUMPI PUSH1 0x4 CALLDATALOAD PUSH1 0x1 PUSH1 0x1 PUSH1 0x40 SHL SUB DUP2 GT PUSH2 0x265 JUMPI DUP2 PUSH2 0xB81 PUSH2 0x1FB1 SWAP3 CALLDATASIZE SWAP1 PUSH1 0x4 ADD PUSH2 0x23D1 JUMP JUMPDEST DUP2 ADD PUSH1 0x7 DUP2 MSTORE SUB ADD SWAP1 KECCAK256 PUSH1 0x40 MLOAD SWAP1 DUP2 DUP4 DUP3 SLOAD SWAP2 DUP3 DUP2 MSTORE ADD SWAP1 DUP2 SWAP3 PUSH1 0x0 MSTORE DUP5 PUSH1 0x0 KECCAK256 SWAP1 PUSH1 0x0 JUMPDEST DUP7 DUP3 DUP3 LT PUSH2 0x202C JUMPI DUP7 DUP7 PUSH2 0x1FEC DUP3 DUP9 SUB DUP4 PUSH2 0x236A JUMP JUMPDEST PUSH1 0x40 MLOAD SWAP3 DUP4 SWAP3 DUP2 DUP5 ADD SWAP1 DUP3 DUP6 MSTORE MLOAD DUP1 SWAP2 MSTORE PUSH1 0x40 DUP5 ADD SWAP3 SWAP2 PUSH1 0x0 JUMPDEST DUP3 DUP2 LT PUSH2 0x2015 JUMPI POP POP POP POP SUB SWAP1 RETURN JUMPDEST DUP4 MLOAD DUP6 MSTORE DUP7 SWAP6 POP SWAP4 DUP2 ADD SWAP4 SWAP3 DUP2 ADD SWAP3 PUSH1 0x1 ADD PUSH2 0x2006 JUMP JUMPDEST DUP4 SLOAD DUP6 MSTORE SWAP1 SWAP4 ADD SWAP3 PUSH1 0x1 SWAP3 DUP4 ADD SWAP3 ADD PUSH2 0x1FD6 JUMP JUMPDEST CALLVALUE PUSH2 0x265 JUMPI PUSH1 0x20 CALLDATASIZE PUSH1 0x3 NOT ADD SLT PUSH2 0x265 JUMPI PUSH1 0x4 CALLDATALOAD PUSH1 0x4 DUP2 LT ISZERO PUSH2 0x265 JUMPI PUSH2 0x1F37 PUSH2 0x206C PUSH2 0x894 SWAP3 PUSH2 0x284F JUMP JUMPDEST SLOAD PUSH2 0x430D JUMP JUMPDEST CALLVALUE PUSH2 0x265 JUMPI PUSH1 0x0 CALLDATASIZE PUSH1 0x3 NOT ADD SLT PUSH2 0x265 JUMPI PUSH1 0xB SLOAD PUSH1 0xC PUSH1 0x20 SWAP1 DUP2 MSTORE PUSH32 0x13649B2456F1B42FEF0F0040B3AAEABCD21A76A0F3F5DEFD4F583839455116E8 SLOAD PUSH32 0xD421A5181C571BBA3F01190C922C3B2A896FC1D84E86C9F17AC10E67EBEF8B5C SLOAD PUSH32 0x5D6016397A73F5E079297AC5A36FEF17B4D9C3831618E63AB105738020DDD720 SLOAD PUSH1 0x3 PUSH1 0x0 MSTORE PUSH32 0xC0DA782485E77AE272268AE0A3FF44C1552ECB60B3743924DE17A815E0A3CFD7 SLOAD PUSH1 0x40 DUP1 MLOAD SWAP7 DUP8 MSTORE SWAP5 DUP7 ADD SWAP4 SWAP1 SWAP4 MSTORE SWAP3 DUP5 ADD MSTORE PUSH1 0x60 DUP4 ADD SWAP2 SWAP1 SWAP2 MSTORE PUSH1 0x80 DUP3 ADD MSTORE PUSH1 0xA0 SWAP1 RETURN JUMPDEST CALLVALUE PUSH2 0x265 JUMPI PUSH2 0x98A PUSH2 0x214F CALLDATASIZE PUSH2 0x24EC JUMP JUMPDEST SWAP10 SWAP9 SWAP1 SWAP9 SWAP8 SWAP2 SWAP8 SWAP7 SWAP3 SWAP7 SWAP6 SWAP4 SWAP6 CALLER PUSH1 0x0 MSTORE PUSH1 0x8 PUSH1 0x20 MSTORE PUSH1 0xFF PUSH1 0x40 PUSH1 0x0 KECCAK256 SLOAD AND DUP1 ISZERO PUSH2 0x2198 JUMPI JUMPDEST PUSH2 0x217E SWAP1 PUSH2 0x2A64 JUMP JUMPDEST PUSH2 0x985 PUSH1 0xFF PUSH1 0x40 MLOAD PUSH1 0x20 DUP2 DUP6 MLOAD PUSH2 0x943 DUP2 DUP4 DUP6 DUP11 ADD PUSH2 0x27AB JUMP JUMPDEST POP PUSH1 0x0 SLOAD PUSH1 0x1 PUSH1 0x1 PUSH1 0xA0 SHL SUB AND CALLER EQ PUSH2 0x2175 JUMP JUMPDEST CALLVALUE PUSH2 0x265 JUMPI PUSH1 0x20 CALLDATASIZE PUSH1 0x3 NOT ADD SLT PUSH2 0x265 JUMPI PUSH1 0x4 CALLDATALOAD PUSH1 0x1 PUSH1 0x1 PUSH1 0xA0 SHL SUB DUP2 DUP2 AND SWAP2 DUP3 SWAP1 SUB PUSH2 0x265 JUMPI DUP2 PUSH1 0x20 SWAP3 PUSH1 0x0 MSTORE PUSH1 0xA DUP4 MSTORE PUSH1 0xFF PUSH1 0x40 PUSH1 0x0 KECCAK256 SLOAD AND SWAP2 DUP3 ISZERO PUSH2 0x222A JUMPI JUMPDEST DUP3 ISZERO PUSH2 0x2216 JUMPI JUMPDEST DUP3 ISZERO PUSH2 0x2208 JUMPI POP POP PUSH1 0x40 MLOAD SWAP1 ISZERO ISZERO DUP2 MSTORE RETURN JUMPDEST PUSH1 0x0 SLOAD AND EQ SWAP1 POP DUP3 DUP1 PUSH2 0x237 JUMP JUMPDEST PUSH1 0x8 DUP5 MSTORE PUSH1 0x40 PUSH1 0x0 KECCAK256 SLOAD PUSH1 0xFF AND SWAP3 POP PUSH2 0x21F6 JUMP JUMPDEST PUSH1 0x9 DUP5 MSTORE PUSH1 0x40 PUSH1 0x0 KECCAK256 SLOAD PUSH1 0xFF AND SWAP3 POP PUSH2 0x21EF JUMP JUMPDEST CALLVALUE PUSH2 0x265 JUMPI PUSH1 0x20 PUSH2 0x2270 PUSH2 0x2251 CALLDATASIZE PUSH2 0x2412 JUMP JUMPDEST SWAP1 PUSH2 0x226B PUSH1 0xFF PUSH1 0x40 MLOAD DUP7 DUP2 DUP6 MLOAD PUSH2 0x5AD DUP2 DUP4 DUP6 DUP11 ADD PUSH2 0x27AB JUMP JUMPDEST PUSH2 0x4436 JUMP JUMPDEST PUSH1 0x40 MLOAD SWAP1 ISZERO ISZERO DUP2 MSTORE RETURN JUMPDEST CALLVALUE PUSH2 0x265 JUMPI PUSH1 0x20 CALLDATASIZE PUSH1 0x3 NOT ADD SLT PUSH2 0x265 JUMPI PUSH1 0x4 CALLDATALOAD PUSH1 0x1 PUSH1 0x1 PUSH1 0xA0 SHL SUB DUP2 AND SWAP1 DUP2 SWAP1 SUB PUSH2 0x265 JUMPI PUSH1 0x0 MSTORE PUSH1 0x9 PUSH1 0x20 MSTORE PUSH1 0x20 PUSH1 0xFF PUSH1 0x40 PUSH1 0x0 KECCAK256 SLOAD AND PUSH1 0x40 MLOAD SWAP1 ISZERO ISZERO DUP2 MSTORE RETURN JUMPDEST CALLVALUE PUSH2 0x265 JUMPI PUSH1 0x20 CALLDATASIZE PUSH1 0x3 NOT ADD SLT PUSH2 0x265 JUMPI PUSH1 0x4 CALLDATALOAD PUSH1 0x1 PUSH1 0x1 PUSH1 0xA0 SHL SUB DUP2 DUP2 AND SWAP3 SWAP2 DUP4 SWAP1 SUB PUSH2 0x265 JUMPI DUP3 PUSH1 0x20 SWAP4 PUSH1 0x0 MSTORE PUSH1 0x8 DUP5 MSTORE PUSH1 0xFF PUSH1 0x40 PUSH1 0x0 KECCAK256 SLOAD AND SWAP2 DUP3 ISZERO PUSH2 0x2309 JUMPI JUMPDEST POP POP ISZERO ISZERO DUP2 MSTORE RETURN JUMPDEST PUSH1 0x0 SLOAD AND EQ SWAP1 POP DUP4 DUP1 PUSH2 0x2301 JUMP JUMPDEST PUSH2 0x100 DUP2 ADD SWAP1 DUP2 LT PUSH1 0x1 PUSH1 0x1 PUSH1 0x40 SHL SUB DUP3 GT OR PUSH2 0x129A JUMPI PUSH1 0x40 MSTORE JUMP JUMPDEST PUSH1 0xC0 DUP2 ADD SWAP1 DUP2 LT PUSH1 0x1 PUSH1 0x1 PUSH1 0x40 SHL SUB DUP3 GT OR PUSH2 0x129A JUMPI PUSH1 0x40 MSTORE JUMP JUMPDEST PUSH2 0x1C0 DUP2 ADD SWAP1 DUP2 LT PUSH1 0x1 PUSH1 0x1 PUSH1 0x40 SHL SUB DUP3 GT OR PUSH2 0x129A JUMPI PUSH1 0x40 MSTORE JUMP JUMPDEST SWAP1 PUSH1 0x1F DUP1 NOT SWAP2 ADD AND DUP2 ADD SWAP1 DUP2 LT PUSH1 0x1 PUSH1 0x1 PUSH1 0x40 SHL SUB DUP3 GT OR PUSH2 0x129A JUMPI PUSH1 0x40 MSTORE JUMP JUMPDEST SWAP3 SWAP2 SWAP3 PUSH1 0x1 PUSH1 0x1 PUSH1 0x40 SHL SUB DUP3 GT PUSH2 0x129A JUMPI PUSH1 0x40 MLOAD SWAP2 PUSH2 0x23B4 PUSH1 0x1F DUP3 ADD PUSH1 0x1F NOT AND PUSH1 0x20 ADD DUP5 PUSH2 0x236A JUMP JUMPDEST DUP3 SWAP5 DUP2 DUP5 MSTORE DUP2 DUP4 ADD GT PUSH2 0x265 JUMPI DUP3 DUP2 PUSH1 0x20 SWAP4 DUP5 PUSH1 0x0 SWAP7 ADD CALLDATACOPY ADD ADD MSTORE JUMP JUMPDEST SWAP1 DUP1 PUSH1 0x1F DUP4 ADD SLT ISZERO PUSH2 0x265 JUMPI DUP2 PUSH1 0x20 PUSH2 0x23EC SWAP4 CALLDATALOAD SWAP2 ADD PUSH2 0x238B JUMP JUMPDEST SWAP1 JUMP JUMPDEST SWAP1 PUSH1 0x4 DUP3 LT ISZERO PUSH2 0x23FC JUMPI MSTORE JUMP JUMPDEST PUSH4 0x4E487B71 PUSH1 0xE0 SHL PUSH1 0x0 MSTORE PUSH1 0x21 PUSH1 0x4 MSTORE PUSH1 0x24 PUSH1 0x0 REVERT JUMPDEST SWAP1 PUSH1 0x40 PUSH1 0x3 NOT DUP4 ADD SLT PUSH2 0x265 JUMPI PUSH1 0x1 PUSH1 0x1 PUSH1 0x40 SHL SUB PUSH1 0x4 CALLDATALOAD DUP2 DUP2 GT PUSH2 0x265 JUMPI DUP4 PUSH2 0x243E SWAP2 PUSH1 0x4 ADD PUSH2 0x23D1 JUMP JUMPDEST SWAP3 PUSH1 0x24 CALLDATALOAD SWAP2 DUP3 GT PUSH2 0x265 JUMPI PUSH2 0x23EC SWAP2 PUSH1 0x4 ADD PUSH2 0x23D1 JUMP JUMPDEST PUSH1 0x1 PUSH1 0x1 PUSH1 0x40 SHL SUB DUP2 GT PUSH2 0x129A JUMPI PUSH1 0x5 SHL PUSH1 0x20 ADD SWAP1 JUMP JUMPDEST SWAP1 DUP1 PUSH1 0x1F DUP4 ADD SLT ISZERO PUSH2 0x265 JUMPI DUP2 CALLDATALOAD SWAP1 PUSH2 0x2484 DUP3 PUSH2 0x2455 JUMP JUMPDEST SWAP3 PUSH2 0x2492 PUSH1 0x40 MLOAD SWAP5 DUP6 PUSH2 0x236A JUMP JUMPDEST DUP3 DUP5 MSTORE PUSH1 0x20 SWAP3 DUP4 DUP1 DUP7 ADD SWAP2 PUSH1 0x5 SHL DUP4 ADD ADD SWAP3 DUP1 DUP5 GT PUSH2 0x265 JUMPI DUP5 DUP4 ADD SWAP2 JUMPDEST DUP5 DUP4 LT PUSH2 0x24C0 JUMPI POP POP POP POP POP POP SWAP1 JUMP JUMPDEST DUP3 CALLDATALOAD PUSH1 0x1 PUSH1 0x1 PUSH1 0x40 SHL SUB DUP2 GT PUSH2 0x265 JUMPI DUP7 SWAP2 PUSH2 0x24E1 DUP5 DUP5 DUP1 SWAP5 DUP10 ADD ADD PUSH2 0x23D1 JUMP JUMPDEST DUP2 MSTORE ADD SWAP3 ADD SWAP2 PUSH2 0x24B0 JUMP JUMPDEST PUSH2 0x160 PUSH1 0x3 NOT DUP3 ADD SLT PUSH2 0x265 JUMPI PUSH1 0x4 SWAP1 DUP2 CALLDATALOAD PUSH1 0x1 PUSH1 0x1 PUSH1 0x40 SHL SUB DUP2 GT PUSH2 0x265 JUMPI DUP2 PUSH2 0x2518 SWAP2 DUP5 ADD PUSH2 0x23D1 JUMP JUMPDEST SWAP3 PUSH1 0x24 CALLDATALOAD DUP4 DUP2 LT ISZERO PUSH2 0x265 JUMPI SWAP3 PUSH1 0x44 CALLDATALOAD PUSH1 0x1 PUSH1 0x1 PUSH1 0x40 SHL SUB DUP2 GT PUSH2 0x265 JUMPI DUP4 PUSH2 0x2542 SWAP2 DUP4 ADD PUSH2 0x23D1 JUMP JUMPDEST SWAP3 PUSH1 0x64 SWAP1 DUP2 CALLDATALOAD PUSH1 0x1 PUSH1 0x1 PUSH1 0x40 SHL SUB DUP2 GT PUSH2 0x265 JUMPI DUP2 PUSH2 0x2562 SWAP2 DUP6 ADD PUSH2 0x23D1 JUMP JUMPDEST SWAP4 PUSH1 0x84 SWAP4 DUP5 CALLDATALOAD PUSH1 0x1 PUSH1 0x1 PUSH1 0x40 SHL SUB DUP2 GT PUSH2 0x265 JUMPI DUP4 PUSH2 0x2582 SWAP2 DUP4 ADD PUSH2 0x23D1 JUMP JUMPDEST SWAP5 PUSH1 0xA4 DUP1 CALLDATALOAD PUSH1 0x1 PUSH1 0x1 PUSH1 0x40 SHL SUB DUP2 GT PUSH2 0x265 JUMPI DUP6 PUSH2 0x25A1 SWAP2 DUP6 ADD PUSH2 0x23D1 JUMP JUMPDEST SWAP6 PUSH1 0xC4 SWAP2 PUSH1 0x1 PUSH1 0x1 PUSH1 0x40 SHL SUB DUP4 CALLDATALOAD GT PUSH2 0x265 JUMPI DUP7 PUSH1 0x23 DUP5 CALLDATALOAD ADD SLT ISZERO PUSH2 0x265 JUMPI DUP3 CALLDATALOAD DUP6 ADD CALLDATALOAD SWAP2 PUSH2 0x25CF DUP4 PUSH2 0x2455 JUMP JUMPDEST SWAP5 PUSH2 0x25DD PUSH1 0x40 MLOAD SWAP7 DUP8 PUSH2 0x236A JUMP JUMPDEST DUP4 DUP7 MSTORE PUSH1 0x20 DUP7 ADD SWAP3 DUP10 PUSH1 0x24 DUP7 PUSH1 0x5 SHL DUP9 CALLDATALOAD ADD ADD GT PUSH2 0x265 JUMPI PUSH1 0x24 DUP7 CALLDATALOAD ADD SWAP4 JUMPDEST PUSH1 0x24 DUP7 PUSH1 0x5 SHL DUP9 CALLDATALOAD ADD ADD DUP6 LT PUSH2 0x268C JUMPI POP POP POP POP POP POP POP SWAP3 PUSH1 0xE4 CALLDATALOAD PUSH1 0x1 PUSH1 0x1 PUSH1 0x40 SHL SUB DUP2 GT PUSH2 0x265 JUMPI DUP2 PUSH2 0x2631 SWAP2 DUP5 ADD PUSH2 0x246C JUMP JUMPDEST SWAP3 PUSH2 0x104 CALLDATALOAD PUSH1 0x1 PUSH1 0x1 PUSH1 0x40 SHL SUB DUP2 GT PUSH2 0x265 JUMPI DUP3 PUSH2 0x2650 SWAP2 DUP6 ADD PUSH2 0x246C JUMP JUMPDEST SWAP3 PUSH2 0x124 CALLDATALOAD PUSH1 0x1 PUSH1 0x1 PUSH1 0x40 SHL SUB DUP2 GT PUSH2 0x265 JUMPI DUP4 PUSH2 0x266F SWAP2 DUP4 ADD PUSH2 0x23D1 JUMP JUMPDEST SWAP3 PUSH2 0x144 CALLDATALOAD PUSH1 0x1 PUSH1 0x1 PUSH1 0x40 SHL SUB DUP2 GT PUSH2 0x265 JUMPI PUSH2 0x23EC SWAP3 ADD PUSH2 0x23D1 JUMP JUMPDEST DUP5 CALLDATALOAD SWAP1 PUSH1 0x1 PUSH1 0x1 PUSH1 0x40 SHL SUB DUP3 GT PUSH2 0x265 JUMPI PUSH1 0xC0 DUP9 CALLDATALOAD DUP4 ADD DUP14 SUB PUSH1 0x23 NOT ADD SLT PUSH2 0x265 JUMPI PUSH1 0x40 MLOAD SWAP2 PUSH2 0x26BB DUP4 PUSH2 0x2333 JUMP JUMPDEST PUSH1 0x24 DUP2 DUP11 CALLDATALOAD ADD ADD CALLDATALOAD PUSH1 0x1 PUSH1 0x1 PUSH1 0x40 SHL SUB DUP2 GT PUSH2 0x265 JUMPI DUP14 PUSH1 0x24 PUSH2 0x26E3 SWAP3 DUP5 DUP14 CALLDATALOAD ADD ADD ADD PUSH2 0x23D1 JUMP JUMPDEST DUP4 MSTORE PUSH1 0xA PUSH1 0x44 DUP3 DUP12 CALLDATALOAD ADD ADD CALLDATALOAD LT ISZERO PUSH2 0x265 JUMPI DUP9 CALLDATALOAD DUP2 ADD PUSH1 0x44 DUP2 ADD CALLDATALOAD PUSH1 0x20 DUP6 ADD MSTORE DUP7 ADD CALLDATALOAD DUP1 ISZERO ISZERO DUP2 SUB PUSH2 0x265 JUMPI PUSH1 0x40 DUP5 ADD MSTORE DUP5 DUP2 DUP11 CALLDATALOAD ADD ADD CALLDATALOAD PUSH1 0x1 PUSH1 0x1 PUSH1 0x40 SHL SUB DUP2 GT PUSH2 0x265 JUMPI DUP14 PUSH1 0x24 PUSH2 0x273B SWAP3 DUP5 DUP14 CALLDATALOAD ADD ADD ADD PUSH2 0x23D1 JUMP JUMPDEST PUSH1 0x60 DUP5 ADD MSTORE DUP4 DUP2 DUP11 CALLDATALOAD ADD ADD CALLDATALOAD PUSH1 0x1 PUSH1 0x1 PUSH1 0x40 SHL SUB DUP2 GT PUSH2 0x265 JUMPI DUP14 PUSH1 0x24 PUSH2 0x2767 SWAP3 DUP5 DUP14 CALLDATALOAD ADD ADD ADD PUSH2 0x23D1 JUMP JUMPDEST PUSH1 0x80 DUP5 ADD MSTORE DUP9 DUP2 DUP2 CALLDATALOAD ADD ADD CALLDATALOAD SWAP2 PUSH1 0x1 PUSH1 0x1 PUSH1 0x40 SHL SUB DUP4 GT PUSH2 0x265 JUMPI PUSH1 0x24 SWAP4 PUSH2 0x2799 DUP16 DUP7 PUSH1 0x20 SWAP7 DUP8 SWAP7 DUP16 CALLDATALOAD ADD ADD ADD PUSH2 0x23D1 JUMP JUMPDEST PUSH1 0xA0 DUP3 ADD MSTORE DUP2 MSTORE ADD SWAP6 ADD SWAP5 SWAP1 POP PUSH2 0x25FC JUMP JUMPDEST PUSH1 0x0 JUMPDEST DUP4 DUP2 LT PUSH2 0x27BE JUMPI POP POP PUSH1 0x0 SWAP2 ADD MSTORE JUMP JUMPDEST DUP2 DUP2 ADD MLOAD DUP4 DUP3 ADD MSTORE PUSH1 0x20 ADD PUSH2 0x27AE JUMP JUMPDEST SWAP1 PUSH1 0x20 SWAP2 PUSH2 0x27E7 DUP2 MLOAD DUP1 SWAP3 DUP2 DUP6 MSTORE DUP6 DUP1 DUP7 ADD SWAP2 ADD PUSH2 0x27AB JUMP JUMPDEST PUSH1 0x1F ADD PUSH1 0x1F NOT AND ADD ADD SWAP1 JUMP JUMPDEST SWAP1 DUP1 DUP3 MLOAD SWAP1 DUP2 DUP2 MSTORE PUSH1 0x20 DUP1 SWAP2 ADD SWAP3 DUP2 DUP1 DUP5 PUSH1 0x5 SHL DUP4 ADD ADD SWAP6 ADD SWAP4 PUSH1 0x0 SWAP2 JUMPDEST DUP5 DUP4 LT PUSH2 0x2821 JUMPI POP POP POP POP POP POP SWAP1 JUMP JUMPDEST SWAP1 SWAP2 SWAP3 SWAP4 SWAP5 SWAP6 DUP5 DUP1 PUSH2 0x283F PUSH1 0x1 SWAP4 PUSH1 0x1F NOT DUP7 DUP3 SUB ADD DUP8 MSTORE DUP11 MLOAD PUSH2 0x27CE JUMP JUMPDEST SWAP9 ADD SWAP4 ADD SWAP4 ADD SWAP2 SWAP5 SWAP4 SWAP3 SWAP1 PUSH2 0x2811 JUMP JUMPDEST PUSH1 0x4 DUP2 LT ISZERO PUSH2 0x23FC JUMPI PUSH1 0x0 MSTORE PUSH1 0xC PUSH1 0x20 MSTORE PUSH1 0x40 PUSH1 0x0 KECCAK256 SWAP1 JUMP JUMPDEST SWAP1 PUSH1 0x1 DUP3 DUP2 SHR SWAP3 AND DUP1 ISZERO PUSH2 0x2898 JUMPI JUMPDEST PUSH1 0x20 DUP4 LT EQ PUSH2 0x2882 JUMPI JUMP JUMPDEST PUSH4 0x4E487B71 PUSH1 0xE0 SHL PUSH1 0x0 MSTORE PUSH1 0x22 PUSH1 0x4 MSTORE PUSH1 0x24 PUSH1 0x0 REVERT JUMPDEST SWAP2 PUSH1 0x7F AND SWAP2 PUSH2 0x2877 JUMP JUMPDEST SWAP1 PUSH1 0x0 SWAP3 SWAP2 DUP1 SLOAD SWAP2 PUSH2 0x28B3 DUP4 PUSH2 0x2868 JUMP JUMPDEST SWAP2 DUP3 DUP3 MSTORE PUSH1 0x1 SWAP4 DUP5 DUP2 AND SWAP1 DUP2 PUSH1 0x0 EQ PUSH2 0x2915 JUMPI POP PUSH1 0x1 EQ PUSH2 0x28D5 JUMPI JUMPDEST POP POP POP POP JUMP JUMPDEST SWAP1 SWAP2 SWAP4 SWAP5 POP PUSH1 0x0 MSTORE PUSH1 0x20 SWAP3 DUP4 PUSH1 0x0 KECCAK256 SWAP3 DUP5 PUSH1 0x0 SWAP5 JUMPDEST DUP4 DUP7 LT PUSH2 0x2901 JUMPI POP POP POP POP ADD ADD SWAP1 CODESIZE DUP1 DUP1 DUP1 PUSH2 0x28CF JUMP JUMPDEST DUP1 SLOAD DUP6 DUP8 ADD DUP4 ADD MSTORE SWAP5 ADD SWAP4 DUP6 SWAP1 DUP3 ADD PUSH2 0x28EA JUMP JUMPDEST SWAP3 SWAP5 POP POP POP PUSH1 0x20 SWAP4 SWAP5 POP PUSH1 0xFF NOT AND DUP4 DUP4 ADD MSTORE ISZERO ISZERO PUSH1 0x5 SHL ADD ADD SWAP1 CODESIZE DUP1 DUP1 DUP1 PUSH2 0x28CF JUMP JUMPDEST PUSH1 0x40 PUSH1 0x3 NOT DUP3 ADD SLT PUSH2 0x265 JUMPI PUSH1 0x4 CALLDATALOAD SWAP1 PUSH1 0x1 PUSH1 0x1 PUSH1 0x40 SHL SUB DUP3 GT PUSH2 0x265 JUMPI PUSH2 0x2962 SWAP2 PUSH1 0x4 ADD PUSH2 0x23D1 JUMP JUMPDEST SWAP1 PUSH1 0x24 CALLDATALOAD SWAP1 JUMP JUMPDEST DUP1 SLOAD DUP3 LT ISZERO PUSH2 0x2981 JUMPI PUSH1 0x0 MSTORE PUSH1 0x20 PUSH1 0x0 KECCAK256 ADD SWAP1 PUSH1 0x0 SWAP1 JUMP JUMPDEST PUSH4 0x4E487B71 PUSH1 0xE0 SHL PUSH1 0x0 MSTORE PUSH1 0x32 PUSH1 0x4 MSTORE PUSH1 0x24 PUSH1 0x0 REVERT JUMPDEST PUSH2 0x29AA DUP2 MLOAD PUSH1 0xC0 DUP5 MSTORE PUSH1 0xC0 DUP5 ADD SWAP1 PUSH2 0x27CE JUMP JUMPDEST SWAP2 PUSH1 0x20 DUP3 ADD MLOAD PUSH1 0xA DUP2 LT ISZERO PUSH2 0x23FC JUMPI PUSH2 0x29FB PUSH2 0x29E9 PUSH2 0x23EC SWAP6 PUSH1 0xA0 SWAP4 PUSH1 0x20 DUP7 ADD MSTORE PUSH1 0x40 DUP7 ADD MLOAD ISZERO ISZERO PUSH1 0x40 DUP7 ADD MSTORE PUSH1 0x60 DUP7 ADD MLOAD DUP6 DUP3 SUB PUSH1 0x60 DUP8 ADD MSTORE PUSH2 0x27CE JUMP JUMPDEST PUSH1 0x80 DUP6 ADD MLOAD DUP5 DUP3 SUB PUSH1 0x80 DUP7 ADD MSTORE PUSH2 0x27CE JUMP JUMPDEST SWAP3 ADD MLOAD SWAP1 PUSH1 0xA0 DUP2 DUP5 SUB SWAP2 ADD MSTORE PUSH2 0x27CE JUMP JUMPDEST PUSH1 0x0 SLOAD PUSH1 0x1 PUSH1 0x1 PUSH1 0xA0 SHL SUB AND CALLER SUB PUSH2 0x2A20 JUMPI JUMP JUMPDEST PUSH1 0x64 PUSH1 0x40 MLOAD PUSH3 0x461BCD PUSH1 0xE5 SHL DUP2 MSTORE PUSH1 0x20 PUSH1 0x4 DUP3 ADD MSTORE PUSH1 0x20 PUSH1 0x24 DUP3 ADD MSTORE PUSH32 0x4F776E61626C653A2063616C6C6572206973206E6F7420746865206F776E6572 PUSH1 0x44 DUP3 ADD MSTORE REVERT JUMPDEST ISZERO PUSH2 0x2A6B JUMPI JUMP JUMPDEST PUSH1 0x40 MLOAD PUSH3 0x461BCD PUSH1 0xE5 SHL DUP2 MSTORE PUSH1 0x20 PUSH1 0x4 DUP3 ADD MSTORE PUSH1 0xE PUSH1 0x24 DUP3 ADD MSTORE PUSH14 0x139BDD08185D5D1A1BDC9A5E9959 PUSH1 0x92 SHL PUSH1 0x44 DUP3 ADD MSTORE PUSH1 0x64 SWAP1 REVERT JUMPDEST ISZERO PUSH2 0x2AA8 JUMPI JUMP JUMPDEST PUSH1 0x40 MLOAD PUSH3 0x461BCD PUSH1 0xE5 SHL DUP2 MSTORE PUSH1 0x20 PUSH1 0x4 DUP3 ADD MSTORE PUSH1 0x16 PUSH1 0x24 DUP3 ADD MSTORE PUSH22 0x14D8DA195B5848185B1C9958591E481919599A5B9959 PUSH1 0x52 SHL PUSH1 0x44 DUP3 ADD MSTORE PUSH1 0x64 SWAP1 REVERT JUMPDEST ISZERO PUSH2 0x2AED JUMPI JUMP JUMPDEST PUSH1 0x40 MLOAD PUSH3 0x461BCD PUSH1 0xE5 SHL DUP2 MSTORE PUSH1 0x20 PUSH1 0x4 DUP3 ADD MSTORE PUSH1 0x19 PUSH1 0x24 DUP3 ADD MSTORE PUSH32 0x537562646F6D61696E2063616E6E6F7420626520656D70747900000000000000 PUSH1 0x44 DUP3 ADD MSTORE PUSH1 0x64 SWAP1 REVERT JUMPDEST PUSH1 0x4 DUP3 LT ISZERO PUSH2 0x23FC JUMPI MSTORE JUMP JUMPDEST DUP2 DUP2 LT PUSH2 0x2B49 JUMPI POP POP JUMP JUMPDEST PUSH1 0x0 DUP2 SSTORE PUSH1 0x1 ADD PUSH2 0x2B3E JUMP JUMPDEST SWAP2 SWAP1 PUSH1 0x1F DUP2 GT PUSH2 0x2B64 JUMPI POP POP POP JUMP JUMPDEST PUSH2 0x2B90 SWAP3 PUSH1 0x0 MSTORE PUSH1 0x20 PUSH1 0x0 KECCAK256 SWAP1 PUSH1 0x20 PUSH1 0x1F DUP5 ADD PUSH1 0x5 SHR DUP4 ADD SWAP4 LT PUSH2 0x2B92 JUMPI JUMPDEST PUSH1 0x1F ADD PUSH1 0x5 SHR ADD SWAP1 PUSH2 0x2B3E JUMP JUMPDEST JUMP JUMPDEST SWAP1 SWAP2 POP DUP2 SWAP1 PUSH2 0x2B83 JUMP JUMPDEST SWAP1 PUSH1 0x4 DUP2 LT ISZERO PUSH2 0x23FC JUMPI PUSH1 0xFF DUP1 NOT DUP4 SLOAD AND SWAP2 AND OR SWAP1 SSTORE JUMP JUMPDEST PUSH2 0x2BBE DUP2 SLOAD PUSH2 0x2868 JUMP JUMPDEST SWAP1 DUP2 PUSH2 0x2BC8 JUMPI POP POP JUMP JUMPDEST DUP2 PUSH1 0x1F PUSH1 0x0 SWAP4 GT PUSH1 0x1 EQ PUSH2 0x2BDA JUMPI POP SSTORE JUMP JUMPDEST SWAP1 DUP1 DUP4 SWAP2 DUP3 MSTORE PUSH2 0x2BF9 PUSH1 0x1F PUSH1 0x20 DUP5 KECCAK256 SWAP5 ADD PUSH1 0x5 SHR DUP5 ADD PUSH1 0x1 DUP6 ADD PUSH2 0x2B3E JUMP JUMPDEST SSTORE SSTORE JUMP JUMPDEST DUP1 SLOAD SWAP1 PUSH1 0x0 DUP2 SSTORE DUP2 PUSH2 0x2C0D JUMPI POP POP JUMP JUMPDEST PUSH1 0x0 MSTORE PUSH1 0x20 PUSH1 0x0 KECCAK256 SWAP1 DUP2 ADD SWAP1 JUMPDEST DUP2 DUP2 LT PUSH2 0x2C25 JUMPI POP POP JUMP JUMPDEST DUP1 PUSH2 0x2C31 PUSH1 0x1 SWAP3 PUSH2 0x2BB4 JUMP JUMPDEST ADD PUSH2 0x2C1A JUMP JUMPDEST SWAP1 PUSH1 0x1 PUSH1 0x40 SHL DUP2 GT PUSH2 0x129A JUMPI DUP2 SLOAD SWAP2 DUP2 DUP2 SSTORE DUP3 DUP3 LT PUSH2 0x2C55 JUMPI POP POP POP JUMP JUMPDEST PUSH1 0x0 MSTORE PUSH1 0x20 PUSH1 0x0 KECCAK256 SWAP2 DUP3 ADD SWAP2 ADD JUMPDEST DUP2 DUP2 LT PUSH2 0x2C6E JUMPI POP POP JUMP JUMPDEST DUP1 PUSH2 0x2C7A PUSH1 0x1 SWAP3 PUSH2 0x2BB4 JUMP JUMPDEST ADD PUSH2 0x2C63 JUMP JUMPDEST PUSH1 0x0 NOT DUP2 EQ PUSH2 0x2C8F JUMPI PUSH1 0x1 ADD SWAP1 JUMP JUMPDEST PUSH4 0x4E487B71 PUSH1 0xE0 SHL PUSH1 0x0 MSTORE PUSH1 0x11 PUSH1 0x4 MSTORE PUSH1 0x24 PUSH1 0x0 REVERT JUMPDEST PUSH2 0x2CBD SWAP1 PUSH1 0x20 PUSH1 0x40 MLOAD SWAP3 DUP3 DUP5 DUP1 SWAP5 MLOAD SWAP4 DUP5 SWAP3 ADD PUSH2 0x27AB JUMP JUMPDEST DUP2 ADD SUB SWAP1 KECCAK256 SWAP1 JUMP JUMPDEST SWAP7 SWAP2 SWAP9 SWAP4 SWAP10 SWAP5 SWAP8 SWAP3 SWAP6 SWAP1 SWAP8 PUSH2 0x2CDC DUP9 MLOAD ISZERO ISZERO PUSH2 0x2AE6 JUMP JUMPDEST PUSH2 0x2D0E PUSH1 0xFF PUSH2 0x2CFA PUSH1 0x20 DUP12 DUP2 PUSH1 0x40 MLOAD SWAP4 DUP3 DUP6 DUP1 SWAP5 MLOAD SWAP4 DUP5 SWAP3 ADD PUSH2 0x27AB JUMP JUMPDEST PUSH1 0x3 DUP2 DUP4 ADD MSTORE DUP2 ADD SUB ADD SWAP1 KECCAK256 SLOAD AND ISZERO PUSH2 0x2AA1 JUMP JUMPDEST PUSH1 0x40 MLOAD SWAP7 PUSH2 0x2D1B DUP9 PUSH2 0x234E JUMP JUMPDEST DUP9 DUP9 MSTORE PUSH2 0x2D2B DUP11 PUSH1 0x20 DUP11 ADD PUSH2 0x2B32 JUMP JUMPDEST DUP11 PUSH1 0x40 DUP10 ADD MSTORE PUSH1 0x60 DUP9 ADD MSTORE DUP11 PUSH1 0x80 DUP9 ADD MSTORE PUSH1 0xA0 DUP8 ADD MSTORE PUSH1 0xC0 DUP7 ADD MSTORE PUSH1 0xE0 DUP6 ADD MSTORE PUSH2 0x100 DUP5 ADD MSTORE PUSH1 0x1 PUSH2 0x120 DUP5 ADD MSTORE TIMESTAMP PUSH2 0x140 DUP5 ADD MSTORE TIMESTAMP PUSH2 0x160 DUP5 ADD MSTORE PUSH2 0x180 DUP4 ADD MSTORE PUSH2 0x1A0 DUP3 ADD MSTORE PUSH1 0x40 MLOAD PUSH1 0x20 DUP2 DUP5 MLOAD PUSH2 0x2D88 DUP2 DUP4 DUP6 DUP10 ADD PUSH2 0x27AB JUMP JUMPDEST DUP2 ADD PUSH1 0x2 DUP2 MSTORE SUB ADD SWAP1 KECCAK256 SWAP1 DUP1 MLOAD DUP1 MLOAD SWAP1 PUSH1 0x1 PUSH1 0x1 PUSH1 0x40 SHL SUB DUP3 GT PUSH2 0x129A JUMPI DUP2 SWAP1 PUSH2 0x2DB6 DUP3 PUSH2 0x10C4 DUP8 SLOAD PUSH2 0x2868 JUMP JUMPDEST PUSH1 0x20 SWAP1 PUSH1 0x1F DUP4 GT PUSH1 0x1 EQ PUSH2 0x3B31 JUMPI PUSH1 0x0 SWAP3 PUSH2 0x3B26 JUMPI JUMPDEST POP POP DUP2 PUSH1 0x1 SHL SWAP2 PUSH1 0x0 NOT SWAP1 PUSH1 0x3 SHL SHR NOT AND OR DUP3 SSTORE JUMPDEST PUSH1 0x20 DUP2 ADD MLOAD PUSH1 0x4 DUP2 LT ISZERO PUSH2 0x23FC JUMPI PUSH2 0x2DFC SWAP1 PUSH1 0x1 DUP5 ADD PUSH2 0x2B9C JUMP JUMPDEST PUSH1 0x40 DUP2 ADD MLOAD DUP1 MLOAD SWAP1 PUSH1 0x1 PUSH1 0x1 PUSH1 0x40 SHL SUB DUP3 GT PUSH2 0x129A JUMPI DUP2 SWAP1 PUSH2 0x2E2E DUP3 PUSH2 0x2E25 PUSH1 0x2 DUP9 ADD SLOAD PUSH2 0x2868 JUMP JUMPDEST PUSH1 0x2 DUP9 ADD PUSH2 0x2B55 JUMP JUMPDEST PUSH1 0x20 SWAP1 PUSH1 0x1F DUP4 GT PUSH1 0x1 EQ PUSH2 0x3AB4 JUMPI PUSH1 0x0 SWAP3 PUSH2 0x3AA9 JUMPI JUMPDEST POP POP DUP2 PUSH1 0x1 SHL SWAP2 PUSH1 0x0 NOT SWAP1 PUSH1 0x3 SHL SHR NOT AND OR PUSH1 0x2 DUP4 ADD SSTORE JUMPDEST PUSH1 0x60 DUP2 ADD MLOAD DUP1 MLOAD SWAP1 PUSH1 0x1 PUSH1 0x1 PUSH1 0x40 SHL SUB DUP3 GT PUSH2 0x129A JUMPI DUP2 SWAP1 PUSH2 0x2E8E DUP3 PUSH2 0x2E85 PUSH1 0x3 DUP9 ADD SLOAD PUSH2 0x2868 JUMP JUMPDEST PUSH1 0x3 DUP9 ADD PUSH2 0x2B55 JUMP JUMPDEST PUSH1 0x20 SWAP1 PUSH1 0x1F DUP4 GT PUSH1 0x1 EQ PUSH2 0x3A37 JUMPI PUSH1 0x0 SWAP3 PUSH2 0x3A2C JUMPI JUMPDEST POP POP DUP2 PUSH1 0x1 SHL SWAP2 PUSH1 0x0 NOT SWAP1 PUSH1 0x3 SHL SHR NOT AND OR PUSH1 0x3 DUP4 ADD SSTORE JUMPDEST PUSH1 0x80 DUP2 ADD MLOAD DUP1 MLOAD SWAP1 PUSH1 0x1 PUSH1 0x1 PUSH1 0x40 SHL SUB DUP3 GT PUSH2 0x129A JUMPI DUP2 SWAP1 PUSH2 0x2EEE DUP3 PUSH2 0x2EE5 PUSH1 0x4 DUP9 ADD SLOAD PUSH2 0x2868 JUMP JUMPDEST PUSH1 0x4 DUP9 ADD PUSH2 0x2B55 JUMP JUMPDEST PUSH1 0x20 SWAP1 PUSH1 0x1F DUP4 GT PUSH1 0x1 EQ PUSH2 0x39BA JUMPI PUSH1 0x0 SWAP3 PUSH2 0x39AF JUMPI JUMPDEST POP POP DUP2 PUSH1 0x1 SHL SWAP2 PUSH1 0x0 NOT SWAP1 PUSH1 0x3 SHL SHR NOT AND OR PUSH1 0x4 DUP4 ADD SSTORE JUMPDEST PUSH1 0xA0 DUP2 ADD MLOAD DUP1 MLOAD SWAP1 PUSH1 0x1 PUSH1 0x1 PUSH1 0x40 SHL SUB DUP3 GT PUSH2 0x129A JUMPI DUP2 SWAP1 PUSH2 0x2F4E DUP3 PUSH2 0x2F45 PUSH1 0x5 DUP9 ADD SLOAD PUSH2 0x2868 JUMP JUMPDEST PUSH1 0x5 DUP9 ADD PUSH2 0x2B55 JUMP JUMPDEST PUSH1 0x20 SWAP1 PUSH1 0x1F DUP4 GT PUSH1 0x1 EQ PUSH2 0x393D JUMPI PUSH1 0x0 SWAP3 PUSH2 0x3932 JUMPI JUMPDEST POP POP DUP2 PUSH1 0x1 SHL SWAP2 PUSH1 0x0 NOT SWAP1 PUSH1 0x3 SHL SHR NOT AND OR PUSH1 0x5 DUP4 ADD SSTORE JUMPDEST PUSH1 0xC0 DUP2 ADD MLOAD DUP1 MLOAD SWAP1 PUSH1 0x1 PUSH1 0x40 SHL DUP3 GT PUSH2 0x129A JUMPI PUSH1 0x6 DUP5 ADD SLOAD DUP3 PUSH1 0x6 DUP7 ADD SSTORE DUP1 DUP4 LT PUSH2 0x38B7 JUMPI JUMPDEST POP PUSH1 0x20 ADD SWAP1 PUSH1 0x6 DUP5 ADD PUSH1 0x0 MSTORE PUSH1 0x20 PUSH1 0x0 KECCAK256 SWAP2 PUSH1 0x0 SWAP1 JUMPDEST DUP3 DUP3 LT PUSH2 0x3508 JUMPI POP POP POP POP PUSH1 0x7 DUP3 ADD PUSH1 0xE0 DUP3 ADD MLOAD PUSH1 0x20 DUP2 MLOAD SWAP2 PUSH2 0x2FDB DUP4 DUP6 PUSH2 0x2C37 JUMP JUMPDEST ADD SWAP2 PUSH1 0x0 MSTORE PUSH1 0x20 PUSH1 0x0 KECCAK256 SWAP2 PUSH1 0x0 SWAP1 JUMPDEST DUP3 DUP3 LT PUSH2 0x342B JUMPI POP POP POP POP PUSH1 0x8 DUP3 ADD PUSH2 0x100 DUP3 ADD MLOAD PUSH1 0x20 DUP2 MLOAD SWAP2 PUSH2 0x300E DUP4 DUP6 PUSH2 0x2C37 JUMP JUMPDEST ADD SWAP2 PUSH1 0x0 MSTORE PUSH1 0x20 PUSH1 0x0 KECCAK256 SWAP2 PUSH1 0x0 SWAP1 JUMPDEST DUP3 DUP3 LT PUSH2 0x334E JUMPI POP POP POP POP PUSH1 0x9 DUP3 ADD PUSH2 0x120 DUP3 ADD MLOAD ISZERO ISZERO PUSH1 0xFF DUP1 NOT DUP4 SLOAD AND SWAP2 AND OR SWAP1 SSTORE PUSH2 0x140 DUP2 ADD MLOAD PUSH1 0xA DUP4 ADD SSTORE PUSH2 0x160 DUP2 ADD MLOAD PUSH1 0xB DUP4 ADD SSTORE PUSH2 0x180 DUP2 ADD MLOAD DUP1 MLOAD SWAP1 PUSH1 0x1 PUSH1 0x1 PUSH1 0x40 SHL SUB DUP3 GT PUSH2 0x129A JUMPI PUSH2 0x3087 DUP3 PUSH2 0x307E PUSH1 0xC DUP8 ADD SLOAD PUSH2 0x2868 JUMP JUMPDEST PUSH1 0xC DUP8 ADD PUSH2 0x2B55 JUMP JUMPDEST PUSH1 0x20 SWAP1 PUSH1 0x1F DUP4 GT PUSH1 0x1 EQ PUSH2 0x32DA JUMPI PUSH2 0x1A0 SWAP4 SWAP3 SWAP2 PUSH1 0x0 SWAP2 DUP4 PUSH2 0x32CF JUMPI JUMPDEST POP POP DUP2 PUSH1 0x1 SHL SWAP2 PUSH1 0x0 NOT SWAP1 PUSH1 0x3 SHL SHR NOT AND OR PUSH1 0xC DUP5 ADD SSTORE JUMPDEST ADD MLOAD DUP1 MLOAD SWAP1 PUSH1 0x1 PUSH1 0x1 PUSH1 0x40 SHL SUB DUP3 GT PUSH2 0x129A JUMPI PUSH2 0x30E9 DUP3 PUSH2 0x30E0 PUSH1 0xD DUP7 ADD SLOAD PUSH2 0x2868 JUMP JUMPDEST PUSH1 0xD DUP7 ADD PUSH2 0x2B55 JUMP JUMPDEST PUSH1 0x20 SWAP1 PUSH1 0x1F DUP4 GT PUSH1 0x1 EQ PUSH2 0x322F JUMPI PUSH2 0x31FF SWAP5 PUSH32 0xBC5E30B99F14BBF3D59C8CF7ACA16B6CD889C273F13C2C4854E4D760969F0766 SWAP7 SWAP5 PUSH1 0xD DUP6 PUSH2 0x321F SWAP7 PUSH2 0x3210 SWAP7 PUSH2 0x31F2 SWAP7 PUSH1 0x0 SWAP3 PUSH2 0x3224 JUMPI JUMPDEST POP POP DUP2 PUSH1 0x1 SHL SWAP2 PUSH1 0x0 NOT SWAP1 PUSH1 0x3 SHL SHR NOT AND OR SWAP2 ADD SSTORE JUMPDEST PUSH1 0x40 MLOAD PUSH1 0x20 DUP2 DUP4 MLOAD PUSH2 0x3160 DUP2 DUP4 DUP6 DUP9 ADD PUSH2 0x27AB JUMP JUMPDEST DUP2 ADD PUSH1 0x3 DUP2 MSTORE SUB ADD SWAP1 KECCAK256 PUSH1 0x1 PUSH1 0xFF NOT DUP3 SLOAD AND OR SWAP1 SSTORE PUSH2 0x319D DUP6 PUSH1 0x40 MLOAD PUSH1 0x20 DUP2 DUP6 MLOAD PUSH2 0x318E DUP2 DUP4 DUP6 DUP11 ADD PUSH2 0x27AB JUMP JUMPDEST DUP2 ADD PUSH1 0x4 DUP2 MSTORE SUB ADD SWAP1 KECCAK256 PUSH2 0x2B9C JUMP JUMPDEST PUSH2 0x31A8 PUSH1 0xB SLOAD PUSH2 0x2C80 JUMP JUMPDEST PUSH1 0xB SSTORE PUSH2 0x31B4 DUP6 PUSH2 0x284F JUMP JUMPDEST PUSH2 0x31BE DUP2 SLOAD PUSH2 0x2C80 JUMP JUMPDEST SWAP1 SSTORE PUSH1 0x40 MLOAD PUSH1 0x20 DUP2 DUP2 PUSH2 0x31D7 DUP13 DUP4 DUP2 MLOAD SWAP4 DUP5 SWAP3 ADD PUSH2 0x27AB JUMP JUMPDEST DUP2 ADD PUSH1 0xD DUP2 MSTORE SUB ADD SWAP1 KECCAK256 PUSH2 0x31EB DUP2 SLOAD PUSH2 0x2C80 JUMP JUMPDEST SWAP1 SSTORE PUSH2 0x2CA5 JUMP JUMPDEST SWAP6 PUSH1 0x40 MLOAD SWAP5 DUP6 DUP1 SWAP6 PUSH2 0x23EF JUMP JUMPDEST PUSH1 0x60 PUSH1 0x20 DUP6 ADD MSTORE PUSH1 0x60 DUP5 ADD SWAP1 PUSH2 0x27CE JUMP JUMPDEST DUP3 DUP2 SUB PUSH1 0x40 DUP5 ADD MSTORE CALLER SWAP7 PUSH2 0x27CE JUMP JUMPDEST SUB SWAP1 LOG3 JUMP JUMPDEST ADD MLOAD SWAP1 POP CODESIZE DUP1 PUSH2 0x3135 JUMP JUMPDEST SWAP1 PUSH1 0xD DUP5 ADD PUSH1 0x0 MSTORE PUSH1 0x20 PUSH1 0x0 KECCAK256 SWAP2 PUSH1 0x0 JUMPDEST PUSH1 0x1F NOT DUP6 AND DUP2 LT PUSH2 0x32B7 JUMPI POP SWAP5 PUSH32 0xBC5E30B99F14BBF3D59C8CF7ACA16B6CD889C273F13C2C4854E4D760969F0766 SWAP7 SWAP5 PUSH1 0xD PUSH1 0x1 DUP7 PUSH2 0x3210 SWAP7 PUSH2 0x31F2 SWAP7 PUSH2 0x31FF SWAP12 PUSH2 0x321F SWAP11 PUSH1 0x1F NOT DUP2 AND LT PUSH2 0x329E JUMPI JUMPDEST POP POP POP DUP2 SHL ADD SWAP2 ADD SSTORE PUSH2 0x314B JUMP JUMPDEST ADD MLOAD PUSH1 0x0 NOT PUSH1 0xF8 DUP5 PUSH1 0x3 SHL AND SHR NOT AND SWAP1 SSTORE CODESIZE DUP1 DUP1 PUSH2 0x3290 JUMP JUMPDEST SWAP2 SWAP3 PUSH1 0x20 PUSH1 0x1 DUP2 SWAP3 DUP7 DUP6 ADD MLOAD DUP2 SSTORE ADD SWAP5 ADD SWAP3 ADD PUSH2 0x3240 JUMP JUMPDEST ADD MLOAD SWAP1 POP CODESIZE DUP1 PUSH2 0x30A4 JUMP JUMPDEST SWAP1 PUSH1 0xC DUP6 ADD PUSH1 0x0 MSTORE PUSH1 0x20 PUSH1 0x0 KECCAK256 SWAP2 PUSH1 0x0 JUMPDEST PUSH1 0x1F NOT DUP6 AND DUP2 LT PUSH2 0x3336 JUMPI POP SWAP2 DUP4 SWAP2 PUSH1 0x1 SWAP4 PUSH2 0x1A0 SWAP7 SWAP6 PUSH1 0x1F NOT DUP2 AND LT PUSH2 0x331D JUMPI JUMPDEST POP POP POP DUP2 SHL ADD PUSH1 0xC DUP5 ADD SSTORE PUSH2 0x30BC JUMP JUMPDEST ADD MLOAD PUSH1 0x0 NOT PUSH1 0xF8 DUP5 PUSH1 0x3 SHL AND SHR NOT AND SWAP1 SSTORE CODESIZE DUP1 DUP1 PUSH2 0x330D JUMP JUMPDEST SWAP2 SWAP3 PUSH1 0x20 PUSH1 0x1 DUP2 SWAP3 DUP7 DUP6 ADD MLOAD DUP2 SSTORE ADD SWAP5 ADD SWAP3 ADD PUSH2 0x32EB JUMP JUMPDEST DUP1 MLOAD DUP1 MLOAD SWAP1 PUSH1 0x1 PUSH1 0x1 PUSH1 0x40 SHL SUB DUP3 GT PUSH2 0x129A JUMPI PUSH2 0x336F DUP3 PUSH2 0x12D1 DUP9 SLOAD PUSH2 0x2868 JUMP JUMPDEST PUSH1 0x20 SWAP1 PUSH1 0x1F DUP4 GT PUSH1 0x1 EQ PUSH2 0x33BB JUMPI SWAP3 DUP3 PUSH1 0x1 SWAP5 SWAP4 PUSH1 0x20 SWAP4 DUP7 SWAP6 PUSH1 0x0 SWAP3 PUSH2 0x33B0 JUMPI JUMPDEST POP POP PUSH1 0x0 NOT PUSH1 0x3 DUP4 SWAP1 SHL SHR NOT AND SWAP1 DUP5 SHL OR DUP8 SSTORE JUMPDEST ADD SWAP5 ADD SWAP2 ADD SWAP1 SWAP3 PUSH2 0x301D JUMP JUMPDEST ADD MLOAD SWAP1 POP CODESIZE DUP1 PUSH2 0x3390 JUMP JUMPDEST SWAP1 DUP7 PUSH1 0x0 MSTORE PUSH1 0x20 PUSH1 0x0 KECCAK256 SWAP2 PUSH1 0x0 JUMPDEST PUSH1 0x1F NOT DUP6 AND DUP2 LT PUSH2 0x3413 JUMPI POP DUP4 PUSH1 0x20 SWAP4 PUSH1 0x1 SWAP7 SWAP4 DUP8 SWAP7 SWAP4 DUP8 SWAP5 PUSH1 0x1F NOT DUP2 AND LT PUSH2 0x33FA JUMPI JUMPDEST POP POP POP DUP2 SHL ADD DUP8 SSTORE PUSH2 0x33A4 JUMP JUMPDEST ADD MLOAD PUSH1 0x0 NOT PUSH1 0xF8 DUP5 PUSH1 0x3 SHL AND SHR NOT AND SWAP1 SSTORE CODESIZE DUP1 DUP1 PUSH2 0x33ED JUMP JUMPDEST SWAP2 SWAP3 PUSH1 0x20 PUSH1 0x1 DUP2 SWAP3 DUP7 DUP6 ADD MLOAD DUP2 SSTORE ADD SWAP5 ADD SWAP3 ADD PUSH2 0x33C9 JUMP JUMPDEST DUP1 MLOAD DUP1 MLOAD SWAP1 PUSH1 0x1 PUSH1 0x1 PUSH1 0x40 SHL SUB DUP3 GT PUSH2 0x129A JUMPI PUSH2 0x344C DUP3 PUSH2 0x12D1 DUP9 SLOAD PUSH2 0x2868 JUMP JUMPDEST PUSH1 0x20 SWAP1 PUSH1 0x1F DUP4 GT PUSH1 0x1 EQ PUSH2 0x3498 JUMPI SWAP3 DUP3 PUSH1 0x1 SWAP5 SWAP4 PUSH1 0x20 SWAP4 DUP7 SWAP6 PUSH1 0x0 SWAP3 PUSH2 0x348D JUMPI JUMPDEST POP POP PUSH1 0x0 NOT PUSH1 0x3 DUP4 SWAP1 SHL SHR NOT AND SWAP1 DUP5 SHL OR DUP8 SSTORE JUMPDEST ADD SWAP5 ADD SWAP2 ADD SWAP1 SWAP3 PUSH2 0x2FEA JUMP JUMPDEST ADD MLOAD SWAP1 POP CODESIZE DUP1 PUSH2 0x346D JUMP JUMPDEST SWAP1 DUP7 PUSH1 0x0 MSTORE PUSH1 0x20 PUSH1 0x0 KECCAK256 SWAP2 PUSH1 0x0 JUMPDEST PUSH1 0x1F NOT DUP6 AND DUP2 LT PUSH2 0x34F0 JUMPI POP DUP4 PUSH1 0x20 SWAP4 PUSH1 0x1 SWAP7 SWAP4 DUP8 SWAP7 SWAP4 DUP8 SWAP5 PUSH1 0x1F NOT DUP2 AND LT PUSH2 0x34D7 JUMPI JUMPDEST POP POP POP DUP2 SHL ADD DUP8 SSTORE PUSH2 0x3481 JUMP JUMPDEST ADD MLOAD PUSH1 0x0 NOT PUSH1 0xF8 DUP5 PUSH1 0x3 SHL AND SHR NOT AND SWAP1 SSTORE CODESIZE DUP1 DUP1 PUSH2 0x34CA JUMP JUMPDEST SWAP2 SWAP3 PUSH1 0x20 PUSH1 0x1 DUP2 SWAP3 DUP7 DUP6 ADD MLOAD DUP2 SSTORE ADD SWAP5 ADD SWAP3 ADD PUSH2 0x34A6 JUMP JUMPDEST DUP1 MLOAD DUP1 MLOAD DUP1 MLOAD SWAP1 PUSH1 0x1 PUSH1 0x1 PUSH1 0x40 SHL SUB DUP3 GT PUSH2 0x129A JUMPI DUP2 SWAP1 PUSH2 0x3533 DUP3 PUSH2 0x352D DUP11 SLOAD PUSH2 0x2868 JUMP JUMPDEST DUP11 PUSH2 0x2B55 JUMP JUMPDEST PUSH1 0x20 SWAP1 PUSH1 0x1F DUP4 GT PUSH1 0x1 EQ PUSH2 0x384B JUMPI PUSH1 0x0 SWAP3 PUSH2 0x3840 JUMPI JUMPDEST POP POP DUP2 PUSH1 0x1 SHL SWAP2 PUSH1 0x0 NOT SWAP1 PUSH1 0x3 SHL SHR NOT AND OR DUP6 SSTORE JUMPDEST PUSH1 0x20 DUP2 ADD MLOAD PUSH1 0xA DUP2 LT ISZERO PUSH2 0x23FC JUMPI PUSH1 0x1 DUP7 ADD SWAP1 DUP2 SLOAD PUSH1 0xFF PUSH2 0xFF00 PUSH1 0x40 DUP7 ADD MLOAD ISZERO ISZERO PUSH1 0x8 SHL AND SWAP3 AND SWAP1 PUSH2 0xFFFF NOT AND OR OR SWAP1 SSTORE PUSH1 0x60 DUP2 ADD MLOAD DUP1 MLOAD SWAP1 PUSH1 0x1 PUSH1 0x1 PUSH1 0x40 SHL SUB DUP3 GT PUSH2 0x129A JUMPI DUP2 SWAP1 PUSH2 0x35C1 DUP3 PUSH2 0x35B8 PUSH1 0x2 DUP12 ADD SLOAD PUSH2 0x2868 JUMP JUMPDEST PUSH1 0x2 DUP12 ADD PUSH2 0x2B55 JUMP JUMPDEST PUSH1 0x20 SWAP1 PUSH1 0x1F DUP4 GT PUSH1 0x1 EQ PUSH2 0x37CE JUMPI PUSH1 0x0 SWAP3 PUSH2 0x37C3 JUMPI JUMPDEST POP POP DUP2 PUSH1 0x1 SHL SWAP2 PUSH1 0x0 NOT SWAP1 PUSH1 0x3 SHL SHR NOT AND OR PUSH1 0x2 DUP7 ADD SSTORE JUMPDEST PUSH1 0x80 DUP2 ADD MLOAD DUP1 MLOAD SWAP1 PUSH1 0x1 PUSH1 0x1 PUSH1 0x40 SHL SUB DUP3 GT PUSH2 0x129A JUMPI PUSH2 0x361F DUP3 PUSH2 0x3616 PUSH1 0x3 DUP11 ADD SLOAD PUSH2 0x2868 JUMP JUMPDEST PUSH1 0x3 DUP11 ADD PUSH2 0x2B55 JUMP JUMPDEST PUSH1 0x20 SWAP1 PUSH1 0x1F DUP4 GT PUSH1 0x1 EQ PUSH2 0x3750 JUMPI PUSH1 0xA0 SWAP4 SWAP3 SWAP2 PUSH1 0x0 SWAP2 DUP4 PUSH2 0x3745 JUMPI JUMPDEST POP POP DUP2 PUSH1 0x1 SHL SWAP2 PUSH1 0x0 NOT SWAP1 PUSH1 0x3 SHL SHR NOT AND OR PUSH1 0x3 DUP8 ADD SSTORE JUMPDEST ADD MLOAD DUP1 MLOAD SWAP1 PUSH1 0x1 PUSH1 0x1 PUSH1 0x40 SHL SUB DUP3 GT PUSH2 0x129A JUMPI PUSH2 0x3680 DUP3 PUSH2 0x3677 PUSH1 0x4 DUP10 ADD SLOAD PUSH2 0x2868 JUMP JUMPDEST PUSH1 0x4 DUP10 ADD PUSH2 0x2B55 JUMP JUMPDEST PUSH1 0x20 SWAP1 PUSH1 0x1F DUP4 GT PUSH1 0x1 EQ PUSH2 0x36CF JUMPI SWAP3 DUP3 PUSH1 0x5 SWAP4 PUSH1 0x20 SWAP4 PUSH1 0x1 SWAP7 PUSH1 0x0 SWAP3 PUSH2 0x36C4 JUMPI JUMPDEST POP POP PUSH1 0x0 NOT PUSH1 0x3 DUP4 SWAP1 SHL SHR NOT AND SWAP1 DUP6 SHL OR PUSH1 0x4 DUP9 ADD SSTORE JUMPDEST ADD SWAP5 ADD SWAP2 ADD SWAP1 SWAP3 PUSH2 0x2FB8 JUMP JUMPDEST ADD MLOAD SWAP1 POP CODESIZE DUP1 PUSH2 0x36A1 JUMP JUMPDEST SWAP1 PUSH1 0x4 DUP8 ADD PUSH1 0x0 MSTORE PUSH1 0x20 PUSH1 0x0 KECCAK256 SWAP2 PUSH1 0x0 JUMPDEST PUSH1 0x1F NOT DUP6 AND DUP2 LT PUSH2 0x372D JUMPI POP DUP4 PUSH1 0x20 SWAP4 PUSH1 0x1 SWAP7 SWAP4 DUP8 SWAP4 PUSH1 0x5 SWAP8 PUSH1 0x1F NOT DUP2 AND LT PUSH2 0x3714 JUMPI JUMPDEST POP POP POP DUP2 SHL ADD PUSH1 0x4 DUP9 ADD SSTORE PUSH2 0x36B8 JUMP JUMPDEST ADD MLOAD PUSH1 0x0 NOT PUSH1 0xF8 DUP5 PUSH1 0x3 SHL AND SHR NOT AND SWAP1 SSTORE CODESIZE DUP1 DUP1 PUSH2 0x3704 JUMP JUMPDEST SWAP2 SWAP3 PUSH1 0x20 PUSH1 0x1 DUP2 SWAP3 DUP7 DUP6 ADD MLOAD DUP2 SSTORE ADD SWAP5 ADD SWAP3 ADD PUSH2 0x36E0 JUMP JUMPDEST ADD MLOAD SWAP1 POP CODESIZE DUP1 PUSH2 0x363B JUMP JUMPDEST SWAP1 PUSH1 0x3 DUP9 ADD PUSH1 0x0 MSTORE PUSH1 0x20 PUSH1 0x0 KECCAK256 SWAP2 PUSH1 0x0 JUMPDEST PUSH1 0x1F NOT DUP6 AND DUP2 LT PUSH2 0x37AB JUMPI POP SWAP2 DUP4 SWAP2 PUSH1 0x1 SWAP4 PUSH1 0xA0 SWAP7 SWAP6 PUSH1 0x1F NOT DUP2 AND LT PUSH2 0x3792 JUMPI JUMPDEST POP POP POP DUP2 SHL ADD PUSH1 0x3 DUP8 ADD SSTORE PUSH2 0x3653 JUMP JUMPDEST ADD MLOAD PUSH1 0x0 NOT PUSH1 0xF8 DUP5 PUSH1 0x3 SHL AND SHR NOT AND SWAP1 SSTORE CODESIZE DUP1 DUP1 PUSH2 0x3782 JUMP JUMPDEST SWAP2 SWAP3 PUSH1 0x20 PUSH1 0x1 DUP2 SWAP3 DUP7 DUP6 ADD MLOAD DUP2 SSTORE ADD SWAP5 ADD SWAP3 ADD PUSH2 0x3761 JUMP JUMPDEST ADD MLOAD SWAP1 POP CODESIZE DUP1 PUSH2 0x35D7 JUMP JUMPDEST SWAP3 POP PUSH1 0x2 DUP9 ADD PUSH1 0x0 MSTORE PUSH1 0x20 PUSH1 0x0 KECCAK256 SWAP1 PUSH1 0x0 SWAP4 JUMPDEST PUSH1 0x1F NOT DUP5 AND DUP6 LT PUSH2 0x3825 JUMPI PUSH1 0x1 SWAP5 POP DUP4 PUSH1 0x1F NOT DUP2 AND LT PUSH2 0x380C JUMPI JUMPDEST POP POP POP DUP2 SHL ADD PUSH1 0x2 DUP7 ADD SSTORE PUSH2 0x35EF JUMP JUMPDEST ADD MLOAD PUSH1 0x0 NOT PUSH1 0xF8 DUP5 PUSH1 0x3 SHL AND SHR NOT AND SWAP1 SSTORE CODESIZE DUP1 DUP1 PUSH2 0x37FC JUMP JUMPDEST DUP2 DUP2 ADD MLOAD DUP4 SSTORE PUSH1 0x20 SWAP5 DUP6 ADD SWAP5 PUSH1 0x1 SWAP1 SWAP4 ADD SWAP3 SWAP1 SWAP2 ADD SWAP1 PUSH2 0x37E1 JUMP JUMPDEST ADD MLOAD SWAP1 POP CODESIZE DUP1 PUSH2 0x3549 JUMP JUMPDEST SWAP3 POP DUP8 PUSH1 0x0 MSTORE PUSH1 0x20 PUSH1 0x0 KECCAK256 SWAP1 PUSH1 0x0 SWAP4 JUMPDEST PUSH1 0x1F NOT DUP5 AND DUP6 LT PUSH2 0x389C JUMPI PUSH1 0x1 SWAP5 POP DUP4 PUSH1 0x1F NOT DUP2 AND LT PUSH2 0x3883 JUMPI JUMPDEST POP POP POP DUP2 SHL ADD DUP6 SSTORE PUSH2 0x355E JUMP JUMPDEST ADD MLOAD PUSH1 0x0 NOT PUSH1 0xF8 DUP5 PUSH1 0x3 SHL AND SHR NOT AND SWAP1 SSTORE CODESIZE DUP1 DUP1 PUSH2 0x3876 JUMP JUMPDEST DUP2 DUP2 ADD MLOAD DUP4 SSTORE PUSH1 0x20 SWAP5 DUP6 ADD SWAP5 PUSH1 0x1 SWAP1 SWAP4 ADD SWAP3 SWAP1 SWAP2 ADD SWAP1 PUSH2 0x385B JUMP JUMPDEST PUSH1 0x5 DUP2 DUP2 MUL DIV DUP2 SUB PUSH2 0x2C8F JUMPI PUSH1 0x5 DUP4 DUP2 MUL DIV DUP4 SUB PUSH2 0x2C8F JUMPI PUSH1 0x6 DUP6 ADD PUSH1 0x0 MSTORE PUSH1 0x20 PUSH1 0x0 KECCAK256 DUP4 PUSH1 0x5 MUL DUP2 ADD JUMPDEST DUP3 PUSH1 0x5 MUL DUP3 ADD DUP2 LT PUSH2 0x38F5 JUMPI POP POP PUSH2 0x2FA2 JUMP JUMPDEST DUP1 PUSH2 0x3901 PUSH1 0x5 SWAP3 PUSH2 0x2BB4 JUMP JUMPDEST PUSH1 0x0 PUSH1 0x1 DUP3 ADD SSTORE PUSH2 0x3914 PUSH1 0x2 DUP3 ADD PUSH2 0x2BB4 JUMP JUMPDEST PUSH2 0x3920 PUSH1 0x3 DUP3 ADD PUSH2 0x2BB4 JUMP JUMPDEST PUSH2 0x392C PUSH1 0x4 DUP3 ADD PUSH2 0x2BB4 JUMP JUMPDEST ADD PUSH2 0x38E2 JUMP JUMPDEST ADD MLOAD SWAP1 POP CODESIZE DUP1 PUSH2 0x2F64 JUMP JUMPDEST SWAP3 POP PUSH1 0x5 DUP6 ADD PUSH1 0x0 MSTORE PUSH1 0x20 PUSH1 0x0 KECCAK256 SWAP1 PUSH1 0x0 SWAP4 JUMPDEST PUSH1 0x1F NOT DUP5 AND DUP6 LT PUSH2 0x3994 JUMPI PUSH1 0x1 SWAP5 POP DUP4 PUSH1 0x1F NOT DUP2 AND LT PUSH2 0x397B JUMPI JUMPDEST POP POP POP DUP2 SHL ADD PUSH1 0x5 DUP4 ADD SSTORE PUSH2 0x2F7C JUMP JUMPDEST ADD MLOAD PUSH1 0x0 NOT PUSH1 0xF8 DUP5 PUSH1 0x3 SHL AND SHR NOT AND SWAP1 SSTORE CODESIZE DUP1 DUP1 PUSH2 0x396B JUMP JUMPDEST DUP2 DUP2 ADD MLOAD DUP4 SSTORE PUSH1 0x20 SWAP5 DUP6 ADD SWAP5 PUSH1 0x1 SWAP1 SWAP4 ADD SWAP3 SWAP1 SWAP2 ADD SWAP1 PUSH2 0x3950 JUMP JUMPDEST ADD MLOAD SWAP1 POP CODESIZE DUP1 PUSH2 0x2F04 JUMP JUMPDEST SWAP3 POP PUSH1 0x4 DUP6 ADD PUSH1 0x0 MSTORE PUSH1 0x20 PUSH1 0x0 KECCAK256 SWAP1 PUSH1 0x0 SWAP4 JUMPDEST PUSH1 0x1F NOT DUP5 AND DUP6 LT PUSH2 0x3A11 JUMPI PUSH1 0x1 SWAP5 POP DUP4 PUSH1 0x1F NOT DUP2 AND LT PUSH2 0x39F8 JUMPI JUMPDEST POP POP POP DUP2 SHL ADD PUSH1 0x4 DUP4 ADD SSTORE PUSH2 0x2F1C JUMP JUMPDEST ADD MLOAD PUSH1 0x0 NOT PUSH1 0xF8 DUP5 PUSH1 0x3 SHL AND SHR NOT AND SWAP1 SSTORE CODESIZE DUP1 DUP1 PUSH2 0x39E8 JUMP JUMPDEST DUP2 DUP2 ADD MLOAD DUP4 SSTORE PUSH1 0x20 SWAP5 DUP6 ADD SWAP5 PUSH1 0x1 SWAP1 SWAP4 ADD SWAP3 SWAP1 SWAP2 ADD SWAP1 PUSH2 0x39CD JUMP JUMPDEST ADD MLOAD SWAP1 POP CODESIZE DUP1 PUSH2 0x2EA4 JUMP JUMPDEST SWAP3 POP PUSH1 0x3 DUP6 ADD PUSH1 0x0 MSTORE PUSH1 0x20 PUSH1 0x0 KECCAK256 SWAP1 PUSH1 0x0 SWAP4 JUMPDEST PUSH1 0x1F NOT DUP5 AND DUP6 LT PUSH2 0x3A8E JUMPI PUSH1 0x1 SWAP5 POP DUP4 PUSH1 0x1F NOT DUP2 AND LT PUSH2 0x3A75 JUMPI JUMPDEST POP POP POP DUP2 SHL ADD PUSH1 0x3 DUP4 ADD SSTORE PUSH2 0x2EBC JUMP JUMPDEST ADD MLOAD PUSH1 0x0 NOT PUSH1 0xF8 DUP5 PUSH1 0x3 SHL AND SHR NOT AND SWAP1 SSTORE CODESIZE DUP1 DUP1 PUSH2 0x3A65 JUMP JUMPDEST DUP2 DUP2 ADD MLOAD DUP4 SSTORE PUSH1 0x20 SWAP5 DUP6 ADD SWAP5 PUSH1 0x1 SWAP1 SWAP4 ADD SWAP3 SWAP1 SWAP2 ADD SWAP1 PUSH2 0x3A4A JUMP JUMPDEST ADD MLOAD SWAP1 POP CODESIZE DUP1 PUSH2 0x2E44 JUMP JUMPDEST SWAP3 POP PUSH1 0x2 DUP6 ADD PUSH1 0x0 MSTORE PUSH1 0x20 PUSH1 0x0 KECCAK256 SWAP1 PUSH1 0x0 SWAP4 JUMPDEST PUSH1 0x1F NOT DUP5 AND DUP6 LT PUSH2 0x3B0B JUMPI PUSH1 0x1 SWAP5 POP DUP4 PUSH1 0x1F NOT DUP2 AND LT PUSH2 0x3AF2 JUMPI JUMPDEST POP POP POP DUP2 SHL ADD PUSH1 0x2 DUP4 ADD SSTORE PUSH2 0x2E5C JUMP JUMPDEST ADD MLOAD PUSH1 0x0 NOT PUSH1 0xF8 DUP5 PUSH1 0x3 SHL AND SHR NOT AND SWAP1 SSTORE CODESIZE DUP1 DUP1 PUSH2 0x3AE2 JUMP JUMPDEST DUP2 DUP2 ADD MLOAD DUP4 SSTORE PUSH1 0x20 SWAP5 DUP6 ADD SWAP5 PUSH1 0x1 SWAP1 SWAP4 ADD SWAP3 SWAP1 SWAP2 ADD SWAP1 PUSH2 0x3AC7 JUMP JUMPDEST ADD MLOAD SWAP1 POP CODESIZE DUP1 PUSH2 0x2DCC JUMP JUMPDEST SWAP3 POP DUP5 PUSH1 0x0 MSTORE PUSH1 0x20 PUSH1 0x0 KECCAK256 SWAP1 PUSH1 0x0 SWAP4 JUMPDEST PUSH1 0x1F NOT DUP5 AND DUP6 LT PUSH2 0x3B82 JUMPI PUSH1 0x1 SWAP5 POP DUP4 PUSH1 0x1F NOT DUP2 AND LT PUSH2 0x3B69 JUMPI JUMPDEST POP POP POP DUP2 SHL ADD DUP3 SSTORE PUSH2 0x2DE1 JUMP JUMPDEST ADD MLOAD PUSH1 0x0 NOT PUSH1 0xF8 DUP5 PUSH1 0x3 SHL AND SHR NOT AND SWAP1 SSTORE CODESIZE DUP1 DUP1 PUSH2 0x3B5C JUMP JUMPDEST DUP2 DUP2 ADD MLOAD DUP4 SSTORE PUSH1 0x20 SWAP5 DUP6 ADD SWAP5 PUSH1 0x1 SWAP1 SWAP4 ADD SWAP3 SWAP1 SWAP2 ADD SWAP1 PUSH2 0x3B41 JUMP JUMPDEST ISZERO PUSH2 0x3BA4 JUMPI JUMP JUMPDEST PUSH1 0x40 MLOAD PUSH3 0x461BCD PUSH1 0xE5 SHL DUP2 MSTORE PUSH1 0x20 PUSH1 0x4 DUP3 ADD MSTORE PUSH1 0x12 PUSH1 0x24 DUP3 ADD MSTORE PUSH18 0x14D8DA195B58481B9BDD081919599A5B9959 PUSH1 0x72 SHL PUSH1 0x44 DUP3 ADD MSTORE PUSH1 0x64 SWAP1 REVERT JUMPDEST SWAP1 PUSH1 0x40 SWAP2 DUP3 MLOAD SWAP3 PUSH2 0x3BEE DUP5 PUSH2 0x2333 JUMP JUMPDEST DUP4 DUP2 MLOAD PUSH2 0x3BFF DUP2 PUSH2 0x5F7 DUP2 DUP8 PUSH2 0x28A2 JUMP JUMPDEST DUP2 MSTORE PUSH1 0x1 DUP4 ADD SLOAD SWAP3 PUSH1 0xFF DUP5 AND SWAP1 PUSH1 0xA DUP3 LT ISZERO PUSH2 0x23FC JUMPI PUSH2 0x3C6E PUSH1 0xA0 SWAP5 PUSH1 0xFF PUSH1 0x4 SWAP8 PUSH2 0x3C75 SWAP6 PUSH1 0x20 DUP9 ADD MSTORE PUSH1 0x8 SHR AND ISZERO ISZERO DUP2 DUP7 ADD MSTORE DUP1 MLOAD PUSH2 0x3C46 DUP2 PUSH2 0x5F7 DUP2 PUSH1 0x2 DUP9 ADD PUSH2 0x28A2 JUMP JUMPDEST PUSH1 0x60 DUP7 ADD MSTORE DUP1 MLOAD PUSH2 0x3C5E DUP2 PUSH2 0x5F7 DUP2 PUSH1 0x3 DUP9 ADD PUSH2 0x28A2 JUMP JUMPDEST PUSH1 0x80 DUP7 ADD MSTORE MLOAD DUP1 SWAP7 DUP2 SWAP4 ADD PUSH2 0x28A2 JUMP JUMPDEST SUB DUP5 PUSH2 0x236A JUMP JUMPDEST ADD MSTORE JUMP JUMPDEST SWAP1 DUP2 SLOAD PUSH2 0x3C85 DUP2 PUSH2 0x2455 JUMP JUMPDEST SWAP3 PUSH1 0x40 SWAP4 PUSH2 0x3C95 DUP6 MLOAD SWAP2 DUP3 PUSH2 0x236A JUMP JUMPDEST DUP3 DUP2 MSTORE DUP1 SWAP5 PUSH1 0x20 DUP1 SWAP3 ADD SWAP3 PUSH1 0x0 MSTORE DUP2 PUSH1 0x0 KECCAK256 SWAP1 PUSH1 0x0 SWAP4 JUMPDEST DUP6 DUP6 LT PUSH2 0x3CBB JUMPI POP POP POP POP POP POP JUMP JUMPDEST PUSH1 0x1 DUP5 DUP2 SWAP3 DUP5 MLOAD PUSH2 0x3CD0 DUP2 PUSH2 0x5F7 DUP2 DUP11 PUSH2 0x28A2 JUMP JUMPDEST DUP2 MSTORE ADD SWAP4 ADD SWAP5 ADD SWAP4 SWAP2 PUSH2 0x3CAC JUMP JUMPDEST ISZERO PUSH2 0x3CE5 JUMPI JUMP JUMPDEST PUSH1 0x40 MLOAD PUSH3 0x461BCD PUSH1 0xE5 SHL DUP2 MSTORE PUSH1 0x20 PUSH1 0x4 DUP3 ADD MSTORE PUSH1 0x1B PUSH1 0x24 DUP3 ADD MSTORE PUSH32 0x4465736372697074696F6E2063616E6E6F7420626520656D7074790000000000 PUSH1 0x44 DUP3 ADD MSTORE PUSH1 0x64 SWAP1 REVERT JUMPDEST ISZERO PUSH2 0x3D31 JUMPI JUMP JUMPDEST PUSH1 0x40 MLOAD PUSH3 0x461BCD PUSH1 0xE5 SHL DUP2 MSTORE PUSH1 0x20 PUSH1 0x4 DUP3 ADD MSTORE PUSH1 0x17 PUSH1 0x24 DUP3 ADD MSTORE PUSH32 0x56657273696F6E2063616E6E6F7420626520656D707479000000000000000000 PUSH1 0x44 DUP3 ADD MSTORE PUSH1 0x64 SWAP1 REVERT JUMPDEST ISZERO PUSH2 0x3D7D JUMPI JUMP JUMPDEST PUSH1 0x40 MLOAD PUSH3 0x461BCD PUSH1 0xE5 SHL DUP2 MSTORE PUSH1 0x20 PUSH1 0x4 DUP3 ADD MSTORE PUSH1 0x23 PUSH1 0x24 DUP3 ADD MSTORE PUSH32 0x536368656D61206D7573742068617665206174206C65617374206F6E65206669 PUSH1 0x44 DUP3 ADD MSTORE PUSH3 0x195B19 PUSH1 0xEA SHL PUSH1 0x64 DUP3 ADD MSTORE PUSH1 0x84 SWAP1 REVERT JUMPDEST DUP1 ISZERO PUSH2 0x2C8F JUMPI PUSH1 0x0 NOT ADD SWAP1 JUMP JUMPDEST SWAP1 DUP1 DUP3 EQ PUSH2 0x3EB5 JUMPI PUSH2 0x3DED DUP2 SLOAD PUSH2 0x2868 JUMP JUMPDEST SWAP1 PUSH1 0x1 PUSH1 0x1 PUSH1 0x40 SHL SUB DUP3 GT PUSH2 0x129A JUMPI DUP2 SWAP1 PUSH2 0x3E12 DUP3 PUSH2 0x3E0C DUP7 SLOAD PUSH2 0x2868 JUMP JUMPDEST DUP7 PUSH2 0x2B55 JUMP JUMPDEST PUSH1 0x0 SWAP1 PUSH1 0x1F DUP4 GT PUSH1 0x1 EQ PUSH2 0x3E49 JUMPI PUSH1 0x0 SWAP3 PUSH2 0x3E3E JUMPI JUMPDEST POP POP DUP2 PUSH1 0x1 SHL SWAP2 PUSH1 0x0 NOT SWAP1 PUSH1 0x3 SHL SHR NOT AND OR SWAP1 SSTORE JUMP JUMPDEST ADD SLOAD SWAP1 POP CODESIZE DUP1 PUSH2 0x3E28 JUMP JUMPDEST DUP2 MSTORE PUSH1 0x20 DUP1 DUP3 KECCAK256 DUP6 DUP4 MSTORE DUP2 DUP4 KECCAK256 SWAP4 POP SWAP1 PUSH1 0x1F NOT DUP6 AND SWAP1 DUP4 SWAP1 JUMPDEST DUP3 DUP3 LT PUSH2 0x3E9C JUMPI POP POP SWAP1 DUP5 PUSH1 0x1 SWAP6 SWAP5 SWAP4 SWAP3 LT PUSH2 0x3E83 JUMPI JUMPDEST POP POP POP DUP2 SHL ADD SWAP1 SSTORE JUMP JUMPDEST ADD SLOAD PUSH1 0x0 NOT PUSH1 0xF8 DUP5 PUSH1 0x3 SHL AND SHR NOT AND SWAP1 SSTORE CODESIZE DUP1 DUP1 PUSH2 0x3E79 JUMP JUMPDEST DUP5 SWAP6 DUP2 SWAP3 SWAP6 DUP6 ADD SLOAD DUP2 SSTORE PUSH1 0x1 DUP1 SWAP2 ADD SWAP7 ADD SWAP5 ADD SWAP1 PUSH2 0x3E62 JUMP JUMPDEST POP POP JUMP JUMPDEST SWAP1 PUSH1 0x40 DUP1 MLOAD DUP4 MLOAD SWAP2 PUSH1 0x20 SWAP1 DUP2 DUP7 ADD SWAP4 PUSH2 0x3ED3 DUP2 DUP6 DUP8 PUSH2 0x27AB JUMP JUMPDEST DUP4 ADD SWAP3 DUP3 DUP2 PUSH1 0x2 SWAP6 DUP7 DUP2 MSTORE SUB ADD SWAP1 KECCAK256 SWAP4 PUSH2 0x3EEE PUSH1 0xB SLOAD PUSH2 0x3DCE JUMP JUMPDEST PUSH1 0xB SSTORE DUP4 PUSH1 0x1 SWAP6 PUSH2 0x3F04 PUSH1 0xFF DUP9 DUP4 ADD SLOAD AND PUSH2 0x284F JUMP JUMPDEST PUSH2 0x3F0E DUP2 SLOAD PUSH2 0x3DCE JUMP JUMPDEST SWAP1 SSTORE ADD SWAP4 DUP3 MLOAD DUP5 DUP2 PUSH1 0x0 DUP9 SLOAD PUSH2 0x3F23 DUP2 PUSH2 0x2868 JUMP JUMPDEST SWAP1 DUP12 DUP2 AND SWAP1 DUP2 ISZERO PUSH2 0x42F8 JUMPI POP PUSH1 0x1 EQ PUSH2 0x42C0 JUMPI JUMPDEST POP PUSH1 0xD DUP2 MSTORE SUB ADD SWAP1 KECCAK256 PUSH2 0x3F4A DUP2 SLOAD PUSH2 0x3DCE JUMP JUMPDEST SWAP1 SSTORE DUP3 MLOAD SWAP2 DUP9 MLOAD PUSH2 0x3F5C DUP2 DUP6 DUP5 PUSH2 0x27AB JUMP JUMPDEST DUP4 ADD SWAP3 DUP6 DUP2 PUSH1 0x3 SWAP6 DUP7 DUP2 MSTORE SUB ADD SWAP1 KECCAK256 SWAP9 PUSH1 0xFF NOT SWAP10 DUP11 DUP2 SLOAD AND SWAP1 SSTORE DUP5 MLOAD SWAP5 DUP2 MLOAD PUSH2 0x3F86 DUP2 DUP9 DUP7 PUSH2 0x27AB JUMP JUMPDEST DUP7 ADD SWAP6 DUP8 DUP2 PUSH1 0x4 SWAP9 DUP10 DUP2 MSTORE SUB ADD SWAP1 KECCAK256 DUP12 DUP2 SLOAD AND SWAP1 SSTORE DUP1 MLOAD PUSH1 0x0 SWAP9 DUP1 SLOAD PUSH2 0x3FAB DUP2 PUSH2 0x2868 JUMP JUMPDEST SWAP14 DUP2 DUP14 AND SWAP2 DUP3 ISZERO PUSH2 0x42A9 JUMPI POP POP PUSH1 0x1 EQ PUSH2 0x4273 JUMPI JUMPDEST POP DUP10 SWAP11 SWAP12 POP DUP8 DUP2 PUSH1 0x5 SWAP11 DUP12 DUP2 MSTORE SUB ADD SWAP1 KECCAK256 DUP10 PUSH1 0x0 SWAP1 JUMPDEST PUSH2 0x410F JUMPI JUMPDEST POP POP DUP7 SWAP8 SWAP9 POP SWAP1 PUSH2 0x3FFA SWAP4 SWAP5 SWAP6 SWAP7 SWAP3 SWAP2 MLOAD SWAP4 DUP5 SWAP3 DUP4 SWAP3 MLOAD SWAP3 DUP4 SWAP2 PUSH2 0x27AB JUMP JUMPDEST DUP2 ADD DUP5 DUP2 MSTORE SUB ADD SWAP1 KECCAK256 SWAP6 PUSH2 0x400D DUP8 PUSH2 0x2BB4 JUMP JUMPDEST PUSH1 0x0 DUP2 DUP9 ADD SSTORE PUSH2 0x401E DUP3 DUP9 ADD PUSH2 0x2BB4 JUMP JUMPDEST PUSH2 0x4029 DUP4 DUP9 ADD PUSH2 0x2BB4 JUMP JUMPDEST PUSH2 0x4034 DUP5 DUP9 ADD PUSH2 0x2BB4 JUMP JUMPDEST PUSH2 0x403F DUP7 DUP9 ADD PUSH2 0x2BB4 JUMP JUMPDEST PUSH1 0x6 DUP8 ADD SWAP5 DUP6 SLOAD SWAP6 PUSH1 0x0 DUP2 SSTORE DUP7 PUSH2 0x409E JUMPI JUMPDEST POP POP POP POP POP POP POP POP PUSH1 0xD DUP2 PUSH2 0x406B PUSH1 0x7 PUSH2 0x2B90 SWAP5 ADD PUSH2 0x2BFD JUMP JUMPDEST PUSH2 0x4077 PUSH1 0x8 DUP3 ADD PUSH2 0x2BFD JUMP JUMPDEST PUSH1 0x0 PUSH1 0x9 DUP3 ADD SSTORE PUSH1 0x0 PUSH1 0xA DUP3 ADD SSTORE PUSH1 0x0 PUSH1 0xB DUP3 ADD SSTORE PUSH2 0x4098 PUSH1 0xC DUP3 ADD PUSH2 0x2BB4 JUMP JUMPDEST ADD PUSH2 0x2BB4 JUMP JUMPDEST DUP7 DUP9 MUL SWAP7 DUP9 DUP9 DIV SUB PUSH2 0x40FA JUMPI PUSH1 0x0 MSTORE PUSH1 0x0 KECCAK256 SWAP5 DUP6 ADD SWAP5 JUMPDEST DUP6 DUP2 LT PUSH2 0x40C2 JUMPI DUP1 PUSH2 0x4051 JUMP JUMPDEST DUP1 PUSH2 0x40CD DUP9 SWAP3 PUSH2 0x2BB4 JUMP JUMPDEST PUSH1 0x0 DUP4 DUP3 ADD SSTORE PUSH2 0x40DE DUP5 DUP3 ADD PUSH2 0x2BB4 JUMP JUMPDEST PUSH2 0x40E9 DUP6 DUP3 ADD PUSH2 0x2BB4 JUMP JUMPDEST PUSH2 0x40F4 DUP7 DUP3 ADD PUSH2 0x2BB4 JUMP JUMPDEST ADD PUSH2 0x40B5 JUMP JUMPDEST PUSH1 0x11 DUP7 PUSH4 0x4E487B71 PUSH1 0xE0 SHL PUSH1 0x0 MSTORE MSTORE PUSH1 0x24 PUSH1 0x0 REVERT JUMPDEST DUP2 SLOAD DUP1 DUP3 LT ISZERO PUSH2 0x426D JUMPI PUSH2 0x5F7 PUSH2 0x4135 PUSH2 0x4129 DUP5 DUP7 PUSH2 0x2969 JUMP JUMPDEST POP DUP7 MLOAD SWAP3 DUP4 DUP1 SWAP3 PUSH2 0x28A2 JUMP JUMPDEST DUP11 DUP2 MLOAD SWAP2 ADD KECCAK256 DUP6 MLOAD DUP8 KECCAK256 EQ PUSH2 0x4154 JUMPI POP PUSH2 0x414E SWAP1 PUSH2 0x2C80 JUMP JUMPDEST DUP11 PUSH2 0x3FD6 JUMP JUMPDEST SWAP2 SWAP3 SWAP4 SWAP5 SWAP6 SWAP7 SWAP8 SWAP9 SWAP10 SWAP11 POP PUSH1 0x0 NOT SWAP2 DUP3 DUP2 ADD SWAP1 DUP2 GT PUSH2 0x4258 JUMPI PUSH2 0x417A PUSH2 0x4182 SWAP2 DUP6 PUSH2 0x2969 JUMP JUMPDEST POP SWAP2 DUP5 PUSH2 0x2969 JUMP JUMPDEST PUSH2 0x4244 JUMPI SWAP1 PUSH2 0x4190 SWAP2 PUSH2 0x3DDB JUMP JUMPDEST DUP2 SLOAD DUP1 ISZERO PUSH2 0x422F JUMPI ADD SWAP1 PUSH2 0x41A4 DUP3 DUP3 PUSH2 0x2969 JUMP JUMPDEST PUSH2 0x421B JUMPI SWAP2 PUSH2 0x3FFA SWAP6 SWAP4 SWAP2 DUP12 DUP5 DUP15 PUSH2 0x41BE DUP15 SWAP10 SWAP8 SLOAD PUSH2 0x2868 JUMP JUMPDEST SWAP1 DUP2 PUSH2 0x41D9 JUMPI JUMPDEST POP POP POP POP SSTORE SWAP1 SWAP2 SWAP3 SWAP7 SWAP6 SWAP5 SWAP4 DUP11 SWAP10 SWAP9 PUSH2 0x3FDB JUMP JUMPDEST PUSH1 0x0 SWAP4 PUSH1 0x1F DUP1 DUP5 GT PUSH1 0x1 EQ PUSH2 0x41F7 JUMPI POP POP POP POP SSTORE JUMPDEST DUP12 CODESIZE DUP1 DUP16 PUSH2 0x41C5 JUMP JUMPDEST SWAP2 PUSH2 0x4214 SWAP2 DUP6 SWAP4 DUP8 SWAP6 SWAP7 DUP7 MSTORE DUP14 DUP7 KECCAK256 SWAP7 ADD SWAP1 SHR DUP6 ADD SWAP1 DUP6 ADD PUSH2 0x2B3E JUMP JUMPDEST SSTORE SSTORE PUSH2 0x41EE JUMP JUMPDEST PUSH1 0x0 DUP10 PUSH4 0x4E487B71 PUSH1 0xE0 SHL DUP3 MSTORE MSTORE PUSH1 0x24 PUSH1 0x0 REVERT JUMPDEST PUSH1 0x31 DUP10 PUSH4 0x4E487B71 PUSH1 0xE0 SHL PUSH1 0x0 MSTORE MSTORE PUSH1 0x24 PUSH1 0x0 REVERT JUMPDEST PUSH1 0x0 DUP11 PUSH4 0x4E487B71 PUSH1 0xE0 SHL DUP3 MSTORE MSTORE PUSH1 0x24 PUSH1 0x0 REVERT JUMPDEST PUSH1 0x11 DUP11 PUSH4 0x4E487B71 PUSH1 0xE0 SHL PUSH1 0x0 MSTORE MSTORE PUSH1 0x24 PUSH1 0x0 REVERT JUMPDEST POP PUSH2 0x3FDB JUMP JUMPDEST SWAP1 SWAP9 POP PUSH1 0x0 MSTORE DUP7 PUSH1 0x0 KECCAK256 SWAP11 PUSH1 0x0 SWAP12 JUMPDEST DUP2 DUP14 LT PUSH2 0x4298 JUMPI POP DUP10 SWAP11 SWAP12 POP DUP9 ADD SWAP8 DUP12 SWAP11 PUSH2 0x3FC0 JUMP JUMPDEST DUP1 SLOAD DUP11 DUP15 ADD MSTORE SWAP12 DUP9 ADD SWAP12 DUP11 ADD PUSH2 0x4282 JUMP JUMPDEST AND DUP4 MSTORE POP SWAP11 SWAP12 DUP13 SWAP12 POP DUP1 ISZERO ISZERO MUL DUP2 ADD SWAP9 POP DUP10 PUSH2 0x3FC0 JUMP JUMPDEST SWAP1 POP DUP9 PUSH1 0x0 MSTORE DUP3 PUSH1 0x0 KECCAK256 DUP11 PUSH1 0x0 SWAP2 JUMPDEST DUP4 DUP4 LT PUSH2 0x42E1 JUMPI POP POP POP DUP2 ADD CODESIZE PUSH2 0x3F37 JUMP JUMPDEST DUP1 SLOAD DUP8 DUP5 ADD MSTORE DUP11 SWAP6 DUP8 SWAP6 POP SWAP1 SWAP3 ADD SWAP2 DUP13 SWAP2 ADD PUSH2 0x42CF JUMP JUMPDEST PUSH1 0xFF NOT AND DUP5 MSTORE POP DUP1 ISZERO ISZERO MUL DUP3 ADD SWAP1 POP CODESIZE PUSH2 0x3F37 JUMP JUMPDEST SWAP1 PUSH2 0x4317 DUP3 PUSH2 0x2455 JUMP JUMPDEST PUSH2 0x4324 PUSH1 0x40 MLOAD SWAP2 DUP3 PUSH2 0x236A JUMP JUMPDEST DUP3 DUP2 MSTORE DUP1 SWAP3 PUSH2 0x4335 PUSH1 0x1F NOT SWAP2 PUSH2 0x2455 JUMP JUMPDEST ADD SWAP1 PUSH1 0x0 JUMPDEST DUP3 DUP2 LT PUSH2 0x4346 JUMPI POP POP POP JUMP JUMPDEST DUP1 PUSH1 0x60 PUSH1 0x20 DUP1 SWAP4 DUP6 ADD ADD MSTORE ADD PUSH2 0x433A JUMP JUMPDEST DUP1 SLOAD DUP3 LT ISZERO PUSH2 0x2981 JUMPI PUSH1 0x0 MSTORE PUSH1 0x5 PUSH1 0x20 PUSH1 0x0 KECCAK256 SWAP2 MUL ADD SWAP1 PUSH1 0x0 SWAP1 JUMP JUMPDEST SWAP2 SWAP1 SWAP2 POP PUSH1 0x40 SWAP1 DUP2 MLOAD DUP4 DUP2 DUP1 SWAP6 MLOAD PUSH2 0x4391 DUP2 PUSH1 0x20 SWAP9 DUP10 DUP1 SWAP7 ADD PUSH2 0x27AB JUMP JUMPDEST PUSH1 0x2 SWAP1 DUP3 ADD SWAP1 DUP2 MSTORE SUB ADD SWAP1 KECCAK256 PUSH1 0x6 ADD DUP1 SLOAD SWAP2 PUSH1 0x0 JUMPDEST DUP4 DUP2 LT PUSH2 0x43E3 JUMPI DUP5 MLOAD PUSH3 0x461BCD PUSH1 0xE5 SHL DUP2 MSTORE PUSH1 0x4 DUP2 ADD DUP8 SWAP1 MSTORE PUSH1 0xF PUSH1 0x24 DUP3 ADD MSTORE PUSH15 0x119A595B19081B9BDD08199BDD5B99 PUSH1 0x8A SHL PUSH1 0x44 DUP3 ADD MSTORE PUSH1 0x64 SWAP1 REVERT JUMPDEST PUSH2 0x5F7 PUSH2 0x43FF PUSH2 0x43F3 DUP4 DUP7 PUSH2 0x4357 JUMP JUMPDEST POP DUP8 MLOAD SWAP3 DUP4 DUP1 SWAP3 PUSH2 0x28A2 JUMP JUMPDEST DUP7 DUP2 MLOAD SWAP2 ADD KECCAK256 DUP3 MLOAD DUP8 DUP5 ADD KECCAK256 EQ PUSH2 0x441E JUMPI PUSH2 0x4419 SWAP1 PUSH2 0x2C80 JUMP JUMPDEST PUSH2 0x43A6 JUMP JUMPDEST SWAP3 POP POP PUSH2 0x23EC SWAP4 POP PUSH2 0x4430 SWAP3 POP PUSH2 0x4357 JUMP JUMPDEST POP PUSH2 0x3BDE JUMP JUMPDEST PUSH1 0x40 SWAP2 DUP3 MLOAD DUP3 DUP2 DUP1 SWAP5 MLOAD PUSH2 0x4450 DUP2 PUSH1 0x20 SWAP8 DUP9 DUP1 SWAP7 ADD PUSH2 0x27AB JUMP JUMPDEST DUP2 ADD PUSH1 0x2 DUP2 MSTORE SUB ADD SWAP1 KECCAK256 SWAP3 PUSH1 0x6 PUSH1 0x0 SWAP5 ADD DUP1 SLOAD SWAP5 JUMPDEST DUP6 DUP2 LT PUSH2 0x4477 JUMPI POP POP POP POP POP POP PUSH1 0x0 SWAP1 JUMP JUMPDEST PUSH2 0x5F7 PUSH2 0x4493 PUSH2 0x4487 DUP4 DUP6 PUSH2 0x4357 JUMP JUMPDEST POP DUP6 MLOAD SWAP3 DUP4 DUP1 SWAP3 PUSH2 0x28A2 JUMP JUMPDEST DUP6 DUP2 MLOAD SWAP2 ADD KECCAK256 DUP5 MLOAD DUP7 DUP7 ADD KECCAK256 EQ PUSH2 0x44B2 JUMPI PUSH2 0x44AD SWAP1 PUSH2 0x2C80 JUMP JUMPDEST PUSH2 0x4465 JUMP JUMPDEST POP POP POP POP POP POP PUSH1 0x1 SWAP1 JUMP JUMPDEST DUP1 MLOAD DUP3 LT ISZERO PUSH2 0x2981 JUMPI PUSH1 0x20 SWAP2 PUSH1 0x5 SHL ADD ADD SWAP1 JUMP INVALID LOG2 PUSH5 0x6970667358 0x22 SLT KECCAK256 AND DUP12 0xC 0xA5 0xEF MSTORE 0xE DUP12 SWAP16 0xC9 PUSH11 0x5E1979CAED9C441E7193B6 0xC6 PUSH14 0xB7C5E6AA87AE802A64736F6C6343 STOP ADDMOD SGT STOP CALLER PUSH9 0x747470733A2F2F646F PUSH4 0x732E6461 PUSH16 0x2D72656769737472792E636F6D2F7363 NUMBER PUSH16 0x72652044414F20436F6D706F6E656E74 PUSH20 0xBC5E30B99F14BB RETURN 0xD5 SWAP13 DUP13 0xF7 0xAC LOG1 PUSH12 0x6CD889C273F13C2C4854E4D7 PUSH1 0x96 SWAP16 SMOD PUSH7 0x0 "},"deployedBytecode":{"immutableReferences":{},"linkReferences":{},"object":"608080604052600436101561001357600080fd5b60003560e01c9081630a2eb301146122bd57508063137be5b214610baa57806314d0f1ba1461227a5780632cf52fe81461223e5780632d1d70de146121ac5780632db74af31461213e578063372d6b27146120725780633d4fcbe61461204057806341c260dd14611f7c57806344aca90414611f4b57806348c7dc9214611eed5780634a4e3bd514611c945780634f471e8f14611d1257806350910ad614611cad57806351858e2714611c9457806354874b2b14611b6057806368fa813414611ad4578063715018a614611a7b57806376be158514611a38578063780aac03146119f55780637a327d94146119ac578063869d785f1461194a5780638da5cb5b146119215780639b1c7ca6146116d6578063ab0602cf14610e0f578063ad7159cb14610b49578063ae2251e814610d1c578063b03c206a14610cdc578063b532e4cb14610c77578063b544c08314610bfd578063b7b05f1614610baa578063b8acb00814610b49578063b8c7724a14610b2b578063bc7efc5f14610a72578063c999117614610a29578063d3ed5a11146109a0578063e81ee43e146108e9578063f1a03f1b146104f6578063f23378ca146103a6578063f2fde38b146102db578063f9244dd71461026a5763fa6f3936146101ed57600080fd5b34610265576020366003190112610265576004356001600160a01b038181169182900361026557816020926000526009835260ff60406000205416918215610251575b8215610243575b50506040519015158152f35b600054161490503880610237565b6008845260406000205460ff169250610230565b600080fd5b34610265576020366003190112610265576004356001600160a01b0381811691829003610265576102b59033600052600860205260ff604060002054169081156102cd575b50612a64565b6000908152600a60205260409020805460ff19169055005b6000541633149050836102af565b34610265576020366003190112610265576004356001600160a01b03818116918290036102655761030a612a0c565b811561035257600054826bffffffffffffffffffffffff60a01b821617600055167f8be0079c531659141344cd1fd0a4f28419497f9722a3daafe3b4186f6b6457e0600080a3005b60405162461bcd60e51b815260206004820152602660248201527f4f776e61626c653a206e6577206f776e657220697320746865207a65726f206160448201526564647265737360d01b6064820152608490fd5b34610265576103b4366124ec565b95809a98999795919594929433600052600860205260ff6040600020541680156104e2575b6103e290612a64565b6040518a51908060208d01926103f98183866127ab565b8101600381520360200190205460ff1661041290613b9d565b8251151561041f90613d2a565b8151151561042c90613cde565b8451151561043990613d76565b6040518080928d51809261044c926127ab565b8101600281520360200190206004019a60405161046a81809e6128a2565b03610475908d61236a565b61047e8b613eb9565b610488998b612cc5565b61049190612ca5565b90604051809160408252604082016104a8916127ce565b93818503602083015233946104bc916127ce565b037f13b0fe0315832ca9294aebfaec7c66b0a8fa8abf1458e42623de230a1c00d30091a3005b506000546001600160a01b031633146103d9565b34610265576020366003190112610265576004356001600160401b03811161026557602061052b6105cf9236906004016123d1565b60606101a060405161053c8161234e565b82815260008582015282604082015282808201528260808201528260a08201528260c08201528260e082015282610100820152600061012082015260006101408201526000610160820152826101808201520152604051906105be60ff8251938581818601966105ad81838a6127ab565b810160038152030190205416613b9d565b6040519384928392519283916127ab565b81016002815203019020604051906105e68261234e565b6040516105fe816105f781856128a2565b038261236a565b825261061460ff60018301541660208401612b32565b604051610628816105f781600286016128a2565b6040830152604051610641816105f781600386016128a2565b606083015260405161065a816105f781600486016128a2565b6080830152604051610673816105f781600586016128a2565b60a083015260068101805461068781612455565b91610695604051938461236a565b818352602083019060005260206000206000915b8383106108cb5786600d610730888860c08501526106c960078201613c79565b60e08501526106da60088201613c79565b61010085015260ff6009820154161515610120850152600a810154610140850152600b81015461016085015260405161071a816105f781600c86016128a2565b6101808501526105f760405180948193016128a2565b6101a08201526040518091602082526107cd6107b76107a161078b61076385516101c060208901526101e08801906127ce565b610775602087015160408901906123ef565b6040860151878203601f190160608901526127ce565b6060850151868203601f190160808801526127ce565b6080840151858203601f190160a08701526127ce565b60a0830151848203601f190160c08601526127ce565b60c082015190601f198482030160e0850152815180825260208201916020808360051b8301019401926000915b838310610898578780610894896101a061087f61084361082b8d60e0860151601f19898303016101008a01526127f3565b610100850151878203601f19016101208901526127f3565b6101208401511515610140870152610140840151610160870152610160840151610180870152610180840151601f1987830301848801526127ce565b910151838203601f19016101c08501526127ce565b0390f35b919395965091936020806108b8600193601f198682030187528951612997565b97019301930190928796959492936107fa565b600560206001926108db85613bde565b8152019201920191906106a9565b346102655761098a6108fa366124ec565b9998909897919796929695939533600052600860205260ff60406000205416801561098c575b61092990612a64565b61095560ff60405160208185516109438183858a016127ab565b81016003815203019020541615612aa1565b61096181511515612ae6565b61096d84511515613cde565b61097985511515613d2a565b61098587511515613d76565b612cc5565b005b506000546001600160a01b03163314610920565b346102655760206109c86109b336612938565b929081604051938285809451938492016127ab565b81016005815203019020908154811015610265576109e591612969565b610a13576105f76109ff61089492604051928380926128a2565b6040519182916020835260208301906127ce565b634e487b7160e01b600052600060045260246000fd5b34610265576020366003190112610265576004356001600160a01b0381169081900361026557610a57612a0c565b6000908152600860205260409020805460ff19166001179055005b34610265576020610a856109b336612938565b8101600681520301902090600052602052610af5604060002060405190610ab782610ab081846128a2565b038361236a565b60ff604051610acd816105f781600187016128a2565b600283015492610b03600460038301549201549260405197889760c0895260c08901906127ce565b9087820360208901526127ce565b936040860152606085015260018060a01b038116608085015260a01c16151560a08301520390f35b34610265576000366003190112610265576020600b54604051908152f35b34610265576020366003190112610265576004356001600160401b0381116102655760ff610b946020610b81819436906004016123d1565b81604051938285809451938492016127ab565b8101600381520301902054166040519015158152f35b34610265576020366003190112610265576004356001600160401b0381116102655760ff610be26020610b81819436906004016123d1565b810160048152030190205416610bfb60405180926123ef565bf35b3461026557610894610c63610c1136612412565b90604051610c1e81612333565b60608152600060208201526000604082015260608082015260606080820152606060a0820152610c5e60ff60405160208186516105ad8183858b016127ab565b614373565b604051918291602083526020830190612997565b34610265576020366003190112610265576004356001600160a01b038181169182900361026557610cc19033600052600860205260ff604060002054169081156102cd5750612a64565b6000908152600960205260409020805460ff19166001179055005b34610265576020610cef6109b336612938565b81016007815203019020805482101561026557602091610d0e91612969565b90546040519160031b1c8152f35b3461026557602080600319360112610265576004356001600160401b03811161026557610d4d9036906004016123d1565b336000526008825260ff604060002054168015610dfb575b610d6e90612a64565b7f6b8bc325ab87de6fd5db76a0ea6091f95b945ac6a07d14c92810ec1093d1fc94610df6610de26004610dd186604051610db760ff8951928481818d01956105ad8183896127ab565b610dc088613eb9565b604051809381928a519283916127ab565b810160028152030190200193612ca5565b9260405191829186835233968301906128a2565b0390a3005b506000546001600160a01b03163314610d65565b34610265576080366003190112610265576004356001600160401b03811161026557610e3f9036906004016123d1565b6024356001600160401b03811161026557610e5e9036906004016123d1565b6044356001600160401b03811161026557610e7d90369060040161246c565b906001600160401b0360643511610265573660236064350112156102655760643560040135610eab81612455565b90610eb9604051928361236a565b8082526020820180913660248260051b60643501011161026557602460643501915b60248260051b6064350101831061168a5750505033600052600a60205260ff604060002054168015611676575b8015611662575b801561164e575b610f1f90612a64565b610f4e60ff60405160208181610f3b8b838151938492016127ab565b6003818301528101030190205416613b9d565b83518251036116095760405190602080830152610f8082610f7260408201886127f3565b03601f19810184528361236a565b604051908160408101916020808301528551809352606082019260608160051b84010191936000905b8282106115dc57505050610fc6925003601f19810183528261236a565b61103960408051809360208201956020610fe68c898151938492016127ab565b8301895190610ffc828c602080850191016127ab565b0161101082518093602080850191016127ab565b0161102482518093602080850191016127ab565b0142602082015203602081018452018261236a565b519020926040519261104a84612317565b8584526020840152836040840152426060840152336080840152600160a084015260c083015260e0820152604051602081855161108a8183858a016127ab565b810160068152030190208260005260205260406000209080518051906001600160401b03821161129a5781906110ca826110c48754612868565b87612b55565b602090601f831160011461157057600092611565575b50508160011b916000199060031b1c19161782555b60208101518051906001600160401b03821161129a5781906111278261111e6001880154612868565b60018801612b55565b602090601f83116001146114f3576000926114e8575b50508160011b916000199060031b1c19161760018301555b60408101516002830155606081015160038301556004820160018060a01b0360808301511681549060ff60a01b60a0850151151560a01b16916affffffffffffffffffffff60a81b16171790556005820160c082015160208151916111ba8385612c37565b01916000526020600020916000905b82821061140b575050505060e00151805190600160401b821161129a576006830154826006850155808310611393575b5060206006910192016000526020600020916000905b8282106112b0578585604051602081845161122d81838589016127ab565b810160078152030190208054600160401b81101561129a5761125491600182018155612969565b81549060031b9083821b91600019901b19161790556112733392612ca5565b7fd43380d9043f9dc8fa2b83a8c42ddc2397ccb419725982a86e035c9b67153910600080a4005b634e487b7160e01b600052604160045260246000fd5b80518051906001600160401b03821161129a576112d7826112d18854612868565b88612b55565b602090601f8311600114611323579282600194936020938695600092611318575b5050600019600383901b1c191690841b1787555b0194019101909261120f565b015190508b806112f8565b908660005260206000209160005b601f198516811061137b575083602093600196938796938794601f19811610611362575b505050811b01875561130c565b015160001960f88460031b161c191690558b8080611355565b91926020600181928685015181550194019201611331565b600684016000526020600020908382015b81830181106113b45750506111f9565b806113c160019254612868565b806113ce575b50016113a4565b601f811183146113e45750600081555b896113c7565b600090828252611402601f60208420920160051c8201858301612b3e565b818355556113de565b80518051906001600160401b03821161129a5761142c826112d18854612868565b602090601f831160011461147857928260019493602093869560009261146d575b5050600019600383901b1c191690841b1787555b019401910190926111c9565b015190508d8061144d565b908660005260206000209160005b601f19851681106114d0575083602093600196938796938794601f198116106114b7575b505050811b018755611461565b015160001960f88460031b161c191690558d80806114aa565b91926020600181928685015181550194019201611486565b01519050868061113d565b9250600185016000526020600020906000935b601f198416851061154a576001945083601f19811610611531575b505050811b016001830155611155565b015160001960f88460031b161c19169055868080611521565b81810151835560209485019460019093019290910190611506565b0151905086806110e0565b9250846000526020600020906000935b601f19841685106115c1576001945083601f198116106115a8575b505050811b0182556110f5565b015160001960f88460031b161c1916905586808061159b565b81810151835560209485019460019093019290910190611580565b919350916020806115f9600193605f198a820301865288516127ce565b9601920192018593919492610fa9565b60405162461bcd60e51b815260206004820152601f60248201527f4669656c64206e616d657320616e642076616c756573206d69736d61746368006044820152606490fd5b506000546001600160a01b03163314610f16565b50600860205260ff60406000205416610f0f565b50600960205260ff60406000205416610f08565b8235906001600160401b0382116102655736604383606435010112156102655760249160209182916116c990369060643501808701359060440161238b565b8152019301929050610edb565b346102655760206117396116e936612938565b9290606060e06040516116fb81612317565b82815282858201526000604082015260008382015260006080820152600060a08201528260c0820152015281604051938285809451938492016127ab565b8101600681520301902090600052602052604060002060066040519161175e83612317565b60405161176f816105f781856128a2565b8352604051611785816105f781600186016128a2565b6020840152600281015460408401526003810154606084015260048101546001600160a01b038116608085015260a090811c60ff161515908401526117cc60058201613c79565b60c08401520180546117dd81612455565b916117eb604051938461236a565b818352602083019060005260206000206000915b8383106118fc57858560e082015260405180916020825261182e815161010060208501526101208401906127ce565b60e061189461184f602085015193601f1994858883030160408901526127ce565b604085015160608701526060850151608087015260018060a01b0360808601511660a087015260a0850151151560c087015260c08501518487830301848801526127f3565b920151918184820301610100850152825190818152602081016020808460051b8401019501936000925b8484106118cb5787870388f35b919395819395975060206118ea82600194868495030188528a516127ce565b980194019401918796959394916118be565b600160208192604051611913816105f781896128a2565b8152019201920191906117ff565b34610265576000366003190112610265576000546040516001600160a01b039091168152602090f35b34610265576020366003190112610265576004356001600160a01b0381811691829003610265576119949033600052600860205260ff604060002054169081156102cd5750612a64565b6000908152600960205260409020805460ff19169055005b34610265576020366003190112610265576004356001600160401b038111610265576119e26020610b81819336906004016123d1565b8101600d81520301902054604051908152f35b34610265576020366003190112610265576004356001600160a01b0381169081900361026557600052600a602052602060ff604060002054166040519015158152f35b34610265576020366003190112610265576004356001600160a01b03811690819003610265576000526008602052602060ff604060002054166040519015158152f35b3461026557600036600319011261026557611a94612a0c565b600080546001600160a01b0319811682556001600160a01b03167f8be0079c531659141344cd1fd0a4f28419497f9722a3daafe3b4186f6b6457e08280a3005b34610265576020366003190112610265576004356001600160a01b038181169182900361026557611b03612a0c565b600054168114611b25576000908152600860205260409020805460ff19169055005b60405162461bcd60e51b815260206004820152601360248201527221b0b73737ba103932b6b7bb329037bbb732b960691b6044820152606490fd5b34610265576020366003190112610265576004356001600160401b03811161026557611b909036906004016123d1565b6006611bc86020604051938051906105be60ff84830193611bb2818a876127ab565b880197858160039a8b8152030190205416613b9d565b8101600281520301902001805490611bdf8261430d565b91611be98161430d565b9160005b828110611c1e57611c1085610894866040519384936040855260408501906127f3565b9083820360208501526127f3565b806105f7611c3f611c32611c8f9486614357565b50604051928380926128a2565b611c4982886144bd565b52611c5481876144bd565b5086611c74611c638386614357565b506105f760405180948193016128a2565b611c7e82876144bd565b52611c8981866144bd565b50612c80565b611bed565b346102655760003660031901126102655761098a612a0c565b34610265576020366003190112610265576004356001600160a01b038181169182900361026557611cf79033600052600860205260ff604060002054169081156102cd5750612a64565b6000908152600a60205260409020805460ff19166001179055005b34610265576020366003190112610265576004356001600160401b03811161026557611d429036906004016123d1565b6040518181809351602081930191611d59926127ab565b81016002815203602001902060405180611d7381846128a2565b03611d7e908261236a565b600182015460ff169160405180806002840190611d9a916128a2565b03611da5908261236a565b60405180611db681600386016128a2565b03611dc1908261236a565b6040519081611dd381600487016128a2565b03611dde908361236a565b6040519182611df081600588016128a2565b03611dfb908461236a565b600985015460ff1692600a86015491600b87015493604051968780600c8b0190611e24916128a2565b03611e2f908961236a565b60405180600d819b0190611e42916128a2565b03611e4d908a61236a565b6040519a8b9a610160808d528c01611e64916127ce565b9060208c01611e72916123ef565b8a810360408c0152611e83916127ce565b89810360608b0152611e94916127ce565b88810360808a0152611ea5916127ce565b87810360a0890152611eb6916127ce565b92151560c087015260e0860152610100850152838103610120850152611edb916127ce565b828103610140840152610894916127ce565b34610265576020366003190112610265576004356001600160401b03811161026557611f37611f286020610b816108949436906004016123d1565b81016005815203019020613c79565b6040519182916020835260208301906127f3565b3461026557602036600319011261026557600435600481101561026557611f7360209161284f565b54604051908152f35b3461026557602080600319360112610265576004356001600160401b0381116102655781610b81611fb19236906004016123d1565b8101600781520301902060405190818382549182815201908192600052846000209060005b8682821061202c578686611fec8288038361236a565b604051928392818401908285525180915260408401929160005b82811061201557505050500390f35b835185528695509381019392810192600101612006565b835485529093019260019283019201611fd6565b3461026557602036600319011261026557600435600481101561026557611f3761206c6108949261284f565b5461430d565b3461026557600036600319011261026557600b54600c60209081527f13649b2456f1b42fef0f0040b3aaeabcd21a76a0f3f5defd4f583839455116e8547fd421a5181c571bba3f01190c922c3b2a896fc1d84e86c9f17ac10e67ebef8b5c547f5d6016397a73f5e079297ac5a36fef17b4d9c3831618e63ab105738020ddd7205460036000527fc0da782485e77ae272268ae0a3ff44c1552ecb60b3743924de17a815e0a3cfd7546040805196875294860193909352928401526060830191909152608082015260a090f35b346102655761098a61214f366124ec565b9998909897919796929695939533600052600860205260ff604060002054168015612198575b61217e90612a64565b61098560ff60405160208185516109438183858a016127ab565b506000546001600160a01b03163314612175565b34610265576020366003190112610265576004356001600160a01b03818116918290036102655781602092600052600a835260ff6040600020541691821561222a575b8215612216575b82156122085750506040519015158152f35b600054161490508280610237565b6008845260406000205460ff1692506121f6565b6009845260406000205460ff1692506121ef565b3461026557602061227061225136612412565b9061226b60ff604051868185516105ad8183858a016127ab565b614436565b6040519015158152f35b34610265576020366003190112610265576004356001600160a01b03811690819003610265576000526009602052602060ff604060002054166040519015158152f35b34610265576020366003190112610265576004356001600160a01b03818116929183900361026557826020936000526008845260ff60406000205416918215612309575b505015158152f35b600054161490508380612301565b61010081019081106001600160401b0382111761129a57604052565b60c081019081106001600160401b0382111761129a57604052565b6101c081019081106001600160401b0382111761129a57604052565b90601f801991011681019081106001600160401b0382111761129a57604052565b9291926001600160401b03821161129a57604051916123b4601f8201601f19166020018461236a565b829481845281830111610265578281602093846000960137010152565b9080601f83011215610265578160206123ec9335910161238b565b90565b9060048210156123fc5752565b634e487b7160e01b600052602160045260246000fd5b906040600319830112610265576001600160401b03600435818111610265578361243e916004016123d1565b92602435918211610265576123ec916004016123d1565b6001600160401b03811161129a5760051b60200190565b9080601f830112156102655781359061248482612455565b92612492604051948561236a565b828452602092838086019160051b8301019280841161026557848301915b8483106124c05750505050505090565b82356001600160401b0381116102655786916124e1848480948901016123d1565b8152019201916124b0565b6101606003198201126102655760049081356001600160401b03811161026557816125189184016123d1565b926024358381101561026557926044356001600160401b03811161026557836125429183016123d1565b9260649081356001600160401b03811161026557816125629185016123d1565b9360849384356001600160401b03811161026557836125829183016123d1565b9460a480356001600160401b03811161026557856125a19185016123d1565b9560c4916001600160401b03833511610265578660238435011215610265578235850135916125cf83612455565b946125dd604051968761236a565b83865260208601928960248660051b8835010111610265576024863501935b60248660051b88350101851061268c57505050505050509260e4356001600160401b038111610265578161263191840161246c565b92610104356001600160401b038111610265578261265091850161246c565b92610124356001600160401b038111610265578361266f9183016123d1565b92610144356001600160401b038111610265576123ec92016123d1565b8435906001600160401b0382116102655760c0883583018d03602319011261026557604051916126bb83612333565b6024818a350101356001600160401b038111610265578d60246126e392848d350101016123d1565b8352600a6044828b350101351015610265578835810160448101356020850152860135801515810361026557604084015284818a350101356001600160401b038111610265578d602461273b92848d350101016123d1565b606084015283818a350101356001600160401b038111610265578d602461276792848d350101016123d1565b608084015288818135010135916001600160401b038311610265576024936127998f8660209687968f350101016123d1565b60a082015281520195019490506125fc565b60005b8381106127be5750506000910152565b81810151838201526020016127ae565b906020916127e7815180928185528580860191016127ab565b601f01601f1916010190565b908082519081815260208091019281808460051b8301019501936000915b8483106128215750505050505090565b909192939495848061283f600193601f198682030187528a516127ce565b9801930193019194939290612811565b60048110156123fc57600052600c602052604060002090565b90600182811c92168015612898575b602083101461288257565b634e487b7160e01b600052602260045260246000fd5b91607f1691612877565b90600092918054916128b383612868565b91828252600193848116908160001461291557506001146128d5575b50505050565b90919394506000526020928360002092846000945b8386106129015750505050010190388080806128cf565b8054858701830152940193859082016128ea565b9294505050602093945060ff191683830152151560051b010190388080806128cf565b604060031982011261026557600435906001600160401b03821161026557612962916004016123d1565b9060243590565b80548210156129815760005260206000200190600090565b634e487b7160e01b600052603260045260246000fd5b6129aa815160c0845260c08401906127ce565b916020820151600a8110156123fc576129fb6129e96123ec9560a0936020860152604086015115156040860152606086015185820360608701526127ce565b608085015184820360808601526127ce565b9201519060a08184039101526127ce565b6000546001600160a01b03163303612a2057565b606460405162461bcd60e51b815260206004820152602060248201527f4f776e61626c653a2063616c6c6572206973206e6f7420746865206f776e65726044820152fd5b15612a6b57565b60405162461bcd60e51b815260206004820152600e60248201526d139bdd08185d5d1a1bdc9a5e995960921b6044820152606490fd5b15612aa857565b60405162461bcd60e51b815260206004820152601660248201527514d8da195b5848185b1c9958591e481919599a5b995960521b6044820152606490fd5b15612aed57565b60405162461bcd60e51b815260206004820152601960248201527f537562646f6d61696e2063616e6e6f7420626520656d707479000000000000006044820152606490fd5b60048210156123fc5752565b818110612b49575050565b60008155600101612b3e565b9190601f8111612b6457505050565b612b90926000526020600020906020601f840160051c83019310612b92575b601f0160051c0190612b3e565b565b9091508190612b83565b9060048110156123fc5760ff80198354169116179055565b612bbe8154612868565b9081612bc8575050565b81601f60009311600114612bda575055565b908083918252612bf9601f60208420940160051c840160018501612b3e565b5555565b8054906000815581612c0d575050565b6000526020600020908101905b818110612c25575050565b80612c31600192612bb4565b01612c1a565b90600160401b811161129a57815491818155828210612c5557505050565b600052602060002091820191015b818110612c6e575050565b80612c7a600192612bb4565b01612c63565b6000198114612c8f5760010190565b634e487b7160e01b600052601160045260246000fd5b612cbd906020604051928284809451938492016127ab565b810103902090565b9691989399949792959097612cdc88511515612ae6565b612d0e60ff612cfa60208b81604051938285809451938492016127ab565b600381830152810103019020541615612aa1565b60405196612d1b8861234e565b888852612d2b8a60208a01612b32565b8a604089015260608801528a608088015260a087015260c086015260e0850152610100840152600161012084015242610140840152426101608401526101808301526101a08201526040516020818451612d8881838589016127ab565b810160028152030190209080518051906001600160401b03821161129a578190612db6826110c48754612868565b602090601f8311600114613b3157600092613b26575b50508160011b916000199060031b1c19161782555b602081015160048110156123fc57612dfc9060018401612b9c565b60408101518051906001600160401b03821161129a578190612e2e82612e256002880154612868565b60028801612b55565b602090601f8311600114613ab457600092613aa9575b50508160011b916000199060031b1c19161760028301555b60608101518051906001600160401b03821161129a578190612e8e82612e856003880154612868565b60038801612b55565b602090601f8311600114613a3757600092613a2c575b50508160011b916000199060031b1c19161760038301555b60808101518051906001600160401b03821161129a578190612eee82612ee56004880154612868565b60048801612b55565b602090601f83116001146139ba576000926139af575b50508160011b916000199060031b1c19161760048301555b60a08101518051906001600160401b03821161129a578190612f4e82612f456005880154612868565b60058801612b55565b602090601f831160011461393d57600092613932575b50508160011b916000199060031b1c19161760058301555b60c0810151805190600160401b821161129a5760068401548260068601558083106138b7575b5060200190600684016000526020600020916000905b82821061350857505050506007820160e08201516020815191612fdb8385612c37565b01916000526020600020916000905b82821061342b575050505060088201610100820151602081519161300e8385612c37565b01916000526020600020916000905b82821061334e575050505060098201610120820151151560ff80198354169116179055610140810151600a830155610160810151600b8301556101808101518051906001600160401b03821161129a576130878261307e600c870154612868565b600c8701612b55565b602090601f83116001146132da576101a0939291600091836132cf575b50508160011b916000199060031b1c191617600c8401555b01518051906001600160401b03821161129a576130e9826130e0600d860154612868565b600d8601612b55565b602090601f831160011461322f576131ff947fbc5e30b99f14bbf3d59c8cf7aca16b6cd889c273f13c2c4854e4d760969f07669694600d8561321f96613210966131f296600092613224575b50508160011b916000199060031b1c1916179101555b604051602081835161316081838588016127ab565b81016003815203019020600160ff1982541617905561319d85604051602081855161318e8183858a016127ab565b81016004815203019020612b9c565b6131a8600b54612c80565b600b556131b48561284f565b6131be8154612c80565b9055604051602081816131d78c838151938492016127ab565b8101600d8152030190206131eb8154612c80565b9055612ca5565b95604051948580956123ef565b6060602085015260608401906127ce565b828103604084015233966127ce565b0390a3565b015190503880613135565b90600d840160005260206000209160005b601f19851681106132b75750947fbc5e30b99f14bbf3d59c8cf7aca16b6cd889c273f13c2c4854e4d760969f07669694600d600186613210966131f2966131ff9b61321f9a601f1981161061329e575b505050811b0191015561314b565b015160001960f88460031b161c19169055388080613290565b91926020600181928685015181550194019201613240565b0151905038806130a4565b90600c850160005260206000209160005b601f198516811061333657509183916001936101a09695601f1981161061331d575b505050811b01600c8401556130bc565b015160001960f88460031b161c1916905538808061330d565b919260206001819286850151815501940192016132eb565b80518051906001600160401b03821161129a5761336f826112d18854612868565b602090601f83116001146133bb5792826001949360209386956000926133b0575b5050600019600383901b1c191690841b1787555b0194019101909261301d565b015190503880613390565b908660005260206000209160005b601f1985168110613413575083602093600196938796938794601f198116106133fa575b505050811b0187556133a4565b015160001960f88460031b161c191690553880806133ed565b919260206001819286850151815501940192016133c9565b80518051906001600160401b03821161129a5761344c826112d18854612868565b602090601f831160011461349857928260019493602093869560009261348d575b5050600019600383901b1c191690841b1787555b01940191019092612fea565b01519050388061346d565b908660005260206000209160005b601f19851681106134f0575083602093600196938796938794601f198116106134d7575b505050811b018755613481565b015160001960f88460031b161c191690553880806134ca565b919260206001819286850151815501940192016134a6565b805180518051906001600160401b03821161129a5781906135338261352d8a54612868565b8a612b55565b602090601f831160011461384b57600092613840575b50508160011b916000199060031b1c19161785555b6020810151600a8110156123fc576001860190815460ff61ff006040860151151560081b1692169061ffff19161717905560608101518051906001600160401b03821161129a5781906135c1826135b860028b0154612868565b60028b01612b55565b602090601f83116001146137ce576000926137c3575b50508160011b916000199060031b1c19161760028601555b60808101518051906001600160401b03821161129a5761361f8261361660038a0154612868565b60038a01612b55565b602090601f83116001146137505760a093929160009183613745575b50508160011b916000199060031b1c19161760038701555b01518051906001600160401b03821161129a57613680826136776004890154612868565b60048901612b55565b602090601f83116001146136cf5792826005936020936001966000926136c4575b5050600019600383901b1c191690851b1760048801555b01940191019092612fb8565b0151905038806136a1565b906004870160005260206000209160005b601f198516811061372d575083602093600196938793600597601f19811610613714575b505050811b0160048801556136b8565b015160001960f88460031b161c19169055388080613704565b919260206001819286850151815501940192016136e0565b01519050388061363b565b906003880160005260206000209160005b601f19851681106137ab575091839160019360a09695601f19811610613792575b505050811b016003870155613653565b015160001960f88460031b161c19169055388080613782565b91926020600181928685015181550194019201613761565b0151905038806135d7565b9250600288016000526020600020906000935b601f1984168510613825576001945083601f1981161061380c575b505050811b0160028601556135ef565b015160001960f88460031b161c191690553880806137fc565b818101518355602094850194600190930192909101906137e1565b015190503880613549565b9250876000526020600020906000935b601f198416851061389c576001945083601f19811610613883575b505050811b01855561355e565b015160001960f88460031b161c19169055388080613876565b8181015183556020948501946001909301929091019061385b565b6005818102048103612c8f576005838102048303612c8f576006850160005260206000208360050281015b82600502820181106138f5575050612fa2565b80613901600592612bb4565b6000600182015561391460028201612bb4565b61392060038201612bb4565b61392c60048201612bb4565b016138e2565b015190503880612f64565b9250600585016000526020600020906000935b601f1984168510613994576001945083601f1981161061397b575b505050811b016005830155612f7c565b015160001960f88460031b161c1916905538808061396b565b81810151835560209485019460019093019290910190613950565b015190503880612f04565b9250600485016000526020600020906000935b601f1984168510613a11576001945083601f198116106139f8575b505050811b016004830155612f1c565b015160001960f88460031b161c191690553880806139e8565b818101518355602094850194600190930192909101906139cd565b015190503880612ea4565b9250600385016000526020600020906000935b601f1984168510613a8e576001945083601f19811610613a75575b505050811b016003830155612ebc565b015160001960f88460031b161c19169055388080613a65565b81810151835560209485019460019093019290910190613a4a565b015190503880612e44565b9250600285016000526020600020906000935b601f1984168510613b0b576001945083601f19811610613af2575b505050811b016002830155612e5c565b015160001960f88460031b161c19169055388080613ae2565b81810151835560209485019460019093019290910190613ac7565b015190503880612dcc565b9250846000526020600020906000935b601f1984168510613b82576001945083601f19811610613b69575b505050811b018255612de1565b015160001960f88460031b161c19169055388080613b5c565b81810151835560209485019460019093019290910190613b41565b15613ba457565b60405162461bcd60e51b815260206004820152601260248201527114d8da195b58481b9bdd081919599a5b995960721b6044820152606490fd5b90604091825192613bee84612333565b838151613bff816105f781876128a2565b815260018301549260ff841690600a8210156123fc57613c6e60a09460ff600497613c7595602088015260081c161515818601528051613c46816105f781600288016128a2565b60608601528051613c5e816105f781600388016128a2565b60808601525180968193016128a2565b038461236a565b0152565b908154613c8581612455565b92604093613c958551918261236a565b828152809460208092019260005281600020906000935b858510613cbb57505050505050565b60018481928451613cd0816105f7818a6128a2565b815201930194019391613cac565b15613ce557565b60405162461bcd60e51b815260206004820152601b60248201527f4465736372697074696f6e2063616e6e6f7420626520656d70747900000000006044820152606490fd5b15613d3157565b60405162461bcd60e51b815260206004820152601760248201527f56657273696f6e2063616e6e6f7420626520656d7074790000000000000000006044820152606490fd5b15613d7d57565b60405162461bcd60e51b815260206004820152602360248201527f536368656d61206d7573742068617665206174206c65617374206f6e65206669604482015262195b1960ea1b6064820152608490fd5b8015612c8f576000190190565b90808214613eb557613ded8154612868565b906001600160401b03821161129a578190613e1282613e0c8654612868565b86612b55565b600090601f8311600114613e4957600092613e3e575b50508160011b916000199060031b1c1916179055565b015490503880613e28565b81526020808220858352818320935090601f1985169083905b828210613e9c575050908460019594939210613e83575b505050811b019055565b015460001960f88460031b161c19169055388080613e79565b8495819295850154815560018091019601940190613e62565b5050565b906040805183519160209081860193613ed38185876127ab565b83019282816002958681520301902093613eee600b54613dce565b600b5583600195613f0460ff888301541661284f565b613f0e8154613dce565b905501938251848160008854613f2381612868565b908b81169081156142f857506001146142c0575b50600d815203019020613f4a8154613dce565b90558251918851613f5c8185846127ab565b8301928581600395868152030190209860ff19998a81541690558451948151613f868188866127ab565b8601958781600498898152030190208b815416905580516000988054613fab81612868565b9d818d169182156142a9575050600114614273575b50899a9b50878160059a8b815203019020896000905b61410f575b50508697985090613ffa939495969291519384928392519283916127ab565b8101848152030190209561400d87612bb4565b60008188015561401e828801612bb4565b614029838801612bb4565b614034848801612bb4565b61403f868801612bb4565b6006870194855495600081558661409e575b5050505050505050600d8161406b6007612b909401612bfd565b61407760088201612bfd565b600060098201556000600a8201556000600b820155614098600c8201612bb4565b01612bb4565b86880296888804036140fa57600052600020948501945b8581106140c25780614051565b806140cd8892612bb4565b6000838201556140de848201612bb4565b6140e9858201612bb4565b6140f4868201612bb4565b016140b5565b601186634e487b7160e01b6000525260246000fd5b81548082101561426d576105f76141356141298486612969565b508651928380926128a2565b8a81519101208551872014614154575061414e90612c80565b8a613fd6565b9192939495969798999a50600019918281019081116142585761417a6141829185612969565b509184612969565b614244579061419091613ddb565b8154801561422f5701906141a48282612969565b61421b5791613ffa9593918b848e6141be8e999754612868565b90816141d9575b5050505055909192969594938a9998613fdb565b600093601f8084116001146141f75750505050555b8b38808f6141c5565b9161421491859387959686528d86209601901c8501908501612b3e565b55556141ee565b600089634e487b7160e01b82525260246000fd5b603189634e487b7160e01b6000525260246000fd5b60008a634e487b7160e01b82525260246000fd5b60118a634e487b7160e01b6000525260246000fd5b50613fdb565b909850600052866000209a60009b5b818d106142985750899a9b508801978b9a613fc0565b80548a8e01529b88019b8a01614282565b168352509a9b8c9b50801515028101985089613fc0565b905088600052826000208a6000915b8383106142e157505050810138613f37565b8054878401528a95879550909201918c91016142cf565b60ff1916845250801515028201905038613f37565b9061431782612455565b614324604051918261236a565b8281528092614335601f1991612455565b019060005b82811061434657505050565b80606060208093850101520161433a565b8054821015612981576000526005602060002091020190600090565b919091506040908151838180955161439181602098898096016127ab565b60029082019081520301902060060180549160005b8381106143e357845162461bcd60e51b815260048101879052600f60248201526e119a595b19081b9bdd08199bdd5b99608a1b6044820152606490fd5b6105f76143ff6143f38386614357565b508751928380926128a2565b8681519101208251878401201461441e5761441990612c80565b6143a6565b9250506123ec93506144309250614357565b50613bde565b6040918251828180945161445081602097888096016127ab565b81016002815203019020926006600094018054945b85811061447757505050505050600090565b6105f76144936144878385614357565b508551928380926128a2565b858151910120845186860120146144b2576144ad90612c80565b614465565b505050505050600190565b80518210156129815760209160051b01019056fea2646970667358221220168b0ca5ef520e8b9fc96a5e1979caed9c441e7193b6c66db7c5e6aa87ae802a64736f6c63430008130033","opcodes":"PUSH1 0x80 DUP1 PUSH1 0x40 MSTORE PUSH1 0x4 CALLDATASIZE LT ISZERO PUSH2 0x13 JUMPI PUSH1 0x0 DUP1 REVERT JUMPDEST PUSH1 0x0 CALLDATALOAD PUSH1 0xE0 SHR SWAP1 DUP2 PUSH4 0xA2EB301 EQ PUSH2 0x22BD JUMPI POP DUP1 PUSH4 0x137BE5B2 EQ PUSH2 0xBAA JUMPI DUP1 PUSH4 0x14D0F1BA EQ PUSH2 0x227A JUMPI DUP1 PUSH4 0x2CF52FE8 EQ PUSH2 0x223E JUMPI DUP1 PUSH4 0x2D1D70DE EQ PUSH2 0x21AC JUMPI DUP1 PUSH4 0x2DB74AF3 EQ PUSH2 0x213E JUMPI DUP1 PUSH4 0x372D6B27 EQ PUSH2 0x2072 JUMPI DUP1 PUSH4 0x3D4FCBE6 EQ PUSH2 0x2040 JUMPI DUP1 PUSH4 0x41C260DD EQ PUSH2 0x1F7C JUMPI DUP1 PUSH4 0x44ACA904 EQ PUSH2 0x1F4B JUMPI DUP1 PUSH4 0x48C7DC92 EQ PUSH2 0x1EED JUMPI DUP1 PUSH4 0x4A4E3BD5 EQ PUSH2 0x1C94 JUMPI DUP1 PUSH4 0x4F471E8F EQ PUSH2 0x1D12 JUMPI DUP1 PUSH4 0x50910AD6 EQ PUSH2 0x1CAD JUMPI DUP1 PUSH4 0x51858E27 EQ PUSH2 0x1C94 JUMPI DUP1 PUSH4 0x54874B2B EQ PUSH2 0x1B60 JUMPI DUP1 PUSH4 0x68FA8134 EQ PUSH2 0x1AD4 JUMPI DUP1 PUSH4 0x715018A6 EQ PUSH2 0x1A7B JUMPI DUP1 PUSH4 0x76BE1585 EQ PUSH2 0x1A38 JUMPI DUP1 PUSH4 0x780AAC03 EQ PUSH2 0x19F5 JUMPI DUP1 PUSH4 0x7A327D94 EQ PUSH2 0x19AC JUMPI DUP1 PUSH4 0x869D785F EQ PUSH2 0x194A JUMPI DUP1 PUSH4 0x8DA5CB5B EQ PUSH2 0x1921 JUMPI DUP1 PUSH4 0x9B1C7CA6 EQ PUSH2 0x16D6 JUMPI DUP1 PUSH4 0xAB0602CF EQ PUSH2 0xE0F JUMPI DUP1 PUSH4 0xAD7159CB EQ PUSH2 0xB49 JUMPI DUP1 PUSH4 0xAE2251E8 EQ PUSH2 0xD1C JUMPI DUP1 PUSH4 0xB03C206A EQ PUSH2 0xCDC JUMPI DUP1 PUSH4 0xB532E4CB EQ PUSH2 0xC77 JUMPI DUP1 PUSH4 0xB544C083 EQ PUSH2 0xBFD JUMPI DUP1 PUSH4 0xB7B05F16 EQ PUSH2 0xBAA JUMPI DUP1 PUSH4 0xB8ACB008 EQ PUSH2 0xB49 JUMPI DUP1 PUSH4 0xB8C7724A EQ PUSH2 0xB2B JUMPI DUP1 PUSH4 0xBC7EFC5F EQ PUSH2 0xA72 JUMPI DUP1 PUSH4 0xC9991176 EQ PUSH2 0xA29 JUMPI DUP1 PUSH4 0xD3ED5A11 EQ PUSH2 0x9A0 JUMPI DUP1 PUSH4 0xE81EE43E EQ PUSH2 0x8E9 JUMPI DUP1 PUSH4 0xF1A03F1B EQ PUSH2 0x4F6 JUMPI DUP1 PUSH4 0xF23378CA EQ PUSH2 0x3A6 JUMPI DUP1 PUSH4 0xF2FDE38B EQ PUSH2 0x2DB JUMPI DUP1 PUSH4 0xF9244DD7 EQ PUSH2 0x26A JUMPI PUSH4 0xFA6F3936 EQ PUSH2 0x1ED JUMPI PUSH1 0x0 DUP1 REVERT JUMPDEST CALLVALUE PUSH2 0x265 JUMPI PUSH1 0x20 CALLDATASIZE PUSH1 0x3 NOT ADD SLT PUSH2 0x265 JUMPI PUSH1 0x4 CALLDATALOAD PUSH1 0x1 PUSH1 0x1 PUSH1 0xA0 SHL SUB DUP2 DUP2 AND SWAP2 DUP3 SWAP1 SUB PUSH2 0x265 JUMPI DUP2 PUSH1 0x20 SWAP3 PUSH1 0x0 MSTORE PUSH1 0x9 DUP4 MSTORE PUSH1 0xFF PUSH1 0x40 PUSH1 0x0 KECCAK256 SLOAD AND SWAP2 DUP3 ISZERO PUSH2 0x251 JUMPI JUMPDEST DUP3 ISZERO PUSH2 0x243 JUMPI JUMPDEST POP POP PUSH1 0x40 MLOAD SWAP1 ISZERO ISZERO DUP2 MSTORE RETURN JUMPDEST PUSH1 0x0 SLOAD AND EQ SWAP1 POP CODESIZE DUP1 PUSH2 0x237 JUMP JUMPDEST PUSH1 0x8 DUP5 MSTORE PUSH1 0x40 PUSH1 0x0 KECCAK256 SLOAD PUSH1 0xFF AND SWAP3 POP PUSH2 0x230 JUMP JUMPDEST PUSH1 0x0 DUP1 REVERT JUMPDEST CALLVALUE PUSH2 0x265 JUMPI PUSH1 0x20 CALLDATASIZE PUSH1 0x3 NOT ADD SLT PUSH2 0x265 JUMPI PUSH1 0x4 CALLDATALOAD PUSH1 0x1 PUSH1 0x1 PUSH1 0xA0 SHL SUB DUP2 DUP2 AND SWAP2 DUP3 SWAP1 SUB PUSH2 0x265 JUMPI PUSH2 0x2B5 SWAP1 CALLER PUSH1 0x0 MSTORE PUSH1 0x8 PUSH1 0x20 MSTORE PUSH1 0xFF PUSH1 0x40 PUSH1 0x0 KECCAK256 SLOAD AND SWAP1 DUP2 ISZERO PUSH2 0x2CD JUMPI JUMPDEST POP PUSH2 0x2A64 JUMP JUMPDEST PUSH1 0x0 SWAP1 DUP2 MSTORE PUSH1 0xA PUSH1 0x20 MSTORE PUSH1 0x40 SWAP1 KECCAK256 DUP1 SLOAD PUSH1 0xFF NOT AND SWAP1 SSTORE STOP JUMPDEST PUSH1 0x0 SLOAD AND CALLER EQ SWAP1 POP DUP4 PUSH2 0x2AF JUMP JUMPDEST CALLVALUE PUSH2 0x265 JUMPI PUSH1 0x20 CALLDATASIZE PUSH1 0x3 NOT ADD SLT PUSH2 0x265 JUMPI PUSH1 0x4 CALLDATALOAD PUSH1 0x1 PUSH1 0x1 PUSH1 0xA0 SHL SUB DUP2 DUP2 AND SWAP2 DUP3 SWAP1 SUB PUSH2 0x265 JUMPI PUSH2 0x30A PUSH2 0x2A0C JUMP JUMPDEST DUP2 ISZERO PUSH2 0x352 JUMPI PUSH1 0x0 SLOAD DUP3 PUSH12 0xFFFFFFFFFFFFFFFFFFFFFFFF PUSH1 0xA0 SHL DUP3 AND OR PUSH1 0x0 SSTORE AND PUSH32 0x8BE0079C531659141344CD1FD0A4F28419497F9722A3DAAFE3B4186F6B6457E0 PUSH1 0x0 DUP1 LOG3 STOP JUMPDEST PUSH1 0x40 MLOAD PUSH3 0x461BCD PUSH1 0xE5 SHL DUP2 MSTORE PUSH1 0x20 PUSH1 0x4 DUP3 ADD MSTORE PUSH1 0x26 PUSH1 0x24 DUP3 ADD MSTORE PUSH32 0x4F776E61626C653A206E6577206F776E657220697320746865207A65726F2061 PUSH1 0x44 DUP3 ADD MSTORE PUSH6 0x646472657373 PUSH1 0xD0 SHL PUSH1 0x64 DUP3 ADD MSTORE PUSH1 0x84 SWAP1 REVERT JUMPDEST CALLVALUE PUSH2 0x265 JUMPI PUSH2 0x3B4 CALLDATASIZE PUSH2 0x24EC JUMP JUMPDEST SWAP6 DUP1 SWAP11 SWAP9 SWAP10 SWAP8 SWAP6 SWAP2 SWAP6 SWAP5 SWAP3 SWAP5 CALLER PUSH1 0x0 MSTORE PUSH1 0x8 PUSH1 0x20 MSTORE PUSH1 0xFF PUSH1 0x40 PUSH1 0x0 KECCAK256 SLOAD AND DUP1 ISZERO PUSH2 0x4E2 JUMPI JUMPDEST PUSH2 0x3E2 SWAP1 PUSH2 0x2A64 JUMP JUMPDEST PUSH1 0x40 MLOAD DUP11 MLOAD SWAP1 DUP1 PUSH1 0x20 DUP14 ADD SWAP3 PUSH2 0x3F9 DUP2 DUP4 DUP7 PUSH2 0x27AB JUMP JUMPDEST DUP2 ADD PUSH1 0x3 DUP2 MSTORE SUB PUSH1 0x20 ADD SWAP1 KECCAK256 SLOAD PUSH1 0xFF AND PUSH2 0x412 SWAP1 PUSH2 0x3B9D JUMP JUMPDEST DUP3 MLOAD ISZERO ISZERO PUSH2 0x41F SWAP1 PUSH2 0x3D2A JUMP JUMPDEST DUP2 MLOAD ISZERO ISZERO PUSH2 0x42C SWAP1 PUSH2 0x3CDE JUMP JUMPDEST DUP5 MLOAD ISZERO ISZERO PUSH2 0x439 SWAP1 PUSH2 0x3D76 JUMP JUMPDEST PUSH1 0x40 MLOAD DUP1 DUP1 SWAP3 DUP14 MLOAD DUP1 SWAP3 PUSH2 0x44C SWAP3 PUSH2 0x27AB JUMP JUMPDEST DUP2 ADD PUSH1 0x2 DUP2 MSTORE SUB PUSH1 0x20 ADD SWAP1 KECCAK256 PUSH1 0x4 ADD SWAP11 PUSH1 0x40 MLOAD PUSH2 0x46A DUP2 DUP1 SWAP15 PUSH2 0x28A2 JUMP JUMPDEST SUB PUSH2 0x475 SWAP1 DUP14 PUSH2 0x236A JUMP JUMPDEST PUSH2 0x47E DUP12 PUSH2 0x3EB9 JUMP JUMPDEST PUSH2 0x488 SWAP10 DUP12 PUSH2 0x2CC5 JUMP JUMPDEST PUSH2 0x491 SWAP1 PUSH2 0x2CA5 JUMP JUMPDEST SWAP1 PUSH1 0x40 MLOAD DUP1 SWAP2 PUSH1 0x40 DUP3 MSTORE PUSH1 0x40 DUP3 ADD PUSH2 0x4A8 SWAP2 PUSH2 0x27CE JUMP JUMPDEST SWAP4 DUP2 DUP6 SUB PUSH1 0x20 DUP4 ADD MSTORE CALLER SWAP5 PUSH2 0x4BC SWAP2 PUSH2 0x27CE JUMP JUMPDEST SUB PUSH32 0x13B0FE0315832CA9294AEBFAEC7C66B0A8FA8ABF1458E42623DE230A1C00D300 SWAP2 LOG3 STOP JUMPDEST POP PUSH1 0x0 SLOAD PUSH1 0x1 PUSH1 0x1 PUSH1 0xA0 SHL SUB AND CALLER EQ PUSH2 0x3D9 JUMP JUMPDEST CALLVALUE PUSH2 0x265 JUMPI PUSH1 0x20 CALLDATASIZE PUSH1 0x3 NOT ADD SLT PUSH2 0x265 JUMPI PUSH1 0x4 CALLDATALOAD PUSH1 0x1 PUSH1 0x1 PUSH1 0x40 SHL SUB DUP2 GT PUSH2 0x265 JUMPI PUSH1 0x20 PUSH2 0x52B PUSH2 0x5CF SWAP3 CALLDATASIZE SWAP1 PUSH1 0x4 ADD PUSH2 0x23D1 JUMP JUMPDEST PUSH1 0x60 PUSH2 0x1A0 PUSH1 0x40 MLOAD PUSH2 0x53C DUP2 PUSH2 0x234E JUMP JUMPDEST DUP3 DUP2 MSTORE PUSH1 0x0 DUP6 DUP3 ADD MSTORE DUP3 PUSH1 0x40 DUP3 ADD MSTORE DUP3 DUP1 DUP3 ADD MSTORE DUP3 PUSH1 0x80 DUP3 ADD MSTORE DUP3 PUSH1 0xA0 DUP3 ADD MSTORE DUP3 PUSH1 0xC0 DUP3 ADD MSTORE DUP3 PUSH1 0xE0 DUP3 ADD MSTORE DUP3 PUSH2 0x100 DUP3 ADD MSTORE PUSH1 0x0 PUSH2 0x120 DUP3 ADD MSTORE PUSH1 0x0 PUSH2 0x140 DUP3 ADD MSTORE PUSH1 0x0 PUSH2 0x160 DUP3 ADD MSTORE DUP3 PUSH2 0x180 DUP3 ADD MSTORE ADD MSTORE PUSH1 0x40 MLOAD SWAP1 PUSH2 0x5BE PUSH1 0xFF DUP3 MLOAD SWAP4 DUP6 DUP2 DUP2 DUP7 ADD SWAP7 PUSH2 0x5AD DUP2 DUP4 DUP11 PUSH2 0x27AB JUMP JUMPDEST DUP2 ADD PUSH1 0x3 DUP2 MSTORE SUB ADD SWAP1 KECCAK256 SLOAD AND PUSH2 0x3B9D JUMP JUMPDEST PUSH1 0x40 MLOAD SWAP4 DUP5 SWAP3 DUP4 SWAP3 MLOAD SWAP3 DUP4 SWAP2 PUSH2 0x27AB JUMP JUMPDEST DUP2 ADD PUSH1 0x2 DUP2 MSTORE SUB ADD SWAP1 KECCAK256 PUSH1 0x40 MLOAD SWAP1 PUSH2 0x5E6 DUP3 PUSH2 0x234E JUMP JUMPDEST PUSH1 0x40 MLOAD PUSH2 0x5FE DUP2 PUSH2 0x5F7 DUP2 DUP6 PUSH2 0x28A2 JUMP JUMPDEST SUB DUP3 PUSH2 0x236A JUMP JUMPDEST DUP3 MSTORE PUSH2 0x614 PUSH1 0xFF PUSH1 0x1 DUP4 ADD SLOAD AND PUSH1 0x20 DUP5 ADD PUSH2 0x2B32 JUMP JUMPDEST PUSH1 0x40 MLOAD PUSH2 0x628 DUP2 PUSH2 0x5F7 DUP2 PUSH1 0x2 DUP7 ADD PUSH2 0x28A2 JUMP JUMPDEST PUSH1 0x40 DUP4 ADD MSTORE PUSH1 0x40 MLOAD PUSH2 0x641 DUP2 PUSH2 0x5F7 DUP2 PUSH1 0x3 DUP7 ADD PUSH2 0x28A2 JUMP JUMPDEST PUSH1 0x60 DUP4 ADD MSTORE PUSH1 0x40 MLOAD PUSH2 0x65A DUP2 PUSH2 0x5F7 DUP2 PUSH1 0x4 DUP7 ADD PUSH2 0x28A2 JUMP JUMPDEST PUSH1 0x80 DUP4 ADD MSTORE PUSH1 0x40 MLOAD PUSH2 0x673 DUP2 PUSH2 0x5F7 DUP2 PUSH1 0x5 DUP7 ADD PUSH2 0x28A2 JUMP JUMPDEST PUSH1 0xA0 DUP4 ADD MSTORE PUSH1 0x6 DUP2 ADD DUP1 SLOAD PUSH2 0x687 DUP2 PUSH2 0x2455 JUMP JUMPDEST SWAP2 PUSH2 0x695 PUSH1 0x40 MLOAD SWAP4 DUP5 PUSH2 0x236A JUMP JUMPDEST DUP2 DUP4 MSTORE PUSH1 0x20 DUP4 ADD SWAP1 PUSH1 0x0 MSTORE PUSH1 0x20 PUSH1 0x0 KECCAK256 PUSH1 0x0 SWAP2 JUMPDEST DUP4 DUP4 LT PUSH2 0x8CB JUMPI DUP7 PUSH1 0xD PUSH2 0x730 DUP9 DUP9 PUSH1 0xC0 DUP6 ADD MSTORE PUSH2 0x6C9 PUSH1 0x7 DUP3 ADD PUSH2 0x3C79 JUMP JUMPDEST PUSH1 0xE0 DUP6 ADD MSTORE PUSH2 0x6DA PUSH1 0x8 DUP3 ADD PUSH2 0x3C79 JUMP JUMPDEST PUSH2 0x100 DUP6 ADD MSTORE PUSH1 0xFF PUSH1 0x9 DUP3 ADD SLOAD AND ISZERO ISZERO PUSH2 0x120 DUP6 ADD MSTORE PUSH1 0xA DUP2 ADD SLOAD PUSH2 0x140 DUP6 ADD MSTORE PUSH1 0xB DUP2 ADD SLOAD PUSH2 0x160 DUP6 ADD MSTORE PUSH1 0x40 MLOAD PUSH2 0x71A DUP2 PUSH2 0x5F7 DUP2 PUSH1 0xC DUP7 ADD PUSH2 0x28A2 JUMP JUMPDEST PUSH2 0x180 DUP6 ADD MSTORE PUSH2 0x5F7 PUSH1 0x40 MLOAD DUP1 SWAP5 DUP2 SWAP4 ADD PUSH2 0x28A2 JUMP JUMPDEST PUSH2 0x1A0 DUP3 ADD MSTORE PUSH1 0x40 MLOAD DUP1 SWAP2 PUSH1 0x20 DUP3 MSTORE PUSH2 0x7CD PUSH2 0x7B7 PUSH2 0x7A1 PUSH2 0x78B PUSH2 0x763 DUP6 MLOAD PUSH2 0x1C0 PUSH1 0x20 DUP10 ADD MSTORE PUSH2 0x1E0 DUP9 ADD SWAP1 PUSH2 0x27CE JUMP JUMPDEST PUSH2 0x775 PUSH1 0x20 DUP8 ADD MLOAD PUSH1 0x40 DUP10 ADD SWAP1 PUSH2 0x23EF JUMP JUMPDEST PUSH1 0x40 DUP7 ADD MLOAD DUP8 DUP3 SUB PUSH1 0x1F NOT ADD PUSH1 0x60 DUP10 ADD MSTORE PUSH2 0x27CE JUMP JUMPDEST PUSH1 0x60 DUP6 ADD MLOAD DUP7 DUP3 SUB PUSH1 0x1F NOT ADD PUSH1 0x80 DUP9 ADD MSTORE PUSH2 0x27CE JUMP JUMPDEST PUSH1 0x80 DUP5 ADD MLOAD DUP6 DUP3 SUB PUSH1 0x1F NOT ADD PUSH1 0xA0 DUP8 ADD MSTORE PUSH2 0x27CE JUMP JUMPDEST PUSH1 0xA0 DUP4 ADD MLOAD DUP5 DUP3 SUB PUSH1 0x1F NOT ADD PUSH1 0xC0 DUP7 ADD MSTORE PUSH2 0x27CE JUMP JUMPDEST PUSH1 0xC0 DUP3 ADD MLOAD SWAP1 PUSH1 0x1F NOT DUP5 DUP3 SUB ADD PUSH1 0xE0 DUP6 ADD MSTORE DUP2 MLOAD DUP1 DUP3 MSTORE PUSH1 0x20 DUP3 ADD SWAP2 PUSH1 0x20 DUP1 DUP4 PUSH1 0x5 SHL DUP4 ADD ADD SWAP5 ADD SWAP3 PUSH1 0x0 SWAP2 JUMPDEST DUP4 DUP4 LT PUSH2 0x898 JUMPI DUP8 DUP1 PUSH2 0x894 DUP10 PUSH2 0x1A0 PUSH2 0x87F PUSH2 0x843 PUSH2 0x82B DUP14 PUSH1 0xE0 DUP7 ADD MLOAD PUSH1 0x1F NOT DUP10 DUP4 SUB ADD PUSH2 0x100 DUP11 ADD MSTORE PUSH2 0x27F3 JUMP JUMPDEST PUSH2 0x100 DUP6 ADD MLOAD DUP8 DUP3 SUB PUSH1 0x1F NOT ADD PUSH2 0x120 DUP10 ADD MSTORE PUSH2 0x27F3 JUMP JUMPDEST PUSH2 0x120 DUP5 ADD MLOAD ISZERO ISZERO PUSH2 0x140 DUP8 ADD MSTORE PUSH2 0x140 DUP5 ADD MLOAD PUSH2 0x160 DUP8 ADD MSTORE PUSH2 0x160 DUP5 ADD MLOAD PUSH2 0x180 DUP8 ADD MSTORE PUSH2 0x180 DUP5 ADD MLOAD PUSH1 0x1F NOT DUP8 DUP4 SUB ADD DUP5 DUP9 ADD MSTORE PUSH2 0x27CE JUMP JUMPDEST SWAP2 ADD MLOAD DUP4 DUP3 SUB PUSH1 0x1F NOT ADD PUSH2 0x1C0 DUP6 ADD MSTORE PUSH2 0x27CE JUMP JUMPDEST SUB SWAP1 RETURN JUMPDEST SWAP2 SWAP4 SWAP6 SWAP7 POP SWAP2 SWAP4 PUSH1 0x20 DUP1 PUSH2 0x8B8 PUSH1 0x1 SWAP4 PUSH1 0x1F NOT DUP7 DUP3 SUB ADD DUP8 MSTORE DUP10 MLOAD PUSH2 0x2997 JUMP JUMPDEST SWAP8 ADD SWAP4 ADD SWAP4 ADD SWAP1 SWAP3 DUP8 SWAP7 SWAP6 SWAP5 SWAP3 SWAP4 PUSH2 0x7FA JUMP JUMPDEST PUSH1 0x5 PUSH1 0x20 PUSH1 0x1 SWAP3 PUSH2 0x8DB DUP6 PUSH2 0x3BDE JUMP JUMPDEST DUP2 MSTORE ADD SWAP3 ADD SWAP3 ADD SWAP2 SWAP1 PUSH2 0x6A9 JUMP JUMPDEST CALLVALUE PUSH2 0x265 JUMPI PUSH2 0x98A PUSH2 0x8FA CALLDATASIZE PUSH2 0x24EC JUMP JUMPDEST SWAP10 SWAP9 SWAP1 SWAP9 SWAP8 SWAP2 SWAP8 SWAP7 SWAP3 SWAP7 SWAP6 SWAP4 SWAP6 CALLER PUSH1 0x0 MSTORE PUSH1 0x8 PUSH1 0x20 MSTORE PUSH1 0xFF PUSH1 0x40 PUSH1 0x0 KECCAK256 SLOAD AND DUP1 ISZERO PUSH2 0x98C JUMPI JUMPDEST PUSH2 0x929 SWAP1 PUSH2 0x2A64 JUMP JUMPDEST PUSH2 0x955 PUSH1 0xFF PUSH1 0x40 MLOAD PUSH1 0x20 DUP2 DUP6 MLOAD PUSH2 0x943 DUP2 DUP4 DUP6 DUP11 ADD PUSH2 0x27AB JUMP JUMPDEST DUP2 ADD PUSH1 0x3 DUP2 MSTORE SUB ADD SWAP1 KECCAK256 SLOAD AND ISZERO PUSH2 0x2AA1 JUMP JUMPDEST PUSH2 0x961 DUP2 MLOAD ISZERO ISZERO PUSH2 0x2AE6 JUMP JUMPDEST PUSH2 0x96D DUP5 MLOAD ISZERO ISZERO PUSH2 0x3CDE JUMP JUMPDEST PUSH2 0x979 DUP6 MLOAD ISZERO ISZERO PUSH2 0x3D2A JUMP JUMPDEST PUSH2 0x985 DUP8 MLOAD ISZERO ISZERO PUSH2 0x3D76 JUMP JUMPDEST PUSH2 0x2CC5 JUMP JUMPDEST STOP JUMPDEST POP PUSH1 0x0 SLOAD PUSH1 0x1 PUSH1 0x1 PUSH1 0xA0 SHL SUB AND CALLER EQ PUSH2 0x920 JUMP JUMPDEST CALLVALUE PUSH2 0x265 JUMPI PUSH1 0x20 PUSH2 0x9C8 PUSH2 0x9B3 CALLDATASIZE PUSH2 0x2938 JUMP JUMPDEST SWAP3 SWAP1 DUP2 PUSH1 0x40 MLOAD SWAP4 DUP3 DUP6 DUP1 SWAP5 MLOAD SWAP4 DUP5 SWAP3 ADD PUSH2 0x27AB JUMP JUMPDEST DUP2 ADD PUSH1 0x5 DUP2 MSTORE SUB ADD SWAP1 KECCAK256 SWAP1 DUP2 SLOAD DUP2 LT ISZERO PUSH2 0x265 JUMPI PUSH2 0x9E5 SWAP2 PUSH2 0x2969 JUMP JUMPDEST PUSH2 0xA13 JUMPI PUSH2 0x5F7 PUSH2 0x9FF PUSH2 0x894 SWAP3 PUSH1 0x40 MLOAD SWAP3 DUP4 DUP1 SWAP3 PUSH2 0x28A2 JUMP JUMPDEST PUSH1 0x40 MLOAD SWAP2 DUP3 SWAP2 PUSH1 0x20 DUP4 MSTORE PUSH1 0x20 DUP4 ADD SWAP1 PUSH2 0x27CE JUMP JUMPDEST PUSH4 0x4E487B71 PUSH1 0xE0 SHL PUSH1 0x0 MSTORE PUSH1 0x0 PUSH1 0x4 MSTORE PUSH1 0x24 PUSH1 0x0 REVERT JUMPDEST CALLVALUE PUSH2 0x265 JUMPI PUSH1 0x20 CALLDATASIZE PUSH1 0x3 NOT ADD SLT PUSH2 0x265 JUMPI PUSH1 0x4 CALLDATALOAD PUSH1 0x1 PUSH1 0x1 PUSH1 0xA0 SHL SUB DUP2 AND SWAP1 DUP2 SWAP1 SUB PUSH2 0x265 JUMPI PUSH2 0xA57 PUSH2 0x2A0C JUMP JUMPDEST PUSH1 0x0 SWAP1 DUP2 MSTORE PUSH1 0x8 PUSH1 0x20 MSTORE PUSH1 0x40 SWAP1 KECCAK256 DUP1 SLOAD PUSH1 0xFF NOT AND PUSH1 0x1 OR SWAP1 SSTORE STOP JUMPDEST CALLVALUE PUSH2 0x265 JUMPI PUSH1 0x20 PUSH2 0xA85 PUSH2 0x9B3 CALLDATASIZE PUSH2 0x2938 JUMP JUMPDEST DUP2 ADD PUSH1 0x6 DUP2 MSTORE SUB ADD SWAP1 KECCAK256 SWAP1 PUSH1 0x0 MSTORE PUSH1 0x20 MSTORE PUSH2 0xAF5 PUSH1 0x40 PUSH1 0x0 KECCAK256 PUSH1 0x40 MLOAD SWAP1 PUSH2 0xAB7 DUP3 PUSH2 0xAB0 DUP2 DUP5 PUSH2 0x28A2 JUMP JUMPDEST SUB DUP4 PUSH2 0x236A JUMP JUMPDEST PUSH1 0xFF PUSH1 0x40 MLOAD PUSH2 0xACD DUP2 PUSH2 0x5F7 DUP2 PUSH1 0x1 DUP8 ADD PUSH2 0x28A2 JUMP JUMPDEST PUSH1 0x2 DUP4 ADD SLOAD SWAP3 PUSH2 0xB03 PUSH1 0x4 PUSH1 0x3 DUP4 ADD SLOAD SWAP3 ADD SLOAD SWAP3 PUSH1 0x40 MLOAD SWAP8 DUP9 SWAP8 PUSH1 0xC0 DUP10 MSTORE PUSH1 0xC0 DUP10 ADD SWAP1 PUSH2 0x27CE JUMP JUMPDEST SWAP1 DUP8 DUP3 SUB PUSH1 0x20 DUP10 ADD MSTORE PUSH2 0x27CE JUMP JUMPDEST SWAP4 PUSH1 0x40 DUP7 ADD MSTORE PUSH1 0x60 DUP6 ADD MSTORE PUSH1 0x1 DUP1 PUSH1 0xA0 SHL SUB DUP2 AND PUSH1 0x80 DUP6 ADD MSTORE PUSH1 0xA0 SHR AND ISZERO ISZERO PUSH1 0xA0 DUP4 ADD MSTORE SUB SWAP1 RETURN JUMPDEST CALLVALUE PUSH2 0x265 JUMPI PUSH1 0x0 CALLDATASIZE PUSH1 0x3 NOT ADD SLT PUSH2 0x265 JUMPI PUSH1 0x20 PUSH1 0xB SLOAD PUSH1 0x40 MLOAD SWAP1 DUP2 MSTORE RETURN JUMPDEST CALLVALUE PUSH2 0x265 JUMPI PUSH1 0x20 CALLDATASIZE PUSH1 0x3 NOT ADD SLT PUSH2 0x265 JUMPI PUSH1 0x4 CALLDATALOAD PUSH1 0x1 PUSH1 0x1 PUSH1 0x40 SHL SUB DUP2 GT PUSH2 0x265 JUMPI PUSH1 0xFF PUSH2 0xB94 PUSH1 0x20 PUSH2 0xB81 DUP2 SWAP5 CALLDATASIZE SWAP1 PUSH1 0x4 ADD PUSH2 0x23D1 JUMP JUMPDEST DUP2 PUSH1 0x40 MLOAD SWAP4 DUP3 DUP6 DUP1 SWAP5 MLOAD SWAP4 DUP5 SWAP3 ADD PUSH2 0x27AB JUMP JUMPDEST DUP2 ADD PUSH1 0x3 DUP2 MSTORE SUB ADD SWAP1 KECCAK256 SLOAD AND PUSH1 0x40 MLOAD SWAP1 ISZERO ISZERO DUP2 MSTORE RETURN JUMPDEST CALLVALUE PUSH2 0x265 JUMPI PUSH1 0x20 CALLDATASIZE PUSH1 0x3 NOT ADD SLT PUSH2 0x265 JUMPI PUSH1 0x4 CALLDATALOAD PUSH1 0x1 PUSH1 0x1 PUSH1 0x40 SHL SUB DUP2 GT PUSH2 0x265 JUMPI PUSH1 0xFF PUSH2 0xBE2 PUSH1 0x20 PUSH2 0xB81 DUP2 SWAP5 CALLDATASIZE SWAP1 PUSH1 0x4 ADD PUSH2 0x23D1 JUMP JUMPDEST DUP2 ADD PUSH1 0x4 DUP2 MSTORE SUB ADD SWAP1 KECCAK256 SLOAD AND PUSH2 0xBFB PUSH1 0x40 MLOAD DUP1 SWAP3 PUSH2 0x23EF JUMP JUMPDEST RETURN JUMPDEST CALLVALUE PUSH2 0x265 JUMPI PUSH2 0x894 PUSH2 0xC63 PUSH2 0xC11 CALLDATASIZE PUSH2 0x2412 JUMP JUMPDEST SWAP1 PUSH1 0x40 MLOAD PUSH2 0xC1E DUP2 PUSH2 0x2333 JUMP JUMPDEST PUSH1 0x60 DUP2 MSTORE PUSH1 0x0 PUSH1 0x20 DUP3 ADD MSTORE PUSH1 0x0 PUSH1 0x40 DUP3 ADD MSTORE PUSH1 0x60 DUP1 DUP3 ADD MSTORE PUSH1 0x60 PUSH1 0x80 DUP3 ADD MSTORE PUSH1 0x60 PUSH1 0xA0 DUP3 ADD MSTORE PUSH2 0xC5E PUSH1 0xFF PUSH1 0x40 MLOAD PUSH1 0x20 DUP2 DUP7 MLOAD PUSH2 0x5AD DUP2 DUP4 DUP6 DUP12 ADD PUSH2 0x27AB JUMP JUMPDEST PUSH2 0x4373 JUMP JUMPDEST PUSH1 0x40 MLOAD SWAP2 DUP3 SWAP2 PUSH1 0x20 DUP4 MSTORE PUSH1 0x20 DUP4 ADD SWAP1 PUSH2 0x2997 JUMP JUMPDEST CALLVALUE PUSH2 0x265 JUMPI PUSH1 0x20 CALLDATASIZE PUSH1 0x3 NOT ADD SLT PUSH2 0x265 JUMPI PUSH1 0x4 CALLDATALOAD PUSH1 0x1 PUSH1 0x1 PUSH1 0xA0 SHL SUB DUP2 DUP2 AND SWAP2 DUP3 SWAP1 SUB PUSH2 0x265 JUMPI PUSH2 0xCC1 SWAP1 CALLER PUSH1 0x0 MSTORE PUSH1 0x8 PUSH1 0x20 MSTORE PUSH1 0xFF PUSH1 0x40 PUSH1 0x0 KECCAK256 SLOAD AND SWAP1 DUP2 ISZERO PUSH2 0x2CD JUMPI POP PUSH2 0x2A64 JUMP JUMPDEST PUSH1 0x0 SWAP1 DUP2 MSTORE PUSH1 0x9 PUSH1 0x20 MSTORE PUSH1 0x40 SWAP1 KECCAK256 DUP1 SLOAD PUSH1 0xFF NOT AND PUSH1 0x1 OR SWAP1 SSTORE STOP JUMPDEST CALLVALUE PUSH2 0x265 JUMPI PUSH1 0x20 PUSH2 0xCEF PUSH2 0x9B3 CALLDATASIZE PUSH2 0x2938 JUMP JUMPDEST DUP2 ADD PUSH1 0x7 DUP2 MSTORE SUB ADD SWAP1 KECCAK256 DUP1 SLOAD DUP3 LT ISZERO PUSH2 0x265 JUMPI PUSH1 0x20 SWAP2 PUSH2 0xD0E SWAP2 PUSH2 0x2969 JUMP JUMPDEST SWAP1 SLOAD PUSH1 0x40 MLOAD SWAP2 PUSH1 0x3 SHL SHR DUP2 MSTORE RETURN JUMPDEST CALLVALUE PUSH2 0x265 JUMPI PUSH1 0x20 DUP1 PUSH1 0x3 NOT CALLDATASIZE ADD SLT PUSH2 0x265 JUMPI PUSH1 0x4 CALLDATALOAD PUSH1 0x1 PUSH1 0x1 PUSH1 0x40 SHL SUB DUP2 GT PUSH2 0x265 JUMPI PUSH2 0xD4D SWAP1 CALLDATASIZE SWAP1 PUSH1 0x4 ADD PUSH2 0x23D1 JUMP JUMPDEST CALLER PUSH1 0x0 MSTORE PUSH1 0x8 DUP3 MSTORE PUSH1 0xFF PUSH1 0x40 PUSH1 0x0 KECCAK256 SLOAD AND DUP1 ISZERO PUSH2 0xDFB JUMPI JUMPDEST PUSH2 0xD6E SWAP1 PUSH2 0x2A64 JUMP JUMPDEST PUSH32 0x6B8BC325AB87DE6FD5DB76A0EA6091F95B945AC6A07D14C92810EC1093D1FC94 PUSH2 0xDF6 PUSH2 0xDE2 PUSH1 0x4 PUSH2 0xDD1 DUP7 PUSH1 0x40 MLOAD PUSH2 0xDB7 PUSH1 0xFF DUP10 MLOAD SWAP3 DUP5 DUP2 DUP2 DUP14 ADD SWAP6 PUSH2 0x5AD DUP2 DUP4 DUP10 PUSH2 0x27AB JUMP JUMPDEST PUSH2 0xDC0 DUP9 PUSH2 0x3EB9 JUMP JUMPDEST PUSH1 0x40 MLOAD DUP1 SWAP4 DUP2 SWAP3 DUP11 MLOAD SWAP3 DUP4 SWAP2 PUSH2 0x27AB JUMP JUMPDEST DUP2 ADD PUSH1 0x2 DUP2 MSTORE SUB ADD SWAP1 KECCAK256 ADD SWAP4 PUSH2 0x2CA5 JUMP JUMPDEST SWAP3 PUSH1 0x40 MLOAD SWAP2 DUP3 SWAP2 DUP7 DUP4 MSTORE CALLER SWAP7 DUP4 ADD SWAP1 PUSH2 0x28A2 JUMP JUMPDEST SUB SWAP1 LOG3 STOP JUMPDEST POP PUSH1 0x0 SLOAD PUSH1 0x1 PUSH1 0x1 PUSH1 0xA0 SHL SUB AND CALLER EQ PUSH2 0xD65 JUMP JUMPDEST CALLVALUE PUSH2 0x265 JUMPI PUSH1 0x80 CALLDATASIZE PUSH1 0x3 NOT ADD SLT PUSH2 0x265 JUMPI PUSH1 0x4 CALLDATALOAD PUSH1 0x1 PUSH1 0x1 PUSH1 0x40 SHL SUB DUP2 GT PUSH2 0x265 JUMPI PUSH2 0xE3F SWAP1 CALLDATASIZE SWAP1 PUSH1 0x4 ADD PUSH2 0x23D1 JUMP JUMPDEST PUSH1 0x24 CALLDATALOAD PUSH1 0x1 PUSH1 0x1 PUSH1 0x40 SHL SUB DUP2 GT PUSH2 0x265 JUMPI PUSH2 0xE5E SWAP1 CALLDATASIZE SWAP1 PUSH1 0x4 ADD PUSH2 0x23D1 JUMP JUMPDEST PUSH1 0x44 CALLDATALOAD PUSH1 0x1 PUSH1 0x1 PUSH1 0x40 SHL SUB DUP2 GT PUSH2 0x265 JUMPI PUSH2 0xE7D SWAP1 CALLDATASIZE SWAP1 PUSH1 0x4 ADD PUSH2 0x246C JUMP JUMPDEST SWAP1 PUSH1 0x1 PUSH1 0x1 PUSH1 0x40 SHL SUB PUSH1 0x64 CALLDATALOAD GT PUSH2 0x265 JUMPI CALLDATASIZE PUSH1 0x23 PUSH1 0x64 CALLDATALOAD ADD SLT ISZERO PUSH2 0x265 JUMPI PUSH1 0x64 CALLDATALOAD PUSH1 0x4 ADD CALLDATALOAD PUSH2 0xEAB DUP2 PUSH2 0x2455 JUMP JUMPDEST SWAP1 PUSH2 0xEB9 PUSH1 0x40 MLOAD SWAP3 DUP4 PUSH2 0x236A JUMP JUMPDEST DUP1 DUP3 MSTORE PUSH1 0x20 DUP3 ADD DUP1 SWAP2 CALLDATASIZE PUSH1 0x24 DUP3 PUSH1 0x5 SHL PUSH1 0x64 CALLDATALOAD ADD ADD GT PUSH2 0x265 JUMPI PUSH1 0x24 PUSH1 0x64 CALLDATALOAD ADD SWAP2 JUMPDEST PUSH1 0x24 DUP3 PUSH1 0x5 SHL PUSH1 0x64 CALLDATALOAD ADD ADD DUP4 LT PUSH2 0x168A JUMPI POP POP POP CALLER PUSH1 0x0 MSTORE PUSH1 0xA PUSH1 0x20 MSTORE PUSH1 0xFF PUSH1 0x40 PUSH1 0x0 KECCAK256 SLOAD AND DUP1 ISZERO PUSH2 0x1676 JUMPI JUMPDEST DUP1 ISZERO PUSH2 0x1662 JUMPI JUMPDEST DUP1 ISZERO PUSH2 0x164E JUMPI JUMPDEST PUSH2 0xF1F SWAP1 PUSH2 0x2A64 JUMP JUMPDEST PUSH2 0xF4E PUSH1 0xFF PUSH1 0x40 MLOAD PUSH1 0x20 DUP2 DUP2 PUSH2 0xF3B DUP12 DUP4 DUP2 MLOAD SWAP4 DUP5 SWAP3 ADD PUSH2 0x27AB JUMP JUMPDEST PUSH1 0x3 DUP2 DUP4 ADD MSTORE DUP2 ADD SUB ADD SWAP1 KECCAK256 SLOAD AND PUSH2 0x3B9D JUMP JUMPDEST DUP4 MLOAD DUP3 MLOAD SUB PUSH2 0x1609 JUMPI PUSH1 0x40 MLOAD SWAP1 PUSH1 0x20 DUP1 DUP4 ADD MSTORE PUSH2 0xF80 DUP3 PUSH2 0xF72 PUSH1 0x40 DUP3 ADD DUP9 PUSH2 0x27F3 JUMP JUMPDEST SUB PUSH1 0x1F NOT DUP2 ADD DUP5 MSTORE DUP4 PUSH2 0x236A JUMP JUMPDEST PUSH1 0x40 MLOAD SWAP1 DUP2 PUSH1 0x40 DUP2 ADD SWAP2 PUSH1 0x20 DUP1 DUP4 ADD MSTORE DUP6 MLOAD DUP1 SWAP4 MSTORE PUSH1 0x60 DUP3 ADD SWAP3 PUSH1 0x60 DUP2 PUSH1 0x5 SHL DUP5 ADD ADD SWAP2 SWAP4 PUSH1 0x0 SWAP1 JUMPDEST DUP3 DUP3 LT PUSH2 0x15DC JUMPI POP POP POP PUSH2 0xFC6 SWAP3 POP SUB PUSH1 0x1F NOT DUP2 ADD DUP4 MSTORE DUP3 PUSH2 0x236A JUMP JUMPDEST PUSH2 0x1039 PUSH1 0x40 DUP1 MLOAD DUP1 SWAP4 PUSH1 0x20 DUP3 ADD SWAP6 PUSH1 0x20 PUSH2 0xFE6 DUP13 DUP10 DUP2 MLOAD SWAP4 DUP5 SWAP3 ADD PUSH2 0x27AB JUMP JUMPDEST DUP4 ADD DUP10 MLOAD SWAP1 PUSH2 0xFFC DUP3 DUP13 PUSH1 0x20 DUP1 DUP6 ADD SWAP2 ADD PUSH2 0x27AB JUMP JUMPDEST ADD PUSH2 0x1010 DUP3 MLOAD DUP1 SWAP4 PUSH1 0x20 DUP1 DUP6 ADD SWAP2 ADD PUSH2 0x27AB JUMP JUMPDEST ADD PUSH2 0x1024 DUP3 MLOAD DUP1 SWAP4 PUSH1 0x20 DUP1 DUP6 ADD SWAP2 ADD PUSH2 0x27AB JUMP JUMPDEST ADD TIMESTAMP PUSH1 0x20 DUP3 ADD MSTORE SUB PUSH1 0x20 DUP2 ADD DUP5 MSTORE ADD DUP3 PUSH2 0x236A JUMP JUMPDEST MLOAD SWAP1 KECCAK256 SWAP3 PUSH1 0x40 MLOAD SWAP3 PUSH2 0x104A DUP5 PUSH2 0x2317 JUMP JUMPDEST DUP6 DUP5 MSTORE PUSH1 0x20 DUP5 ADD MSTORE DUP4 PUSH1 0x40 DUP5 ADD MSTORE TIMESTAMP PUSH1 0x60 DUP5 ADD MSTORE CALLER PUSH1 0x80 DUP5 ADD MSTORE PUSH1 0x1 PUSH1 0xA0 DUP5 ADD MSTORE PUSH1 0xC0 DUP4 ADD MSTORE PUSH1 0xE0 DUP3 ADD MSTORE PUSH1 0x40 MLOAD PUSH1 0x20 DUP2 DUP6 MLOAD PUSH2 0x108A DUP2 DUP4 DUP6 DUP11 ADD PUSH2 0x27AB JUMP JUMPDEST DUP2 ADD PUSH1 0x6 DUP2 MSTORE SUB ADD SWAP1 KECCAK256 DUP3 PUSH1 0x0 MSTORE PUSH1 0x20 MSTORE PUSH1 0x40 PUSH1 0x0 KECCAK256 SWAP1 DUP1 MLOAD DUP1 MLOAD SWAP1 PUSH1 0x1 PUSH1 0x1 PUSH1 0x40 SHL SUB DUP3 GT PUSH2 0x129A JUMPI DUP2 SWAP1 PUSH2 0x10CA DUP3 PUSH2 0x10C4 DUP8 SLOAD PUSH2 0x2868 JUMP JUMPDEST DUP8 PUSH2 0x2B55 JUMP JUMPDEST PUSH1 0x20 SWAP1 PUSH1 0x1F DUP4 GT PUSH1 0x1 EQ PUSH2 0x1570 JUMPI PUSH1 0x0 SWAP3 PUSH2 0x1565 JUMPI JUMPDEST POP POP DUP2 PUSH1 0x1 SHL SWAP2 PUSH1 0x0 NOT SWAP1 PUSH1 0x3 SHL SHR NOT AND OR DUP3 SSTORE JUMPDEST PUSH1 0x20 DUP2 ADD MLOAD DUP1 MLOAD SWAP1 PUSH1 0x1 PUSH1 0x1 PUSH1 0x40 SHL SUB DUP3 GT PUSH2 0x129A JUMPI DUP2 SWAP1 PUSH2 0x1127 DUP3 PUSH2 0x111E PUSH1 0x1 DUP9 ADD SLOAD PUSH2 0x2868 JUMP JUMPDEST PUSH1 0x1 DUP9 ADD PUSH2 0x2B55 JUMP JUMPDEST PUSH1 0x20 SWAP1 PUSH1 0x1F DUP4 GT PUSH1 0x1 EQ PUSH2 0x14F3 JUMPI PUSH1 0x0 SWAP3 PUSH2 0x14E8 JUMPI JUMPDEST POP POP DUP2 PUSH1 0x1 SHL SWAP2 PUSH1 0x0 NOT SWAP1 PUSH1 0x3 SHL SHR NOT AND OR PUSH1 0x1 DUP4 ADD SSTORE JUMPDEST PUSH1 0x40 DUP2 ADD MLOAD PUSH1 0x2 DUP4 ADD SSTORE PUSH1 0x60 DUP2 ADD MLOAD PUSH1 0x3 DUP4 ADD SSTORE PUSH1 0x4 DUP3 ADD PUSH1 0x1 DUP1 PUSH1 0xA0 SHL SUB PUSH1 0x80 DUP4 ADD MLOAD AND DUP2 SLOAD SWAP1 PUSH1 0xFF PUSH1 0xA0 SHL PUSH1 0xA0 DUP6 ADD MLOAD ISZERO ISZERO PUSH1 0xA0 SHL AND SWAP2 PUSH11 0xFFFFFFFFFFFFFFFFFFFFFF PUSH1 0xA8 SHL AND OR OR SWAP1 SSTORE PUSH1 0x5 DUP3 ADD PUSH1 0xC0 DUP3 ADD MLOAD PUSH1 0x20 DUP2 MLOAD SWAP2 PUSH2 0x11BA DUP4 DUP6 PUSH2 0x2C37 JUMP JUMPDEST ADD SWAP2 PUSH1 0x0 MSTORE PUSH1 0x20 PUSH1 0x0 KECCAK256 SWAP2 PUSH1 0x0 SWAP1 JUMPDEST DUP3 DUP3 LT PUSH2 0x140B JUMPI POP POP POP POP PUSH1 0xE0 ADD MLOAD DUP1 MLOAD SWAP1 PUSH1 0x1 PUSH1 0x40 SHL DUP3 GT PUSH2 0x129A JUMPI PUSH1 0x6 DUP4 ADD SLOAD DUP3 PUSH1 0x6 DUP6 ADD SSTORE DUP1 DUP4 LT PUSH2 0x1393 JUMPI JUMPDEST POP PUSH1 0x20 PUSH1 0x6 SWAP2 ADD SWAP3 ADD PUSH1 0x0 MSTORE PUSH1 0x20 PUSH1 0x0 KECCAK256 SWAP2 PUSH1 0x0 SWAP1 JUMPDEST DUP3 DUP3 LT PUSH2 0x12B0 JUMPI DUP6 DUP6 PUSH1 0x40 MLOAD PUSH1 0x20 DUP2 DUP5 MLOAD PUSH2 0x122D DUP2 DUP4 DUP6 DUP10 ADD PUSH2 0x27AB JUMP JUMPDEST DUP2 ADD PUSH1 0x7 DUP2 MSTORE SUB ADD SWAP1 KECCAK256 DUP1 SLOAD PUSH1 0x1 PUSH1 0x40 SHL DUP2 LT ISZERO PUSH2 0x129A JUMPI PUSH2 0x1254 SWAP2 PUSH1 0x1 DUP3 ADD DUP2 SSTORE PUSH2 0x2969 JUMP JUMPDEST DUP2 SLOAD SWAP1 PUSH1 0x3 SHL SWAP1 DUP4 DUP3 SHL SWAP2 PUSH1 0x0 NOT SWAP1 SHL NOT AND OR SWAP1 SSTORE PUSH2 0x1273 CALLER SWAP3 PUSH2 0x2CA5 JUMP JUMPDEST PUSH32 0xD43380D9043F9DC8FA2B83A8C42DDC2397CCB419725982A86E035C9B67153910 PUSH1 0x0 DUP1 LOG4 STOP JUMPDEST PUSH4 0x4E487B71 PUSH1 0xE0 SHL PUSH1 0x0 MSTORE PUSH1 0x41 PUSH1 0x4 MSTORE PUSH1 0x24 PUSH1 0x0 REVERT JUMPDEST DUP1 MLOAD DUP1 MLOAD SWAP1 PUSH1 0x1 PUSH1 0x1 PUSH1 0x40 SHL SUB DUP3 GT PUSH2 0x129A JUMPI PUSH2 0x12D7 DUP3 PUSH2 0x12D1 DUP9 SLOAD PUSH2 0x2868 JUMP JUMPDEST DUP9 PUSH2 0x2B55 JUMP JUMPDEST PUSH1 0x20 SWAP1 PUSH1 0x1F DUP4 GT PUSH1 0x1 EQ PUSH2 0x1323 JUMPI SWAP3 DUP3 PUSH1 0x1 SWAP5 SWAP4 PUSH1 0x20 SWAP4 DUP7 SWAP6 PUSH1 0x0 SWAP3 PUSH2 0x1318 JUMPI JUMPDEST POP POP PUSH1 0x0 NOT PUSH1 0x3 DUP4 SWAP1 SHL SHR NOT AND SWAP1 DUP5 SHL OR DUP8 SSTORE JUMPDEST ADD SWAP5 ADD SWAP2 ADD SWAP1 SWAP3 PUSH2 0x120F JUMP JUMPDEST ADD MLOAD SWAP1 POP DUP12 DUP1 PUSH2 0x12F8 JUMP JUMPDEST SWAP1 DUP7 PUSH1 0x0 MSTORE PUSH1 0x20 PUSH1 0x0 KECCAK256 SWAP2 PUSH1 0x0 JUMPDEST PUSH1 0x1F NOT DUP6 AND DUP2 LT PUSH2 0x137B JUMPI POP DUP4 PUSH1 0x20 SWAP4 PUSH1 0x1 SWAP7 SWAP4 DUP8 SWAP7 SWAP4 DUP8 SWAP5 PUSH1 0x1F NOT DUP2 AND LT PUSH2 0x1362 JUMPI JUMPDEST POP POP POP DUP2 SHL ADD DUP8 SSTORE PUSH2 0x130C JUMP JUMPDEST ADD MLOAD PUSH1 0x0 NOT PUSH1 0xF8 DUP5 PUSH1 0x3 SHL AND SHR NOT AND SWAP1 SSTORE DUP12 DUP1 DUP1 PUSH2 0x1355 JUMP JUMPDEST SWAP2 SWAP3 PUSH1 0x20 PUSH1 0x1 DUP2 SWAP3 DUP7 DUP6 ADD MLOAD DUP2 SSTORE ADD SWAP5 ADD SWAP3 ADD PUSH2 0x1331 JUMP JUMPDEST PUSH1 0x6 DUP5 ADD PUSH1 0x0 MSTORE PUSH1 0x20 PUSH1 0x0 KECCAK256 SWAP1 DUP4 DUP3 ADD JUMPDEST DUP2 DUP4 ADD DUP2 LT PUSH2 0x13B4 JUMPI POP POP PUSH2 0x11F9 JUMP JUMPDEST DUP1 PUSH2 0x13C1 PUSH1 0x1 SWAP3 SLOAD PUSH2 0x2868 JUMP JUMPDEST DUP1 PUSH2 0x13CE JUMPI JUMPDEST POP ADD PUSH2 0x13A4 JUMP JUMPDEST PUSH1 0x1F DUP2 GT DUP4 EQ PUSH2 0x13E4 JUMPI POP PUSH1 0x0 DUP2 SSTORE JUMPDEST DUP10 PUSH2 0x13C7 JUMP JUMPDEST PUSH1 0x0 SWAP1 DUP3 DUP3 MSTORE PUSH2 0x1402 PUSH1 0x1F PUSH1 0x20 DUP5 KECCAK256 SWAP3 ADD PUSH1 0x5 SHR DUP3 ADD DUP6 DUP4 ADD PUSH2 0x2B3E JUMP JUMPDEST DUP2 DUP4 SSTORE SSTORE PUSH2 0x13DE JUMP JUMPDEST DUP1 MLOAD DUP1 MLOAD SWAP1 PUSH1 0x1 PUSH1 0x1 PUSH1 0x40 SHL SUB DUP3 GT PUSH2 0x129A JUMPI PUSH2 0x142C DUP3 PUSH2 0x12D1 DUP9 SLOAD PUSH2 0x2868 JUMP JUMPDEST PUSH1 0x20 SWAP1 PUSH1 0x1F DUP4 GT PUSH1 0x1 EQ PUSH2 0x1478 JUMPI SWAP3 DUP3 PUSH1 0x1 SWAP5 SWAP4 PUSH1 0x20 SWAP4 DUP7 SWAP6 PUSH1 0x0 SWAP3 PUSH2 0x146D JUMPI JUMPDEST POP POP PUSH1 0x0 NOT PUSH1 0x3 DUP4 SWAP1 SHL SHR NOT AND SWAP1 DUP5 SHL OR DUP8 SSTORE JUMPDEST ADD SWAP5 ADD SWAP2 ADD SWAP1 SWAP3 PUSH2 0x11C9 JUMP JUMPDEST ADD MLOAD SWAP1 POP DUP14 DUP1 PUSH2 0x144D JUMP JUMPDEST SWAP1 DUP7 PUSH1 0x0 MSTORE PUSH1 0x20 PUSH1 0x0 KECCAK256 SWAP2 PUSH1 0x0 JUMPDEST PUSH1 0x1F NOT DUP6 AND DUP2 LT PUSH2 0x14D0 JUMPI POP DUP4 PUSH1 0x20 SWAP4 PUSH1 0x1 SWAP7 SWAP4 DUP8 SWAP7 SWAP4 DUP8 SWAP5 PUSH1 0x1F NOT DUP2 AND LT PUSH2 0x14B7 JUMPI JUMPDEST POP POP POP DUP2 SHL ADD DUP8 SSTORE PUSH2 0x1461 JUMP JUMPDEST ADD MLOAD PUSH1 0x0 NOT PUSH1 0xF8 DUP5 PUSH1 0x3 SHL AND SHR NOT AND SWAP1 SSTORE DUP14 DUP1 DUP1 PUSH2 0x14AA JUMP JUMPDEST SWAP2 SWAP3 PUSH1 0x20 PUSH1 0x1 DUP2 SWAP3 DUP7 DUP6 ADD MLOAD DUP2 SSTORE ADD SWAP5 ADD SWAP3 ADD PUSH2 0x1486 JUMP JUMPDEST ADD MLOAD SWAP1 POP DUP7 DUP1 PUSH2 0x113D JUMP JUMPDEST SWAP3 POP PUSH1 0x1 DUP6 ADD PUSH1 0x0 MSTORE PUSH1 0x20 PUSH1 0x0 KECCAK256 SWAP1 PUSH1 0x0 SWAP4 JUMPDEST PUSH1 0x1F NOT DUP5 AND DUP6 LT PUSH2 0x154A JUMPI PUSH1 0x1 SWAP5 POP DUP4 PUSH1 0x1F NOT DUP2 AND LT PUSH2 0x1531 JUMPI JUMPDEST POP POP POP DUP2 SHL ADD PUSH1 0x1 DUP4 ADD SSTORE PUSH2 0x1155 JUMP JUMPDEST ADD MLOAD PUSH1 0x0 NOT PUSH1 0xF8 DUP5 PUSH1 0x3 SHL AND SHR NOT AND SWAP1 SSTORE DUP7 DUP1 DUP1 PUSH2 0x1521 JUMP JUMPDEST DUP2 DUP2 ADD MLOAD DUP4 SSTORE PUSH1 0x20 SWAP5 DUP6 ADD SWAP5 PUSH1 0x1 SWAP1 SWAP4 ADD SWAP3 SWAP1 SWAP2 ADD SWAP1 PUSH2 0x1506 JUMP JUMPDEST ADD MLOAD SWAP1 POP DUP7 DUP1 PUSH2 0x10E0 JUMP JUMPDEST SWAP3 POP DUP5 PUSH1 0x0 MSTORE PUSH1 0x20 PUSH1 0x0 KECCAK256 SWAP1 PUSH1 0x0 SWAP4 JUMPDEST PUSH1 0x1F NOT DUP5 AND DUP6 LT PUSH2 0x15C1 JUMPI PUSH1 0x1 SWAP5 POP DUP4 PUSH1 0x1F NOT DUP2 AND LT PUSH2 0x15A8 JUMPI JUMPDEST POP POP POP DUP2 SHL ADD DUP3 SSTORE PUSH2 0x10F5 JUMP JUMPDEST ADD MLOAD PUSH1 0x0 NOT PUSH1 0xF8 DUP5 PUSH1 0x3 SHL AND SHR NOT AND SWAP1 SSTORE DUP7 DUP1 DUP1 PUSH2 0x159B JUMP JUMPDEST DUP2 DUP2 ADD MLOAD DUP4 SSTORE PUSH1 0x20 SWAP5 DUP6 ADD SWAP5 PUSH1 0x1 SWAP1 SWAP4 ADD SWAP3 SWAP1 SWAP2 ADD SWAP1 PUSH2 0x1580 JUMP JUMPDEST SWAP2 SWAP4 POP SWAP2 PUSH1 0x20 DUP1 PUSH2 0x15F9 PUSH1 0x1 SWAP4 PUSH1 0x5F NOT DUP11 DUP3 SUB ADD DUP7 MSTORE DUP9 MLOAD PUSH2 0x27CE JUMP JUMPDEST SWAP7 ADD SWAP3 ADD SWAP3 ADD DUP6 SWAP4 SWAP2 SWAP5 SWAP3 PUSH2 0xFA9 JUMP JUMPDEST PUSH1 0x40 MLOAD PUSH3 0x461BCD PUSH1 0xE5 SHL DUP2 MSTORE PUSH1 0x20 PUSH1 0x4 DUP3 ADD MSTORE PUSH1 0x1F PUSH1 0x24 DUP3 ADD MSTORE PUSH32 0x4669656C64206E616D657320616E642076616C756573206D69736D6174636800 PUSH1 0x44 DUP3 ADD MSTORE PUSH1 0x64 SWAP1 REVERT JUMPDEST POP PUSH1 0x0 SLOAD PUSH1 0x1 PUSH1 0x1 PUSH1 0xA0 SHL SUB AND CALLER EQ PUSH2 0xF16 JUMP JUMPDEST POP PUSH1 0x8 PUSH1 0x20 MSTORE PUSH1 0xFF PUSH1 0x40 PUSH1 0x0 KECCAK256 SLOAD AND PUSH2 0xF0F JUMP JUMPDEST POP PUSH1 0x9 PUSH1 0x20 MSTORE PUSH1 0xFF PUSH1 0x40 PUSH1 0x0 KECCAK256 SLOAD AND PUSH2 0xF08 JUMP JUMPDEST DUP3 CALLDATALOAD SWAP1 PUSH1 0x1 PUSH1 0x1 PUSH1 0x40 SHL SUB DUP3 GT PUSH2 0x265 JUMPI CALLDATASIZE PUSH1 0x43 DUP4 PUSH1 0x64 CALLDATALOAD ADD ADD SLT ISZERO PUSH2 0x265 JUMPI PUSH1 0x24 SWAP2 PUSH1 0x20 SWAP2 DUP3 SWAP2 PUSH2 0x16C9 SWAP1 CALLDATASIZE SWAP1 PUSH1 0x64 CALLDATALOAD ADD DUP1 DUP8 ADD CALLDATALOAD SWAP1 PUSH1 0x44 ADD PUSH2 0x238B JUMP JUMPDEST DUP2 MSTORE ADD SWAP4 ADD SWAP3 SWAP1 POP PUSH2 0xEDB JUMP JUMPDEST CALLVALUE PUSH2 0x265 JUMPI PUSH1 0x20 PUSH2 0x1739 PUSH2 0x16E9 CALLDATASIZE PUSH2 0x2938 JUMP JUMPDEST SWAP3 SWAP1 PUSH1 0x60 PUSH1 0xE0 PUSH1 0x40 MLOAD PUSH2 0x16FB DUP2 PUSH2 0x2317 JUMP JUMPDEST DUP3 DUP2 MSTORE DUP3 DUP6 DUP3 ADD MSTORE PUSH1 0x0 PUSH1 0x40 DUP3 ADD MSTORE PUSH1 0x0 DUP4 DUP3 ADD MSTORE PUSH1 0x0 PUSH1 0x80 DUP3 ADD MSTORE PUSH1 0x0 PUSH1 0xA0 DUP3 ADD MSTORE DUP3 PUSH1 0xC0 DUP3 ADD MSTORE ADD MSTORE DUP2 PUSH1 0x40 MLOAD SWAP4 DUP3 DUP6 DUP1 SWAP5 MLOAD SWAP4 DUP5 SWAP3 ADD PUSH2 0x27AB JUMP JUMPDEST DUP2 ADD PUSH1 0x6 DUP2 MSTORE SUB ADD SWAP1 KECCAK256 SWAP1 PUSH1 0x0 MSTORE PUSH1 0x20 MSTORE PUSH1 0x40 PUSH1 0x0 KECCAK256 PUSH1 0x6 PUSH1 0x40 MLOAD SWAP2 PUSH2 0x175E DUP4 PUSH2 0x2317 JUMP JUMPDEST PUSH1 0x40 MLOAD PUSH2 0x176F DUP2 PUSH2 0x5F7 DUP2 DUP6 PUSH2 0x28A2 JUMP JUMPDEST DUP4 MSTORE PUSH1 0x40 MLOAD PUSH2 0x1785 DUP2 PUSH2 0x5F7 DUP2 PUSH1 0x1 DUP7 ADD PUSH2 0x28A2 JUMP JUMPDEST PUSH1 0x20 DUP5 ADD MSTORE PUSH1 0x2 DUP2 ADD SLOAD PUSH1 0x40 DUP5 ADD MSTORE PUSH1 0x3 DUP2 ADD SLOAD PUSH1 0x60 DUP5 ADD MSTORE PUSH1 0x4 DUP2 ADD SLOAD PUSH1 0x1 PUSH1 0x1 PUSH1 0xA0 SHL SUB DUP2 AND PUSH1 0x80 DUP6 ADD MSTORE PUSH1 0xA0 SWAP1 DUP2 SHR PUSH1 0xFF AND ISZERO ISZERO SWAP1 DUP5 ADD MSTORE PUSH2 0x17CC PUSH1 0x5 DUP3 ADD PUSH2 0x3C79 JUMP JUMPDEST PUSH1 0xC0 DUP5 ADD MSTORE ADD DUP1 SLOAD PUSH2 0x17DD DUP2 PUSH2 0x2455 JUMP JUMPDEST SWAP2 PUSH2 0x17EB PUSH1 0x40 MLOAD SWAP4 DUP5 PUSH2 0x236A JUMP JUMPDEST DUP2 DUP4 MSTORE PUSH1 0x20 DUP4 ADD SWAP1 PUSH1 0x0 MSTORE PUSH1 0x20 PUSH1 0x0 KECCAK256 PUSH1 0x0 SWAP2 JUMPDEST DUP4 DUP4 LT PUSH2 0x18FC JUMPI DUP6 DUP6 PUSH1 0xE0 DUP3 ADD MSTORE PUSH1 0x40 MLOAD DUP1 SWAP2 PUSH1 0x20 DUP3 MSTORE PUSH2 0x182E DUP2 MLOAD PUSH2 0x100 PUSH1 0x20 DUP6 ADD MSTORE PUSH2 0x120 DUP5 ADD SWAP1 PUSH2 0x27CE JUMP JUMPDEST PUSH1 0xE0 PUSH2 0x1894 PUSH2 0x184F PUSH1 0x20 DUP6 ADD MLOAD SWAP4 PUSH1 0x1F NOT SWAP5 DUP6 DUP9 DUP4 SUB ADD PUSH1 0x40 DUP10 ADD MSTORE PUSH2 0x27CE JUMP JUMPDEST PUSH1 0x40 DUP6 ADD MLOAD PUSH1 0x60 DUP8 ADD MSTORE PUSH1 0x60 DUP6 ADD MLOAD PUSH1 0x80 DUP8 ADD MSTORE PUSH1 0x1 DUP1 PUSH1 0xA0 SHL SUB PUSH1 0x80 DUP7 ADD MLOAD AND PUSH1 0xA0 DUP8 ADD MSTORE PUSH1 0xA0 DUP6 ADD MLOAD ISZERO ISZERO PUSH1 0xC0 DUP8 ADD MSTORE PUSH1 0xC0 DUP6 ADD MLOAD DUP5 DUP8 DUP4 SUB ADD DUP5 DUP9 ADD MSTORE PUSH2 0x27F3 JUMP JUMPDEST SWAP3 ADD MLOAD SWAP2 DUP2 DUP5 DUP3 SUB ADD PUSH2 0x100 DUP6 ADD MSTORE DUP3 MLOAD SWAP1 DUP2 DUP2 MSTORE PUSH1 0x20 DUP2 ADD PUSH1 0x20 DUP1 DUP5 PUSH1 0x5 SHL DUP5 ADD ADD SWAP6 ADD SWAP4 PUSH1 0x0 SWAP3 JUMPDEST DUP5 DUP5 LT PUSH2 0x18CB JUMPI DUP8 DUP8 SUB DUP9 RETURN JUMPDEST SWAP2 SWAP4 SWAP6 DUP2 SWAP4 SWAP6 SWAP8 POP PUSH1 0x20 PUSH2 0x18EA DUP3 PUSH1 0x1 SWAP5 DUP7 DUP5 SWAP6 SUB ADD DUP9 MSTORE DUP11 MLOAD PUSH2 0x27CE JUMP JUMPDEST SWAP9 ADD SWAP5 ADD SWAP5 ADD SWAP2 DUP8 SWAP7 SWAP6 SWAP4 SWAP5 SWAP2 PUSH2 0x18BE JUMP JUMPDEST PUSH1 0x1 PUSH1 0x20 DUP2 SWAP3 PUSH1 0x40 MLOAD PUSH2 0x1913 DUP2 PUSH2 0x5F7 DUP2 DUP10 PUSH2 0x28A2 JUMP JUMPDEST DUP2 MSTORE ADD SWAP3 ADD SWAP3 ADD SWAP2 SWAP1 PUSH2 0x17FF JUMP JUMPDEST CALLVALUE PUSH2 0x265 JUMPI PUSH1 0x0 CALLDATASIZE PUSH1 0x3 NOT ADD SLT PUSH2 0x265 JUMPI PUSH1 0x0 SLOAD PUSH1 0x40 MLOAD PUSH1 0x1 PUSH1 0x1 PUSH1 0xA0 SHL SUB SWAP1 SWAP2 AND DUP2 MSTORE PUSH1 0x20 SWAP1 RETURN JUMPDEST CALLVALUE PUSH2 0x265 JUMPI PUSH1 0x20 CALLDATASIZE PUSH1 0x3 NOT ADD SLT PUSH2 0x265 JUMPI PUSH1 0x4 CALLDATALOAD PUSH1 0x1 PUSH1 0x1 PUSH1 0xA0 SHL SUB DUP2 DUP2 AND SWAP2 DUP3 SWAP1 SUB PUSH2 0x265 JUMPI PUSH2 0x1994 SWAP1 CALLER PUSH1 0x0 MSTORE PUSH1 0x8 PUSH1 0x20 MSTORE PUSH1 0xFF PUSH1 0x40 PUSH1 0x0 KECCAK256 SLOAD AND SWAP1 DUP2 ISZERO PUSH2 0x2CD JUMPI POP PUSH2 0x2A64 JUMP JUMPDEST PUSH1 0x0 SWAP1 DUP2 MSTORE PUSH1 0x9 PUSH1 0x20 MSTORE PUSH1 0x40 SWAP1 KECCAK256 DUP1 SLOAD PUSH1 0xFF NOT AND SWAP1 SSTORE STOP JUMPDEST CALLVALUE PUSH2 0x265 JUMPI PUSH1 0x20 CALLDATASIZE PUSH1 0x3 NOT ADD SLT PUSH2 0x265 JUMPI PUSH1 0x4 CALLDATALOAD PUSH1 0x1 PUSH1 0x1 PUSH1 0x40 SHL SUB DUP2 GT PUSH2 0x265 JUMPI PUSH2 0x19E2 PUSH1 0x20 PUSH2 0xB81 DUP2 SWAP4 CALLDATASIZE SWAP1 PUSH1 0x4 ADD PUSH2 0x23D1 JUMP JUMPDEST DUP2 ADD PUSH1 0xD DUP2 MSTORE SUB ADD SWAP1 KECCAK256 SLOAD PUSH1 0x40 MLOAD SWAP1 DUP2 MSTORE RETURN JUMPDEST CALLVALUE PUSH2 0x265 JUMPI PUSH1 0x20 CALLDATASIZE PUSH1 0x3 NOT ADD SLT PUSH2 0x265 JUMPI PUSH1 0x4 CALLDATALOAD PUSH1 0x1 PUSH1 0x1 PUSH1 0xA0 SHL SUB DUP2 AND SWAP1 DUP2 SWAP1 SUB PUSH2 0x265 JUMPI PUSH1 0x0 MSTORE PUSH1 0xA PUSH1 0x20 MSTORE PUSH1 0x20 PUSH1 0xFF PUSH1 0x40 PUSH1 0x0 KECCAK256 SLOAD AND PUSH1 0x40 MLOAD SWAP1 ISZERO ISZERO DUP2 MSTORE RETURN JUMPDEST CALLVALUE PUSH2 0x265 JUMPI PUSH1 0x20 CALLDATASIZE PUSH1 0x3 NOT ADD SLT PUSH2 0x265 JUMPI PUSH1 0x4 CALLDATALOAD PUSH1 0x1 PUSH1 0x1 PUSH1 0xA0 SHL SUB DUP2 AND SWAP1 DUP2 SWAP1 SUB PUSH2 0x265 JUMPI PUSH1 0x0 MSTORE PUSH1 0x8 PUSH1 0x20 MSTORE PUSH1 0x20 PUSH1 0xFF PUSH1 0x40 PUSH1 0x0 KECCAK256 SLOAD AND PUSH1 0x40 MLOAD SWAP1 ISZERO ISZERO DUP2 MSTORE RETURN JUMPDEST CALLVALUE PUSH2 0x265 JUMPI PUSH1 0x0 CALLDATASIZE PUSH1 0x3 NOT ADD SLT PUSH2 0x265 JUMPI PUSH2 0x1A94 PUSH2 0x2A0C JUMP JUMPDEST PUSH1 0x0 DUP1 SLOAD PUSH1 0x1 PUSH1 0x1 PUSH1 0xA0 SHL SUB NOT DUP2 AND DUP3 SSTORE PUSH1 0x1 PUSH1 0x1 PUSH1 0xA0 SHL SUB AND PUSH32 0x8BE0079C531659141344CD1FD0A4F28419497F9722A3DAAFE3B4186F6B6457E0 DUP3 DUP1 LOG3 STOP JUMPDEST CALLVALUE PUSH2 0x265 JUMPI PUSH1 0x20 CALLDATASIZE PUSH1 0x3 NOT ADD SLT PUSH2 0x265 JUMPI PUSH1 0x4 CALLDATALOAD PUSH1 0x1 PUSH1 0x1 PUSH1 0xA0 SHL SUB DUP2 DUP2 AND SWAP2 DUP3 SWAP1 SUB PUSH2 0x265 JUMPI PUSH2 0x1B03 PUSH2 0x2A0C JUMP JUMPDEST PUSH1 0x0 SLOAD AND DUP2 EQ PUSH2 0x1B25 JUMPI PUSH1 0x0 SWAP1 DUP2 MSTORE PUSH1 0x8 PUSH1 0x20 MSTORE PUSH1 0x40 SWAP1 KECCAK256 DUP1 SLOAD PUSH1 0xFF NOT AND SWAP1 SSTORE STOP JUMPDEST PUSH1 0x40 MLOAD PUSH3 0x461BCD PUSH1 0xE5 SHL DUP2 MSTORE PUSH1 0x20 PUSH1 0x4 DUP3 ADD MSTORE PUSH1 0x13 PUSH1 0x24 DUP3 ADD MSTORE PUSH19 0x21B0B73737BA103932B6B7BB329037BBB732B9 PUSH1 0x69 SHL PUSH1 0x44 DUP3 ADD MSTORE PUSH1 0x64 SWAP1 REVERT JUMPDEST CALLVALUE PUSH2 0x265 JUMPI PUSH1 0x20 CALLDATASIZE PUSH1 0x3 NOT ADD SLT PUSH2 0x265 JUMPI PUSH1 0x4 CALLDATALOAD PUSH1 0x1 PUSH1 0x1 PUSH1 0x40 SHL SUB DUP2 GT PUSH2 0x265 JUMPI PUSH2 0x1B90 SWAP1 CALLDATASIZE SWAP1 PUSH1 0x4 ADD PUSH2 0x23D1 JUMP JUMPDEST PUSH1 0x6 PUSH2 0x1BC8 PUSH1 0x20 PUSH1 0x40 MLOAD SWAP4 DUP1 MLOAD SWAP1 PUSH2 0x5BE PUSH1 0xFF DUP5 DUP4 ADD SWAP4 PUSH2 0x1BB2 DUP2 DUP11 DUP8 PUSH2 0x27AB JUMP JUMPDEST DUP9 ADD SWAP8 DUP6 DUP2 PUSH1 0x3 SWAP11 DUP12 DUP2 MSTORE SUB ADD SWAP1 KECCAK256 SLOAD AND PUSH2 0x3B9D JUMP JUMPDEST DUP2 ADD PUSH1 0x2 DUP2 MSTORE SUB ADD SWAP1 KECCAK256 ADD DUP1 SLOAD SWAP1 PUSH2 0x1BDF DUP3 PUSH2 0x430D JUMP JUMPDEST SWAP2 PUSH2 0x1BE9 DUP2 PUSH2 0x430D JUMP JUMPDEST SWAP2 PUSH1 0x0 JUMPDEST DUP3 DUP2 LT PUSH2 0x1C1E JUMPI PUSH2 0x1C10 DUP6 PUSH2 0x894 DUP7 PUSH1 0x40 MLOAD SWAP4 DUP5 SWAP4 PUSH1 0x40 DUP6 MSTORE PUSH1 0x40 DUP6 ADD SWAP1 PUSH2 0x27F3 JUMP JUMPDEST SWAP1 DUP4 DUP3 SUB PUSH1 0x20 DUP6 ADD MSTORE PUSH2 0x27F3 JUMP JUMPDEST DUP1 PUSH2 0x5F7 PUSH2 0x1C3F PUSH2 0x1C32 PUSH2 0x1C8F SWAP5 DUP7 PUSH2 0x4357 JUMP JUMPDEST POP PUSH1 0x40 MLOAD SWAP3 DUP4 DUP1 SWAP3 PUSH2 0x28A2 JUMP JUMPDEST PUSH2 0x1C49 DUP3 DUP9 PUSH2 0x44BD JUMP JUMPDEST MSTORE PUSH2 0x1C54 DUP2 DUP8 PUSH2 0x44BD JUMP JUMPDEST POP DUP7 PUSH2 0x1C74 PUSH2 0x1C63 DUP4 DUP7 PUSH2 0x4357 JUMP JUMPDEST POP PUSH2 0x5F7 PUSH1 0x40 MLOAD DUP1 SWAP5 DUP2 SWAP4 ADD PUSH2 0x28A2 JUMP JUMPDEST PUSH2 0x1C7E DUP3 DUP8 PUSH2 0x44BD JUMP JUMPDEST MSTORE PUSH2 0x1C89 DUP2 DUP7 PUSH2 0x44BD JUMP JUMPDEST POP PUSH2 0x2C80 JUMP JUMPDEST PUSH2 0x1BED JUMP JUMPDEST CALLVALUE PUSH2 0x265 JUMPI PUSH1 0x0 CALLDATASIZE PUSH1 0x3 NOT ADD SLT PUSH2 0x265 JUMPI PUSH2 0x98A PUSH2 0x2A0C JUMP JUMPDEST CALLVALUE PUSH2 0x265 JUMPI PUSH1 0x20 CALLDATASIZE PUSH1 0x3 NOT ADD SLT PUSH2 0x265 JUMPI PUSH1 0x4 CALLDATALOAD PUSH1 0x1 PUSH1 0x1 PUSH1 0xA0 SHL SUB DUP2 DUP2 AND SWAP2 DUP3 SWAP1 SUB PUSH2 0x265 JUMPI PUSH2 0x1CF7 SWAP1 CALLER PUSH1 0x0 MSTORE PUSH1 0x8 PUSH1 0x20 MSTORE PUSH1 0xFF PUSH1 0x40 PUSH1 0x0 KECCAK256 SLOAD AND SWAP1 DUP2 ISZERO PUSH2 0x2CD JUMPI POP PUSH2 0x2A64 JUMP JUMPDEST PUSH1 0x0 SWAP1 DUP2 MSTORE PUSH1 0xA PUSH1 0x20 MSTORE PUSH1 0x40 SWAP1 KECCAK256 DUP1 SLOAD PUSH1 0xFF NOT AND PUSH1 0x1 OR SWAP1 SSTORE STOP JUMPDEST CALLVALUE PUSH2 0x265 JUMPI PUSH1 0x20 CALLDATASIZE PUSH1 0x3 NOT ADD SLT PUSH2 0x265 JUMPI PUSH1 0x4 CALLDATALOAD PUSH1 0x1 PUSH1 0x1 PUSH1 0x40 SHL SUB DUP2 GT PUSH2 0x265 JUMPI PUSH2 0x1D42 SWAP1 CALLDATASIZE SWAP1 PUSH1 0x4 ADD PUSH2 0x23D1 JUMP JUMPDEST PUSH1 0x40 MLOAD DUP2 DUP2 DUP1 SWAP4 MLOAD PUSH1 0x20 DUP2 SWAP4 ADD SWAP2 PUSH2 0x1D59 SWAP3 PUSH2 0x27AB JUMP JUMPDEST DUP2 ADD PUSH1 0x2 DUP2 MSTORE SUB PUSH1 0x20 ADD SWAP1 KECCAK256 PUSH1 0x40 MLOAD DUP1 PUSH2 0x1D73 DUP2 DUP5 PUSH2 0x28A2 JUMP JUMPDEST SUB PUSH2 0x1D7E SWAP1 DUP3 PUSH2 0x236A JUMP JUMPDEST PUSH1 0x1 DUP3 ADD SLOAD PUSH1 0xFF AND SWAP2 PUSH1 0x40 MLOAD DUP1 DUP1 PUSH1 0x2 DUP5 ADD SWAP1 PUSH2 0x1D9A SWAP2 PUSH2 0x28A2 JUMP JUMPDEST SUB PUSH2 0x1DA5 SWAP1 DUP3 PUSH2 0x236A JUMP JUMPDEST PUSH1 0x40 MLOAD DUP1 PUSH2 0x1DB6 DUP2 PUSH1 0x3 DUP7 ADD PUSH2 0x28A2 JUMP JUMPDEST SUB PUSH2 0x1DC1 SWAP1 DUP3 PUSH2 0x236A JUMP JUMPDEST PUSH1 0x40 MLOAD SWAP1 DUP2 PUSH2 0x1DD3 DUP2 PUSH1 0x4 DUP8 ADD PUSH2 0x28A2 JUMP JUMPDEST SUB PUSH2 0x1DDE SWAP1 DUP4 PUSH2 0x236A JUMP JUMPDEST PUSH1 0x40 MLOAD SWAP2 DUP3 PUSH2 0x1DF0 DUP2 PUSH1 0x5 DUP9 ADD PUSH2 0x28A2 JUMP JUMPDEST SUB PUSH2 0x1DFB SWAP1 DUP5 PUSH2 0x236A JUMP JUMPDEST PUSH1 0x9 DUP6 ADD SLOAD PUSH1 0xFF AND SWAP3 PUSH1 0xA DUP7 ADD SLOAD SWAP2 PUSH1 0xB DUP8 ADD SLOAD SWAP4 PUSH1 0x40 MLOAD SWAP7 DUP8 DUP1 PUSH1 0xC DUP12 ADD SWAP1 PUSH2 0x1E24 SWAP2 PUSH2 0x28A2 JUMP JUMPDEST SUB PUSH2 0x1E2F SWAP1 DUP10 PUSH2 0x236A JUMP JUMPDEST PUSH1 0x40 MLOAD DUP1 PUSH1 0xD DUP2 SWAP12 ADD SWAP1 PUSH2 0x1E42 SWAP2 PUSH2 0x28A2 JUMP JUMPDEST SUB PUSH2 0x1E4D SWAP1 DUP11 PUSH2 0x236A JUMP JUMPDEST PUSH1 0x40 MLOAD SWAP11 DUP12 SWAP11 PUSH2 0x160 DUP1 DUP14 MSTORE DUP13 ADD PUSH2 0x1E64 SWAP2 PUSH2 0x27CE JUMP JUMPDEST SWAP1 PUSH1 0x20 DUP13 ADD PUSH2 0x1E72 SWAP2 PUSH2 0x23EF JUMP JUMPDEST DUP11 DUP2 SUB PUSH1 0x40 DUP13 ADD MSTORE PUSH2 0x1E83 SWAP2 PUSH2 0x27CE JUMP JUMPDEST DUP10 DUP2 SUB PUSH1 0x60 DUP12 ADD MSTORE PUSH2 0x1E94 SWAP2 PUSH2 0x27CE JUMP JUMPDEST DUP9 DUP2 SUB PUSH1 0x80 DUP11 ADD MSTORE PUSH2 0x1EA5 SWAP2 PUSH2 0x27CE JUMP JUMPDEST DUP8 DUP2 SUB PUSH1 0xA0 DUP10 ADD MSTORE PUSH2 0x1EB6 SWAP2 PUSH2 0x27CE JUMP JUMPDEST SWAP3 ISZERO ISZERO PUSH1 0xC0 DUP8 ADD MSTORE PUSH1 0xE0 DUP7 ADD MSTORE PUSH2 0x100 DUP6 ADD MSTORE DUP4 DUP2 SUB PUSH2 0x120 DUP6 ADD MSTORE PUSH2 0x1EDB SWAP2 PUSH2 0x27CE JUMP JUMPDEST DUP3 DUP2 SUB PUSH2 0x140 DUP5 ADD MSTORE PUSH2 0x894 SWAP2 PUSH2 0x27CE JUMP JUMPDEST CALLVALUE PUSH2 0x265 JUMPI PUSH1 0x20 CALLDATASIZE PUSH1 0x3 NOT ADD SLT PUSH2 0x265 JUMPI PUSH1 0x4 CALLDATALOAD PUSH1 0x1 PUSH1 0x1 PUSH1 0x40 SHL SUB DUP2 GT PUSH2 0x265 JUMPI PUSH2 0x1F37 PUSH2 0x1F28 PUSH1 0x20 PUSH2 0xB81 PUSH2 0x894 SWAP5 CALLDATASIZE SWAP1 PUSH1 0x4 ADD PUSH2 0x23D1 JUMP JUMPDEST DUP2 ADD PUSH1 0x5 DUP2 MSTORE SUB ADD SWAP1 KECCAK256 PUSH2 0x3C79 JUMP JUMPDEST PUSH1 0x40 MLOAD SWAP2 DUP3 SWAP2 PUSH1 0x20 DUP4 MSTORE PUSH1 0x20 DUP4 ADD SWAP1 PUSH2 0x27F3 JUMP JUMPDEST CALLVALUE PUSH2 0x265 JUMPI PUSH1 0x20 CALLDATASIZE PUSH1 0x3 NOT ADD SLT PUSH2 0x265 JUMPI PUSH1 0x4 CALLDATALOAD PUSH1 0x4 DUP2 LT ISZERO PUSH2 0x265 JUMPI PUSH2 0x1F73 PUSH1 0x20 SWAP2 PUSH2 0x284F JUMP JUMPDEST SLOAD PUSH1 0x40 MLOAD SWAP1 DUP2 MSTORE RETURN JUMPDEST CALLVALUE PUSH2 0x265 JUMPI PUSH1 0x20 DUP1 PUSH1 0x3 NOT CALLDATASIZE ADD SLT PUSH2 0x265 JUMPI PUSH1 0x4 CALLDATALOAD PUSH1 0x1 PUSH1 0x1 PUSH1 0x40 SHL SUB DUP2 GT PUSH2 0x265 JUMPI DUP2 PUSH2 0xB81 PUSH2 0x1FB1 SWAP3 CALLDATASIZE SWAP1 PUSH1 0x4 ADD PUSH2 0x23D1 JUMP JUMPDEST DUP2 ADD PUSH1 0x7 DUP2 MSTORE SUB ADD SWAP1 KECCAK256 PUSH1 0x40 MLOAD SWAP1 DUP2 DUP4 DUP3 SLOAD SWAP2 DUP3 DUP2 MSTORE ADD SWAP1 DUP2 SWAP3 PUSH1 0x0 MSTORE DUP5 PUSH1 0x0 KECCAK256 SWAP1 PUSH1 0x0 JUMPDEST DUP7 DUP3 DUP3 LT PUSH2 0x202C JUMPI DUP7 DUP7 PUSH2 0x1FEC DUP3 DUP9 SUB DUP4 PUSH2 0x236A JUMP JUMPDEST PUSH1 0x40 MLOAD SWAP3 DUP4 SWAP3 DUP2 DUP5 ADD SWAP1 DUP3 DUP6 MSTORE MLOAD DUP1 SWAP2 MSTORE PUSH1 0x40 DUP5 ADD SWAP3 SWAP2 PUSH1 0x0 JUMPDEST DUP3 DUP2 LT PUSH2 0x2015 JUMPI POP POP POP POP SUB SWAP1 RETURN JUMPDEST DUP4 MLOAD DUP6 MSTORE DUP7 SWAP6 POP SWAP4 DUP2 ADD SWAP4 SWAP3 DUP2 ADD SWAP3 PUSH1 0x1 ADD PUSH2 0x2006 JUMP JUMPDEST DUP4 SLOAD DUP6 MSTORE SWAP1 SWAP4 ADD SWAP3 PUSH1 0x1 SWAP3 DUP4 ADD SWAP3 ADD PUSH2 0x1FD6 JUMP JUMPDEST CALLVALUE PUSH2 0x265 JUMPI PUSH1 0x20 CALLDATASIZE PUSH1 0x3 NOT ADD SLT PUSH2 0x265 JUMPI PUSH1 0x4 CALLDATALOAD PUSH1 0x4 DUP2 LT ISZERO PUSH2 0x265 JUMPI PUSH2 0x1F37 PUSH2 0x206C PUSH2 0x894 SWAP3 PUSH2 0x284F JUMP JUMPDEST SLOAD PUSH2 0x430D JUMP JUMPDEST CALLVALUE PUSH2 0x265 JUMPI PUSH1 0x0 CALLDATASIZE PUSH1 0x3 NOT ADD SLT PUSH2 0x265 JUMPI PUSH1 0xB SLOAD PUSH1 0xC PUSH1 0x20 SWAP1 DUP2 MSTORE PUSH32 0x13649B2456F1B42FEF0F0040B3AAEABCD21A76A0F3F5DEFD4F583839455116E8 SLOAD PUSH32 0xD421A5181C571BBA3F01190C922C3B2A896FC1D84E86C9F17AC10E67EBEF8B5C SLOAD PUSH32 0x5D6016397A73F5E079297AC5A36FEF17B4D9C3831618E63AB105738020DDD720 SLOAD PUSH1 0x3 PUSH1 0x0 MSTORE PUSH32 0xC0DA782485E77AE272268AE0A3FF44C1552ECB60B3743924DE17A815E0A3CFD7 SLOAD PUSH1 0x40 DUP1 MLOAD SWAP7 DUP8 MSTORE SWAP5 DUP7 ADD SWAP4 SWAP1 SWAP4 MSTORE SWAP3 DUP5 ADD MSTORE PUSH1 0x60 DUP4 ADD SWAP2 SWAP1 SWAP2 MSTORE PUSH1 0x80 DUP3 ADD MSTORE PUSH1 0xA0 SWAP1 RETURN JUMPDEST CALLVALUE PUSH2 0x265 JUMPI PUSH2 0x98A PUSH2 0x214F CALLDATASIZE PUSH2 0x24EC JUMP JUMPDEST SWAP10 SWAP9 SWAP1 SWAP9 SWAP8 SWAP2 SWAP8 SWAP7 SWAP3 SWAP7 SWAP6 SWAP4 SWAP6 CALLER PUSH1 0x0 MSTORE PUSH1 0x8 PUSH1 0x20 MSTORE PUSH1 0xFF PUSH1 0x40 PUSH1 0x0 KECCAK256 SLOAD AND DUP1 ISZERO PUSH2 0x2198 JUMPI JUMPDEST PUSH2 0x217E SWAP1 PUSH2 0x2A64 JUMP JUMPDEST PUSH2 0x985 PUSH1 0xFF PUSH1 0x40 MLOAD PUSH1 0x20 DUP2 DUP6 MLOAD PUSH2 0x943 DUP2 DUP4 DUP6 DUP11 ADD PUSH2 0x27AB JUMP JUMPDEST POP PUSH1 0x0 SLOAD PUSH1 0x1 PUSH1 0x1 PUSH1 0xA0 SHL SUB AND CALLER EQ PUSH2 0x2175 JUMP JUMPDEST CALLVALUE PUSH2 0x265 JUMPI PUSH1 0x20 CALLDATASIZE PUSH1 0x3 NOT ADD SLT PUSH2 0x265 JUMPI PUSH1 0x4 CALLDATALOAD PUSH1 0x1 PUSH1 0x1 PUSH1 0xA0 SHL SUB DUP2 DUP2 AND SWAP2 DUP3 SWAP1 SUB PUSH2 0x265 JUMPI DUP2 PUSH1 0x20 SWAP3 PUSH1 0x0 MSTORE PUSH1 0xA DUP4 MSTORE PUSH1 0xFF PUSH1 0x40 PUSH1 0x0 KECCAK256 SLOAD AND SWAP2 DUP3 ISZERO PUSH2 0x222A JUMPI JUMPDEST DUP3 ISZERO PUSH2 0x2216 JUMPI JUMPDEST DUP3 ISZERO PUSH2 0x2208 JUMPI POP POP PUSH1 0x40 MLOAD SWAP1 ISZERO ISZERO DUP2 MSTORE RETURN JUMPDEST PUSH1 0x0 SLOAD AND EQ SWAP1 POP DUP3 DUP1 PUSH2 0x237 JUMP JUMPDEST PUSH1 0x8 DUP5 MSTORE PUSH1 0x40 PUSH1 0x0 KECCAK256 SLOAD PUSH1 0xFF AND SWAP3 POP PUSH2 0x21F6 JUMP JUMPDEST PUSH1 0x9 DUP5 MSTORE PUSH1 0x40 PUSH1 0x0 KECCAK256 SLOAD PUSH1 0xFF AND SWAP3 POP PUSH2 0x21EF JUMP JUMPDEST CALLVALUE PUSH2 0x265 JUMPI PUSH1 0x20 PUSH2 0x2270 PUSH2 0x2251 CALLDATASIZE PUSH2 0x2412 JUMP JUMPDEST SWAP1 PUSH2 0x226B PUSH1 0xFF PUSH1 0x40 MLOAD DUP7 DUP2 DUP6 MLOAD PUSH2 0x5AD DUP2 DUP4 DUP6 DUP11 ADD PUSH2 0x27AB JUMP JUMPDEST PUSH2 0x4436 JUMP JUMPDEST PUSH1 0x40 MLOAD SWAP1 ISZERO ISZERO DUP2 MSTORE RETURN JUMPDEST CALLVALUE PUSH2 0x265 JUMPI PUSH1 0x20 CALLDATASIZE PUSH1 0x3 NOT ADD SLT PUSH2 0x265 JUMPI PUSH1 0x4 CALLDATALOAD PUSH1 0x1 PUSH1 0x1 PUSH1 0xA0 SHL SUB DUP2 AND SWAP1 DUP2 SWAP1 SUB PUSH2 0x265 JUMPI PUSH1 0x0 MSTORE PUSH1 0x9 PUSH1 0x20 MSTORE PUSH1 0x20 PUSH1 0xFF PUSH1 0x40 PUSH1 0x0 KECCAK256 SLOAD AND PUSH1 0x40 MLOAD SWAP1 ISZERO ISZERO DUP2 MSTORE RETURN JUMPDEST CALLVALUE PUSH2 0x265 JUMPI PUSH1 0x20 CALLDATASIZE PUSH1 0x3 NOT ADD SLT PUSH2 0x265 JUMPI PUSH1 0x4 CALLDATALOAD PUSH1 0x1 PUSH1 0x1 PUSH1 0xA0 SHL SUB DUP2 DUP2 AND SWAP3 SWAP2 DUP4 SWAP1 SUB PUSH2 0x265 JUMPI DUP3 PUSH1 0x20 SWAP4 PUSH1 0x0 MSTORE PUSH1 0x8 DUP5 MSTORE PUSH1 0xFF PUSH1 0x40 PUSH1 0x0 KECCAK256 SLOAD AND SWAP2 DUP3 ISZERO PUSH2 0x2309 JUMPI JUMPDEST POP POP ISZERO ISZERO DUP2 MSTORE RETURN JUMPDEST PUSH1 0x0 SLOAD AND EQ SWAP1 POP DUP4 DUP1 PUSH2 0x2301 JUMP JUMPDEST PUSH2 0x100 DUP2 ADD SWAP1 DUP2 LT PUSH1 0x1 PUSH1 0x1 PUSH1 0x40 SHL SUB DUP3 GT OR PUSH2 0x129A JUMPI PUSH1 0x40 MSTORE JUMP JUMPDEST PUSH1 0xC0 DUP2 ADD SWAP1 DUP2 LT PUSH1 0x1 PUSH1 0x1 PUSH1 0x40 SHL SUB DUP3 GT OR PUSH2 0x129A JUMPI PUSH1 0x40 MSTORE JUMP JUMPDEST PUSH2 0x1C0 DUP2 ADD SWAP1 DUP2 LT PUSH1 0x1 PUSH1 0x1 PUSH1 0x40 SHL SUB DUP3 GT OR PUSH2 0x129A JUMPI PUSH1 0x40 MSTORE JUMP JUMPDEST SWAP1 PUSH1 0x1F DUP1 NOT SWAP2 ADD AND DUP2 ADD SWAP1 DUP2 LT PUSH1 0x1 PUSH1 0x1 PUSH1 0x40 SHL SUB DUP3 GT OR PUSH2 0x129A JUMPI PUSH1 0x40 MSTORE JUMP JUMPDEST SWAP3 SWAP2 SWAP3 PUSH1 0x1 PUSH1 0x1 PUSH1 0x40 SHL SUB DUP3 GT PUSH2 0x129A JUMPI PUSH1 0x40 MLOAD SWAP2 PUSH2 0x23B4 PUSH1 0x1F DUP3 ADD PUSH1 0x1F NOT AND PUSH1 0x20 ADD DUP5 PUSH2 0x236A JUMP JUMPDEST DUP3 SWAP5 DUP2 DUP5 MSTORE DUP2 DUP4 ADD GT PUSH2 0x265 JUMPI DUP3 DUP2 PUSH1 0x20 SWAP4 DUP5 PUSH1 0x0 SWAP7 ADD CALLDATACOPY ADD ADD MSTORE JUMP JUMPDEST SWAP1 DUP1 PUSH1 0x1F DUP4 ADD SLT ISZERO PUSH2 0x265 JUMPI DUP2 PUSH1 0x20 PUSH2 0x23EC SWAP4 CALLDATALOAD SWAP2 ADD PUSH2 0x238B JUMP JUMPDEST SWAP1 JUMP JUMPDEST SWAP1 PUSH1 0x4 DUP3 LT ISZERO PUSH2 0x23FC JUMPI MSTORE JUMP JUMPDEST PUSH4 0x4E487B71 PUSH1 0xE0 SHL PUSH1 0x0 MSTORE PUSH1 0x21 PUSH1 0x4 MSTORE PUSH1 0x24 PUSH1 0x0 REVERT JUMPDEST SWAP1 PUSH1 0x40 PUSH1 0x3 NOT DUP4 ADD SLT PUSH2 0x265 JUMPI PUSH1 0x1 PUSH1 0x1 PUSH1 0x40 SHL SUB PUSH1 0x4 CALLDATALOAD DUP2 DUP2 GT PUSH2 0x265 JUMPI DUP4 PUSH2 0x243E SWAP2 PUSH1 0x4 ADD PUSH2 0x23D1 JUMP JUMPDEST SWAP3 PUSH1 0x24 CALLDATALOAD SWAP2 DUP3 GT PUSH2 0x265 JUMPI PUSH2 0x23EC SWAP2 PUSH1 0x4 ADD PUSH2 0x23D1 JUMP JUMPDEST PUSH1 0x1 PUSH1 0x1 PUSH1 0x40 SHL SUB DUP2 GT PUSH2 0x129A JUMPI PUSH1 0x5 SHL PUSH1 0x20 ADD SWAP1 JUMP JUMPDEST SWAP1 DUP1 PUSH1 0x1F DUP4 ADD SLT ISZERO PUSH2 0x265 JUMPI DUP2 CALLDATALOAD SWAP1 PUSH2 0x2484 DUP3 PUSH2 0x2455 JUMP JUMPDEST SWAP3 PUSH2 0x2492 PUSH1 0x40 MLOAD SWAP5 DUP6 PUSH2 0x236A JUMP JUMPDEST DUP3 DUP5 MSTORE PUSH1 0x20 SWAP3 DUP4 DUP1 DUP7 ADD SWAP2 PUSH1 0x5 SHL DUP4 ADD ADD SWAP3 DUP1 DUP5 GT PUSH2 0x265 JUMPI DUP5 DUP4 ADD SWAP2 JUMPDEST DUP5 DUP4 LT PUSH2 0x24C0 JUMPI POP POP POP POP POP POP SWAP1 JUMP JUMPDEST DUP3 CALLDATALOAD PUSH1 0x1 PUSH1 0x1 PUSH1 0x40 SHL SUB DUP2 GT PUSH2 0x265 JUMPI DUP7 SWAP2 PUSH2 0x24E1 DUP5 DUP5 DUP1 SWAP5 DUP10 ADD ADD PUSH2 0x23D1 JUMP JUMPDEST DUP2 MSTORE ADD SWAP3 ADD SWAP2 PUSH2 0x24B0 JUMP JUMPDEST PUSH2 0x160 PUSH1 0x3 NOT DUP3 ADD SLT PUSH2 0x265 JUMPI PUSH1 0x4 SWAP1 DUP2 CALLDATALOAD PUSH1 0x1 PUSH1 0x1 PUSH1 0x40 SHL SUB DUP2 GT PUSH2 0x265 JUMPI DUP2 PUSH2 0x2518 SWAP2 DUP5 ADD PUSH2 0x23D1 JUMP JUMPDEST SWAP3 PUSH1 0x24 CALLDATALOAD DUP4 DUP2 LT ISZERO PUSH2 0x265 JUMPI SWAP3 PUSH1 0x44 CALLDATALOAD PUSH1 0x1 PUSH1 0x1 PUSH1 0x40 SHL SUB DUP2 GT PUSH2 0x265 JUMPI DUP4 PUSH2 0x2542 SWAP2 DUP4 ADD PUSH2 0x23D1 JUMP JUMPDEST SWAP3 PUSH1 0x64 SWAP1 DUP2 CALLDATALOAD PUSH1 0x1 PUSH1 0x1 PUSH1 0x40 SHL SUB DUP2 GT PUSH2 0x265 JUMPI DUP2 PUSH2 0x2562 SWAP2 DUP6 ADD PUSH2 0x23D1 JUMP JUMPDEST SWAP4 PUSH1 0x84 SWAP4 DUP5 CALLDATALOAD PUSH1 0x1 PUSH1 0x1 PUSH1 0x40 SHL SUB DUP2 GT PUSH2 0x265 JUMPI DUP4 PUSH2 0x2582 SWAP2 DUP4 ADD PUSH2 0x23D1 JUMP JUMPDEST SWAP5 PUSH1 0xA4 DUP1 CALLDATALOAD PUSH1 0x1 PUSH1 0x1 PUSH1 0x40 SHL SUB DUP2 GT PUSH2 0x265 JUMPI DUP6 PUSH2 0x25A1 SWAP2 DUP6 ADD PUSH2 0x23D1 JUMP JUMPDEST SWAP6 PUSH1 0xC4 SWAP2 PUSH1 0x1 PUSH1 0x1 PUSH1 0x40 SHL SUB DUP4 CALLDATALOAD GT PUSH2 0x265 JUMPI DUP7 PUSH1 0x23 DUP5 CALLDATALOAD ADD SLT ISZERO PUSH2 0x265 JUMPI DUP3 CALLDATALOAD DUP6 ADD CALLDATALOAD SWAP2 PUSH2 0x25CF DUP4 PUSH2 0x2455 JUMP JUMPDEST SWAP5 PUSH2 0x25DD PUSH1 0x40 MLOAD SWAP7 DUP8 PUSH2 0x236A JUMP JUMPDEST DUP4 DUP7 MSTORE PUSH1 0x20 DUP7 ADD SWAP3 DUP10 PUSH1 0x24 DUP7 PUSH1 0x5 SHL DUP9 CALLDATALOAD ADD ADD GT PUSH2 0x265 JUMPI PUSH1 0x24 DUP7 CALLDATALOAD ADD SWAP4 JUMPDEST PUSH1 0x24 DUP7 PUSH1 0x5 SHL DUP9 CALLDATALOAD ADD ADD DUP6 LT PUSH2 0x268C JUMPI POP POP POP POP POP POP POP SWAP3 PUSH1 0xE4 CALLDATALOAD PUSH1 0x1 PUSH1 0x1 PUSH1 0x40 SHL SUB DUP2 GT PUSH2 0x265 JUMPI DUP2 PUSH2 0x2631 SWAP2 DUP5 ADD PUSH2 0x246C JUMP JUMPDEST SWAP3 PUSH2 0x104 CALLDATALOAD PUSH1 0x1 PUSH1 0x1 PUSH1 0x40 SHL SUB DUP2 GT PUSH2 0x265 JUMPI DUP3 PUSH2 0x2650 SWAP2 DUP6 ADD PUSH2 0x246C JUMP JUMPDEST SWAP3 PUSH2 0x124 CALLDATALOAD PUSH1 0x1 PUSH1 0x1 PUSH1 0x40 SHL SUB DUP2 GT PUSH2 0x265 JUMPI DUP4 PUSH2 0x266F SWAP2 DUP4 ADD PUSH2 0x23D1 JUMP JUMPDEST SWAP3 PUSH2 0x144 CALLDATALOAD PUSH1 0x1 PUSH1 0x1 PUSH1 0x40 SHL SUB DUP2 GT PUSH2 0x265 JUMPI PUSH2 0x23EC SWAP3 ADD PUSH2 0x23D1 JUMP JUMPDEST DUP5 CALLDATALOAD SWAP1 PUSH1 0x1 PUSH1 0x1 PUSH1 0x40 SHL SUB DUP3 GT PUSH2 0x265 JUMPI PUSH1 0xC0 DUP9 CALLDATALOAD DUP4 ADD DUP14 SUB PUSH1 0x23 NOT ADD SLT PUSH2 0x265 JUMPI PUSH1 0x40 MLOAD SWAP2 PUSH2 0x26BB DUP4 PUSH2 0x2333 JUMP JUMPDEST PUSH1 0x24 DUP2 DUP11 CALLDATALOAD ADD ADD CALLDATALOAD PUSH1 0x1 PUSH1 0x1 PUSH1 0x40 SHL SUB DUP2 GT PUSH2 0x265 JUMPI DUP14 PUSH1 0x24 PUSH2 0x26E3 SWAP3 DUP5 DUP14 CALLDATALOAD ADD ADD ADD PUSH2 0x23D1 JUMP JUMPDEST DUP4 MSTORE PUSH1 0xA PUSH1 0x44 DUP3 DUP12 CALLDATALOAD ADD ADD CALLDATALOAD LT ISZERO PUSH2 0x265 JUMPI DUP9 CALLDATALOAD DUP2 ADD PUSH1 0x44 DUP2 ADD CALLDATALOAD PUSH1 0x20 DUP6 ADD MSTORE DUP7 ADD CALLDATALOAD DUP1 ISZERO ISZERO DUP2 SUB PUSH2 0x265 JUMPI PUSH1 0x40 DUP5 ADD MSTORE DUP5 DUP2 DUP11 CALLDATALOAD ADD ADD CALLDATALOAD PUSH1 0x1 PUSH1 0x1 PUSH1 0x40 SHL SUB DUP2 GT PUSH2 0x265 JUMPI DUP14 PUSH1 0x24 PUSH2 0x273B SWAP3 DUP5 DUP14 CALLDATALOAD ADD ADD ADD PUSH2 0x23D1 JUMP JUMPDEST PUSH1 0x60 DUP5 ADD MSTORE DUP4 DUP2 DUP11 CALLDATALOAD ADD ADD CALLDATALOAD PUSH1 0x1 PUSH1 0x1 PUSH1 0x40 SHL SUB DUP2 GT PUSH2 0x265 JUMPI DUP14 PUSH1 0x24 PUSH2 0x2767 SWAP3 DUP5 DUP14 CALLDATALOAD ADD ADD ADD PUSH2 0x23D1 JUMP JUMPDEST PUSH1 0x80 DUP5 ADD MSTORE DUP9 DUP2 DUP2 CALLDATALOAD ADD ADD CALLDATALOAD SWAP2 PUSH1 0x1 PUSH1 0x1 PUSH1 0x40 SHL SUB DUP4 GT PUSH2 0x265 JUMPI PUSH1 0x24 SWAP4 PUSH2 0x2799 DUP16 DUP7 PUSH1 0x20 SWAP7 DUP8 SWAP7 DUP16 CALLDATALOAD ADD ADD ADD PUSH2 0x23D1 JUMP JUMPDEST PUSH1 0xA0 DUP3 ADD MSTORE DUP2 MSTORE ADD SWAP6 ADD SWAP5 SWAP1 POP PUSH2 0x25FC JUMP JUMPDEST PUSH1 0x0 JUMPDEST DUP4 DUP2 LT PUSH2 0x27BE JUMPI POP POP PUSH1 0x0 SWAP2 ADD MSTORE JUMP JUMPDEST DUP2 DUP2 ADD MLOAD DUP4 DUP3 ADD MSTORE PUSH1 0x20 ADD PUSH2 0x27AE JUMP JUMPDEST SWAP1 PUSH1 0x20 SWAP2 PUSH2 0x27E7 DUP2 MLOAD DUP1 SWAP3 DUP2 DUP6 MSTORE DUP6 DUP1 DUP7 ADD SWAP2 ADD PUSH2 0x27AB JUMP JUMPDEST PUSH1 0x1F ADD PUSH1 0x1F NOT AND ADD ADD SWAP1 JUMP JUMPDEST SWAP1 DUP1 DUP3 MLOAD SWAP1 DUP2 DUP2 MSTORE PUSH1 0x20 DUP1 SWAP2 ADD SWAP3 DUP2 DUP1 DUP5 PUSH1 0x5 SHL DUP4 ADD ADD SWAP6 ADD SWAP4 PUSH1 0x0 SWAP2 JUMPDEST DUP5 DUP4 LT PUSH2 0x2821 JUMPI POP POP POP POP POP POP SWAP1 JUMP JUMPDEST SWAP1 SWAP2 SWAP3 SWAP4 SWAP5 SWAP6 DUP5 DUP1 PUSH2 0x283F PUSH1 0x1 SWAP4 PUSH1 0x1F NOT DUP7 DUP3 SUB ADD DUP8 MSTORE DUP11 MLOAD PUSH2 0x27CE JUMP JUMPDEST SWAP9 ADD SWAP4 ADD SWAP4 ADD SWAP2 SWAP5 SWAP4 SWAP3 SWAP1 PUSH2 0x2811 JUMP JUMPDEST PUSH1 0x4 DUP2 LT ISZERO PUSH2 0x23FC JUMPI PUSH1 0x0 MSTORE PUSH1 0xC PUSH1 0x20 MSTORE PUSH1 0x40 PUSH1 0x0 KECCAK256 SWAP1 JUMP JUMPDEST SWAP1 PUSH1 0x1 DUP3 DUP2 SHR SWAP3 AND DUP1 ISZERO PUSH2 0x2898 JUMPI JUMPDEST PUSH1 0x20 DUP4 LT EQ PUSH2 0x2882 JUMPI JUMP JUMPDEST PUSH4 0x4E487B71 PUSH1 0xE0 SHL PUSH1 0x0 MSTORE PUSH1 0x22 PUSH1 0x4 MSTORE PUSH1 0x24 PUSH1 0x0 REVERT JUMPDEST SWAP2 PUSH1 0x7F AND SWAP2 PUSH2 0x2877 JUMP JUMPDEST SWAP1 PUSH1 0x0 SWAP3 SWAP2 DUP1 SLOAD SWAP2 PUSH2 0x28B3 DUP4 PUSH2 0x2868 JUMP JUMPDEST SWAP2 DUP3 DUP3 MSTORE PUSH1 0x1 SWAP4 DUP5 DUP2 AND SWAP1 DUP2 PUSH1 0x0 EQ PUSH2 0x2915 JUMPI POP PUSH1 0x1 EQ PUSH2 0x28D5 JUMPI JUMPDEST POP POP POP POP JUMP JUMPDEST SWAP1 SWAP2 SWAP4 SWAP5 POP PUSH1 0x0 MSTORE PUSH1 0x20 SWAP3 DUP4 PUSH1 0x0 KECCAK256 SWAP3 DUP5 PUSH1 0x0 SWAP5 JUMPDEST DUP4 DUP7 LT PUSH2 0x2901 JUMPI POP POP POP POP ADD ADD SWAP1 CODESIZE DUP1 DUP1 DUP1 PUSH2 0x28CF JUMP JUMPDEST DUP1 SLOAD DUP6 DUP8 ADD DUP4 ADD MSTORE SWAP5 ADD SWAP4 DUP6 SWAP1 DUP3 ADD PUSH2 0x28EA JUMP JUMPDEST SWAP3 SWAP5 POP POP POP PUSH1 0x20 SWAP4 SWAP5 POP PUSH1 0xFF NOT AND DUP4 DUP4 ADD MSTORE ISZERO ISZERO PUSH1 0x5 SHL ADD ADD SWAP1 CODESIZE DUP1 DUP1 DUP1 PUSH2 0x28CF JUMP JUMPDEST PUSH1 0x40 PUSH1 0x3 NOT DUP3 ADD SLT PUSH2 0x265 JUMPI PUSH1 0x4 CALLDATALOAD SWAP1 PUSH1 0x1 PUSH1 0x1 PUSH1 0x40 SHL SUB DUP3 GT PUSH2 0x265 JUMPI PUSH2 0x2962 SWAP2 PUSH1 0x4 ADD PUSH2 0x23D1 JUMP JUMPDEST SWAP1 PUSH1 0x24 CALLDATALOAD SWAP1 JUMP JUMPDEST DUP1 SLOAD DUP3 LT ISZERO PUSH2 0x2981 JUMPI PUSH1 0x0 MSTORE PUSH1 0x20 PUSH1 0x0 KECCAK256 ADD SWAP1 PUSH1 0x0 SWAP1 JUMP JUMPDEST PUSH4 0x4E487B71 PUSH1 0xE0 SHL PUSH1 0x0 MSTORE PUSH1 0x32 PUSH1 0x4 MSTORE PUSH1 0x24 PUSH1 0x0 REVERT JUMPDEST PUSH2 0x29AA DUP2 MLOAD PUSH1 0xC0 DUP5 MSTORE PUSH1 0xC0 DUP5 ADD SWAP1 PUSH2 0x27CE JUMP JUMPDEST SWAP2 PUSH1 0x20 DUP3 ADD MLOAD PUSH1 0xA DUP2 LT ISZERO PUSH2 0x23FC JUMPI PUSH2 0x29FB PUSH2 0x29E9 PUSH2 0x23EC SWAP6 PUSH1 0xA0 SWAP4 PUSH1 0x20 DUP7 ADD MSTORE PUSH1 0x40 DUP7 ADD MLOAD ISZERO ISZERO PUSH1 0x40 DUP7 ADD MSTORE PUSH1 0x60 DUP7 ADD MLOAD DUP6 DUP3 SUB PUSH1 0x60 DUP8 ADD MSTORE PUSH2 0x27CE JUMP JUMPDEST PUSH1 0x80 DUP6 ADD MLOAD DUP5 DUP3 SUB PUSH1 0x80 DUP7 ADD MSTORE PUSH2 0x27CE JUMP JUMPDEST SWAP3 ADD MLOAD SWAP1 PUSH1 0xA0 DUP2 DUP5 SUB SWAP2 ADD MSTORE PUSH2 0x27CE JUMP JUMPDEST PUSH1 0x0 SLOAD PUSH1 0x1 PUSH1 0x1 PUSH1 0xA0 SHL SUB AND CALLER SUB PUSH2 0x2A20 JUMPI JUMP JUMPDEST PUSH1 0x64 PUSH1 0x40 MLOAD PUSH3 0x461BCD PUSH1 0xE5 SHL DUP2 MSTORE PUSH1 0x20 PUSH1 0x4 DUP3 ADD MSTORE PUSH1 0x20 PUSH1 0x24 DUP3 ADD MSTORE PUSH32 0x4F776E61626C653A2063616C6C6572206973206E6F7420746865206F776E6572 PUSH1 0x44 DUP3 ADD MSTORE REVERT JUMPDEST ISZERO PUSH2 0x2A6B JUMPI JUMP JUMPDEST PUSH1 0x40 MLOAD PUSH3 0x461BCD PUSH1 0xE5 SHL DUP2 MSTORE PUSH1 0x20 PUSH1 0x4 DUP3 ADD MSTORE PUSH1 0xE PUSH1 0x24 DUP3 ADD MSTORE PUSH14 0x139BDD08185D5D1A1BDC9A5E9959 PUSH1 0x92 SHL PUSH1 0x44 DUP3 ADD MSTORE PUSH1 0x64 SWAP1 REVERT JUMPDEST ISZERO PUSH2 0x2AA8 JUMPI JUMP JUMPDEST PUSH1 0x40 MLOAD PUSH3 0x461BCD PUSH1 0xE5 SHL DUP2 MSTORE PUSH1 0x20 PUSH1 0x4 DUP3 ADD MSTORE PUSH1 0x16 PUSH1 0x24 DUP3 ADD MSTORE PUSH22 0x14D8DA195B5848185B1C9958591E481919599A5B9959 PUSH1 0x52 SHL PUSH1 0x44 DUP3 ADD MSTORE PUSH1 0x64 SWAP1 REVERT JUMPDEST ISZERO PUSH2 0x2AED JUMPI JUMP JUMPDEST PUSH1 0x40 MLOAD PUSH3 0x461BCD PUSH1 0xE5 SHL DUP2 MSTORE PUSH1 0x20 PUSH1 0x4 DUP3 ADD MSTORE PUSH1 0x19 PUSH1 0x24 DUP3 ADD MSTORE PUSH32 0x537562646F6D61696E2063616E6E6F7420626520656D70747900000000000000 PUSH1 0x44 DUP3 ADD MSTORE PUSH1 0x64 SWAP1 REVERT JUMPDEST PUSH1 0x4 DUP3 LT ISZERO PUSH2 0x23FC JUMPI MSTORE JUMP JUMPDEST DUP2 DUP2 LT PUSH2 0x2B49 JUMPI POP POP JUMP JUMPDEST PUSH1 0x0 DUP2 SSTORE PUSH1 0x1 ADD PUSH2 0x2B3E JUMP JUMPDEST SWAP2 SWAP1 PUSH1 0x1F DUP2 GT PUSH2 0x2B64 JUMPI POP POP POP JUMP JUMPDEST PUSH2 0x2B90 SWAP3 PUSH1 0x0 MSTORE PUSH1 0x20 PUSH1 0x0 KECCAK256 SWAP1 PUSH1 0x20 PUSH1 0x1F DUP5 ADD PUSH1 0x5 SHR DUP4 ADD SWAP4 LT PUSH2 0x2B92 JUMPI JUMPDEST PUSH1 0x1F ADD PUSH1 0x5 SHR ADD SWAP1 PUSH2 0x2B3E JUMP JUMPDEST JUMP JUMPDEST SWAP1 SWAP2 POP DUP2 SWAP1 PUSH2 0x2B83 JUMP JUMPDEST SWAP1 PUSH1 0x4 DUP2 LT ISZERO PUSH2 0x23FC JUMPI PUSH1 0xFF DUP1 NOT DUP4 SLOAD AND SWAP2 AND OR SWAP1 SSTORE JUMP JUMPDEST PUSH2 0x2BBE DUP2 SLOAD PUSH2 0x2868 JUMP JUMPDEST SWAP1 DUP2 PUSH2 0x2BC8 JUMPI POP POP JUMP JUMPDEST DUP2 PUSH1 0x1F PUSH1 0x0 SWAP4 GT PUSH1 0x1 EQ PUSH2 0x2BDA JUMPI POP SSTORE JUMP JUMPDEST SWAP1 DUP1 DUP4 SWAP2 DUP3 MSTORE PUSH2 0x2BF9 PUSH1 0x1F PUSH1 0x20 DUP5 KECCAK256 SWAP5 ADD PUSH1 0x5 SHR DUP5 ADD PUSH1 0x1 DUP6 ADD PUSH2 0x2B3E JUMP JUMPDEST SSTORE SSTORE JUMP JUMPDEST DUP1 SLOAD SWAP1 PUSH1 0x0 DUP2 SSTORE DUP2 PUSH2 0x2C0D JUMPI POP POP JUMP JUMPDEST PUSH1 0x0 MSTORE PUSH1 0x20 PUSH1 0x0 KECCAK256 SWAP1 DUP2 ADD SWAP1 JUMPDEST DUP2 DUP2 LT PUSH2 0x2C25 JUMPI POP POP JUMP JUMPDEST DUP1 PUSH2 0x2C31 PUSH1 0x1 SWAP3 PUSH2 0x2BB4 JUMP JUMPDEST ADD PUSH2 0x2C1A JUMP JUMPDEST SWAP1 PUSH1 0x1 PUSH1 0x40 SHL DUP2 GT PUSH2 0x129A JUMPI DUP2 SLOAD SWAP2 DUP2 DUP2 SSTORE DUP3 DUP3 LT PUSH2 0x2C55 JUMPI POP POP POP JUMP JUMPDEST PUSH1 0x0 MSTORE PUSH1 0x20 PUSH1 0x0 KECCAK256 SWAP2 DUP3 ADD SWAP2 ADD JUMPDEST DUP2 DUP2 LT PUSH2 0x2C6E JUMPI POP POP JUMP JUMPDEST DUP1 PUSH2 0x2C7A PUSH1 0x1 SWAP3 PUSH2 0x2BB4 JUMP JUMPDEST ADD PUSH2 0x2C63 JUMP JUMPDEST PUSH1 0x0 NOT DUP2 EQ PUSH2 0x2C8F JUMPI PUSH1 0x1 ADD SWAP1 JUMP JUMPDEST PUSH4 0x4E487B71 PUSH1 0xE0 SHL PUSH1 0x0 MSTORE PUSH1 0x11 PUSH1 0x4 MSTORE PUSH1 0x24 PUSH1 0x0 REVERT JUMPDEST PUSH2 0x2CBD SWAP1 PUSH1 0x20 PUSH1 0x40 MLOAD SWAP3 DUP3 DUP5 DUP1 SWAP5 MLOAD SWAP4 DUP5 SWAP3 ADD PUSH2 0x27AB JUMP JUMPDEST DUP2 ADD SUB SWAP1 KECCAK256 SWAP1 JUMP JUMPDEST SWAP7 SWAP2 SWAP9 SWAP4 SWAP10 SWAP5 SWAP8 SWAP3 SWAP6 SWAP1 SWAP8 PUSH2 0x2CDC DUP9 MLOAD ISZERO ISZERO PUSH2 0x2AE6 JUMP JUMPDEST PUSH2 0x2D0E PUSH1 0xFF PUSH2 0x2CFA PUSH1 0x20 DUP12 DUP2 PUSH1 0x40 MLOAD SWAP4 DUP3 DUP6 DUP1 SWAP5 MLOAD SWAP4 DUP5 SWAP3 ADD PUSH2 0x27AB JUMP JUMPDEST PUSH1 0x3 DUP2 DUP4 ADD MSTORE DUP2 ADD SUB ADD SWAP1 KECCAK256 SLOAD AND ISZERO PUSH2 0x2AA1 JUMP JUMPDEST PUSH1 0x40 MLOAD SWAP7 PUSH2 0x2D1B DUP9 PUSH2 0x234E JUMP JUMPDEST DUP9 DUP9 MSTORE PUSH2 0x2D2B DUP11 PUSH1 0x20 DUP11 ADD PUSH2 0x2B32 JUMP JUMPDEST DUP11 PUSH1 0x40 DUP10 ADD MSTORE PUSH1 0x60 DUP9 ADD MSTORE DUP11 PUSH1 0x80 DUP9 ADD MSTORE PUSH1 0xA0 DUP8 ADD MSTORE PUSH1 0xC0 DUP7 ADD MSTORE PUSH1 0xE0 DUP6 ADD MSTORE PUSH2 0x100 DUP5 ADD MSTORE PUSH1 0x1 PUSH2 0x120 DUP5 ADD MSTORE TIMESTAMP PUSH2 0x140 DUP5 ADD MSTORE TIMESTAMP PUSH2 0x160 DUP5 ADD MSTORE PUSH2 0x180 DUP4 ADD MSTORE PUSH2 0x1A0 DUP3 ADD MSTORE PUSH1 0x40 MLOAD PUSH1 0x20 DUP2 DUP5 MLOAD PUSH2 0x2D88 DUP2 DUP4 DUP6 DUP10 ADD PUSH2 0x27AB JUMP JUMPDEST DUP2 ADD PUSH1 0x2 DUP2 MSTORE SUB ADD SWAP1 KECCAK256 SWAP1 DUP1 MLOAD DUP1 MLOAD SWAP1 PUSH1 0x1 PUSH1 0x1 PUSH1 0x40 SHL SUB DUP3 GT PUSH2 0x129A JUMPI DUP2 SWAP1 PUSH2 0x2DB6 DUP3 PUSH2 0x10C4 DUP8 SLOAD PUSH2 0x2868 JUMP JUMPDEST PUSH1 0x20 SWAP1 PUSH1 0x1F DUP4 GT PUSH1 0x1 EQ PUSH2 0x3B31 JUMPI PUSH1 0x0 SWAP3 PUSH2 0x3B26 JUMPI JUMPDEST POP POP DUP2 PUSH1 0x1 SHL SWAP2 PUSH1 0x0 NOT SWAP1 PUSH1 0x3 SHL SHR NOT AND OR DUP3 SSTORE JUMPDEST PUSH1 0x20 DUP2 ADD MLOAD PUSH1 0x4 DUP2 LT ISZERO PUSH2 0x23FC JUMPI PUSH2 0x2DFC SWAP1 PUSH1 0x1 DUP5 ADD PUSH2 0x2B9C JUMP JUMPDEST PUSH1 0x40 DUP2 ADD MLOAD DUP1 MLOAD SWAP1 PUSH1 0x1 PUSH1 0x1 PUSH1 0x40 SHL SUB DUP3 GT PUSH2 0x129A JUMPI DUP2 SWAP1 PUSH2 0x2E2E DUP3 PUSH2 0x2E25 PUSH1 0x2 DUP9 ADD SLOAD PUSH2 0x2868 JUMP JUMPDEST PUSH1 0x2 DUP9 ADD PUSH2 0x2B55 JUMP JUMPDEST PUSH1 0x20 SWAP1 PUSH1 0x1F DUP4 GT PUSH1 0x1 EQ PUSH2 0x3AB4 JUMPI PUSH1 0x0 SWAP3 PUSH2 0x3AA9 JUMPI JUMPDEST POP POP DUP2 PUSH1 0x1 SHL SWAP2 PUSH1 0x0 NOT SWAP1 PUSH1 0x3 SHL SHR NOT AND OR PUSH1 0x2 DUP4 ADD SSTORE JUMPDEST PUSH1 0x60 DUP2 ADD MLOAD DUP1 MLOAD SWAP1 PUSH1 0x1 PUSH1 0x1 PUSH1 0x40 SHL SUB DUP3 GT PUSH2 0x129A JUMPI DUP2 SWAP1 PUSH2 0x2E8E DUP3 PUSH2 0x2E85 PUSH1 0x3 DUP9 ADD SLOAD PUSH2 0x2868 JUMP JUMPDEST PUSH1 0x3 DUP9 ADD PUSH2 0x2B55 JUMP JUMPDEST PUSH1 0x20 SWAP1 PUSH1 0x1F DUP4 GT PUSH1 0x1 EQ PUSH2 0x3A37 JUMPI PUSH1 0x0 SWAP3 PUSH2 0x3A2C JUMPI JUMPDEST POP POP DUP2 PUSH1 0x1 SHL SWAP2 PUSH1 0x0 NOT SWAP1 PUSH1 0x3 SHL SHR NOT AND OR PUSH1 0x3 DUP4 ADD SSTORE JUMPDEST PUSH1 0x80 DUP2 ADD MLOAD DUP1 MLOAD SWAP1 PUSH1 0x1 PUSH1 0x1 PUSH1 0x40 SHL SUB DUP3 GT PUSH2 0x129A JUMPI DUP2 SWAP1 PUSH2 0x2EEE DUP3 PUSH2 0x2EE5 PUSH1 0x4 DUP9 ADD SLOAD PUSH2 0x2868 JUMP JUMPDEST PUSH1 0x4 DUP9 ADD PUSH2 0x2B55 JUMP JUMPDEST PUSH1 0x20 SWAP1 PUSH1 0x1F DUP4 GT PUSH1 0x1 EQ PUSH2 0x39BA JUMPI PUSH1 0x0 SWAP3 PUSH2 0x39AF JUMPI JUMPDEST POP POP DUP2 PUSH1 0x1 SHL SWAP2 PUSH1 0x0 NOT SWAP1 PUSH1 0x3 SHL SHR NOT AND OR PUSH1 0x4 DUP4 ADD SSTORE JUMPDEST PUSH1 0xA0 DUP2 ADD MLOAD DUP1 MLOAD SWAP1 PUSH1 0x1 PUSH1 0x1 PUSH1 0x40 SHL SUB DUP3 GT PUSH2 0x129A JUMPI DUP2 SWAP1 PUSH2 0x2F4E DUP3 PUSH2 0x2F45 PUSH1 0x5 DUP9 ADD SLOAD PUSH2 0x2868 JUMP JUMPDEST PUSH1 0x5 DUP9 ADD PUSH2 0x2B55 JUMP JUMPDEST PUSH1 0x20 SWAP1 PUSH1 0x1F DUP4 GT PUSH1 0x1 EQ PUSH2 0x393D JUMPI PUSH1 0x0 SWAP3 PUSH2 0x3932 JUMPI JUMPDEST POP POP DUP2 PUSH1 0x1 SHL SWAP2 PUSH1 0x0 NOT SWAP1 PUSH1 0x3 SHL SHR NOT AND OR PUSH1 0x5 DUP4 ADD SSTORE JUMPDEST PUSH1 0xC0 DUP2 ADD MLOAD DUP1 MLOAD SWAP1 PUSH1 0x1 PUSH1 0x40 SHL DUP3 GT PUSH2 0x129A JUMPI PUSH1 0x6 DUP5 ADD SLOAD DUP3 PUSH1 0x6 DUP7 ADD SSTORE DUP1 DUP4 LT PUSH2 0x38B7 JUMPI JUMPDEST POP PUSH1 0x20 ADD SWAP1 PUSH1 0x6 DUP5 ADD PUSH1 0x0 MSTORE PUSH1 0x20 PUSH1 0x0 KECCAK256 SWAP2 PUSH1 0x0 SWAP1 JUMPDEST DUP3 DUP3 LT PUSH2 0x3508 JUMPI POP POP POP POP PUSH1 0x7 DUP3 ADD PUSH1 0xE0 DUP3 ADD MLOAD PUSH1 0x20 DUP2 MLOAD SWAP2 PUSH2 0x2FDB DUP4 DUP6 PUSH2 0x2C37 JUMP JUMPDEST ADD SWAP2 PUSH1 0x0 MSTORE PUSH1 0x20 PUSH1 0x0 KECCAK256 SWAP2 PUSH1 0x0 SWAP1 JUMPDEST DUP3 DUP3 LT PUSH2 0x342B JUMPI POP POP POP POP PUSH1 0x8 DUP3 ADD PUSH2 0x100 DUP3 ADD MLOAD PUSH1 0x20 DUP2 MLOAD SWAP2 PUSH2 0x300E DUP4 DUP6 PUSH2 0x2C37 JUMP JUMPDEST ADD SWAP2 PUSH1 0x0 MSTORE PUSH1 0x20 PUSH1 0x0 KECCAK256 SWAP2 PUSH1 0x0 SWAP1 JUMPDEST DUP3 DUP3 LT PUSH2 0x334E JUMPI POP POP POP POP PUSH1 0x9 DUP3 ADD PUSH2 0x120 DUP3 ADD MLOAD ISZERO ISZERO PUSH1 0xFF DUP1 NOT DUP4 SLOAD AND SWAP2 AND OR SWAP1 SSTORE PUSH2 0x140 DUP2 ADD MLOAD PUSH1 0xA DUP4 ADD SSTORE PUSH2 0x160 DUP2 ADD MLOAD PUSH1 0xB DUP4 ADD SSTORE PUSH2 0x180 DUP2 ADD MLOAD DUP1 MLOAD SWAP1 PUSH1 0x1 PUSH1 0x1 PUSH1 0x40 SHL SUB DUP3 GT PUSH2 0x129A JUMPI PUSH2 0x3087 DUP3 PUSH2 0x307E PUSH1 0xC DUP8 ADD SLOAD PUSH2 0x2868 JUMP JUMPDEST PUSH1 0xC DUP8 ADD PUSH2 0x2B55 JUMP JUMPDEST PUSH1 0x20 SWAP1 PUSH1 0x1F DUP4 GT PUSH1 0x1 EQ PUSH2 0x32DA JUMPI PUSH2 0x1A0 SWAP4 SWAP3 SWAP2 PUSH1 0x0 SWAP2 DUP4 PUSH2 0x32CF JUMPI JUMPDEST POP POP DUP2 PUSH1 0x1 SHL SWAP2 PUSH1 0x0 NOT SWAP1 PUSH1 0x3 SHL SHR NOT AND OR PUSH1 0xC DUP5 ADD SSTORE JUMPDEST ADD MLOAD DUP1 MLOAD SWAP1 PUSH1 0x1 PUSH1 0x1 PUSH1 0x40 SHL SUB DUP3 GT PUSH2 0x129A JUMPI PUSH2 0x30E9 DUP3 PUSH2 0x30E0 PUSH1 0xD DUP7 ADD SLOAD PUSH2 0x2868 JUMP JUMPDEST PUSH1 0xD DUP7 ADD PUSH2 0x2B55 JUMP JUMPDEST PUSH1 0x20 SWAP1 PUSH1 0x1F DUP4 GT PUSH1 0x1 EQ PUSH2 0x322F JUMPI PUSH2 0x31FF SWAP5 PUSH32 0xBC5E30B99F14BBF3D59C8CF7ACA16B6CD889C273F13C2C4854E4D760969F0766 SWAP7 SWAP5 PUSH1 0xD DUP6 PUSH2 0x321F SWAP7 PUSH2 0x3210 SWAP7 PUSH2 0x31F2 SWAP7 PUSH1 0x0 SWAP3 PUSH2 0x3224 JUMPI JUMPDEST POP POP DUP2 PUSH1 0x1 SHL SWAP2 PUSH1 0x0 NOT SWAP1 PUSH1 0x3 SHL SHR NOT AND OR SWAP2 ADD SSTORE JUMPDEST PUSH1 0x40 MLOAD PUSH1 0x20 DUP2 DUP4 MLOAD PUSH2 0x3160 DUP2 DUP4 DUP6 DUP9 ADD PUSH2 0x27AB JUMP JUMPDEST DUP2 ADD PUSH1 0x3 DUP2 MSTORE SUB ADD SWAP1 KECCAK256 PUSH1 0x1 PUSH1 0xFF NOT DUP3 SLOAD AND OR SWAP1 SSTORE PUSH2 0x319D DUP6 PUSH1 0x40 MLOAD PUSH1 0x20 DUP2 DUP6 MLOAD PUSH2 0x318E DUP2 DUP4 DUP6 DUP11 ADD PUSH2 0x27AB JUMP JUMPDEST DUP2 ADD PUSH1 0x4 DUP2 MSTORE SUB ADD SWAP1 KECCAK256 PUSH2 0x2B9C JUMP JUMPDEST PUSH2 0x31A8 PUSH1 0xB SLOAD PUSH2 0x2C80 JUMP JUMPDEST PUSH1 0xB SSTORE PUSH2 0x31B4 DUP6 PUSH2 0x284F JUMP JUMPDEST PUSH2 0x31BE DUP2 SLOAD PUSH2 0x2C80 JUMP JUMPDEST SWAP1 SSTORE PUSH1 0x40 MLOAD PUSH1 0x20 DUP2 DUP2 PUSH2 0x31D7 DUP13 DUP4 DUP2 MLOAD SWAP4 DUP5 SWAP3 ADD PUSH2 0x27AB JUMP JUMPDEST DUP2 ADD PUSH1 0xD DUP2 MSTORE SUB ADD SWAP1 KECCAK256 PUSH2 0x31EB DUP2 SLOAD PUSH2 0x2C80 JUMP JUMPDEST SWAP1 SSTORE PUSH2 0x2CA5 JUMP JUMPDEST SWAP6 PUSH1 0x40 MLOAD SWAP5 DUP6 DUP1 SWAP6 PUSH2 0x23EF JUMP JUMPDEST PUSH1 0x60 PUSH1 0x20 DUP6 ADD MSTORE PUSH1 0x60 DUP5 ADD SWAP1 PUSH2 0x27CE JUMP JUMPDEST DUP3 DUP2 SUB PUSH1 0x40 DUP5 ADD MSTORE CALLER SWAP7 PUSH2 0x27CE JUMP JUMPDEST SUB SWAP1 LOG3 JUMP JUMPDEST ADD MLOAD SWAP1 POP CODESIZE DUP1 PUSH2 0x3135 JUMP JUMPDEST SWAP1 PUSH1 0xD DUP5 ADD PUSH1 0x0 MSTORE PUSH1 0x20 PUSH1 0x0 KECCAK256 SWAP2 PUSH1 0x0 JUMPDEST PUSH1 0x1F NOT DUP6 AND DUP2 LT PUSH2 0x32B7 JUMPI POP SWAP5 PUSH32 0xBC5E30B99F14BBF3D59C8CF7ACA16B6CD889C273F13C2C4854E4D760969F0766 SWAP7 SWAP5 PUSH1 0xD PUSH1 0x1 DUP7 PUSH2 0x3210 SWAP7 PUSH2 0x31F2 SWAP7 PUSH2 0x31FF SWAP12 PUSH2 0x321F SWAP11 PUSH1 0x1F NOT DUP2 AND LT PUSH2 0x329E JUMPI JUMPDEST POP POP POP DUP2 SHL ADD SWAP2 ADD SSTORE PUSH2 0x314B JUMP JUMPDEST ADD MLOAD PUSH1 0x0 NOT PUSH1 0xF8 DUP5 PUSH1 0x3 SHL AND SHR NOT AND SWAP1 SSTORE CODESIZE DUP1 DUP1 PUSH2 0x3290 JUMP JUMPDEST SWAP2 SWAP3 PUSH1 0x20 PUSH1 0x1 DUP2 SWAP3 DUP7 DUP6 ADD MLOAD DUP2 SSTORE ADD SWAP5 ADD SWAP3 ADD PUSH2 0x3240 JUMP JUMPDEST ADD MLOAD SWAP1 POP CODESIZE DUP1 PUSH2 0x30A4 JUMP JUMPDEST SWAP1 PUSH1 0xC DUP6 ADD PUSH1 0x0 MSTORE PUSH1 0x20 PUSH1 0x0 KECCAK256 SWAP2 PUSH1 0x0 JUMPDEST PUSH1 0x1F NOT DUP6 AND DUP2 LT PUSH2 0x3336 JUMPI POP SWAP2 DUP4 SWAP2 PUSH1 0x1 SWAP4 PUSH2 0x1A0 SWAP7 SWAP6 PUSH1 0x1F NOT DUP2 AND LT PUSH2 0x331D JUMPI JUMPDEST POP POP POP DUP2 SHL ADD PUSH1 0xC DUP5 ADD SSTORE PUSH2 0x30BC JUMP JUMPDEST ADD MLOAD PUSH1 0x0 NOT PUSH1 0xF8 DUP5 PUSH1 0x3 SHL AND SHR NOT AND SWAP1 SSTORE CODESIZE DUP1 DUP1 PUSH2 0x330D JUMP JUMPDEST SWAP2 SWAP3 PUSH1 0x20 PUSH1 0x1 DUP2 SWAP3 DUP7 DUP6 ADD MLOAD DUP2 SSTORE ADD SWAP5 ADD SWAP3 ADD PUSH2 0x32EB JUMP JUMPDEST DUP1 MLOAD DUP1 MLOAD SWAP1 PUSH1 0x1 PUSH1 0x1 PUSH1 0x40 SHL SUB DUP3 GT PUSH2 0x129A JUMPI PUSH2 0x336F DUP3 PUSH2 0x12D1 DUP9 SLOAD PUSH2 0x2868 JUMP JUMPDEST PUSH1 0x20 SWAP1 PUSH1 0x1F DUP4 GT PUSH1 0x1 EQ PUSH2 0x33BB JUMPI SWAP3 DUP3 PUSH1 0x1 SWAP5 SWAP4 PUSH1 0x20 SWAP4 DUP7 SWAP6 PUSH1 0x0 SWAP3 PUSH2 0x33B0 JUMPI JUMPDEST POP POP PUSH1 0x0 NOT PUSH1 0x3 DUP4 SWAP1 SHL SHR NOT AND SWAP1 DUP5 SHL OR DUP8 SSTORE JUMPDEST ADD SWAP5 ADD SWAP2 ADD SWAP1 SWAP3 PUSH2 0x301D JUMP JUMPDEST ADD MLOAD SWAP1 POP CODESIZE DUP1 PUSH2 0x3390 JUMP JUMPDEST SWAP1 DUP7 PUSH1 0x0 MSTORE PUSH1 0x20 PUSH1 0x0 KECCAK256 SWAP2 PUSH1 0x0 JUMPDEST PUSH1 0x1F NOT DUP6 AND DUP2 LT PUSH2 0x3413 JUMPI POP DUP4 PUSH1 0x20 SWAP4 PUSH1 0x1 SWAP7 SWAP4 DUP8 SWAP7 SWAP4 DUP8 SWAP5 PUSH1 0x1F NOT DUP2 AND LT PUSH2 0x33FA JUMPI JUMPDEST POP POP POP DUP2 SHL ADD DUP8 SSTORE PUSH2 0x33A4 JUMP JUMPDEST ADD MLOAD PUSH1 0x0 NOT PUSH1 0xF8 DUP5 PUSH1 0x3 SHL AND SHR NOT AND SWAP1 SSTORE CODESIZE DUP1 DUP1 PUSH2 0x33ED JUMP JUMPDEST SWAP2 SWAP3 PUSH1 0x20 PUSH1 0x1 DUP2 SWAP3 DUP7 DUP6 ADD MLOAD DUP2 SSTORE ADD SWAP5 ADD SWAP3 ADD PUSH2 0x33C9 JUMP JUMPDEST DUP1 MLOAD DUP1 MLOAD SWAP1 PUSH1 0x1 PUSH1 0x1 PUSH1 0x40 SHL SUB DUP3 GT PUSH2 0x129A JUMPI PUSH2 0x344C DUP3 PUSH2 0x12D1 DUP9 SLOAD PUSH2 0x2868 JUMP JUMPDEST PUSH1 0x20 SWAP1 PUSH1 0x1F DUP4 GT PUSH1 0x1 EQ PUSH2 0x3498 JUMPI SWAP3 DUP3 PUSH1 0x1 SWAP5 SWAP4 PUSH1 0x20 SWAP4 DUP7 SWAP6 PUSH1 0x0 SWAP3 PUSH2 0x348D JUMPI JUMPDEST POP POP PUSH1 0x0 NOT PUSH1 0x3 DUP4 SWAP1 SHL SHR NOT AND SWAP1 DUP5 SHL OR DUP8 SSTORE JUMPDEST ADD SWAP5 ADD SWAP2 ADD SWAP1 SWAP3 PUSH2 0x2FEA JUMP JUMPDEST ADD MLOAD SWAP1 POP CODESIZE DUP1 PUSH2 0x346D JUMP JUMPDEST SWAP1 DUP7 PUSH1 0x0 MSTORE PUSH1 0x20 PUSH1 0x0 KECCAK256 SWAP2 PUSH1 0x0 JUMPDEST PUSH1 0x1F NOT DUP6 AND DUP2 LT PUSH2 0x34F0 JUMPI POP DUP4 PUSH1 0x20 SWAP4 PUSH1 0x1 SWAP7 SWAP4 DUP8 SWAP7 SWAP4 DUP8 SWAP5 PUSH1 0x1F NOT DUP2 AND LT PUSH2 0x34D7 JUMPI JUMPDEST POP POP POP DUP2 SHL ADD DUP8 SSTORE PUSH2 0x3481 JUMP JUMPDEST ADD MLOAD PUSH1 0x0 NOT PUSH1 0xF8 DUP5 PUSH1 0x3 SHL AND SHR NOT AND SWAP1 SSTORE CODESIZE DUP1 DUP1 PUSH2 0x34CA JUMP JUMPDEST SWAP2 SWAP3 PUSH1 0x20 PUSH1 0x1 DUP2 SWAP3 DUP7 DUP6 ADD MLOAD DUP2 SSTORE ADD SWAP5 ADD SWAP3 ADD PUSH2 0x34A6 JUMP JUMPDEST DUP1 MLOAD DUP1 MLOAD DUP1 MLOAD SWAP1 PUSH1 0x1 PUSH1 0x1 PUSH1 0x40 SHL SUB DUP3 GT PUSH2 0x129A JUMPI DUP2 SWAP1 PUSH2 0x3533 DUP3 PUSH2 0x352D DUP11 SLOAD PUSH2 0x2868 JUMP JUMPDEST DUP11 PUSH2 0x2B55 JUMP JUMPDEST PUSH1 0x20 SWAP1 PUSH1 0x1F DUP4 GT PUSH1 0x1 EQ PUSH2 0x384B JUMPI PUSH1 0x0 SWAP3 PUSH2 0x3840 JUMPI JUMPDEST POP POP DUP2 PUSH1 0x1 SHL SWAP2 PUSH1 0x0 NOT SWAP1 PUSH1 0x3 SHL SHR NOT AND OR DUP6 SSTORE JUMPDEST PUSH1 0x20 DUP2 ADD MLOAD PUSH1 0xA DUP2 LT ISZERO PUSH2 0x23FC JUMPI PUSH1 0x1 DUP7 ADD SWAP1 DUP2 SLOAD PUSH1 0xFF PUSH2 0xFF00 PUSH1 0x40 DUP7 ADD MLOAD ISZERO ISZERO PUSH1 0x8 SHL AND SWAP3 AND SWAP1 PUSH2 0xFFFF NOT AND OR OR SWAP1 SSTORE PUSH1 0x60 DUP2 ADD MLOAD DUP1 MLOAD SWAP1 PUSH1 0x1 PUSH1 0x1 PUSH1 0x40 SHL SUB DUP3 GT PUSH2 0x129A JUMPI DUP2 SWAP1 PUSH2 0x35C1 DUP3 PUSH2 0x35B8 PUSH1 0x2 DUP12 ADD SLOAD PUSH2 0x2868 JUMP JUMPDEST PUSH1 0x2 DUP12 ADD PUSH2 0x2B55 JUMP JUMPDEST PUSH1 0x20 SWAP1 PUSH1 0x1F DUP4 GT PUSH1 0x1 EQ PUSH2 0x37CE JUMPI PUSH1 0x0 SWAP3 PUSH2 0x37C3 JUMPI JUMPDEST POP POP DUP2 PUSH1 0x1 SHL SWAP2 PUSH1 0x0 NOT SWAP1 PUSH1 0x3 SHL SHR NOT AND OR PUSH1 0x2 DUP7 ADD SSTORE JUMPDEST PUSH1 0x80 DUP2 ADD MLOAD DUP1 MLOAD SWAP1 PUSH1 0x1 PUSH1 0x1 PUSH1 0x40 SHL SUB DUP3 GT PUSH2 0x129A JUMPI PUSH2 0x361F DUP3 PUSH2 0x3616 PUSH1 0x3 DUP11 ADD SLOAD PUSH2 0x2868 JUMP JUMPDEST PUSH1 0x3 DUP11 ADD PUSH2 0x2B55 JUMP JUMPDEST PUSH1 0x20 SWAP1 PUSH1 0x1F DUP4 GT PUSH1 0x1 EQ PUSH2 0x3750 JUMPI PUSH1 0xA0 SWAP4 SWAP3 SWAP2 PUSH1 0x0 SWAP2 DUP4 PUSH2 0x3745 JUMPI JUMPDEST POP POP DUP2 PUSH1 0x1 SHL SWAP2 PUSH1 0x0 NOT SWAP1 PUSH1 0x3 SHL SHR NOT AND OR PUSH1 0x3 DUP8 ADD SSTORE JUMPDEST ADD MLOAD DUP1 MLOAD SWAP1 PUSH1 0x1 PUSH1 0x1 PUSH1 0x40 SHL SUB DUP3 GT PUSH2 0x129A JUMPI PUSH2 0x3680 DUP3 PUSH2 0x3677 PUSH1 0x4 DUP10 ADD SLOAD PUSH2 0x2868 JUMP JUMPDEST PUSH1 0x4 DUP10 ADD PUSH2 0x2B55 JUMP JUMPDEST PUSH1 0x20 SWAP1 PUSH1 0x1F DUP4 GT PUSH1 0x1 EQ PUSH2 0x36CF JUMPI SWAP3 DUP3 PUSH1 0x5 SWAP4 PUSH1 0x20 SWAP4 PUSH1 0x1 SWAP7 PUSH1 0x0 SWAP3 PUSH2 0x36C4 JUMPI JUMPDEST POP POP PUSH1 0x0 NOT PUSH1 0x3 DUP4 SWAP1 SHL SHR NOT AND SWAP1 DUP6 SHL OR PUSH1 0x4 DUP9 ADD SSTORE JUMPDEST ADD SWAP5 ADD SWAP2 ADD SWAP1 SWAP3 PUSH2 0x2FB8 JUMP JUMPDEST ADD MLOAD SWAP1 POP CODESIZE DUP1 PUSH2 0x36A1 JUMP JUMPDEST SWAP1 PUSH1 0x4 DUP8 ADD PUSH1 0x0 MSTORE PUSH1 0x20 PUSH1 0x0 KECCAK256 SWAP2 PUSH1 0x0 JUMPDEST PUSH1 0x1F NOT DUP6 AND DUP2 LT PUSH2 0x372D JUMPI POP DUP4 PUSH1 0x20 SWAP4 PUSH1 0x1 SWAP7 SWAP4 DUP8 SWAP4 PUSH1 0x5 SWAP8 PUSH1 0x1F NOT DUP2 AND LT PUSH2 0x3714 JUMPI JUMPDEST POP POP POP DUP2 SHL ADD PUSH1 0x4 DUP9 ADD SSTORE PUSH2 0x36B8 JUMP JUMPDEST ADD MLOAD PUSH1 0x0 NOT PUSH1 0xF8 DUP5 PUSH1 0x3 SHL AND SHR NOT AND SWAP1 SSTORE CODESIZE DUP1 DUP1 PUSH2 0x3704 JUMP JUMPDEST SWAP2 SWAP3 PUSH1 0x20 PUSH1 0x1 DUP2 SWAP3 DUP7 DUP6 ADD MLOAD DUP2 SSTORE ADD SWAP5 ADD SWAP3 ADD PUSH2 0x36E0 JUMP JUMPDEST ADD MLOAD SWAP1 POP CODESIZE DUP1 PUSH2 0x363B JUMP JUMPDEST SWAP1 PUSH1 0x3 DUP9 ADD PUSH1 0x0 MSTORE PUSH1 0x20 PUSH1 0x0 KECCAK256 SWAP2 PUSH1 0x0 JUMPDEST PUSH1 0x1F NOT DUP6 AND DUP2 LT PUSH2 0x37AB JUMPI POP SWAP2 DUP4 SWAP2 PUSH1 0x1 SWAP4 PUSH1 0xA0 SWAP7 SWAP6 PUSH1 0x1F NOT DUP2 AND LT PUSH2 0x3792 JUMPI JUMPDEST POP POP POP DUP2 SHL ADD PUSH1 0x3 DUP8 ADD SSTORE PUSH2 0x3653 JUMP JUMPDEST ADD MLOAD PUSH1 0x0 NOT PUSH1 0xF8 DUP5 PUSH1 0x3 SHL AND SHR NOT AND SWAP1 SSTORE CODESIZE DUP1 DUP1 PUSH2 0x3782 JUMP JUMPDEST SWAP2 SWAP3 PUSH1 0x20 PUSH1 0x1 DUP2 SWAP3 DUP7 DUP6 ADD MLOAD DUP2 SSTORE ADD SWAP5 ADD SWAP3 ADD PUSH2 0x3761 JUMP JUMPDEST ADD MLOAD SWAP1 POP CODESIZE DUP1 PUSH2 0x35D7 JUMP JUMPDEST SWAP3 POP PUSH1 0x2 DUP9 ADD PUSH1 0x0 MSTORE PUSH1 0x20 PUSH1 0x0 KECCAK256 SWAP1 PUSH1 0x0 SWAP4 JUMPDEST PUSH1 0x1F NOT DUP5 AND DUP6 LT PUSH2 0x3825 JUMPI PUSH1 0x1 SWAP5 POP DUP4 PUSH1 0x1F NOT DUP2 AND LT PUSH2 0x380C JUMPI JUMPDEST POP POP POP DUP2 SHL ADD PUSH1 0x2 DUP7 ADD SSTORE PUSH2 0x35EF JUMP JUMPDEST ADD MLOAD PUSH1 0x0 NOT PUSH1 0xF8 DUP5 PUSH1 0x3 SHL AND SHR NOT AND SWAP1 SSTORE CODESIZE DUP1 DUP1 PUSH2 0x37FC JUMP JUMPDEST DUP2 DUP2 ADD MLOAD DUP4 SSTORE PUSH1 0x20 SWAP5 DUP6 ADD SWAP5 PUSH1 0x1 SWAP1 SWAP4 ADD SWAP3 SWAP1 SWAP2 ADD SWAP1 PUSH2 0x37E1 JUMP JUMPDEST ADD MLOAD SWAP1 POP CODESIZE DUP1 PUSH2 0x3549 JUMP JUMPDEST SWAP3 POP DUP8 PUSH1 0x0 MSTORE PUSH1 0x20 PUSH1 0x0 KECCAK256 SWAP1 PUSH1 0x0 SWAP4 JUMPDEST PUSH1 0x1F NOT DUP5 AND DUP6 LT PUSH2 0x389C JUMPI PUSH1 0x1 SWAP5 POP DUP4 PUSH1 0x1F NOT DUP2 AND LT PUSH2 0x3883 JUMPI JUMPDEST POP POP POP DUP2 SHL ADD DUP6 SSTORE PUSH2 0x355E JUMP JUMPDEST ADD MLOAD PUSH1 0x0 NOT PUSH1 0xF8 DUP5 PUSH1 0x3 SHL AND SHR NOT AND SWAP1 SSTORE CODESIZE DUP1 DUP1 PUSH2 0x3876 JUMP JUMPDEST DUP2 DUP2 ADD MLOAD DUP4 SSTORE PUSH1 0x20 SWAP5 DUP6 ADD SWAP5 PUSH1 0x1 SWAP1 SWAP4 ADD SWAP3 SWAP1 SWAP2 ADD SWAP1 PUSH2 0x385B JUMP JUMPDEST PUSH1 0x5 DUP2 DUP2 MUL DIV DUP2 SUB PUSH2 0x2C8F JUMPI PUSH1 0x5 DUP4 DUP2 MUL DIV DUP4 SUB PUSH2 0x2C8F JUMPI PUSH1 0x6 DUP6 ADD PUSH1 0x0 MSTORE PUSH1 0x20 PUSH1 0x0 KECCAK256 DUP4 PUSH1 0x5 MUL DUP2 ADD JUMPDEST DUP3 PUSH1 0x5 MUL DUP3 ADD DUP2 LT PUSH2 0x38F5 JUMPI POP POP PUSH2 0x2FA2 JUMP JUMPDEST DUP1 PUSH2 0x3901 PUSH1 0x5 SWAP3 PUSH2 0x2BB4 JUMP JUMPDEST PUSH1 0x0 PUSH1 0x1 DUP3 ADD SSTORE PUSH2 0x3914 PUSH1 0x2 DUP3 ADD PUSH2 0x2BB4 JUMP JUMPDEST PUSH2 0x3920 PUSH1 0x3 DUP3 ADD PUSH2 0x2BB4 JUMP JUMPDEST PUSH2 0x392C PUSH1 0x4 DUP3 ADD PUSH2 0x2BB4 JUMP JUMPDEST ADD PUSH2 0x38E2 JUMP JUMPDEST ADD MLOAD SWAP1 POP CODESIZE DUP1 PUSH2 0x2F64 JUMP JUMPDEST SWAP3 POP PUSH1 0x5 DUP6 ADD PUSH1 0x0 MSTORE PUSH1 0x20 PUSH1 0x0 KECCAK256 SWAP1 PUSH1 0x0 SWAP4 JUMPDEST PUSH1 0x1F NOT DUP5 AND DUP6 LT PUSH2 0x3994 JUMPI PUSH1 0x1 SWAP5 POP DUP4 PUSH1 0x1F NOT DUP2 AND LT PUSH2 0x397B JUMPI JUMPDEST POP POP POP DUP2 SHL ADD PUSH1 0x5 DUP4 ADD SSTORE PUSH2 0x2F7C JUMP JUMPDEST ADD MLOAD PUSH1 0x0 NOT PUSH1 0xF8 DUP5 PUSH1 0x3 SHL AND SHR NOT AND SWAP1 SSTORE CODESIZE DUP1 DUP1 PUSH2 0x396B JUMP JUMPDEST DUP2 DUP2 ADD MLOAD DUP4 SSTORE PUSH1 0x20 SWAP5 DUP6 ADD SWAP5 PUSH1 0x1 SWAP1 SWAP4 ADD SWAP3 SWAP1 SWAP2 ADD SWAP1 PUSH2 0x3950 JUMP JUMPDEST ADD MLOAD SWAP1 POP CODESIZE DUP1 PUSH2 0x2F04 JUMP JUMPDEST SWAP3 POP PUSH1 0x4 DUP6 ADD PUSH1 0x0 MSTORE PUSH1 0x20 PUSH1 0x0 KECCAK256 SWAP1 PUSH1 0x0 SWAP4 JUMPDEST PUSH1 0x1F NOT DUP5 AND DUP6 LT PUSH2 0x3A11 JUMPI PUSH1 0x1 SWAP5 POP DUP4 PUSH1 0x1F NOT DUP2 AND LT PUSH2 0x39F8 JUMPI JUMPDEST POP POP POP DUP2 SHL ADD PUSH1 0x4 DUP4 ADD SSTORE PUSH2 0x2F1C JUMP JUMPDEST ADD MLOAD PUSH1 0x0 NOT PUSH1 0xF8 DUP5 PUSH1 0x3 SHL AND SHR NOT AND SWAP1 SSTORE CODESIZE DUP1 DUP1 PUSH2 0x39E8 JUMP JUMPDEST DUP2 DUP2 ADD MLOAD DUP4 SSTORE PUSH1 0x20 SWAP5 DUP6 ADD SWAP5 PUSH1 0x1 SWAP1 SWAP4 ADD SWAP3 SWAP1 SWAP2 ADD SWAP1 PUSH2 0x39CD JUMP JUMPDEST ADD MLOAD SWAP1 POP CODESIZE DUP1 PUSH2 0x2EA4 JUMP JUMPDEST SWAP3 POP PUSH1 0x3 DUP6 ADD PUSH1 0x0 MSTORE PUSH1 0x20 PUSH1 0x0 KECCAK256 SWAP1 PUSH1 0x0 SWAP4 JUMPDEST PUSH1 0x1F NOT DUP5 AND DUP6 LT PUSH2 0x3A8E JUMPI PUSH1 0x1 SWAP5 POP DUP4 PUSH1 0x1F NOT DUP2 AND LT PUSH2 0x3A75 JUMPI JUMPDEST POP POP POP DUP2 SHL ADD PUSH1 0x3 DUP4 ADD SSTORE PUSH2 0x2EBC JUMP JUMPDEST ADD MLOAD PUSH1 0x0 NOT PUSH1 0xF8 DUP5 PUSH1 0x3 SHL AND SHR NOT AND SWAP1 SSTORE CODESIZE DUP1 DUP1 PUSH2 0x3A65 JUMP JUMPDEST DUP2 DUP2 ADD MLOAD DUP4 SSTORE PUSH1 0x20 SWAP5 DUP6 ADD SWAP5 PUSH1 0x1 SWAP1 SWAP4 ADD SWAP3 SWAP1 SWAP2 ADD SWAP1 PUSH2 0x3A4A JUMP JUMPDEST ADD MLOAD SWAP1 POP CODESIZE DUP1 PUSH2 0x2E44 JUMP JUMPDEST SWAP3 POP PUSH1 0x2 DUP6 ADD PUSH1 0x0 MSTORE PUSH1 0x20 PUSH1 0x0 KECCAK256 SWAP1 PUSH1 0x0 SWAP4 JUMPDEST PUSH1 0x1F NOT DUP5 AND DUP6 LT PUSH2 0x3B0B JUMPI PUSH1 0x1 SWAP5 POP DUP4 PUSH1 0x1F NOT DUP2 AND LT PUSH2 0x3AF2 JUMPI JUMPDEST POP POP POP DUP2 SHL ADD PUSH1 0x2 DUP4 ADD SSTORE PUSH2 0x2E5C JUMP JUMPDEST ADD MLOAD PUSH1 0x0 NOT PUSH1 0xF8 DUP5 PUSH1 0x3 SHL AND SHR NOT AND SWAP1 SSTORE CODESIZE DUP1 DUP1 PUSH2 0x3AE2 JUMP JUMPDEST DUP2 DUP2 ADD MLOAD DUP4 SSTORE PUSH1 0x20 SWAP5 DUP6 ADD SWAP5 PUSH1 0x1 SWAP1 SWAP4 ADD SWAP3 SWAP1 SWAP2 ADD SWAP1 PUSH2 0x3AC7 JUMP JUMPDEST ADD MLOAD SWAP1 POP CODESIZE DUP1 PUSH2 0x2DCC JUMP JUMPDEST SWAP3 POP DUP5 PUSH1 0x0 MSTORE PUSH1 0x20 PUSH1 0x0 KECCAK256 SWAP1 PUSH1 0x0 SWAP4 JUMPDEST PUSH1 0x1F NOT DUP5 AND DUP6 LT PUSH2 0x3B82 JUMPI PUSH1 0x1 SWAP5 POP DUP4 PUSH1 0x1F NOT DUP2 AND LT PUSH2 0x3B69 JUMPI JUMPDEST POP POP POP DUP2 SHL ADD DUP3 SSTORE PUSH2 0x2DE1 JUMP JUMPDEST ADD MLOAD PUSH1 0x0 NOT PUSH1 0xF8 DUP5 PUSH1 0x3 SHL AND SHR NOT AND SWAP1 SSTORE CODESIZE DUP1 DUP1 PUSH2 0x3B5C JUMP JUMPDEST DUP2 DUP2 ADD MLOAD DUP4 SSTORE PUSH1 0x20 SWAP5 DUP6 ADD SWAP5 PUSH1 0x1 SWAP1 SWAP4 ADD SWAP3 SWAP1 SWAP2 ADD SWAP1 PUSH2 0x3B41 JUMP JUMPDEST ISZERO PUSH2 0x3BA4 JUMPI JUMP JUMPDEST PUSH1 0x40 MLOAD PUSH3 0x461BCD PUSH1 0xE5 SHL DUP2 MSTORE PUSH1 0x20 PUSH1 0x4 DUP3 ADD MSTORE PUSH1 0x12 PUSH1 0x24 DUP3 ADD MSTORE PUSH18 0x14D8DA195B58481B9BDD081919599A5B9959 PUSH1 0x72 SHL PUSH1 0x44 DUP3 ADD MSTORE PUSH1 0x64 SWAP1 REVERT JUMPDEST SWAP1 PUSH1 0x40 SWAP2 DUP3 MLOAD SWAP3 PUSH2 0x3BEE DUP5 PUSH2 0x2333 JUMP JUMPDEST DUP4 DUP2 MLOAD PUSH2 0x3BFF DUP2 PUSH2 0x5F7 DUP2 DUP8 PUSH2 0x28A2 JUMP JUMPDEST DUP2 MSTORE PUSH1 0x1 DUP4 ADD SLOAD SWAP3 PUSH1 0xFF DUP5 AND SWAP1 PUSH1 0xA DUP3 LT ISZERO PUSH2 0x23FC JUMPI PUSH2 0x3C6E PUSH1 0xA0 SWAP5 PUSH1 0xFF PUSH1 0x4 SWAP8 PUSH2 0x3C75 SWAP6 PUSH1 0x20 DUP9 ADD MSTORE PUSH1 0x8 SHR AND ISZERO ISZERO DUP2 DUP7 ADD MSTORE DUP1 MLOAD PUSH2 0x3C46 DUP2 PUSH2 0x5F7 DUP2 PUSH1 0x2 DUP9 ADD PUSH2 0x28A2 JUMP JUMPDEST PUSH1 0x60 DUP7 ADD MSTORE DUP1 MLOAD PUSH2 0x3C5E DUP2 PUSH2 0x5F7 DUP2 PUSH1 0x3 DUP9 ADD PUSH2 0x28A2 JUMP JUMPDEST PUSH1 0x80 DUP7 ADD MSTORE MLOAD DUP1 SWAP7 DUP2 SWAP4 ADD PUSH2 0x28A2 JUMP JUMPDEST SUB DUP5 PUSH2 0x236A JUMP JUMPDEST ADD MSTORE JUMP JUMPDEST SWAP1 DUP2 SLOAD PUSH2 0x3C85 DUP2 PUSH2 0x2455 JUMP JUMPDEST SWAP3 PUSH1 0x40 SWAP4 PUSH2 0x3C95 DUP6 MLOAD SWAP2 DUP3 PUSH2 0x236A JUMP JUMPDEST DUP3 DUP2 MSTORE DUP1 SWAP5 PUSH1 0x20 DUP1 SWAP3 ADD SWAP3 PUSH1 0x0 MSTORE DUP2 PUSH1 0x0 KECCAK256 SWAP1 PUSH1 0x0 SWAP4 JUMPDEST DUP6 DUP6 LT PUSH2 0x3CBB JUMPI POP POP POP POP POP POP JUMP JUMPDEST PUSH1 0x1 DUP5 DUP2 SWAP3 DUP5 MLOAD PUSH2 0x3CD0 DUP2 PUSH2 0x5F7 DUP2 DUP11 PUSH2 0x28A2 JUMP JUMPDEST DUP2 MSTORE ADD SWAP4 ADD SWAP5 ADD SWAP4 SWAP2 PUSH2 0x3CAC JUMP JUMPDEST ISZERO PUSH2 0x3CE5 JUMPI JUMP JUMPDEST PUSH1 0x40 MLOAD PUSH3 0x461BCD PUSH1 0xE5 SHL DUP2 MSTORE PUSH1 0x20 PUSH1 0x4 DUP3 ADD MSTORE PUSH1 0x1B PUSH1 0x24 DUP3 ADD MSTORE PUSH32 0x4465736372697074696F6E2063616E6E6F7420626520656D7074790000000000 PUSH1 0x44 DUP3 ADD MSTORE PUSH1 0x64 SWAP1 REVERT JUMPDEST ISZERO PUSH2 0x3D31 JUMPI JUMP JUMPDEST PUSH1 0x40 MLOAD PUSH3 0x461BCD PUSH1 0xE5 SHL DUP2 MSTORE PUSH1 0x20 PUSH1 0x4 DUP3 ADD MSTORE PUSH1 0x17 PUSH1 0x24 DUP3 ADD MSTORE PUSH32 0x56657273696F6E2063616E6E6F7420626520656D707479000000000000000000 PUSH1 0x44 DUP3 ADD MSTORE PUSH1 0x64 SWAP1 REVERT JUMPDEST ISZERO PUSH2 0x3D7D JUMPI JUMP JUMPDEST PUSH1 0x40 MLOAD PUSH3 0x461BCD PUSH1 0xE5 SHL DUP2 MSTORE PUSH1 0x20 PUSH1 0x4 DUP3 ADD MSTORE PUSH1 0x23 PUSH1 0x24 DUP3 ADD MSTORE PUSH32 0x536368656D61206D7573742068617665206174206C65617374206F6E65206669 PUSH1 0x44 DUP3 ADD MSTORE PUSH3 0x195B19 PUSH1 0xEA SHL PUSH1 0x64 DUP3 ADD MSTORE PUSH1 0x84 SWAP1 REVERT JUMPDEST DUP1 ISZERO PUSH2 0x2C8F JUMPI PUSH1 0x0 NOT ADD SWAP1 JUMP JUMPDEST SWAP1 DUP1 DUP3 EQ PUSH2 0x3EB5 JUMPI PUSH2 0x3DED DUP2 SLOAD PUSH2 0x2868 JUMP JUMPDEST SWAP1 PUSH1 0x1 PUSH1 0x1 PUSH1 0x40 SHL SUB DUP3 GT PUSH2 0x129A JUMPI DUP2 SWAP1 PUSH2 0x3E12 DUP3 PUSH2 0x3E0C DUP7 SLOAD PUSH2 0x2868 JUMP JUMPDEST DUP7 PUSH2 0x2B55 JUMP JUMPDEST PUSH1 0x0 SWAP1 PUSH1 0x1F DUP4 GT PUSH1 0x1 EQ PUSH2 0x3E49 JUMPI PUSH1 0x0 SWAP3 PUSH2 0x3E3E JUMPI JUMPDEST POP POP DUP2 PUSH1 0x1 SHL SWAP2 PUSH1 0x0 NOT SWAP1 PUSH1 0x3 SHL SHR NOT AND OR SWAP1 SSTORE JUMP JUMPDEST ADD SLOAD SWAP1 POP CODESIZE DUP1 PUSH2 0x3E28 JUMP JUMPDEST DUP2 MSTORE PUSH1 0x20 DUP1 DUP3 KECCAK256 DUP6 DUP4 MSTORE DUP2 DUP4 KECCAK256 SWAP4 POP SWAP1 PUSH1 0x1F NOT DUP6 AND SWAP1 DUP4 SWAP1 JUMPDEST DUP3 DUP3 LT PUSH2 0x3E9C JUMPI POP POP SWAP1 DUP5 PUSH1 0x1 SWAP6 SWAP5 SWAP4 SWAP3 LT PUSH2 0x3E83 JUMPI JUMPDEST POP POP POP DUP2 SHL ADD SWAP1 SSTORE JUMP JUMPDEST ADD SLOAD PUSH1 0x0 NOT PUSH1 0xF8 DUP5 PUSH1 0x3 SHL AND SHR NOT AND SWAP1 SSTORE CODESIZE DUP1 DUP1 PUSH2 0x3E79 JUMP JUMPDEST DUP5 SWAP6 DUP2 SWAP3 SWAP6 DUP6 ADD SLOAD DUP2 SSTORE PUSH1 0x1 DUP1 SWAP2 ADD SWAP7 ADD SWAP5 ADD SWAP1 PUSH2 0x3E62 JUMP JUMPDEST POP POP JUMP JUMPDEST SWAP1 PUSH1 0x40 DUP1 MLOAD DUP4 MLOAD SWAP2 PUSH1 0x20 SWAP1 DUP2 DUP7 ADD SWAP4 PUSH2 0x3ED3 DUP2 DUP6 DUP8 PUSH2 0x27AB JUMP JUMPDEST DUP4 ADD SWAP3 DUP3 DUP2 PUSH1 0x2 SWAP6 DUP7 DUP2 MSTORE SUB ADD SWAP1 KECCAK256 SWAP4 PUSH2 0x3EEE PUSH1 0xB SLOAD PUSH2 0x3DCE JUMP JUMPDEST PUSH1 0xB SSTORE DUP4 PUSH1 0x1 SWAP6 PUSH2 0x3F04 PUSH1 0xFF DUP9 DUP4 ADD SLOAD AND PUSH2 0x284F JUMP JUMPDEST PUSH2 0x3F0E DUP2 SLOAD PUSH2 0x3DCE JUMP JUMPDEST SWAP1 SSTORE ADD SWAP4 DUP3 MLOAD DUP5 DUP2 PUSH1 0x0 DUP9 SLOAD PUSH2 0x3F23 DUP2 PUSH2 0x2868 JUMP JUMPDEST SWAP1 DUP12 DUP2 AND SWAP1 DUP2 ISZERO PUSH2 0x42F8 JUMPI POP PUSH1 0x1 EQ PUSH2 0x42C0 JUMPI JUMPDEST POP PUSH1 0xD DUP2 MSTORE SUB ADD SWAP1 KECCAK256 PUSH2 0x3F4A DUP2 SLOAD PUSH2 0x3DCE JUMP JUMPDEST SWAP1 SSTORE DUP3 MLOAD SWAP2 DUP9 MLOAD PUSH2 0x3F5C DUP2 DUP6 DUP5 PUSH2 0x27AB JUMP JUMPDEST DUP4 ADD SWAP3 DUP6 DUP2 PUSH1 0x3 SWAP6 DUP7 DUP2 MSTORE SUB ADD SWAP1 KECCAK256 SWAP9 PUSH1 0xFF NOT SWAP10 DUP11 DUP2 SLOAD AND SWAP1 SSTORE DUP5 MLOAD SWAP5 DUP2 MLOAD PUSH2 0x3F86 DUP2 DUP9 DUP7 PUSH2 0x27AB JUMP JUMPDEST DUP7 ADD SWAP6 DUP8 DUP2 PUSH1 0x4 SWAP9 DUP10 DUP2 MSTORE SUB ADD SWAP1 KECCAK256 DUP12 DUP2 SLOAD AND SWAP1 SSTORE DUP1 MLOAD PUSH1 0x0 SWAP9 DUP1 SLOAD PUSH2 0x3FAB DUP2 PUSH2 0x2868 JUMP JUMPDEST SWAP14 DUP2 DUP14 AND SWAP2 DUP3 ISZERO PUSH2 0x42A9 JUMPI POP POP PUSH1 0x1 EQ PUSH2 0x4273 JUMPI JUMPDEST POP DUP10 SWAP11 SWAP12 POP DUP8 DUP2 PUSH1 0x5 SWAP11 DUP12 DUP2 MSTORE SUB ADD SWAP1 KECCAK256 DUP10 PUSH1 0x0 SWAP1 JUMPDEST PUSH2 0x410F JUMPI JUMPDEST POP POP DUP7 SWAP8 SWAP9 POP SWAP1 PUSH2 0x3FFA SWAP4 SWAP5 SWAP6 SWAP7 SWAP3 SWAP2 MLOAD SWAP4 DUP5 SWAP3 DUP4 SWAP3 MLOAD SWAP3 DUP4 SWAP2 PUSH2 0x27AB JUMP JUMPDEST DUP2 ADD DUP5 DUP2 MSTORE SUB ADD SWAP1 KECCAK256 SWAP6 PUSH2 0x400D DUP8 PUSH2 0x2BB4 JUMP JUMPDEST PUSH1 0x0 DUP2 DUP9 ADD SSTORE PUSH2 0x401E DUP3 DUP9 ADD PUSH2 0x2BB4 JUMP JUMPDEST PUSH2 0x4029 DUP4 DUP9 ADD PUSH2 0x2BB4 JUMP JUMPDEST PUSH2 0x4034 DUP5 DUP9 ADD PUSH2 0x2BB4 JUMP JUMPDEST PUSH2 0x403F DUP7 DUP9 ADD PUSH2 0x2BB4 JUMP JUMPDEST PUSH1 0x6 DUP8 ADD SWAP5 DUP6 SLOAD SWAP6 PUSH1 0x0 DUP2 SSTORE DUP7 PUSH2 0x409E JUMPI JUMPDEST POP POP POP POP POP POP POP POP PUSH1 0xD DUP2 PUSH2 0x406B PUSH1 0x7 PUSH2 0x2B90 SWAP5 ADD PUSH2 0x2BFD JUMP JUMPDEST PUSH2 0x4077 PUSH1 0x8 DUP3 ADD PUSH2 0x2BFD JUMP JUMPDEST PUSH1 0x0 PUSH1 0x9 DUP3 ADD SSTORE PUSH1 0x0 PUSH1 0xA DUP3 ADD SSTORE PUSH1 0x0 PUSH1 0xB DUP3 ADD SSTORE PUSH2 0x4098 PUSH1 0xC DUP3 ADD PUSH2 0x2BB4 JUMP JUMPDEST ADD PUSH2 0x2BB4 JUMP JUMPDEST DUP7 DUP9 MUL SWAP7 DUP9 DUP9 DIV SUB PUSH2 0x40FA JUMPI PUSH1 0x0 MSTORE PUSH1 0x0 KECCAK256 SWAP5 DUP6 ADD SWAP5 JUMPDEST DUP6 DUP2 LT PUSH2 0x40C2 JUMPI DUP1 PUSH2 0x4051 JUMP JUMPDEST DUP1 PUSH2 0x40CD DUP9 SWAP3 PUSH2 0x2BB4 JUMP JUMPDEST PUSH1 0x0 DUP4 DUP3 ADD SSTORE PUSH2 0x40DE DUP5 DUP3 ADD PUSH2 0x2BB4 JUMP JUMPDEST PUSH2 0x40E9 DUP6 DUP3 ADD PUSH2 0x2BB4 JUMP JUMPDEST PUSH2 0x40F4 DUP7 DUP3 ADD PUSH2 0x2BB4 JUMP JUMPDEST ADD PUSH2 0x40B5 JUMP JUMPDEST PUSH1 0x11 DUP7 PUSH4 0x4E487B71 PUSH1 0xE0 SHL PUSH1 0x0 MSTORE MSTORE PUSH1 0x24 PUSH1 0x0 REVERT JUMPDEST DUP2 SLOAD DUP1 DUP3 LT ISZERO PUSH2 0x426D JUMPI PUSH2 0x5F7 PUSH2 0x4135 PUSH2 0x4129 DUP5 DUP7 PUSH2 0x2969 JUMP JUMPDEST POP DUP7 MLOAD SWAP3 DUP4 DUP1 SWAP3 PUSH2 0x28A2 JUMP JUMPDEST DUP11 DUP2 MLOAD SWAP2 ADD KECCAK256 DUP6 MLOAD DUP8 KECCAK256 EQ PUSH2 0x4154 JUMPI POP PUSH2 0x414E SWAP1 PUSH2 0x2C80 JUMP JUMPDEST DUP11 PUSH2 0x3FD6 JUMP JUMPDEST SWAP2 SWAP3 SWAP4 SWAP5 SWAP6 SWAP7 SWAP8 SWAP9 SWAP10 SWAP11 POP PUSH1 0x0 NOT SWAP2 DUP3 DUP2 ADD SWAP1 DUP2 GT PUSH2 0x4258 JUMPI PUSH2 0x417A PUSH2 0x4182 SWAP2 DUP6 PUSH2 0x2969 JUMP JUMPDEST POP SWAP2 DUP5 PUSH2 0x2969 JUMP JUMPDEST PUSH2 0x4244 JUMPI SWAP1 PUSH2 0x4190 SWAP2 PUSH2 0x3DDB JUMP JUMPDEST DUP2 SLOAD DUP1 ISZERO PUSH2 0x422F JUMPI ADD SWAP1 PUSH2 0x41A4 DUP3 DUP3 PUSH2 0x2969 JUMP JUMPDEST PUSH2 0x421B JUMPI SWAP2 PUSH2 0x3FFA SWAP6 SWAP4 SWAP2 DUP12 DUP5 DUP15 PUSH2 0x41BE DUP15 SWAP10 SWAP8 SLOAD PUSH2 0x2868 JUMP JUMPDEST SWAP1 DUP2 PUSH2 0x41D9 JUMPI JUMPDEST POP POP POP POP SSTORE SWAP1 SWAP2 SWAP3 SWAP7 SWAP6 SWAP5 SWAP4 DUP11 SWAP10 SWAP9 PUSH2 0x3FDB JUMP JUMPDEST PUSH1 0x0 SWAP4 PUSH1 0x1F DUP1 DUP5 GT PUSH1 0x1 EQ PUSH2 0x41F7 JUMPI POP POP POP POP SSTORE JUMPDEST DUP12 CODESIZE DUP1 DUP16 PUSH2 0x41C5 JUMP JUMPDEST SWAP2 PUSH2 0x4214 SWAP2 DUP6 SWAP4 DUP8 SWAP6 SWAP7 DUP7 MSTORE DUP14 DUP7 KECCAK256 SWAP7 ADD SWAP1 SHR DUP6 ADD SWAP1 DUP6 ADD PUSH2 0x2B3E JUMP JUMPDEST SSTORE SSTORE PUSH2 0x41EE JUMP JUMPDEST PUSH1 0x0 DUP10 PUSH4 0x4E487B71 PUSH1 0xE0 SHL DUP3 MSTORE MSTORE PUSH1 0x24 PUSH1 0x0 REVERT JUMPDEST PUSH1 0x31 DUP10 PUSH4 0x4E487B71 PUSH1 0xE0 SHL PUSH1 0x0 MSTORE MSTORE PUSH1 0x24 PUSH1 0x0 REVERT JUMPDEST PUSH1 0x0 DUP11 PUSH4 0x4E487B71 PUSH1 0xE0 SHL DUP3 MSTORE MSTORE PUSH1 0x24 PUSH1 0x0 REVERT JUMPDEST PUSH1 0x11 DUP11 PUSH4 0x4E487B71 PUSH1 0xE0 SHL PUSH1 0x0 MSTORE MSTORE PUSH1 0x24 PUSH1 0x0 REVERT JUMPDEST POP PUSH2 0x3FDB JUMP JUMPDEST SWAP1 SWAP9 POP PUSH1 0x0 MSTORE DUP7 PUSH1 0x0 KECCAK256 SWAP11 PUSH1 0x0 SWAP12 JUMPDEST DUP2 DUP14 LT PUSH2 0x4298 JUMPI POP DUP10 SWAP11 SWAP12 POP DUP9 ADD SWAP8 DUP12 SWAP11 PUSH2 0x3FC0 JUMP JUMPDEST DUP1 SLOAD DUP11 DUP15 ADD MSTORE SWAP12 DUP9 ADD SWAP12 DUP11 ADD PUSH2 0x4282 JUMP JUMPDEST AND DUP4 MSTORE POP SWAP11 SWAP12 DUP13 SWAP12 POP DUP1 ISZERO ISZERO MUL DUP2 ADD SWAP9 POP DUP10 PUSH2 0x3FC0 JUMP JUMPDEST SWAP1 POP DUP9 PUSH1 0x0 MSTORE DUP3 PUSH1 0x0 KECCAK256 DUP11 PUSH1 0x0 SWAP2 JUMPDEST DUP4 DUP4 LT PUSH2 0x42E1 JUMPI POP POP POP DUP2 ADD CODESIZE PUSH2 0x3F37 JUMP JUMPDEST DUP1 SLOAD DUP8 DUP5 ADD MSTORE DUP11 SWAP6 DUP8 SWAP6 POP SWAP1 SWAP3 ADD SWAP2 DUP13 SWAP2 ADD PUSH2 0x42CF JUMP JUMPDEST PUSH1 0xFF NOT AND DUP5 MSTORE POP DUP1 ISZERO ISZERO MUL DUP3 ADD SWAP1 POP CODESIZE PUSH2 0x3F37 JUMP JUMPDEST SWAP1 PUSH2 0x4317 DUP3 PUSH2 0x2455 JUMP JUMPDEST PUSH2 0x4324 PUSH1 0x40 MLOAD SWAP2 DUP3 PUSH2 0x236A JUMP JUMPDEST DUP3 DUP2 MSTORE DUP1 SWAP3 PUSH2 0x4335 PUSH1 0x1F NOT SWAP2 PUSH2 0x2455 JUMP JUMPDEST ADD SWAP1 PUSH1 0x0 JUMPDEST DUP3 DUP2 LT PUSH2 0x4346 JUMPI POP POP POP JUMP JUMPDEST DUP1 PUSH1 0x60 PUSH1 0x20 DUP1 SWAP4 DUP6 ADD ADD MSTORE ADD PUSH2 0x433A JUMP JUMPDEST DUP1 SLOAD DUP3 LT ISZERO PUSH2 0x2981 JUMPI PUSH1 0x0 MSTORE PUSH1 0x5 PUSH1 0x20 PUSH1 0x0 KECCAK256 SWAP2 MUL ADD SWAP1 PUSH1 0x0 SWAP1 JUMP JUMPDEST SWAP2 SWAP1 SWAP2 POP PUSH1 0x40 SWAP1 DUP2 MLOAD DUP4 DUP2 DUP1 SWAP6 MLOAD PUSH2 0x4391 DUP2 PUSH1 0x20 SWAP9 DUP10 DUP1 SWAP7 ADD PUSH2 0x27AB JUMP JUMPDEST PUSH1 0x2 SWAP1 DUP3 ADD SWAP1 DUP2 MSTORE SUB ADD SWAP1 KECCAK256 PUSH1 0x6 ADD DUP1 SLOAD SWAP2 PUSH1 0x0 JUMPDEST DUP4 DUP2 LT PUSH2 0x43E3 JUMPI DUP5 MLOAD PUSH3 0x461BCD PUSH1 0xE5 SHL DUP2 MSTORE PUSH1 0x4 DUP2 ADD DUP8 SWAP1 MSTORE PUSH1 0xF PUSH1 0x24 DUP3 ADD MSTORE PUSH15 0x119A595B19081B9BDD08199BDD5B99 PUSH1 0x8A SHL PUSH1 0x44 DUP3 ADD MSTORE PUSH1 0x64 SWAP1 REVERT JUMPDEST PUSH2 0x5F7 PUSH2 0x43FF PUSH2 0x43F3 DUP4 DUP7 PUSH2 0x4357 JUMP JUMPDEST POP DUP8 MLOAD SWAP3 DUP4 DUP1 SWAP3 PUSH2 0x28A2 JUMP JUMPDEST DUP7 DUP2 MLOAD SWAP2 ADD KECCAK256 DUP3 MLOAD DUP8 DUP5 ADD KECCAK256 EQ PUSH2 0x441E JUMPI PUSH2 0x4419 SWAP1 PUSH2 0x2C80 JUMP JUMPDEST PUSH2 0x43A6 JUMP JUMPDEST SWAP3 POP POP PUSH2 0x23EC SWAP4 POP PUSH2 0x4430 SWAP3 POP PUSH2 0x4357 JUMP JUMPDEST POP PUSH2 0x3BDE JUMP JUMPDEST PUSH1 0x40 SWAP2 DUP3 MLOAD DUP3 DUP2 DUP1 SWAP5 MLOAD PUSH2 0x4450 DUP2 PUSH1 0x20 SWAP8 DUP9 DUP1 SWAP7 ADD PUSH2 0x27AB JUMP JUMPDEST DUP2 ADD PUSH1 0x2 DUP2 MSTORE SUB ADD SWAP1 KECCAK256 SWAP3 PUSH1 0x6 PUSH1 0x0 SWAP5 ADD DUP1 SLOAD SWAP5 JUMPDEST DUP6 DUP2 LT PUSH2 0x4477 JUMPI POP POP POP POP POP POP PUSH1 0x0 SWAP1 JUMP JUMPDEST PUSH2 0x5F7 PUSH2 0x4493 PUSH2 0x4487 DUP4 DUP6 PUSH2 0x4357 JUMP JUMPDEST POP DUP6 MLOAD SWAP3 DUP4 DUP1 SWAP3 PUSH2 0x28A2 JUMP JUMPDEST DUP6 DUP2 MLOAD SWAP2 ADD KECCAK256 DUP5 MLOAD DUP7 DUP7 ADD KECCAK256 EQ PUSH2 0x44B2 JUMPI PUSH2 0x44AD SWAP1 PUSH2 0x2C80 JUMP JUMPDEST PUSH2 0x4465 JUMP JUMPDEST POP POP POP POP POP POP PUSH1 0x1 SWAP1 JUMP JUMPDEST DUP1 MLOAD DUP3 LT ISZERO PUSH2 0x2981 JUMPI PUSH1 0x20 SWAP2 PUSH1 0x5 SHL ADD ADD SWAP1 JUMP INVALID LOG2 PUSH5 0x6970667358 0x22 SLT KECCAK256 AND DUP12 0xC 0xA5 0xEF MSTORE 0xE DUP12 SWAP16 0xC9 PUSH11 0x5E1979CAED9C441E7193B6 0xC6 PUSH14 0xB7C5E6AA87AE802A64736F6C6343 STOP ADDMOD SGT STOP CALLER "},"methodIdentifiers":{"addAdministrator(address)":"c9991176","addDataProvider(address)":"50910ad6","addModerator(address)":"b532e4cb","addSchema(string,uint8,string,string,string,string,(string,uint8,bool,string,string,string)[],string[],string[],string,string)":"e81ee43e","administrators(address)":"76be1585","ccipData(string,bytes32)":"bc7efc5f","dataProviders(address)":"780aac03","defineSchema(string,uint8,string,string,string,string,(string,uint8,bool,string,string,string)[],string[],string[],string,string)":"2db74af3","emergencyPause()":"51858e27","emergencyUnpause()":"4a4e3bd5","getCCIPData(string,bytes32)":"9b1c7ca6","getSchema(string)":"f1a03f1b","getSchemaField(string,string)":"b544c083","getSchemaPriority(string)":"137be5b2","getSchemaValidationRules(string)":"54874b2b","getSchemasByCategory(string)":"48c7dc92","getSchemasByPriority(uint8)":"3d4fcbe6","getStatistics()":"372d6b27","getSubdomainDataHashes(string)":"41c260dd","hasSchema(string)":"b8acb008","hasSchemaField(string,string)":"2cf52fe8","hasSubdomainSchema(string)":"ad7159cb","isAdministrator(address)":"0a2eb301","isDataProvider(address)":"2d1d70de","isModerator(address)":"fa6f3936","moderators(address)":"14d0f1ba","owner()":"8da5cb5b","removeAdministrator(address)":"68fa8134","removeDataProvider(address)":"f9244dd7","removeModerator(address)":"869d785f","removeSchema(string)":"ae2251e8","renounceOwnership()":"715018a6","schemaCategories(string,uint256)":"d3ed5a11","schemaPriority(string)":"b7b05f16","schemasByCategory(string)":"7a327d94","schemasByPriority(uint8)":"44aca904","storeCCIPData(string,string,string[],bytes[])":"ab0602cf","subdomainDataHashes(string,uint256)":"b03c206a","subdomainSchemas(string)":"4f471e8f","totalSchemas()":"b8c7724a","transferOwnership(address)":"f2fde38b","updateSchema(string,uint8,string,string,string,string,(string,uint8,bool,string,string,string)[],string[],string[],string,string)":"f23378ca"}}}}}