{
  "_format": "hh-sol-artifact-1",
  "contractName": "ReservedSubdomains",
  "sourceName": "contracts/ReservedSubdomains.sol",
  "abi": [
    {
      "inputs": [],
      "stateMutability": "nonpayable",
      "type": "constructor"
    },
    {
      "anonymous": false,
      "inputs": [
        {
          "indexed": true,
          "internalType": "string",
          "name": "subdomain",
          "type": "string"
        },
        {
          "indexed": true,
          "internalType": "bytes32",
          "name": "dataHash",
          "type": "bytes32"
        },
        {
          "indexed": true,
          "internalType": "address",
          "name": "dataProvider",
          "type": "address"
        }
      ],
      "name": "CCIPDataStored",
      "type": "event"
    },
    {
      "anonymous": false,
      "inputs": [
        {
          "indexed": true,
          "internalType": "address",
          "name": "previousOwner",
          "type": "address"
        },
        {
          "indexed": true,
          "internalType": "address",
          "name": "newOwner",
          "type": "address"
        }
      ],
      "name": "OwnershipTransferred",
      "type": "event"
    },
    {
      "anonymous": false,
      "inputs": [
        {
          "indexed": true,
          "internalType": "string",
          "name": "subdomain",
          "type": "string"
        },
        {
          "indexed": false,
          "internalType": "string",
          "name": "role",
          "type": "string"
        },
        {
          "indexed": true,
          "internalType": "address",
          "name": "addedBy",
          "type": "address"
        }
      ],
      "name": "RoleAdded",
      "type": "event"
    },
    {
      "anonymous": false,
      "inputs": [
        {
          "indexed": true,
          "internalType": "string",
          "name": "subdomain",
          "type": "string"
        },
        {
          "indexed": false,
          "internalType": "string",
          "name": "role",
          "type": "string"
        },
        {
          "indexed": true,
          "internalType": "address",
          "name": "removedBy",
          "type": "address"
        }
      ],
      "name": "RoleRemoved",
      "type": "event"
    },
    {
      "anonymous": false,
      "inputs": [
        {
          "indexed": true,
          "internalType": "string",
          "name": "subdomain",
          "type": "string"
        },
        {
          "indexed": false,
          "internalType": "enum ReservedSubdomains.SchemaPriority",
          "name": "priority",
          "type": "uint8"
        },
        {
          "indexed": false,
          "internalType": "string",
          "name": "category",
          "type": "string"
        },
        {
          "indexed": false,
          "internalType": "string",
          "name": "version",
          "type": "string"
        },
        {
          "indexed": true,
          "internalType": "address",
          "name": "definedBy",
          "type": "address"
        }
      ],
      "name": "SchemaDefined",
      "type": "event"
    },
    {
      "anonymous": false,
      "inputs": [
        {
          "indexed": true,
          "internalType": "string",
          "name": "subdomain",
          "type": "string"
        },
        {
          "indexed": false,
          "internalType": "string",
          "name": "version",
          "type": "string"
        },
        {
          "indexed": true,
          "internalType": "address",
          "name": "deprecatedBy",
          "type": "address"
        }
      ],
      "name": "SchemaDeprecated",
      "type": "event"
    },
    {
      "anonymous": false,
      "inputs": [
        {
          "indexed": true,
          "internalType": "string",
          "name": "subdomain",
          "type": "string"
        },
        {
          "indexed": false,
          "internalType": "string",
          "name": "oldVersion",
          "type": "string"
        },
        {
          "indexed": false,
          "internalType": "string",
          "name": "newVersion",
          "type": "string"
        },
        {
          "indexed": true,
          "internalType": "address",
          "name": "updatedBy",
          "type": "address"
        }
      ],
      "name": "SchemaUpdated",
      "type": "event"
    },
    {
      "inputs": [
        {
          "internalType": "address",
          "name": "admin",
          "type": "address"
        }
      ],
      "name": "addAdministrator",
      "outputs": [],
      "stateMutability": "nonpayable",
      "type": "function"
    },
    {
      "inputs": [
        {
          "internalType": "address",
          "name": "provider",
          "type": "address"
        }
      ],
      "name": "addDataProvider",
      "outputs": [],
      "stateMutability": "nonpayable",
      "type": "function"
    },
    {
      "inputs": [
        {
          "internalType": "address",
          "name": "moderator",
          "type": "address"
        }
      ],
      "name": "addModerator",
      "outputs": [],
      "stateMutability": "nonpayable",
      "type": "function"
    },
    {
      "inputs": [
        {
          "internalType": "string",
          "name": "subdomain",
          "type": "string"
        },
        {
          "internalType": "enum ReservedSubdomains.SchemaPriority",
          "name": "priority",
          "type": "uint8"
        },
        {
          "internalType": "string",
          "name": "category",
          "type": "string"
        },
        {
          "internalType": "string",
          "name": "description",
          "type": "string"
        },
        {
          "internalType": "string",
          "name": "version",
          "type": "string"
        },
        {
          "internalType": "string",
          "name": "ccipInterface",
          "type": "string"
        },
        {
          "components": [
            {
              "internalType": "string",
              "name": "fieldName",
              "type": "string"
            },
            {
              "internalType": "enum ReservedSubdomains.DataType",
              "name": "dataType",
              "type": "uint8"
            },
            {
              "internalType": "bool",
              "name": "required",
              "type": "bool"
            },
            {
              "internalType": "string",
              "name": "description",
              "type": "string"
            },
            {
              "internalType": "string",
              "name": "validationRule",
              "type": "string"
            },
            {
              "internalType": "string",
              "name": "defaultValue",
              "type": "string"
            }
          ],
          "internalType": "struct ReservedSubdomains.SchemaField[]",
          "name": "fields",
          "type": "tuple[]"
        },
        {
          "internalType": "string[]",
          "name": "allowedRoles",
          "type": "string[]"
        },
        {
          "internalType": "string[]",
          "name": "restrictions",
          "type": "string[]"
        },
        {
          "internalType": "string",
          "name": "apiEndpoint",
          "type": "string"
        },
        {
          "internalType": "string",
          "name": "documentationUrl",
          "type": "string"
        }
      ],
      "name": "addSchema",
      "outputs": [],
      "stateMutability": "nonpayable",
      "type": "function"
    },
    {
      "inputs": [
        {
          "internalType": "address",
          "name": "",
          "type": "address"
        }
      ],
      "name": "administrators",
      "outputs": [
        {
          "internalType": "bool",
          "name": "",
          "type": "bool"
        }
      ],
      "stateMutability": "view",
      "type": "function"
    },
    {
      "inputs": [
        {
          "internalType": "string",
          "name": "",
          "type": "string"
        },
        {
          "internalType": "bytes32",
          "name": "",
          "type": "bytes32"
        }
      ],
      "name": "ccipData",
      "outputs": [
        {
          "internalType": "string",
          "name": "subdomain",
          "type": "string"
        },
        {
          "internalType": "string",
          "name": "schemaVersion",
          "type": "string"
        },
        {
          "internalType": "bytes32",
          "name": "dataHash",
          "type": "bytes32"
        },
        {
          "internalType": "uint256",
          "name": "timestamp",
          "type": "uint256"
        },
        {
          "internalType": "address",
          "name": "dataProvider",
          "type": "address"
        },
        {
          "internalType": "bool",
          "name": "isValid",
          "type": "bool"
        }
      ],
      "stateMutability": "view",
      "type": "function"
    },
    {
      "inputs": [
        {
          "internalType": "address",
          "name": "",
          "type": "address"
        }
      ],
      "name": "dataProviders",
      "outputs": [
        {
          "internalType": "bool",
          "name": "",
          "type": "bool"
        }
      ],
      "stateMutability": "view",
      "type": "function"
    },
    {
      "inputs": [
        {
          "internalType": "string",
          "name": "subdomain",
          "type": "string"
        },
        {
          "internalType": "enum ReservedSubdomains.SchemaPriority",
          "name": "priority",
          "type": "uint8"
        },
        {
          "internalType": "string",
          "name": "category",
          "type": "string"
        },
        {
          "internalType": "string",
          "name": "description",
          "type": "string"
        },
        {
          "internalType": "string",
          "name": "version",
          "type": "string"
        },
        {
          "internalType": "string",
          "name": "ccipInterface",
          "type": "string"
        },
        {
          "components": [
            {
              "internalType": "string",
              "name": "fieldName",
              "type": "string"
            },
            {
              "internalType": "enum ReservedSubdomains.DataType",
              "name": "dataType",
              "type": "uint8"
            },
            {
              "internalType": "bool",
              "name": "required",
              "type": "bool"
            },
            {
              "internalType": "string",
              "name": "description",
              "type": "string"
            },
            {
              "internalType": "string",
              "name": "validationRule",
              "type": "string"
            },
            {
              "internalType": "string",
              "name": "defaultValue",
              "type": "string"
            }
          ],
          "internalType": "struct ReservedSubdomains.SchemaField[]",
          "name": "fields",
          "type": "tuple[]"
        },
        {
          "internalType": "string[]",
          "name": "allowedRoles",
          "type": "string[]"
        },
        {
          "internalType": "string[]",
          "name": "restrictions",
          "type": "string[]"
        },
        {
          "internalType": "string",
          "name": "apiEndpoint",
          "type": "string"
        },
        {
          "internalType": "string",
          "name": "documentationUrl",
          "type": "string"
        }
      ],
      "name": "defineSchema",
      "outputs": [],
      "stateMutability": "nonpayable",
      "type": "function"
    },
    {
      "inputs": [],
      "name": "emergencyPause",
      "outputs": [],
      "stateMutability": "nonpayable",
      "type": "function"
    },
    {
      "inputs": [],
      "name": "emergencyUnpause",
      "outputs": [],
      "stateMutability": "nonpayable",
      "type": "function"
    },
    {
      "inputs": [
        {
          "internalType": "string",
          "name": "subdomain",
          "type": "string"
        },
        {
          "internalType": "bytes32",
          "name": "dataHash",
          "type": "bytes32"
        }
      ],
      "name": "getCCIPData",
      "outputs": [
        {
          "components": [
            {
              "internalType": "string",
              "name": "subdomain",
              "type": "string"
            },
            {
              "internalType": "string",
              "name": "schemaVersion",
              "type": "string"
            },
            {
              "internalType": "bytes32",
              "name": "dataHash",
              "type": "bytes32"
            },
            {
              "internalType": "uint256",
              "name": "timestamp",
              "type": "uint256"
            },
            {
              "internalType": "address",
              "name": "dataProvider",
              "type": "address"
            },
            {
              "internalType": "bool",
              "name": "isValid",
              "type": "bool"
            },
            {
              "internalType": "string[]",
              "name": "fieldNames",
              "type": "string[]"
            },
            {
              "internalType": "bytes[]",
              "name": "fieldValues",
              "type": "bytes[]"
            }
          ],
          "internalType": "struct ReservedSubdomains.CCIPData",
          "name": "",
          "type": "tuple"
        }
      ],
      "stateMutability": "view",
      "type": "function"
    },
    {
      "inputs": [
        {
          "internalType": "string",
          "name": "subdomain",
          "type": "string"
        }
      ],
      "name": "getSchema",
      "outputs": [
        {
          "components": [
            {
              "internalType": "string",
              "name": "subdomain",
              "type": "string"
            },
            {
              "internalType": "enum ReservedSubdomains.SchemaPriority",
              "name": "priority",
              "type": "uint8"
            },
            {
              "internalType": "string",
              "name": "category",
              "type": "string"
            },
            {
              "internalType": "string",
              "name": "description",
              "type": "string"
            },
            {
              "internalType": "string",
              "name": "version",
              "type": "string"
            },
            {
              "internalType": "string",
              "name": "ccipInterface",
              "type": "string"
            },
            {
              "components": [
                {
                  "internalType": "string",
                  "name": "fieldName",
                  "type": "string"
                },
                {
                  "internalType": "enum ReservedSubdomains.DataType",
                  "name": "dataType",
                  "type": "uint8"
                },
                {
                  "internalType": "bool",
                  "name": "required",
                  "type": "bool"
                },
                {
                  "internalType": "string",
                  "name": "description",
                  "type": "string"
                },
                {
                  "internalType": "string",
                  "name": "validationRule",
                  "type": "string"
                },
                {
                  "internalType": "string",
                  "name": "defaultValue",
                  "type": "string"
                }
              ],
              "internalType": "struct ReservedSubdomains.SchemaField[]",
              "name": "fields",
              "type": "tuple[]"
            },
            {
              "internalType": "string[]",
              "name": "allowedRoles",
              "type": "string[]"
            },
            {
              "internalType": "string[]",
              "name": "restrictions",
              "type": "string[]"
            },
            {
              "internalType": "bool",
              "name": "active",
              "type": "bool"
            },
            {
              "internalType": "uint256",
              "name": "createdAt",
              "type": "uint256"
            },
            {
              "internalType": "uint256",
              "name": "updatedAt",
              "type": "uint256"
            },
            {
              "internalType": "string",
              "name": "apiEndpoint",
              "type": "string"
            },
            {
              "internalType": "string",
              "name": "documentationUrl",
              "type": "string"
            }
          ],
          "internalType": "struct ReservedSubdomains.ReservedSubdomainSchema",
          "name": "",
          "type": "tuple"
        }
      ],
      "stateMutability": "view",
      "type": "function"
    },
    {
      "inputs": [
        {
          "internalType": "string",
          "name": "subdomain",
          "type": "string"
        },
        {
          "internalType": "string",
          "name": "fieldName",
          "type": "string"
        }
      ],
      "name": "getSchemaField",
      "outputs": [
        {
          "components": [
            {
              "internalType": "string",
              "name": "fieldName",
              "type": "string"
            },
            {
              "internalType": "enum ReservedSubdomains.DataType",
              "name": "dataType",
              "type": "uint8"
            },
            {
              "internalType": "bool",
              "name": "required",
              "type": "bool"
            },
            {
              "internalType": "string",
              "name": "description",
              "type": "string"
            },
            {
              "internalType": "string",
              "name": "validationRule",
              "type": "string"
            },
            {
              "internalType": "string",
              "name": "defaultValue",
              "type": "string"
            }
          ],
          "internalType": "struct ReservedSubdomains.SchemaField",
          "name": "",
          "type": "tuple"
        }
      ],
      "stateMutability": "view",
      "type": "function"
    },
    {
      "inputs": [
        {
          "internalType": "string",
          "name": "subdomain",
          "type": "string"
        }
      ],
      "name": "getSchemaPriority",
      "outputs": [
        {
          "internalType": "enum ReservedSubdomains.SchemaPriority",
          "name": "",
          "type": "uint8"
        }
      ],
      "stateMutability": "view",
      "type": "function"
    },
    {
      "inputs": [
        {
          "internalType": "string",
          "name": "subdomain",
          "type": "string"
        }
      ],
      "name": "getSchemaValidationRules",
      "outputs": [
        {
          "internalType": "string[]",
          "name": "fieldNames",
          "type": "string[]"
        },
        {
          "internalType": "string[]",
          "name": "validationRules",
          "type": "string[]"
        }
      ],
      "stateMutability": "view",
      "type": "function"
    },
    {
      "inputs": [
        {
          "internalType": "string",
          "name": "category",
          "type": "string"
        }
      ],
      "name": "getSchemasByCategory",
      "outputs": [
        {
          "internalType": "string[]",
          "name": "",
          "type": "string[]"
        }
      ],
      "stateMutability": "view",
      "type": "function"
    },
    {
      "inputs": [
        {
          "internalType": "enum ReservedSubdomains.SchemaPriority",
          "name": "priority",
          "type": "uint8"
        }
      ],
      "name": "getSchemasByPriority",
      "outputs": [
        {
          "internalType": "string[]",
          "name": "",
          "type": "string[]"
        }
      ],
      "stateMutability": "view",
      "type": "function"
    },
    {
      "inputs": [],
      "name": "getStatistics",
      "outputs": [
        {
          "internalType": "uint256",
          "name": "total",
          "type": "uint256"
        },
        {
          "internalType": "uint256",
          "name": "critical",
          "type": "uint256"
        },
        {
          "internalType": "uint256",
          "name": "high",
          "type": "uint256"
        },
        {
          "internalType": "uint256",
          "name": "medium",
          "type": "uint256"
        },
        {
          "internalType": "uint256",
          "name": "low",
          "type": "uint256"
        }
      ],
      "stateMutability": "view",
      "type": "function"
    },
    {
      "inputs": [
        {
          "internalType": "string",
          "name": "subdomain",
          "type": "string"
        }
      ],
      "name": "getSubdomainDataHashes",
      "outputs": [
        {
          "internalType": "bytes32[]",
          "name": "",
          "type": "bytes32[]"
        }
      ],
      "stateMutability": "view",
      "type": "function"
    },
    {
      "inputs": [
        {
          "internalType": "string",
          "name": "",
          "type": "string"
        }
      ],
      "name": "hasSchema",
      "outputs": [
        {
          "internalType": "bool",
          "name": "",
          "type": "bool"
        }
      ],
      "stateMutability": "view",
      "type": "function"
    },
    {
      "inputs": [
        {
          "internalType": "string",
          "name": "subdomain",
          "type": "string"
        },
        {
          "internalType": "string",
          "name": "fieldName",
          "type": "string"
        }
      ],
      "name": "hasSchemaField",
      "outputs": [
        {
          "internalType": "bool",
          "name": "",
          "type": "bool"
        }
      ],
      "stateMutability": "view",
      "type": "function"
    },
    {
      "inputs": [
        {
          "internalType": "string",
          "name": "subdomain",
          "type": "string"
        }
      ],
      "name": "hasSubdomainSchema",
      "outputs": [
        {
          "internalType": "bool",
          "name": "",
          "type": "bool"
        }
      ],
      "stateMutability": "view",
      "type": "function"
    },
    {
      "inputs": [
        {
          "internalType": "address",
          "name": "addr",
          "type": "address"
        }
      ],
      "name": "isAdministrator",
      "outputs": [
        {
          "internalType": "bool",
          "name": "",
          "type": "bool"
        }
      ],
      "stateMutability": "view",
      "type": "function"
    },
    {
      "inputs": [
        {
          "internalType": "address",
          "name": "addr",
          "type": "address"
        }
      ],
      "name": "isDataProvider",
      "outputs": [
        {
          "internalType": "bool",
          "name": "",
          "type": "bool"
        }
      ],
      "stateMutability": "view",
      "type": "function"
    },
    {
      "inputs": [
        {
          "internalType": "address",
          "name": "addr",
          "type": "address"
        }
      ],
      "name": "isModerator",
      "outputs": [
        {
          "internalType": "bool",
          "name": "",
          "type": "bool"
        }
      ],
      "stateMutability": "view",
      "type": "function"
    },
    {
      "inputs": [
        {
          "internalType": "address",
          "name": "",
          "type": "address"
        }
      ],
      "name": "moderators",
      "outputs": [
        {
          "internalType": "bool",
          "name": "",
          "type": "bool"
        }
      ],
      "stateMutability": "view",
      "type": "function"
    },
    {
      "inputs": [],
      "name": "owner",
      "outputs": [
        {
          "internalType": "address",
          "name": "",
          "type": "address"
        }
      ],
      "stateMutability": "view",
      "type": "function"
    },
    {
      "inputs": [
        {
          "internalType": "address",
          "name": "admin",
          "type": "address"
        }
      ],
      "name": "removeAdministrator",
      "outputs": [],
      "stateMutability": "nonpayable",
      "type": "function"
    },
    {
      "inputs": [
        {
          "internalType": "address",
          "name": "provider",
          "type": "address"
        }
      ],
      "name": "removeDataProvider",
      "outputs": [],
      "stateMutability": "nonpayable",
      "type": "function"
    },
    {
      "inputs": [
        {
          "internalType": "address",
          "name": "moderator",
          "type": "address"
        }
      ],
      "name": "removeModerator",
      "outputs": [],
      "stateMutability": "nonpayable",
      "type": "function"
    },
    {
      "inputs": [
        {
          "internalType": "string",
          "name": "subdomain",
          "type": "string"
        }
      ],
      "name": "removeSchema",
      "outputs": [],
      "stateMutability": "nonpayable",
      "type": "function"
    },
    {
      "inputs": [],
      "name": "renounceOwnership",
      "outputs": [],
      "stateMutability": "nonpayable",
      "type": "function"
    },
    {
      "inputs": [
        {
          "internalType": "string",
          "name": "",
          "type": "string"
        },
        {
          "internalType": "uint256",
          "name": "",
          "type": "uint256"
        }
      ],
      "name": "schemaCategories",
      "outputs": [
        {
          "internalType": "string",
          "name": "",
          "type": "string"
        }
      ],
      "stateMutability": "view",
      "type": "function"
    },
    {
      "inputs": [
        {
          "internalType": "string",
          "name": "",
          "type": "string"
        }
      ],
      "name": "schemaPriority",
      "outputs": [
        {
          "internalType": "enum ReservedSubdomains.SchemaPriority",
          "name": "",
          "type": "uint8"
        }
      ],
      "stateMutability": "view",
      "type": "function"
    },
    {
      "inputs": [
        {
          "internalType": "string",
          "name": "",
          "type": "string"
        }
      ],
      "name": "schemasByCategory",
      "outputs": [
        {
          "internalType": "uint256",
          "name": "",
          "type": "uint256"
        }
      ],
      "stateMutability": "view",
      "type": "function"
    },
    {
      "inputs": [
        {
          "internalType": "enum ReservedSubdomains.SchemaPriority",
          "name": "",
          "type": "uint8"
        }
      ],
      "name": "schemasByPriority",
      "outputs": [
        {
          "internalType": "uint256",
          "name": "",
          "type": "uint256"
        }
      ],
      "stateMutability": "view",
      "type": "function"
    },
    {
      "inputs": [
        {
          "internalType": "string",
          "name": "subdomain",
          "type": "string"
        },
        {
          "internalType": "string",
          "name": "schemaVersion",
          "type": "string"
        },
        {
          "internalType": "string[]",
          "name": "fieldNames",
          "type": "string[]"
        },
        {
          "internalType": "bytes[]",
          "name": "fieldValues",
          "type": "bytes[]"
        }
      ],
      "name": "storeCCIPData",
      "outputs": [],
      "stateMutability": "nonpayable",
      "type": "function"
    },
    {
      "inputs": [
        {
          "internalType": "string",
          "name": "",
          "type": "string"
        },
        {
          "internalType": "uint256",
          "name": "",
          "type": "uint256"
        }
      ],
      "name": "subdomainDataHashes",
      "outputs": [
        {
          "internalType": "bytes32",
          "name": "",
          "type": "bytes32"
        }
      ],
      "stateMutability": "view",
      "type": "function"
    },
    {
      "inputs": [
        {
          "internalType": "string",
          "name": "",
          "type": "string"
        }
      ],
      "name": "subdomainSchemas",
      "outputs": [
        {
          "internalType": "string",
          "name": "subdomain",
          "type": "string"
        },
        {
          "internalType": "enum ReservedSubdomains.SchemaPriority",
          "name": "priority",
          "type": "uint8"
        },
        {
          "internalType": "string",
          "name": "category",
          "type": "string"
        },
        {
          "internalType": "string",
          "name": "description",
          "type": "string"
        },
        {
          "internalType": "string",
          "name": "version",
          "type": "string"
        },
        {
          "internalType": "string",
          "name": "ccipInterface",
          "type": "string"
        },
        {
          "internalType": "bool",
          "name": "active",
          "type": "bool"
        },
        {
          "internalType": "uint256",
          "name": "createdAt",
          "type": "uint256"
        },
        {
          "internalType": "uint256",
          "name": "updatedAt",
          "type": "uint256"
        },
        {
          "internalType": "string",
          "name": "apiEndpoint",
          "type": "string"
        },
        {
          "internalType": "string",
          "name": "documentationUrl",
          "type": "string"
        }
      ],
      "stateMutability": "view",
      "type": "function"
    },
    {
      "inputs": [],
      "name": "totalSchemas",
      "outputs": [
        {
          "internalType": "uint256",
          "name": "",
          "type": "uint256"
        }
      ],
      "stateMutability": "view",
      "type": "function"
    },
    {
      "inputs": [
        {
          "internalType": "address",
          "name": "newOwner",
          "type": "address"
        }
      ],
      "name": "transferOwnership",
      "outputs": [],
      "stateMutability": "nonpayable",
      "type": "function"
    },
    {
      "inputs": [
        {
          "internalType": "string",
          "name": "subdomain",
          "type": "string"
        },
        {
          "internalType": "enum ReservedSubdomains.SchemaPriority",
          "name": "priority",
          "type": "uint8"
        },
        {
          "internalType": "string",
          "name": "category",
          "type": "string"
        },
        {
          "internalType": "string",
          "name": "description",
          "type": "string"
        },
        {
          "internalType": "string",
          "name": "newVersion",
          "type": "string"
        },
        {
          "internalType": "string",
          "name": "ccipInterface",
          "type": "string"
        },
        {
          "components": [
            {
              "internalType": "string",
              "name": "fieldName",
              "type": "string"
            },
            {
              "internalType": "enum ReservedSubdomains.DataType",
              "name": "dataType",
              "type": "uint8"
            },
            {
              "internalType": "bool",
              "name": "required",
              "type": "bool"
            },
            {
              "internalType": "string",
              "name": "description",
              "type": "string"
            },
            {
              "internalType": "string",
              "name": "validationRule",
              "type": "string"
            },
            {
              "internalType": "string",
              "name": "defaultValue",
              "type": "string"
            }
          ],
          "internalType": "struct ReservedSubdomains.SchemaField[]",
          "name": "fields",
          "type": "tuple[]"
        },
        {
          "internalType": "string[]",
          "name": "allowedRoles",
          "type": "string[]"
        },
        {
          "internalType": "string[]",
          "name": "restrictions",
          "type": "string[]"
        },
        {
          "internalType": "string",
          "name": "apiEndpoint",
          "type": "string"
        },
        {
          "internalType": "string",
          "name": "documentationUrl",
          "type": "string"
        }
      ],
      "name": "updateSchema",
      "outputs": [],
      "stateMutability": "nonpayable",
      "type": "function"
    }
  ],
  "bytecode": "0x346300006bb65760008054336001600160a01b0319821681178355916001600160a01b03909116907f8be0079c531659141344cd1fd0a4f28419497f9722a3daafe3b4186f6b6457e09080a3600180556101a0604052600860805260005b61010081106300006b755763000000746300006bbb565b63000000806300006bfe565b600d81526c1c1c9bdc1bdcd85b10dbdd5b9d609a1b60208201528152600160208201526001604082015263000000b66300006bfe565b601981527f546f74616c206e756d626572206f662070726f706f73616c73000000000000006020820152606082015263000000f16300006bfe565b600481526303e3d20360e41b6020820152608082015263000001136300006bfe565b60018152600360fc1b602082015260a0820152630000013460806300006c61565b52630000014360806300006c61565b5063000001506300006bbb565b630000015c6300006bfe565b600f81526e61637469766550726f706f73616c7360881b60208201528152600160208201526001604082015263000001946300006bfe565b601a81527f4e756d626572206f66206163746976652070726f706f73616c730000000000006020820152606082015263000001cf6300006bfe565b600481526303e3d20360e41b6020820152608082015263000001f16300006bfe565b60018152600360fc1b602082015260a0820152630000021260806300006c86565b52630000022160806300006c86565b50630000022e6300006bbb565b630000023a6300006bfe565b600c81526b1d9bdd1a5b99d4195c9a5bd960a21b602082015281526001602082015260016040820152630000026f6300006bfe565b601881527f566f74696e6720706572696f6420696e207365636f6e647300000000000000006020820152606082015263000002aa6300006bfe565b600381526203e20360ec1b6020820152608082015263000002cb6300006bfe565b600681526503630343830360d41b602082015260a082015263000002f160806300006c98565b52630000030060806300006c98565b50630000030d6300006bbb565b63000003196300006bfe565b600681526571756f72756d60d01b60208201528152600160208201526001604082015263000003486300006c1f565b602181527f4d696e696d756d20766f74657320726571756972656420666f722071756f72756020820152606d60f81b60408201526060820152630000038d6300006bfe565b600381526203e20360ec1b6020820152608082015263000003ae6300006bfe565b60048152630313030360e41b602082015260a082015263000003d260806300006caa565b5263000003e160806300006caa565b5063000003ee6300006bbb565b63000003fa6300006bfe565b60118152701c1c9bdc1bdcd85b151a1c995cda1bdb19607a1b60208201528152600160208201526001604082015263000004346300006c1f565b602a81527f4d696e696d756d20746f6b656e7320726571756972656420746f20637265617460208201526919481c1c9bdc1bdcd85b60b21b6040820152606082015263000004826300006bfe565b600481526303e3d20360e41b6020820152608082015263000004a46300006bfe565b600381526203130360ec1b602082015260a082015263000004c760806300006cbc565b5263000004d660806300006cbc565b5063000004e36300006bbb565b63000004ef6300006bfe565b600f81526e33b7bb32b93730b731b2aa37b5b2b760891b60208201528152600260208201526001604082015263000005276300006c1f565b602181527f476f7665726e616e636520746f6b656e20636f6e7472616374206164647265736020820152607360f81b60408201526060820152630000056c6300006bfe565b601081526f6e6f6e2d7a65726f206164647265737360801b60208201526080820152630000059a6300006d05565b60a082015263000005ad60806300006cce565b5263000005bc60806300006cce565b5063000005c96300006bbb565b63000005d56300006bfe565b600881526732bc32b1baba37b960c11b60208201528152600260208201526001604082015263000006066300006c1f565b602281527f50726f706f73616c206578656375746f7220636f6e7472616374206164647265602082015261737360f01b60408201526060820152630000064c6300006bfe565b601081526f6e6f6e2d7a65726f206164647265737360801b60208201526080820152630000067a6300006d05565b60a0820152630000068d60806300006ce0565b52630000069c60806300006ce0565b5063000006a96300006bbb565b63000006b56300006bfe565b600881526774696d656c6f636b60c01b60208201528152600260208201526000604082015263000006e66300006bfe565b601981527f54696d656c6f636b20636f6e74726163742061646472657373000000000000006020820152606082015263000007216300006bfe565b601081526f6f7074696f6e616c206164647265737360801b60208201526080820152630000074f6300006d05565b60a0820152630000076260806300006cf2565b52630000077160806300006cf2565b50630000077e6300006d51565b630000078a6300006e6f565b63000007966300006bfe565b600a815269676f7665726e616e636560b01b602082015263000007b96300006bfe565b9160138352600080516020630000b55a833981519152602084015263000007e06300006c1f565b90603082527f476f7665726e616e63652073797374656d20736368656d6120666f722044414f60208301526f206465636973696f6e2d6d616b696e6760801b604083015263000008306300006bfe565b9460058652640312e302e360dc1b6020870152630000084f6300006bfe565b91600b83526a49476f7665726e616e636560a81b602084015263000008746300006bfe565b9160128352712f6170692f76312f676f7665726e616e636560701b602084015263000008a06300006c1f565b9360308552600080516020630000b53a83398151915260208601526f68656d61732f676f7665726e616e636560801b604086015286511563000041065760ff6040516020818163000008fa8c838151938492016300006f07565b600381830152810103019020541663000040c157630000091a6300006bdc565b9587875260006020880152886040880152606087015288608087015260a0860152608060c086015260e0850152610100840152600161012084015242610140840152426101608401526101808301526101a08201526040516020818451630000098881838589016300006f07565b8101600281520301902090805180519060018060401b038211630000336b57819063000009b785546300006f2e565b601f81116300006b3b575b50602090601f83116001146300006ac5576000926300006ab8575b50508160011b916000199060031b1c19161782555b602081015160048110156300003b6e576300000a1390600184016300006f89565b60408101518051906001600160401b038211630000336b5781906300000a3e60028601546300006f2e565b601f81116300006a7b575b50602090601f831160011463000069ff5760009263000069f2575b50508160011b916000199060031b1c19161760028301555b60608101518051906001600160401b038211630000336b5781906300000aa760038601546300006f2e565b601f811163000069b5575b50602090601f8311600114630000693957600092630000692c575b50508160011b916000199060031b1c19161760038301555b60808101518051906001600160401b038211630000336b5781906300000b1060048601546300006f2e565b601f811163000068ef575b50602090601f83116001146300006873576000926300006866575b50508160011b916000199060031b1c19161760048301555b60a08101518051906001600160401b038211630000336b5781906300000b7960058601546300006f2e565b601f81116300006829575b50602090601f831160011463000067ad5760009263000067a0575b50508160011b916000199060031b1c19161760058301555b60c0810151805190680100000000000000008211630000336b576006840154826006860155808310630000670b575b5060200190600684016000526020600020916000905b8282106300006211575050505060e0810151805190680100000000000000008211630000336b57600784015482600786015580831063000061d4575b5060200190600784016000526020600020916000905b828210630000609d5750505050610100810151805190680100000000000000008211630000336b5760088401548260088601558083106300006060575b5060200190600884016000526020600020916000905b8282106300005f2957505050506300000cd06101208201511515600984019060ff801983541691151516179055565b610140810151600a830155610160810151600b8301556101808101518051906001600160401b038211630000336b576300000d10600c8501546300006f2e565b601f81116300005eec575b50602090601f83116001146300005e6e576101a0939291600091836300005e61575b50508160011b916000199060031b1c191617600c8401555b01518051906001600160401b038211630000336b576300000d7b600d8401546300006f2e565b601f81116300005e24575b50602090601f83116001146300005da95792600d836300000ec994600080516020630000b57a83398151915297946300000ef197600092630000327d575b50508160011b916000199060031b1c1916179101555b60405160208183516300000df381838588016300006f07565b81016003815203019020600160ff1982541617905560405160208183516300000e2181838588016300006f07565b8101600481520301902060ff1981541690556300000e42600b546300006ff8565b600b5560008052600c6020527f13649b2456f1b42fef0f0040b3aaeabcd21a76a0f3f5defd4f583839455116e880546300000e7e906300006ff8565b905560405160208187516300000e998183858c016300006f07565b8101600d8152030190206300000eb181546300006ff8565b90556020604051928284809451938492016300006f07565b8101039020926300000f02604051928392600084526060602085015260608401906300007009565b828103604084015233966300007009565b0390a36040516001600160401b0360e0820190811190821117630000336b5760e081016040526006815260005b60c081106300005d6757506300000f466300006bbb565b6300000f526300006bfe565b600c81526b746f74616c42616c616e636560a01b6020820152815260016020820152600160408201526300000f876300006bfe565b601d81527f546f74616c2074726561737572792062616c616e636520696e20776569000000602082015260608201526300000fc26300006bfe565b600481526303e3d20360e41b602082015260808201526300000fe46300006bfe565b60018152600360fc1b602082015260a08201526300001004826300006c61565b526300001012816300006c61565b50630000101f6300006bbb565b630000102b6300006bfe565b600a81526965746842616c616e636560b01b602082015281526001602082015260016040820152630000105e6300006bfe565b60128152714554482062616c616e636520696e2077656960701b60208201526060820152630000108e6300006bfe565b600481526303e3d20360e41b6020820152608082015263000010b06300006bfe565b60018152600360fc1b602082015260a082015263000010d0826300006c86565b5263000010de816300006c86565b5063000010eb6300006bbb565b63000010f76300006bfe565b600d81526c746f6b656e42616c616e63657360981b602082015281526006602082015260016040820152630000112d6300006bfe565b601781527f4172726179206f6620746f6b656e2062616c616e6365730000000000000000006020820152606082015263000011686300006bfe565b601081526f30b93930bc9037b3103ab4b73a191a9b60811b6020820152608082015263000011966300006bfe565b60028152615b5d60f01b602082015260a082015263000011b7826300006c98565b5263000011c5816300006c98565b5063000011d26300006bbb565b63000011de6300006bfe565b600e81526d746f6b656e41646472657373657360901b60208201528152600760208201526001604082015263000012156300006c1f565b602181527f4172726179206f6620746f6b656e20636f6e74726163742061646472657373656020820152607360f81b60408201526060820152630000125a6300006bfe565b60128152716172726179206f662061646472657373657360701b60208201526080820152630000128a6300006bfe565b60028152615b5d60f01b602082015260a082015263000012ab826300006caa565b5263000012b9816300006caa565b5063000012c66300006bbb565b63000012d26300006bfe565b600f81526e3a3932b0b9bab93ca6b0b730b3b2b960891b602082015281526002602082015260016040820152630000130a6300006c1f565b602181527f5472656173757279206d616e6167657220636f6e7472616374206164647265736020820152607360f81b60408201526060820152630000134f6300006bfe565b601081526f6e6f6e2d7a65726f206164647265737360801b60208201526080820152630000137d6300006d05565b60a0820152630000138f826300006cbc565b52630000139d816300006cbc565b5063000013aa6300006bbb565b63000013b66300006bfe565b60088152676d756c746973696760c01b60208201528152600260208201526000604082015263000013e76300006bfe565b601781527f4d756c74697369672077616c6c657420616464726573730000000000000000006020820152606082015263000014226300006bfe565b601081526f6f7074696f6e616c206164647265737360801b6020820152608082015263000014506300006d05565b60a08201526300001462826300006cce565b526300001470816300006cce565b50630000147d6300006d51565b63000014896300006e6f565b9163000014966300006bfe565b906008825267747265617375727960c01b602083015263000014b86300006bfe565b9260138452600080516020630000b55a833981519152602085015263000014df6300006c1f565b91602883527f5472656173757279206d616e6167656d656e7420736368656d6120666f722044602084015267414f2066756e647360c01b604084015263000015276300006bfe565b9560058752640312e302e360dc1b602088015263000015466300006bfe565b92600984526849547265617375727960b81b602085015263000015696300006bfe565b92601084526f2f6170692f76312f747265617375727960801b602085015263000015936300006c1f565b94602e8652600080516020630000b53a83398151915260208701526d68656d61732f747265617375727960901b604087015287511563000041065760ff6040516020818163000015eb8d838151938492016300006f07565b81016003815203019020541663000040c15763000016096300006bdc565b9688885260006020890152896040890152606088015289608088015260a087015260c086015260e0850152610100840152600161012084015242610140840152426101608401526101808301526101a08201526040516020818451630000167581838589016300006f07565b8101600281520301902090805180519060018060401b038211630000336b57819063000016a485546300006f2e565b601f81116300005d2d575b50602090601f83116001146300005cb7576000926300005caa575b50508160011b916000199060031b1c19161782555b602081015160048110156300003b6e57630000170090600184016300006f89565b60408101518051906001600160401b038211630000336b578190630000172b60028601546300006f2e565b601f81116300005c6d575b50602090601f83116001146300005bf1576000926300005be4575b50508160011b916000199060031b1c19161760028301555b60608101518051906001600160401b038211630000336b578190630000179460038601546300006f2e565b601f81116300005ba7575b50602090601f83116001146300005b2b576000926300005b1e575b50508160011b916000199060031b1c19161760038301555b60808101518051906001600160401b038211630000336b57819063000017fd60048601546300006f2e565b601f81116300005ae1575b50602090601f83116001146300005a65576000926300005a58575b50508160011b916000199060031b1c19161760048301555b60a08101518051906001600160401b038211630000336b578190630000186660058601546300006f2e565b601f81116300005a1b575b50602090601f8311600114630000599f576000926300005992575b50508160011b916000199060031b1c19161760058301555b60c0810151805190680100000000000000008211630000336b57600684015482600686015580831063000058fd575b5060200190600684016000526020600020916000905b8282106300005403575050505060e0810151805190680100000000000000008211630000336b57600784015482600786015580831063000053c6575b5060200190600784016000526020600020916000905b828210630000528f5750505050610100810151805190680100000000000000008211630000336b5760088401548260088601558083106300005252575b5060200190600884016000526020600020916000905b828210630000511b575050505063000019bd6101208201511515600984019060ff801983541691151516179055565b610140810151600a830155610160810151600b8301556101808101518051906001600160401b038211630000336b5763000019fd600c8501546300006f2e565b601f811163000050de575b50602090601f83116001146300005060576101a0939291600091836300005053575b50508160011b916000199060031b1c191617600c8401555b01518051906001600160401b038211630000336b576300001a68600d8401546300006f2e565b601f81116300005016575b50602090601f83116001146300004f9b5792600d836300001ade94600080516020630000b57a83398151915297946300000ef197600092630000327d5750508160011b916000199060031b1c19161791015560405160208183516300000df381838588016300006f07565b8101039020926300001b06604051928392600084526060602085015260608401906300007009565b0390a36040516001600160401b03610100820190811190821117630000336b5761010081016040526007815260005b60e081106300004f5957506300001b4c6300006bbb565b6300001b586300006bfe565b60048152636e616d6560e01b6020820152815260006020820152600160408201526300001b856300006bfe565b600a815269546f6b656e206e616d6560b01b602082015260608201526300001bad6300006bfe565b90601082526f6e6f6e2d656d70747920737472696e6760801b9182602082015260808201526300001bde6300006c40565b6000815260a08201526300001bf4836300006c61565b526300001c02826300006c61565b506300001c0f6300006bbb565b906300001c1c6300006bfe565b60068152651cde5b589bdb60d21b6020820152825260006020830152600160408301526300001c4b6300006bfe565b600c81526b151bdad95b881cde5b589bdb60a21b602082015260608301526300001c756300006bfe565b9060108252602082015260808201526300001c906300006c40565b6000815260a08201526300001ca6826300006c86565b526300001cb4816300006c86565b506300001cc16300006bbb565b6300001ccd6300006bfe565b6008815267646563696d616c7360c01b6020820152815260016020820152600160408201526300001cfe6300006bfe565b600e81526d546f6b656e20646563696d616c7360901b602082015260608201526300001d2a6300006bfe565b600d81526c07c7a4060404c4c40787a40627609b1b602082015260808201526300001d556300006bfe565b6002815261062760f31b602082015260a08201526300001d76826300006c98565b526300001d84816300006c98565b506300001d916300006bbb565b6300001d9d6300006bfe565b600b81526a746f74616c537570706c7960a81b6020820152815260016020820152600160408201526300001dd16300006bfe565b6012815271546f74616c20746f6b656e20737570706c7960701b602082015260608201526300001e016300006bfe565b600481526303e3d20360e41b602082015260808201526300001e236300006bfe565b60018152600360fc1b602082015260a08201526300001e43826300006caa565b526300001e51816300006caa565b506300001e5e6300006bbb565b6300001e6a6300006bfe565b600f81526e636f6e74726163744164647265737360881b6020820152815260026020820152600160408201526300001ea26300006bfe565b601681527f546f6b656e20636f6e7472616374206164647265737300000000000000000000602082015260608201526300001edd6300006bfe565b601081526f6e6f6e2d7a65726f206164647265737360801b602082015260808201526300001f0b6300006d05565b60a08201526300001f1d826300006cbc565b526300001f2b816300006cbc565b506300001f386300006bbb565b6300001f446300006bfe565b601181527034b9a3b7bb32b93730b731b2aa37b5b2b760791b6020820152815260036020820152600160408201526300001f7e6300006c1f565b602481527f5768657468657220746869732069732074686520676f7665726e616e6365207460208201526337b5b2b760e11b604082015260608201526300001fc66300006bfe565b60078152663137b7b632b0b760c91b602082015260808201526300001feb6300006bfe565b600581526466616c736560d81b602082015260a0820152630000200f826300006cce565b52630000201d816300006cce565b50630000202a6300006bbb565b63000020366300006bfe565b6007815266686f6c6465727360c81b60208201528152600160208201526001604082015263000020666300006bfe565b601781527f4e756d626572206f6620746f6b656e20686f6c646572730000000000000000006020820152606082015263000020a16300006bfe565b600481526303e3d20360e41b6020820152608082015263000020c36300006bfe565b60018152600360fc1b602082015260a082015263000020e3826300006ce0565b5263000020f1816300006ce0565b5063000020fe6300006d51565b630000210a6300006e6f565b9163000021176300006bfe565b9060058252643a37b5b2b760d91b602083015263000021366300006bfe565b9260138452600080516020630000b55a8339815191526020850152630000215d6300006c1f565b91602683527f546f6b656e206d616e6167656d656e7420736368656d6120666f722044414f20602084015265746f6b656e7360d01b604084015263000021a36300006bfe565b9560058752640312e302e360dc1b602088015263000021c26300006bfe565b92600684526524aa37b5b2b760d11b602085015263000021e26300006bfe565b92600d84526c17b0b83497bb1897ba37b5b2b760991b602085015263000022096300006c1f565b94602b8652600080516020630000b53a83398151915260208701526a3432b6b0b997ba37b5b2b760a91b604087015287511563000041065760ff60405160208181630000225e8d838151938492016300006f07565b81016003815203019020541663000040c157630000227c6300006bdc565b9688885260006020890152896040890152606088015289608088015260a087015260c086015260e0850152610100840152600161012084015242610140840152426101608401526101808301526101a0820152604051602081845163000022e881838589016300006f07565b8101600281520301902090805180519060018060401b038211630000336b578190630000231785546300006f2e565b601f81116300004f1f575b50602090601f83116001146300004ea9576000926300004e9c575b50508160011b916000199060031b1c19161782555b602081015160048110156300003b6e57630000237390600184016300006f89565b60408101518051906001600160401b038211630000336b578190630000239e60028601546300006f2e565b601f81116300004e5f575b50602090601f83116001146300004de3576000926300004dd6575b50508160011b916000199060031b1c19161760028301555b60608101518051906001600160401b038211630000336b578190630000240760038601546300006f2e565b601f81116300004d99575b50602090601f83116001146300004d1d576000926300004d10575b50508160011b916000199060031b1c19161760038301555b60808101518051906001600160401b038211630000336b578190630000247060048601546300006f2e565b601f81116300004cd3575b50602090601f83116001146300004c57576000926300004c4a575b50508160011b916000199060031b1c19161760048301555b60a08101518051906001600160401b038211630000336b57819063000024d960058601546300006f2e565b601f81116300004c0d575b50602090601f83116001146300004b91576000926300004b84575b50508160011b916000199060031b1c19161760058301555b60c0810151805190680100000000000000008211630000336b5760068401548260068601558083106300004aef575b5060200190600684016000526020600020916000905b82821063000045f5575050505060e0810151805190680100000000000000008211630000336b57600784015482600786015580831063000045b8575b5060200190600784016000526020600020916000905b82821063000044815750505050610100810151805190680100000000000000008211630000336b5760088401548260088601558083106300004444575b5060200190600884016000526020600020916000905b828210630000430d575050505063000026306101208201511515600984019060ff801983541691151516179055565b610140810151600a830155610160810151600b8301556101808101518051906001600160401b038211630000336b576300002670600c8501546300006f2e565b601f811163000042d0575b50602090601f83116001146300004252576101a0939291600091836300004245575b50508160011b916000199060031b1c191617600c8401555b01518051906001600160401b038211630000336b5763000026db600d8401546300006f2e565b601f81116300004208575b50602090601f8311600114630000418d5792600d83630000275194600080516020630000b57a83398151915297946300000ef197600092630000327d5750508160011b916000199060031b1c19161791015560405160208183516300000df381838588016300006f07565b8101039020926300002779604051928392600084526060602085015260608401906300007009565b0390a363000027886300006bbb565b6005815260005b60a08110630000414b575063000027a66300006bbb565b63000027b26300006bfe565b600781526618985cd9555c9b60ca1b60208201528152600060208201526001604082015263000027e26300006bfe565b600c81526b10985cd9481054124815549360a21b60208201526060820152630000280c6300006bfe565b601081526f1d985b1a590815549308199bdc9b585d60821b60208201526080820152630000283a6300006c40565b6000815260a08201526300002850826300006c61565b52630000285e816300006c61565b50630000286b6300006bbb565b63000028776300006bfe565b60078152663b32b939b4b7b760c91b60208201528152600060208201526001604082015263000028a76300006bfe565b600b81526a20a824903b32b939b4b7b760a91b6020820152606082015263000028d06300006bfe565b601081526f39b2b6b0b73a34b1903b32b939b4b7b760811b6020820152608082015263000028fe6300006bfe565b6002815261763160f01b602082015260a0820152630000291f826300006c86565b52630000292d816300006c86565b50630000293a6300006bbb565b63000029466300006bfe565b6009815268656e64706f696e747360b81b60208201528152600560208201526001604082015263000029786300006bfe565b601781527f417661696c61626c652041504920656e64706f696e74730000000000000000006020820152606082015263000029b36300006bfe565b601081526f6172726179206f6620737472696e677360801b6020820152608082015263000029e16300006bfe565b60028152615b5d60f01b602082015260a08201526300002a02826300006c98565b526300002a10816300006c98565b506300002a1d6300006bbb565b6300002a296300006bfe565b60098152681c985d19531a5b5a5d60ba1b6020820152815260016020820152600160408201526300002a5b6300006bfe565b601581527f52617465206c696d697420706572206d696e7574650000000000000000000000602082015260608201526300002a966300006bfe565b600381526203e20360ec1b602082015260808201526300002ab76300006bfe565b60048152630313030360e41b602082015260a08201526300002ada826300006caa565b526300002ae8816300006caa565b506300002af56300006bbb565b6300002b016300006bfe565b600e81526d30baba3432b73a34b1b0ba34b7b760911b6020820152815260006020820152600060408201526300002b386300006bfe565b601581527f41757468656e7469636174696f6e206d6574686f640000000000000000000000602082015260608201526300002b736300006bfe565b600f81526e6f7074696f6e616c20737472696e6760881b602082015260808201526300002ba06300006bfe565b60048152636e6f6e6560e01b602082015260a08201526300002bc3826300006cbc565b526300002bd1816300006cbc565b506300002bde6300006d51565b6300002bea6300006e6f565b916300002bf76300006bfe565b90600382526261706960e81b60208301526300002c146300006bfe565b9260138452600080516020630000b55a83398151915260208501526300002c3b6300006c1f565b91602583527f41504920656e64706f696e747320736368656d6120666f722044414f20736572602084015264766963657360d81b60408401526300002c806300006bfe565b9560058752640312e302e360dc1b60208801526300002c9f6300006bfe565b9260048452634941504960e01b60208501526300002cbd6300006bfe565b92600b84526a2f6170692f76312f61706960a81b60208501526300002ce26300006c1f565b9460298652600080516020630000b53a83398151915260208701526868656d61732f61706960b81b604087015287511563000041065760ff604051602081816300002d358d838151938492016300006f07565b81016003815203019020541663000040c1576300002d536300006bdc565b9688885260006020890152896040890152606088015289608088015260a087015260c086015260e0850152610100840152600161012084015242610140840152426101608401526101808301526101a082015260405160208184516300002dbf81838589016300006f07565b8101600281520301902090805180519060018060401b038211630000336b5781906300002dee85546300006f2e565b601f81116300004087575b50602090601f83116001146300004011576000926300004004575b50508160011b916000199060031b1c19161782555b602081015160048110156300003b6e576300002e4a90600184016300006f89565b60408101518051906001600160401b038211630000336b5781906300002e7560028601546300006f2e565b601f81116300003fc7575b50602090601f83116001146300003f4b576000926300003f3e575b50508160011b916000199060031b1c19161760028301555b60608101518051906001600160401b038211630000336b5781906300002ede60038601546300006f2e565b601f81116300003f01575b50602090601f83116001146300003e85576000926300003e78575b50508160011b916000199060031b1c19161760038301555b60808101518051906001600160401b038211630000336b5781906300002f4760048601546300006f2e565b601f81116300003e3b575b50602090601f83116001146300003dbf576000926300003db2575b50508160011b916000199060031b1c19161760048301555b60a08101518051906001600160401b038211630000336b5781906300002fb060058601546300006f2e565b601f81116300003d75575b50602090601f83116001146300003cf9576000926300003cec575b50508160011b916000199060031b1c19161760058301555b60c0810151805190680100000000000000008211630000336b5760068401548260068601558083106300003c41575b5060200190600684016000526020600020916000905b8282106300003731575050505060e0810151805190680100000000000000008211630000336b57600784015482600786015580831063000036f4575b5060200190600784016000526020600020916000905b82821063000035bd5750505050610100810151805190680100000000000000008211630000336b5760088401548260088601558083106300003580575b5060200190600884016000526020600020916000905b8282106300003449575050505063000031076101208201511515600984019060ff801983541691151516179055565b610140810151600a830155610160810151600b8301556101808101518051906001600160401b038211630000336b576300003147600c8501546300006f2e565b601f8111630000340c575b50602090601f8311600114630000338e576101a0939291600091836300003381575b50508160011b916000199060031b1c191617600c8401555b01518051906001600160401b038211630000336b5763000031b2600d8401546300006f2e565b601f81116300003321575b50602090601f8311600114630000328a5792600d83630000322894600080516020630000b57a83398151915297946300000ef197600092630000327d5750508160011b916000199060031b1c19161791015560405160208183516300000df381838588016300006f07565b8101039020926300003250604051928392600084526060602085015260608401906300007009565b0390a33360005260086020526040600020600160ff19825416179055604051614507908163000070338239f35b015190508a806300000dc4565b90600d840160005260206000209160005b601f198516811063000033075750600184600080516020630000b57a83398151915297946300000ef19794600d94630000322898601f1981161063000032ec575b505050811b019101556300000dda565b015160001960f88460031b161c191690558a808063000032dc565b91926020600181928685015181550194019201630000329b565b630000335790600d85016000526020600020601f850160051c81019160208610630000335f575b601f0160051c01906300006f6e565b8663000031bd565b90915081906300003348565b634e487b7160e01b600052604160045260246000fd5b0151905088806300003174565b90600c850160005260206000209160005b601f198516811063000033f257509183916001936101a09695601f1981161063000033d7575b505050811b01600c840155630000318c565b015160001960f88460031b161c1916905588808063000033c5565b91926020600181928685015181550194019201630000339f565b630000344190600c86016000526020600020601f850160051c81019160208610630000335f57601f0160051c01906300006f6e565b876300003152565b80518051906001600160401b038211630000336b57630000346c86546300006f2e565b601f81116300003546575b50602090601f831160011463000034cc57928260019493602093869560009263000034bf575b5050600019600383901b1c191690841b1787555b0194019101909263000030d8565b015190508e80630000349d565b908660005260206000209160005b601f1985168110630000352c575083602093600196938796938794601f198116106300003511575b505050811b01875563000034b1565b015160001960f88460031b161c191690558e80806300003502565b9192602060018192868501518155019401920163000034da565b630000357890876000526020600020601f850160051c81019160208610630000335f57601f0160051c01906300006f6e565b8b6300003477565b600885016000526020600020908382015b818301811063000035a557505063000030c2565b8063000035b56001926300006fa3565b016300003591565b80518051906001600160401b038211630000336b5763000035e086546300006f2e565b601f811163000036ba575b50602090601f831160011463000036405792826001949360209386956000926300003633575b5050600019600383901b1c191690841b1787555b019401910190926300003085565b015190508e806300003611565b908660005260206000209160005b601f198516811063000036a0575083602093600196938796938794601f198116106300003685575b505050811b0187556300003625565b015160001960f88460031b161c191690558e80806300003676565b91926020600181928685015181550194019201630000364e565b63000036ec90876000526020600020601f850160051c81019160208610630000335f57601f0160051c01906300006f6e565b8b63000035eb565b600785016000526020600020908382015b81830181106300003719575050630000306f565b8063000037296001926300006fa3565b016300003705565b805180518051906001600160401b038211630000336b578190630000375888546300006f2e565b601f81116300003c07575b50602090601f83116001146300003b91576000926300003b84575b50508160011b916000199060031b1c19161785555b6020810151600a8110156300003b6e576001860190815460ff61ff006040860151151560081b1692169061ffff191617179055606081015180519060018060401b038211630000336b57819063000037f060028901546300006f2e565b601f81116300003b31575b50602090601f83116001146300003ab5576000926300003aa8575b50508160011b916000199060031b1c19161760028601555b60808101518051906001600160401b038211630000336b57630000385760038801546300006f2e565b601f81116300003a6b575b50602090601f831160011463000039ee5760a09392916000918363000039e1575b50508160011b916000199060031b1c19161760038701555b01518051906001600160401b038211630000336b5763000038c160048701546300006f2e565b601f811163000039a4575b50602090601f831160011463000039245792826005936020936001966000926300003917575b5050600019600383901b1c191690851b1760048801555b019401910190926300003033565b015190508e8063000038f2565b906004870160005260206000209160005b601f1985168110630000398a575083602093600196938793600597601f19811610630000396f575b505050811b0160048801556300003909565b015160001960f88460031b161c191690558e8080630000395d565b919260206001819286850151815501940192016300003935565b63000039d990600488016000526020600020601f850160051c81019160208610630000335f57601f0160051c01906300006f6e565b8b63000038cc565b015190508d806300003883565b906003880160005260206000209160005b601f19851681106300003a51575091839160019360a09695601f198116106300003a36575b505050811b016003870155630000389b565b015160001960f88460031b161c191690558d80806300003a24565b9192602060018192868501518155019401920163000039ff565b6300003aa090600389016000526020600020601f850160051c81019160208610630000335f57601f0160051c01906300006f6e565b8c6300003862565b015190508c806300003816565b9250600288016000526020600020906000935b601f19841685106300003b14576001945083601f198116106300003af9575b505050811b016002860155630000382e565b015160001960f88460031b161c191690558c80806300003ae7565b818101518355602094850194600190930192909101906300003ac8565b6300003b669060028a016000526020600020601f850160051c81019160208610630000335f57601f0160051c01906300006f6e565b8d63000037fb565b634e487b7160e01b600052602160045260246000fd5b015190508c80630000377e565b9250876000526020600020906000935b601f19841685106300003bea576001945083601f198116106300003bcf575b505050811b0185556300003793565b015160001960f88460031b161c191690558c80806300003bc0565b818101518355602094850194600190930192909101906300003ba1565b6300003c3990896000526020600020601f850160051c81019160208610630000335f57601f0160051c01906300006f6e565b8d6300003763565b60058181020481036300003cd65760058381020483036300003cd6576006850160005260206000208360050281015b82600502820181106300003c87575050630000301d565b806300003c976005926300006fa3565b600060018201556300003cae600282016300006fa3565b6300003cbe600382016300006fa3565b6300003cce600482016300006fa3565b016300003c70565b634e487b7160e01b600052601160045260246000fd5b0151905087806300002fd6565b9250600585016000526020600020906000935b601f19841685106300003d58576001945083601f198116106300003d3d575b505050811b0160058301556300002fee565b015160001960f88460031b161c191690558780806300003d2b565b818101518355602094850194600190930192909101906300003d0c565b6300003daa90600587016000526020600020601f850160051c81019160208610630000335f57601f0160051c01906300006f6e565b886300002fbb565b0151905087806300002f6d565b9250600485016000526020600020906000935b601f19841685106300003e1e576001945083601f198116106300003e03575b505050811b0160048301556300002f85565b015160001960f88460031b161c191690558780806300003df1565b818101518355602094850194600190930192909101906300003dd2565b6300003e7090600487016000526020600020601f850160051c81019160208610630000335f57601f0160051c01906300006f6e565b886300002f52565b0151905087806300002f04565b9250600385016000526020600020906000935b601f19841685106300003ee4576001945083601f198116106300003ec9575b505050811b0160038301556300002f1c565b015160001960f88460031b161c191690558780806300003eb7565b818101518355602094850194600190930192909101906300003e98565b6300003f3690600387016000526020600020601f850160051c81019160208610630000335f57601f0160051c01906300006f6e565b886300002ee9565b0151905087806300002e9b565b9250600285016000526020600020906000935b601f19841685106300003faa576001945083601f198116106300003f8f575b505050811b0160028301556300002eb3565b015160001960f88460031b161c191690558780806300003f7d565b818101518355602094850194600190930192909101906300003f5e565b6300003ffc90600287016000526020600020601f850160051c81019160208610630000335f57601f0160051c01906300006f6e565b886300002e80565b0151905087806300002e14565b9250846000526020600020906000935b601f1984168510630000406a576001945083601f19811610630000404f575b505050811b0182556300002e29565b015160001960f88460031b161c191690558780806300004040565b818101518355602094850194600190930192909101906300004021565b63000040b990866000526020600020601f850160051c81019160208610630000335f57601f0160051c01906300006f6e565b886300002df9565b60405162461bcd60e51b815260206004820152601660248201527f536368656d6120616c726561647920646566696e6564000000000000000000006044820152606490fd5b60405162461bcd60e51b815260206004820152601960248201527f537562646f6d61696e2063616e6e6f7420626520656d707479000000000000006044820152606490fd5b602090630000415a6300006bbb565b606081526000838201526000604082015260608082015260606080820152606060a082015282828501015201630000278f565b90600d840160005260206000209160005b601f198516811063000041ee5750600184600080516020630000b57a83398151915297946300000ef19794600d94630000275198601f1981161063000032ec57505050811b019101556300000dda565b91926020600181928685015181550194019201630000419e565b630000423d90600d85016000526020600020601f850160051c81019160208610630000335f57601f0160051c01906300006f6e565b8663000026e6565b015190508880630000269d565b90600c850160005260206000209160005b601f198516811063000042b657509183916001936101a09695601f19811610630000429b575b505050811b01600c84015563000026b5565b015160001960f88460031b161c191690558880806300004289565b919260206001819286850151815501940192016300004263565b630000430590600c86016000526020600020601f850160051c81019160208610630000335f57601f0160051c01906300006f6e565b87630000267b565b80518051906001600160401b038211630000336b57630000433086546300006f2e565b601f8111630000440a575b50602090601f831160011463000043905792826001949360209386956000926300004383575b5050600019600383901b1c191690841b1787555b019401910190926300002601565b015190508e806300004361565b908660005260206000209160005b601f198516811063000043f0575083602093600196938796938794601f1981161063000043d5575b505050811b0187556300004375565b015160001960f88460031b161c191690558e808063000043c6565b91926020600181928685015181550194019201630000439e565b630000443c90876000526020600020601f850160051c81019160208610630000335f57601f0160051c01906300006f6e565b8b630000433b565b600885016000526020600020908382015b8183018110630000446957505063000025eb565b8063000044796001926300006fa3565b016300004455565b80518051906001600160401b038211630000336b5763000044a486546300006f2e565b601f8111630000457e575b50602090601f8311600114630000450457928260019493602093869560009263000044f7575b5050600019600383901b1c191690841b1787555b0194019101909263000025ae565b015190508e8063000044d5565b908660005260206000209160005b601f19851681106300004564575083602093600196938796938794601f198116106300004549575b505050811b01875563000044e9565b015160001960f88460031b161c191690558e8080630000453a565b919260206001819286850151815501940192016300004512565b63000045b090876000526020600020601f850160051c81019160208610630000335f57601f0160051c01906300006f6e565b8b63000044af565b600785016000526020600020908382015b818301811063000045dd5750506300002598565b8063000045ed6001926300006fa3565b0163000045c9565b805180518051906001600160401b038211630000336b578190630000461c88546300006f2e565b601f81116300004ab5575b50602090601f83116001146300004a3f576000926300004a32575b50508160011b916000199060031b1c19161785555b6020810151600a8110156300003b6e576001860190815460ff61ff006040860151151560081b1692169061ffff191617179055606081015180519060018060401b038211630000336b57819063000046b460028901546300006f2e565b601f811163000049f5575b50602090601f8311600114630000497957600092630000496c575b50508160011b916000199060031b1c19161760028601555b60808101518051906001600160401b038211630000336b57630000471b60038801546300006f2e565b601f8111630000492f575b50602090601f831160011463000048b25760a09392916000918363000048a5575b50508160011b916000199060031b1c19161760038701555b01518051906001600160401b038211630000336b57630000478560048701546300006f2e565b601f81116300004868575b50602090601f831160011463000047e857928260059360209360019660009263000047db575b5050600019600383901b1c191690851b1760048801555b01940191019092630000255c565b015190508e8063000047b6565b906004870160005260206000209160005b601f1985168110630000484e575083602093600196938793600597601f198116106300004833575b505050811b01600488015563000047cd565b015160001960f88460031b161c191690558e80806300004821565b9192602060018192868501518155019401920163000047f9565b630000489d90600488016000526020600020601f850160051c81019160208610630000335f57601f0160051c01906300006f6e565b8b6300004790565b015190508d806300004747565b906003880160005260206000209160005b601f19851681106300004915575091839160019360a09695601f1981161063000048fa575b505050811b016003870155630000475f565b015160001960f88460031b161c191690558d808063000048e8565b9192602060018192868501518155019401920163000048c3565b630000496490600389016000526020600020601f850160051c81019160208610630000335f57601f0160051c01906300006f6e565b8c6300004726565b015190508c8063000046da565b9250600288016000526020600020906000935b601f198416851063000049d8576001945083601f1981161063000049bd575b505050811b01600286015563000046f2565b015160001960f88460031b161c191690558c808063000049ab565b81810151835560209485019460019093019290910190630000498c565b6300004a2a9060028a016000526020600020601f850160051c81019160208610630000335f57601f0160051c01906300006f6e565b8d63000046bf565b015190508c806300004642565b9250876000526020600020906000935b601f19841685106300004a98576001945083601f198116106300004a7d575b505050811b0185556300004657565b015160001960f88460031b161c191690558c80806300004a6e565b818101518355602094850194600190930192909101906300004a4f565b6300004ae790896000526020600020601f850160051c81019160208610630000335f57601f0160051c01906300006f6e565b8d6300004627565b60058181020481036300003cd65760058381020483036300003cd6576006850160005260206000208360050281015b82600502820181106300004b355750506300002546565b806300004b456005926300006fa3565b600060018201556300004b5c600282016300006fa3565b6300004b6c600382016300006fa3565b6300004b7c600482016300006fa3565b016300004b1e565b01519050878063000024ff565b9250600585016000526020600020906000935b601f19841685106300004bf0576001945083601f198116106300004bd5575b505050811b0160058301556300002517565b015160001960f88460031b161c191690558780806300004bc3565b818101518355602094850194600190930192909101906300004ba4565b6300004c4290600587016000526020600020601f850160051c81019160208610630000335f57601f0160051c01906300006f6e565b8863000024e4565b0151905087806300002496565b9250600485016000526020600020906000935b601f19841685106300004cb6576001945083601f198116106300004c9b575b505050811b01600483015563000024ae565b015160001960f88460031b161c191690558780806300004c89565b818101518355602094850194600190930192909101906300004c6a565b6300004d0890600487016000526020600020601f850160051c81019160208610630000335f57601f0160051c01906300006f6e565b88630000247b565b015190508780630000242d565b9250600385016000526020600020906000935b601f19841685106300004d7c576001945083601f198116106300004d61575b505050811b0160038301556300002445565b015160001960f88460031b161c191690558780806300004d4f565b818101518355602094850194600190930192909101906300004d30565b6300004dce90600387016000526020600020601f850160051c81019160208610630000335f57601f0160051c01906300006f6e565b886300002412565b01519050878063000023c4565b9250600285016000526020600020906000935b601f19841685106300004e42576001945083601f198116106300004e27575b505050811b01600283015563000023dc565b015160001960f88460031b161c191690558780806300004e15565b818101518355602094850194600190930192909101906300004df6565b6300004e9490600287016000526020600020601f850160051c81019160208610630000335f57601f0160051c01906300006f6e565b8863000023a9565b015190508780630000233d565b9250846000526020600020906000935b601f19841685106300004f02576001945083601f198116106300004ee7575b505050811b0182556300002352565b015160001960f88460031b161c191690558780806300004ed8565b818101518355602094850194600190930192909101906300004eb9565b6300004f5190866000526020600020601f850160051c81019160208610630000335f57601f0160051c01906300006f6e565b886300002322565b6020906300004f686300006bbb565b606081526000838201526000604082015260608082015260606080820152606060a0820152828285010152016300001b35565b90600d840160005260206000209160005b601f19851681106300004ffc5750600184600080516020630000b57a83398151915297946300000ef19794600d946300001ade98601f1981161063000032ec57505050811b019101556300000dda565b919260206001819286850151815501940192016300004fac565b630000504b90600d85016000526020600020601f850160051c81019160208610630000335f57601f0160051c01906300006f6e565b866300001a73565b0151905088806300001a2a565b90600c850160005260206000209160005b601f198516811063000050c457509183916001936101a09695601f1981161063000050a9575b505050811b01600c8401556300001a42565b015160001960f88460031b161c191690558880806300005097565b919260206001819286850151815501940192016300005071565b630000511390600c86016000526020600020601f850160051c81019160208610630000335f57601f0160051c01906300006f6e565b876300001a08565b80518051906001600160401b038211630000336b57630000513e86546300006f2e565b601f81116300005218575b50602090601f8311600114630000519e5792826001949360209386956000926300005191575b5050600019600383901b1c191690841b1787555b01940191019092630000198e565b015190508e80630000516f565b908660005260206000209160005b601f198516811063000051fe575083602093600196938796938794601f1981161063000051e3575b505050811b0187556300005183565b015160001960f88460031b161c191690558e808063000051d4565b9192602060018192868501518155019401920163000051ac565b630000524a90876000526020600020601f850160051c81019160208610630000335f57601f0160051c01906300006f6e565b8b6300005149565b600885016000526020600020908382015b818301811063000052775750506300001978565b8063000052876001926300006fa3565b016300005263565b80518051906001600160401b038211630000336b5763000052b286546300006f2e565b601f8111630000538c575b50602090601f831160011463000053125792826001949360209386956000926300005305575b5050600019600383901b1c191690841b1787555b01940191019092630000193b565b015190508e8063000052e3565b908660005260206000209160005b601f19851681106300005372575083602093600196938796938794601f198116106300005357575b505050811b01875563000052f7565b015160001960f88460031b161c191690558e80806300005348565b919260206001819286850151815501940192016300005320565b63000053be90876000526020600020601f850160051c81019160208610630000335f57601f0160051c01906300006f6e565b8b63000052bd565b600785016000526020600020908382015b818301811063000053eb5750506300001925565b8063000053fb6001926300006fa3565b0163000053d7565b805180518051906001600160401b038211630000336b578190630000542a88546300006f2e565b601f811163000058c3575b50602090601f8311600114630000584d576000926300005840575b50508160011b916000199060031b1c19161785555b6020810151600a8110156300003b6e576001860190815460ff61ff006040860151151560081b1692169061ffff191617179055606081015180519060018060401b038211630000336b57819063000054c260028901546300006f2e565b601f81116300005803575b50602090601f8311600114630000578757600092630000577a575b50508160011b916000199060031b1c19161760028601555b60808101518051906001600160401b038211630000336b57630000552960038801546300006f2e565b601f8111630000573d575b50602090601f831160011463000056c05760a09392916000918363000056b3575b50508160011b916000199060031b1c19161760038701555b01518051906001600160401b038211630000336b57630000559360048701546300006f2e565b601f81116300005676575b50602090601f831160011463000055f657928260059360209360019660009263000055e9575b5050600019600383901b1c191690851b1760048801555b0194019101909263000018e9565b015190508e8063000055c4565b906004870160005260206000209160005b601f1985168110630000565c575083602093600196938793600597601f198116106300005641575b505050811b01600488015563000055db565b015160001960f88460031b161c191690558e8080630000562f565b919260206001819286850151815501940192016300005607565b63000056ab90600488016000526020600020601f850160051c81019160208610630000335f57601f0160051c01906300006f6e565b8b630000559e565b015190508d806300005555565b906003880160005260206000209160005b601f19851681106300005723575091839160019360a09695601f198116106300005708575b505050811b016003870155630000556d565b015160001960f88460031b161c191690558d808063000056f6565b9192602060018192868501518155019401920163000056d1565b630000577290600389016000526020600020601f850160051c81019160208610630000335f57601f0160051c01906300006f6e565b8c6300005534565b015190508c8063000054e8565b9250600288016000526020600020906000935b601f198416851063000057e6576001945083601f1981161063000057cb575b505050811b0160028601556300005500565b015160001960f88460031b161c191690558c808063000057b9565b81810151835560209485019460019093019290910190630000579a565b63000058389060028a016000526020600020601f850160051c81019160208610630000335f57601f0160051c01906300006f6e565b8d63000054cd565b015190508c806300005450565b9250876000526020600020906000935b601f198416851063000058a6576001945083601f19811610630000588b575b505050811b0185556300005465565b015160001960f88460031b161c191690558c8080630000587c565b81810151835560209485019460019093019290910190630000585d565b63000058f590896000526020600020601f850160051c81019160208610630000335f57601f0160051c01906300006f6e565b8d6300005435565b60058181020481036300003cd65760058381020483036300003cd6576006850160005260206000208360050281015b8260050282018110630000594357505063000018d3565b8063000059536005926300006fa3565b60006001820155630000596a600282016300006fa3565b630000597a600382016300006fa3565b630000598a600482016300006fa3565b01630000592c565b015190508780630000188c565b9250600585016000526020600020906000935b601f198416851063000059fe576001945083601f1981161063000059e3575b505050811b01600583015563000018a4565b015160001960f88460031b161c1916905587808063000059d1565b8181015183556020948501946001909301929091019063000059b2565b6300005a5090600587016000526020600020601f850160051c81019160208610630000335f57601f0160051c01906300006f6e565b886300001871565b0151905087806300001823565b9250600485016000526020600020906000935b601f19841685106300005ac4576001945083601f198116106300005aa9575b505050811b016004830155630000183b565b015160001960f88460031b161c191690558780806300005a97565b818101518355602094850194600190930192909101906300005a78565b6300005b1690600487016000526020600020601f850160051c81019160208610630000335f57601f0160051c01906300006f6e565b886300001808565b01519050878063000017ba565b9250600385016000526020600020906000935b601f19841685106300005b8a576001945083601f198116106300005b6f575b505050811b01600383015563000017d2565b015160001960f88460031b161c191690558780806300005b5d565b818101518355602094850194600190930192909101906300005b3e565b6300005bdc90600387016000526020600020601f850160051c81019160208610630000335f57601f0160051c01906300006f6e565b88630000179f565b0151905087806300001751565b9250600285016000526020600020906000935b601f19841685106300005c50576001945083601f198116106300005c35575b505050811b0160028301556300001769565b015160001960f88460031b161c191690558780806300005c23565b818101518355602094850194600190930192909101906300005c04565b6300005ca290600287016000526020600020601f850160051c81019160208610630000335f57601f0160051c01906300006f6e565b886300001736565b01519050878063000016ca565b9250846000526020600020906000935b601f19841685106300005d10576001945083601f198116106300005cf5575b505050811b01825563000016df565b015160001960f88460031b161c191690558780806300005ce6565b818101518355602094850194600190930192909101906300005cc7565b6300005d5f90866000526020600020601f850160051c81019160208610630000335f57601f0160051c01906300006f6e565b8863000016af565b6020906300005d766300006bbb565b606081526000838201526000604082015260608082015260606080820152606060a0820152828285010152016300000f2f565b90600d840160005260206000209160005b601f19851681106300005e0a5750600184600080516020630000b57a83398151915297946300000ef19794600d946300000ec998601f1981161063000032ec57505050811b019101556300000dda565b919260206001819286850151815501940192016300005dba565b6300005e5990600d85016000526020600020601f850160051c81019160208610630000335f57601f0160051c01906300006f6e565b866300000d86565b0151905088806300000d3d565b90600c850160005260206000209160005b601f19851681106300005ed257509183916001936101a09695601f198116106300005eb7575b505050811b01600c8401556300000d55565b015160001960f88460031b161c191690558880806300005ea5565b919260206001819286850151815501940192016300005e7f565b6300005f2190600c86016000526020600020601f850160051c81019160208610630000335f57601f0160051c01906300006f6e565b876300000d1b565b80518051906001600160401b038211630000336b576300005f4c86546300006f2e565b601f81116300006026575b50602090601f83116001146300005fac5792826001949360209386956000926300005f9f575b5050600019600383901b1c191690841b1787555b019401910190926300000ca1565b015190508e806300005f7d565b908660005260206000209160005b601f1985168110630000600c575083602093600196938796938794601f198116106300005ff1575b505050811b0187556300005f91565b015160001960f88460031b161c191690558e80806300005fe2565b919260206001819286850151815501940192016300005fba565b630000605890876000526020600020601f850160051c81019160208610630000335f57601f0160051c01906300006f6e565b8b6300005f57565b600885016000526020600020908382015b818301811063000060855750506300000c8b565b8063000060956001926300006fa3565b016300006071565b80518051906001600160401b038211630000336b5763000060c086546300006f2e565b601f8111630000619a575b50602090601f831160011463000061205792826001949360209386956000926300006113575b5050600019600383901b1c191690841b1787555b019401910190926300000c4e565b015190508e8063000060f1565b908660005260206000209160005b601f19851681106300006180575083602093600196938796938794601f198116106300006165575b505050811b0187556300006105565b015160001960f88460031b161c191690558e80806300006156565b91926020600181928685015181550194019201630000612e565b63000061cc90876000526020600020601f850160051c81019160208610630000335f57601f0160051c01906300006f6e565b8b63000060cb565b600785016000526020600020908382015b818301811063000061f95750506300000c38565b8063000062096001926300006fa3565b0163000061e5565b805180518051906001600160401b038211630000336b578190630000623888546300006f2e565b601f811163000066d1575b50602090601f8311600114630000665b57600092630000664e575b50508160011b916000199060031b1c19161785555b6020810151600a8110156300003b6e576001860190815460ff61ff006040860151151560081b1692169061ffff191617179055606081015180519060018060401b038211630000336b57819063000062d060028901546300006f2e565b601f81116300006611575b50602090601f83116001146300006595576000926300006588575b50508160011b916000199060031b1c19161760028601555b60808101518051906001600160401b038211630000336b57630000633760038801546300006f2e565b601f8111630000654b575b50602090601f831160011463000064ce5760a09392916000918363000064c1575b50508160011b916000199060031b1c19161760038701555b01518051906001600160401b038211630000336b5763000063a160048701546300006f2e565b601f81116300006484575b50602090601f8311600114630000640457928260059360209360019660009263000063f7575b5050600019600383901b1c191690851b1760048801555b019401910190926300000bfc565b015190508e8063000063d2565b906004870160005260206000209160005b601f1985168110630000646a575083602093600196938793600597601f19811610630000644f575b505050811b01600488015563000063e9565b015160001960f88460031b161c191690558e8080630000643d565b919260206001819286850151815501940192016300006415565b63000064b990600488016000526020600020601f850160051c81019160208610630000335f57601f0160051c01906300006f6e565b8b63000063ac565b015190508d806300006363565b906003880160005260206000209160005b601f19851681106300006531575091839160019360a09695601f198116106300006516575b505050811b016003870155630000637b565b015160001960f88460031b161c191690558d80806300006504565b9192602060018192868501518155019401920163000064df565b630000658090600389016000526020600020601f850160051c81019160208610630000335f57601f0160051c01906300006f6e565b8c6300006342565b015190508c8063000062f6565b9250600288016000526020600020906000935b601f198416851063000065f4576001945083601f1981161063000065d9575b505050811b016002860155630000630e565b015160001960f88460031b161c191690558c808063000065c7565b8181015183556020948501946001909301929091019063000065a8565b63000066469060028a016000526020600020601f850160051c81019160208610630000335f57601f0160051c01906300006f6e565b8d63000062db565b015190508c80630000625e565b9250876000526020600020906000935b601f198416851063000066b4576001945083601f198116106300006699575b505050811b0185556300006273565b015160001960f88460031b161c191690558c8080630000668a565b81810151835560209485019460019093019290910190630000666b565b630000670390896000526020600020601f850160051c81019160208610630000335f57601f0160051c01906300006f6e565b8d6300006243565b60058181020481036300003cd65760058381020483036300003cd6576006850160005260206000208360050281015b826005028201811063000067515750506300000be6565b8063000067616005926300006fa3565b600060018201556300006778600282016300006fa3565b6300006788600382016300006fa3565b6300006798600482016300006fa3565b01630000673a565b0151905087806300000b9f565b9250600585016000526020600020906000935b601f1984168510630000680c576001945083601f1981161063000067f1575b505050811b0160058301556300000bb7565b015160001960f88460031b161c1916905587808063000067df565b8181015183556020948501946001909301929091019063000067c0565b630000685e90600587016000526020600020601f850160051c81019160208610630000335f57601f0160051c01906300006f6e565b886300000b84565b0151905087806300000b36565b9250600485016000526020600020906000935b601f198416851063000068d2576001945083601f1981161063000068b7575b505050811b0160048301556300000b4e565b015160001960f88460031b161c1916905587808063000068a5565b818101518355602094850194600190930192909101906300006886565b630000692490600487016000526020600020601f850160051c81019160208610630000335f57601f0160051c01906300006f6e565b886300000b1b565b0151905087806300000acd565b9250600385016000526020600020906000935b601f19841685106300006998576001945083601f19811610630000697d575b505050811b0160038301556300000ae5565b015160001960f88460031b161c19169055878080630000696b565b81810151835560209485019460019093019290910190630000694c565b63000069ea90600387016000526020600020601f850160051c81019160208610630000335f57601f0160051c01906300006f6e565b886300000ab2565b0151905087806300000a64565b9250600285016000526020600020906000935b601f19841685106300006a5e576001945083601f198116106300006a43575b505050811b0160028301556300000a7c565b015160001960f88460031b161c191690558780806300006a31565b818101518355602094850194600190930192909101906300006a12565b6300006ab090600287016000526020600020601f850160051c81019160208610630000335f57601f0160051c01906300006f6e565b886300000a49565b01519050878063000009dd565b9250846000526020600020906000935b601f19841685106300006b1e576001945083601f198116106300006b03575b505050811b01825563000009f2565b015160001960f88460031b161c191690558780806300006af4565b818101518355602094850194600190930192909101906300006ad5565b6300006b6d90866000526020600020601f850160051c81019160208610630000335f57601f0160051c01906300006f6e565b8863000009c2565b6020906300006b846300006bbb565b6060808252839060008284015260006040840152808084015280608084015260a083015282608001015201630000005d565b600080fd5b6040519060c082016001600160401b03811183821017630000336b57604052565b604051906101c082016001600160401b03811183821017630000336b57604052565b60408051919082016001600160401b03811183821017630000336b57604052565b60405190606082016001600160401b03811183821017630000336b57604052565b60405190602082016001600160401b03811183821017630000336b57604052565b8051156300006c705760200190565b634e487b7160e01b600052603260045260246000fd5b8051600110156300006c705760400190565b8051600210156300006c705760600190565b8051600310156300006c705760800190565b8051600410156300006c705760a00190565b8051600510156300006c705760c00190565b8051600610156300006c705760e00190565b8051600710156300006c70576101000190565b6300006d116300006c1f565b90602a8252690303030303030303030360b41b6040837f307830303030303030303030303030303030303030303030303030303030303060208201520152565b60405190608082016001600160401b03811183821017630000336b576040526003825260005b6060808210156300006d955790602091828286010152016300006d77565b5050906300006da46300006bfe565b600a81526944414f206f776e65727360b01b60208201526300006dc8826300006c61565b526300006dd6816300006c61565b506300006de36300006bfe565b601581527f53797374656d2061646d696e6973747261746f7273000000000000000000000060208201526300006e1a826300006c86565b526300006e28816300006c86565b506300006e356300006bfe565b600e81526d446174612070726f76696465727360901b60208201526300006e5d826300006c98565b526300006e6b816300006c98565b5090565b6300006e7b6300006bfe565b6001815260005b602090818110156300006ea15760606020928285010152016300006e82565b50506300006eaf6300006c1f565b602a81527f5374616e64617264697a656420736368656d6120666f72204343495020636f6d6020820152697061746962696c69747960b01b60408201526300006ef9826300006c61565b526300006e6b816300006c61565b60005b8381106300006f1c5750506000910152565b81810151838201526020016300006f0a565b90600182811c921680156300006f62575b60208310146300006f4c57565b634e487b7160e01b600052602260045260246000fd5b91607f16916300006f3f565b8181106300006f7b575050565b600081556001016300006f6e565b9060048110156300003b6e5760ff80198354169116179055565b6300006fb181546300006f2e565b90816300006fbd575050565b81601f600093116001146300006fd1575055565b9080839182526300006ff4601f60208420940160051c8401600185016300006f6e565b5555565b60001981146300003cd65760010190565b906020916300007026815180928185528580860191016300006f07565b601f01601f191601019056fe608080604052600436101561001357600080fd5b60003560e01c9081630a2eb301146122bd57508063137be5b214610baa57806314d0f1ba1461227a5780632cf52fe81461223e5780632d1d70de146121ac5780632db74af31461213e578063372d6b27146120725780633d4fcbe61461204057806341c260dd14611f7c57806344aca90414611f4b57806348c7dc9214611eed5780634a4e3bd514611c945780634f471e8f14611d1257806350910ad614611cad57806351858e2714611c9457806354874b2b14611b6057806368fa813414611ad4578063715018a614611a7b57806376be158514611a38578063780aac03146119f55780637a327d94146119ac578063869d785f1461194a5780638da5cb5b146119215780639b1c7ca6146116d6578063ab0602cf14610e0f578063ad7159cb14610b49578063ae2251e814610d1c578063b03c206a14610cdc578063b532e4cb14610c77578063b544c08314610bfd578063b7b05f1614610baa578063b8acb00814610b49578063b8c7724a14610b2b578063bc7efc5f14610a72578063c999117614610a29578063d3ed5a11146109a0578063e81ee43e146108e9578063f1a03f1b146104f6578063f23378ca146103a6578063f2fde38b146102db578063f9244dd71461026a5763fa6f3936146101ed57600080fd5b34610265576020366003190112610265576004356001600160a01b038181169182900361026557816020926000526009835260ff60406000205416918215610251575b8215610243575b50506040519015158152f35b600054161490503880610237565b6008845260406000205460ff169250610230565b600080fd5b34610265576020366003190112610265576004356001600160a01b0381811691829003610265576102b59033600052600860205260ff604060002054169081156102cd575b50612a64565b6000908152600a60205260409020805460ff19169055005b6000541633149050836102af565b34610265576020366003190112610265576004356001600160a01b03818116918290036102655761030a612a0c565b811561035257600054826bffffffffffffffffffffffff60a01b821617600055167f8be0079c531659141344cd1fd0a4f28419497f9722a3daafe3b4186f6b6457e0600080a3005b60405162461bcd60e51b815260206004820152602660248201527f4f776e61626c653a206e6577206f776e657220697320746865207a65726f206160448201526564647265737360d01b6064820152608490fd5b34610265576103b4366124ec565b95809a98999795919594929433600052600860205260ff6040600020541680156104e2575b6103e290612a64565b6040518a51908060208d01926103f98183866127ab565b8101600381520360200190205460ff1661041290613b9d565b8251151561041f90613d2a565b8151151561042c90613cde565b8451151561043990613d76565b6040518080928d51809261044c926127ab565b8101600281520360200190206004019a60405161046a81809e6128a2565b03610475908d61236a565b61047e8b613eb9565b610488998b612cc5565b61049190612ca5565b90604051809160408252604082016104a8916127ce565b93818503602083015233946104bc916127ce565b037f13b0fe0315832ca9294aebfaec7c66b0a8fa8abf1458e42623de230a1c00d30091a3005b506000546001600160a01b031633146103d9565b34610265576020366003190112610265576004356001600160401b03811161026557602061052b6105cf9236906004016123d1565b60606101a060405161053c8161234e565b82815260008582015282604082015282808201528260808201528260a08201528260c08201528260e082015282610100820152600061012082015260006101408201526000610160820152826101808201520152604051906105be60ff8251938581818601966105ad81838a6127ab565b810160038152030190205416613b9d565b6040519384928392519283916127ab565b81016002815203019020604051906105e68261234e565b6040516105fe816105f781856128a2565b038261236a565b825261061460ff60018301541660208401612b32565b604051610628816105f781600286016128a2565b6040830152604051610641816105f781600386016128a2565b606083015260405161065a816105f781600486016128a2565b6080830152604051610673816105f781600586016128a2565b60a083015260068101805461068781612455565b91610695604051938461236a565b818352602083019060005260206000206000915b8383106108cb5786600d610730888860c08501526106c960078201613c79565b60e08501526106da60088201613c79565b61010085015260ff6009820154161515610120850152600a810154610140850152600b81015461016085015260405161071a816105f781600c86016128a2565b6101808501526105f760405180948193016128a2565b6101a08201526040518091602082526107cd6107b76107a161078b61076385516101c060208901526101e08801906127ce565b610775602087015160408901906123ef565b6040860151878203601f190160608901526127ce565b6060850151868203601f190160808801526127ce565b6080840151858203601f190160a08701526127ce565b60a0830151848203601f190160c08601526127ce565b60c082015190601f198482030160e0850152815180825260208201916020808360051b8301019401926000915b838310610898578780610894896101a061087f61084361082b8d60e0860151601f19898303016101008a01526127f3565b610100850151878203601f19016101208901526127f3565b6101208401511515610140870152610140840151610160870152610160840151610180870152610180840151601f1987830301848801526127ce565b910151838203601f19016101c08501526127ce565b0390f35b919395965091936020806108b8600193601f198682030187528951612997565b97019301930190928796959492936107fa565b600560206001926108db85613bde565b8152019201920191906106a9565b346102655761098a6108fa366124ec565b9998909897919796929695939533600052600860205260ff60406000205416801561098c575b61092990612a64565b61095560ff60405160208185516109438183858a016127ab565b81016003815203019020541615612aa1565b61096181511515612ae6565b61096d84511515613cde565b61097985511515613d2a565b61098587511515613d76565b612cc5565b005b506000546001600160a01b03163314610920565b346102655760206109c86109b336612938565b929081604051938285809451938492016127ab565b81016005815203019020908154811015610265576109e591612969565b610a13576105f76109ff61089492604051928380926128a2565b6040519182916020835260208301906127ce565b634e487b7160e01b600052600060045260246000fd5b34610265576020366003190112610265576004356001600160a01b0381169081900361026557610a57612a0c565b6000908152600860205260409020805460ff19166001179055005b34610265576020610a856109b336612938565b8101600681520301902090600052602052610af5604060002060405190610ab782610ab081846128a2565b038361236a565b60ff604051610acd816105f781600187016128a2565b600283015492610b03600460038301549201549260405197889760c0895260c08901906127ce565b9087820360208901526127ce565b936040860152606085015260018060a01b038116608085015260a01c16151560a08301520390f35b34610265576000366003190112610265576020600b54604051908152f35b34610265576020366003190112610265576004356001600160401b0381116102655760ff610b946020610b81819436906004016123d1565b81604051938285809451938492016127ab565b8101600381520301902054166040519015158152f35b34610265576020366003190112610265576004356001600160401b0381116102655760ff610be26020610b81819436906004016123d1565b810160048152030190205416610bfb60405180926123ef565bf35b3461026557610894610c63610c1136612412565b90604051610c1e81612333565b60608152600060208201526000604082015260608082015260606080820152606060a0820152610c5e60ff60405160208186516105ad8183858b016127ab565b614373565b604051918291602083526020830190612997565b34610265576020366003190112610265576004356001600160a01b038181169182900361026557610cc19033600052600860205260ff604060002054169081156102cd5750612a64565b6000908152600960205260409020805460ff19166001179055005b34610265576020610cef6109b336612938565b81016007815203019020805482101561026557602091610d0e91612969565b90546040519160031b1c8152f35b3461026557602080600319360112610265576004356001600160401b03811161026557610d4d9036906004016123d1565b336000526008825260ff604060002054168015610dfb575b610d6e90612a64565b7f6b8bc325ab87de6fd5db76a0ea6091f95b945ac6a07d14c92810ec1093d1fc94610df6610de26004610dd186604051610db760ff8951928481818d01956105ad8183896127ab565b610dc088613eb9565b604051809381928a519283916127ab565b810160028152030190200193612ca5565b9260405191829186835233968301906128a2565b0390a3005b506000546001600160a01b03163314610d65565b34610265576080366003190112610265576004356001600160401b03811161026557610e3f9036906004016123d1565b6024356001600160401b03811161026557610e5e9036906004016123d1565b6044356001600160401b03811161026557610e7d90369060040161246c565b906001600160401b0360643511610265573660236064350112156102655760643560040135610eab81612455565b90610eb9604051928361236a565b8082526020820180913660248260051b60643501011161026557602460643501915b60248260051b6064350101831061168a5750505033600052600a60205260ff604060002054168015611676575b8015611662575b801561164e575b610f1f90612a64565b610f4e60ff60405160208181610f3b8b838151938492016127ab565b6003818301528101030190205416613b9d565b83518251036116095760405190602080830152610f8082610f7260408201886127f3565b03601f19810184528361236a565b604051908160408101916020808301528551809352606082019260608160051b84010191936000905b8282106115dc57505050610fc6925003601f19810183528261236a565b61103960408051809360208201956020610fe68c898151938492016127ab565b8301895190610ffc828c602080850191016127ab565b0161101082518093602080850191016127ab565b0161102482518093602080850191016127ab565b0142602082015203602081018452018261236a565b519020926040519261104a84612317565b8584526020840152836040840152426060840152336080840152600160a084015260c083015260e0820152604051602081855161108a8183858a016127ab565b810160068152030190208260005260205260406000209080518051906001600160401b03821161129a5781906110ca826110c48754612868565b87612b55565b602090601f831160011461157057600092611565575b50508160011b916000199060031b1c19161782555b60208101518051906001600160401b03821161129a5781906111278261111e6001880154612868565b60018801612b55565b602090601f83116001146114f3576000926114e8575b50508160011b916000199060031b1c19161760018301555b60408101516002830155606081015160038301556004820160018060a01b0360808301511681549060ff60a01b60a0850151151560a01b16916affffffffffffffffffffff60a81b16171790556005820160c082015160208151916111ba8385612c37565b01916000526020600020916000905b82821061140b575050505060e00151805190600160401b821161129a576006830154826006850155808310611393575b5060206006910192016000526020600020916000905b8282106112b0578585604051602081845161122d81838589016127ab565b810160078152030190208054600160401b81101561129a5761125491600182018155612969565b81549060031b9083821b91600019901b19161790556112733392612ca5565b7fd43380d9043f9dc8fa2b83a8c42ddc2397ccb419725982a86e035c9b67153910600080a4005b634e487b7160e01b600052604160045260246000fd5b80518051906001600160401b03821161129a576112d7826112d18854612868565b88612b55565b602090601f8311600114611323579282600194936020938695600092611318575b5050600019600383901b1c191690841b1787555b0194019101909261120f565b015190508b806112f8565b908660005260206000209160005b601f198516811061137b575083602093600196938796938794601f19811610611362575b505050811b01875561130c565b015160001960f88460031b161c191690558b8080611355565b91926020600181928685015181550194019201611331565b600684016000526020600020908382015b81830181106113b45750506111f9565b806113c160019254612868565b806113ce575b50016113a4565b601f811183146113e45750600081555b896113c7565b600090828252611402601f60208420920160051c8201858301612b3e565b818355556113de565b80518051906001600160401b03821161129a5761142c826112d18854612868565b602090601f831160011461147857928260019493602093869560009261146d575b5050600019600383901b1c191690841b1787555b019401910190926111c9565b015190508d8061144d565b908660005260206000209160005b601f19851681106114d0575083602093600196938796938794601f198116106114b7575b505050811b018755611461565b015160001960f88460031b161c191690558d80806114aa565b91926020600181928685015181550194019201611486565b01519050868061113d565b9250600185016000526020600020906000935b601f198416851061154a576001945083601f19811610611531575b505050811b016001830155611155565b015160001960f88460031b161c19169055868080611521565b81810151835560209485019460019093019290910190611506565b0151905086806110e0565b9250846000526020600020906000935b601f19841685106115c1576001945083601f198116106115a8575b505050811b0182556110f5565b015160001960f88460031b161c1916905586808061159b565b81810151835560209485019460019093019290910190611580565b919350916020806115f9600193605f198a820301865288516127ce565b9601920192018593919492610fa9565b60405162461bcd60e51b815260206004820152601f60248201527f4669656c64206e616d657320616e642076616c756573206d69736d61746368006044820152606490fd5b506000546001600160a01b03163314610f16565b50600860205260ff60406000205416610f0f565b50600960205260ff60406000205416610f08565b8235906001600160401b0382116102655736604383606435010112156102655760249160209182916116c990369060643501808701359060440161238b565b8152019301929050610edb565b346102655760206117396116e936612938565b9290606060e06040516116fb81612317565b82815282858201526000604082015260008382015260006080820152600060a08201528260c0820152015281604051938285809451938492016127ab565b8101600681520301902090600052602052604060002060066040519161175e83612317565b60405161176f816105f781856128a2565b8352604051611785816105f781600186016128a2565b6020840152600281015460408401526003810154606084015260048101546001600160a01b038116608085015260a090811c60ff161515908401526117cc60058201613c79565b60c08401520180546117dd81612455565b916117eb604051938461236a565b818352602083019060005260206000206000915b8383106118fc57858560e082015260405180916020825261182e815161010060208501526101208401906127ce565b60e061189461184f602085015193601f1994858883030160408901526127ce565b604085015160608701526060850151608087015260018060a01b0360808601511660a087015260a0850151151560c087015260c08501518487830301848801526127f3565b920151918184820301610100850152825190818152602081016020808460051b8401019501936000925b8484106118cb5787870388f35b919395819395975060206118ea82600194868495030188528a516127ce565b980194019401918796959394916118be565b600160208192604051611913816105f781896128a2565b8152019201920191906117ff565b34610265576000366003190112610265576000546040516001600160a01b039091168152602090f35b34610265576020366003190112610265576004356001600160a01b0381811691829003610265576119949033600052600860205260ff604060002054169081156102cd5750612a64565b6000908152600960205260409020805460ff19169055005b34610265576020366003190112610265576004356001600160401b038111610265576119e26020610b81819336906004016123d1565b8101600d81520301902054604051908152f35b34610265576020366003190112610265576004356001600160a01b0381169081900361026557600052600a602052602060ff604060002054166040519015158152f35b34610265576020366003190112610265576004356001600160a01b03811690819003610265576000526008602052602060ff604060002054166040519015158152f35b3461026557600036600319011261026557611a94612a0c565b600080546001600160a01b0319811682556001600160a01b03167f8be0079c531659141344cd1fd0a4f28419497f9722a3daafe3b4186f6b6457e08280a3005b34610265576020366003190112610265576004356001600160a01b038181169182900361026557611b03612a0c565b600054168114611b25576000908152600860205260409020805460ff19169055005b60405162461bcd60e51b815260206004820152601360248201527221b0b73737ba103932b6b7bb329037bbb732b960691b6044820152606490fd5b34610265576020366003190112610265576004356001600160401b03811161026557611b909036906004016123d1565b6006611bc86020604051938051906105be60ff84830193611bb2818a876127ab565b880197858160039a8b8152030190205416613b9d565b8101600281520301902001805490611bdf8261430d565b91611be98161430d565b9160005b828110611c1e57611c1085610894866040519384936040855260408501906127f3565b9083820360208501526127f3565b806105f7611c3f611c32611c8f9486614357565b50604051928380926128a2565b611c4982886144bd565b52611c5481876144bd565b5086611c74611c638386614357565b506105f760405180948193016128a2565b611c7e82876144bd565b52611c8981866144bd565b50612c80565b611bed565b346102655760003660031901126102655761098a612a0c565b34610265576020366003190112610265576004356001600160a01b038181169182900361026557611cf79033600052600860205260ff604060002054169081156102cd5750612a64565b6000908152600a60205260409020805460ff19166001179055005b34610265576020366003190112610265576004356001600160401b03811161026557611d429036906004016123d1565b6040518181809351602081930191611d59926127ab565b81016002815203602001902060405180611d7381846128a2565b03611d7e908261236a565b600182015460ff169160405180806002840190611d9a916128a2565b03611da5908261236a565b60405180611db681600386016128a2565b03611dc1908261236a565b6040519081611dd381600487016128a2565b03611dde908361236a565b6040519182611df081600588016128a2565b03611dfb908461236a565b600985015460ff1692600a86015491600b87015493604051968780600c8b0190611e24916128a2565b03611e2f908961236a565b60405180600d819b0190611e42916128a2565b03611e4d908a61236a565b6040519a8b9a610160808d528c01611e64916127ce565b9060208c01611e72916123ef565b8a810360408c0152611e83916127ce565b89810360608b0152611e94916127ce565b88810360808a0152611ea5916127ce565b87810360a0890152611eb6916127ce565b92151560c087015260e0860152610100850152838103610120850152611edb916127ce565b828103610140840152610894916127ce565b34610265576020366003190112610265576004356001600160401b03811161026557611f37611f286020610b816108949436906004016123d1565b81016005815203019020613c79565b6040519182916020835260208301906127f3565b3461026557602036600319011261026557600435600481101561026557611f7360209161284f565b54604051908152f35b3461026557602080600319360112610265576004356001600160401b0381116102655781610b81611fb19236906004016123d1565b8101600781520301902060405190818382549182815201908192600052846000209060005b8682821061202c578686611fec8288038361236a565b604051928392818401908285525180915260408401929160005b82811061201557505050500390f35b835185528695509381019392810192600101612006565b835485529093019260019283019201611fd6565b3461026557602036600319011261026557600435600481101561026557611f3761206c6108949261284f565b5461430d565b3461026557600036600319011261026557600b54600c60209081527f13649b2456f1b42fef0f0040b3aaeabcd21a76a0f3f5defd4f583839455116e8547fd421a5181c571bba3f01190c922c3b2a896fc1d84e86c9f17ac10e67ebef8b5c547f5d6016397a73f5e079297ac5a36fef17b4d9c3831618e63ab105738020ddd7205460036000527fc0da782485e77ae272268ae0a3ff44c1552ecb60b3743924de17a815e0a3cfd7546040805196875294860193909352928401526060830191909152608082015260a090f35b346102655761098a61214f366124ec565b9998909897919796929695939533600052600860205260ff604060002054168015612198575b61217e90612a64565b61098560ff60405160208185516109438183858a016127ab565b506000546001600160a01b03163314612175565b34610265576020366003190112610265576004356001600160a01b03818116918290036102655781602092600052600a835260ff6040600020541691821561222a575b8215612216575b82156122085750506040519015158152f35b600054161490508280610237565b6008845260406000205460ff1692506121f6565b6009845260406000205460ff1692506121ef565b3461026557602061227061225136612412565b9061226b60ff604051868185516105ad8183858a016127ab565b614436565b6040519015158152f35b34610265576020366003190112610265576004356001600160a01b03811690819003610265576000526009602052602060ff604060002054166040519015158152f35b34610265576020366003190112610265576004356001600160a01b03818116929183900361026557826020936000526008845260ff60406000205416918215612309575b505015158152f35b600054161490508380612301565b61010081019081106001600160401b0382111761129a57604052565b60c081019081106001600160401b0382111761129a57604052565b6101c081019081106001600160401b0382111761129a57604052565b90601f801991011681019081106001600160401b0382111761129a57604052565b9291926001600160401b03821161129a57604051916123b4601f8201601f19166020018461236a565b829481845281830111610265578281602093846000960137010152565b9080601f83011215610265578160206123ec9335910161238b565b90565b9060048210156123fc5752565b634e487b7160e01b600052602160045260246000fd5b906040600319830112610265576001600160401b03600435818111610265578361243e916004016123d1565b92602435918211610265576123ec916004016123d1565b6001600160401b03811161129a5760051b60200190565b9080601f830112156102655781359061248482612455565b92612492604051948561236a565b828452602092838086019160051b8301019280841161026557848301915b8483106124c05750505050505090565b82356001600160401b0381116102655786916124e1848480948901016123d1565b8152019201916124b0565b6101606003198201126102655760049081356001600160401b03811161026557816125189184016123d1565b926024358381101561026557926044356001600160401b03811161026557836125429183016123d1565b9260649081356001600160401b03811161026557816125629185016123d1565b9360849384356001600160401b03811161026557836125829183016123d1565b9460a480356001600160401b03811161026557856125a19185016123d1565b9560c4916001600160401b03833511610265578660238435011215610265578235850135916125cf83612455565b946125dd604051968761236a565b83865260208601928960248660051b8835010111610265576024863501935b60248660051b88350101851061268c57505050505050509260e4356001600160401b038111610265578161263191840161246c565b92610104356001600160401b038111610265578261265091850161246c565b92610124356001600160401b038111610265578361266f9183016123d1565b92610144356001600160401b038111610265576123ec92016123d1565b8435906001600160401b0382116102655760c0883583018d03602319011261026557604051916126bb83612333565b6024818a350101356001600160401b038111610265578d60246126e392848d350101016123d1565b8352600a6044828b350101351015610265578835810160448101356020850152860135801515810361026557604084015284818a350101356001600160401b038111610265578d602461273b92848d350101016123d1565b606084015283818a350101356001600160401b038111610265578d602461276792848d350101016123d1565b608084015288818135010135916001600160401b038311610265576024936127998f8660209687968f350101016123d1565b60a082015281520195019490506125fc565b60005b8381106127be5750506000910152565b81810151838201526020016127ae565b906020916127e7815180928185528580860191016127ab565b601f01601f1916010190565b908082519081815260208091019281808460051b8301019501936000915b8483106128215750505050505090565b909192939495848061283f600193601f198682030187528a516127ce565b9801930193019194939290612811565b60048110156123fc57600052600c602052604060002090565b90600182811c92168015612898575b602083101461288257565b634e487b7160e01b600052602260045260246000fd5b91607f1691612877565b90600092918054916128b383612868565b91828252600193848116908160001461291557506001146128d5575b50505050565b90919394506000526020928360002092846000945b8386106129015750505050010190388080806128cf565b8054858701830152940193859082016128ea565b9294505050602093945060ff191683830152151560051b010190388080806128cf565b604060031982011261026557600435906001600160401b03821161026557612962916004016123d1565b9060243590565b80548210156129815760005260206000200190600090565b634e487b7160e01b600052603260045260246000fd5b6129aa815160c0845260c08401906127ce565b916020820151600a8110156123fc576129fb6129e96123ec9560a0936020860152604086015115156040860152606086015185820360608701526127ce565b608085015184820360808601526127ce565b9201519060a08184039101526127ce565b6000546001600160a01b03163303612a2057565b606460405162461bcd60e51b815260206004820152602060248201527f4f776e61626c653a2063616c6c6572206973206e6f7420746865206f776e65726044820152fd5b15612a6b57565b60405162461bcd60e51b815260206004820152600e60248201526d139bdd08185d5d1a1bdc9a5e995960921b6044820152606490fd5b15612aa857565b60405162461bcd60e51b815260206004820152601660248201527514d8da195b5848185b1c9958591e481919599a5b995960521b6044820152606490fd5b15612aed57565b60405162461bcd60e51b815260206004820152601960248201527f537562646f6d61696e2063616e6e6f7420626520656d707479000000000000006044820152606490fd5b60048210156123fc5752565b818110612b49575050565b60008155600101612b3e565b9190601f8111612b6457505050565b612b90926000526020600020906020601f840160051c83019310612b92575b601f0160051c0190612b3e565b565b9091508190612b83565b9060048110156123fc5760ff80198354169116179055565b612bbe8154612868565b9081612bc8575050565b81601f60009311600114612bda575055565b908083918252612bf9601f60208420940160051c840160018501612b3e565b5555565b8054906000815581612c0d575050565b6000526020600020908101905b818110612c25575050565b80612c31600192612bb4565b01612c1a565b90600160401b811161129a57815491818155828210612c5557505050565b600052602060002091820191015b818110612c6e575050565b80612c7a600192612bb4565b01612c63565b6000198114612c8f5760010190565b634e487b7160e01b600052601160045260246000fd5b612cbd906020604051928284809451938492016127ab565b810103902090565b9691989399949792959097612cdc88511515612ae6565b612d0e60ff612cfa60208b81604051938285809451938492016127ab565b600381830152810103019020541615612aa1565b60405196612d1b8861234e565b888852612d2b8a60208a01612b32565b8a604089015260608801528a608088015260a087015260c086015260e0850152610100840152600161012084015242610140840152426101608401526101808301526101a08201526040516020818451612d8881838589016127ab565b810160028152030190209080518051906001600160401b03821161129a578190612db6826110c48754612868565b602090601f8311600114613b3157600092613b26575b50508160011b916000199060031b1c19161782555b602081015160048110156123fc57612dfc9060018401612b9c565b60408101518051906001600160401b03821161129a578190612e2e82612e256002880154612868565b60028801612b55565b602090601f8311600114613ab457600092613aa9575b50508160011b916000199060031b1c19161760028301555b60608101518051906001600160401b03821161129a578190612e8e82612e856003880154612868565b60038801612b55565b602090601f8311600114613a3757600092613a2c575b50508160011b916000199060031b1c19161760038301555b60808101518051906001600160401b03821161129a578190612eee82612ee56004880154612868565b60048801612b55565b602090601f83116001146139ba576000926139af575b50508160011b916000199060031b1c19161760048301555b60a08101518051906001600160401b03821161129a578190612f4e82612f456005880154612868565b60058801612b55565b602090601f831160011461393d57600092613932575b50508160011b916000199060031b1c19161760058301555b60c0810151805190600160401b821161129a5760068401548260068601558083106138b7575b5060200190600684016000526020600020916000905b82821061350857505050506007820160e08201516020815191612fdb8385612c37565b01916000526020600020916000905b82821061342b575050505060088201610100820151602081519161300e8385612c37565b01916000526020600020916000905b82821061334e575050505060098201610120820151151560ff80198354169116179055610140810151600a830155610160810151600b8301556101808101518051906001600160401b03821161129a576130878261307e600c870154612868565b600c8701612b55565b602090601f83116001146132da576101a0939291600091836132cf575b50508160011b916000199060031b1c191617600c8401555b01518051906001600160401b03821161129a576130e9826130e0600d860154612868565b600d8601612b55565b602090601f831160011461322f576131ff947fbc5e30b99f14bbf3d59c8cf7aca16b6cd889c273f13c2c4854e4d760969f07669694600d8561321f96613210966131f296600092613224575b50508160011b916000199060031b1c1916179101555b604051602081835161316081838588016127ab565b81016003815203019020600160ff1982541617905561319d85604051602081855161318e8183858a016127ab565b81016004815203019020612b9c565b6131a8600b54612c80565b600b556131b48561284f565b6131be8154612c80565b9055604051602081816131d78c838151938492016127ab565b8101600d8152030190206131eb8154612c80565b9055612ca5565b95604051948580956123ef565b6060602085015260608401906127ce565b828103604084015233966127ce565b0390a3565b015190503880613135565b90600d840160005260206000209160005b601f19851681106132b75750947fbc5e30b99f14bbf3d59c8cf7aca16b6cd889c273f13c2c4854e4d760969f07669694600d600186613210966131f2966131ff9b61321f9a601f1981161061329e575b505050811b0191015561314b565b015160001960f88460031b161c19169055388080613290565b91926020600181928685015181550194019201613240565b0151905038806130a4565b90600c850160005260206000209160005b601f198516811061333657509183916001936101a09695601f1981161061331d575b505050811b01600c8401556130bc565b015160001960f88460031b161c1916905538808061330d565b919260206001819286850151815501940192016132eb565b80518051906001600160401b03821161129a5761336f826112d18854612868565b602090601f83116001146133bb5792826001949360209386956000926133b0575b5050600019600383901b1c191690841b1787555b0194019101909261301d565b015190503880613390565b908660005260206000209160005b601f1985168110613413575083602093600196938796938794601f198116106133fa575b505050811b0187556133a4565b015160001960f88460031b161c191690553880806133ed565b919260206001819286850151815501940192016133c9565b80518051906001600160401b03821161129a5761344c826112d18854612868565b602090601f831160011461349857928260019493602093869560009261348d575b5050600019600383901b1c191690841b1787555b01940191019092612fea565b01519050388061346d565b908660005260206000209160005b601f19851681106134f0575083602093600196938796938794601f198116106134d7575b505050811b018755613481565b015160001960f88460031b161c191690553880806134ca565b919260206001819286850151815501940192016134a6565b805180518051906001600160401b03821161129a5781906135338261352d8a54612868565b8a612b55565b602090601f831160011461384b57600092613840575b50508160011b916000199060031b1c19161785555b6020810151600a8110156123fc576001860190815460ff61ff006040860151151560081b1692169061ffff19161717905560608101518051906001600160401b03821161129a5781906135c1826135b860028b0154612868565b60028b01612b55565b602090601f83116001146137ce576000926137c3575b50508160011b916000199060031b1c19161760028601555b60808101518051906001600160401b03821161129a5761361f8261361660038a0154612868565b60038a01612b55565b602090601f83116001146137505760a093929160009183613745575b50508160011b916000199060031b1c19161760038701555b01518051906001600160401b03821161129a57613680826136776004890154612868565b60048901612b55565b602090601f83116001146136cf5792826005936020936001966000926136c4575b5050600019600383901b1c191690851b1760048801555b01940191019092612fb8565b0151905038806136a1565b906004870160005260206000209160005b601f198516811061372d575083602093600196938793600597601f19811610613714575b505050811b0160048801556136b8565b015160001960f88460031b161c19169055388080613704565b919260206001819286850151815501940192016136e0565b01519050388061363b565b906003880160005260206000209160005b601f19851681106137ab575091839160019360a09695601f19811610613792575b505050811b016003870155613653565b015160001960f88460031b161c19169055388080613782565b91926020600181928685015181550194019201613761565b0151905038806135d7565b9250600288016000526020600020906000935b601f1984168510613825576001945083601f1981161061380c575b505050811b0160028601556135ef565b015160001960f88460031b161c191690553880806137fc565b818101518355602094850194600190930192909101906137e1565b015190503880613549565b9250876000526020600020906000935b601f198416851061389c576001945083601f19811610613883575b505050811b01855561355e565b015160001960f88460031b161c19169055388080613876565b8181015183556020948501946001909301929091019061385b565b6005818102048103612c8f576005838102048303612c8f576006850160005260206000208360050281015b82600502820181106138f5575050612fa2565b80613901600592612bb4565b6000600182015561391460028201612bb4565b61392060038201612bb4565b61392c60048201612bb4565b016138e2565b015190503880612f64565b9250600585016000526020600020906000935b601f1984168510613994576001945083601f1981161061397b575b505050811b016005830155612f7c565b015160001960f88460031b161c1916905538808061396b565b81810151835560209485019460019093019290910190613950565b015190503880612f04565b9250600485016000526020600020906000935b601f1984168510613a11576001945083601f198116106139f8575b505050811b016004830155612f1c565b015160001960f88460031b161c191690553880806139e8565b818101518355602094850194600190930192909101906139cd565b015190503880612ea4565b9250600385016000526020600020906000935b601f1984168510613a8e576001945083601f19811610613a75575b505050811b016003830155612ebc565b015160001960f88460031b161c19169055388080613a65565b81810151835560209485019460019093019290910190613a4a565b015190503880612e44565b9250600285016000526020600020906000935b601f1984168510613b0b576001945083601f19811610613af2575b505050811b016002830155612e5c565b015160001960f88460031b161c19169055388080613ae2565b81810151835560209485019460019093019290910190613ac7565b015190503880612dcc565b9250846000526020600020906000935b601f1984168510613b82576001945083601f19811610613b69575b505050811b018255612de1565b015160001960f88460031b161c19169055388080613b5c565b81810151835560209485019460019093019290910190613b41565b15613ba457565b60405162461bcd60e51b815260206004820152601260248201527114d8da195b58481b9bdd081919599a5b995960721b6044820152606490fd5b90604091825192613bee84612333565b838151613bff816105f781876128a2565b815260018301549260ff841690600a8210156123fc57613c6e60a09460ff600497613c7595602088015260081c161515818601528051613c46816105f781600288016128a2565b60608601528051613c5e816105f781600388016128a2565b60808601525180968193016128a2565b038461236a565b0152565b908154613c8581612455565b92604093613c958551918261236a565b828152809460208092019260005281600020906000935b858510613cbb57505050505050565b60018481928451613cd0816105f7818a6128a2565b815201930194019391613cac565b15613ce557565b60405162461bcd60e51b815260206004820152601b60248201527f4465736372697074696f6e2063616e6e6f7420626520656d70747900000000006044820152606490fd5b15613d3157565b60405162461bcd60e51b815260206004820152601760248201527f56657273696f6e2063616e6e6f7420626520656d7074790000000000000000006044820152606490fd5b15613d7d57565b60405162461bcd60e51b815260206004820152602360248201527f536368656d61206d7573742068617665206174206c65617374206f6e65206669604482015262195b1960ea1b6064820152608490fd5b8015612c8f576000190190565b90808214613eb557613ded8154612868565b906001600160401b03821161129a578190613e1282613e0c8654612868565b86612b55565b600090601f8311600114613e4957600092613e3e575b50508160011b916000199060031b1c1916179055565b015490503880613e28565b81526020808220858352818320935090601f1985169083905b828210613e9c575050908460019594939210613e83575b505050811b019055565b015460001960f88460031b161c19169055388080613e79565b8495819295850154815560018091019601940190613e62565b5050565b906040805183519160209081860193613ed38185876127ab565b83019282816002958681520301902093613eee600b54613dce565b600b5583600195613f0460ff888301541661284f565b613f0e8154613dce565b905501938251848160008854613f2381612868565b908b81169081156142f857506001146142c0575b50600d815203019020613f4a8154613dce565b90558251918851613f5c8185846127ab565b8301928581600395868152030190209860ff19998a81541690558451948151613f868188866127ab565b8601958781600498898152030190208b815416905580516000988054613fab81612868565b9d818d169182156142a9575050600114614273575b50899a9b50878160059a8b815203019020896000905b61410f575b50508697985090613ffa939495969291519384928392519283916127ab565b8101848152030190209561400d87612bb4565b60008188015561401e828801612bb4565b614029838801612bb4565b614034848801612bb4565b61403f868801612bb4565b6006870194855495600081558661409e575b5050505050505050600d8161406b6007612b909401612bfd565b61407760088201612bfd565b600060098201556000600a8201556000600b820155614098600c8201612bb4565b01612bb4565b86880296888804036140fa57600052600020948501945b8581106140c25780614051565b806140cd8892612bb4565b6000838201556140de848201612bb4565b6140e9858201612bb4565b6140f4868201612bb4565b016140b5565b601186634e487b7160e01b6000525260246000fd5b81548082101561426d576105f76141356141298486612969565b508651928380926128a2565b8a81519101208551872014614154575061414e90612c80565b8a613fd6565b9192939495969798999a50600019918281019081116142585761417a6141829185612969565b509184612969565b614244579061419091613ddb565b8154801561422f5701906141a48282612969565b61421b5791613ffa9593918b848e6141be8e999754612868565b90816141d9575b5050505055909192969594938a9998613fdb565b600093601f8084116001146141f75750505050555b8b38808f6141c5565b9161421491859387959686528d86209601901c8501908501612b3e565b55556141ee565b600089634e487b7160e01b82525260246000fd5b603189634e487b7160e01b6000525260246000fd5b60008a634e487b7160e01b82525260246000fd5b60118a634e487b7160e01b6000525260246000fd5b50613fdb565b909850600052866000209a60009b5b818d106142985750899a9b508801978b9a613fc0565b80548a8e01529b88019b8a01614282565b168352509a9b8c9b50801515028101985089613fc0565b905088600052826000208a6000915b8383106142e157505050810138613f37565b8054878401528a95879550909201918c91016142cf565b60ff1916845250801515028201905038613f37565b9061431782612455565b614324604051918261236a565b8281528092614335601f1991612455565b019060005b82811061434657505050565b80606060208093850101520161433a565b8054821015612981576000526005602060002091020190600090565b919091506040908151838180955161439181602098898096016127ab565b60029082019081520301902060060180549160005b8381106143e357845162461bcd60e51b815260048101879052600f60248201526e119a595b19081b9bdd08199bdd5b99608a1b6044820152606490fd5b6105f76143ff6143f38386614357565b508751928380926128a2565b8681519101208251878401201461441e5761441990612c80565b6143a6565b9250506123ec93506144309250614357565b50613bde565b6040918251828180945161445081602097888096016127ab565b81016002815203019020926006600094018054945b85811061447757505050505050600090565b6105f76144936144878385614357565b508551928380926128a2565b858151910120845186860120146144b2576144ad90612c80565b614465565b505050505050600190565b80518210156129815760209160051b01019056fea2646970667358221220168b0ca5ef520e8b9fc96a5e1979caed9c441e7193b6c66db7c5e6aa87ae802a64736f6c6343000813003368747470733a2f2f646f63732e64616f2d72656769737472792e636f6d2f7363436f72652044414f20436f6d706f6e656e747300000000000000000000000000bc5e30b99f14bbf3d59c8cf7aca16b6cd889c273f13c2c4854e4d760969f0766",
  "linkReferences": {},
  "deployedLinkReferences": {}
}