{
  "_format": "hh-sol-artifact-1",
  "contractName": "ReservedSubdomains",
  "sourceName": "contracts/ReservedSubdomains.sol",
  "abi": [
    {
      "inputs": [],
      "stateMutability": "nonpayable",
      "type": "constructor"
    },
    {
      "anonymous": false,
      "inputs": [
        {
          "indexed": true,
          "internalType": "address",
          "name": "previousOwner",
          "type": "address"
        },
        {
          "indexed": true,
          "internalType": "address",
          "name": "newOwner",
          "type": "address"
        }
      ],
      "name": "OwnershipTransferred",
      "type": "event"
    },
    {
      "anonymous": false,
      "inputs": [
        {
          "indexed": true,
          "internalType": "string",
          "name": "subdomain",
          "type": "string"
        },
        {
          "indexed": false,
          "internalType": "string",
          "name": "role",
          "type": "string"
        },
        {
          "indexed": true,
          "internalType": "address",
          "name": "addedBy",
          "type": "address"
        }
      ],
      "name": "RoleAdded",
      "type": "event"
    },
    {
      "anonymous": false,
      "inputs": [
        {
          "indexed": true,
          "internalType": "string",
          "name": "subdomain",
          "type": "string"
        },
        {
          "indexed": false,
          "internalType": "string",
          "name": "role",
          "type": "string"
        },
        {
          "indexed": true,
          "internalType": "address",
          "name": "removedBy",
          "type": "address"
        }
      ],
      "name": "RoleRemoved",
      "type": "event"
    },
    {
      "anonymous": false,
      "inputs": [
        {
          "indexed": true,
          "internalType": "string",
          "name": "subdomain",
          "type": "string"
        },
        {
          "indexed": true,
          "internalType": "address",
          "name": "releasedBy",
          "type": "address"
        }
      ],
      "name": "SubdomainReleased",
      "type": "event"
    },
    {
      "anonymous": false,
      "inputs": [
        {
          "indexed": true,
          "internalType": "string",
          "name": "subdomain",
          "type": "string"
        },
        {
          "indexed": false,
          "internalType": "enum ReservedSubdomains.Priority",
          "name": "priority",
          "type": "uint8"
        },
        {
          "indexed": false,
          "internalType": "string",
          "name": "category",
          "type": "string"
        },
        {
          "indexed": true,
          "internalType": "address",
          "name": "reservedBy",
          "type": "address"
        }
      ],
      "name": "SubdomainReserved",
      "type": "event"
    },
    {
      "anonymous": false,
      "inputs": [
        {
          "indexed": true,
          "internalType": "string",
          "name": "subdomain",
          "type": "string"
        },
        {
          "indexed": false,
          "internalType": "enum ReservedSubdomains.Priority",
          "name": "oldPriority",
          "type": "uint8"
        },
        {
          "indexed": false,
          "internalType": "enum ReservedSubdomains.Priority",
          "name": "newPriority",
          "type": "uint8"
        },
        {
          "indexed": true,
          "internalType": "address",
          "name": "updatedBy",
          "type": "address"
        }
      ],
      "name": "SubdomainUpdated",
      "type": "event"
    },
    {
      "inputs": [
        {
          "internalType": "address",
          "name": "admin",
          "type": "address"
        }
      ],
      "name": "addAdministrator",
      "outputs": [],
      "stateMutability": "nonpayable",
      "type": "function"
    },
    {
      "inputs": [
        {
          "internalType": "address",
          "name": "moderator",
          "type": "address"
        }
      ],
      "name": "addModerator",
      "outputs": [],
      "stateMutability": "nonpayable",
      "type": "function"
    },
    {
      "inputs": [
        {
          "internalType": "string",
          "name": "subdomain",
          "type": "string"
        },
        {
          "internalType": "string",
          "name": "role",
          "type": "string"
        }
      ],
      "name": "addRoleToSubdomain",
      "outputs": [],
      "stateMutability": "nonpayable",
      "type": "function"
    },
    {
      "inputs": [
        {
          "internalType": "address",
          "name": "",
          "type": "address"
        }
      ],
      "name": "administrators",
      "outputs": [
        {
          "internalType": "bool",
          "name": "",
          "type": "bool"
        }
      ],
      "stateMutability": "view",
      "type": "function"
    },
    {
      "inputs": [
        {
          "internalType": "string",
          "name": "subdomain",
          "type": "string"
        }
      ],
      "name": "checkIfReserved",
      "outputs": [
        {
          "internalType": "bool",
          "name": "",
          "type": "bool"
        }
      ],
      "stateMutability": "view",
      "type": "function"
    },
    {
      "inputs": [],
      "name": "emergencyPause",
      "outputs": [],
      "stateMutability": "nonpayable",
      "type": "function"
    },
    {
      "inputs": [],
      "name": "emergencyUnpause",
      "outputs": [],
      "stateMutability": "nonpayable",
      "type": "function"
    },
    {
      "inputs": [
        {
          "internalType": "string",
          "name": "subdomain",
          "type": "string"
        }
      ],
      "name": "getReservedSubdomainInfo",
      "outputs": [
        {
          "components": [
            {
              "internalType": "string",
              "name": "subdomain",
              "type": "string"
            },
            {
              "internalType": "enum ReservedSubdomains.Priority",
              "name": "priority",
              "type": "uint8"
            },
            {
              "internalType": "string",
              "name": "category",
              "type": "string"
            },
            {
              "internalType": "string",
              "name": "description",
              "type": "string"
            },
            {
              "internalType": "string[]",
              "name": "allowedRoles",
              "type": "string[]"
            },
            {
              "internalType": "string[]",
              "name": "restrictions",
              "type": "string[]"
            },
            {
              "internalType": "bool",
              "name": "active",
              "type": "bool"
            },
            {
              "internalType": "uint256",
              "name": "createdAt",
              "type": "uint256"
            },
            {
              "internalType": "uint256",
              "name": "updatedAt",
              "type": "uint256"
            }
          ],
          "internalType": "struct ReservedSubdomains.ReservedSubdomainInfo",
          "name": "",
          "type": "tuple"
        }
      ],
      "stateMutability": "view",
      "type": "function"
    },
    {
      "inputs": [
        {
          "internalType": "enum ReservedSubdomains.Priority",
          "name": "priority",
          "type": "uint8"
        }
      ],
      "name": "getReservedSubdomainsByPriority",
      "outputs": [
        {
          "internalType": "string[]",
          "name": "",
          "type": "string[]"
        }
      ],
      "stateMutability": "view",
      "type": "function"
    },
    {
      "inputs": [],
      "name": "getStatistics",
      "outputs": [
        {
          "internalType": "uint256",
          "name": "total",
          "type": "uint256"
        },
        {
          "internalType": "uint256",
          "name": "critical",
          "type": "uint256"
        },
        {
          "internalType": "uint256",
          "name": "high",
          "type": "uint256"
        },
        {
          "internalType": "uint256",
          "name": "medium",
          "type": "uint256"
        },
        {
          "internalType": "uint256",
          "name": "low",
          "type": "uint256"
        }
      ],
      "stateMutability": "view",
      "type": "function"
    },
    {
      "inputs": [
        {
          "internalType": "string",
          "name": "subdomain",
          "type": "string"
        }
      ],
      "name": "getSubdomainPriority",
      "outputs": [
        {
          "internalType": "enum ReservedSubdomains.Priority",
          "name": "",
          "type": "uint8"
        }
      ],
      "stateMutability": "view",
      "type": "function"
    },
    {
      "inputs": [
        {
          "internalType": "address",
          "name": "addr",
          "type": "address"
        }
      ],
      "name": "isAdministrator",
      "outputs": [
        {
          "internalType": "bool",
          "name": "",
          "type": "bool"
        }
      ],
      "stateMutability": "view",
      "type": "function"
    },
    {
      "inputs": [
        {
          "internalType": "address",
          "name": "addr",
          "type": "address"
        }
      ],
      "name": "isModerator",
      "outputs": [
        {
          "internalType": "bool",
          "name": "",
          "type": "bool"
        }
      ],
      "stateMutability": "view",
      "type": "function"
    },
    {
      "inputs": [
        {
          "internalType": "string",
          "name": "",
          "type": "string"
        }
      ],
      "name": "isReserved",
      "outputs": [
        {
          "internalType": "bool",
          "name": "",
          "type": "bool"
        }
      ],
      "stateMutability": "view",
      "type": "function"
    },
    {
      "inputs": [
        {
          "internalType": "address",
          "name": "",
          "type": "address"
        }
      ],
      "name": "moderators",
      "outputs": [
        {
          "internalType": "bool",
          "name": "",
          "type": "bool"
        }
      ],
      "stateMutability": "view",
      "type": "function"
    },
    {
      "inputs": [],
      "name": "owner",
      "outputs": [
        {
          "internalType": "address",
          "name": "",
          "type": "address"
        }
      ],
      "stateMutability": "view",
      "type": "function"
    },
    {
      "inputs": [
        {
          "internalType": "string",
          "name": "subdomain",
          "type": "string"
        }
      ],
      "name": "releaseSubdomain",
      "outputs": [],
      "stateMutability": "nonpayable",
      "type": "function"
    },
    {
      "inputs": [
        {
          "internalType": "address",
          "name": "admin",
          "type": "address"
        }
      ],
      "name": "removeAdministrator",
      "outputs": [],
      "stateMutability": "nonpayable",
      "type": "function"
    },
    {
      "inputs": [
        {
          "internalType": "address",
          "name": "moderator",
          "type": "address"
        }
      ],
      "name": "removeModerator",
      "outputs": [],
      "stateMutability": "nonpayable",
      "type": "function"
    },
    {
      "inputs": [
        {
          "internalType": "string",
          "name": "subdomain",
          "type": "string"
        },
        {
          "internalType": "string",
          "name": "role",
          "type": "string"
        }
      ],
      "name": "removeRoleFromSubdomain",
      "outputs": [],
      "stateMutability": "nonpayable",
      "type": "function"
    },
    {
      "inputs": [],
      "name": "renounceOwnership",
      "outputs": [],
      "stateMutability": "nonpayable",
      "type": "function"
    },
    {
      "inputs": [
        {
          "internalType": "string",
          "name": "subdomain",
          "type": "string"
        },
        {
          "internalType": "enum ReservedSubdomains.Priority",
          "name": "priority",
          "type": "uint8"
        },
        {
          "internalType": "string",
          "name": "category",
          "type": "string"
        },
        {
          "internalType": "string",
          "name": "description",
          "type": "string"
        },
        {
          "internalType": "string[]",
          "name": "allowedRoles",
          "type": "string[]"
        },
        {
          "internalType": "string[]",
          "name": "restrictions",
          "type": "string[]"
        }
      ],
      "name": "reserveSubdomain",
      "outputs": [],
      "stateMutability": "nonpayable",
      "type": "function"
    },
    {
      "inputs": [
        {
          "internalType": "string",
          "name": "",
          "type": "string"
        }
      ],
      "name": "reservedSubdomains",
      "outputs": [
        {
          "internalType": "string",
          "name": "subdomain",
          "type": "string"
        },
        {
          "internalType": "enum ReservedSubdomains.Priority",
          "name": "priority",
          "type": "uint8"
        },
        {
          "internalType": "string",
          "name": "category",
          "type": "string"
        },
        {
          "internalType": "string",
          "name": "description",
          "type": "string"
        },
        {
          "internalType": "bool",
          "name": "active",
          "type": "bool"
        },
        {
          "internalType": "uint256",
          "name": "createdAt",
          "type": "uint256"
        },
        {
          "internalType": "uint256",
          "name": "updatedAt",
          "type": "uint256"
        }
      ],
      "stateMutability": "view",
      "type": "function"
    },
    {
      "inputs": [
        {
          "internalType": "string",
          "name": "",
          "type": "string"
        },
        {
          "internalType": "uint256",
          "name": "",
          "type": "uint256"
        }
      ],
      "name": "subdomainCategories",
      "outputs": [
        {
          "internalType": "string",
          "name": "",
          "type": "string"
        }
      ],
      "stateMutability": "view",
      "type": "function"
    },
    {
      "inputs": [
        {
          "internalType": "string",
          "name": "",
          "type": "string"
        }
      ],
      "name": "subdomainPriority",
      "outputs": [
        {
          "internalType": "enum ReservedSubdomains.Priority",
          "name": "",
          "type": "uint8"
        }
      ],
      "stateMutability": "view",
      "type": "function"
    },
    {
      "inputs": [
        {
          "internalType": "string",
          "name": "",
          "type": "string"
        }
      ],
      "name": "subdomainsByCategory",
      "outputs": [
        {
          "internalType": "uint256",
          "name": "",
          "type": "uint256"
        }
      ],
      "stateMutability": "view",
      "type": "function"
    },
    {
      "inputs": [
        {
          "internalType": "enum ReservedSubdomains.Priority",
          "name": "",
          "type": "uint8"
        }
      ],
      "name": "subdomainsByPriority",
      "outputs": [
        {
          "internalType": "uint256",
          "name": "",
          "type": "uint256"
        }
      ],
      "stateMutability": "view",
      "type": "function"
    },
    {
      "inputs": [],
      "name": "totalReservedSubdomains",
      "outputs": [
        {
          "internalType": "uint256",
          "name": "",
          "type": "uint256"
        }
      ],
      "stateMutability": "view",
      "type": "function"
    },
    {
      "inputs": [
        {
          "internalType": "address",
          "name": "newOwner",
          "type": "address"
        }
      ],
      "name": "transferOwnership",
      "outputs": [],
      "stateMutability": "nonpayable",
      "type": "function"
    },
    {
      "inputs": [
        {
          "internalType": "string",
          "name": "subdomain",
          "type": "string"
        },
        {
          "internalType": "string",
          "name": "newCategory",
          "type": "string"
        }
      ],
      "name": "updateSubdomainCategory",
      "outputs": [],
      "stateMutability": "nonpayable",
      "type": "function"
    },
    {
      "inputs": [
        {
          "internalType": "string",
          "name": "subdomain",
          "type": "string"
        },
        {
          "internalType": "enum ReservedSubdomains.Priority",
          "name": "newPriority",
          "type": "uint8"
        }
      ],
      "name": "updateSubdomainPriority",
      "outputs": [],
      "stateMutability": "nonpayable",
      "type": "function"
    }
  ],
  "bytecode": "0x34620030675760008054336001600160a01b0319821681178355916001600160a01b03909116907f8be0079c531659141344cd1fd0a4f28419497f9722a3daafe3b4186f6b6457e09080a360018055610200604052600b60805260005b61016081106200305757620000706200308d565b600a815269676f7665726e616e636560b01b602082015262000093608062003134565b52620000a0608062003134565b50620000ab6200308d565b6008815267747265617375727960c01b6020820152620000cc608062003158565b52620000d9608062003158565b50620000e46200308d565b60058152643a37b5b2b760d91b602082015262000102608062003169565b526200010f608062003169565b506200011a6200308d565b6004815263646f637360e01b60208201526200013760806200317a565b526200014460806200317a565b506200014f6200308d565b6005815264666f72756d60d81b60208201526200016d60806200318b565b526200017a60806200318b565b50620001856200308d565b6009815268616e616c797469637360b81b6020820152620001a760806200319c565b52620001b460806200319c565b50620001bf6200308d565b600581526430b236b4b760d91b6020820152620001dd6080620031ad565b52620001ea6080620031ad565b50620001f56200308d565b600681526573797374656d60d01b6020820152620002146080620031be565b52620002216080620031be565b506200022c6200308d565b60048152631c9bdbdd60e21b6020820152620002496080620031d0565b52620002566080620031d0565b50620002616200308d565b600381526277777760e81b60208201526200027d6080620031e2565b526200028a6080620031e2565b50620002956200308d565b600381526261706960e81b6020820152620002b16080620031f4565b52620002be6080620031f4565b50620002c9620030cd565b620002d36200308d565b600a81526944414f206f776e65727360b01b6020820152620002f58262003134565b52620003018162003134565b506200030c6200308d565b601581527f53797374656d2061646d696e6973747261746f727300000000000000000000006020820152620003418262003158565b526200034d8162003158565b5062000358620030ff565b9062000363620030ad565b602781527f4e6576657220617661696c61626c6520666f72207075626c69632072656769736020820152663a3930ba34b7b760c91b6040820152620003a88362003134565b52620003b48262003134565b506000915b60805183101562000e6957620003d1836080620033b6565b5192620003dd6200308d565b601381527f436f72652044414f20436f6d706f6e656e7473000000000000000000000000006020820152620004116200308d565b60198082527f437269746963616c2073797374656d20737562646f6d61696e00000000000000602083015286511562000e25575060ff60405160208181620004608b83815193849201620033f1565b81016003815203019020541662000de0576200047b6200306c565b908682526000602083015282604083015260608201528460808201528360a0820152600160c08201524260e0820152426101008201526040516020818851620004c88183858d01620033f1565b8101600281520301902090805180519060018060401b0382116200095f578190620004f4855462003416565b601f811162000daa575b50602090601f831160011462000d395760009262000d2d575b50508160011b916000199060031b1c19161782555b6020810151600481101562000d17576200054a90600184016200346c565b60408101518051906001600160401b0382116200095f57819062000572600286015462003416565b601f811162000cde575b50602090601f831160011462000c675760009262000c5b575b50508160011b916000199060031b1c19161760028301555b60608101518051906001600160401b0382116200095f578190620005d5600386015462003416565b601f811162000c22575b50602090601f831160011462000bab5760009262000b9f575b50508160011b916000199060031b1c19161760038301555b60808101518051906801000000000000000082116200095f57600484015482600486015580831062000b1c575b50602001906004840160005260206000206000925b828410620009f8575050505060a08101518051906801000000000000000082116200095f57600584015482600586015580831062000975575b50602001906005840160005260206000206000925b8284106200082f575050505095620007cf91600861010089620006de60c0620008279a9b9c01511515600686019060ff801983541691151516179055565b60e0810151600785015501519101556040516020818351620007048183858801620033f1565b8101600381520301902060ff19906001828254161790556040516020818451620007328183858901620033f1565b810160048152030190209081541690556200074f600854620033cb565b6008556000805260096020527fec8156718a8372b1db44bb411437d0870f3e3790d4a08526d024ce1b0b668f6b80546200078990620033cb565b90556040516020818551620007a28183858a01620033f1565b8101600a815203019020620007b88154620033cb565b9055602060405192828480945193849201620033f1565b8101039020600080516020620055d683398151915260405160008152604060208201526200080e845180958160408501526020606085019101620033f1565b3393601f01601f1916810181900360600190a3620033cb565b9190620003b9565b80518051906001600160401b0382116200095f576200084f845462003416565b601f81116200091d575b50602090601f8311600114620008aa5792826001949360209386956000926200089e575b5050600019600383901b1c191690841b1785555b01920193019290620006a0565b0151905038806200087d565b90846000526020600020916000601f198516905b818110620009045750936020936001969387969383889510620008ea575b505050811b01855562000891565b015160001960f88460031b161c19169055388080620008dc565b92936020600181928786015181550195019301620008be565b6200094d90856000526020600020601f850160051c8101916020861062000954575b601f0160051c019062003453565b8d62000859565b90915081906200093f565b634e487b7160e01b600052604160045260246000fd5b600585016000526020600020908382015b8183018110620009985750506200068b565b80620009a76001925462003416565b80620009b6575b500162000986565b601f81118314620009ce5750600081555b8d620009ae565b600090828252620009ee601f60208420920160051c820185830162003453565b81835555620009c7565b80518051906001600160401b0382116200095f5762000a18845462003416565b601f811162000ae6575b50602090601f831160011462000a7357928260019493602093869560009262000a67575b5050600019600383901b1c191690841b1785555b0192019301929062000652565b01519050388062000a46565b90601f198316918560005260206000209260005b81811062000acd575093602093600196938796938388951062000ab3575b505050811b01855562000a5a565b015160001960f88460031b161c1916905538808062000aa5565b9293602060018192878601518155019501930162000a87565b62000b1590856000526020600020601f850160051c810191602086106200095457601f0160051c019062003453565b8d62000a22565b600485016000526020600020908382015b818301811062000b3f5750506200063d565b8062000b4e6001925462003416565b8062000b5d575b500162000b2d565b601f8111831462000b755750600081555b8d62000b55565b60009082825262000b95601f60208420920160051c820185830162003453565b8183555562000b6e565b015190508980620005f8565b9250600385016000526020600020906000935b601f198416851062000c06576001945083601f1981161062000bec575b505050811b01600383015562000610565b015160001960f88460031b161c1916905589808062000bdb565b8181015183556020948501946001909301929091019062000bbe565b62000c5490600387016000526020600020601f850160051c810191602086106200095457601f0160051c019062003453565b8a620005df565b01519050898062000595565b9250600285016000526020600020906000935b601f198416851062000cc2576001945083601f1981161062000ca8575b505050811b016002830155620005ad565b015160001960f88460031b161c1916905589808062000c97565b8181015183556020948501946001909301929091019062000c7a565b62000d1090600287016000526020600020601f850160051c810191602086106200095457601f0160051c019062003453565b8a6200057c565b634e487b7160e01b600052602160045260246000fd5b01519050898062000517565b9250846000526020600020906000935b601f198416851062000d8e576001945083601f1981161062000d74575b505050811b0182556200052c565b015160001960f88460031b161c1916905589808062000d66565b8181015183556020948501946001909301929091019062000d49565b62000dd990866000526020600020601f850160051c810191602086106200095457601f0160051c019062003453565b8a620004fe565b60405162461bcd60e51b815260206004820152601a60248201527f537562646f6d61696e20616c72656164792072657365727665640000000000006044820152606490fd5b6064906040519062461bcd60e51b82526020600483015260248201527f537562646f6d61696e2063616e6e6f7420626520656d707479000000000000006044820152fd5b60405161048081016001600160401b038111828210176200095f576040526023815260005b610460811062003045575062000ea36200308d565b6006815265766f74696e6760d01b602082015262000ec18262003134565b5262000ecd8162003134565b5062000ed86200308d565b600981526870726f706f73616c7360b81b602082015262000ef98262003158565b5262000f058162003158565b5062000f106200308d565b600981526865786563757469766560b81b602082015262000f318262003169565b5262000f3d8162003169565b5062000f486200308d565b600781526618dbdd5b98da5b60ca1b602082015262000f67826200317a565b5262000f73816200317a565b5062000f7e6200308d565b60058152641d985d5b1d60da1b602082015262000f9b826200318b565b5262000fa7816200318b565b5062000fb26200308d565b60078152667265776172647360c81b602082015262000fd1826200319c565b5262000fdd816200319c565b5062000fe86200308d565b60078152667374616b696e6760c81b60208201526200100782620031ad565b526200101381620031ad565b506200101e6200308d565b60098152686c697175696469747960b81b60208201526200103f82620031be565b526200104b81620031be565b50620010566200308d565b6005815264065726332360dc1b60208201526200107382620031d0565b526200107f81620031d0565b506200108a6200308d565b60038152621b999d60ea1b6020820152620010a582620031e2565b52620010b181620031e2565b50620010bc6200308d565b600781526676657374696e6760c81b6020820152620010db82620031f4565b52620010e781620031f4565b50620010f26200308d565b6007815266061697264726f760cc1b6020820152620011118262003206565b526200111d8162003206565b50620011286200308d565b600481526377696b6960e01b6020820152620011448262003218565b52620011508162003218565b506200115b6200308d565b6005815264677569646560d81b602082015262001178826200322a565b5262001184816200322a565b506200118f6200308d565b60048152637370656360e01b6020820152620011ab826200323c565b52620011b7816200323c565b50620011c26200308d565b600481526318da185d60e21b6020820152620011de826200324e565b52620011ea816200324e565b50620011f56200308d565b6007815266191a5cd8dbdc9960ca1b6020820152620012148262003260565b52620012208162003260565b506200122b6200308d565b600881526774656c656772616d60c01b60208201526200124b8262003272565b52620012578162003272565b50620012626200308d565b60068152651c9959191a5d60d21b6020820152620012808262003284565b526200128c8162003284565b50620012976200308d565b6005815264737461747360d81b6020820152620012b48262003296565b52620012c08162003296565b50620012cb6200308d565b60078152666d65747269637360c81b6020820152620012ea82620032a8565b52620012f681620032a8565b50620013016200308d565b600981526819185cda189bd85c9960ba1b60208201526200132282620032ba565b526200132e81620032ba565b50620013396200308d565b60078152667265706f72747360c81b60208201526200135882620032cc565b526200136481620032cc565b506200136f6200308d565b60038152623232bb60e91b60208201526200138a82620032de565b526200139681620032de565b50620013a16200308d565b600681526533b4ba343ab160d11b6020820152620013bf82620032f0565b52620013cb81620032f0565b50620013d66200308d565b6004815263636f646560e01b6020820152620013f28262003302565b52620013fe8162003302565b50620014096200308d565b60048152631d195cdd60e21b6020820152620014258262003314565b52620014318162003314565b506200143c6200308d565b600781526673746167696e6760c81b60208201526200145b8262003326565b52620014678162003326565b50620014726200308d565b600381526233b7bb60e91b60208201526200148d8262003338565b52620014998162003338565b50620014a46200308d565b600c81526b31b7b739ba34ba3aba34b7b760a11b6020820152620014c8826200334a565b52620014d4816200334a565b50620014df6200308d565b600681526562796c61777360d01b6020820152620014fd826200335c565b5262001509816200335c565b50620015146200308d565b6008815267706f6c696369657360c01b602082015262001534826200336e565b5262001540816200336e565b506200154b6200308d565b60098152686d61726b6574696e6760b81b60208201526200156c8262003380565b52620015788162003380565b50620015836200308d565b6005815264189c985b9960da1b6020820152620015a08262003392565b52620015ac8162003392565b50620015b76200308d565b60058152646d6564696160d81b6020820152620015d482620033a4565b52620015e081620033a4565b50620015eb620030ff565b90620015f66200308d565b600a81526944414f206f776e65727360b01b6020820152620016188362003134565b52620016248262003134565b506200162f620030ff565b620016396200308d565b601b81527f5265717569726573207370656369616c207065726d697373696f6e000000000060208201526200166e8262003134565b526200167a8162003134565b5060005b82518110156200204357620016948184620033b6565b516200169f6200308d565b90600d82526c48696768205072696f7269747960981b6020830152620016c46200308d565b601781527f48696768207072696f7269747920737562646f6d61696e000000000000000000602082015281511562001ffe5760ff60405160208185516200170f8183858a01620033f1565b81016003815203019020541662000de0576200172a6200306c565b908282526001602083015283604083015260608201528660808201528460a0820152600160c08201524260e0820152426101008201526040516020818451620017778183858901620033f1565b8101600281520301902090805180519060018060401b0382116200095f578190620017a3855462003416565b601f811162001fc8575b50602090601f831160011462001f575760009262001f4b575b50508160011b916000199060031b1c19161782555b6020810151600481101562000d1757620017f990600184016200346c565b60408101518051906001600160401b0382116200095f57819062001821600286015462003416565b601f811162001f12575b50602090601f831160011462001e9b5760009262001e8f575b50508160011b916000199060031b1c19161760028301555b60608101518051906001600160401b0382116200095f57819062001884600386015462003416565b601f811162001e56575b50602090601f831160011462001ddf5760009262001dd3575b50508160011b916000199060031b1c19161760038301555b60808101518051906801000000000000000082116200095f57600484015482600486015580831062001d50575b50602001906004840160005260206000206000925b82841062001c2a575050505060a08101518051906801000000000000000082116200095f57600584015482600586015580831062001ba7575b50602001906005840160005260206000206000925b82841062001a8157505050509162001a3c916008610100856200198d60c062001a7b9a999801511515600686019060ff801983541691151516179055565b60e0810151600785015501519101556040516020818351620019b38183858801620033f1565b8101600381520301902060ff199060018282541617905560016040516020818551620019e38183858a01620033f1565b810160048152030190209182541617905562001a01600854620033cb565b600855600160005260096020527f92e85d02570a8092d09a6e3a57665bc3815a2699a4074001bf1ccabf660f5a3680546200078990620033cb565b8101039020600080516020620055d683398151915260405160018152604060208201526200080e845180958160408501526020606085019101620033f1565b6200167e565b80518051906001600160401b0382116200095f5762001aa1845462003416565b601f811162001b71575b50602090601f831160011462001afc57928260019493602093869560009262001af0575b5050600019600383901b1c191690841b1785555b019201930192906200194f565b01519050388062001acf565b908460005260206000209160005b601f198516811062001b58575083602093600196938796938794601f1981161062001b3e575b505050811b01855562001ae3565b015160001960f88460031b161c1916905538808062001b30565b9192602060018192868501518155019401920162001b0a565b62001ba090856000526020600020601f850160051c810191602086106200095457601f0160051c019062003453565b8e62001aab565b600585016000526020600020908382015b818301811062001bca5750506200193a565b8062001bd96001925462003416565b8062001be8575b500162001bb8565b601f8111831462001c005750600081555b8e62001be0565b60009082825262001c20601f60208420920160051c820185830162003453565b8183555562001bf9565b80518051906001600160401b0382116200095f5762001c4a845462003416565b601f811162001d1a575b50602090601f831160011462001ca557928260019493602093869560009262001c99575b5050600019600383901b1c191690841b1785555b0192019301929062001901565b01519050388062001c78565b908460005260206000209160005b601f198516811062001d01575083602093600196938796938794601f1981161062001ce7575b505050811b01855562001c8c565b015160001960f88460031b161c1916905538808062001cd9565b9192602060018192868501518155019401920162001cb3565b62001d4990856000526020600020601f850160051c810191602086106200095457601f0160051c019062003453565b8e62001c54565b600485016000526020600020908382015b818301811062001d73575050620018ec565b8062001d826001925462003416565b8062001d91575b500162001d61565b601f8111831462001da95750600081555b8e62001d89565b60009082825262001dc9601f60208420920160051c820185830162003453565b8183555562001da2565b015190508a80620018a7565b9250600385016000526020600020906000935b601f198416851062001e3a576001945083601f1981161062001e20575b505050811b016003830155620018bf565b015160001960f88460031b161c191690558a808062001e0f565b8181015183556020948501946001909301929091019062001df2565b62001e8890600387016000526020600020601f850160051c810191602086106200095457601f0160051c019062003453565b8b6200188e565b015190508a8062001844565b9250600285016000526020600020906000935b601f198416851062001ef6576001945083601f1981161062001edc575b505050811b0160028301556200185c565b015160001960f88460031b161c191690558a808062001ecb565b8181015183556020948501946001909301929091019062001eae565b62001f4490600287016000526020600020601f850160051c810191602086106200095457601f0160051c019062003453565b8b6200182b565b015190508a80620017c6565b9250846000526020600020906000935b601f198416851062001fac576001945083601f1981161062001f92575b505050811b018255620017db565b015160001960f88460031b161c191690558a808062001f84565b8181015183556020948501946001909301929091019062001f67565b62001ff790866000526020600020601f850160051c810191602086106200095457601f0160051c019062003453565b8b620017ad565b60405162461bcd60e51b815260206004820152601960248201527f537562646f6d61696e2063616e6e6f7420626520656d707479000000000000006044820152606490fd5b60405161034081016001600160401b038111828210176200095f576040526019815260005b61032081106200303357506200207d6200308d565b600381526266617160e81b6020820152620020988262003134565b52620020a48162003134565b50620020af6200308d565b6004815263068656c760e41b6020820152620020cb8262003158565b52620020d78162003158565b50620020e26200308d565b60078152661cdd5c1c1bdc9d60ca1b6020820152620021018262003169565b526200210d8162003169565b50620021186200308d565b60048152636e65777360e01b602082015262002134826200317a565b5262002140816200317a565b506200214b6200308d565b600d81526c616e6e6f756e63656d656e747360981b602082015262002170826200318b565b526200217c816200318b565b50620021876200308d565b600781526636b7b734ba37b960c91b6020820152620021a6826200319c565b52620021b2816200319c565b50620021bd6200308d565b600681526573746174757360d01b6020820152620021db82620031ad565b52620021e781620031ad565b50620021f26200308d565b60068152650d0cac2d8e8d60d31b60208201526200221082620031be565b526200221c81620031be565b50620022276200308d565b6006815265616c6572747360d01b60208201526200224582620031d0565b526200225181620031d0565b506200225c6200308d565b60048152630e8cac6d60e31b60208201526200227882620031e2565b526200228481620031e2565b506200228f6200308d565b60088152671c1c9bdd1bd8dbdb60c21b6020820152620022af82620031f4565b52620022bb81620031f4565b50620022c66200308d565b6009815268636f6e74726163747360b81b6020820152620022e78262003206565b52620022f38162003206565b50620022fe6200308d565b6005815264185d591a5d60da1b60208201526200231b8262003218565b52620023278162003218565b50620023326200308d565b60058152641b1959d85b60da1b60208201526200234f826200322a565b526200235b816200322a565b50620023666200308d565b600a815269636f6d706c69616e636560b01b602082015262002388826200323c565b5262002394816200323c565b506200239f6200308d565b600a815269726567756c61746f727960b01b6020820152620023c1826200324e565b52620023cd816200324e565b50620023d86200308d565b60038152626b796360e81b6020820152620023f38262003260565b52620023ff8162003260565b506200240a6200308d565b60068152656576656e747360d01b6020820152620024288262003272565b52620024348162003272565b506200243f6200308d565b60068152651cdbd8da585b60d21b60208201526200245d8262003284565b52620024698162003284565b50620024746200308d565b60078152663a3bb4ba3a32b960c91b6020820152620024938262003296565b526200249f8162003296565b50620024aa6200308d565b60088152673634b735b2b234b760c11b6020820152620024ca82620032a8565b52620024d681620032a8565b50620024e16200308d565b60068152656d616e61676560d01b6020820152620024ff82620032ba565b526200250b81620032ba565b50620025166200308d565b600881526773657474696e677360c01b60208201526200253682620032cc565b526200254281620032cc565b506200254d6200308d565b6006815265636f6e66696760d01b60208201526200256b82620032de565b526200257781620032de565b50620025826200308d565b60078152667365727669636560c81b6020820152620025a182620032f0565b52620025ad81620032f0565b50620025b8620030cd565b90620025c36200308d565b600a81526944414f206f776e65727360b01b6020820152620025e58362003134565b52620025f18262003134565b50620025fc6200308d565b600e81526d566572696669656420757365727360901b6020820152620026228362003158565b526200262e8262003158565b5062002639620030ff565b620026436200308d565b601b81527f417661696c61626c65207769746820726567697374726174696f6e00000000006020820152620026788262003134565b52620026848162003134565b5060005b82518110156200300a576200269e8184620033b6565b51620026a96200308d565b90600f82526e4d656469756d205072696f7269747960881b6020830152620026d06200308d565b601981527f4d656469756d207072696f7269747920737562646f6d61696e00000000000000602082015281511562001ffe5760ff60405160208185516200271b8183858a01620033f1565b81016003815203019020541662000de057620027366200306c565b908282526002602083015283604083015260608201528660808201528460a0820152600160c08201524260e0820152426101008201526040516020818451620027838183858901620033f1565b8101600281520301902090805180519060018060401b0382116200095f578190620027af855462003416565b601f811162002fd4575b50602090601f831160011462002f635760009262002f57575b50508160011b916000199060031b1c19161782555b6020810151600481101562000d17576200280590600184016200346c565b60408101518051906001600160401b0382116200095f5781906200282d600286015462003416565b601f811162002f1e575b50602090601f831160011462002ea75760009262002e9b575b50508160011b916000199060031b1c19161760028301555b60608101518051906001600160401b0382116200095f57819062002890600386015462003416565b601f811162002e62575b50602090601f831160011462002deb5760009262002ddf575b50508160011b916000199060031b1c19161760038301555b60808101518051906801000000000000000082116200095f57600484015482600486015580831062002d5c575b50602001906004840160005260206000206000925b82841062002c36575050505060a08101518051906801000000000000000082116200095f57600584015482600586015580831062002bb3575b50602001906005840160005260206000206000925b82841062002a8d57505050509162002a48916008610100856200299960c062002a879a999801511515600686019060ff801983541691151516179055565b60e0810151600785015501519101556040516020818351620029bf8183858801620033f1565b8101600381520301902060ff199060018282541617905560026040516020818551620029ef8183858a01620033f1565b810160048152030190209182541617905562002a0d600854620033cb565b600855600260005260096020527f6cde3cea4b3a3fb2488b2808bae7556f4a405e50f65e1794383bc026131b13c380546200078990620033cb565b8101039020600080516020620055d683398151915260405160028152604060208201526200080e845180958160408501526020606085019101620033f1565b62002688565b80518051906001600160401b0382116200095f5762002aad845462003416565b601f811162002b7d575b50602090601f831160011462002b0857928260019493602093869560009262002afc575b5050600019600383901b1c191690841b1785555b019201930192906200295b565b01519050388062002adb565b908460005260206000209160005b601f198516811062002b64575083602093600196938796938794601f1981161062002b4a575b505050811b01855562002aef565b015160001960f88460031b161c1916905538808062002b3c565b9192602060018192868501518155019401920162002b16565b62002bac90856000526020600020601f850160051c810191602086106200095457601f0160051c019062003453565b8e62002ab7565b600585016000526020600020908382015b818301811062002bd657505062002946565b8062002be56001925462003416565b8062002bf4575b500162002bc4565b601f8111831462002c0c5750600081555b8e62002bec565b60009082825262002c2c601f60208420920160051c820185830162003453565b8183555562002c05565b80518051906001600160401b0382116200095f5762002c56845462003416565b601f811162002d26575b50602090601f831160011462002cb157928260019493602093869560009262002ca5575b5050600019600383901b1c191690841b1785555b019201930192906200290d565b01519050388062002c84565b908460005260206000209160005b601f198516811062002d0d575083602093600196938796938794601f1981161062002cf3575b505050811b01855562002c98565b015160001960f88460031b161c1916905538808062002ce5565b9192602060018192868501518155019401920162002cbf565b62002d5590856000526020600020601f850160051c810191602086106200095457601f0160051c019062003453565b8e62002c60565b600485016000526020600020908382015b818301811062002d7f575050620028f8565b8062002d8e6001925462003416565b8062002d9d575b500162002d6d565b601f8111831462002db55750600081555b8e62002d95565b60009082825262002dd5601f60208420920160051c820185830162003453565b8183555562002dae565b015190508a80620028b3565b9250600385016000526020600020906000935b601f198416851062002e46576001945083601f1981161062002e2c575b505050811b016003830155620028cb565b015160001960f88460031b161c191690558a808062002e1b565b8181015183556020948501946001909301929091019062002dfe565b62002e9490600387016000526020600020601f850160051c810191602086106200095457601f0160051c019062003453565b8b6200289a565b015190508a8062002850565b9250600285016000526020600020906000935b601f198416851062002f02576001945083601f1981161062002ee8575b505050811b01600283015562002868565b015160001960f88460031b161c191690558a808062002ed7565b8181015183556020948501946001909301929091019062002eba565b62002f5090600287016000526020600020601f850160051c810191602086106200095457601f0160051c019062003453565b8b62002837565b015190508a80620027d2565b9250846000526020600020906000935b601f198416851062002fb8576001945083601f1981161062002f9e575b505050811b018255620027e7565b015160001960f88460031b161c191690558a808062002f90565b8181015183556020948501946001909301929091019062002f73565b6200300390866000526020600020601f850160051c810191602086106200095457601f0160051c019062003453565b8b620027b9565b3360005260066020526040600020600160ff198254161790556040516121509081620034868239f35b80606060208093850101520162002068565b80606060208093850101520162000e8e565b606060a08201526020016200005c565b600080fd5b6040519061012082016001600160401b038111838210176200095f57604052565b60408051919082016001600160401b038111838210176200095f57604052565b60405190606082016001600160401b038111838210176200095f57604052565b620030d7620030ad565b90600282528160005b60408110620030ed575050565b806060602080938501015201620030e0565b620031096200308d565b600181528060005b6020808210156200312e5790606060209282850101520162003111565b50505090565b805115620031425760200190565b634e487b7160e01b600052603260045260246000fd5b805160011015620031425760400190565b805160021015620031425760600190565b805160031015620031425760800190565b805160041015620031425760a00190565b805160051015620031425760c00190565b805160061015620031425760e00190565b80516007101562003142576101000190565b80516008101562003142576101200190565b80516009101562003142576101400190565b8051600a101562003142576101600190565b8051600b101562003142576101800190565b8051600c101562003142576101a00190565b8051600d101562003142576101c00190565b8051600e101562003142576101e00190565b8051600f101562003142576102000190565b80516010101562003142576102200190565b80516011101562003142576102400190565b80516012101562003142576102600190565b80516013101562003142576102800190565b80516014101562003142576102a00190565b80516015101562003142576102c00190565b80516016101562003142576102e00190565b80516017101562003142576103000190565b80516018101562003142576103200190565b80516019101562003142576103400190565b8051601a101562003142576103600190565b8051601b101562003142576103800190565b8051601c101562003142576103a00190565b8051601d101562003142576103c00190565b8051601e101562003142576103e00190565b8051601f101562003142576104000190565b80516020101562003142576104200190565b80516021101562003142576104400190565b80516022101562003142576104600190565b8051821015620031425760209160051b010190565b6000198114620033db5760010190565b634e487b7160e01b600052601160045260246000fd5b60005b838110620034055750506000910152565b8181015183820152602001620033f4565b90600182811c9216801562003448575b60208310146200343257565b634e487b7160e01b600052602260045260246000fd5b91607f169162003426565b8181106200345f575050565b6000815560010162003453565b90600481101562000d175760ff8019835416911617905556fe608080604052600436101561001357600080fd5b60e0600035811c9182630a2eb301146118d0575081630b2da6e5146114e45781630e7741f51461125e57816314d0f1ba146114a157816330163396146112ac5781633361c49e1461125e578163372d6b271461119257816339b1be4a14610724578163472eb86f14610f3b5781634a4e3bd514610f2057816351858e2714610f205781635230f6cc14610ed757816368fa813414610e4b578163715018a614610df257816376be158514610daf578163869d785f14610d4d5781638da5cb5b14610d245781639eb32ed314610c01578163a68f0d91146109c5578163b13f1154146108c657508063b532e4cb14610852578063bd6ed133146107bb578063bd8bf9691461078a578063c38dec4414610724578063c9991176146106db578063ef5d82a91461055f578063f2fde38b14610494578063f625dc4d146102b5578063fa6f39361461023d578063fd1668731461021f5763fe35f2f51461017657600080fd5b3461021a5760208060031936011261021a57600435600481101561021a5761019d90611c49565b54906101a8826119bd565b916101b66040519384611946565b8083526101c5601f19916119bd565b018160005b82811061020a575050506000600854905b8181106101fc5750506101f8604051928284938452830190611aef565b0390f35b61020590611f58565b6101db565b60608282870101520182906101ca565b600080fd5b3461021a57600036600319011261021a576020600854604051908152f35b3461021a57602036600319011261021a576004356001600160a01b038181169182900361021a57816020926000526007835260ff604060002054169182156102a1575b8215610293575b50506040519015158152f35b600054161490508280610287565b6006845260406000205460ff169250610280565b3461021a576102c336611a84565b336000526020916007835260ff604060002054168015610481575b801561046d575b6102ee90611cba565b6103308360405161031f60ff85519284818189019561030e818389611a54565b810160038152030190205416611f87565b604051809381928651928391611a54565b81016002815203019020600060048201908154905b8181106103ef5750600160401b8110156103d95761036891600182018155611c1b565b6103c3577f795998f47a4310517e8bfe9bb111b3315fc737453dda161c0b583f1da9353398926103be9261039f866103aa94611dad565b600842910155611f67565b926040519182918683523396830190611aca565b0390a3005b634e487b7160e01b600052600060045260246000fd5b634e487b7160e01b600052604160045260246000fd5b61040c6104136103ff8386611c1b565b5060405192838092611b85565b0382611946565b878151910120865188880120146104325761042d90611f58565b610345565b60405162461bcd60e51b8152600481018890526013602482015272526f6c6520616c72656164792065786973747360681b6044820152606490fd5b506000546001600160a01b031633146102e5565b506006835260ff604060002054166102de565b3461021a57602036600319011261021a576004356001600160a01b038181169182900361021a576104c3611c62565b811561050b57600054826bffffffffffffffffffffffff60a01b821617600055167f8be0079c531659141344cd1fd0a4f28419497f9722a3daafe3b4186f6b6457e0600080a3005b60405162461bcd60e51b815260206004820152602660248201527f4f776e61626c653a206e6577206f776e657220697320746865207a65726f206160448201526564647265737360d01b6064820152608490fd5b3461021a57604036600319011261021a576004356001600160401b03811161021a5761058f903690600401611967565b60243590600482101561021a5761068c61062592336000526106766020936007855260ff6040600020541680156106c8575b80156106b4575b6105d190611cba565b61067183610662876040516105f560ff8751928481818b019561030e818389611a54565b60405182818851610607818387611a54565b8101600281520301902061064b856001830160ff8154169e8f611c49565b61062f8154611fcc565b905561063a82611c49565b6106448154611f58565b9055611e74565b600842910155604051809381928851928391611a54565b81016004815203019020611e74565b611f67565b926106846040518096611a77565b840190611a77565b7f0aaa1de6d41d092785d04b9aa267690baab9ccd22d6a967fe6d4424d7653f22160403393a3005b506000546001600160a01b031633146105c8565b506006855260ff604060002054166105c1565b3461021a57602036600319011261021a576004356001600160a01b0381169081900361021a57610709611c62565b6000908152600660205260409020805460ff19166001179055005b3461021a57602036600319011261021a576004356001600160401b03811161021a5760ff61076f602061075c81943690600401611967565b8160405193828580945193849201611a54565b8101600481520301902054166107886040518092611a77565bf35b3461021a57602036600319011261021a57600435600481101561021a576107b2602091611c49565b54604051908152f35b3461021a57604036600319011261021a576004356001600160401b03811161021a576107eb903690600401611967565b6108076020602435928160405193828580945193849201611a54565b8101600581520301902090815481101561021a5761082491611c1b565b6103c35761040c61083e6101f89260405192838092611b85565b604051918291602083526020830190611aca565b3461021a57602036600319011261021a576004356001600160a01b038181169182900361021a5761089d9033600052600660205260ff604060002054169081156108b8575b50611cba565b6000908152600760205260409020805460ff19166001179055005b600054163314905083610897565b3461021a57602036600319011261021a576004356001600160401b03811161021a57602061075c6108fb923690600401611967565b81016002815203019020906040519161091f836109188184611b85565b0384611946565b60ff60018201541690604051906109448261093d8160028501611b85565b0383611946565b6109af60405161095b8161040c8160038701611b85565b6109a160ff6006850154169560086007860154950154956109946109896040519b8b8d9c8d528c0190611aca565b9260208b0190611a77565b88820360408a0152611aca565b908682036060880152611aca565b921515608085015260a084015260c08301520390f35b3461021a5760208060031936011261021a576004356001600160401b03811161021a576109f6903690600401611967565b60405191610a038361192a565b6060918284528184016000905282604085015282808501528260808501528260a085015260c084016000905284840160009052610100809401600090528160405191805192828181840195610a59818389611a54565b810160038152030190205460ff16610a7090611f87565b60405180938192518092610a8392611a54565b8101600281520301902060405193610a9a8561192a565b60405180610aa88185611b85565b03610ab39082611946565b8552600182015460ff169183860192610acc9084611d43565b6040519687610ade8160028501611b85565b03610ae99089611946565b6040878101988952519586610b018160038601611b85565b03610b0c9088611946565b878101968752610b1e600484016120b5565b60808901908152610b31600585016120b5565b9060a08a01918252600685015460ff169860c08b019915158a52600786015495858c019687526008015497878c019889526040519c8d809d8c825251610120809d8301526101408201610b8391611aca565b925190604001610b9291611a77565b51908c601f19968782840301910152610baa91611aca565b905190848c82030160808d0152610bc091611aca565b905190838b82030160a08c0152610bd691611aef565b9051918982030160c08a0152610beb91611aef565b9551151590870152519085015251908301520390f35b3461021a57610c0f36611a84565b903360005261068c610cef60ff60016020956007875282604060002054168015610d12575b8015610cfe575b610c4490611cba565b610ce0610c778888610c6687604051848181865196019561030e818389611a54565b604051809381928c51928391611a54565b810160028152030190209160028301610c9b8a60405161075c8161040c8187611b85565b8101600a815203019020610caf8154611fcc565b90556040518a818451610cc58183858901611a54565b8101600a815203019020610cd98154611f58565b9055611dad565b42600882015501541692611f67565b91604051936106848583611a77565b5060005460a083901b839003163314610c3b565b50600687528260406000205416610c34565b3461021a57600036600319011261021a576000546040516001600160a01b039091168152602090f35b3461021a57602036600319011261021a576004356001600160a01b038181169182900361021a57610d979033600052600660205260ff604060002054169081156108b85750611cba565b6000908152600760205260409020805460ff19169055005b3461021a57602036600319011261021a576004356001600160a01b0381169081900361021a576000526006602052602060ff604060002054166040519015158152f35b3461021a57600036600319011261021a57610e0b611c62565b600080546001600160a01b0319811682556001600160a01b03167f8be0079c531659141344cd1fd0a4f28419497f9722a3daafe3b4186f6b6457e08280a3005b3461021a57602036600319011261021a576004356001600160a01b038181169182900361021a57610e7a611c62565b600054168114610e9c576000908152600660205260409020805460ff19169055005b60405162461bcd60e51b815260206004820152601360248201527221b0b73737ba103932b6b7bb329037bbb732b960691b6044820152606490fd5b3461021a57602036600319011261021a576004356001600160401b03811161021a57610f0d602061075c81933690600401611967565b8101600a81520301902054604051908152f35b3461021a57600036600319011261021a57610f39611c62565b005b3461021a57610f4936611a84565b903360005260206007815260ff60406000205416801561117f575b801561116b575b610f7790939293611cba565b610fa881604051610f9760ff8751928481818b019561030e818389611a54565b604051809381928851928391611a54565b810160028152030190209060009260009460048401955b86548110156111605761040c610fd86103ff838a611c1b565b84815191012083518585012014610ff757610ff290611f58565b610fbf565b9091929394505b8554600019810190811161104f57811015611065576001810180821161104f576110289087611c1b565b50906110348188611c1b565b6103c35761104a9261104591611fd9565b611f58565b610ffe565b634e487b7160e01b600052601160045260246000fd5b5091939290928054801561114a5760001901906110828282611c1b565b6103c3576110908154611b4b565b908161110c575b50505560015b156110d6576103aa7feaf4da99cce5365e73d90fdc83fae3bbea6e6e8d30922527d5f9647b0a322b98926103be92600842910155611f67565b60405162461bcd60e51b815260048101859052600e60248201526d149bdb19481b9bdd08199bdd5b9960921b6044820152606490fd5b600091601f808211600114611126575050555b8680611097565b916111438492938284528b8420940160051c840160018501611d4f565b555561111f565b634e487b7160e01b600052603160045260246000fd5b50929194509261109d565b506000546001600160a01b03163314610f6b565b506006815260ff60406000205416610f64565b3461021a57600036600319011261021a57600854600960209081527fec8156718a8372b1db44bb411437d0870f3e3790d4a08526d024ce1b0b668f6b547f92e85d02570a8092d09a6e3a57665bc3815a2699a4074001bf1ccabf660f5a36547f6cde3cea4b3a3fb2488b2808bae7556f4a405e50f65e1794383bc026131b13c35460036000527fc575c31fea594a6eb97c8e9d3f9caee4c16218c6ef37e923234c0fe9014a61e7546040805196875294860193909352928401526060830191909152608082015260a090f35b3461021a57602036600319011261021a576004356001600160401b03811161021a5760ff611296602061075c81943690600401611967565b8101600381520301902054166040519015158152f35b3461021a5760208060031936011261021a576004356001600160401b03811161021a576112dd903690600401611967565b90336000526006815260ff60406000205416801561148d575b6112ff90611cba565b61144c6040519161131f60ff85519483818189019761030e81838b611a54565b61139181600261137260405183818a5161133a81838d611a54565b81018581520301902061135f60ff600183015416916109186040518096819301611b85565b61136a600854611fcc565b600855611c49565b61137c8154611fcc565b90558160405193828580945193849201611a54565b8101600a8152030190206113a58154611fcc565b905560006008604051838188516113bd81838b611a54565b810160028152030190206113d081611e8c565b8260018201556113e260028201611e8c565b6113ee60038201611e8c565b6113fa60048201611ed5565b61140660058201611ed5565b826006820155826007820155015560405181818651611426818389611a54565b810160038152030190209260ff1993848154169055604051809381928751928391611a54565b810160048152030190209081541690556114663391611f67565b7fa8dac546fc70b9163fbac7aac79ae0a67f0f0245fb3f85d56bddbde719e96984600080a3005b506000546001600160a01b031633146112f6565b3461021a57602036600319011261021a576004356001600160a01b0381169081900361021a576000526007602052602060ff604060002054166040519015158152f35b3461021a5760c036600319011261021a576001600160401b039060043582811161021a57611516903690600401611967565b6004602435101561021a5760443583811161021a57611539903690600401611967565b9160643584811161021a57611552903690600401611967565b60843585811161021a5761156a9036906004016119d4565b9460a43590811161021a576115839036906004016119d4565b33600052600660205260ff6040600020541680156118bc575b6115a590611cba565b6115d160ff60405160208188516115bf8183858d01611a54565b81016003815203019020541615611cf7565b835115611877576115f260ff60405160208188516115bf8183858d01611a54565b604051956115ff8761192a565b848752602087019261161360243585611d43565b8660408901526060880152608087015260a0860152600160c086015242828601524261010086015260405160208185516116508183858a01611a54565b8101600281520301902090611666865183611dad565b5160048110156118615761167d9060018301611e74565b61168e604086015160028301611dad565b61169f606086015160038301611dad565b6004810160808601519060208251926116b88484611f0f565b019060005260206000206000915b83831061184457505050506005810160a08601519060208251926116ea8484611f0f565b019060005260206000206000915b838310611827575050505060086101006117e09596600684019460c082015115159560ff199660ff888354169116179055810151600785015501519101556001604051602081855161174d8183858a01611a54565b810160038152030190209182541617905561178b6040518251611774818360208701611a54565b810190600482526020816024359303019020611e74565b611796600854611f58565b6008556117a4602435611c49565b6117ae8154611f58565b905560405160208185516117c58183858a01611a54565b8101600a8152030190206117d98154611f58565b9055611f67565b7fba9ab442e9d5733cdce0033dcf8a5c0cbe065ccbddc20b6e7d5243906bc4552d60405161181081602435611a77565b60406020820152806103be33956040830190611aca565b600160208261183883945186611dad565b019201920191906116f8565b600160208261185583945186611dad565b019201920191906116c6565b634e487b7160e01b600052602160045260246000fd5b60405162461bcd60e51b815260206004820152601960248201527f537562646f6d61696e2063616e6e6f7420626520656d707479000000000000006044820152606490fd5b506000546001600160a01b0316331461159c565b3461021a57602036600319011261021a576004356001600160a01b03818116929183900361021a57826020936000526006845260ff6040600020541691821561191c575b505015158152f35b600054161490508380611914565b61012081019081106001600160401b038211176103d957604052565b90601f801991011681019081106001600160401b038211176103d957604052565b81601f8201121561021a578035906001600160401b0382116103d9576040519261199b601f8401601f191660200185611946565b8284526020838301011161021a57816000926020809301838601378301015290565b6001600160401b0381116103d95760051b60200190565b9080601f8301121561021a578135906119ec826119bd565b926119fa6040519485611946565b828452602092838086019160051b8301019280841161021a57848301915b848310611a285750505050505090565b82356001600160401b03811161021a578691611a4984848094890101611967565b815201920191611a18565b60005b838110611a675750506000910152565b8181015183820152602001611a57565b9060048210156118615752565b90604060031983011261021a576001600160401b0360043581811161021a5783611ab091600401611967565b9260243591821161021a57611ac791600401611967565b90565b90602091611ae381518092818552858086019101611a54565b601f01601f1916010190565b908082519081815260208091019281808460051b8301019501936000915b848310611b1d5750505050505090565b9091929394958480611b3b600193601f198682030187528a51611aca565b9801930193019194939290611b0d565b90600182811c92168015611b7b575b6020831014611b6557565b634e487b7160e01b600052602260045260246000fd5b91607f1691611b5a565b9060009291805491611b9683611b4b565b918282526001938481169081600014611bf85750600114611bb8575b50505050565b90919394506000526020928360002092846000945b838610611be4575050505001019038808080611bb2565b805485870183015294019385908201611bcd565b9294505050602093945060ff191683830152151560051b01019038808080611bb2565b8054821015611c335760005260206000200190600090565b634e487b7160e01b600052603260045260246000fd5b6004811015611861576000526009602052604060002090565b6000546001600160a01b03163303611c7657565b606460405162461bcd60e51b815260206004820152602060248201527f4f776e61626c653a2063616c6c6572206973206e6f7420746865206f776e65726044820152fd5b15611cc157565b60405162461bcd60e51b815260206004820152600e60248201526d139bdd08185d5d1a1bdc9a5e995960921b6044820152606490fd5b15611cfe57565b60405162461bcd60e51b815260206004820152601a60248201527f537562646f6d61696e20616c72656164792072657365727665640000000000006044820152606490fd5b60048210156118615752565b818110611d5a575050565b60008155600101611d4f565b9190601f8111611d7557505050565b611da1926000526020600020906020601f840160051c83019310611da3575b601f0160051c0190611d4f565b565b9091508190611d94565b91909182516001600160401b0381116103d957611dd481611dce8454611b4b565b84611d66565b602080601f8311600114611e10575081929394600092611e05575b50508160011b916000199060031b1c1916179055565b015190503880611def565b90601f198316958460005282600020926000905b888210611e5c57505083600195969710611e43575b505050811b019055565b015160001960f88460031b161c19169055388080611e39565b80600185968294968601518155019501930190611e24565b9060048110156118615760ff80198354169116179055565b611e968154611b4b565b9081611ea0575050565b81601f60009311600114611eb2575055565b908083918252611ed1601f60208420940160051c840160018501611d4f565b5555565b8054906000815581611ee5575050565b6000526020600020908101905b818110611efd575050565b80611f09600192611e8c565b01611ef2565b90600160401b81116103d957815491818155828210611f2d57505050565b600052602060002091820191015b818110611f46575050565b80611f52600192611e8c565b01611f3b565b600019811461104f5760010190565b611f7f90602060405192828480945193849201611a54565b810103902090565b15611f8e57565b60405162461bcd60e51b815260206004820152601660248201527514dd58991bdb585a5b881b9bdd081c995cd95c9d995960521b6044820152606490fd5b801561104f576000190190565b908082146120b157611feb8154611b4b565b906001600160401b0382116103d95781906120108261200a8654611b4b565b86611d66565b600090601f83116001146120465760009261203b5750508160011b916000199060031b1c1916179055565b015490503880611def565b81526020808220858352818320935090601f1985169083905b82821061209857505090846001959493921061207f57505050811b019055565b015460001960f88460031b161c19169055388080611e39565b849581929585015481556001809101960194019061205f565b5050565b9081546120c1816119bd565b926040936120d185519182611946565b828152809460208092019260005281600020906000935b8585106120f757505050505050565b6001848192845161210c8161040c818a611b85565b8152019301940193916120e856fea26469706673582212209f37285d7d04fec4ba9759dadba069b1189a0a773af00be18abff55afae893a664736f6c63430008130033ba9ab442e9d5733cdce0033dcf8a5c0cbe065ccbddc20b6e7d5243906bc4552d",
  "linkReferences": {},
  "deployedLinkReferences": {}
}