{
  "_format": "hh-sol-artifact-1",
  "contractName": "ReservedSubdomains",
  "sourceName": "contracts/ReservedSubdomains.sol",
  "abi": [
    {
      "inputs": [],
      "stateMutability": "nonpayable",
      "type": "constructor"
    },
    {
      "anonymous": false,
      "inputs": [
        {
          "indexed": true,
          "internalType": "string",
          "name": "subdomain",
          "type": "string"
        },
        {
          "indexed": true,
          "internalType": "bytes32",
          "name": "dataHash",
          "type": "bytes32"
        },
        {
          "indexed": true,
          "internalType": "address",
          "name": "dataProvider",
          "type": "address"
        }
      ],
      "name": "CCIPDataStored",
      "type": "event"
    },
    {
      "anonymous": false,
      "inputs": [
        {
          "indexed": true,
          "internalType": "address",
          "name": "previousOwner",
          "type": "address"
        },
        {
          "indexed": true,
          "internalType": "address",
          "name": "newOwner",
          "type": "address"
        }
      ],
      "name": "OwnershipTransferred",
      "type": "event"
    },
    {
      "anonymous": false,
      "inputs": [
        {
          "indexed": true,
          "internalType": "string",
          "name": "subdomain",
          "type": "string"
        },
        {
          "indexed": false,
          "internalType": "string",
          "name": "role",
          "type": "string"
        },
        {
          "indexed": true,
          "internalType": "address",
          "name": "addedBy",
          "type": "address"
        }
      ],
      "name": "RoleAdded",
      "type": "event"
    },
    {
      "anonymous": false,
      "inputs": [
        {
          "indexed": true,
          "internalType": "string",
          "name": "subdomain",
          "type": "string"
        },
        {
          "indexed": false,
          "internalType": "string",
          "name": "role",
          "type": "string"
        },
        {
          "indexed": true,
          "internalType": "address",
          "name": "removedBy",
          "type": "address"
        }
      ],
      "name": "RoleRemoved",
      "type": "event"
    },
    {
      "anonymous": false,
      "inputs": [
        {
          "indexed": true,
          "internalType": "string",
          "name": "subdomain",
          "type": "string"
        },
        {
          "indexed": false,
          "internalType": "enum ReservedSubdomains.SchemaPriority",
          "name": "priority",
          "type": "uint8"
        },
        {
          "indexed": false,
          "internalType": "string",
          "name": "category",
          "type": "string"
        },
        {
          "indexed": false,
          "internalType": "string",
          "name": "version",
          "type": "string"
        },
        {
          "indexed": true,
          "internalType": "address",
          "name": "definedBy",
          "type": "address"
        }
      ],
      "name": "SchemaDefined",
      "type": "event"
    },
    {
      "anonymous": false,
      "inputs": [
        {
          "indexed": true,
          "internalType": "string",
          "name": "subdomain",
          "type": "string"
        },
        {
          "indexed": false,
          "internalType": "string",
          "name": "version",
          "type": "string"
        },
        {
          "indexed": true,
          "internalType": "address",
          "name": "deprecatedBy",
          "type": "address"
        }
      ],
      "name": "SchemaDeprecated",
      "type": "event"
    },
    {
      "anonymous": false,
      "inputs": [
        {
          "indexed": true,
          "internalType": "string",
          "name": "subdomain",
          "type": "string"
        },
        {
          "indexed": false,
          "internalType": "string",
          "name": "oldVersion",
          "type": "string"
        },
        {
          "indexed": false,
          "internalType": "string",
          "name": "newVersion",
          "type": "string"
        },
        {
          "indexed": true,
          "internalType": "address",
          "name": "updatedBy",
          "type": "address"
        }
      ],
      "name": "SchemaUpdated",
      "type": "event"
    },
    {
      "inputs": [
        {
          "internalType": "address",
          "name": "admin",
          "type": "address"
        }
      ],
      "name": "addAdministrator",
      "outputs": [],
      "stateMutability": "nonpayable",
      "type": "function"
    },
    {
      "inputs": [
        {
          "internalType": "address",
          "name": "provider",
          "type": "address"
        }
      ],
      "name": "addDataProvider",
      "outputs": [],
      "stateMutability": "nonpayable",
      "type": "function"
    },
    {
      "inputs": [
        {
          "internalType": "address",
          "name": "moderator",
          "type": "address"
        }
      ],
      "name": "addModerator",
      "outputs": [],
      "stateMutability": "nonpayable",
      "type": "function"
    },
    {
      "inputs": [
        {
          "internalType": "string",
          "name": "subdomain",
          "type": "string"
        },
        {
          "internalType": "enum ReservedSubdomains.SchemaPriority",
          "name": "priority",
          "type": "uint8"
        },
        {
          "internalType": "string",
          "name": "category",
          "type": "string"
        },
        {
          "internalType": "string",
          "name": "description",
          "type": "string"
        },
        {
          "internalType": "string",
          "name": "version",
          "type": "string"
        },
        {
          "internalType": "string",
          "name": "ccipInterface",
          "type": "string"
        },
        {
          "components": [
            {
              "internalType": "string",
              "name": "fieldName",
              "type": "string"
            },
            {
              "internalType": "enum ReservedSubdomains.DataType",
              "name": "dataType",
              "type": "uint8"
            },
            {
              "internalType": "bool",
              "name": "required",
              "type": "bool"
            },
            {
              "internalType": "string",
              "name": "description",
              "type": "string"
            },
            {
              "internalType": "string",
              "name": "validationRule",
              "type": "string"
            },
            {
              "internalType": "string",
              "name": "defaultValue",
              "type": "string"
            }
          ],
          "internalType": "struct ReservedSubdomains.SchemaField[]",
          "name": "fields",
          "type": "tuple[]"
        },
        {
          "internalType": "string[]",
          "name": "allowedRoles",
          "type": "string[]"
        },
        {
          "internalType": "string[]",
          "name": "restrictions",
          "type": "string[]"
        },
        {
          "internalType": "string",
          "name": "apiEndpoint",
          "type": "string"
        },
        {
          "internalType": "string",
          "name": "documentationUrl",
          "type": "string"
        }
      ],
      "name": "addSchema",
      "outputs": [],
      "stateMutability": "nonpayable",
      "type": "function"
    },
    {
      "inputs": [
        {
          "internalType": "address",
          "name": "",
          "type": "address"
        }
      ],
      "name": "administrators",
      "outputs": [
        {
          "internalType": "bool",
          "name": "",
          "type": "bool"
        }
      ],
      "stateMutability": "view",
      "type": "function"
    },
    {
      "inputs": [
        {
          "internalType": "string",
          "name": "",
          "type": "string"
        },
        {
          "internalType": "bytes32",
          "name": "",
          "type": "bytes32"
        }
      ],
      "name": "ccipData",
      "outputs": [
        {
          "internalType": "string",
          "name": "subdomain",
          "type": "string"
        },
        {
          "internalType": "string",
          "name": "schemaVersion",
          "type": "string"
        },
        {
          "internalType": "bytes32",
          "name": "dataHash",
          "type": "bytes32"
        },
        {
          "internalType": "uint256",
          "name": "timestamp",
          "type": "uint256"
        },
        {
          "internalType": "address",
          "name": "dataProvider",
          "type": "address"
        },
        {
          "internalType": "bool",
          "name": "isValid",
          "type": "bool"
        }
      ],
      "stateMutability": "view",
      "type": "function"
    },
    {
      "inputs": [
        {
          "internalType": "string",
          "name": "subdomain",
          "type": "string"
        },
        {
          "internalType": "bool",
          "name": "enabled",
          "type": "bool"
        },
        {
          "internalType": "enum ReservedSubdomains.UpdateTrigger",
          "name": "trigger",
          "type": "uint8"
        },
        {
          "internalType": "enum ReservedSubdomains.UpdateFrequency",
          "name": "frequency",
          "type": "uint8"
        },
        {
          "internalType": "uint256",
          "name": "customInterval",
          "type": "uint256"
        },
        {
          "internalType": "string[]",
          "name": "updateFields",
          "type": "string[]"
        },
        {
          "internalType": "string[]",
          "name": "triggerConditions",
          "type": "string[]"
        },
        {
          "internalType": "address",
          "name": "externalContract",
          "type": "address"
        },
        {
          "internalType": "bytes4",
          "name": "externalFunction",
          "type": "bytes4"
        },
        {
          "internalType": "bool",
          "name": "requireDataChange",
          "type": "bool"
        },
        {
          "internalType": "uint256",
          "name": "maxUpdateAge",
          "type": "uint256"
        }
      ],
      "name": "configureAutoUpdate",
      "outputs": [],
      "stateMutability": "nonpayable",
      "type": "function"
    },
    {
      "inputs": [
        {
          "internalType": "address",
          "name": "",
          "type": "address"
        }
      ],
      "name": "dataProviders",
      "outputs": [
        {
          "internalType": "bool",
          "name": "",
          "type": "bool"
        }
      ],
      "stateMutability": "view",
      "type": "function"
    },
    {
      "inputs": [
        {
          "internalType": "string",
          "name": "subdomain",
          "type": "string"
        },
        {
          "internalType": "enum ReservedSubdomains.SchemaPriority",
          "name": "priority",
          "type": "uint8"
        },
        {
          "internalType": "string",
          "name": "category",
          "type": "string"
        },
        {
          "internalType": "string",
          "name": "description",
          "type": "string"
        },
        {
          "internalType": "string",
          "name": "version",
          "type": "string"
        },
        {
          "internalType": "string",
          "name": "ccipInterface",
          "type": "string"
        },
        {
          "components": [
            {
              "internalType": "string",
              "name": "fieldName",
              "type": "string"
            },
            {
              "internalType": "enum ReservedSubdomains.DataType",
              "name": "dataType",
              "type": "uint8"
            },
            {
              "internalType": "bool",
              "name": "required",
              "type": "bool"
            },
            {
              "internalType": "string",
              "name": "description",
              "type": "string"
            },
            {
              "internalType": "string",
              "name": "validationRule",
              "type": "string"
            },
            {
              "internalType": "string",
              "name": "defaultValue",
              "type": "string"
            }
          ],
          "internalType": "struct ReservedSubdomains.SchemaField[]",
          "name": "fields",
          "type": "tuple[]"
        },
        {
          "internalType": "string[]",
          "name": "allowedRoles",
          "type": "string[]"
        },
        {
          "internalType": "string[]",
          "name": "restrictions",
          "type": "string[]"
        },
        {
          "internalType": "string",
          "name": "apiEndpoint",
          "type": "string"
        },
        {
          "internalType": "string",
          "name": "documentationUrl",
          "type": "string"
        }
      ],
      "name": "defineSchema",
      "outputs": [],
      "stateMutability": "nonpayable",
      "type": "function"
    },
    {
      "inputs": [],
      "name": "emergencyPause",
      "outputs": [],
      "stateMutability": "nonpayable",
      "type": "function"
    },
    {
      "inputs": [
        {
          "internalType": "string",
          "name": "subdomain",
          "type": "string"
        }
      ],
      "name": "getAutoUpdateConfig",
      "outputs": [
        {
          "components": [
            {
              "internalType": "bool",
              "name": "enabled",
              "type": "bool"
            },
            {
              "internalType": "enum ReservedSubdomains.UpdateTrigger",
              "name": "trigger",
              "type": "uint8"
            },
            {
              "internalType": "enum ReservedSubdomains.UpdateFrequency",
              "name": "frequency",
              "type": "uint8"
            },
            {
              "internalType": "uint256",
              "name": "lastUpdateTime",
              "type": "uint256"
            },
            {
              "internalType": "uint256",
              "name": "nextUpdateTime",
              "type": "uint256"
            },
            {
              "internalType": "uint256",
              "name": "customInterval",
              "type": "uint256"
            },
            {
              "internalType": "string[]",
              "name": "updateFields",
              "type": "string[]"
            },
            {
              "internalType": "string[]",
              "name": "triggerConditions",
              "type": "string[]"
            },
            {
              "internalType": "address",
              "name": "externalContract",
              "type": "address"
            },
            {
              "internalType": "bytes4",
              "name": "externalFunction",
              "type": "bytes4"
            },
            {
              "internalType": "bool",
              "name": "requireDataChange",
              "type": "bool"
            },
            {
              "internalType": "uint256",
              "name": "maxUpdateAge",
              "type": "uint256"
            }
          ],
          "internalType": "struct ReservedSubdomains.AutoUpdateConfig",
          "name": "",
          "type": "tuple"
        }
      ],
      "stateMutability": "view",
      "type": "function"
    },
    {
      "inputs": [
        {
          "internalType": "string",
          "name": "subdomain",
          "type": "string"
        },
        {
          "internalType": "bytes32",
          "name": "dataHash",
          "type": "bytes32"
        }
      ],
      "name": "getCCIPData",
      "outputs": [
        {
          "components": [
            {
              "internalType": "string",
              "name": "subdomain",
              "type": "string"
            },
            {
              "internalType": "string",
              "name": "schemaVersion",
              "type": "string"
            },
            {
              "internalType": "bytes32",
              "name": "dataHash",
              "type": "bytes32"
            },
            {
              "internalType": "uint256",
              "name": "timestamp",
              "type": "uint256"
            },
            {
              "internalType": "address",
              "name": "dataProvider",
              "type": "address"
            },
            {
              "internalType": "bool",
              "name": "isValid",
              "type": "bool"
            },
            {
              "internalType": "string[]",
              "name": "fieldNames",
              "type": "string[]"
            },
            {
              "internalType": "bytes[]",
              "name": "fieldValues",
              "type": "bytes[]"
            }
          ],
          "internalType": "struct ReservedSubdomains.CCIPData",
          "name": "",
          "type": "tuple"
        }
      ],
      "stateMutability": "view",
      "type": "function"
    },
    {
      "inputs": [
        {
          "internalType": "string",
          "name": "subdomain",
          "type": "string"
        }
      ],
      "name": "getSchema",
      "outputs": [
        {
          "components": [
            {
              "internalType": "string",
              "name": "subdomain",
              "type": "string"
            },
            {
              "internalType": "enum ReservedSubdomains.SchemaPriority",
              "name": "priority",
              "type": "uint8"
            },
            {
              "internalType": "string",
              "name": "category",
              "type": "string"
            },
            {
              "internalType": "string",
              "name": "description",
              "type": "string"
            },
            {
              "internalType": "string",
              "name": "version",
              "type": "string"
            },
            {
              "internalType": "string",
              "name": "ccipInterface",
              "type": "string"
            },
            {
              "components": [
                {
                  "internalType": "string",
                  "name": "fieldName",
                  "type": "string"
                },
                {
                  "internalType": "enum ReservedSubdomains.DataType",
                  "name": "dataType",
                  "type": "uint8"
                },
                {
                  "internalType": "bool",
                  "name": "required",
                  "type": "bool"
                },
                {
                  "internalType": "string",
                  "name": "description",
                  "type": "string"
                },
                {
                  "internalType": "string",
                  "name": "validationRule",
                  "type": "string"
                },
                {
                  "internalType": "string",
                  "name": "defaultValue",
                  "type": "string"
                }
              ],
              "internalType": "struct ReservedSubdomains.SchemaField[]",
              "name": "fields",
              "type": "tuple[]"
            },
            {
              "internalType": "string[]",
              "name": "allowedRoles",
              "type": "string[]"
            },
            {
              "internalType": "string[]",
              "name": "restrictions",
              "type": "string[]"
            },
            {
              "internalType": "bool",
              "name": "active",
              "type": "bool"
            },
            {
              "internalType": "uint256",
              "name": "createdAt",
              "type": "uint256"
            },
            {
              "internalType": "uint256",
              "name": "updatedAt",
              "type": "uint256"
            },
            {
              "internalType": "string",
              "name": "apiEndpoint",
              "type": "string"
            },
            {
              "internalType": "string",
              "name": "documentationUrl",
              "type": "string"
            },
            {
              "components": [
                {
                  "internalType": "bool",
                  "name": "enabled",
                  "type": "bool"
                },
                {
                  "internalType": "enum ReservedSubdomains.UpdateTrigger",
                  "name": "trigger",
                  "type": "uint8"
                },
                {
                  "internalType": "enum ReservedSubdomains.UpdateFrequency",
                  "name": "frequency",
                  "type": "uint8"
                },
                {
                  "internalType": "uint256",
                  "name": "lastUpdateTime",
                  "type": "uint256"
                },
                {
                  "internalType": "uint256",
                  "name": "nextUpdateTime",
                  "type": "uint256"
                },
                {
                  "internalType": "uint256",
                  "name": "customInterval",
                  "type": "uint256"
                },
                {
                  "internalType": "string[]",
                  "name": "updateFields",
                  "type": "string[]"
                },
                {
                  "internalType": "string[]",
                  "name": "triggerConditions",
                  "type": "string[]"
                },
                {
                  "internalType": "address",
                  "name": "externalContract",
                  "type": "address"
                },
                {
                  "internalType": "bytes4",
                  "name": "externalFunction",
                  "type": "bytes4"
                },
                {
                  "internalType": "bool",
                  "name": "requireDataChange",
                  "type": "bool"
                },
                {
                  "internalType": "uint256",
                  "name": "maxUpdateAge",
                  "type": "uint256"
                }
              ],
              "internalType": "struct ReservedSubdomains.AutoUpdateConfig",
              "name": "autoUpdateConfig",
              "type": "tuple"
            }
          ],
          "internalType": "struct ReservedSubdomains.ReservedSubdomainSchema",
          "name": "",
          "type": "tuple"
        }
      ],
      "stateMutability": "view",
      "type": "function"
    },
    {
      "inputs": [
        {
          "internalType": "string",
          "name": "subdomain",
          "type": "string"
        },
        {
          "internalType": "string",
          "name": "fieldName",
          "type": "string"
        }
      ],
      "name": "getSchemaField",
      "outputs": [
        {
          "components": [
            {
              "internalType": "string",
              "name": "fieldName",
              "type": "string"
            },
            {
              "internalType": "enum ReservedSubdomains.DataType",
              "name": "dataType",
              "type": "uint8"
            },
            {
              "internalType": "bool",
              "name": "required",
              "type": "bool"
            },
            {
              "internalType": "string",
              "name": "description",
              "type": "string"
            },
            {
              "internalType": "string",
              "name": "validationRule",
              "type": "string"
            },
            {
              "internalType": "string",
              "name": "defaultValue",
              "type": "string"
            }
          ],
          "internalType": "struct ReservedSubdomains.SchemaField",
          "name": "",
          "type": "tuple"
        }
      ],
      "stateMutability": "view",
      "type": "function"
    },
    {
      "inputs": [
        {
          "internalType": "string",
          "name": "subdomain",
          "type": "string"
        }
      ],
      "name": "getSchemaPriority",
      "outputs": [
        {
          "internalType": "enum ReservedSubdomains.SchemaPriority",
          "name": "",
          "type": "uint8"
        }
      ],
      "stateMutability": "view",
      "type": "function"
    },
    {
      "inputs": [
        {
          "internalType": "string",
          "name": "subdomain",
          "type": "string"
        }
      ],
      "name": "getSchemaValidationRules",
      "outputs": [
        {
          "internalType": "string[]",
          "name": "fieldNames",
          "type": "string[]"
        },
        {
          "internalType": "string[]",
          "name": "validationRules",
          "type": "string[]"
        }
      ],
      "stateMutability": "view",
      "type": "function"
    },
    {
      "inputs": [
        {
          "internalType": "string",
          "name": "category",
          "type": "string"
        }
      ],
      "name": "getSchemasByCategory",
      "outputs": [
        {
          "internalType": "string[]",
          "name": "",
          "type": "string[]"
        }
      ],
      "stateMutability": "view",
      "type": "function"
    },
    {
      "inputs": [
        {
          "internalType": "enum ReservedSubdomains.SchemaPriority",
          "name": "priority",
          "type": "uint8"
        }
      ],
      "name": "getSchemasByPriority",
      "outputs": [
        {
          "internalType": "string[]",
          "name": "",
          "type": "string[]"
        }
      ],
      "stateMutability": "view",
      "type": "function"
    },
    {
      "inputs": [],
      "name": "getStatistics",
      "outputs": [
        {
          "internalType": "uint256",
          "name": "total",
          "type": "uint256"
        },
        {
          "internalType": "uint256",
          "name": "critical",
          "type": "uint256"
        },
        {
          "internalType": "uint256",
          "name": "high",
          "type": "uint256"
        },
        {
          "internalType": "uint256",
          "name": "medium",
          "type": "uint256"
        },
        {
          "internalType": "uint256",
          "name": "low",
          "type": "uint256"
        }
      ],
      "stateMutability": "view",
      "type": "function"
    },
    {
      "inputs": [
        {
          "internalType": "string",
          "name": "subdomain",
          "type": "string"
        }
      ],
      "name": "getSubdomainDataHashes",
      "outputs": [
        {
          "internalType": "bytes32[]",
          "name": "",
          "type": "bytes32[]"
        }
      ],
      "stateMutability": "view",
      "type": "function"
    },
    {
      "inputs": [
        {
          "internalType": "string",
          "name": "",
          "type": "string"
        }
      ],
      "name": "hasSchema",
      "outputs": [
        {
          "internalType": "bool",
          "name": "",
          "type": "bool"
        }
      ],
      "stateMutability": "view",
      "type": "function"
    },
    {
      "inputs": [
        {
          "internalType": "string",
          "name": "subdomain",
          "type": "string"
        },
        {
          "internalType": "string",
          "name": "fieldName",
          "type": "string"
        }
      ],
      "name": "hasSchemaField",
      "outputs": [
        {
          "internalType": "bool",
          "name": "",
          "type": "bool"
        }
      ],
      "stateMutability": "view",
      "type": "function"
    },
    {
      "inputs": [
        {
          "internalType": "string",
          "name": "subdomain",
          "type": "string"
        }
      ],
      "name": "hasSubdomainSchema",
      "outputs": [
        {
          "internalType": "bool",
          "name": "",
          "type": "bool"
        }
      ],
      "stateMutability": "view",
      "type": "function"
    },
    {
      "inputs": [
        {
          "internalType": "address",
          "name": "addr",
          "type": "address"
        }
      ],
      "name": "isAdministrator",
      "outputs": [
        {
          "internalType": "bool",
          "name": "",
          "type": "bool"
        }
      ],
      "stateMutability": "view",
      "type": "function"
    },
    {
      "inputs": [
        {
          "internalType": "address",
          "name": "addr",
          "type": "address"
        }
      ],
      "name": "isDataProvider",
      "outputs": [
        {
          "internalType": "bool",
          "name": "",
          "type": "bool"
        }
      ],
      "stateMutability": "view",
      "type": "function"
    },
    {
      "inputs": [
        {
          "internalType": "address",
          "name": "addr",
          "type": "address"
        }
      ],
      "name": "isModerator",
      "outputs": [
        {
          "internalType": "bool",
          "name": "",
          "type": "bool"
        }
      ],
      "stateMutability": "view",
      "type": "function"
    },
    {
      "inputs": [
        {
          "internalType": "address",
          "name": "",
          "type": "address"
        }
      ],
      "name": "moderators",
      "outputs": [
        {
          "internalType": "bool",
          "name": "",
          "type": "bool"
        }
      ],
      "stateMutability": "view",
      "type": "function"
    },
    {
      "inputs": [
        {
          "internalType": "string",
          "name": "subdomain",
          "type": "string"
        }
      ],
      "name": "needsAutoUpdate",
      "outputs": [
        {
          "internalType": "bool",
          "name": "",
          "type": "bool"
        }
      ],
      "stateMutability": "view",
      "type": "function"
    },
    {
      "inputs": [],
      "name": "owner",
      "outputs": [
        {
          "internalType": "address",
          "name": "",
          "type": "address"
        }
      ],
      "stateMutability": "view",
      "type": "function"
    },
    {
      "inputs": [
        {
          "internalType": "address",
          "name": "admin",
          "type": "address"
        }
      ],
      "name": "removeAdministrator",
      "outputs": [],
      "stateMutability": "nonpayable",
      "type": "function"
    },
    {
      "inputs": [
        {
          "internalType": "address",
          "name": "provider",
          "type": "address"
        }
      ],
      "name": "removeDataProvider",
      "outputs": [],
      "stateMutability": "nonpayable",
      "type": "function"
    },
    {
      "inputs": [
        {
          "internalType": "address",
          "name": "moderator",
          "type": "address"
        }
      ],
      "name": "removeModerator",
      "outputs": [],
      "stateMutability": "nonpayable",
      "type": "function"
    },
    {
      "inputs": [
        {
          "internalType": "string",
          "name": "subdomain",
          "type": "string"
        }
      ],
      "name": "removeSchema",
      "outputs": [],
      "stateMutability": "nonpayable",
      "type": "function"
    },
    {
      "inputs": [],
      "name": "renounceOwnership",
      "outputs": [],
      "stateMutability": "nonpayable",
      "type": "function"
    },
    {
      "inputs": [
        {
          "internalType": "string",
          "name": "",
          "type": "string"
        },
        {
          "internalType": "uint256",
          "name": "",
          "type": "uint256"
        }
      ],
      "name": "schemaCategories",
      "outputs": [
        {
          "internalType": "string",
          "name": "",
          "type": "string"
        }
      ],
      "stateMutability": "view",
      "type": "function"
    },
    {
      "inputs": [
        {
          "internalType": "string",
          "name": "",
          "type": "string"
        }
      ],
      "name": "schemaPriority",
      "outputs": [
        {
          "internalType": "enum ReservedSubdomains.SchemaPriority",
          "name": "",
          "type": "uint8"
        }
      ],
      "stateMutability": "view",
      "type": "function"
    },
    {
      "inputs": [
        {
          "internalType": "string",
          "name": "",
          "type": "string"
        }
      ],
      "name": "schemasByCategory",
      "outputs": [
        {
          "internalType": "uint256",
          "name": "",
          "type": "uint256"
        }
      ],
      "stateMutability": "view",
      "type": "function"
    },
    {
      "inputs": [
        {
          "internalType": "enum ReservedSubdomains.SchemaPriority",
          "name": "",
          "type": "uint8"
        }
      ],
      "name": "schemasByPriority",
      "outputs": [
        {
          "internalType": "uint256",
          "name": "",
          "type": "uint256"
        }
      ],
      "stateMutability": "view",
      "type": "function"
    },
    {
      "inputs": [
        {
          "internalType": "string",
          "name": "subdomain",
          "type": "string"
        },
        {
          "internalType": "string",
          "name": "schemaVersion",
          "type": "string"
        },
        {
          "internalType": "string[]",
          "name": "fieldNames",
          "type": "string[]"
        },
        {
          "internalType": "bytes[]",
          "name": "fieldValues",
          "type": "bytes[]"
        }
      ],
      "name": "storeCCIPData",
      "outputs": [],
      "stateMutability": "nonpayable",
      "type": "function"
    },
    {
      "inputs": [
        {
          "internalType": "string",
          "name": "",
          "type": "string"
        },
        {
          "internalType": "uint256",
          "name": "",
          "type": "uint256"
        }
      ],
      "name": "subdomainDataHashes",
      "outputs": [
        {
          "internalType": "bytes32",
          "name": "",
          "type": "bytes32"
        }
      ],
      "stateMutability": "view",
      "type": "function"
    },
    {
      "inputs": [
        {
          "internalType": "string",
          "name": "",
          "type": "string"
        }
      ],
      "name": "subdomainSchemas",
      "outputs": [
        {
          "internalType": "string",
          "name": "subdomain",
          "type": "string"
        },
        {
          "internalType": "enum ReservedSubdomains.SchemaPriority",
          "name": "priority",
          "type": "uint8"
        },
        {
          "internalType": "string",
          "name": "category",
          "type": "string"
        },
        {
          "internalType": "string",
          "name": "description",
          "type": "string"
        },
        {
          "internalType": "string",
          "name": "version",
          "type": "string"
        },
        {
          "internalType": "string",
          "name": "ccipInterface",
          "type": "string"
        },
        {
          "internalType": "bool",
          "name": "active",
          "type": "bool"
        },
        {
          "internalType": "uint256",
          "name": "createdAt",
          "type": "uint256"
        },
        {
          "internalType": "uint256",
          "name": "updatedAt",
          "type": "uint256"
        },
        {
          "internalType": "string",
          "name": "apiEndpoint",
          "type": "string"
        },
        {
          "internalType": "string",
          "name": "documentationUrl",
          "type": "string"
        },
        {
          "components": [
            {
              "internalType": "bool",
              "name": "enabled",
              "type": "bool"
            },
            {
              "internalType": "enum ReservedSubdomains.UpdateTrigger",
              "name": "trigger",
              "type": "uint8"
            },
            {
              "internalType": "enum ReservedSubdomains.UpdateFrequency",
              "name": "frequency",
              "type": "uint8"
            },
            {
              "internalType": "uint256",
              "name": "lastUpdateTime",
              "type": "uint256"
            },
            {
              "internalType": "uint256",
              "name": "nextUpdateTime",
              "type": "uint256"
            },
            {
              "internalType": "uint256",
              "name": "customInterval",
              "type": "uint256"
            },
            {
              "internalType": "string[]",
              "name": "updateFields",
              "type": "string[]"
            },
            {
              "internalType": "string[]",
              "name": "triggerConditions",
              "type": "string[]"
            },
            {
              "internalType": "address",
              "name": "externalContract",
              "type": "address"
            },
            {
              "internalType": "bytes4",
              "name": "externalFunction",
              "type": "bytes4"
            },
            {
              "internalType": "bool",
              "name": "requireDataChange",
              "type": "bool"
            },
            {
              "internalType": "uint256",
              "name": "maxUpdateAge",
              "type": "uint256"
            }
          ],
          "internalType": "struct ReservedSubdomains.AutoUpdateConfig",
          "name": "autoUpdateConfig",
          "type": "tuple"
        }
      ],
      "stateMutability": "view",
      "type": "function"
    },
    {
      "inputs": [],
      "name": "totalSchemas",
      "outputs": [
        {
          "internalType": "uint256",
          "name": "",
          "type": "uint256"
        }
      ],
      "stateMutability": "view",
      "type": "function"
    },
    {
      "inputs": [
        {
          "internalType": "address",
          "name": "newOwner",
          "type": "address"
        }
      ],
      "name": "transferOwnership",
      "outputs": [],
      "stateMutability": "nonpayable",
      "type": "function"
    },
    {
      "inputs": [
        {
          "internalType": "string",
          "name": "subdomain",
          "type": "string"
        }
      ],
      "name": "triggerAutoUpdate",
      "outputs": [],
      "stateMutability": "nonpayable",
      "type": "function"
    },
    {
      "inputs": [
        {
          "internalType": "string",
          "name": "subdomain",
          "type": "string"
        },
        {
          "internalType": "enum ReservedSubdomains.SchemaPriority",
          "name": "priority",
          "type": "uint8"
        },
        {
          "internalType": "string",
          "name": "category",
          "type": "string"
        },
        {
          "internalType": "string",
          "name": "description",
          "type": "string"
        },
        {
          "internalType": "string",
          "name": "newVersion",
          "type": "string"
        },
        {
          "internalType": "string",
          "name": "ccipInterface",
          "type": "string"
        },
        {
          "components": [
            {
              "internalType": "string",
              "name": "fieldName",
              "type": "string"
            },
            {
              "internalType": "enum ReservedSubdomains.DataType",
              "name": "dataType",
              "type": "uint8"
            },
            {
              "internalType": "bool",
              "name": "required",
              "type": "bool"
            },
            {
              "internalType": "string",
              "name": "description",
              "type": "string"
            },
            {
              "internalType": "string",
              "name": "validationRule",
              "type": "string"
            },
            {
              "internalType": "string",
              "name": "defaultValue",
              "type": "string"
            }
          ],
          "internalType": "struct ReservedSubdomains.SchemaField[]",
          "name": "fields",
          "type": "tuple[]"
        },
        {
          "internalType": "string[]",
          "name": "allowedRoles",
          "type": "string[]"
        },
        {
          "internalType": "string[]",
          "name": "restrictions",
          "type": "string[]"
        },
        {
          "internalType": "string",
          "name": "apiEndpoint",
          "type": "string"
        },
        {
          "internalType": "string",
          "name": "documentationUrl",
          "type": "string"
        }
      ],
      "name": "updateSchema",
      "outputs": [],
      "stateMutability": "nonpayable",
      "type": "function"
    }
  ],
  "bytecode": "0x346300007e0c5760008054336001600160a01b0319821681178355916001600160a01b03909116907f8be0079c531659141344cd1fd0a4f28419497f9722a3daafe3b4186f6b6457e09080a3600180556101a0604052600860805260005b61010081106300007dcb5763000000746300007e11565b63000000806300007e76565b600d81526c1c1c9bdc1bdcd85b10dbdd5b9d609a1b60208201528152600160208201526001604082015263000000b66300007e76565b601981527f546f74616c206e756d626572206f662070726f706f73616c73000000000000006020820152606082015263000000f16300007e76565b600481526303e3d20360e41b6020820152608082015263000001136300007e76565b60018152600360fc1b602082015260a0820152630000013460806300007fad565b52630000014360806300007fad565b5063000001506300007e11565b630000015c6300007e76565b600f81526e61637469766550726f706f73616c7360881b60208201528152600160208201526001604082015263000001946300007e76565b601a81527f4e756d626572206f66206163746976652070726f706f73616c730000000000006020820152606082015263000001cf6300007e76565b600481526303e3d20360e41b6020820152608082015263000001f16300007e76565b60018152600360fc1b602082015260a0820152630000021260806300007fd2565b52630000022160806300007fd2565b50630000022e6300007e11565b630000023a6300007e76565b600c81526b1d9bdd1a5b99d4195c9a5bd960a21b602082015281526001602082015260016040820152630000026f6300007e76565b601881527f566f74696e6720706572696f6420696e207365636f6e647300000000000000006020820152606082015263000002aa6300007e76565b600381526203e20360ec1b6020820152608082015263000002cb6300007e76565b600681526503630343830360d41b602082015260a082015263000002f160806300007fe4565b52630000030060806300007fe4565b50630000030d6300007e11565b63000003196300007e76565b600681526571756f72756d60d01b60208201528152600160208201526001604082015263000003486300007e97565b602181527f4d696e696d756d20766f74657320726571756972656420666f722071756f72756020820152606d60f81b60408201526060820152630000038d6300007e76565b600381526203e20360ec1b6020820152608082015263000003ae6300007e76565b60048152630313030360e41b602082015260a082015263000003d260806300007ff6565b5263000003e160806300007ff6565b5063000003ee6300007e11565b63000003fa6300007e76565b60118152701c1c9bdc1bdcd85b151a1c995cda1bdb19607a1b60208201528152600160208201526001604082015263000004346300007e97565b602a81527f4d696e696d756d20746f6b656e7320726571756972656420746f20637265617460208201526919481c1c9bdc1bdcd85b60b21b6040820152606082015263000004826300007e76565b600481526303e3d20360e41b6020820152608082015263000004a46300007e76565b600381526203130360ec1b602082015260a082015263000004c760806300008008565b5263000004d660806300008008565b5063000004e36300007e11565b63000004ef6300007e76565b600f81526e33b7bb32b93730b731b2aa37b5b2b760891b60208201528152600260208201526001604082015263000005276300007e97565b602181527f476f7665726e616e636520746f6b656e20636f6e7472616374206164647265736020820152607360f81b60408201526060820152630000056c6300007e76565b601081526f6e6f6e2d7a65726f206164647265737360801b60208201526080820152630000059a6300008051565b60a082015263000005ad6080630000801a565b5263000005bc6080630000801a565b5063000005c96300007e11565b63000005d56300007e76565b600881526732bc32b1baba37b960c11b60208201528152600260208201526001604082015263000006066300007e97565b602281527f50726f706f73616c206578656375746f7220636f6e7472616374206164647265602082015261737360f01b60408201526060820152630000064c6300007e76565b601081526f6e6f6e2d7a65726f206164647265737360801b60208201526080820152630000067a6300008051565b60a0820152630000068d6080630000802c565b52630000069c6080630000802c565b5063000006a96300007e11565b63000006b56300007e76565b600881526774696d656c6f636b60c01b60208201528152600260208201526000604082015263000006e66300007e76565b601981527f54696d656c6f636b20636f6e74726163742061646472657373000000000000006020820152606082015263000007216300007e76565b601081526f6f7074696f6e616c206164647265737360801b60208201526080820152630000074f6300008051565b60a082015263000007626080630000803e565b5263000007716080630000803e565b50630000077e630000809d565b630000078a63000081bb565b63000007966300007ee5565b9063000007a36300007e76565b90600a825269676f7665726e616e636560b01b602083015263000007c76300007e76565b9260138452600080516020630000d957833981519152602085015263000007ee6300007e97565b91603083527f476f7665726e616e63652073797374656d20736368656d6120666f722044414f60208401526f206465636973696f6e2d6d616b696e6760801b6040840152630000083e6300007e76565b9560058752640312e302e360dc1b6020880152630000085d6300007e76565b91600b83526a49476f7665726e616e636560a81b602084015263000008826300007e76565b9160128352712f6170692f76312f676f7665726e616e636560701b602084015263000008ae6300007e97565b9360308552600080516020630000d93783398151915260208601526f68656d61732f676f7665726e616e636560801b60408601528751156300004a7a5760ff6040516020818163000009088d838151938492016300008253565b60038183015281010301902054166300004a355763000009286300007e54565b9688885260006020890152896040890152606088015289608088015260a0870152608060c087015260e0860152610100850152600161012085015242610140850152426101608501526101808401526101a08301526101c08201526040516020818451630000099c81838589016300008253565b8101600281520301902090805180519060018060401b0382116300003a6857819063000009cb8554630000827a565b601f81116300007d91575b50602090601f83116001146300007d1b576000926300007d0e575b50508160011b916000199060031b1c19161782555b6020810151600481101563000044e2576300000a27906001840163000082d5565b60408101518051906001600160401b0382116300003a685781906300000a526002860154630000827a565b601f81116300007cd1575b50602090601f83116001146300007c55576000926300007c48575b50508160011b916000199060031b1c19161760028301555b60608101518051906001600160401b0382116300003a685781906300000abb6003860154630000827a565b601f81116300007c0b575b50602090601f83116001146300007b8f576000926300007b82575b50508160011b916000199060031b1c19161760038301555b60808101518051906001600160401b0382116300003a685781906300000b246004860154630000827a565b601f81116300007b45575b50602090601f83116001146300007ac9576000926300007abc575b50508160011b916000199060031b1c19161760048301555b60a08101518051906001600160401b0382116300003a685781906300000b8d6005860154630000827a565b601f81116300007a7f575b50602090601f83116001146300007a035760009263000079f6575b50508160011b916000199060031b1c19161760058301555b60c08101518051906801000000000000000082116300003a685760068401548260068601558083106300007961575b5060200190600684016000526020600020916000905b8282106300007467575050505060e08101518051906801000000000000000082116300003a68576007840154826007860155808310630000742a575b5060200190600784016000526020600020916000905b82821063000072f357505050506101008101518051906801000000000000000082116300003a6857600884015482600886015580831063000072b6575b5060200190600884016000526020600020916000905b828210630000717f57505050506300000ce46101208201511515600984019060ff801983541691151516179055565b610140810151600a830155610160810151600b8301556101808101518051906001600160401b0382116300003a685781906300000d26600c860154630000827a565b601f81116300007142575b50602090601f831160011463000070c65760009263000070b9575b50508160011b916000199060031b1c191617600c8301555b6101a08101518051906001600160401b0382116300003a68576300000d8e600d850154630000827a565b601f8111630000707c575b50602090601f83116001146300006ffe576101c0939291600091836300006ff1575b50508160011b916000199060031b1c191617600d8401555b01516300000df381511515600e84019060ff801983541691151516179055565b60208101516300000e05816300007ed9565b6300000e12816300007ed9565b600e83015461ff0062ff000060408501516300000e30816300007ed9565b6300000e3d816300007ed9565b60101b169260081b169062ffff0019161717600e8301556060810151600f8301556080810151601083015560a0810151601183015560c08101518051906801000000000000000082116300003a685760128401548260128601558083106300006fb4575b5060200190601284016000526020600020916000905b8282106300006e7d575050505060e08101518051906801000000000000000082116300003a685760138401548260138601558083106300006e40575b5060200190601384016000526020600020916000905b8282106300006d09578888600080516020630000d977833981519152630000109d63000010758b8b60156101608d60018060a01b036101008201511660148501549063ffffffff60a01b61012084015160401c169060ff60c01b610140850151151560c01b169260018060c81b0319161717176014850155015191015560405160208183516300000f9f81838588016300008253565b81016003815203019020600160ff1982541617905560405160208183516300000fcd81838588016300008253565b8101600481520301902060ff1981541690556300000fee600b546300008344565b600b5560008052600c6020527f13649b2456f1b42fef0f0040b3aaeabcd21a76a0f3f5defd4f583839455116e88054630000102a906300008344565b9055604051602081875163000010458183858c016300008253565b8101600d815203019020630000105d81546300008344565b90556020604051928284809451938492016300008253565b81010390209263000010ae604051928392600084526060602085015260608401906300008355565b828103604084015233966300008355565b0390a36040516001600160401b0360e08201908111908211176300003a685760e081016040526006815260005b60c081106300006cc7575063000010f26300007e11565b63000010fe6300007e76565b600c81526b746f74616c42616c616e636560a01b60208201528152600160208201526001604082015263000011336300007e76565b601d81527f546f74616c2074726561737572792062616c616e636520696e2077656900000060208201526060820152630000116e6300007e76565b600481526303e3d20360e41b6020820152608082015263000011906300007e76565b60018152600360fc1b602082015260a082015263000011b0826300007fad565b5263000011be816300007fad565b5063000011cb6300007e11565b63000011d76300007e76565b600a81526965746842616c616e636560b01b602082015281526001602082015260016040820152630000120a6300007e76565b60128152714554482062616c616e636520696e2077656960701b60208201526060820152630000123a6300007e76565b600481526303e3d20360e41b60208201526080820152630000125c6300007e76565b60018152600360fc1b602082015260a0820152630000127c826300007fd2565b52630000128a816300007fd2565b5063000012976300007e11565b63000012a36300007e76565b600d81526c746f6b656e42616c616e63657360981b60208201528152600660208201526001604082015263000012d96300007e76565b601781527f4172726179206f6620746f6b656e2062616c616e6365730000000000000000006020820152606082015263000013146300007e76565b601081526f30b93930bc9037b3103ab4b73a191a9b60811b6020820152608082015263000013426300007e76565b60028152615b5d60f01b602082015260a08201526300001363826300007fe4565b526300001371816300007fe4565b50630000137e6300007e11565b630000138a6300007e76565b600e81526d746f6b656e41646472657373657360901b60208201528152600760208201526001604082015263000013c16300007e97565b602181527f4172726179206f6620746f6b656e20636f6e74726163742061646472657373656020820152607360f81b6040820152606082015263000014066300007e76565b60128152716172726179206f662061646472657373657360701b6020820152608082015263000014366300007e76565b60028152615b5d60f01b602082015260a08201526300001457826300007ff6565b526300001465816300007ff6565b5063000014726300007e11565b630000147e6300007e76565b600f81526e3a3932b0b9bab93ca6b0b730b3b2b960891b60208201528152600260208201526001604082015263000014b66300007e97565b602181527f5472656173757279206d616e6167657220636f6e7472616374206164647265736020820152607360f81b6040820152606082015263000014fb6300007e76565b601081526f6e6f6e2d7a65726f206164647265737360801b6020820152608082015263000015296300008051565b60a0820152630000153b826300008008565b526300001549816300008008565b5063000015566300007e11565b63000015626300007e76565b60088152676d756c746973696760c01b60208201528152600260208201526000604082015263000015936300007e76565b601781527f4d756c74697369672077616c6c657420616464726573730000000000000000006020820152606082015263000015ce6300007e76565b601081526f6f7074696f6e616c206164647265737360801b6020820152608082015263000015fc6300008051565b60a0820152630000160e82630000801a565b52630000161c81630000801a565b506300001629630000809d565b630000163563000081bb565b9163000016426300007ee5565b90630000164f6300007e76565b916008835267747265617375727960c01b602084015263000016716300007e76565b9360138552600080516020630000d957833981519152602086015263000016986300007e97565b92602884527f5472656173757279206d616e6167656d656e7420736368656d6120666f722044602085015267414f2066756e647360c01b604085015263000016e06300007e76565b9660058852640312e302e360dc1b602089015263000016ff6300007e76565b92600984526849547265617375727960b81b602085015263000017226300007e76565b92601084526f2f6170692f76312f747265617375727960801b6020850152630000174c6300007e97565b94602e8652600080516020630000d93783398151915260208701526d68656d61732f747265617375727960901b60408701528851156300004a7a5760ff63000017a660208b81604051938285809451938492016300008253565b8101600381520301902054166300004a355763000017c46300007e54565b97898952600060208a01528a60408a015260608901528a608089015260a088015260c087015260e0860152610100850152600161012085015242610140850152426101608501526101808401526101a08301526101c08201526040516020818451630000183681838589016300008253565b8101600281520301902090805180519060018060401b0382116300003a6857819063000018658554630000827a565b601f81116300006c8d575b50602090601f83116001146300006c17576000926300006c0a575b50508160011b916000199060031b1c19161782555b6020810151600481101563000044e25763000018c1906001840163000082d5565b60408101518051906001600160401b0382116300003a6857819063000018ec6002860154630000827a565b601f81116300006bcd575b50602090601f83116001146300006b51576000926300006b44575b50508160011b916000199060031b1c19161760028301555b60608101518051906001600160401b0382116300003a6857819063000019556003860154630000827a565b601f81116300006b07575b50602090601f83116001146300006a8b576000926300006a7e575b50508160011b916000199060031b1c19161760038301555b60808101518051906001600160401b0382116300003a6857819063000019be6004860154630000827a565b601f81116300006a41575b50602090601f831160011463000069c55760009263000069b8575b50508160011b916000199060031b1c19161760048301555b60a08101518051906001600160401b0382116300003a685781906300001a276005860154630000827a565b601f8111630000697b575b50602090601f831160011463000068ff5760009263000068f2575b50508160011b916000199060031b1c19161760058301555b60c08101518051906801000000000000000082116300003a68576006840154826006860155808310630000685d575b5060200190600684016000526020600020916000905b8282106300006363575050505060e08101518051906801000000000000000082116300003a685760078401548260078601558083106300006326575b5060200190600784016000526020600020916000905b82821063000061ef57505050506101008101518051906801000000000000000082116300003a6857600884015482600886015580831063000061b2575b5060200190600884016000526020600020916000905b828210630000607b57505050506300001b7e6101208201511515600984019060ff801983541691151516179055565b610140810151600a830155610160810151600b8301556101808101518051906001600160401b0382116300003a685781906300001bc0600c860154630000827a565b601f8111630000603e575b50602090601f83116001146300005fc2576000926300005fb5575b50508160011b916000199060031b1c191617600c8301555b6101a08101518051906001600160401b0382116300003a68576300001c28600d850154630000827a565b601f81116300005f78575b50602090601f83116001146300005efa576101c0939291600091836300005eed575b50508160011b916000199060031b1c191617600d8401555b0151805115156300001c8f600e840191829060ff801983541691151516179055565b60208201516300001ca1816300007ed9565b6300001cae816300007ed9565b815461ff0062ff000060408601516300001cc9816300007ed9565b6300001cd6816300007ed9565b60101b169260081b169062ffff001916171790556060810151600f8301556080810151601083015560a0810151601183015560c08101518051906801000000000000000082116300003a685760128401548260128601558083106300005eb0575b5060200190601284016000526020600020916000905b8282106300005d79575050505060e08101518051906801000000000000000082116300003a685760138401548260138601558083106300005d3c575b5060200190601384016000526020600020916000905b8282106300005c05578888600080516020630000d977833981519152630000109d6300001e338b8b60156101608d6014840160018060a01b036101008301511681549063ffffffff60a01b61012085015160401c169060ff60c01b610140860151151560c01b169260018060c81b0319161717179055015191015560405160208183516300000f9f81838588016300008253565b8101039020926300001e5b604051928392600084526060602085015260608401906300008355565b0390a36040516001600160401b036101008201908111908211176300003a685761010081016040526007815260005b60e081106300005bc357506300001ea16300007e11565b6300001ead6300007e76565b60048152636e616d6560e01b6020820152815260006020820152600160408201526300001eda6300007e76565b600a815269546f6b656e206e616d6560b01b602082015260608201526300001f026300007e76565b90601082526f6e6f6e2d656d70747920737472696e6760801b9182602082015260808201526300001f336300007eb8565b6000815260a08201526300001f49836300007fad565b526300001f57826300007fad565b506300001f646300007e11565b906300001f716300007e76565b60068152651cde5b589bdb60d21b6020820152825260006020830152600160408301526300001fa06300007e76565b600c81526b151bdad95b881cde5b589bdb60a21b602082015260608301526300001fca6300007e76565b9060108252602082015260808201526300001fe56300007eb8565b6000815260a08201526300001ffb826300007fd2565b526300002009816300007fd2565b5063000020166300007e11565b63000020226300007e76565b6008815267646563696d616c7360c01b60208201528152600160208201526001604082015263000020536300007e76565b600e81526d546f6b656e20646563696d616c7360901b60208201526060820152630000207f6300007e76565b600d81526c07c7a4060404c4c40787a40627609b1b6020820152608082015263000020aa6300007e76565b6002815261062760f31b602082015260a082015263000020cb826300007fe4565b5263000020d9816300007fe4565b5063000020e66300007e11565b63000020f26300007e76565b600b81526a746f74616c537570706c7960a81b60208201528152600160208201526001604082015263000021266300007e76565b6012815271546f74616c20746f6b656e20737570706c7960701b6020820152606082015263000021566300007e76565b600481526303e3d20360e41b6020820152608082015263000021786300007e76565b60018152600360fc1b602082015260a08201526300002198826300007ff6565b5263000021a6816300007ff6565b5063000021b36300007e11565b63000021bf6300007e76565b600f81526e636f6e74726163744164647265737360881b60208201528152600260208201526001604082015263000021f76300007e76565b601681527f546f6b656e20636f6e74726163742061646472657373000000000000000000006020820152606082015263000022326300007e76565b601081526f6e6f6e2d7a65726f206164647265737360801b6020820152608082015263000022606300008051565b60a08201526300002272826300008008565b526300002280816300008008565b50630000228d6300007e11565b63000022996300007e76565b601181527034b9a3b7bb32b93730b731b2aa37b5b2b760791b60208201528152600360208201526001604082015263000022d36300007e97565b602481527f5768657468657220746869732069732074686520676f7665726e616e6365207460208201526337b5b2b760e11b60408201526060820152630000231b6300007e76565b60078152663137b7b632b0b760c91b6020820152608082015263000023406300007e76565b600581526466616c736560d81b602082015260a0820152630000236482630000801a565b52630000237281630000801a565b50630000237f6300007e11565b630000238b6300007e76565b6007815266686f6c6465727360c81b60208201528152600160208201526001604082015263000023bb6300007e76565b601781527f4e756d626572206f6620746f6b656e20686f6c646572730000000000000000006020820152606082015263000023f66300007e76565b600481526303e3d20360e41b6020820152608082015263000024186300007e76565b60018152600360fc1b602082015260a0820152630000243882630000802c565b52630000244681630000802c565b506300002453630000809d565b630000245f63000081bb565b91630000246c6300007ee5565b9063000024796300007e76565b9160058352643a37b5b2b760d91b602084015263000024986300007e76565b9360138552600080516020630000d957833981519152602086015263000024bf6300007e97565b92602684527f546f6b656e206d616e6167656d656e7420736368656d6120666f722044414f20602085015265746f6b656e7360d01b604085015263000025056300007e76565b9660058852640312e302e360dc1b602089015263000025246300007e76565b92600684526524aa37b5b2b760d11b602085015263000025446300007e76565b92600d84526c17b0b83497bb1897ba37b5b2b760991b6020850152630000256b6300007e97565b94602b8652600080516020630000d93783398151915260208701526a3432b6b0b997ba37b5b2b760a91b60408701528851156300004a7a5760ff63000025c260208b81604051938285809451938492016300008253565b8101600381520301902054166300004a355763000025e06300007e54565b97898952600060208a01528a60408a015260608901528a608089015260a088015260c087015260e0860152610100850152600161012085015242610140850152426101608501526101808401526101a08301526101c08201526040516020818451630000265281838589016300008253565b8101600281520301902090805180519060018060401b0382116300003a6857819063000026818554630000827a565b601f81116300005b89575b50602090601f83116001146300005b13576000926300005b06575b50508160011b916000199060031b1c19161782555b6020810151600481101563000044e25763000026dd906001840163000082d5565b60408101518051906001600160401b0382116300003a6857819063000027086002860154630000827a565b601f81116300005ac9575b50602090601f83116001146300005a4d576000926300005a40575b50508160011b916000199060031b1c19161760028301555b60608101518051906001600160401b0382116300003a6857819063000027716003860154630000827a565b601f81116300005a03575b50602090601f8311600114630000598757600092630000597a575b50508160011b916000199060031b1c19161760038301555b60808101518051906001600160401b0382116300003a6857819063000027da6004860154630000827a565b601f8111630000593d575b50602090601f831160011463000058c15760009263000058b4575b50508160011b916000199060031b1c19161760048301555b60a08101518051906001600160401b0382116300003a6857819063000028436005860154630000827a565b601f81116300005877575b50602090601f831160011463000057fb5760009263000057ee575b50508160011b916000199060031b1c19161760058301555b60c08101518051906801000000000000000082116300003a685760068401548260068601558083106300005759575b5060200190600684016000526020600020916000905b828210630000525f575050505060e08101518051906801000000000000000082116300003a685760078401548260078601558083106300005222575b5060200190600784016000526020600020916000905b82821063000050eb57505050506101008101518051906801000000000000000082116300003a6857600884015482600886015580831063000050ae575b5060200190600884016000526020600020916000905b8282106300004f775750505050630000299a6101208201511515600984019060ff801983541691151516179055565b610140810151600a830155610160810151600b8301556101808101518051906001600160401b0382116300003a6857819063000029dc600c860154630000827a565b601f81116300004f3a575b50602090601f83116001146300004ebe576000926300004eb1575b50508160011b916000199060031b1c191617600c8301555b6101a08101518051906001600160401b0382116300003a68576300002a44600d850154630000827a565b601f81116300004e74575b50602090601f83116001146300004df6576101c0939291600091836300004de9575b50508160011b916000199060031b1c191617600d8401555b0151805115156300002aab600e840191829060ff801983541691151516179055565b60208201516300002abd816300007ed9565b6300002aca816300007ed9565b815461ff0062ff000060408601516300002ae5816300007ed9565b6300002af2816300007ed9565b60101b169260081b169062ffff001916171790556060810151600f8301556080810151601083015560a0810151601183015560c08101518051906801000000000000000082116300003a685760128401548260128601558083106300004dac575b5060200190601284016000526020600020916000905b8282106300004c75575050505060e08101518051906801000000000000000082116300003a685760138401548260138601558083106300004c38575b5060200190601384016000526020600020916000905b8282106300004b01578888600080516020630000d977833981519152630000109d6300002c4f8b8b60156101608d6014840160018060a01b036101008301511681549063ffffffff60a01b61012085015160401c169060ff60c01b610140860151151560c01b169260018060c81b0319161717179055015191015560405160208183516300000f9f81838588016300008253565b8101039020926300002c77604051928392600084526060602085015260608401906300008355565b0390a36300002c866300007e11565b6005815260005b60a081106300004abf57506300002ca46300007e11565b6300002cb06300007e76565b600781526618985cd9555c9b60ca1b6020820152815260006020820152600160408201526300002ce06300007e76565b600c81526b10985cd9481054124815549360a21b602082015260608201526300002d0a6300007e76565b601081526f1d985b1a590815549308199bdc9b585d60821b602082015260808201526300002d386300007eb8565b6000815260a08201526300002d4e826300007fad565b526300002d5c816300007fad565b506300002d696300007e11565b6300002d756300007e76565b60078152663b32b939b4b7b760c91b6020820152815260006020820152600160408201526300002da56300007e76565b600b81526a20a824903b32b939b4b7b760a91b602082015260608201526300002dce6300007e76565b601081526f39b2b6b0b73a34b1903b32b939b4b7b760811b602082015260808201526300002dfc6300007e76565b6002815261763160f01b602082015260a08201526300002e1d826300007fd2565b526300002e2b816300007fd2565b506300002e386300007e11565b6300002e446300007e76565b6009815268656e64706f696e747360b81b6020820152815260056020820152600160408201526300002e766300007e76565b601781527f417661696c61626c652041504920656e64706f696e7473000000000000000000602082015260608201526300002eb16300007e76565b601081526f6172726179206f6620737472696e677360801b602082015260808201526300002edf6300007e76565b60028152615b5d60f01b602082015260a08201526300002f00826300007fe4565b526300002f0e816300007fe4565b506300002f1b6300007e11565b6300002f276300007e76565b60098152681c985d19531a5b5a5d60ba1b6020820152815260016020820152600160408201526300002f596300007e76565b601581527f52617465206c696d697420706572206d696e7574650000000000000000000000602082015260608201526300002f946300007e76565b600381526203e20360ec1b602082015260808201526300002fb56300007e76565b60048152630313030360e41b602082015260a08201526300002fd8826300007ff6565b526300002fe6816300007ff6565b506300002ff36300007e11565b6300002fff6300007e76565b600e81526d30baba3432b73a34b1b0ba34b7b760911b60208201528152600060208201526000604082015263000030366300007e76565b601581527f41757468656e7469636174696f6e206d6574686f6400000000000000000000006020820152606082015263000030716300007e76565b600f81526e6f7074696f6e616c20737472696e6760881b60208201526080820152630000309e6300007e76565b60048152636e6f6e6560e01b602082015260a082015263000030c1826300008008565b5263000030cf816300008008565b5063000030dc630000809d565b63000030e863000081bb565b9163000030f56300007ee5565b9063000031026300007e76565b91600383526261706960e81b6020840152630000311f6300007e76565b9360138552600080516020630000d957833981519152602086015263000031466300007e97565b92602584527f41504920656e64706f696e747320736368656d6120666f722044414f20736572602085015264766963657360d81b6040850152630000318b6300007e76565b9660058852640312e302e360dc1b602089015263000031aa6300007e76565b9260048452634941504960e01b602085015263000031c86300007e76565b92600b84526a2f6170692f76312f61706960a81b602085015263000031ed6300007e97565b9460298652600080516020630000d93783398151915260208701526868656d61732f61706960b81b60408701528851156300004a7a5760ff630000324260208b81604051938285809451938492016300008253565b8101600381520301902054166300004a355763000032606300007e54565b97898952600060208a01528a60408a015260608901528a608089015260a088015260c087015260e0860152610100850152600161012085015242610140850152426101608501526101808401526101a08301526101c0820152604051602081845163000032d281838589016300008253565b8101600281520301902090805180519060018060401b0382116300003a6857819063000033018554630000827a565b601f811163000049fb575b50602090601f83116001146300004985576000926300004978575b50508160011b916000199060031b1c19161782555b6020810151600481101563000044e257630000335d906001840163000082d5565b60408101518051906001600160401b0382116300003a6857819063000033886002860154630000827a565b601f8111630000493b575b50602090601f831160011463000048bf5760009263000048b2575b50508160011b916000199060031b1c19161760028301555b60608101518051906001600160401b0382116300003a6857819063000033f16003860154630000827a565b601f81116300004875575b50602090601f831160011463000047f95760009263000047ec575b50508160011b916000199060031b1c19161760038301555b60808101518051906001600160401b0382116300003a68578190630000345a6004860154630000827a565b601f811163000047af575b50602090601f83116001146300004733576000926300004726575b50508160011b916000199060031b1c19161760048301555b60a08101518051906001600160401b0382116300003a6857819063000034c36005860154630000827a565b601f811163000046e9575b50602090601f8311600114630000466d576000926300004660575b50508160011b916000199060031b1c19161760058301555b60c08101518051906801000000000000000082116300003a6857600684015482600686015580831063000045b5575b5060200190600684016000526020600020916000905b82821063000040a5575050505060e08101518051906801000000000000000082116300003a685760078401548260078601558083106300004068575b5060200190600784016000526020600020916000905b8282106300003f3157505050506101008101518051906801000000000000000082116300003a685760088401548260088601558083106300003ef4575b5060200190600884016000526020600020916000905b8282106300003dbd5750505050630000361a6101208201511515600984019060ff801983541691151516179055565b610140810151600a830155610160810151600b8301556101808101518051906001600160401b0382116300003a68578190630000365c600c860154630000827a565b601f81116300003d80575b50602090601f83116001146300003d04576000926300003cf7575b50508160011b916000199060031b1c191617600c8301555b6101a08101518051906001600160401b0382116300003a685763000036c4600d850154630000827a565b601f81116300003cba575b50602090601f83116001146300003c3c576101c0939291600091836300003c2f575b50508160011b916000199060031b1c191617600d8401555b015180511515630000372b600e840191829060ff801983541691151516179055565b6020820151630000373d816300007ed9565b630000374a816300007ed9565b815461ff0062ff000060408601516300003765816300007ed9565b6300003772816300007ed9565b60101b169260081b169062ffff001916171790556060810151600f8301556080810151601083015560a0810151601183015560c08101518051906801000000000000000082116300003a685760128401548260128601558083106300003bf2575b5060200190601284016000526020600020916000905b8282106300003abb575050505060e08101518051906801000000000000000082116300003a685760138401548260138601558083106300003a7e575b5060200190601384016000526020600020916000905b8282106300003924578888600080516020630000d977833981519152630000109d63000038cf8b8b60156101608d6014840160018060a01b036101008301511681549063ffffffff60a01b61012085015160401c169060ff60c01b610140860151151560c01b169260018060c81b0319161717179055015191015560405160208183516300000f9f81838588016300008253565b81010390209263000038f7604051928392600084526060602085015260608401906300008355565b0390a33360005260086020526040600020600160ff198254161790556040516155b89081630000837f8239f35b80518051906001600160401b0382116300003a685763000039478654630000827a565b601f81116300003a21575b50602090601f831160011463000039a7579282600194936020938695600092630000399a575b5050600019600383901b1c191690841b1787555b01940191019092630000383b565b015190508e806300003978565b908660005260206000209160005b601f19851681106300003a07575083602093600196938796938794601f1981161063000039ec575b505050811b018755630000398c565b015160001960f88460031b161c191690558e808063000039dd565b9192602060018192868501518155019401920163000039b5565b6300003a5490876000526020600020601f850160051c810191602086106300003a5c575b601f0160051c019063000082ba565b8b6300003952565b90915081906300003a45565b634e487b7160e01b600052604160045260246000fd5b601385016000526020600020908382015b81830181106300003aa35750506300003825565b806300003ab360019263000082ef565b016300003a8f565b80518051906001600160401b0382116300003a68576300003ade8654630000827a565b601f81116300003bb8575b50602090601f83116001146300003b3e5792826001949360209386956000926300003b31575b5050600019600383901b1c191690841b1787555b0194019101909263000037e9565b015190508e806300003b0f565b908660005260206000209160005b601f19851681106300003b9e575083602093600196938796938794601f198116106300003b83575b505050811b0187556300003b23565b015160001960f88460031b161c191690558e80806300003b74565b919260206001819286850151815501940192016300003b4c565b6300003bea90876000526020600020601f850160051c810191602086106300003a5c57601f0160051c019063000082ba565b8b6300003ae9565b601285016000526020600020908382015b81830181106300003c1757505063000037d3565b806300003c2760019263000082ef565b016300003c03565b01519050888063000036f1565b90600d850160005260206000209160005b601f19851681106300003ca057509183916001936101c09695601f198116106300003c85575b505050811b01600d8401556300003709565b015160001960f88460031b161c191690558880806300003c73565b919260206001819286850151815501940192016300003c4d565b6300003cef90600d86016000526020600020601f850160051c810191602086106300003a5c57601f0160051c019063000082ba565b8763000036cf565b0151905087806300003682565b9250600c85016000526020600020906000935b601f19841685106300003d63576001945083601f198116106300003d48575b505050811b01600c830155630000369a565b015160001960f88460031b161c191690558780806300003d36565b818101518355602094850194600190930192909101906300003d17565b6300003db590600c87016000526020600020601f850160051c810191602086106300003a5c57601f0160051c019063000082ba565b886300003667565b80518051906001600160401b0382116300003a68576300003de08654630000827a565b601f81116300003eba575b50602090601f83116001146300003e405792826001949360209386956000926300003e33575b5050600019600383901b1c191690841b1787555b0194019101909263000035eb565b015190508e806300003e11565b908660005260206000209160005b601f19851681106300003ea0575083602093600196938796938794601f198116106300003e85575b505050811b0187556300003e25565b015160001960f88460031b161c191690558e80806300003e76565b919260206001819286850151815501940192016300003e4e565b6300003eec90876000526020600020601f850160051c810191602086106300003a5c57601f0160051c019063000082ba565b8b6300003deb565b600885016000526020600020908382015b81830181106300003f1957505063000035d5565b806300003f2960019263000082ef565b016300003f05565b80518051906001600160401b0382116300003a68576300003f548654630000827a565b601f8111630000402e575b50602090601f83116001146300003fb45792826001949360209386956000926300003fa7575b5050600019600383901b1c191690841b1787555b019401910190926300003598565b015190508e806300003f85565b908660005260206000209160005b601f19851681106300004014575083602093600196938796938794601f198116106300003ff9575b505050811b0187556300003f99565b015160001960f88460031b161c191690558e80806300003fea565b919260206001819286850151815501940192016300003fc2565b630000406090876000526020600020601f850160051c810191602086106300003a5c57601f0160051c019063000082ba565b8b6300003f5f565b600785016000526020600020908382015b8183018110630000408d5750506300003582565b80630000409d60019263000082ef565b016300004079565b805180518051906001600160401b0382116300003a6857819063000040cc8854630000827a565b601f8111630000457b575b50602090601f831160011463000045055760009263000044f8575b50508160011b916000199060031b1c19161785555b6020810151600a81101563000044e2576001860190815460ff61ff006040860151151560081b1692169061ffff191617179055606081015180519060018060401b0382116300003a6857819063000041646002890154630000827a565b601f811163000044a5575b50602090601f8311600114630000442957600092630000441c575b50508160011b916000199060031b1c19161760028601555b60808101518051906001600160401b0382116300003a685763000041cb6003880154630000827a565b601f811163000043df575b50602090601f831160011463000043625760a0939291600091836300004355575b50508160011b916000199060031b1c19161760038701555b01518051906001600160401b0382116300003a685763000042356004870154630000827a565b601f81116300004318575b50602090601f83116001146300004298579282600593602093600196600092630000428b575b5050600019600383901b1c191690851b1760048801555b019401910190926300003546565b015190508e806300004266565b906004870160005260206000209160005b601f198516811063000042fe575083602093600196938793600597601f1981161063000042e3575b505050811b016004880155630000427d565b015160001960f88460031b161c191690558e808063000042d1565b9192602060018192868501518155019401920163000042a9565b630000434d90600488016000526020600020601f850160051c810191602086106300003a5c57601f0160051c019063000082ba565b8b6300004240565b015190508d8063000041f7565b906003880160005260206000209160005b601f198516811063000043c5575091839160019360a09695601f1981161063000043aa575b505050811b016003870155630000420f565b015160001960f88460031b161c191690558d80806300004398565b919260206001819286850151815501940192016300004373565b630000441490600389016000526020600020601f850160051c810191602086106300003a5c57601f0160051c019063000082ba565b8c63000041d6565b015190508c80630000418a565b9250600288016000526020600020906000935b601f19841685106300004488576001945083601f19811610630000446d575b505050811b01600286015563000041a2565b015160001960f88460031b161c191690558c8080630000445b565b81810151835560209485019460019093019290910190630000443c565b63000044da9060028a016000526020600020601f850160051c810191602086106300003a5c57601f0160051c019063000082ba565b8d630000416f565b634e487b7160e01b600052602160045260246000fd5b015190508c8063000040f2565b9250876000526020600020906000935b601f1984168510630000455e576001945083601f198116106300004543575b505050811b0185556300004107565b015160001960f88460031b161c191690558c80806300004534565b818101518355602094850194600190930192909101906300004515565b63000045ad90896000526020600020601f850160051c810191602086106300003a5c57601f0160051c019063000082ba565b8d63000040d7565b6005818102048103630000464a576005838102048303630000464a576006850160005260206000208360050281015b826005028201811063000045fb5750506300003530565b80630000460b60059263000082ef565b6000600182015563000046226002820163000082ef565b63000046326003820163000082ef565b63000046426004820163000082ef565b0163000045e4565b634e487b7160e01b600052601160045260246000fd5b01519050878063000034e9565b9250600585016000526020600020906000935b601f198416851063000046cc576001945083601f1981161063000046b1575b505050811b0160058301556300003501565b015160001960f88460031b161c19169055878080630000469f565b818101518355602094850194600190930192909101906300004680565b630000471e90600587016000526020600020601f850160051c810191602086106300003a5c57601f0160051c019063000082ba565b8863000034ce565b0151905087806300003480565b9250600485016000526020600020906000935b601f19841685106300004792576001945083601f198116106300004777575b505050811b0160048301556300003498565b015160001960f88460031b161c191690558780806300004765565b818101518355602094850194600190930192909101906300004746565b63000047e490600487016000526020600020601f850160051c810191602086106300003a5c57601f0160051c019063000082ba565b886300003465565b0151905087806300003417565b9250600385016000526020600020906000935b601f19841685106300004858576001945083601f19811610630000483d575b505050811b016003830155630000342f565b015160001960f88460031b161c19169055878080630000482b565b81810151835560209485019460019093019290910190630000480c565b63000048aa90600387016000526020600020601f850160051c810191602086106300003a5c57601f0160051c019063000082ba565b8863000033fc565b01519050878063000033ae565b9250600285016000526020600020906000935b601f1984168510630000491e576001945083601f198116106300004903575b505050811b01600283015563000033c6565b015160001960f88460031b161c1916905587808063000048f1565b8181015183556020948501946001909301929091019063000048d2565b630000497090600287016000526020600020601f850160051c810191602086106300003a5c57601f0160051c019063000082ba565b886300003393565b0151905087806300003327565b9250846000526020600020906000935b601f198416851063000049de576001945083601f1981161063000049c3575b505050811b018255630000333c565b015160001960f88460031b161c1916905587808063000049b4565b818101518355602094850194600190930192909101906300004995565b6300004a2d90866000526020600020601f850160051c810191602086106300003a5c57601f0160051c019063000082ba565b88630000330c565b60405162461bcd60e51b815260206004820152601660248201527f536368656d6120616c726561647920646566696e6564000000000000000000006044820152606490fd5b60405162461bcd60e51b815260206004820152601960248201527f537562646f6d61696e2063616e6e6f7420626520656d707479000000000000006044820152606490fd5b6020906300004ace6300007e11565b606081526000838201526000604082015260608082015260606080820152606060a0820152828285010152016300002c8d565b80518051906001600160401b0382116300003a68576300004b248654630000827a565b601f81116300004bfe575b50602090601f83116001146300004b845792826001949360209386956000926300004b77575b5050600019600383901b1c191690841b1787555b019401910190926300002bbb565b015190508e806300004b55565b908660005260206000209160005b601f19851681106300004be4575083602093600196938796938794601f198116106300004bc9575b505050811b0187556300004b69565b015160001960f88460031b161c191690558e80806300004bba565b919260206001819286850151815501940192016300004b92565b6300004c3090876000526020600020601f850160051c810191602086106300003a5c57601f0160051c019063000082ba565b8b6300004b2f565b601385016000526020600020908382015b81830181106300004c5d5750506300002ba5565b806300004c6d60019263000082ef565b016300004c49565b80518051906001600160401b0382116300003a68576300004c988654630000827a565b601f81116300004d72575b50602090601f83116001146300004cf85792826001949360209386956000926300004ceb575b5050600019600383901b1c191690841b1787555b019401910190926300002b69565b015190508e806300004cc9565b908660005260206000209160005b601f19851681106300004d58575083602093600196938796938794601f198116106300004d3d575b505050811b0187556300004cdd565b015160001960f88460031b161c191690558e80806300004d2e565b919260206001819286850151815501940192016300004d06565b6300004da490876000526020600020601f850160051c810191602086106300003a5c57601f0160051c019063000082ba565b8b6300004ca3565b601285016000526020600020908382015b81830181106300004dd15750506300002b53565b806300004de160019263000082ef565b016300004dbd565b0151905088806300002a71565b90600d850160005260206000209160005b601f19851681106300004e5a57509183916001936101c09695601f198116106300004e3f575b505050811b01600d8401556300002a89565b015160001960f88460031b161c191690558880806300004e2d565b919260206001819286850151815501940192016300004e07565b6300004ea990600d86016000526020600020601f850160051c810191602086106300003a5c57601f0160051c019063000082ba565b876300002a4f565b0151905087806300002a02565b9250600c85016000526020600020906000935b601f19841685106300004f1d576001945083601f198116106300004f02575b505050811b01600c8301556300002a1a565b015160001960f88460031b161c191690558780806300004ef0565b818101518355602094850194600190930192909101906300004ed1565b6300004f6f90600c87016000526020600020601f850160051c810191602086106300003a5c57601f0160051c019063000082ba565b8863000029e7565b80518051906001600160401b0382116300003a68576300004f9a8654630000827a565b601f81116300005074575b50602090601f83116001146300004ffa5792826001949360209386956000926300004fed575b5050600019600383901b1c191690841b1787555b01940191019092630000296b565b015190508e806300004fcb565b908660005260206000209160005b601f1985168110630000505a575083602093600196938796938794601f19811610630000503f575b505050811b0187556300004fdf565b015160001960f88460031b161c191690558e80806300005030565b919260206001819286850151815501940192016300005008565b63000050a690876000526020600020601f850160051c810191602086106300003a5c57601f0160051c019063000082ba565b8b6300004fa5565b600885016000526020600020908382015b818301811063000050d35750506300002955565b8063000050e360019263000082ef565b0163000050bf565b80518051906001600160401b0382116300003a6857630000510e8654630000827a565b601f811163000051e8575b50602090601f8311600114630000516e5792826001949360209386956000926300005161575b5050600019600383901b1c191690841b1787555b019401910190926300002918565b015190508e80630000513f565b908660005260206000209160005b601f198516811063000051ce575083602093600196938796938794601f1981161063000051b3575b505050811b0187556300005153565b015160001960f88460031b161c191690558e808063000051a4565b91926020600181928685015181550194019201630000517c565b630000521a90876000526020600020601f850160051c810191602086106300003a5c57601f0160051c019063000082ba565b8b6300005119565b600785016000526020600020908382015b818301811063000052475750506300002902565b80630000525760019263000082ef565b016300005233565b805180518051906001600160401b0382116300003a6857819063000052868854630000827a565b601f8111630000571f575b50602090601f831160011463000056a957600092630000569c575b50508160011b916000199060031b1c19161785555b6020810151600a81101563000044e2576001860190815460ff61ff006040860151151560081b1692169061ffff191617179055606081015180519060018060401b0382116300003a68578190630000531e6002890154630000827a565b601f8111630000565f575b50602090601f831160011463000055e35760009263000055d6575b50508160011b916000199060031b1c19161760028601555b60808101518051906001600160401b0382116300003a685763000053856003880154630000827a565b601f81116300005599575b50602090601f8311600114630000551c5760a093929160009183630000550f575b50508160011b916000199060031b1c19161760038701555b01518051906001600160401b0382116300003a685763000053ef6004870154630000827a565b601f811163000054d2575b50602090601f831160011463000054525792826005936020936001966000926300005445575b5050600019600383901b1c191690851b1760048801555b0194019101909263000028c6565b015190508e806300005420565b906004870160005260206000209160005b601f198516811063000054b8575083602093600196938793600597601f19811610630000549d575b505050811b0160048801556300005437565b015160001960f88460031b161c191690558e8080630000548b565b919260206001819286850151815501940192016300005463565b630000550790600488016000526020600020601f850160051c810191602086106300003a5c57601f0160051c019063000082ba565b8b63000053fa565b015190508d8063000053b1565b906003880160005260206000209160005b601f1985168110630000557f575091839160019360a09695601f198116106300005564575b505050811b01600387015563000053c9565b015160001960f88460031b161c191690558d80806300005552565b91926020600181928685015181550194019201630000552d565b63000055ce90600389016000526020600020601f850160051c810191602086106300003a5c57601f0160051c019063000082ba565b8c6300005390565b015190508c806300005344565b9250600288016000526020600020906000935b601f19841685106300005642576001945083601f198116106300005627575b505050811b016002860155630000535c565b015160001960f88460031b161c191690558c80806300005615565b8181015183556020948501946001909301929091019063000055f6565b63000056949060028a016000526020600020601f850160051c810191602086106300003a5c57601f0160051c019063000082ba565b8d6300005329565b015190508c8063000052ac565b9250876000526020600020906000935b601f19841685106300005702576001945083601f1981161063000056e7575b505050811b01855563000052c1565b015160001960f88460031b161c191690558c808063000056d8565b8181015183556020948501946001909301929091019063000056b9565b630000575190896000526020600020601f850160051c810191602086106300003a5c57601f0160051c019063000082ba565b8d6300005291565b6005818102048103630000464a576005838102048303630000464a576006850160005260206000208360050281015b8260050282018110630000579f57505063000028b0565b8063000057af60059263000082ef565b6000600182015563000057c66002820163000082ef565b63000057d66003820163000082ef565b63000057e66004820163000082ef565b016300005788565b0151905087806300002869565b9250600585016000526020600020906000935b601f1984168510630000585a576001945083601f19811610630000583f575b505050811b0160058301556300002881565b015160001960f88460031b161c19169055878080630000582d565b81810151835560209485019460019093019290910190630000580e565b63000058ac90600587016000526020600020601f850160051c810191602086106300003a5c57601f0160051c019063000082ba565b88630000284e565b0151905087806300002800565b9250600485016000526020600020906000935b601f19841685106300005920576001945083601f198116106300005905575b505050811b0160048301556300002818565b015160001960f88460031b161c1916905587808063000058f3565b8181015183556020948501946001909301929091019063000058d4565b630000597290600487016000526020600020601f850160051c810191602086106300003a5c57601f0160051c019063000082ba565b8863000027e5565b0151905087806300002797565b9250600385016000526020600020906000935b601f198416851063000059e6576001945083601f1981161063000059cb575b505050811b01600383015563000027af565b015160001960f88460031b161c1916905587808063000059b9565b81810151835560209485019460019093019290910190630000599a565b6300005a3890600387016000526020600020601f850160051c810191602086106300003a5c57601f0160051c019063000082ba565b88630000277c565b015190508780630000272e565b9250600285016000526020600020906000935b601f19841685106300005aac576001945083601f198116106300005a91575b505050811b0160028301556300002746565b015160001960f88460031b161c191690558780806300005a7f565b818101518355602094850194600190930192909101906300005a60565b6300005afe90600287016000526020600020601f850160051c810191602086106300003a5c57601f0160051c019063000082ba565b886300002713565b01519050878063000026a7565b9250846000526020600020906000935b601f19841685106300005b6c576001945083601f198116106300005b51575b505050811b01825563000026bc565b015160001960f88460031b161c191690558780806300005b42565b818101518355602094850194600190930192909101906300005b23565b6300005bbb90866000526020600020601f850160051c810191602086106300003a5c57601f0160051c019063000082ba565b88630000268c565b6020906300005bd26300007e11565b606081526000838201526000604082015260608082015260606080820152606060a0820152828285010152016300001e8a565b80518051906001600160401b0382116300003a68576300005c288654630000827a565b601f81116300005d02575b50602090601f83116001146300005c885792826001949360209386956000926300005c7b575b5050600019600383901b1c191690841b1787555b019401910190926300001d9f565b015190508e806300005c59565b908660005260206000209160005b601f19851681106300005ce8575083602093600196938796938794601f198116106300005ccd575b505050811b0187556300005c6d565b015160001960f88460031b161c191690558e80806300005cbe565b919260206001819286850151815501940192016300005c96565b6300005d3490876000526020600020601f850160051c810191602086106300003a5c57601f0160051c019063000082ba565b8b6300005c33565b601385016000526020600020908382015b81830181106300005d615750506300001d89565b806300005d7160019263000082ef565b016300005d4d565b80518051906001600160401b0382116300003a68576300005d9c8654630000827a565b601f81116300005e76575b50602090601f83116001146300005dfc5792826001949360209386956000926300005def575b5050600019600383901b1c191690841b1787555b019401910190926300001d4d565b015190508e806300005dcd565b908660005260206000209160005b601f19851681106300005e5c575083602093600196938796938794601f198116106300005e41575b505050811b0187556300005de1565b015160001960f88460031b161c191690558e80806300005e32565b919260206001819286850151815501940192016300005e0a565b6300005ea890876000526020600020601f850160051c810191602086106300003a5c57601f0160051c019063000082ba565b8b6300005da7565b601285016000526020600020908382015b81830181106300005ed55750506300001d37565b806300005ee560019263000082ef565b016300005ec1565b0151905088806300001c55565b90600d850160005260206000209160005b601f19851681106300005f5e57509183916001936101c09695601f198116106300005f43575b505050811b01600d8401556300001c6d565b015160001960f88460031b161c191690558880806300005f31565b919260206001819286850151815501940192016300005f0b565b6300005fad90600d86016000526020600020601f850160051c810191602086106300003a5c57601f0160051c019063000082ba565b876300001c33565b0151905087806300001be6565b9250600c85016000526020600020906000935b601f19841685106300006021576001945083601f198116106300006006575b505050811b01600c8301556300001bfe565b015160001960f88460031b161c191690558780806300005ff4565b818101518355602094850194600190930192909101906300005fd5565b630000607390600c87016000526020600020601f850160051c810191602086106300003a5c57601f0160051c019063000082ba565b886300001bcb565b80518051906001600160401b0382116300003a6857630000609e8654630000827a565b601f81116300006178575b50602090601f831160011463000060fe57928260019493602093869560009263000060f1575b5050600019600383901b1c191690841b1787555b019401910190926300001b4f565b015190508e8063000060cf565b908660005260206000209160005b601f1985168110630000615e575083602093600196938796938794601f198116106300006143575b505050811b01875563000060e3565b015160001960f88460031b161c191690558e80806300006134565b91926020600181928685015181550194019201630000610c565b63000061aa90876000526020600020601f850160051c810191602086106300003a5c57601f0160051c019063000082ba565b8b63000060a9565b600885016000526020600020908382015b818301811063000061d75750506300001b39565b8063000061e760019263000082ef565b0163000061c3565b80518051906001600160401b0382116300003a685763000062128654630000827a565b601f811163000062ec575b50602090601f831160011463000062725792826001949360209386956000926300006265575b5050600019600383901b1c191690841b1787555b019401910190926300001afc565b015190508e806300006243565b908660005260206000209160005b601f198516811063000062d2575083602093600196938796938794601f1981161063000062b7575b505050811b0187556300006257565b015160001960f88460031b161c191690558e808063000062a8565b919260206001819286850151815501940192016300006280565b630000631e90876000526020600020601f850160051c810191602086106300003a5c57601f0160051c019063000082ba565b8b630000621d565b600785016000526020600020908382015b8183018110630000634b5750506300001ae6565b80630000635b60019263000082ef565b016300006337565b805180518051906001600160401b0382116300003a68578190630000638a8854630000827a565b601f81116300006823575b50602090601f831160011463000067ad5760009263000067a0575b50508160011b916000199060031b1c19161785555b6020810151600a81101563000044e2576001860190815460ff61ff006040860151151560081b1692169061ffff191617179055606081015180519060018060401b0382116300003a6857819063000064226002890154630000827a565b601f81116300006763575b50602090601f831160011463000066e75760009263000066da575b50508160011b916000199060031b1c19161760028601555b60808101518051906001600160401b0382116300003a685763000064896003880154630000827a565b601f8111630000669d575b50602090601f831160011463000066205760a0939291600091836300006613575b50508160011b916000199060031b1c19161760038701555b01518051906001600160401b0382116300003a685763000064f36004870154630000827a565b601f811163000065d6575b50602090601f831160011463000065565792826005936020936001966000926300006549575b5050600019600383901b1c191690851b1760048801555b019401910190926300001aaa565b015190508e806300006524565b906004870160005260206000209160005b601f198516811063000065bc575083602093600196938793600597601f1981161063000065a1575b505050811b016004880155630000653b565b015160001960f88460031b161c191690558e8080630000658f565b919260206001819286850151815501940192016300006567565b630000660b90600488016000526020600020601f850160051c810191602086106300003a5c57601f0160051c019063000082ba565b8b63000064fe565b015190508d8063000064b5565b906003880160005260206000209160005b601f19851681106300006683575091839160019360a09695601f198116106300006668575b505050811b01600387015563000064cd565b015160001960f88460031b161c191690558d80806300006656565b919260206001819286850151815501940192016300006631565b63000066d290600389016000526020600020601f850160051c810191602086106300003a5c57601f0160051c019063000082ba565b8c6300006494565b015190508c806300006448565b9250600288016000526020600020906000935b601f19841685106300006746576001945083601f19811610630000672b575b505050811b0160028601556300006460565b015160001960f88460031b161c191690558c80806300006719565b8181015183556020948501946001909301929091019063000066fa565b63000067989060028a016000526020600020601f850160051c810191602086106300003a5c57601f0160051c019063000082ba565b8d630000642d565b015190508c8063000063b0565b9250876000526020600020906000935b601f19841685106300006806576001945083601f1981161063000067eb575b505050811b01855563000063c5565b015160001960f88460031b161c191690558c808063000067dc565b8181015183556020948501946001909301929091019063000067bd565b630000685590896000526020600020601f850160051c810191602086106300003a5c57601f0160051c019063000082ba565b8d6300006395565b6005818102048103630000464a576005838102048303630000464a576006850160005260206000208360050281015b826005028201811063000068a35750506300001a94565b8063000068b360059263000082ef565b6000600182015563000068ca6002820163000082ef565b63000068da6003820163000082ef565b63000068ea6004820163000082ef565b01630000688c565b0151905087806300001a4d565b9250600585016000526020600020906000935b601f1984168510630000695e576001945083601f198116106300006943575b505050811b0160058301556300001a65565b015160001960f88460031b161c191690558780806300006931565b818101518355602094850194600190930192909101906300006912565b63000069b090600587016000526020600020601f850160051c810191602086106300003a5c57601f0160051c019063000082ba565b886300001a32565b01519050878063000019e4565b9250600485016000526020600020906000935b601f19841685106300006a24576001945083601f198116106300006a09575b505050811b01600483015563000019fc565b015160001960f88460031b161c1916905587808063000069f7565b8181015183556020948501946001909301929091019063000069d8565b6300006a7690600487016000526020600020601f850160051c810191602086106300003a5c57601f0160051c019063000082ba565b8863000019c9565b015190508780630000197b565b9250600385016000526020600020906000935b601f19841685106300006aea576001945083601f198116106300006acf575b505050811b0160038301556300001993565b015160001960f88460031b161c191690558780806300006abd565b818101518355602094850194600190930192909101906300006a9e565b6300006b3c90600387016000526020600020601f850160051c810191602086106300003a5c57601f0160051c019063000082ba565b886300001960565b0151905087806300001912565b9250600285016000526020600020906000935b601f19841685106300006bb0576001945083601f198116106300006b95575b505050811b016002830155630000192a565b015160001960f88460031b161c191690558780806300006b83565b818101518355602094850194600190930192909101906300006b64565b6300006c0290600287016000526020600020601f850160051c810191602086106300003a5c57601f0160051c019063000082ba565b8863000018f7565b015190508780630000188b565b9250846000526020600020906000935b601f19841685106300006c70576001945083601f198116106300006c55575b505050811b01825563000018a0565b015160001960f88460031b161c191690558780806300006c46565b818101518355602094850194600190930192909101906300006c27565b6300006cbf90866000526020600020601f850160051c810191602086106300003a5c57601f0160051c019063000082ba565b886300001870565b6020906300006cd66300007e11565b606081526000838201526000604082015260608082015260606080820152606060a08201528282850101520163000010db565b80518051906001600160401b0382116300003a68576300006d2c8654630000827a565b601f81116300006e06575b50602090601f83116001146300006d8c5792826001949360209386956000926300006d7f575b5050600019600383901b1c191690841b1787555b019401910190926300000f09565b015190508e806300006d5d565b908660005260206000209160005b601f19851681106300006dec575083602093600196938796938794601f198116106300006dd1575b505050811b0187556300006d71565b015160001960f88460031b161c191690558e80806300006dc2565b919260206001819286850151815501940192016300006d9a565b6300006e3890876000526020600020601f850160051c810191602086106300003a5c57601f0160051c019063000082ba565b8b6300006d37565b601385016000526020600020908382015b81830181106300006e655750506300000ef3565b806300006e7560019263000082ef565b016300006e51565b80518051906001600160401b0382116300003a68576300006ea08654630000827a565b601f81116300006f7a575b50602090601f83116001146300006f005792826001949360209386956000926300006ef3575b5050600019600383901b1c191690841b1787555b019401910190926300000eb7565b015190508e806300006ed1565b908660005260206000209160005b601f19851681106300006f60575083602093600196938796938794601f198116106300006f45575b505050811b0187556300006ee5565b015160001960f88460031b161c191690558e80806300006f36565b919260206001819286850151815501940192016300006f0e565b6300006fac90876000526020600020601f850160051c810191602086106300003a5c57601f0160051c019063000082ba565b8b6300006eab565b601285016000526020600020908382015b81830181106300006fd95750506300000ea1565b806300006fe960019263000082ef565b016300006fc5565b0151905088806300000dbb565b90600d850160005260206000209160005b601f1985168110630000706257509183916001936101c09695601f198116106300007047575b505050811b01600d8401556300000dd3565b015160001960f88460031b161c191690558880806300007035565b91926020600181928685015181550194019201630000700f565b63000070b190600d86016000526020600020601f850160051c810191602086106300003a5c57601f0160051c019063000082ba565b876300000d99565b0151905087806300000d4c565b9250600c85016000526020600020906000935b601f19841685106300007125576001945083601f19811610630000710a575b505050811b01600c8301556300000d64565b015160001960f88460031b161c1916905587808063000070f8565b8181015183556020948501946001909301929091019063000070d9565b630000717790600c87016000526020600020601f850160051c810191602086106300003a5c57601f0160051c019063000082ba565b886300000d31565b80518051906001600160401b0382116300003a685763000071a28654630000827a565b601f8111630000727c575b50602090601f8311600114630000720257928260019493602093869560009263000071f5575b5050600019600383901b1c191690841b1787555b019401910190926300000cb5565b015190508e8063000071d3565b908660005260206000209160005b601f19851681106300007262575083602093600196938796938794601f198116106300007247575b505050811b01875563000071e7565b015160001960f88460031b161c191690558e80806300007238565b919260206001819286850151815501940192016300007210565b63000072ae90876000526020600020601f850160051c810191602086106300003a5c57601f0160051c019063000082ba565b8b63000071ad565b600885016000526020600020908382015b818301811063000072db5750506300000c9f565b8063000072eb60019263000082ef565b0163000072c7565b80518051906001600160401b0382116300003a685763000073168654630000827a565b601f811163000073f0575b50602090601f831160011463000073765792826001949360209386956000926300007369575b5050600019600383901b1c191690841b1787555b019401910190926300000c62565b015190508e806300007347565b908660005260206000209160005b601f198516811063000073d6575083602093600196938796938794601f1981161063000073bb575b505050811b018755630000735b565b015160001960f88460031b161c191690558e808063000073ac565b919260206001819286850151815501940192016300007384565b630000742290876000526020600020601f850160051c810191602086106300003a5c57601f0160051c019063000082ba565b8b6300007321565b600785016000526020600020908382015b8183018110630000744f5750506300000c4c565b80630000745f60019263000082ef565b01630000743b565b805180518051906001600160401b0382116300003a68578190630000748e8854630000827a565b601f81116300007927575b50602090601f831160011463000078b15760009263000078a4575b50508160011b916000199060031b1c19161785555b6020810151600a81101563000044e2576001860190815460ff61ff006040860151151560081b1692169061ffff191617179055606081015180519060018060401b0382116300003a6857819063000075266002890154630000827a565b601f81116300007867575b50602090601f831160011463000077eb5760009263000077de575b50508160011b916000199060031b1c19161760028601555b60808101518051906001600160401b0382116300003a6857630000758d6003880154630000827a565b601f811163000077a1575b50602090601f831160011463000077245760a0939291600091836300007717575b50508160011b916000199060031b1c19161760038701555b01518051906001600160401b0382116300003a685763000075f76004870154630000827a565b601f811163000076da575b50602090601f8311600114630000765a579282600593602093600196600092630000764d575b5050600019600383901b1c191690851b1760048801555b019401910190926300000c10565b015190508e806300007628565b906004870160005260206000209160005b601f198516811063000076c0575083602093600196938793600597601f1981161063000076a5575b505050811b016004880155630000763f565b015160001960f88460031b161c191690558e80806300007693565b91926020600181928685015181550194019201630000766b565b630000770f90600488016000526020600020601f850160051c810191602086106300003a5c57601f0160051c019063000082ba565b8b6300007602565b015190508d8063000075b9565b906003880160005260206000209160005b601f19851681106300007787575091839160019360a09695601f19811610630000776c575b505050811b01600387015563000075d1565b015160001960f88460031b161c191690558d8080630000775a565b919260206001819286850151815501940192016300007735565b63000077d690600389016000526020600020601f850160051c810191602086106300003a5c57601f0160051c019063000082ba565b8c6300007598565b015190508c80630000754c565b9250600288016000526020600020906000935b601f1984168510630000784a576001945083601f19811610630000782f575b505050811b0160028601556300007564565b015160001960f88460031b161c191690558c8080630000781d565b8181015183556020948501946001909301929091019063000077fe565b630000789c9060028a016000526020600020601f850160051c810191602086106300003a5c57601f0160051c019063000082ba565b8d6300007531565b015190508c8063000074b4565b9250876000526020600020906000935b601f1984168510630000790a576001945083601f1981161063000078ef575b505050811b01855563000074c9565b015160001960f88460031b161c191690558c808063000078e0565b8181015183556020948501946001909301929091019063000078c1565b630000795990896000526020600020601f850160051c810191602086106300003a5c57601f0160051c019063000082ba565b8d6300007499565b6005818102048103630000464a576005838102048303630000464a576006850160005260206000208360050281015b826005028201811063000079a75750506300000bfa565b8063000079b760059263000082ef565b6000600182015563000079ce6002820163000082ef565b63000079de6003820163000082ef565b63000079ee6004820163000082ef565b016300007990565b0151905087806300000bb3565b9250600585016000526020600020906000935b601f19841685106300007a62576001945083601f198116106300007a47575b505050811b0160058301556300000bcb565b015160001960f88460031b161c191690558780806300007a35565b818101518355602094850194600190930192909101906300007a16565b6300007ab490600587016000526020600020601f850160051c810191602086106300003a5c57601f0160051c019063000082ba565b886300000b98565b0151905087806300000b4a565b9250600485016000526020600020906000935b601f19841685106300007b28576001945083601f198116106300007b0d575b505050811b0160048301556300000b62565b015160001960f88460031b161c191690558780806300007afb565b818101518355602094850194600190930192909101906300007adc565b6300007b7a90600487016000526020600020601f850160051c810191602086106300003a5c57601f0160051c019063000082ba565b886300000b2f565b0151905087806300000ae1565b9250600385016000526020600020906000935b601f19841685106300007bee576001945083601f198116106300007bd3575b505050811b0160038301556300000af9565b015160001960f88460031b161c191690558780806300007bc1565b818101518355602094850194600190930192909101906300007ba2565b6300007c4090600387016000526020600020601f850160051c810191602086106300003a5c57601f0160051c019063000082ba565b886300000ac6565b0151905087806300000a78565b9250600285016000526020600020906000935b601f19841685106300007cb4576001945083601f198116106300007c99575b505050811b0160028301556300000a90565b015160001960f88460031b161c191690558780806300007c87565b818101518355602094850194600190930192909101906300007c68565b6300007d0690600287016000526020600020601f850160051c810191602086106300003a5c57601f0160051c019063000082ba565b886300000a5d565b01519050878063000009f1565b9250846000526020600020906000935b601f19841685106300007d74576001945083601f198116106300007d59575b505050811b0182556300000a06565b015160001960f88460031b161c191690558780806300007d4a565b818101518355602094850194600190930192909101906300007d2b565b6300007dc390866000526020600020601f850160051c810191602086106300003a5c57601f0160051c019063000082ba565b8863000009d6565b6020906300007dda6300007e11565b6060808252839060008284015260006040840152808084015280608084015260a083015282608001015201630000005d565b600080fd5b6040519060c082016001600160401b038111838210176300003a6857604052565b6040519061018082016001600160401b038111838210176300003a6857604052565b604051906101e082016001600160401b038111838210176300003a6857604052565b60408051919082016001600160401b038111838210176300003a6857604052565b60405190606082016001600160401b038111838210176300003a6857604052565b60405190602082016001600160401b038111838210176300003a6857604052565b6006111563000044e257565b6300007ef16300007e32565b60008082528060208301528060408301528060608301528060808301528060a0830152606060c0830152606060e0830152610100918183820152816101208181840152816101409181838601528161016080960152816300007f536300007eb8565b978189526300007f636300007eb8565b8281526300007f726300007e32565b99838b528360208c01528360408c01528360608c01528360808c01528360a08c015260c08b015260e08a015288015286015284015282015290565b8051156300007fbc5760200190565b634e487b7160e01b600052603260045260246000fd5b8051600110156300007fbc5760400190565b8051600210156300007fbc5760600190565b8051600310156300007fbc5760800190565b8051600410156300007fbc5760a00190565b8051600510156300007fbc5760c00190565b8051600610156300007fbc5760e00190565b8051600710156300007fbc576101000190565b630000805d6300007e97565b90602a8252690303030303030303030360b41b6040837f307830303030303030303030303030303030303030303030303030303030303060208201520152565b60405190608082016001600160401b038111838210176300003a68576040526003825260005b60608082101563000080e157906020918282860101520163000080c3565b50509063000080f06300007e76565b600a81526944414f206f776e65727360b01b60208201526300008114826300007fad565b526300008122816300007fad565b50630000812f6300007e76565b601581527f53797374656d2061646d696e6973747261746f7273000000000000000000000060208201526300008166826300007fd2565b526300008174816300007fd2565b5063000081816300007e76565b600e81526d446174612070726f76696465727360901b602082015263000081a9826300007fe4565b5263000081b7816300007fe4565b5090565b63000081c76300007e76565b6001815260005b6020908181101563000081ed57606060209282850101520163000081ce565b505063000081fb6300007e97565b602a81527f5374616e64617264697a656420736368656d6120666f72204343495020636f6d6020820152697061746962696c69747960b01b60408201526300008245826300007fad565b5263000081b7816300007fad565b60005b83811063000082685750506000910152565b81810151838201526020016300008256565b90600182811c9216801563000082ae575b6020831014630000829857565b634e487b7160e01b600052602260045260246000fd5b91607f1691630000828b565b81811063000082c7575050565b6000815560010163000082ba565b90600481101563000044e25760ff80198354169116179055565b63000082fd8154630000827a565b90816300008309575050565b81601f60009311600114630000831d575055565b9080839182526300008340601f60208420940160051c84016001850163000082ba565b5555565b6000198114630000464a5760010190565b906020916300008372815180928185528580860191016300008253565b601f01601f191601019056fe608080604052600436101561001357600080fd5b60003560e01c9081630a2eb30114612c2a57508063137be5b214610ed957806314d0f1ba14612beb5780632cf52fe814612bb95780632d1d70de14612b2c5780632db74af314612b11578063372d6b2714612a455780633d4fcbe614612a1f57806341c260dd1461295b57806344aca9041461292a57806348401abc1461253357806348c7dc92146124d55780634f471e8f146122dc57806350910ad61461226957806351858e271461225057806354874b2b1461211c57806368fa813414612092578063715018a61461203957806376be158514611ffa578063780aac0314611fbb5780637a327d9414611f72578063869d785f14611f025780638c1d5e2414611ebe5780638da5cb5b14611e955780639b1c7ca614611c4a578063a5dabe8e14611bc5578063ab0602cf146112fe578063ad7159cb14610e8b578063ae2251e81461120b578063b03c206a146111cb578063b50d775614611019578063b532e4cb14610fa6578063b544c08314610f2c578063b7b05f1614610ed9578063b8acb00814610e8b578063b8c7724a14610e6d578063bc7efc5f14610db4578063c999117614610d6f578063d3ed5a1114610ce6578063e81ee43e14610c1f578063f1a03f1b146107e9578063f23378ca146103bf578063f2fde38b146102f6578063f9244dd7146102865763fa6f39361461020e57600080fd5b346102815760203660031901126102815760206001600160a01b0380610232612c7f565b16806000526009835260ff6040600020541691821561026d575b821561025f575b50506040519015158152f35b600054161490503880610253565b6008845260406000205460ff16925061024c565b600080fd5b346102815760203660031901126102815761029f612c7f565b33600052600860205260ff6040600020541680156102e2575b6102c1906135f7565b6001600160a01b03166000908152600a60205260409020805460ff19169055005b506000546001600160a01b031633146102b8565b346102815760203660031901126102815761030f612c7f565b61031761359f565b6001600160a01b0390811690811561036b57600054826bffffffffffffffffffffffff60a01b821617600055167f8be0079c531659141344cd1fd0a4f28419497f9722a3daafe3b4186f6b6457e0600080a3005b60405162461bcd60e51b815260206004820152602660248201527f4f776e61626c653a206e6577206f776e657220697320746865207a65726f206160448201526564647265737360d01b6064820152608490fd5b3461028157610160366003190112610281576004356001600160401b038111610281576103f0903690600401612d6b565b60046024351015610281576044356001600160401b0381116102815761041a903690600401612d6b565b906064356001600160401b0381116102815761043a903690600401612d6b565b906084356001600160401b0381116102815761045a903690600401612d6b565b9260a4356001600160401b0381116102815761047a903690600401612d6b565b926001600160401b0360c435116102815736602360c435011215610281576104a760c43560040135612def565b6104b46040519182612d04565b60c4356004013581526020810136602460c4356004013560051b60c43501011161028157602460c43501905b602460c4356004013560051b60c435010182106106be57505060e4356001600160401b03811161028157610518903690600401612e13565b610104356001600160401b03811161028157610538903690600401612e13565b610124356001600160401b03811161028157610558903690600401612d6b565b91610144356001600160401b03811161028157610579903690600401612d6b565b9333600052600860205260ff6040600020541680156106aa575b61059c906135f7565b6040518851908060208b01926105b3818386613151565b8101600381520360200190205460ff166105cc90614b7f565b8a5115156105d990614ca7565b865115156105e690614c5b565b815115156105f390614cf3565b6040518080928b51809261060692613151565b8101600281520360200190206004019860405161062481809c613241565b0361062f908b612d04565b61063889614e36565b8a610641613742565b97602435996106509a8c6139d4565b610659906139b4565b906040518091604082526040820161067091613174565b938185036020830152339461068491613174565b037f13b0fe0315832ca9294aebfaec7c66b0a8fa8abf1458e42623de230a1c00d30091a3005b506000546001600160a01b03163314610593565b81356001600160401b0381116102815760c060c43582013603602319011261028157604051916106ed83612cb1565b60248260c4350101356001600160401b0381116102815761071890602436918560c435010101612d6b565b835260448260c435010135600a81101561028157602084015261074160648360c4350101612e06565b60408401526001600160401b0360848360c43501013511610281576107733660c4358401608481013501602401612d6b565b60608401526001600160401b0360a48360c43501013511610281576107a53660c435840160a481013501602401612d6b565b608084015260c4828135010135926001600160401b038411610281576107d96020949360248695369260c435010101612d6b565b60a08201528152019101906104e0565b34610281576020366003190112610281576004356001600160401b03811161028157602061081e6108da923690600401612d6b565b60405161082a81612ccc565b606081526000838201526060604082015260608082015260606080820152606060a0820152606060c0820152606060e08201526060610100820152600061012082015260006101408201526000610160820152606061018082015260606101a08201526101c0610898613679565b910152604051906108c960ff8251938581818601966108b881838a613151565b810160038152030190205416614b7f565b604051938492839251928391613151565b81016002815203019020604051906108f182612ccc565b604051610909816109028185613241565b0382612d04565b825261091f60ff60018301541660208401613801565b604051610933816109028160028601613241565b604083015260405161094c816109028160038601613241565b6060830152604051610965816109028160048601613241565b608083015260405161097e816109028160058601613241565b60a083015260068101805461099281612def565b916109a06040519384612d04565b818352602083019060005260206000206000915b838310610c015786610a4b600e888860c08501526109d4600782016132e1565b60e08501526109e5600882016132e1565b61010085015260ff6009820154161515610120850152600a810154610140850152600b810154610160850152604051610a258161090281600c8601613241565b610180850152604051610a3f8161090281600d8601613241565b6101a085015201613346565b6101c0820152604051809160208252610ae8610ad2610abc610aa6610a7e85516101e06020890152610200880190613174565b610a9060208701516040890190612d89565b6040860151878203601f19016060890152613174565b6060850151868203601f19016080880152613174565b6080840151858203601f190160a0870152613174565b60a0830151848203601f190160c0860152613174565b60c082015190601f198482030160e0850152815180825260208201916020808360051b8301019401926000915b838310610bce578780610bca896101c0610bb5610b9f610b61610b498e60e0870151601f198a8303016101008b0152613199565b610100860151888203601f19016101208a0152613199565b6101208501511515610140880152610140850151610160880152610160850151610180880152610180850151601f19888303016101a0890152613174565b6101a0840151868203601f190184880152613174565b910151838203601f19016101e085015261340a565b0390f35b91939596509193602080610bee600193601f19868203018752895161352a565b9701930193019092879695949293610b15565b60056020600192610c1185614bc0565b8152019201920191906109b4565b3461028157610cd0610c92602060ff610c80610c3a36612e93565b9c8a9e939a9c929b919c999499989598979697336000526008825283604060002054168015610cd2575b610c6d906135f7565b8160405193828580945193849201613151565b81016003815203019020541615613634565b610c9e8b5115156137b5565b610caa83511515614c5b565b610cb684511515614ca7565b610cc286511515614cf3565b610cca613742565b9a6139d4565b005b506000546001600160a01b03163314610c64565b34610281576020610d0e610cf9366134cb565b92908160405193828580945193849201613151565b8101600581520301902090815481101561028157610d2b916134fc565b610d5957610902610d45610bca9260405192838092613241565b604051918291602083526020830190613174565b634e487b7160e01b600052600060045260246000fd5b3461028157602036600319011261028157610d88612c7f565b610d9061359f565b6001600160a01b03166000908152600860205260409020805460ff19166001179055005b34610281576020610dc7610cf9366134cb565b8101600681520301902090600052602052610e37604060002060405190610df982610df28184613241565b0383612d04565b60ff604051610e0f816109028160018701613241565b600283015492610e45600460038301549201549260405197889760c0895260c0890190613174565b908782036020890152613174565b936040860152606085015260018060a01b038116608085015260a01c16151560a08301520390f35b34610281576000366003190112610281576020600b54604051908152f35b34610281576020366003190112610281576004356001600160401b0381116102815760ff610ec36020610c6d81943690600401612d6b565b8101600381520301902054166040519015158152f35b34610281576020366003190112610281576004356001600160401b0381116102815760ff610f116020610c6d81943690600401612d6b565b810160048152030190205416610f2a6040518092612d89565bf35b3461028157610bca610f92610f4036612dac565b90604051610f4d81612cb1565b60608152600060208201526000604082015260608082015260606080820152606060a0820152610f8d60ff60405160208186516108b88183858b01613151565b6152e2565b60405191829160208352602083019061352a565b3461028157602036600319011261028157610fbf612c7f565b33600052600860205260ff604060002054168015611005575b610fe1906135f7565b6001600160a01b03166000908152600960205260409020805460ff19166001179055005b506000546001600160a01b03163314610fd8565b3461028157602080600319360112610281576004356001600160401b0381116102815761104a903690600401612d6b565b33600052600a825260ff806040600020541680156111b9575b80156111a7575b8015611193575b61107a906135f7565b60405190611096818451938681818801966108b881838a613151565b604051848185516110a8818388613151565b8101600281520301902092600e840154928284161561114e576110f8949550828460081c166110d6816132d7565b60018103611106575b50505042600f85015560118401549160101c1642615440565b601082015542600b90910155005b61110f816132d7565b60028103156110df57806111246005926132d7565b14611130575b806110df565b60029161114560405192839251938491613151565b0152848061112a565b60405162461bcd60e51b815260048101879052601760248201527f4175746f2d757064617465206e6f7420656e61626c65640000000000000000006044820152606490fd5b506000546001600160a01b03163314611071565b5060088352806040600020541661106a565b50600983528060406000205416611063565b346102815760206111de610cf9366134cb565b810160078152030190208054821015610281576020916111fd916134fc565b90546040519160031b1c8152f35b3461028157602080600319360112610281576004356001600160401b0381116102815761123c903690600401612d6b565b336000526008825260ff6040600020541680156112ea575b61125d906135f7565b7f6b8bc325ab87de6fd5db76a0ea6091f95b945ac6a07d14c92810ec1093d1fc946112e56112d160046112c0866040516112a660ff8951928481818d01956108b8818389613151565b6112af88614e36565b604051809381928a51928391613151565b8101600281520301902001936139b4565b926040519182918683523396830190613241565b0390a3005b506000546001600160a01b03163314611254565b34610281576080366003190112610281576004356001600160401b0381116102815761132e903690600401612d6b565b6024356001600160401b0381116102815761134d903690600401612d6b565b6044356001600160401b0381116102815761136c903690600401612e13565b906001600160401b036064351161028157366023606435011215610281576064356004013561139a81612def565b906113a86040519283612d04565b8082526020820180913660248260051b60643501011161028157602460643501915b60248260051b60643501018310611b795750505033600052600a60205260ff604060002054168015611b65575b8015611b51575b8015611b3d575b61140e906135f7565b61143d60ff6040516020818161142a8b83815193849201613151565b6003818301528101030190205416614b7f565b8351825103611af8576040519060208083015261146f826114616040820188613199565b03601f198101845283612d04565b604051908160408101916020808301528551809352606082019260608160051b84010191936000905b828210611acb575050506114b5925003601f198101835282612d04565b611528604080518093602082019560206114d58c89815193849201613151565b83018951906114eb828c60208085019101613151565b016114ff8251809360208085019101613151565b016115138251809360208085019101613151565b01426020820152036020810184520182612d04565b519020926040519261153984612c95565b8584526020840152836040840152426060840152336080840152600160a084015260c083015260e082015260405160208185516115798183858a01613151565b810160068152030190208260005260205260406000209080518051906001600160401b0382116117895781906115b9826115b38754613207565b87613824565b602090601f8311600114611a5f57600092611a54575b50508160011b916000199060031b1c19161782555b60208101518051906001600160401b0382116117895781906116168261160d6001880154613207565b60018801613824565b602090601f83116001146119e2576000926119d7575b50508160011b916000199060031b1c19161760018301555b60408101516002830155606081015160038301556004820160018060a01b0360808301511681549060ff60a01b60a0850151151560a01b16916affffffffffffffffffffff60a81b16171790556005820160c082015160208151916116a98385613906565b01916000526020600020916000905b8282106118fa575050505060e00151805190600160401b8211611789576006830154826006850155808310611882575b5060206006910192016000526020600020916000905b82821061179f578585604051602081845161171c8183858901613151565b810160078152030190208054600160401b81101561178957611743916001820181556134fc565b81549060031b9083821b91600019901b191617905561176233926139b4565b7fd43380d9043f9dc8fa2b83a8c42ddc2397ccb419725982a86e035c9b67153910600080a4005b634e487b7160e01b600052604160045260246000fd5b80518051906001600160401b038211611789576117c6826117c08854613207565b88613824565b602090601f8311600114611812579282600194936020938695600092611807575b5050600019600383901b1c191690841b1787555b019401910190926116fe565b015190508b806117e7565b908660005260206000209160005b601f198516811061186a575083602093600196938796938794601f19811610611851575b505050811b0187556117fb565b015160001960f88460031b161c191690558b8080611844565b91926020600181928685015181550194019201611820565b600684016000526020600020908382015b81830181106118a35750506116e8565b806118b060019254613207565b806118bd575b5001611893565b601f811183146118d35750600081555b896118b6565b6000908282526118f1601f60208420920160051c820185830161380d565b818355556118cd565b80518051906001600160401b0382116117895761191b826117c08854613207565b602090601f831160011461196757928260019493602093869560009261195c575b5050600019600383901b1c191690841b1787555b019401910190926116b8565b015190508d8061193c565b908660005260206000209160005b601f19851681106119bf575083602093600196938796938794601f198116106119a6575b505050811b018755611950565b015160001960f88460031b161c191690558d8080611999565b91926020600181928685015181550194019201611975565b01519050868061162c565b9250600185016000526020600020906000935b601f1984168510611a39576001945083601f19811610611a20575b505050811b016001830155611644565b015160001960f88460031b161c19169055868080611a10565b818101518355602094850194600190930192909101906119f5565b0151905086806115cf565b9250846000526020600020906000935b601f1984168510611ab0576001945083601f19811610611a97575b505050811b0182556115e4565b015160001960f88460031b161c19169055868080611a8a565b81810151835560209485019460019093019290910190611a6f565b91935091602080611ae8600193605f198a82030186528851613174565b9601920192018593919492611498565b60405162461bcd60e51b815260206004820152601f60248201527f4669656c64206e616d657320616e642076616c756573206d69736d61746368006044820152606490fd5b506000546001600160a01b03163314611405565b50600860205260ff604060002054166113fe565b50600960205260ff604060002054166113f7565b8235906001600160401b038211610281573660438360643501011215610281576024916020918291611bb8903690606435018087013590604401612d25565b81520193019290506113ca565b3461028157602080600319360112610281576004356001600160401b03811161028157600e611c2583611bff611c35943690600401612d6b565b611c07613679565b50604051906108c960ff8251938581818601966108b881838a613151565b8101600281520301902001613346565b90610bca60405192828493845283019061340a565b34610281576020611cad611c5d366134cb565b9290606060e0604051611c6f81612c95565b82815282858201526000604082015260008382015260006080820152600060a08201528260c082015201528160405193828580945193849201613151565b81016006815203019020906000526020526040600020600660405191611cd283612c95565b604051611ce3816109028185613241565b8352604051611cf9816109028160018601613241565b6020840152600281015460408401526003810154606084015260048101546001600160a01b038116608085015260a090811c60ff16151590840152611d40600582016132e1565b60c0840152018054611d5181612def565b91611d5f6040519384612d04565b818352602083019060005260206000206000915b838310611e7057858560e0820152604051809160208252611da281516101006020850152610120840190613174565b60e0611e08611dc3602085015193601f199485888303016040890152613174565b604085015160608701526060850151608087015260018060a01b0360808601511660a087015260a0850151151560c087015260c0850151848783030184880152613199565b920151918184820301610100850152825190818152602081016020808460051b8401019501936000925b848410611e3f5787870388f35b91939581939597506020611e5e82600194868495030188528a51613174565b98019401940191879695939491611e32565b600160208192604051611e87816109028189613241565b815201920192019190611d73565b34610281576000366003190112610281576000546040516001600160a01b039091168152602090f35b34610281576020366003190112610281576004356001600160401b03811161028157611ef8611ef36020923690600401612d6b565b615507565b6040519015158152f35b3461028157602036600319011261028157611f1b612c7f565b33600052600860205260ff604060002054168015611f5e575b611f3d906135f7565b6001600160a01b03166000908152600960205260409020805460ff19169055005b506000546001600160a01b03163314611f34565b34610281576020366003190112610281576004356001600160401b03811161028157611fa86020610c6d81933690600401612d6b565b8101600d81520301902054604051908152f35b34610281576020366003190112610281576001600160a01b03611fdc612c7f565b16600052600a602052602060ff604060002054166040519015158152f35b34610281576020366003190112610281576001600160a01b0361201b612c7f565b166000526008602052602060ff604060002054166040519015158152f35b346102815760003660031901126102815761205261359f565b600080546001600160a01b0319811682556001600160a01b03167f8be0079c531659141344cd1fd0a4f28419497f9722a3daafe3b4186f6b6457e08280a3005b34610281576020366003190112610281576120ab612c7f565b6120b361359f565b6000546001600160a01b03918216911681146120e1576000908152600860205260409020805460ff19169055005b60405162461bcd60e51b815260206004820152601360248201527221b0b73737ba103932b6b7bb329037bbb732b960691b6044820152606490fd5b34610281576020366003190112610281576004356001600160401b0381116102815761214c903690600401612d6b565b60066121846020604051938051906108c960ff8483019361216e818a87613151565b880197858160039a8b8152030190205416614b7f565b810160028152030190200180549061219b826136f8565b916121a5816136f8565b9160005b8281106121da576121cc85610bca86604051938493604085526040850190613199565b908382036020850152613199565b806109026121fb6121ee61224b94866152c6565b5060405192838092613241565b612205828861542c565b52612210818761542c565b508661223061221f83866152c6565b506109026040518094819301613241565b61223a828761542c565b52612245818661542c565b5061398f565b6121a9565b3461028157600036600319011261028157610cd061359f565b3461028157602036600319011261028157612282612c7f565b33600052600860205260ff6040600020541680156122c8575b6122a4906135f7565b6001600160a01b03166000908152600a60205260409020805460ff19166001179055005b506000546001600160a01b0316331461229b565b34610281576020366003190112610281576004356001600160401b0381116102815761230c903690600401612d6b565b604051818180935160208193019161232392613151565b8101600281520360200190206040518061233d8184613241565b036123489082612d04565b600182015460405160ff90911692816123648160028401613241565b0361236f9083612d04565b604051806123808160038501613241565b0361238b9082612d04565b6040518061239c8160048601613241565b036123a79082612d04565b60405190816123b98160058701613241565b036123c49083612d04565b600984015460ff1691600a85015490600b86015492604051958680600c8a01906123ed91613241565b036123f89088612d04565b604051978861240a81600d8401613241565b03612415908a612d04565b600e0161242190613346565b986040519b8c9b8c6101808091528d0161243a91613174565b9060208d0161244891612d89565b8b810360408d015261245991613174565b8a810360608c015261246a91613174565b89810360808b015261247b91613174565b88810360a08a015261248c91613174565b92151560c088015260e08701526101008601528481036101208601526124b191613174565b8381036101408501526124c391613174565b828103610160840152610bca9161340a565b34610281576020366003190112610281576004356001600160401b0381116102815761251f6125106020610c6d610bca943690600401612d6b565b810160058152030190206132e1565b604051918291602083526020830190613199565b3461028157610160366003190112610281576004356001600160401b03811161028157612564903690600401612d6b565b602435151560243503610281576006604435101561028157600660643510156102815760a4356001600160401b038111610281576125a6903690600401612e13565b60c4356001600160401b038111610281576125c5903690600401612e13565b9160e435906001600160a01b0390818316830361028157610104356001600160e01b03198116900361028157610124351515610124350361028157602061264491336000526008825260ff60406000205416801561291d575b612627906135f7565b604051906108c960ff8251938581818601966108b881838a613151565b8101600281520301902092612683600e850161266e602435829060ff801983541691151516179055565b61267a6044358261394f565b6064359061396e565b60843560118501556012840190602081519161269f8385613906565b01916000526020600020916000905b8282106128435750505050601383019360208151916126cd8388613906565b01946000526020600020946000905b828210612763576014860180546101043560401c63ffffffff60a01b166001600160c81b031990911686881664ffffffffff60a01b1916171761012435151560c01b60ff60c01b1617905585610144356015820155602435612744575b600b42910155600080f35b42600f82015561275960843560643542615440565b6010820155612739565b80518051906001600160401b0382116117895761278a826127848b54613207565b8b613824565b602090601f83116001146127d65792826001949360209386956000926127cb575b5050600019600383901b1c191690841b178a555b019701910190956126dc565b015190508c806127ab565b90601f198316918a60005260206000209260005b81811061282b575092600195928592879660209610612812575b505050831b83018a556127bf565b015160001960f88460031b161c191690558b8080612804565b929360206001819287860151815501950193016127ea565b80518051906001600160401b03821161178957612864826117c08854613207565b602090601f83116001146128b05792826001949360209386956000926128a5575b5050600019600383901b1c191690841b1787555b019401910190926126ae565b015190508d80612885565b90601f198316918760005260206000209260005b8181106129055750926001959285928796602096106128ec575b505050831b83018755612899565b015160001960f88460031b161c191690558c80806128de565b929360206001819287860151815501950193016128c4565b506000548416331461261e565b34610281576020366003190112610281576004356004811015610281576129526020916131ee565b54604051908152f35b3461028157602080600319360112610281576004356001600160401b0381116102815781610c6d612990923690600401612d6b565b8101600781520301902060405190818382549182815201908192600052846000209060005b86828210612a0b5786866129cb82880383612d04565b604051928392818401908285525180915260408401929160005b8281106129f457505050500390f35b8351855286955093810193928101926001016129e5565b8354855290930192600192830192016129b5565b346102815760203660031901126102815760048035101561028157610bca61251f6136d5565b3461028157600036600319011261028157600b54600c60209081527f13649b2456f1b42fef0f0040b3aaeabcd21a76a0f3f5defd4f583839455116e8547fd421a5181c571bba3f01190c922c3b2a896fc1d84e86c9f17ac10e67ebef8b5c547f5d6016397a73f5e079297ac5a36fef17b4d9c3831618e63ab105738020ddd7205460036000527fc0da782485e77ae272268ae0a3ff44c1552ecb60b3743924de17a815e0a3cfd7546040805196875294860193909352928401526060830191909152608082015260a090f35b3461028157610cd0610cc2602060ff610c80610c3a36612e93565b346102815760203660031901126102815760206001600160a01b0380612b50612c7f565b1680600052600a835260ff60406000205416918215612ba5575b8215612b91575b8215612b835750506040519015158152f35b600054161490508280610253565b6008845260406000205460ff169250612b71565b6009845260406000205460ff169250612b6a565b34610281576020611ef8612bcc36612dac565b90612be660ff604051868185516108b88183858a01613151565b6153a5565b34610281576020366003190112610281576001600160a01b03612c0c612c7f565b166000526009602052602060ff604060002054166040519015158152f35b34610281576020366003190112610281576020906001600160a01b0380612c4f612c7f565b16806000526008845260ff60406000205416918215612c71575b505015158152f35b600054161490508380612c69565b600435906001600160a01b038216820361028157565b61010081019081106001600160401b0382111761178957604052565b60c081019081106001600160401b0382111761178957604052565b6101e081019081106001600160401b0382111761178957604052565b61018081019081106001600160401b0382111761178957604052565b90601f801991011681019081106001600160401b0382111761178957604052565b9291926001600160401b0382116117895760405191612d4e601f8201601f191660200184612d04565b829481845281830111610281578281602093846000960137010152565b9080601f8301121561028157816020612d8693359101612d25565b90565b906004821015612d965752565b634e487b7160e01b600052602160045260246000fd5b906040600319830112610281576001600160401b036004358181116102815783612dd891600401612d6b565b9260243591821161028157612d8691600401612d6b565b6001600160401b0381116117895760051b60200190565b3590811515820361028157565b9080601f8301121561028157813590612e2b82612def565b92612e396040519485612d04565b828452602092838086019160051b8301019280841161028157848301915b848310612e675750505050505090565b82356001600160401b038111610281578691612e8884848094890101612d6b565b815201920191612e57565b6101606003198201126102815760049081356001600160401b0381116102815781612ebf918401612d6b565b926024358381101561028157926044356001600160401b0381116102815783612ee9918301612d6b565b9260649081356001600160401b0381116102815781612f09918501612d6b565b9360849384356001600160401b0381116102815783612f29918301612d6b565b9460a480356001600160401b0381116102815785612f48918501612d6b565b9560c4916001600160401b0383351161028157866023843501121561028157823585013591612f7683612def565b94612f846040519687612d04565b83865260208601928960248660051b8835010111610281576024863501935b60248660051b88350101851061303357505050505050509260e4356001600160401b0381116102815781612fd8918401612e13565b92610104356001600160401b0381116102815782612ff7918501612e13565b92610124356001600160401b0381116102815783613016918301612d6b565b92610144356001600160401b03811161028157612d869201612d6b565b8435906001600160401b0382116102815760c0883583018d036023190112610281576040519161306283612cb1565b6024818a350101356001600160401b038111610281578d602461308a92848d35010101612d6b565b8352600a6044828b3501013510156102815788358101604481013560208501526130b5908701612e06565b604084015284818a350101356001600160401b038111610281578d60246130e192848d35010101612d6b565b606084015283818a350101356001600160401b038111610281578d602461310d92848d35010101612d6b565b608084015288818135010135916001600160401b0383116102815760249361313f8f8660209687968f35010101612d6b565b60a08201528152019501949050612fa3565b60005b8381106131645750506000910152565b8181015183820152602001613154565b9060209161318d81518092818552858086019101613151565b601f01601f1916010190565b90815180825260208092019182818360051b85019501936000915b8483106131c45750505050505090565b90919293949584806131de83856001950387528a51613174565b98019301930191949392906131b4565b6004811015612d9657600052600c602052604060002090565b90600182811c92168015613237575b602083101461322157565b634e487b7160e01b600052602260045260246000fd5b91607f1691613216565b906000929180549161325283613207565b9182825260019384811690816000146132b45750600114613274575b50505050565b90919394506000526020928360002092846000945b8386106132a057505050500101903880808061326e565b805485870183015294019385908201613289565b9294505050602093945060ff191683830152151560051b0101903880808061326e565b60061115612d9657565b9081546132ed81612def565b926040936132fd85519182612d04565b828152809460208092019260005281600020906000935b85851061332357505050505050565b6001848192845161333881610902818a613241565b815201930194019391613314565b9060405161335381612ce8565b6101606007829460ff815481811615158652818160081c16613374816132d7565b602087015260101c16613386816132d7565b60408501526001810154606085015260028101546080850152600381015460a08501526133b5600482016132e1565b60c08501526133c6600582016132e1565b60e085015260068101546001600160a01b038116610100860152604081901b6001600160e01b03191661012086015260c01c60ff1615156101408501520154910152565b90815115158152602082015161341f816132d7565b60208201526040820151613432816132d7565b6040820152606082015160608201526080820151608082015260a082015160a082015261348361347160c08401516101808060c0860152840190613199565b60e084015183820360e0850152613199565b610100808401516001600160a01b031690830152610120808401516001600160e01b031916908301526101408084015115159083015261016092830151929091019190915290565b604060031982011261028157600435906001600160401b038211610281576134f591600401612d6b565b9060243590565b80548210156135145760005260206000200190600090565b634e487b7160e01b600052603260045260246000fd5b61353d815160c0845260c0840190613174565b916020820151600a811015612d965761358e61357c612d869560a093602086015260408601511515604086015260608601518582036060870152613174565b60808501518482036080860152613174565b9201519060a0818403910152613174565b6000546001600160a01b031633036135b357565b606460405162461bcd60e51b815260206004820152602060248201527f4f776e61626c653a2063616c6c6572206973206e6f7420746865206f776e65726044820152fd5b156135fe57565b60405162461bcd60e51b815260206004820152600e60248201526d139bdd08185d5d1a1bdc9a5e995960921b6044820152606490fd5b1561363b57565b60405162461bcd60e51b815260206004820152601660248201527514d8da195b5848185b1c9958591e481919599a5b995960521b6044820152606490fd5b6040519061368682612ce8565b816101606000918281528260208201528260408201528260608201528260808201528260a0820152606060c0820152606060e08201528261010082015282610120820152826101408201520152565b604051602081018181106001600160401b03821117611789576040526000815290565b9061370282612def565b61370f6040519182612d04565b8281528092613720601f1991612def565b019060005b82811061373157505050565b806060602080938501015201613725565b61374a613679565b506137536136d5565b61375b6136d5565b906040519161376983612ce8565b6000918284528260208501528260408501528260608501528260808501528260a085015260c084015260e083015280610100830152806101208301528061014083015261016082015290565b156137bc57565b60405162461bcd60e51b815260206004820152601960248201527f537562646f6d61696e2063616e6e6f7420626520656d707479000000000000006044820152606490fd5b6004821015612d965752565b818110613818575050565b6000815560010161380d565b9190601f811161383357505050565b61385f926000526020600020906020601f840160051c83019310613861575b601f0160051c019061380d565b565b9091508190613852565b906004811015612d965760ff80198354169116179055565b61388d8154613207565b9081613897575050565b81601f600093116001146138a9575055565b9080839182526138c8601f60208420940160051c84016001850161380d565b5555565b80549060008155816138dc575050565b6000526020600020908101905b8181106138f4575050565b80613900600192613883565b016138e9565b90600160401b81116117895781549181815582821061392457505050565b600052602060002091820191015b81811061393d575050565b80613949600192613883565b01613932565b90613959816132d7565b61ff0082549160081b169061ff001916179055565b90613978816132d7565b62ff000082549160101b169062ff00001916179055565b600019811461399e5760010190565b634e487b7160e01b600052601160045260246000fd5b6139cc90602060405192828480945193849201613151565b810103902090565b9792969199949a959098939a6139ec895115156137b5565b613a1e60ff613a0a60208c8160405193828580945193849201613151565b600381830152810103019020541615613634565b60405197613a2b89612ccc565b898952613a3b8b60208b01613801565b8b60408a015260608901528b608089015260a088015260c087015260e0860152610100850152600161012085015242610140850152426101608501526101808401526101a08301526101c08201526040516020818451613a9e8183858901613151565b810160028152030190209080518051906001600160401b038211611789578190613acc826115b38754613207565b602090601f8311600114614b1357600092614b08575b50508160011b916000199060031b1c19161782555b60208101516004811015612d9657613b12906001840161386b565b60408101518051906001600160401b038211611789578190613b4482613b3b6002880154613207565b60028801613824565b602090601f8311600114614a9657600092614a8b575b50508160011b916000199060031b1c19161760028301555b60608101518051906001600160401b038211611789578190613ba482613b9b6003880154613207565b60038801613824565b602090601f8311600114614a1957600092614a0e575b50508160011b916000199060031b1c19161760038301555b60808101518051906001600160401b038211611789578190613c0482613bfb6004880154613207565b60048801613824565b602090601f831160011461499c57600092614991575b50508160011b916000199060031b1c19161760048301555b60a08101518051906001600160401b038211611789578190613c6482613c5b6005880154613207565b60058801613824565b602090601f831160011461491f57600092614914575b50508160011b916000199060031b1c19161760058301555b60c0810151805190600160401b8211611789576006840154826006860155808310614899575b5060200190600684016000526020600020916000905b8282106144ea57505050506007820160e08201516020815191613cf18385613906565b01916000526020600020916000905b82821061440d5750505050600882016101008201516020815191613d248385613906565b01916000526020600020916000905b8282106143305750505050613d5e6101208201511515600984019060ff801983541691151516179055565b610140810151600a830155610160810151600b8301556101808101518051906001600160401b038211611789578190613da782613d9e600c880154613207565b600c8801613824565b602090601f83116001146142be576000926142b3575b50508160011b916000199060031b1c191617600c8301555b6101a08101518051906001600160401b038211611789578190613e0882613dff600d880154613207565b600d8801613824565b602090601f831160011461424157600092614236575b50508160011b916000199060031b1c191617600d8301555b613e886101c0600e840192015191613e5d83511515829060ff801983541691151516179055565b613e746020840151613e6e816132d7565b8261394f565b604083015190613e83826132d7565b61396e565b6060810151600f8301556080810151601083015560a081015160118301556012820160c08201516020815191613ebe8385613906565b01916000526020600020916000905b82821061415957505050506013820160e08201516020815191613ef08385613906565b01916000526020600020916000905b82821061407c575050505061010081015160148301805461012084015161014085015160ff60c01b90151560c01b166001600160c81b03199092166001600160a01b039094169390931760409390931c63ffffffff60a01b16929092179190911790557fbc5e30b99f14bbf3d59c8cf7aca16b6cd889c273f13c2c4854e4d760969f076693614057939092614077926140689261404a92909160159061016001519101556040516020818351613fb88183858801613151565b81016003815203019020600160ff19825416179055613ff5856040516020818551613fe68183858a01613151565b8101600481520301902061386b565b614000600b5461398f565b600b5561400c856131ee565b614016815461398f565b90556040516020818161402f8c83815193849201613151565b8101600d815203019020614043815461398f565b90556139b4565b9560405194858095612d89565b606060208501526060840190613174565b82810360408401523396613174565b0390a3565b80518051906001600160401b0382116117895761409d826117c08854613207565b602090601f83116001146140e95792826001949360209386956000926140de575b5050600019600383901b1c191690841b1787555b01940191019092613eff565b0151905038806140be565b908660005260206000209160005b601f1985168110614141575083602093600196938796938794601f19811610614128575b505050811b0187556140d2565b015160001960f88460031b161c1916905538808061411b565b919260206001819286850151815501940192016140f7565b80518051906001600160401b0382116117895761417a826117c08854613207565b602090601f83116001146141c65792826001949360209386956000926141bb575b5050600019600383901b1c191690841b1787555b01940191019092613ecd565b01519050388061419b565b908660005260206000209160005b601f198516811061421e575083602093600196938796938794601f19811610614205575b505050811b0187556141af565b015160001960f88460031b161c191690553880806141f8565b919260206001819286850151815501940192016141d4565b015190503880613e1e565b9250600d85016000526020600020906000935b601f1984168510614298576001945083601f1981161061427f575b505050811b01600d830155613e36565b015160001960f88460031b161c1916905538808061426f565b81810151835560209485019460019093019290910190614254565b015190503880613dbd565b9250600c85016000526020600020906000935b601f1984168510614315576001945083601f198116106142fc575b505050811b01600c830155613dd5565b015160001960f88460031b161c191690553880806142ec565b818101518355602094850194600190930192909101906142d1565b80518051906001600160401b03821161178957614351826117c08854613207565b602090601f831160011461439d579282600194936020938695600092614392575b5050600019600383901b1c191690841b1787555b01940191019092613d33565b015190503880614372565b908660005260206000209160005b601f19851681106143f5575083602093600196938796938794601f198116106143dc575b505050811b018755614386565b015160001960f88460031b161c191690553880806143cf565b919260206001819286850151815501940192016143ab565b80518051906001600160401b0382116117895761442e826117c08854613207565b602090601f831160011461447a57928260019493602093869560009261446f575b5050600019600383901b1c191690841b1787555b01940191019092613d00565b01519050388061444f565b908660005260206000209160005b601f19851681106144d2575083602093600196938796938794601f198116106144b9575b505050811b018755614463565b015160001960f88460031b161c191690553880806144ac565b91926020600181928685015181550194019201614488565b805180518051906001600160401b0382116117895781906145158261450f8a54613207565b8a613824565b602090601f831160011461482d57600092614822575b50508160011b916000199060031b1c19161785555b6020810151600a811015612d96576001860190815460ff61ff006040860151151560081b1692169061ffff19161717905560608101518051906001600160401b0382116117895781906145a38261459a60028b0154613207565b60028b01613824565b602090601f83116001146147b0576000926147a5575b50508160011b916000199060031b1c19161760028601555b60808101518051906001600160401b03821161178957614601826145f860038a0154613207565b60038a01613824565b602090601f83116001146147325760a093929160009183614727575b50508160011b916000199060031b1c19161760038701555b01518051906001600160401b03821161178957614662826146596004890154613207565b60048901613824565b602090601f83116001146146b15792826005936020936001966000926146a6575b5050600019600383901b1c191690851b1760048801555b01940191019092613cce565b015190503880614683565b906004870160005260206000209160005b601f198516811061470f575083602093600196938793600597601f198116106146f6575b505050811b01600488015561469a565b015160001960f88460031b161c191690553880806146e6565b919260206001819286850151815501940192016146c2565b01519050388061461d565b906003880160005260206000209160005b601f198516811061478d575091839160019360a09695601f19811610614774575b505050811b016003870155614635565b015160001960f88460031b161c19169055388080614764565b91926020600181928685015181550194019201614743565b0151905038806145b9565b9250600288016000526020600020906000935b601f1984168510614807576001945083601f198116106147ee575b505050811b0160028601556145d1565b015160001960f88460031b161c191690553880806147de565b818101518355602094850194600190930192909101906147c3565b01519050388061452b565b9250876000526020600020906000935b601f198416851061487e576001945083601f19811610614865575b505050811b018555614540565b015160001960f88460031b161c19169055388080614858565b8181015183556020948501946001909301929091019061483d565b600581810204810361399e57600583810204830361399e576006850160005260206000208360050281015b82600502820181106148d7575050613cb8565b806148e3600592613883565b600060018201556148f660028201613883565b61490260038201613883565b61490e60048201613883565b016148c4565b015190503880613c7a565b9250600585016000526020600020906000935b601f1984168510614976576001945083601f1981161061495d575b505050811b016005830155613c92565b015160001960f88460031b161c1916905538808061494d565b81810151835560209485019460019093019290910190614932565b015190503880613c1a565b9250600485016000526020600020906000935b601f19841685106149f3576001945083601f198116106149da575b505050811b016004830155613c32565b015160001960f88460031b161c191690553880806149ca565b818101518355602094850194600190930192909101906149af565b015190503880613bba565b9250600385016000526020600020906000935b601f1984168510614a70576001945083601f19811610614a57575b505050811b016003830155613bd2565b015160001960f88460031b161c19169055388080614a47565b81810151835560209485019460019093019290910190614a2c565b015190503880613b5a565b9250600285016000526020600020906000935b601f1984168510614aed576001945083601f19811610614ad4575b505050811b016002830155613b72565b015160001960f88460031b161c19169055388080614ac4565b81810151835560209485019460019093019290910190614aa9565b015190503880613ae2565b9250846000526020600020906000935b601f1984168510614b64576001945083601f19811610614b4b575b505050811b018255613af7565b015160001960f88460031b161c19169055388080614b3e565b81810151835560209485019460019093019290910190614b23565b15614b8657565b60405162461bcd60e51b815260206004820152601260248201527114d8da195b58481b9bdd081919599a5b995960721b6044820152606490fd5b90604091825192614bd084612cb1565b838151614be1816109028187613241565b815260018301549260ff841690600a821015612d9657614c5060a09460ff600497614c5795602088015260081c161515818601528051614c28816109028160028801613241565b60608601528051614c40816109028160038801613241565b6080860152518096819301613241565b0384612d04565b0152565b15614c6257565b60405162461bcd60e51b815260206004820152601b60248201527f4465736372697074696f6e2063616e6e6f7420626520656d70747900000000006044820152606490fd5b15614cae57565b60405162461bcd60e51b815260206004820152601760248201527f56657273696f6e2063616e6e6f7420626520656d7074790000000000000000006044820152606490fd5b15614cfa57565b60405162461bcd60e51b815260206004820152602360248201527f536368656d61206d7573742068617665206174206c65617374206f6e65206669604482015262195b1960ea1b6064820152608490fd5b801561399e576000190190565b90808214614e3257614d6a8154613207565b906001600160401b038211611789578190614d8f82614d898654613207565b86613824565b600090601f8311600114614dc657600092614dbb575b50508160011b916000199060031b1c1916179055565b015490503880614da5565b81526020808220858352818320935090601f1985169083905b828210614e19575050908460019594939210614e00575b505050811b019055565b015460001960f88460031b161c19169055388080614df6565b8495819295850154815560018091019601940190614ddf565b5050565b906040805183519160209081860193614e50818587613151565b83019282816002958681520301902093614e6b600b54614d4b565b600b5583600195614e8160ff88830154166131ee565b614e8b8154614d4b565b905501938251848160008854614ea081613207565b908b81169081156152b15750600114615279575b50600d815203019020614ec78154614d4b565b90558251918851614ed9818584613151565b8301928581600395868152030190209860ff19998a81541690558451948151614f03818886613151565b8601958781600498898152030190208b815416905580516000988054614f2881613207565b9d818d1691821561526257505060011461522c575b50899a9b50878160059a8b815203019020896000905b6150c8575b50508697985090614f7793949596929151938492839251928391613151565b81018481520301902095614f8a87613883565b600081880155614f9b828801613883565b614fa6838801613883565b614fb1848801613883565b614fbc868801613883565b60068701948554956000815586615057575b5050505050505050601581614fe76007600094016138cc565b614ff3600882016138cc565b82600982015582600a82015582600b820155615011600c8201613883565b61501d600d8201613883565b82600e82015582600f820155826010820155826011820155615041601282016138cc565b61504d601382016138cc565b8260148201550155565b86880296888804036150b357600052600020948501945b85811061507b5780614fce565b806150868892613883565b600083820155615097848201613883565b6150a2858201613883565b6150ad868201613883565b0161506e565b601186634e487b7160e01b6000525260246000fd5b815480821015615226576109026150ee6150e284866134fc565b50865192838092613241565b8a8151910120855187201461510d57506151079061398f565b8a614f53565b9192939495969798999a50600019918281019081116152115761513361513b91856134fc565b5091846134fc565b6151fd579061514991614d58565b815480156151e857019061515d82826134fc565b6151d45791614f779593918b848e6151778e999754613207565b9081615192575b5050505055909192969594938a9998614f58565b600093601f8084116001146151b05750505050555b8b38808f61517e565b916151cd91859387959686528d86209601901c850190850161380d565b55556151a7565b600089634e487b7160e01b82525260246000fd5b603189634e487b7160e01b6000525260246000fd5b60008a634e487b7160e01b82525260246000fd5b60118a634e487b7160e01b6000525260246000fd5b50614f58565b909850600052866000209a60009b5b818d106152515750899a9b508801978b9a614f3d565b80548a8e01529b88019b8a0161523b565b168352509a9b8c9b50801515028101985089614f3d565b905088600052826000208a6000915b83831061529a57505050810138614eb4565b8054878401528a95879550909201918c9101615288565b60ff1916845250801515028201905038614eb4565b8054821015613514576000526005602060002091020190600090565b91909150604090815183818095516153008160209889809601613151565b60029082019081520301902060060180549160005b83811061535257845162461bcd60e51b815260048101879052600f60248201526e119a595b19081b9bdd08199bdd5b99608a1b6044820152606490fd5b61090261536e61536283866152c6565b50875192838092613241565b8681519101208251878401201461538d576153889061398f565b615315565b925050612d86935061539f92506152c6565b50614bc0565b604091825182818094516153bf8160209788809601613151565b81016002815203019020926006600094018054945b8581106153e657505050505050600090565b6109026154026153f683856152c6565b50855192838092613241565b858151910120845186860120146154215761541c9061398f565b6153d4565b505050505050600190565b80518210156135145760209160051b010190565b919061544b816132d7565b8061545857505050600090565b615461816132d7565b6001810361547a575050610e10810180911161399e5790565b615483816132d7565b6002810361549d57505062015180810180911161399e5790565b6154a6816132d7565b600381036154c057505062093a80810180911161399e5790565b6154c9816132d7565b600481036154e357505062278d00810180911161399e5790565b806154ef6005926132d7565b146154fb575050600090565b810180911161399e5790565b6020615520918160405193828580945193849201613151565b81016002815203019020600e81015460ff81161561557b5760081c60ff1690615548826132d7565b6001821461556f57508061555d6003926132d7565b1461556757600090565b606443061590565b60109150015442101590565b505060009056fea2646970667358221220d2f3215da594f4156f3ce358f26e4f8a1269bfce718e78906e78f7776046fa2964736f6c6343000813003368747470733a2f2f646f63732e64616f2d72656769737472792e636f6d2f7363436f72652044414f20436f6d706f6e656e747300000000000000000000000000bc5e30b99f14bbf3d59c8cf7aca16b6cd889c273f13c2c4854e4d760969f0766",
  "linkReferences": {},
  "deployedLinkReferences": {}
}