{
  "_format": "hh-sol-artifact-1",
  "contractName": "MockTreasury",
  "sourceName": "contracts/MockTreasury.sol",
  "abi": [
    {
      "inputs": [],
      "stateMutability": "nonpayable",
      "type": "constructor"
    },
    {
      "anonymous": false,
      "inputs": [
        {
          "indexed": true,
          "internalType": "address",
          "name": "from",
          "type": "address"
        },
        {
          "indexed": false,
          "internalType": "uint256",
          "name": "amount",
          "type": "uint256"
        }
      ],
      "name": "ETHDeposited",
      "type": "event"
    },
    {
      "anonymous": false,
      "inputs": [
        {
          "indexed": true,
          "internalType": "address",
          "name": "to",
          "type": "address"
        },
        {
          "indexed": false,
          "internalType": "uint256",
          "name": "amount",
          "type": "uint256"
        }
      ],
      "name": "ETHWithdrawn",
      "type": "event"
    },
    {
      "anonymous": false,
      "inputs": [
        {
          "indexed": true,
          "internalType": "address",
          "name": "nft",
          "type": "address"
        },
        {
          "indexed": true,
          "internalType": "address",
          "name": "from",
          "type": "address"
        },
        {
          "indexed": false,
          "internalType": "uint256",
          "name": "tokenId",
          "type": "uint256"
        }
      ],
      "name": "NFTDeposited",
      "type": "event"
    },
    {
      "anonymous": false,
      "inputs": [
        {
          "indexed": true,
          "internalType": "address",
          "name": "nft",
          "type": "address"
        },
        {
          "indexed": true,
          "internalType": "address",
          "name": "to",
          "type": "address"
        },
        {
          "indexed": false,
          "internalType": "uint256",
          "name": "tokenId",
          "type": "uint256"
        }
      ],
      "name": "NFTWithdrawn",
      "type": "event"
    },
    {
      "anonymous": false,
      "inputs": [
        {
          "indexed": true,
          "internalType": "address",
          "name": "previousOwner",
          "type": "address"
        },
        {
          "indexed": true,
          "internalType": "address",
          "name": "newOwner",
          "type": "address"
        }
      ],
      "name": "OwnershipTransferred",
      "type": "event"
    },
    {
      "anonymous": false,
      "inputs": [
        {
          "indexed": true,
          "internalType": "address",
          "name": "token",
          "type": "address"
        },
        {
          "indexed": true,
          "internalType": "address",
          "name": "from",
          "type": "address"
        },
        {
          "indexed": false,
          "internalType": "uint256",
          "name": "amount",
          "type": "uint256"
        }
      ],
      "name": "TokenDeposited",
      "type": "event"
    },
    {
      "anonymous": false,
      "inputs": [
        {
          "indexed": true,
          "internalType": "address",
          "name": "token",
          "type": "address"
        },
        {
          "indexed": true,
          "internalType": "address",
          "name": "to",
          "type": "address"
        },
        {
          "indexed": false,
          "internalType": "uint256",
          "name": "amount",
          "type": "uint256"
        }
      ],
      "name": "TokenWithdrawn",
      "type": "event"
    },
    {
      "anonymous": false,
      "inputs": [
        {
          "indexed": false,
          "internalType": "uint256",
          "name": "totalValue",
          "type": "uint256"
        },
        {
          "indexed": false,
          "internalType": "uint256",
          "name": "timestamp",
          "type": "uint256"
        }
      ],
      "name": "TreasuryUpdated",
      "type": "event"
    },
    {
      "inputs": [],
      "name": "depositETH",
      "outputs": [],
      "stateMutability": "payable",
      "type": "function"
    },
    {
      "inputs": [
        {
          "internalType": "address",
          "name": "nft",
          "type": "address"
        },
        {
          "internalType": "uint256",
          "name": "tokenId",
          "type": "uint256"
        }
      ],
      "name": "depositNFT",
      "outputs": [],
      "stateMutability": "nonpayable",
      "type": "function"
    },
    {
      "inputs": [
        {
          "internalType": "address",
          "name": "token",
          "type": "address"
        },
        {
          "internalType": "uint256",
          "name": "amount",
          "type": "uint256"
        }
      ],
      "name": "depositToken",
      "outputs": [],
      "stateMutability": "nonpayable",
      "type": "function"
    },
    {
      "inputs": [],
      "name": "description",
      "outputs": [
        {
          "internalType": "string",
          "name": "",
          "type": "string"
        }
      ],
      "stateMutability": "view",
      "type": "function"
    },
    {
      "inputs": [
        {
          "internalType": "address",
          "name": "to",
          "type": "address"
        },
        {
          "internalType": "uint256",
          "name": "amount",
          "type": "uint256"
        }
      ],
      "name": "emergencyRecoverETH",
      "outputs": [],
      "stateMutability": "nonpayable",
      "type": "function"
    },
    {
      "inputs": [
        {
          "internalType": "address",
          "name": "nftAddress",
          "type": "address"
        },
        {
          "internalType": "address",
          "name": "to",
          "type": "address"
        },
        {
          "internalType": "uint256",
          "name": "tokenId",
          "type": "uint256"
        }
      ],
      "name": "emergencyRecoverNFT",
      "outputs": [],
      "stateMutability": "nonpayable",
      "type": "function"
    },
    {
      "inputs": [
        {
          "internalType": "address",
          "name": "tokenAddress",
          "type": "address"
        },
        {
          "internalType": "address",
          "name": "to",
          "type": "address"
        },
        {
          "internalType": "uint256",
          "name": "amount",
          "type": "uint256"
        }
      ],
      "name": "emergencyRecoverTokens",
      "outputs": [],
      "stateMutability": "nonpayable",
      "type": "function"
    },
    {
      "inputs": [
        {
          "internalType": "address",
          "name": "",
          "type": "address"
        }
      ],
      "name": "ethBalance",
      "outputs": [
        {
          "internalType": "uint256",
          "name": "",
          "type": "uint256"
        }
      ],
      "stateMutability": "view",
      "type": "function"
    },
    {
      "inputs": [
        {
          "internalType": "address",
          "name": "account",
          "type": "address"
        }
      ],
      "name": "getAccountBalance",
      "outputs": [
        {
          "internalType": "uint256",
          "name": "ethBal",
          "type": "uint256"
        },
        {
          "internalType": "uint256",
          "name": "tokenCount",
          "type": "uint256"
        },
        {
          "internalType": "uint256",
          "name": "nftCount",
          "type": "uint256"
        }
      ],
      "stateMutability": "view",
      "type": "function"
    },
    {
      "inputs": [],
      "name": "getTreasuryStats",
      "outputs": [
        {
          "internalType": "uint256",
          "name": "totalETH",
          "type": "uint256"
        },
        {
          "internalType": "uint256",
          "name": "totalTokens",
          "type": "uint256"
        },
        {
          "internalType": "uint256",
          "name": "totalNFTs",
          "type": "uint256"
        },
        {
          "internalType": "uint256",
          "name": "lastUpdate",
          "type": "uint256"
        }
      ],
      "stateMutability": "view",
      "type": "function"
    },
    {
      "inputs": [],
      "name": "getTreasuryValueUSD",
      "outputs": [
        {
          "internalType": "uint256",
          "name": "value",
          "type": "uint256"
        }
      ],
      "stateMutability": "view",
      "type": "function"
    },
    {
      "inputs": [
        {
          "internalType": "address",
          "name": "token",
          "type": "address"
        },
        {
          "internalType": "uint256",
          "name": "amount",
          "type": "uint256"
        }
      ],
      "name": "hasSufficientBalance",
      "outputs": [
        {
          "internalType": "bool",
          "name": "",
          "type": "bool"
        }
      ],
      "stateMutability": "view",
      "type": "function"
    },
    {
      "inputs": [],
      "name": "lastUpdated",
      "outputs": [
        {
          "internalType": "uint256",
          "name": "",
          "type": "uint256"
        }
      ],
      "stateMutability": "view",
      "type": "function"
    },
    {
      "inputs": [],
      "name": "name",
      "outputs": [
        {
          "internalType": "string",
          "name": "",
          "type": "string"
        }
      ],
      "stateMutability": "view",
      "type": "function"
    },
    {
      "inputs": [
        {
          "internalType": "address",
          "name": "",
          "type": "address"
        },
        {
          "internalType": "uint256",
          "name": "",
          "type": "uint256"
        }
      ],
      "name": "nftBalances",
      "outputs": [
        {
          "internalType": "bool",
          "name": "",
          "type": "bool"
        }
      ],
      "stateMutability": "view",
      "type": "function"
    },
    {
      "inputs": [],
      "name": "owner",
      "outputs": [
        {
          "internalType": "address",
          "name": "",
          "type": "address"
        }
      ],
      "stateMutability": "view",
      "type": "function"
    },
    {
      "inputs": [],
      "name": "renounceOwnership",
      "outputs": [],
      "stateMutability": "nonpayable",
      "type": "function"
    },
    {
      "inputs": [
        {
          "internalType": "address",
          "name": "",
          "type": "address"
        },
        {
          "internalType": "address",
          "name": "",
          "type": "address"
        }
      ],
      "name": "tokenBalances",
      "outputs": [
        {
          "internalType": "uint256",
          "name": "",
          "type": "uint256"
        }
      ],
      "stateMutability": "view",
      "type": "function"
    },
    {
      "inputs": [],
      "name": "totalValue",
      "outputs": [
        {
          "internalType": "uint256",
          "name": "",
          "type": "uint256"
        }
      ],
      "stateMutability": "view",
      "type": "function"
    },
    {
      "inputs": [
        {
          "internalType": "address",
          "name": "newOwner",
          "type": "address"
        }
      ],
      "name": "transferOwnership",
      "outputs": [],
      "stateMutability": "nonpayable",
      "type": "function"
    },
    {
      "inputs": [
        {
          "internalType": "string",
          "name": "newName",
          "type": "string"
        },
        {
          "internalType": "string",
          "name": "newDescription",
          "type": "string"
        }
      ],
      "name": "updateTreasuryInfo",
      "outputs": [],
      "stateMutability": "nonpayable",
      "type": "function"
    },
    {
      "inputs": [
        {
          "internalType": "address",
          "name": "to",
          "type": "address"
        },
        {
          "internalType": "uint256",
          "name": "amount",
          "type": "uint256"
        }
      ],
      "name": "withdrawETH",
      "outputs": [],
      "stateMutability": "nonpayable",
      "type": "function"
    },
    {
      "inputs": [
        {
          "internalType": "address",
          "name": "nft",
          "type": "address"
        },
        {
          "internalType": "address",
          "name": "to",
          "type": "address"
        },
        {
          "internalType": "uint256",
          "name": "tokenId",
          "type": "uint256"
        }
      ],
      "name": "withdrawNFT",
      "outputs": [],
      "stateMutability": "nonpayable",
      "type": "function"
    },
    {
      "inputs": [
        {
          "internalType": "address",
          "name": "token",
          "type": "address"
        },
        {
          "internalType": "address",
          "name": "to",
          "type": "address"
        },
        {
          "internalType": "uint256",
          "name": "amount",
          "type": "uint256"
        }
      ],
      "name": "withdrawToken",
      "outputs": [],
      "stateMutability": "nonpayable",
      "type": "function"
    },
    {
      "stateMutability": "payable",
      "type": "receive"
    }
  ],
  "bytecode": "0x608060405234620001a65760008054336001600160a01b0319821681178355906001600160a01b03167f8be0079c531659141344cd1fd0a4f28419497f9722a3daafe3b4186f6b6457e08380a36001908180556200005f600554620001ab565b601f811162000176575b507f4d6f636b2044414f2054726561737572790000000000000000000000000000226005556006546200009c90620001ab565b601f81116200010e575b7f52656769737472792066756e6374696f6e616c6974790000000000000000000083602084606d60065560068152207f41206d6f636b20747265617375727920666f722074657374696e672044414f2081550155426008556040516119c69081620001e98239f35b60068252601f0160051c7ff652222313e28459528d920b65115c16c04f3efc82aaedc97be59f3f377c0d3f017ff652222313e28459528d920b65115c16c04f3efc82aaedc97be59f3f377c0d415b8181106200016b5750620000a6565b82815583016200015c565b6005825282601f60208420920160051c8201915b8281106200019a57505062000069565b8381550183906200018a565b600080fd5b90600182811c92168015620001dd575b6020831014620001c757565b634e487b7160e01b600052602260045260246000fd5b91607f1691620001bb56fe6040608081526004803610156100de575b361561001b57600080fd5b6100236116a0565b34156100a457600080516020611971833981519152823360005260026020528060002061005134825461167d565b905561005f3460075461167d565b806007554260085581513481527f6c703791f399558807424f489ccd811c72b4ff0b74af547264fad7c646776df060203392a28151908152426020820152a160018055005b6020606492519162461bcd60e51b8352820152601560248201527409aeae6e840c8cae0dee6d2e840e6dedaca408aa89605b1b6044820152fd5b6000803560e01c806301e33667146112c257806306fdde03146111ef57806333760d8714611165578063338b5dea146110265780634613f29114610fdf5780634782f77914610e785780634dbf6c5a14610e21578063715018a614610dc757806371d277e714610d045780637284e41614610c225780638da5cb5b14610bfa57806393423e9c14610bb75780639b5b9b18146109d0578063b4b649e8146106e9578063bff863ec14610546578063c8692e3f14610509578063d0b06f5d146104ea578063d3df304e146104a3578063d4c3eea014610484578063d5395d2b14610452578063d8f3790f1461041a578063e110976f1461035a578063f2fde38b1461028c5763f6326fb3146101f25750610010565b919082600319360112610288576102076116a0565b34156100a4575060008051602061197183398151915290338352600260205280832061023434825461167d565b90556102423460075461167d565b806007554260085581513481527f6c703791f399558807424f489ccd811c72b4ff0b74af547264fad7c646776df060203392a28151908152426020820152a16001805580f35b8280fd5b50919034610288576020366003190112610288576102a86114a8565b906102b1611625565b6001600160a01b03918216928315610308575050600054826bffffffffffffffffffffffff60a01b821617600055167f8be0079c531659141344cd1fd0a4f28419497f9722a3daafe3b4186f6b6457e0600080a380f35b906020608492519162461bcd60e51b8352820152602660248201527f4f776e61626c653a206e6577206f776e657220697320746865207a65726f206160448201526564647265737360d01b6064820152fd5b5080929134610416576103b391602091610373366114be565b9390919261037f611625565b875163a9059cbb60e01b81526001600160a01b03909316908301908152602081019490945290948593849291839160400190565b03926001600160a01b03165af190811561040a576103d9925083916103dc575b50611932565b80f35b6103fd915060203d8111610403575b6103f58183611557565b81019061180f565b386103d3565b503d6103eb565b505051903d90823e3d90fd5b5080fd5b5082346104165760203660031901126104165760209181906001600160a01b036104426114a8565b1681526002845220549051908152f35b50823461041657806003193601126104165760209061047b6104726114a8565b602435906118ad565b90519015158152f35b5082346104165781600319360112610416576020906007549051908152f35b5091903461028857816003193601126102885760209260ff918391906001600160a01b036104cf6114a8565b16825285528181206024358252855220541690519015158152f35b5082346104165781600319360112610416576020906008549051908152f35b50823461041657816003193601126104165790608091479161052d8360075461178e565b9160085492815194855260208501528301526060820152f35b50823461041657610556366114be565b9161055f611625565b6105676116a0565b6001600160a01b039081169061057e82151561186b565b82169061058c821515611742565b808652602092878452858720858852845260ff8688205416156106b057813b156106ac5785516323b872dd60e01b8152308982019081526001600160a01b0390921660208301526040820186905290879082908190606001038183865af180156106a25790879161068a575b508190528683528486208487528352848620805460ff1916905560075460001981019490851161067757600080516020611971833981519152969750837fbbde41973f9ce4890f7ad9762c23d8191f261fd643bdf13ed8bbc10549b49fcb9186600755426008558751908152a382519182524290820152a16001805580f35b634e487b7160e01b875260118852602487fd5b6106939061152d565b61069e5785886105f8565b8580fd5b86513d89823e3d90fd5b8680fd5b855162461bcd60e51b815280890185905260136024820152724e4654206e6f7420696e20747265617375727960681b6044820152606490fd5b508234610416573660031901126109cd5767ffffffffffffffff82358181116102885761071990369085016115de565b926024358281116109c95761073190369083016115de565b9061073a611625565b8451908382116108c1576005918061075284546114f3565b97601f98898111610960575b506020908983116001146108df5788926108d4575b50508160011b916000199060031b1c19161782555b82519384116108c1575061079d6006546114f3565b90858211610867575b505060209382116001146107e7579282938293926107dc575b50508160011b916000199060031b1c1916176006555b4260085580f35b0151905083806107bf565b60068352601f198216937ff652222313e28459528d920b65115c16c04f3efc82aaedc97be59f3f377c0d3f91845b86811061084f5750836001959610610836575b505050811b016006556107d5565b015160001960f88460031b161c19169055838080610828565b91926020600181928685015181550194019201610815565b600685527ff652222313e28459528d920b65115c16c04f3efc82aaedc97be59f3f377c0d3f9086808601821c830193602087106108b8575b01901c01905b818110156107a6578481556001016108a5565b9350829361089f565b634e487b7160e01b855260419052602484fd5b015190508880610773565b8589527f036b6384b5eca791c62761152d0c79bb0604c104a5fb6f4eb0703f3154bb3db09250601f198416895b818110610948575090846001959493921061092f575b505050811b018255610788565b015160001960f88460031b161c19169055888080610922565b9293602060018192878601518155019501930161090c565b9091508488527f036b6384b5eca791c62761152d0c79bb0604c104a5fb6f4eb0703f3154bb3db089808501871c820192602086106109c0575b90859493929101871c01905b8181106109b2575061075e565b8981558493506001016109a5565b92508192610999565b8380fd5b80fd5b5082346104165780600319360112610416576109ea6114a8565b602435906109f66116a0565b6001600160a01b0390811691610a0d83151561186b565b83516331a9108f60e11b81528681018290526020928382602481885afa9182156106a2578792610b7f575b5033911603610b3c57823b15610b2e5783516323b872dd60e01b81523387820190815230602082015260408101839052869082908190606001038183885af18015610b3257908691610b1a575b508390528582528385208186528252838520600160ff198254161790556007549260018401809411610b0757600080516020611971833981519152959650836007554260085584519182527f2214288c094665e4969e2968c71e56e0ab3c69646a5c773ec8c2a7ca3bf18808833393a382519182524290820152a16001805580f35b634e487b7160e01b865260118752602486fd5b610b239061152d565b610b2e578487610a85565b8480fd5b85513d88823e3d90fd5b835162461bcd60e51b8152808701839052601960248201527f4e6f7420746865206f776e6572206f662074686973204e4654000000000000006044820152606490fd5b9091508381813d8311610bb0575b610b978183611557565b810103126106ac575181811681036106ac579088610a38565b503d610b8d565b508234610416576020366003190112610416576060916001600160a01b03610bdd6114a8565b168152600260205281812054918051928352816020840152820152f35b508234610416578160031936011261041657905490516001600160a01b039091168152602090f35b8382346109cd57806003193601126109cd57508051600091600654610c46816114f3565b80845290600190818116908115610cdc5750600114610c7f575b5050610c7182610c7b940383611557565b5191829182611579565b0390f35b6006600090815294507ff652222313e28459528d920b65115c16c04f3efc82aaedc97be59f3f377c0d3f5b828610610cc45750505091810160200191610c7182610c60565b80546020878701810191909152909501948101610caa565b610c7b96508592506020915092610c719360ff191682840152151560051b8201019450610c60565b509134610288578060031936011261028857610d1e6114a8565b9160243592610d2b611625565b6001600160a01b0316918215610d9057478411610d5657846103d98180808089895af16103d361179b565b906020606492519162461bcd60e51b83528201526014602482015273496e73756666696369656e742062616c616e636560601b6044820152fd5b906020606492519162461bcd60e51b83528201526011602482015270125b9d985b1a59081c9958da5c1a595b9d607a1b6044820152fd5b50346109cd57806003193601126109cd57610de0611625565b600080546001600160a01b0319811682556001600160a01b03167f8be0079c531659141344cd1fd0a4f28419497f9722a3daafe3b4186f6b6457e08280a380f35b508234610416578060031936011261041657610e3b6114a8565b6001600160a01b0392602435848116929190839003610e73576020948492168152600385522090600052825280600020549051908152f35b600080fd5b508234610416578060031936011261041657610e926114a8565b60243593610e9e611625565b610ea66116a0565b610eb18515156116f6565b478511610f9c576001600160a01b0391821691610ecf831515611742565b84541684526002602052828420610ee786825461178e565b9055610ef58560075461178e565b600755426008558380808088865af1610f0c61179b565b5015610f6357507f94b2de810873337ed265c5f8cf98c9cffefa06b8607f9a2f1fbaebdfbcfbef1c602060008051602061197183398151915294958451908152a26007548151908152426020820152a16001805580f35b606490602084519162461bcd60e51b83528201526013602482015272115512081d1c985b9cd9995c8819985a5b1959606a1b6044820152fd5b606490602084519162461bcd60e51b8352820152601860248201527f496e73756666696369656e74204554482062616c616e636500000000000000006044820152fd5b508234610416578160031936011261041657600754916107d092838102938185041490151715611013576020838351908152f35b634e487b7160e01b815260118452602490fd5b5091346102885780600319360112610288576110406114a8565b6024359061104c6116a0565b6001600160a01b0316906110618215156117cb565b61106c8115156116f6565b82516323b872dd60e01b81523394810194855230602086810191909152604086018390529094909190829086908190606001038189875af194851561115b57600080516020611971833981519152956110cc91889161113e575b50611827565b82865260038252838620336000528252836000206110eb82825461167d565b90556110f98160075461167d565b92836007554260085584519182527ff1444b5cad7ce70cb018d1b8edc8618fe303f3c7f034d8d572a6e27facbf2bef833393a382519182524290820152a16001805580f35b6111559150843d8611610403576103f58183611557565b386110c6565b84513d88823e3d90fd5b5091346102885782611176366114be565b9161117f611625565b6001600160a01b031690813b156109c95784516323b872dd60e01b8152309681019687526001600160a01b0390911660208701526040860192909252909384919082908490829060600103925af19081156111e657506111dd575080f35b6103d99061152d565b513d84823e3d90fd5b50823461041657816003193601126104165780519082600554611211816114f3565b8085529160019180831690811561129a575060011461123d575b505050610c7182610c7b940383611557565b9450600585527f036b6384b5eca791c62761152d0c79bb0604c104a5fb6f4eb0703f3154bb3db05b82861061128257505050610c71826020610c7b958201019461122b565b80546020878701810191909152909501948101611265565b610c7b975086935060209250610c7194915060ff191682840152151560051b8201019461122b565b509134610288576112d2366114be565b93906112dc611625565b6112e46116a0565b6001600160a01b03928316906112fb8215156117cb565b6113068615156116f6565b83811692611315841515611742565b85516370a0823160e01b81523082820152602095908681602481885afa90811561149e579089918b91611469575b5010611426579185918893858b5260038452888b20908b54168b528352878a2061136e85825461178e565b905561137c8460075461178e565b60075542600855875163a9059cbb60e01b81526001600160a01b039092169082019081526020810193909352918290819060400103818a865af190811561141c57600080516020611971833981519152966114007f8210728e7c071f615b840ee026032693858fbcd5e5359e67e438c890f59e56209387938b9161113e5750611827565b8651908152a36007549082519182524290820152a16001805580f35b85513d89823e3d90fd5b865162461bcd60e51b8152808301879052601a60248201527f496e73756666696369656e7420746f6b656e2062616c616e63650000000000006044820152606490fd5b809250888092503d8311611497575b6114828183611557565b810103126114935788905138611343565b8980fd5b503d611478565b88513d8c823e3d90fd5b600435906001600160a01b0382168203610e7357565b6060906003190112610e73576001600160a01b03906004358281168103610e7357916024359081168103610e73579060443590565b90600182811c92168015611523575b602083101461150d57565b634e487b7160e01b600052602260045260246000fd5b91607f1691611502565b67ffffffffffffffff811161154157604052565b634e487b7160e01b600052604160045260246000fd5b90601f8019910116810190811067ffffffffffffffff82111761154157604052565b6020808252825181830181905290939260005b8281106115ae57505060409293506000838284010152601f8019910116010190565b81810186015184820160400152850161158c565b67ffffffffffffffff811161154157601f01601f191660200190565b81601f82011215610e73578035906115f5826115c2565b926116036040519485611557565b82845260208383010111610e7357816000926020809301838601378301015290565b6000546001600160a01b0316330361163957565b606460405162461bcd60e51b815260206004820152602060248201527f4f776e61626c653a2063616c6c6572206973206e6f7420746865206f776e65726044820152fd5b9190820180921161168a57565b634e487b7160e01b600052601160045260246000fd5b6002600154146116b1576002600155565b60405162461bcd60e51b815260206004820152601f60248201527f5265656e7472616e637947756172643a207265656e7472616e742063616c6c006044820152606490fd5b156116fd57565b60405162461bcd60e51b815260206004820152601d60248201527f416d6f756e74206d7573742062652067726561746572207468616e20300000006044820152606490fd5b1561174957565b60405162461bcd60e51b815260206004820152601960248201527f496e76616c696420726563697069656e742061646472657373000000000000006044820152606490fd5b9190820391821161168a57565b3d156117c6573d906117ac826115c2565b916117ba6040519384611557565b82523d6000602084013e565b606090565b156117d257565b60405162461bcd60e51b8152602060048201526015602482015274496e76616c696420746f6b656e206164647265737360581b6044820152606490fd5b90816020910312610e7357518015158103610e735790565b1561182e57565b60405162461bcd60e51b8152602060048201526015602482015274151bdad95b881d1c985b9cd9995c8819985a5b1959605a1b6044820152606490fd5b1561187257565b60405162461bcd60e51b8152602060048201526013602482015272496e76616c6964204e4654206164647265737360681b6044820152606490fd5b6001600160a01b0316806118c2575047101590565b6020602491604051928380926370a0823160e01b82523060048301525afa908115611926576000916118f5575b50101590565b906020823d821161191e575b8161190e60209383611557565b810103126109cd575051386118ef565b3d9150611901565b6040513d6000823e3d90fd5b1561193957565b60405162461bcd60e51b815260206004820152600f60248201526e151c985b9cd9995c8819985a5b1959608a1b6044820152606490fdfe407273b7dc7179e97b93ca77cca640253dcde7bf9894a989ad94a9ebef6e9465a2646970667358221220991be545ca1d6b2ceaeedc95d44588263bdc947cf8f675694aa9f3c4f4c6176664736f6c63430008130033",
  "linkReferences": {},
  "deployedLinkReferences": {}
}