{
  "_format": "hh-sol-artifact-1",
  "contractName": "DAORegistry",
  "sourceName": "contracts/DAORegistry.sol",
  "abi": [
    {
      "inputs": [],
      "stateMutability": "nonpayable",
      "type": "constructor"
    },
    {
      "anonymous": false,
      "inputs": [
        {
          "indexed": true,
          "internalType": "uint256",
          "name": "daoId",
          "type": "uint256"
        },
        {
          "indexed": false,
          "internalType": "uint256",
          "name": "totalProposals",
          "type": "uint256"
        },
        {
          "indexed": false,
          "internalType": "uint256",
          "name": "totalMembers",
          "type": "uint256"
        }
      ],
      "name": "AnalyticsUpdated",
      "type": "event"
    },
    {
      "anonymous": false,
      "inputs": [
        {
          "indexed": true,
          "internalType": "uint256",
          "name": "daoId",
          "type": "uint256"
        },
        {
          "indexed": true,
          "internalType": "address",
          "name": "contractAddress",
          "type": "address"
        },
        {
          "indexed": false,
          "internalType": "string",
          "name": "name",
          "type": "string"
        },
        {
          "indexed": false,
          "internalType": "uint256",
          "name": "chainId",
          "type": "uint256"
        }
      ],
      "name": "DAORegistered",
      "type": "event"
    },
    {
      "anonymous": false,
      "inputs": [
        {
          "indexed": true,
          "internalType": "uint256",
          "name": "daoId",
          "type": "uint256"
        },
        {
          "indexed": false,
          "internalType": "enum DAORegistry.DAOStatus",
          "name": "oldStatus",
          "type": "uint8"
        },
        {
          "indexed": false,
          "internalType": "enum DAORegistry.DAOStatus",
          "name": "newStatus",
          "type": "uint8"
        }
      ],
      "name": "DAOStatusChanged",
      "type": "event"
    },
    {
      "anonymous": false,
      "inputs": [
        {
          "indexed": true,
          "internalType": "uint256",
          "name": "daoId",
          "type": "uint256"
        },
        {
          "indexed": true,
          "internalType": "address",
          "name": "contractAddress",
          "type": "address"
        }
      ],
      "name": "DAOUpdated",
      "type": "event"
    },
    {
      "anonymous": false,
      "inputs": [
        {
          "indexed": true,
          "internalType": "uint256",
          "name": "daoId",
          "type": "uint256"
        },
        {
          "indexed": false,
          "internalType": "bool",
          "name": "verified",
          "type": "bool"
        }
      ],
      "name": "DAOVerified",
      "type": "event"
    },
    {
      "anonymous": false,
      "inputs": [
        {
          "indexed": false,
          "internalType": "uint256",
          "name": "registrationFee",
          "type": "uint256"
        },
        {
          "indexed": false,
          "internalType": "uint256",
          "name": "verificationFee",
          "type": "uint256"
        },
        {
          "indexed": false,
          "internalType": "uint256",
          "name": "updateFee",
          "type": "uint256"
        }
      ],
      "name": "FeesUpdated",
      "type": "event"
    },
    {
      "anonymous": false,
      "inputs": [
        {
          "indexed": true,
          "internalType": "uint256",
          "name": "daoId",
          "type": "uint256"
        },
        {
          "indexed": true,
          "internalType": "address",
          "name": "memberAddress",
          "type": "address"
        }
      ],
      "name": "MemberAdded",
      "type": "event"
    },
    {
      "anonymous": false,
      "inputs": [
        {
          "indexed": true,
          "internalType": "uint256",
          "name": "daoId",
          "type": "uint256"
        },
        {
          "indexed": true,
          "internalType": "address",
          "name": "memberAddress",
          "type": "address"
        }
      ],
      "name": "MemberRemoved",
      "type": "event"
    },
    {
      "anonymous": false,
      "inputs": [
        {
          "indexed": true,
          "internalType": "address",
          "name": "previousOwner",
          "type": "address"
        },
        {
          "indexed": true,
          "internalType": "address",
          "name": "newOwner",
          "type": "address"
        }
      ],
      "name": "OwnershipTransferred",
      "type": "event"
    },
    {
      "anonymous": false,
      "inputs": [
        {
          "indexed": false,
          "internalType": "address",
          "name": "account",
          "type": "address"
        }
      ],
      "name": "Paused",
      "type": "event"
    },
    {
      "anonymous": false,
      "inputs": [
        {
          "indexed": true,
          "internalType": "uint256",
          "name": "proposalId",
          "type": "uint256"
        },
        {
          "indexed": true,
          "internalType": "uint256",
          "name": "daoId",
          "type": "uint256"
        },
        {
          "indexed": true,
          "internalType": "address",
          "name": "proposer",
          "type": "address"
        }
      ],
      "name": "ProposalCreated",
      "type": "event"
    },
    {
      "anonymous": false,
      "inputs": [
        {
          "indexed": true,
          "internalType": "uint256",
          "name": "proposalId",
          "type": "uint256"
        },
        {
          "indexed": true,
          "internalType": "uint256",
          "name": "daoId",
          "type": "uint256"
        }
      ],
      "name": "ProposalExecuted",
      "type": "event"
    },
    {
      "anonymous": false,
      "inputs": [
        {
          "indexed": true,
          "internalType": "uint256",
          "name": "proposalId",
          "type": "uint256"
        },
        {
          "indexed": true,
          "internalType": "address",
          "name": "voter",
          "type": "address"
        },
        {
          "indexed": false,
          "internalType": "uint8",
          "name": "support",
          "type": "uint8"
        },
        {
          "indexed": false,
          "internalType": "uint256",
          "name": "weight",
          "type": "uint256"
        }
      ],
      "name": "ProposalVoted",
      "type": "event"
    },
    {
      "anonymous": false,
      "inputs": [
        {
          "indexed": false,
          "internalType": "address",
          "name": "account",
          "type": "address"
        }
      ],
      "name": "Unpaused",
      "type": "event"
    },
    {
      "inputs": [
        {
          "internalType": "uint256",
          "name": "daoId",
          "type": "uint256"
        },
        {
          "internalType": "address",
          "name": "memberAddress",
          "type": "address"
        }
      ],
      "name": "addMember",
      "outputs": [],
      "stateMutability": "nonpayable",
      "type": "function"
    },
    {
      "inputs": [
        {
          "internalType": "uint256",
          "name": "",
          "type": "uint256"
        }
      ],
      "name": "analytics",
      "outputs": [
        {
          "internalType": "uint256",
          "name": "totalProposals",
          "type": "uint256"
        },
        {
          "internalType": "uint256",
          "name": "activeProposals",
          "type": "uint256"
        },
        {
          "internalType": "uint256",
          "name": "totalMembers",
          "type": "uint256"
        },
        {
          "internalType": "uint256",
          "name": "activeMembers",
          "type": "uint256"
        },
        {
          "internalType": "uint256",
          "name": "treasuryValue",
          "type": "uint256"
        },
        {
          "internalType": "uint256",
          "name": "participationRate",
          "type": "uint256"
        },
        {
          "internalType": "uint256",
          "name": "averageVotingPower",
          "type": "uint256"
        },
        {
          "internalType": "uint256",
          "name": "lastUpdated",
          "type": "uint256"
        }
      ],
      "stateMutability": "view",
      "type": "function"
    },
    {
      "inputs": [
        {
          "internalType": "uint256",
          "name": "daoId",
          "type": "uint256"
        },
        {
          "internalType": "enum DAORegistry.DAOStatus",
          "name": "newStatus",
          "type": "uint8"
        }
      ],
      "name": "changeDAOStatus",
      "outputs": [],
      "stateMutability": "nonpayable",
      "type": "function"
    },
    {
      "inputs": [
        {
          "internalType": "uint256",
          "name": "daoId",
          "type": "uint256"
        },
        {
          "internalType": "string",
          "name": "title",
          "type": "string"
        },
        {
          "internalType": "string",
          "name": "description",
          "type": "string"
        },
        {
          "components": [
            {
              "internalType": "address",
              "name": "target",
              "type": "address"
            },
            {
              "internalType": "uint256",
              "name": "value",
              "type": "uint256"
            },
            {
              "internalType": "string",
              "name": "signature",
              "type": "string"
            },
            {
              "internalType": "bytes",
              "name": "data",
              "type": "bytes"
            }
          ],
          "internalType": "struct DAORegistry.ProposalAction[]",
          "name": "actions",
          "type": "tuple[]"
        }
      ],
      "name": "createProposal",
      "outputs": [],
      "stateMutability": "nonpayable",
      "type": "function"
    },
    {
      "inputs": [
        {
          "internalType": "address",
          "name": "",
          "type": "address"
        }
      ],
      "name": "daoByAddress",
      "outputs": [
        {
          "internalType": "uint256",
          "name": "",
          "type": "uint256"
        }
      ],
      "stateMutability": "view",
      "type": "function"
    },
    {
      "inputs": [
        {
          "internalType": "uint256",
          "name": "",
          "type": "uint256"
        },
        {
          "internalType": "address",
          "name": "",
          "type": "address"
        }
      ],
      "name": "daoMembers",
      "outputs": [
        {
          "internalType": "bool",
          "name": "",
          "type": "bool"
        }
      ],
      "stateMutability": "view",
      "type": "function"
    },
    {
      "inputs": [
        {
          "internalType": "uint256",
          "name": "",
          "type": "uint256"
        }
      ],
      "name": "daos",
      "outputs": [
        {
          "internalType": "string",
          "name": "name",
          "type": "string"
        },
        {
          "internalType": "string",
          "name": "symbol",
          "type": "string"
        },
        {
          "internalType": "string",
          "name": "description",
          "type": "string"
        },
        {
          "internalType": "string",
          "name": "logo",
          "type": "string"
        },
        {
          "internalType": "string",
          "name": "website",
          "type": "string"
        },
        {
          "internalType": "address",
          "name": "contractAddress",
          "type": "address"
        },
        {
          "internalType": "address",
          "name": "tokenAddress",
          "type": "address"
        },
        {
          "internalType": "address",
          "name": "treasuryAddress",
          "type": "address"
        },
        {
          "internalType": "address",
          "name": "governanceAddress",
          "type": "address"
        },
        {
          "internalType": "uint256",
          "name": "chainId",
          "type": "uint256"
        },
        {
          "internalType": "uint256",
          "name": "createdAt",
          "type": "uint256"
        },
        {
          "internalType": "uint256",
          "name": "updatedAt",
          "type": "uint256"
        },
        {
          "internalType": "bool",
          "name": "verified",
          "type": "bool"
        },
        {
          "internalType": "bool",
          "name": "active",
          "type": "bool"
        },
        {
          "internalType": "enum DAORegistry.DAOStatus",
          "name": "status",
          "type": "uint8"
        },
        {
          "internalType": "enum DAORegistry.GovernanceType",
          "name": "governanceType",
          "type": "uint8"
        },
        {
          "internalType": "uint256",
          "name": "votingPeriod",
          "type": "uint256"
        },
        {
          "internalType": "uint256",
          "name": "quorum",
          "type": "uint256"
        },
        {
          "internalType": "uint256",
          "name": "proposalThreshold",
          "type": "uint256"
        },
        {
          "components": [
            {
              "internalType": "string",
              "name": "twitter",
              "type": "string"
            },
            {
              "internalType": "string",
              "name": "discord",
              "type": "string"
            },
            {
              "internalType": "string",
              "name": "telegram",
              "type": "string"
            },
            {
              "internalType": "string",
              "name": "github",
              "type": "string"
            },
            {
              "internalType": "string",
              "name": "medium",
              "type": "string"
            },
            {
              "internalType": "string",
              "name": "reddit",
              "type": "string"
            }
          ],
          "internalType": "struct DAORegistry.SocialLinks",
          "name": "socialLinks",
          "type": "tuple"
        }
      ],
      "stateMutability": "view",
      "type": "function"
    },
    {
      "inputs": [
        {
          "internalType": "address",
          "name": "to",
          "type": "address"
        },
        {
          "internalType": "uint256",
          "name": "amount",
          "type": "uint256"
        }
      ],
      "name": "emergencyRecoverETH",
      "outputs": [],
      "stateMutability": "nonpayable",
      "type": "function"
    },
    {
      "inputs": [
        {
          "internalType": "address",
          "name": "tokenAddress",
          "type": "address"
        },
        {
          "internalType": "address",
          "name": "to",
          "type": "address"
        },
        {
          "internalType": "uint256",
          "name": "amount",
          "type": "uint256"
        }
      ],
      "name": "emergencyRecoverTokens",
      "outputs": [],
      "stateMutability": "nonpayable",
      "type": "function"
    },
    {
      "inputs": [
        {
          "internalType": "uint256",
          "name": "proposalId",
          "type": "uint256"
        }
      ],
      "name": "executeProposal",
      "outputs": [],
      "stateMutability": "nonpayable",
      "type": "function"
    },
    {
      "inputs": [
        {
          "internalType": "uint256",
          "name": "daoId",
          "type": "uint256"
        }
      ],
      "name": "getAnalytics",
      "outputs": [
        {
          "components": [
            {
              "internalType": "uint256",
              "name": "totalProposals",
              "type": "uint256"
            },
            {
              "internalType": "uint256",
              "name": "activeProposals",
              "type": "uint256"
            },
            {
              "internalType": "uint256",
              "name": "totalMembers",
              "type": "uint256"
            },
            {
              "internalType": "uint256",
              "name": "activeMembers",
              "type": "uint256"
            },
            {
              "internalType": "uint256",
              "name": "treasuryValue",
              "type": "uint256"
            },
            {
              "internalType": "uint256",
              "name": "participationRate",
              "type": "uint256"
            },
            {
              "internalType": "uint256",
              "name": "averageVotingPower",
              "type": "uint256"
            },
            {
              "internalType": "uint256",
              "name": "lastUpdated",
              "type": "uint256"
            }
          ],
          "internalType": "struct DAORegistry.Analytics",
          "name": "",
          "type": "tuple"
        }
      ],
      "stateMutability": "view",
      "type": "function"
    },
    {
      "inputs": [
        {
          "internalType": "uint256",
          "name": "daoId",
          "type": "uint256"
        }
      ],
      "name": "getDAO",
      "outputs": [
        {
          "components": [
            {
              "internalType": "string",
              "name": "name",
              "type": "string"
            },
            {
              "internalType": "string",
              "name": "symbol",
              "type": "string"
            },
            {
              "internalType": "string",
              "name": "description",
              "type": "string"
            },
            {
              "internalType": "string",
              "name": "logo",
              "type": "string"
            },
            {
              "internalType": "string",
              "name": "website",
              "type": "string"
            },
            {
              "internalType": "address",
              "name": "contractAddress",
              "type": "address"
            },
            {
              "internalType": "address",
              "name": "tokenAddress",
              "type": "address"
            },
            {
              "internalType": "address",
              "name": "treasuryAddress",
              "type": "address"
            },
            {
              "internalType": "address",
              "name": "governanceAddress",
              "type": "address"
            },
            {
              "internalType": "uint256",
              "name": "chainId",
              "type": "uint256"
            },
            {
              "internalType": "uint256",
              "name": "createdAt",
              "type": "uint256"
            },
            {
              "internalType": "uint256",
              "name": "updatedAt",
              "type": "uint256"
            },
            {
              "internalType": "bool",
              "name": "verified",
              "type": "bool"
            },
            {
              "internalType": "bool",
              "name": "active",
              "type": "bool"
            },
            {
              "internalType": "enum DAORegistry.DAOStatus",
              "name": "status",
              "type": "uint8"
            },
            {
              "internalType": "enum DAORegistry.GovernanceType",
              "name": "governanceType",
              "type": "uint8"
            },
            {
              "internalType": "uint256",
              "name": "votingPeriod",
              "type": "uint256"
            },
            {
              "internalType": "uint256",
              "name": "quorum",
              "type": "uint256"
            },
            {
              "internalType": "uint256",
              "name": "proposalThreshold",
              "type": "uint256"
            },
            {
              "internalType": "string[]",
              "name": "tags",
              "type": "string[]"
            },
            {
              "components": [
                {
                  "internalType": "string",
                  "name": "twitter",
                  "type": "string"
                },
                {
                  "internalType": "string",
                  "name": "discord",
                  "type": "string"
                },
                {
                  "internalType": "string",
                  "name": "telegram",
                  "type": "string"
                },
                {
                  "internalType": "string",
                  "name": "github",
                  "type": "string"
                },
                {
                  "internalType": "string",
                  "name": "medium",
                  "type": "string"
                },
                {
                  "internalType": "string",
                  "name": "reddit",
                  "type": "string"
                }
              ],
              "internalType": "struct DAORegistry.SocialLinks",
              "name": "socialLinks",
              "type": "tuple"
            }
          ],
          "internalType": "struct DAORegistry.DAOInfo",
          "name": "",
          "type": "tuple"
        }
      ],
      "stateMutability": "view",
      "type": "function"
    },
    {
      "inputs": [
        {
          "internalType": "address",
          "name": "contractAddress",
          "type": "address"
        }
      ],
      "name": "getDAOByAddress",
      "outputs": [
        {
          "internalType": "uint256",
          "name": "",
          "type": "uint256"
        }
      ],
      "stateMutability": "view",
      "type": "function"
    },
    {
      "inputs": [
        {
          "internalType": "uint256",
          "name": "memberId",
          "type": "uint256"
        }
      ],
      "name": "getMember",
      "outputs": [
        {
          "components": [
            {
              "internalType": "uint256",
              "name": "daoId",
              "type": "uint256"
            },
            {
              "internalType": "address",
              "name": "memberAddress",
              "type": "address"
            },
            {
              "internalType": "uint256",
              "name": "tokenBalance",
              "type": "uint256"
            },
            {
              "internalType": "uint256",
              "name": "votingPower",
              "type": "uint256"
            },
            {
              "internalType": "uint256",
              "name": "proposalsCreated",
              "type": "uint256"
            },
            {
              "internalType": "uint256",
              "name": "proposalsVoted",
              "type": "uint256"
            },
            {
              "internalType": "uint256",
              "name": "lastActivity",
              "type": "uint256"
            },
            {
              "internalType": "bool",
              "name": "active",
              "type": "bool"
            },
            {
              "internalType": "enum DAORegistry.MemberRole[]",
              "name": "roles",
              "type": "uint8[]"
            }
          ],
          "internalType": "struct DAORegistry.MemberInfo",
          "name": "",
          "type": "tuple"
        }
      ],
      "stateMutability": "view",
      "type": "function"
    },
    {
      "inputs": [
        {
          "internalType": "uint256",
          "name": "proposalId",
          "type": "uint256"
        }
      ],
      "name": "getProposal",
      "outputs": [
        {
          "components": [
            {
              "internalType": "uint256",
              "name": "daoId",
              "type": "uint256"
            },
            {
              "internalType": "address",
              "name": "proposer",
              "type": "address"
            },
            {
              "internalType": "string",
              "name": "title",
              "type": "string"
            },
            {
              "internalType": "string",
              "name": "description",
              "type": "string"
            },
            {
              "internalType": "uint256",
              "name": "startTime",
              "type": "uint256"
            },
            {
              "internalType": "uint256",
              "name": "endTime",
              "type": "uint256"
            },
            {
              "internalType": "uint256",
              "name": "quorum",
              "type": "uint256"
            },
            {
              "internalType": "uint256",
              "name": "forVotes",
              "type": "uint256"
            },
            {
              "internalType": "uint256",
              "name": "againstVotes",
              "type": "uint256"
            },
            {
              "internalType": "uint256",
              "name": "abstainVotes",
              "type": "uint256"
            },
            {
              "internalType": "bool",
              "name": "executed",
              "type": "bool"
            },
            {
              "internalType": "bool",
              "name": "canceled",
              "type": "bool"
            },
            {
              "internalType": "uint256",
              "name": "executedAt",
              "type": "uint256"
            },
            {
              "internalType": "enum DAORegistry.ProposalStatus",
              "name": "status",
              "type": "uint8"
            },
            {
              "components": [
                {
                  "internalType": "address",
                  "name": "target",
                  "type": "address"
                },
                {
                  "internalType": "uint256",
                  "name": "value",
                  "type": "uint256"
                },
                {
                  "internalType": "string",
                  "name": "signature",
                  "type": "string"
                },
                {
                  "internalType": "bytes",
                  "name": "data",
                  "type": "bytes"
                }
              ],
              "internalType": "struct DAORegistry.ProposalAction[]",
              "name": "actions",
              "type": "tuple[]"
            }
          ],
          "internalType": "struct DAORegistry.ProposalInfo",
          "name": "",
          "type": "tuple"
        }
      ],
      "stateMutability": "view",
      "type": "function"
    },
    {
      "inputs": [],
      "name": "getTotalDAOs",
      "outputs": [
        {
          "internalType": "uint256",
          "name": "",
          "type": "uint256"
        }
      ],
      "stateMutability": "view",
      "type": "function"
    },
    {
      "inputs": [],
      "name": "getTotalMembers",
      "outputs": [
        {
          "internalType": "uint256",
          "name": "",
          "type": "uint256"
        }
      ],
      "stateMutability": "view",
      "type": "function"
    },
    {
      "inputs": [],
      "name": "getTotalProposals",
      "outputs": [
        {
          "internalType": "uint256",
          "name": "",
          "type": "uint256"
        }
      ],
      "stateMutability": "view",
      "type": "function"
    },
    {
      "inputs": [
        {
          "internalType": "uint256",
          "name": "daoId",
          "type": "uint256"
        },
        {
          "internalType": "address",
          "name": "memberAddress",
          "type": "address"
        }
      ],
      "name": "getVotingPower",
      "outputs": [
        {
          "internalType": "uint256",
          "name": "",
          "type": "uint256"
        }
      ],
      "stateMutability": "view",
      "type": "function"
    },
    {
      "inputs": [
        {
          "internalType": "uint256",
          "name": "daoId",
          "type": "uint256"
        },
        {
          "internalType": "address",
          "name": "memberAddress",
          "type": "address"
        }
      ],
      "name": "isMember",
      "outputs": [
        {
          "internalType": "bool",
          "name": "",
          "type": "bool"
        }
      ],
      "stateMutability": "view",
      "type": "function"
    },
    {
      "inputs": [],
      "name": "maxDescriptionLength",
      "outputs": [
        {
          "internalType": "uint256",
          "name": "",
          "type": "uint256"
        }
      ],
      "stateMutability": "view",
      "type": "function"
    },
    {
      "inputs": [],
      "name": "maxNameLength",
      "outputs": [
        {
          "internalType": "uint256",
          "name": "",
          "type": "uint256"
        }
      ],
      "stateMutability": "view",
      "type": "function"
    },
    {
      "inputs": [],
      "name": "maxSymbolLength",
      "outputs": [
        {
          "internalType": "uint256",
          "name": "",
          "type": "uint256"
        }
      ],
      "stateMutability": "view",
      "type": "function"
    },
    {
      "inputs": [],
      "name": "maxTagsPerDAO",
      "outputs": [
        {
          "internalType": "uint256",
          "name": "",
          "type": "uint256"
        }
      ],
      "stateMutability": "view",
      "type": "function"
    },
    {
      "inputs": [
        {
          "internalType": "uint256",
          "name": "",
          "type": "uint256"
        }
      ],
      "name": "members",
      "outputs": [
        {
          "internalType": "uint256",
          "name": "daoId",
          "type": "uint256"
        },
        {
          "internalType": "address",
          "name": "memberAddress",
          "type": "address"
        },
        {
          "internalType": "uint256",
          "name": "tokenBalance",
          "type": "uint256"
        },
        {
          "internalType": "uint256",
          "name": "votingPower",
          "type": "uint256"
        },
        {
          "internalType": "uint256",
          "name": "proposalsCreated",
          "type": "uint256"
        },
        {
          "internalType": "uint256",
          "name": "proposalsVoted",
          "type": "uint256"
        },
        {
          "internalType": "uint256",
          "name": "lastActivity",
          "type": "uint256"
        },
        {
          "internalType": "bool",
          "name": "active",
          "type": "bool"
        }
      ],
      "stateMutability": "view",
      "type": "function"
    },
    {
      "inputs": [],
      "name": "owner",
      "outputs": [
        {
          "internalType": "address",
          "name": "",
          "type": "address"
        }
      ],
      "stateMutability": "view",
      "type": "function"
    },
    {
      "inputs": [],
      "name": "pause",
      "outputs": [],
      "stateMutability": "nonpayable",
      "type": "function"
    },
    {
      "inputs": [],
      "name": "paused",
      "outputs": [
        {
          "internalType": "bool",
          "name": "",
          "type": "bool"
        }
      ],
      "stateMutability": "view",
      "type": "function"
    },
    {
      "inputs": [
        {
          "internalType": "uint256",
          "name": "",
          "type": "uint256"
        }
      ],
      "name": "proposals",
      "outputs": [
        {
          "internalType": "uint256",
          "name": "daoId",
          "type": "uint256"
        },
        {
          "internalType": "address",
          "name": "proposer",
          "type": "address"
        },
        {
          "internalType": "string",
          "name": "title",
          "type": "string"
        },
        {
          "internalType": "string",
          "name": "description",
          "type": "string"
        },
        {
          "internalType": "uint256",
          "name": "startTime",
          "type": "uint256"
        },
        {
          "internalType": "uint256",
          "name": "endTime",
          "type": "uint256"
        },
        {
          "internalType": "uint256",
          "name": "quorum",
          "type": "uint256"
        },
        {
          "internalType": "uint256",
          "name": "forVotes",
          "type": "uint256"
        },
        {
          "internalType": "uint256",
          "name": "againstVotes",
          "type": "uint256"
        },
        {
          "internalType": "uint256",
          "name": "abstainVotes",
          "type": "uint256"
        },
        {
          "internalType": "bool",
          "name": "executed",
          "type": "bool"
        },
        {
          "internalType": "bool",
          "name": "canceled",
          "type": "bool"
        },
        {
          "internalType": "uint256",
          "name": "executedAt",
          "type": "uint256"
        },
        {
          "internalType": "enum DAORegistry.ProposalStatus",
          "name": "status",
          "type": "uint8"
        }
      ],
      "stateMutability": "view",
      "type": "function"
    },
    {
      "inputs": [
        {
          "internalType": "string",
          "name": "name",
          "type": "string"
        },
        {
          "internalType": "string",
          "name": "symbol",
          "type": "string"
        },
        {
          "internalType": "string",
          "name": "description",
          "type": "string"
        },
        {
          "internalType": "address",
          "name": "contractAddress",
          "type": "address"
        },
        {
          "internalType": "address",
          "name": "tokenAddress",
          "type": "address"
        },
        {
          "internalType": "address",
          "name": "treasuryAddress",
          "type": "address"
        },
        {
          "internalType": "address",
          "name": "governanceAddress",
          "type": "address"
        },
        {
          "internalType": "uint256",
          "name": "chainId",
          "type": "uint256"
        },
        {
          "internalType": "enum DAORegistry.GovernanceType",
          "name": "governanceType",
          "type": "uint8"
        },
        {
          "internalType": "uint256",
          "name": "votingPeriod",
          "type": "uint256"
        },
        {
          "internalType": "uint256",
          "name": "quorum",
          "type": "uint256"
        },
        {
          "internalType": "uint256",
          "name": "proposalThreshold",
          "type": "uint256"
        },
        {
          "internalType": "string[]",
          "name": "tags",
          "type": "string[]"
        },
        {
          "components": [
            {
              "internalType": "string",
              "name": "twitter",
              "type": "string"
            },
            {
              "internalType": "string",
              "name": "discord",
              "type": "string"
            },
            {
              "internalType": "string",
              "name": "telegram",
              "type": "string"
            },
            {
              "internalType": "string",
              "name": "github",
              "type": "string"
            },
            {
              "internalType": "string",
              "name": "medium",
              "type": "string"
            },
            {
              "internalType": "string",
              "name": "reddit",
              "type": "string"
            }
          ],
          "internalType": "struct DAORegistry.SocialLinks",
          "name": "socialLinks",
          "type": "tuple"
        }
      ],
      "name": "registerDAO",
      "outputs": [],
      "stateMutability": "payable",
      "type": "function"
    },
    {
      "inputs": [],
      "name": "registrationFee",
      "outputs": [
        {
          "internalType": "uint256",
          "name": "",
          "type": "uint256"
        }
      ],
      "stateMutability": "view",
      "type": "function"
    },
    {
      "inputs": [
        {
          "internalType": "uint256",
          "name": "daoId",
          "type": "uint256"
        },
        {
          "internalType": "address",
          "name": "memberAddress",
          "type": "address"
        }
      ],
      "name": "removeMember",
      "outputs": [],
      "stateMutability": "nonpayable",
      "type": "function"
    },
    {
      "inputs": [],
      "name": "renounceOwnership",
      "outputs": [],
      "stateMutability": "nonpayable",
      "type": "function"
    },
    {
      "inputs": [
        {
          "internalType": "address",
          "name": "newOwner",
          "type": "address"
        }
      ],
      "name": "transferOwnership",
      "outputs": [],
      "stateMutability": "nonpayable",
      "type": "function"
    },
    {
      "inputs": [],
      "name": "unpause",
      "outputs": [],
      "stateMutability": "nonpayable",
      "type": "function"
    },
    {
      "inputs": [
        {
          "internalType": "uint256",
          "name": "daoId",
          "type": "uint256"
        },
        {
          "internalType": "uint256",
          "name": "totalProposals",
          "type": "uint256"
        },
        {
          "internalType": "uint256",
          "name": "activeProposals",
          "type": "uint256"
        },
        {
          "internalType": "uint256",
          "name": "totalMembers",
          "type": "uint256"
        },
        {
          "internalType": "uint256",
          "name": "activeMembers",
          "type": "uint256"
        },
        {
          "internalType": "uint256",
          "name": "treasuryValue",
          "type": "uint256"
        },
        {
          "internalType": "uint256",
          "name": "participationRate",
          "type": "uint256"
        },
        {
          "internalType": "uint256",
          "name": "averageVotingPower",
          "type": "uint256"
        }
      ],
      "name": "updateAnalytics",
      "outputs": [],
      "stateMutability": "nonpayable",
      "type": "function"
    },
    {
      "inputs": [
        {
          "internalType": "uint256",
          "name": "daoId",
          "type": "uint256"
        },
        {
          "internalType": "string",
          "name": "name",
          "type": "string"
        },
        {
          "internalType": "string",
          "name": "symbol",
          "type": "string"
        },
        {
          "internalType": "string",
          "name": "description",
          "type": "string"
        },
        {
          "internalType": "string",
          "name": "logo",
          "type": "string"
        },
        {
          "internalType": "string",
          "name": "website",
          "type": "string"
        },
        {
          "internalType": "string[]",
          "name": "tags",
          "type": "string[]"
        },
        {
          "components": [
            {
              "internalType": "string",
              "name": "twitter",
              "type": "string"
            },
            {
              "internalType": "string",
              "name": "discord",
              "type": "string"
            },
            {
              "internalType": "string",
              "name": "telegram",
              "type": "string"
            },
            {
              "internalType": "string",
              "name": "github",
              "type": "string"
            },
            {
              "internalType": "string",
              "name": "medium",
              "type": "string"
            },
            {
              "internalType": "string",
              "name": "reddit",
              "type": "string"
            }
          ],
          "internalType": "struct DAORegistry.SocialLinks",
          "name": "socialLinks",
          "type": "tuple"
        }
      ],
      "name": "updateDAO",
      "outputs": [],
      "stateMutability": "payable",
      "type": "function"
    },
    {
      "inputs": [],
      "name": "updateFee",
      "outputs": [
        {
          "internalType": "uint256",
          "name": "",
          "type": "uint256"
        }
      ],
      "stateMutability": "view",
      "type": "function"
    },
    {
      "inputs": [
        {
          "internalType": "uint256",
          "name": "newRegistrationFee",
          "type": "uint256"
        },
        {
          "internalType": "uint256",
          "name": "newVerificationFee",
          "type": "uint256"
        },
        {
          "internalType": "uint256",
          "name": "newUpdateFee",
          "type": "uint256"
        }
      ],
      "name": "updateFees",
      "outputs": [],
      "stateMutability": "nonpayable",
      "type": "function"
    },
    {
      "inputs": [
        {
          "internalType": "uint256",
          "name": "newMaxTagsPerDAO",
          "type": "uint256"
        },
        {
          "internalType": "uint256",
          "name": "newMaxDescriptionLength",
          "type": "uint256"
        },
        {
          "internalType": "uint256",
          "name": "newMaxNameLength",
          "type": "uint256"
        },
        {
          "internalType": "uint256",
          "name": "newMaxSymbolLength",
          "type": "uint256"
        }
      ],
      "name": "updateLimits",
      "outputs": [],
      "stateMutability": "nonpayable",
      "type": "function"
    },
    {
      "inputs": [],
      "name": "verificationFee",
      "outputs": [
        {
          "internalType": "uint256",
          "name": "",
          "type": "uint256"
        }
      ],
      "stateMutability": "view",
      "type": "function"
    },
    {
      "inputs": [
        {
          "internalType": "uint256",
          "name": "",
          "type": "uint256"
        },
        {
          "internalType": "address",
          "name": "",
          "type": "address"
        }
      ],
      "name": "verifiedAddresses",
      "outputs": [
        {
          "internalType": "bool",
          "name": "",
          "type": "bool"
        }
      ],
      "stateMutability": "view",
      "type": "function"
    },
    {
      "inputs": [
        {
          "internalType": "uint256",
          "name": "daoId",
          "type": "uint256"
        },
        {
          "internalType": "bool",
          "name": "verified",
          "type": "bool"
        }
      ],
      "name": "verifyDAO",
      "outputs": [],
      "stateMutability": "nonpayable",
      "type": "function"
    },
    {
      "inputs": [
        {
          "internalType": "uint256",
          "name": "proposalId",
          "type": "uint256"
        },
        {
          "internalType": "uint8",
          "name": "support",
          "type": "uint8"
        }
      ],
      "name": "vote",
      "outputs": [],
      "stateMutability": "nonpayable",
      "type": "function"
    },
    {
      "inputs": [],
      "name": "withdrawFees",
      "outputs": [],
      "stateMutability": "nonpayable",
      "type": "function"
    }
  ],
  "bytecode": "0x608080604052346100bc5760008054336001600160a01b0319821681178355916001600160a01b03909116907f8be0079c531659141344cd1fd0a4f28419497f9722a3daafe3b4186f6b6457e09080a36001805560ff196002541660025567016345785d8a0000600d5566b1a2bc2ec50000600e5566470de4df820000600f55600a6010556103e86011556064601255600a601355600160035401600355600160045401600455600160055401600555615c309081620000c28239f35b600080fdfe610100604052600436101561001357600080fd5b60003560e01c8063013cf08b1461500f5780630d61b51914614dcd5780630fa2126614614daf57806314c44e0914614d915780631750720614614c885780631a5007dd14614c6a5780631edc355414614b735780632242908514614b0f5780632bad03f314614a4e5780633b13d73214614a305780633b63cdce146149445780633b992f2b14614a125780633f4ba83a1461497e57806340fbf93b14614944578063476343ee1461488e5780635a29426c146144235780635c975abb146144005780635daf08ca1461437a57806368ff306514613aff5780636be7658b14613a01578063715018a6146139a857806371d277e7146138dd57806373d9d32f1461386457806374d0a676146134d6578063758cdcf0146134b85780637d9e10f5146113535780638456cb591461345e5780638da5cb5b146134355780638f18030514613417578063924d35ca146126de578063943e82161461247c578063a8c278a21461245e578063ab3545e514611b5e578063b5de7dee14611a52578063b90ed11114611a05578063c7f758a8146116bc578063ccbbd260146114c7578063d033e2cf146114a9578063dbdad4321461147b578063e110976f146113be578063e3d88caa146113a0578063f0f3d29814611353578063f2fde38b1461128f578063f942de53146102445763fbb55ed21461020c57600080fd5b3461023f57608036600319011261023f57610225615622565b600435601055602435601155604435601255606435601355005b600080fd5b6101c036600319011261023f576004356001600160401b03811161023f5761027090369060040161542a565b6024356001600160401b03811161023f5761028f90369060040161542a565b906044356001600160401b03811161023f576102af90369060040161542a565b606435929091906001600160a01b038416840361023f576084356001600160a01b038116810361023f5760a4356001600160a01b038116810361023f5760c4356001600160a01b038116810361023f57600561010435101561023f576001600160401b03610184351161023f5761032c366101843560040161545c565b916001600160401b036101a4351161023f5761034e366101a4356004016154dc565b93610357615851565b61035f61580d565b61036e6012548851111561567a565b61037a875115156156c6565b6103896013548751111561567a565b610395865115156156c6565b6103a46011548951111561567a565b6103b0885115156156c6565b600d54341061124a576001600160a01b03891615611205576001600160a01b0389166000908152600760205260409020546111c75760e4351561118f576103fc8451601054101561570b565b60016003540197886003556040519661041488615168565b8888526020880152604087015260405161042d816151f2565b600081526060870152604051610442816151f2565b600080825260808801919091526001600160a01b038a811660a089015291821660c088015291811660e08701529190911661010085015260e435610120850152426101408501819052610160850152610180840181905260016101a08501526101c08401526104b36101043561534d565b610104356101e084015261012435610200840152610144356102208401526101643561024084015261026083015261028082015282600052600660205260406000209080518051906001600160401b038211610b8457819061051f826105198754615112565b8761575e565b602090601f831160011461112357600092611118575b50508160011b916000199060031b1c19161782555b60208101518051906001600160401b038211610b8457819061057c826105736001880154615112565b6001880161575e565b602090601f83116001146110a65760009261109b575b50508160011b916000199060031b1c19161760018301555b60408101518051906001600160401b038211610b845781906105dc826105d36002880154615112565b6002880161575e565b602090601f83116001146110295760009261101e575b50508160011b916000199060031b1c19161760028301555b60608101518051906001600160401b038211610b8457819061063c826106336003880154615112565b6003880161575e565b602090601f8311600114610fac57600092610fa1575b50508160011b916000199060031b1c19161760038301555b60808101518051906001600160401b038211610b8457819061069c826106936004880154615112565b6004880161575e565b602090601f8311600114610f2f57600092610f24575b50508160011b916000199060031b1c19161760048301555b60a08101516005830180546001600160a01b039283166001600160a01b03199182161790915560c083015160068501805491841691831691909117905560e08301516007850180549184169183169190911790556101008301516008850180549190931691161790556101208101516009830155610140810151600a830155610160810151600b830155610180810151600c8301805460ff191691151560ff169190911781556101a0820151815461ff00191690151560081b61ff00161781556107a26101c083015161079c8161534d565b826157a3565b6101e08201516107b18161534d565b6107ba8161534d565b63ff00000082549160181b169063ff0000001916179055610200810151600d830155610220810151600e830155610240810151600f830155610260810151805190600160401b8211610b84576010840154826010860155808310610ef1575b5060200190601084016000526020600020916000905b828210610e0e575050505061028001519081518051906001600160401b038211610b8457819061086f826108666011870154615112565b6011870161575e565b602090601f8311600114610d9c57600092610d91575b50508160011b916000199060031b1c19161760118201555b60208201518051906001600160401b038211610b845781906108cf826108c66012870154615112565b6012870161575e565b602090601f8311600114610d1f57600092610d14575b50508160011b916000199060031b1c19161760128201555b60408201518051906001600160401b038211610b8457819061092f826109266013870154615112565b6013870161575e565b602090601f8311600114610ca257600092610c97575b50508160011b916000199060031b1c19161760138201555b60608201518051906001600160401b038211610b8457819061098f826109866014870154615112565b6014870161575e565b602090601f8311600114610c2557600092610c1a575b50508160011b916000199060031b1c19161760148201555b60808201518051906001600160401b038211610b84576109ed826109e46015860154615112565b6015860161575e565b602090601f8311600114610ba557918060a09492601694600092610b9a575b50508160011b916000199060031b1c19161760158201555b019101518051906001600160401b038211610b8457610a4d82610a478554615112565b8561575e565b602090601f8311600114610af6579180610ace94927fd57605e54d99b27d67b3f27736dd7e7a00b355e31fe60ef0d6c2ad7a4b71fce59694600092610aeb575b50508160011b916000199060031b1c19161790555b60018060a01b0385166000526007602052836040600020556040519182916040835260408301906152d4565b60e43560208301526001600160a01b03909516940390a360018055005b015190508880610a8d565b90601f198316918460005260206000209260005b818110610b6c57509260019285927fd57605e54d99b27d67b3f27736dd7e7a00b355e31fe60ef0d6c2ad7a4b71fce59896610ace989610610b53575b505050811b019055610aa2565b015160001960f88460031b161c19169055888080610b46565b92936020600181928786015181550195019301610b0a565b634e487b7160e01b600052604160045260246000fd5b015190508980610a0c565b906015840160005260206000209160005b601f1985168110610c0257509260a0949260019260169583601f19811610610be9575b505050811b016015820155610a24565b015160001960f88460031b161c19169055898080610bd9565b91926020600181928685015181550194019201610bb6565b0151905087806109a5565b9250601484016000526020600020906000935b601f1984168510610c7c576001945083601f19811610610c63575b505050811b0160148201556109bd565b015160001960f88460031b161c19169055878080610c53565b81810151835560209485019460019093019290910190610c38565b015190508780610945565b9250601384016000526020600020906000935b601f1984168510610cf9576001945083601f19811610610ce0575b505050811b01601382015561095d565b015160001960f88460031b161c19169055878080610cd0565b81810151835560209485019460019093019290910190610cb5565b0151905087806108e5565b9250601284016000526020600020906000935b601f1984168510610d76576001945083601f19811610610d5d575b505050811b0160128201556108fd565b015160001960f88460031b161c19169055878080610d4d565b81810151835560209485019460019093019290910190610d32565b015190508780610885565b9250601184016000526020600020906000935b601f1984168510610df3576001945083601f19811610610dda575b505050811b01601182015561089d565b015160001960f88460031b161c19169055878080610dca565b81810151835560209485019460019093019290910190610daf565b80518051906001600160401b038211610b8457610e3582610e2f8854615112565b8861575e565b602090601f8311600114610e81579282600194936020938695600092610e76575b5050600019600383901b1c191690841b1787555b0194019101909261082f565b015190508e80610e56565b908660005260206000209160005b601f1985168110610ed9575083602093600196938796938794601f19811610610ec0575b505050811b018755610e6a565b015160001960f88460031b161c191690558e8080610eb3565b91926020600181928685015181550194019201610e8f565b601085016000526020600020908382015b8183018110610f12575050610819565b80610f1e6001926157c4565b01610f02565b0151905087806106b2565b9250600485016000526020600020906000935b601f1984168510610f86576001945083601f19811610610f6d575b505050811b0160048301556106ca565b015160001960f88460031b161c19169055878080610f5d565b81810151835560209485019460019093019290910190610f42565b015190508780610652565b9250600385016000526020600020906000935b601f1984168510611003576001945083601f19811610610fea575b505050811b01600383015561066a565b015160001960f88460031b161c19169055878080610fda565b81810151835560209485019460019093019290910190610fbf565b0151905087806105f2565b9250600285016000526020600020906000935b601f1984168510611080576001945083601f19811610611067575b505050811b01600283015561060a565b015160001960f88460031b161c19169055878080611057565b8181015183556020948501946001909301929091019061103c565b015190508780610592565b9250600185016000526020600020906000935b601f19841685106110fd576001945083601f198116106110e4575b505050811b0160018301556105aa565b015160001960f88460031b161c191690558780806110d4565b818101518355602094850194600190930192909101906110b9565b015190508780610535565b9250846000526020600020906000935b601f1984168510611174576001945083601f1981161061115b575b505050811b01825561054a565b015160001960f88460031b161c1916905587808061114e565b81810151835560209485019460019093019290910190611133565b60405162461bcd60e51b815260206004820152601060248201526f125b9d985b1a590818da185a5b88125160821b6044820152606490fd5b60405162461bcd60e51b8152602060048201526016602482015275111053c8185b1c9958591e481c9959da5cdd195c995960521b6044820152606490fd5b60405162461bcd60e51b815260206004820152601860248201527f496e76616c696420636f6e7472616374206164647265737300000000000000006044820152606490fd5b60405162461bcd60e51b815260206004820152601d60248201527f496e73756666696369656e7420726567697374726174696f6e206665650000006044820152606490fd5b3461023f57602036600319011261023f576112a8615321565b6112b0615622565b6001600160a01b039081169081156112ff57600054826001600160601b0360a01b821617600055167f8be0079c531659141344cd1fd0a4f28419497f9722a3daafe3b4186f6b6457e0600080a3005b60405162461bcd60e51b815260206004820152602660248201527f4f776e61626c653a206e6577206f776e657220697320746865207a65726f206160448201526564647265737360d01b6064820152608490fd5b3461023f57604036600319011261023f5761136c615337565b600435600052600860205260406000209060018060a01b0316600052602052602060ff604060002054166040519015158152f35b3461023f57600036600319011261023f576020601354604051908152f35b3461023f57606036600319011261023f57600060206113db615321565b60446113e5615337565b916113ee615622565b60405163a9059cbb60e01b81526001600160a01b039384166004820152823560248201529485938492165af1801561146f57600090611433575b61143190615bbc565b005b506020813d8211611467575b8161144c6020938361520d565b8101031261023f5751801515810361023f5761143190611428565b3d915061143f565b6040513d6000823e3d90fd5b3461023f57604036600319011261023f5760206114a1611499615337565b600435615b20565b604051908152f35b3461023f57600036600319011261023f576020600354604051908152f35b3461023f57602036600319011261023f57600435600052600660205260406000206114f18161522e565b6080526115006001820161522e565b9061150d6002820161522e565b60a05261151c6003820161522e565b916115296004830161522e565b92600160a01b6001900393846005850154169480600686015416908060078701541690600887015416600987015490600a88015492600b89015494600c8a015496600d8b015498600e8c01549a600f8d01549c601101611588906155b7565b60e0526040518060c05261028080915260c05101608051906115a9916152d4565b60c05180820390602001526115bd916152d4565b60c051808203906040015260a051906115d5916152d4565b60c05180820390606001526115e9916152d4565b60c05180820390608001526115fd916152d4565b9a60c05160a0015260c05160c0015260c05160e0015260c051610100015260c051610120015260c051610140015260c051610160015260ff8116151560c05161018001528060081c60ff16151560c0516101a001528060101c60ff166116628161534d565b60c0516101c0015260181c60ff166116798161534d565b60c0516101e0015260c051610200015260c051610220015260c051610240015260c05180820390610260015260c0519060e051906116b691615357565b0360c051f35b3461023f57602036600319011261023f5760606101c06040516116de816151ba565b6000815260006020820152826040820152828082015260006080820152600060a0820152600060c0820152600060e08201526000610100820152600061012082015260006101408201526000610160820152600061018082015260006101a08201520152600435600052600960205260406000206040519061175f826151ba565b8054825260018101546001600160a01b031660208301526117826002820161522e565b60408301526117936003820161522e565b606083015260048101546080830152600581015460a0830152600681015460c0830152600781015460e08301526008810154610100830152600981015461012083015260ff600a820154818116151561014085015260081c161515610160830152600b81015461018083015260ff600c8201541660078110156119ef576101a0830152600d81015461182481615445565b91611832604051938461520d565b818352600d60208401910160005260206000206000915b8383106119d15785856101c08201526040518091602082528051602083015260018060a01b0360208201511660408301526101c06118b161189b60408401516101e060608701526102008601906152d4565b6060840151858203601f190160808701526152d4565b91608081015160a085015260a081015160c085015260c081015160e085015260e0810151610100850152610100810151610120850152610120810151610140850152610140810151151561016085015261016081015115156101808501526101808101516101a085015261192d6101a082015183860190615314565b015190601f19838203016101e0840152815180825260208201916020808360051b8301019401926000915b8383106119655786860387f35b9193955091936020806119bf600193601f19868203018752895190858060a01b038251168152838201518482015260606119ae60408401516080604085015260808401906152d4565b9201519060608184039101526152d4565b97019301930190928695949293611958565b600460206001926119e185615a09565b815201920192019190611849565b634e487b7160e01b600052602160045260246000fd5b3461023f57604036600319011261023f57611a1e615337565b600435600052600c60205260406000209060018060a01b0316600052602052602060ff604060002054166040519015158152f35b3461023f5761010036600319011261023f576004357fae1dd3f2d7e1c58d3a89e27565ac6732a48cc3a0ee34874f1749e6fcca5973086040602435606435846000526006602052611aac60ff600c856000200154166158e8565b846000526006602052611acb60ff600c85600020015460081c16615927565b8251611ad68161514c565b82815260076020820160443581528583018481526060840160843581526080850160a435815260a086019160c435835260c087019360e435855260e08801954287528d600052600b6020528b600020985189555160018901555160028801555160038701555160048601555160058501555160068401555191015582519182526020820152a2005b3461023f57602036600319011261023f576060610100604051611b80816151d6565b60008152600060208201526000604082015260008382015260006080820152600060a0820152600060c0820152600060e08201520152600435600052600a6020526040600020600860405191611bd5836151d6565b8054835260018060a01b036001820154166020840152600281015460408401526003810154606084015260048101546080840152600581015460a0840152600681015460c084015260ff600782015416151560e0840152604051908192839101602081549384815201906000526020600020926000905b80601f8301106121d557611d6b9454918181106121ba575b81811061219c575b81811061217e575b818110612160575b818110612143575b818110612125575b818110612107575b8181106120e9575b8181106120cb575b8181106120ad575b81811061208f575b818110612071575b818110612053575b818110612035575b818110612017575b818110611ff9575b818110611fdb575b818110611fbd575b818110611f9f575b818110611f81575b818110611f63575b818110611f45575b818110611f27575b818110611f09575b818110611eeb575b818110611ecd575b818110611eaf575b818110611e91575b818110611e73575b818110611e55575b818110611e37575b10611e20575b50926101009493929192038261520d565b82820152604051918291602083528051602084015260018060a01b0360208201511660408401526040810151606084015260608101516080840152608081015160a084015260a081015160c084015260c081015160e084015260e0810151151582840152015161012080830152610140820181518091526020610160840192019060005b818110611dfd575050500390f35b9193509160208082611e1260019488516155aa565b019401910191849392611def565b90611e308160209360f81c6155aa565b0185611d5a565b92602081611e4d60019360ff8760f01c166155aa565b019301611d54565b92602081611e6b60019360ff8760e81c166155aa565b019301611d4c565b92602081611e8960019360ff8760e01c166155aa565b019301611d44565b92602081611ea760019360ff8760d81c166155aa565b019301611d3c565b92602081611ec560019360ff8760d01c166155aa565b019301611d34565b92602081611ee360019360ff8760c81c166155aa565b019301611d2c565b92602081611f0160019360ff8760c01c166155aa565b019301611d24565b92602081611f1f60019360ff8760b81c166155aa565b019301611d1c565b92602081611f3d60019360ff8760b01c166155aa565b019301611d14565b92602081611f5b60019360ff8760a81c166155aa565b019301611d0c565b92602081611f7960019360ff8760a01c166155aa565b019301611d04565b92602081611f9760019360ff8760981c166155aa565b019301611cfc565b92602081611fb560019360ff8760901c166155aa565b019301611cf4565b92602081611fd360019360ff8760881c166155aa565b019301611cec565b92602081611ff160019360ff8760801c166155aa565b019301611ce4565b9260208161200f60019360ff8760781c166155aa565b019301611cdc565b9260208161202d60019360ff8760701c166155aa565b019301611cd4565b9260208161204b60019360ff8760681c166155aa565b019301611ccc565b9260208161206960019360ff8760601c166155aa565b019301611cc4565b9260208161208760019360ff8760581c166155aa565b019301611cbc565b926020816120a560019360ff8760501c166155aa565b019301611cb4565b926020816120c360019360ff8760481c166155aa565b019301611cac565b926020816120e160019360ff8760401c166155aa565b019301611ca4565b926020816120ff60019360ff8760381c166155aa565b019301611c9c565b9260208161211d60019360ff8760301c166155aa565b019301611c94565b9260208161213b60019360ff8760281c166155aa565b019301611c8c565b9260208161215860019360ff87851c166155aa565b019301611c84565b9260208161217660019360ff8760181c166155aa565b019301611c7c565b9260208161219460019360ff8760101c166155aa565b019301611c74565b926020816121b260019360ff8760081c166155aa565b019301611c6c565b926020816121cd60019360ff87166155aa565b019301611c64565b91602091935061040060019161245087546121f38360ff83166155aa565b61220586840160ff8360081c166155aa565b6122186040840160ff8360101c166155aa565b61222b6060840160ff8360181c166155aa565b61223d6080840160ff83891c166155aa565b61225060a0840160ff8360281c166155aa565b61226360c0840160ff8360301c166155aa565b61227660e0840160ff8360381c166155aa565b61228a610100840160ff8360401c166155aa565b61229e610120840160ff8360481c166155aa565b6122b2610140840160ff8360501c166155aa565b6122c6610160840160ff8360581c166155aa565b6122da610180840160ff8360601c166155aa565b6122ee6101a0840160ff8360681c166155aa565b6123026101c0840160ff8360701c166155aa565b6123166101e0840160ff8360781c166155aa565b61232a610200840160ff8360801c166155aa565b61233e610220840160ff8360881c166155aa565b612352610240840160ff8360901c166155aa565b612366610260840160ff8360981c166155aa565b61237a610280840160ff8360a01c166155aa565b61238e6102a0840160ff8360a81c166155aa565b6123a26102c0840160ff8360b01c166155aa565b6123b66102e0840160ff8360b81c166155aa565b6123ca610300840160ff8360c01c166155aa565b6123de610320840160ff8360c81c166155aa565b6123f2610340840160ff8360d01c166155aa565b612406610360840160ff8360d81c166155aa565b61241a610380840160ff8360e01c166155aa565b61242e6103a0840160ff8360e81c166155aa565b6124426103c0840160ff8360f01c166155aa565b6103e083019060f81c6155aa565b019401920184929391611c4c565b3461023f57600036600319011261023f576020600e54604051908152f35b3461023f57604036600319011261023f5760043560249081359160ff831680930361023f57816000526020600981526124bb60406000205415156159bd565b6124c3615851565b8260005260098152604060002060ff600c8201541660078110156126c957600103612690576004810154421061265857600581015442116126265761252e81548060005260088452604060002033600052845261252760ff60406000205416615964565b3390615b20565b9283156125f1578561258157506008016125498382546159b0565b90555b6040519384528301527f5e1602e38ecc9ec3e587f14a5449e8f50d4e01badffb209bb275e3400571cb7a60403393a360018055005b6001860361259f57506007016125988382546159b0565b905561254c565b600286036125b657506009016125988382546159b0565b8260156064926040519262461bcd60e51b8452600484015282015274496e76616c696420737570706f72742076616c756560581b6044820152fd5b82600f6064926040519262461bcd60e51b845260048401528201526e2737903b37ba34b733903837bbb2b960891b6044820152fd5b50600c6064926040519262461bcd60e51b845260048401528201526b159bdd1a5b99c8195b99195960a21b6044820152fd5b5060126064926040519262461bcd60e51b8452600484015282015271159bdd1a5b99c81b9bdd081cdd185c9d195960721b6044820152fd5b5060136064926040519262461bcd60e51b845260048401528201527250726f706f73616c206e6f742061637469766560681b6044820152fd5b83634e487b7160e01b60005260216004526000fd5b61010036600319011261023f576024356001600160401b03811161023f5761270a90369060040161542a565b6044356001600160401b03811161023f5761272990369060040161542a565b906064356001600160401b03811161023f5761274990369060040161542a565b916084356001600160401b03811161023f5761276990369060040161542a565b9260a4356001600160401b03811161023f5761278990369060040161542a565b9360c4356001600160401b03811161023f576127a990369060040161545c565b9160e4356001600160401b03811161023f576127c99036906004016154dc565b93600435600052600660205260ff600c6040600020015460081c16156133c8573360005260076020526004356040600020540361339357612808615851565b61281061580d565b61281f6012548751111561567a565b61282b865115156156c6565b61283a6013548251111561567a565b612846815115156156c6565b6128556011548351111561567a565b612861825115156156c6565b600f54341061334e576128798451601054101561570b565b60043560005260066020526040600020958051906001600160401b038211610b845781906128b1826128ab8b54615112565b8b61575e565b602090601f83116001146132e2576000926132d7575b50508160011b916000199060031b1c19161786555b8051906001600160401b038211610b845781906129098261290060018b0154615112565b60018b0161575e565b602090601f83116001146132655760009261325a575b50508160011b916000199060031b1c19161760018601555b8051906001600160401b038211610b845781906129648261295b60028a0154615112565b60028a0161575e565b602090601f83116001146131e8576000926131dd575b50508160011b916000199060031b1c19161760028501555b8051906001600160401b038211610b845781906129bf826129b66003890154615112565b6003890161575e565b602090601f831160011461316b57600092613160575b50508160011b916000199060031b1c19161760038401555b83516001600160401b038111610b8457612a1781612a0e6004870154615112565b6004870161575e565b6020601f82116001146130f15781929394956000926130e6575b50508160011b916000199060031b1c19161760048401555b805190600160401b8211610b845760108401548260108601558083106130b3575b5060200190601084016000526020600020916000905b828210612fd657858580519182516001600160401b038111610b8457612ab681612aad6011850154615112565b6011850161575e565b6020601f8211600114612f685781929394600092612f5d575b50508160011b916000199060031b1c19161760118201555b60208201519182516001600160401b038111610b8457612b1781612b0e6012860154615112565b6012860161575e565b6020601f8211600114612eef5781929394600092612ee4575b50508160011b916000199060031b1c19161760128301555b60408101519182516001600160401b038111610b8457612b7881612b6f6013850154615112565b6013850161575e565b6020601f8211600114612e765781929394600092612e6b575b50508160011b916000199060031b1c19161760138201555b60608201519182516001600160401b038111610b8457612bd981612bd06014860154615112565b6014860161575e565b6020601f8211600114612dfd5781929394600092612df2575b50508160011b916000199060031b1c19161760148301555b60808101519182516001600160401b038111610b8457612c3a81612c316015850154615112565b6015850161575e565b6020601f8211600114612d845781929394600092612d79575b50508160011b916000199060031b1c19161760158201555b60a0601682019201519182516001600160401b038111610b8457612c9981612c938454615112565b8461575e565b6020601f8211600114612d135781929394600092612d08575b50508160011b916000199060031b1c19161790555b42600b820155600501546001600160a01b03166004357f1e8ceb3de7eb5bb73a89983d89a798ecd82263aea899b13a735299c84af8e273600080a360018055005b015190508480612cb2565b601f198216908360005260206000209160005b818110612d6157509583600195969710612d48575b505050811b019055612cc7565b015160001960f88460031b161c19169055848080612d3b565b9192602060018192868b015181550194019201612d26565b015190508480612c53565b6015830160005260206000209060005b601f1984168110612dda5750600193949583601f19811610612dc1575b505050811b016015820155612c6b565b015160001960f88460031b161c19169055848080612db1565b9091602060018192858a015181550193019101612d94565b015190508480612bf2565b6014840160005260206000209060005b601f1984168110612e535750600193949583601f19811610612e3a575b505050811b016014830155612c0a565b015160001960f88460031b161c19169055848080612e2a565b9091602060018192858a015181550193019101612e0d565b015190508480612b91565b6013830160005260206000209060005b601f1984168110612ecc5750600193949583601f19811610612eb3575b505050811b016013820155612ba9565b015160001960f88460031b161c19169055848080612ea3565b9091602060018192858a015181550193019101612e86565b015190508480612b30565b6012840160005260206000209060005b601f1984168110612f455750600193949583601f19811610612f2c575b505050811b016012830155612b48565b015160001960f88460031b161c19169055848080612f1c565b9091602060018192858a015181550193019101612eff565b015190508480612acf565b6011830160005260206000209060005b601f1984168110612fbe5750600193949583601f19811610612fa5575b505050811b016011820155612ae7565b015160001960f88460031b161c19169055848080612f95565b9091602060018192858a015181550193019101612f78565b80518051906001600160401b038211610b8457612ff782610e2f8854615112565b602090601f8311600114613043579282600194936020938695600092613038575b5050600019600383901b1c191690841b1787555b01940191019092612a80565b015190508b80613018565b908660005260206000209160005b601f198516811061309b575083602093600196938796938794601f19811610613082575b505050811b01875561302c565b015160001960f88460031b161c191690558b8080613075565b91926020600181928685015181550194019201613051565b601085016000526020600020908382015b81830181106130d4575050612a6a565b806130e06001926157c4565b016130c4565b015190508580612a31565b6004850160005260206000209060005b601f1984168110613148575060019394959683601f1981161061312f575b505050811b016004840155612a49565b015160001960f88460031b161c1916905585808061311f565b9091602060018192858b015181550193019101613101565b0151905086806129d5565b9250600386016000526020600020906000935b601f19841685106131c2576001945083601f198116106131a9575b505050811b0160038401556129ed565b015160001960f88460031b161c19169055868080613199565b8181015183556020948501946001909301929091019061317e565b01519050878061297a565b9250600287016000526020600020906000935b601f198416851061323f576001945083601f19811610613226575b505050811b016002850155612992565b015160001960f88460031b161c19169055878080613216565b818101518355602094850194600190930192909101906131fb565b01519050888061291f565b9250600188016000526020600020906000935b601f19841685106132bc576001945083601f198116106132a3575b505050811b016001860155612937565b015160001960f88460031b161c19169055888080613293565b81810151835560209485019460019093019290910190613278565b0151905089806128c7565b9250886000526020600020906000935b601f1984168510613333576001945083601f1981161061331a575b505050811b0186556128dc565b015160001960f88460031b161c1916905589808061330d565b818101518355602094850194600190930192909101906132f2565b60405162461bcd60e51b815260206004820152601760248201527f496e73756666696369656e7420757064617465206665650000000000000000006044820152606490fd5b60405162461bcd60e51b815260206004820152600d60248201526c2737ba102220a79037bbb732b960991b6044820152606490fd5b60405162461bcd60e51b815260206004820152602160248201527f44414f20646f6573206e6f74206578697374206f7220697320696e61637469766044820152606560f81b6064820152608490fd5b3461023f57600036600319011261023f576020600554604051908152f35b3461023f57600036600319011261023f576000546040516001600160a01b039091168152602090f35b3461023f57600036600319011261023f57613477615622565b61347f61580d565b600160ff1960025416176002557f62e78cea01bee320cd4e420270b5ea74000d11b0c9f74754ebdbfc544b05a2586020604051338152a1005b3461023f57600036600319011261023f576020600f54604051908152f35b3461023f57604036600319011261023f576004356134f2615337565b9080600052600660205261351060ff600c60406000200154166158e8565b80600052600660205261353060ff600c6040600020015460081c16615927565b80600052600860205260406000209160018060a01b0316918260005260205260ff6040600020541661382c5760016005540180600555604051604081018181106001600160401b03821117610b845760405260018152602036818301376040519061359a826151d6565b838252846020830152600060408301526000606083015260006080830152600060a08301524260c0830152600160e083015261010082015281600052600a60205261010060086040600020835181556001810160018060a01b036020860151166001600160601b0360a01b82541617905560408401516002820155606084015160038201556080840151600482015560a0840151600582015560c0840151600682015561365c60e08501511515600783019060ff801983541691151516179055565b019101518051906001600160401b038211610b8457600160401b8211610b845760209083548385558084106137e0575b50019160005260206000208160051c9160005b8381106137935750601f198116900380613741575b50505050600052600a602052600860406000200180541561372b57600052602060002060ff199081815416905581600052600860205260406000208360005260205260016040600020918254161790557ff328ac0f8bcae00933fe87ba0aa2d0d505c1df94bc9c1aa05b8441c28b74032c600080a3005b634e487b7160e01b600052603260045260246000fd5b9260009360005b81811061375d575050500155838080806136b4565b909194855160048110156119ef57613789602091846001949060ff809160031b9316831b921b19161790565b9601929101613748565b6000805b602081106137ac57508382015560010161369f565b9590815160048110156119ef576137d7602091896001949060ff809160031b9316831b921b19161790565b92019601613797565b61380c908560005283600020601f80870160051c82019281881680613812575b500160051c0190615747565b8761368c565b60001990818601918254918a0360031b1c1690558c613800565b60405162461bcd60e51b815260206004820152601060248201526f20b63932b0b23c90309036b2b6b132b960811b6044820152606490fd5b3461023f57602036600319011261023f57600435600052600b6020526101006040600020805490600181015490600281015460038201546004830154906005840154926007600686015495015495604051978852602088015260408701526060860152608085015260a084015260c083015260e0820152f35b3461023f57604036600319011261023f576138f6615321565b60243590613902615622565b6001600160a01b031690811561396f5747811161393357600080808093611431955af161392d615af0565b50615bbc565b60405162461bcd60e51b8152602060048201526014602482015273496e73756666696369656e742062616c616e636560601b6044820152606490fd5b60405162461bcd60e51b8152602060048201526011602482015270125b9d985b1a59081c9958da5c1a595b9d607a1b6044820152606490fd5b3461023f57600036600319011261023f576139c1615622565b600080546001600160a01b0319811682556001600160a01b03167f8be0079c531659141344cd1fd0a4f28419497f9722a3daafe3b4186f6b6457e08280a3005b3461023f57604036600319011261023f57600435613a1d615337565b9080600052602060068152613a3c60ff600c60406000200154166158e8565b8160005260068152613a5b60ff600c6040600020015460081c16615927565b60008281526008825260408082206001600160a01b0390951680835294835290205460ff1615613acc5781600052600881526040600020908360005252604060002060ff1981541690557f1c4c9d2e56d0635d11bc47c997c6909a0d7061f55cbb8f4b27386db37553191c600080a3005b6064906040519062461bcd60e51b82526004820152600c60248201526b2737ba10309036b2b6b132b960a11b6044820152fd5b3461023f57608036600319011261023f576024356001600160401b03811161023f57613b2f90369060040161542a565b6044356001600160401b03811161023f57613b4e90369060040161542a565b906001600160401b036064351161023f5736602360643501121561023f5760643560040135613b7c81615445565b90613b8a604051928361520d565b80825260208201903660248260051b60643501011161023f57602460643501915b60248260051b60643501018310614295575050506004356000526006602052613bde60ff600c60406000200154166158e8565b6004356000526006602052613c0060ff600c6040600020015460081c16615927565b613c08615851565b6004356000526008602052604060002033600052602052613c3060ff60406000205416615964565b600160045401928360045560043560005260066020526040600020600e613c5b600d830154426159b0565b9101549160405194613c6c866151ba565b60043586523360208701526040860152606085015242608085015260a084015260c0830152600060e08301526000610100830152600061012083015260006101408301526000610160830152600061018083015260016101a08301526101c08201528160005260096020526040600020918151835560018060a01b0360208301511660018401906001600160601b0360a01b82541617905560408201519283516001600160401b038111610b8457613d3481613d2b6002850154615112565b6002850161575e565b6020601f821160011461422657819293949560009261421b575b50508160011b916000199060031b1c19161760028201555b60608301519283516001600160401b038111610b8457613d9681613d8d6003860154615112565b6003860161575e565b6020601f82116001146141ac5781929394956000926141a1575b50508160011b916000199060031b1c19161760038301555b6080810151600483015560a0810151600583015560c0810151600683015560e0810151600783015561010081015160088301556101208101516009830155613e46600a8301613e2a6101408401511515829060ff801983541691151516179055565b610160830151815461ff00191690151560081b61ff0016179055565b610180810151600b8301556101a081015190600c830160078310156119ef576101c09260ff801983541691161790550151805190600160401b8211610b8457600d83015482600d8501558083106140d0575b506020600d910192016000526020600020916000905b828210613ee55733600435867f2e8c120bfdd294891f6ac45b1d661997690ad24bb51f51e4d357365f25c19023600080a460018055005b8051805185546001600160a01b0319166001600160a01b03919091161785556020810151600186015560408101518051906001600160401b038211610b8457613f358261295b60028a0154615112565b602090601f831160011461405d57606093929160009183614052575b50508160011b916000199060031b1c19161760028701555b01518051906001600160401b038211610b8457613f8d826129b66003890154615112565b602090601f8311600114613fdc579282600493602093600196600092613fd1575b505081861b916000199060031b1c19161760038801555b01940191019092613eae565b015190508a80613fae565b906003870160005260206000209160005b601f198516811061403a575083602093600196938793600497601f19811610614021575b505050811b016003880155613fc5565b015160001960f88460031b161c191690558a8080614011565b91926020600181928685015181550194019201613fed565b015190508980613f51565b906002880160005260206000209160005b601f19851681106140b8575091839160019360609695601f1981161061409f575b505050811b016002870155613f69565b015160001960f88460031b161c1916905589808061408f565b9192602060018192868501518155019401920161406e565b6001600160fe1b038116810361418b576001600160fe1b038316830361418b57600d840160005260206000208360021b81015b8260021b82018110614116575050613e98565b8060006004925560006001820155614130600282016157c4565b6003810161413e8154615112565b908161414d575b505001614103565b81601f600093116001146141655750555b8880614145565b908083918252614184601f60208420940160051c840160018501615747565b555561415e565b634e487b7160e01b600052601160045260246000fd5b015190508580613db0565b6003840160005260206000209060005b601f1984168110614203575060019394959683601f198116106141ea575b505050811b016003830155613dc8565b015160001960f88460031b161c191690558580806141da565b9091602060018192858b0151815501930191016141bc565b015190508580613d4e565b6002830160005260206000209060005b601f198416811061427d575060019394959683601f19811610614264575b505050811b016002820155613d66565b015160001960f88460031b161c19169055858080614254565b9091602060018192858b015181550193019101614236565b82356001600160401b03811161023f57608060643582013603602319011261023f57604051916142c48361519f565b6064358201602401356001600160a01b038116900361023f57606480358301602481013585526044810135602086015201356001600160401b03811161023f5761431890602436918560643501010161542a565b6040840152608482606435010135906001600160401b03821161023f573660438385606435010101121561023f5760249360209384936143689136916064359091010180880135906044016153f3565b60608201528152019301929050613bab565b3461023f57602036600319011261023f57600435600052600a602052610100604060002080549060018060a01b03600182015416906002810154600382015460048301549060058401549260ff600760068701549601541695604051978852602088015260408701526060860152608085015260a084015260c0830152151560e0820152f35b3461023f57600036600319011261023f57602060ff600254166040519015158152f35b3461023f57602036600319011261023f5760405161444081615168565b60608152606060208201526060604082015260608082015260606080820152600060a0820152600060c0820152600060e08201526000610100820152600061012082015260006101408201526000610160820152600061018082015260006101a082015260006101c082015260006101e08201526000610200820152600061022082015260006102408201526060610260820152610280604051916144e483615184565b60608352606060208401526060604084015260608084015260606080840152606060a08401520152600435600052600660205260406000206040519061452982615168565b6145328161522e565b82526145406001820161522e565b60208301526145516002820161522e565b60408301526145626003820161522e565b60608301526145736004820161522e565b608083015260058101546001600160a01b0390811660a08401526006820154811660c08401526007820154811660e08401526008808301549091166101008401526009820154610120840152600a820154610140840152600b820154610160840152600c82015460ff81811615156101808601529181901c821615156101a0850152614604601082901c831661534d565b818160101c166101c085015261461e828260181c1661534d565b60181c166101e0830152600d810154610200830152600e810154610220830152600f810154610240830152601081015461465781615445565b90614665604051928361520d565b808252602082016010840160005260206000206000915b838310614871578661469760118888610260850152016155b7565b61028082015260405180916020825261470c6146f661189b6146e06146ca85516102a060208901526102c08801906152d4565b6020860151878203601f190160408901526152d4565b6040850151868203601f190160608801526152d4565b6080830151848203601f190160a08601526152d4565b9060018060a01b0360a08201511660c084015260018060a01b0360c08201511660e084015260018060a01b0360e08201511661010084015260018060a01b036101008201511661012084015261012081015161014084015261014081015161016084015261016081015161018084015261018081015115156101a08401526101a081015115156101c08401526101c08101516147a78161534d565b6101e08401526101e08101516147bc8161534d565b61020084015261020081015161022084015261022081015161024084015261024081015161026084015261026081015191601f1984820301610280850152825180825260208201916020808360051b8301019501926000915b83831061483e57878061483a896102808a0151601f19848303016102a0850152615357565b0390f35b9193965091939460208061485e600193601f198682030187528a516152d4565b9801930193019092879695949293614815565b6001602081926148808561522e565b81520192019201919061467c565b3461023f57600036600319011261023f576148a7615622565b4780156149095760008080809360018060a01b038254165af16148c8615af0565b50156148d057005b60405162461bcd60e51b815260206004820152601160248201527015da5d1a191c985dd85b0819985a5b1959607a1b6044820152606490fd5b60405162461bcd60e51b81526020600482015260136024820152724e6f206665657320746f20776974686472617760681b6044820152606490fd5b3461023f57602036600319011261023f576001600160a01b03614965615321565b1660005260076020526020604060002054604051908152f35b3461023f57600036600319011261023f57614997615622565b60025460ff8116156149d65760ff19166002557f5db9ee0a495bf2e6ff9c91a7834c1ba4fdd244a5e8aa4e537bd38aeae4b073aa6020604051338152a1005b60405162461bcd60e51b815260206004820152601460248201527314185d5cd8589b194e881b9bdd081c185d5cd95960621b6044820152606490fd5b3461023f57600036600319011261023f576020601254604051908152f35b3461023f57600036600319011261023f576020601154604051908152f35b3461023f57604036600319011261023f576004356024358015159081810361023f577f8feddb1c7fc107bee8a264a8590310a8172647cff937e1dbc031cd5c938ee1bb91602091614a9d615622565b8460005260068352614abc60ff600c6040600020015460081c166158a7565b8460005260068352604060002090600c820191614ae582849060ff801983541691151516179055565b600b42910155614afa575b50604051908152a2005b805462ff000019166201000017905584614af0565b3461023f57606036600319011261023f577fcf8a1e1d5f09cf3c97dbb653cd9a4d7aace9292fbc1bb8211febf2d400febbdd6060600435604435602435614b54615622565b82600d5580600e5581600f5560405192835260208301526040820152a1005b3461023f57602036600319011261023f57600060e0604051614b948161514c565b8281528260208201528260408201528260608201528260808201528260a08201528260c08201520152600435600052600b6020526101006040600020604051614bdc8161514c565b8154918282526001810154602083019081526002820154604084019081526003830154606085019081526004840154916080860192835260058501549360a0870194855260e0600760068801549760c08a01988952015497019687526040519788525160208801525160408701525160608601525160808501525160a08401525160c08301525160e0820152f35b3461023f57600036600319011261023f576020600454604051908152f35b3461023f57604036600319011261023f57600435602435600581101561023f5760407f11096614b0fe0e3e77df65c0be4e076ccd53c4858017028cd3b19822eee64c5791614cd4615622565b836000526006602052614cf360ff600c84600020015460081c166158a7565b836000526006602052600c826000200190614d168160ff845460101c16936157a3565b84600052600660205242600b846000200155614d318161534d565b600381148015614d7e575b614d60575b825191614d4d8161534d565b8252614d588161534d565b6020820152a2005b846000526006602052600c836000200161ff00198154169055614d41565b50614d888161534d565b60048114614d3c565b3461023f57600036600319011261023f576020600d54604051908152f35b3461023f57600036600319011261023f576020601054604051908152f35b3461023f5760208060031936011261023f576004358060005260098252614dfa60406000205415156159bd565b614e02615851565b80600052600982526040600020600c810180549360ff85169160078310156119ef576002809303614fd157600a84019586549060ff8216614f8c5760058601544210614f475760ff19918216600190811790985542600b870155166004179055600091600d8401865b614e9f575b5050505054907ff758fc91e01b00ea6b4a6138756f7f28e021f9bf21db6dbf8c36c88eb737257a600080a38055005b8054841015614f425780600052600080614ebe85822087861b01615a09565b805186820151606090920151805192908801916001600160a01b03165af1614ee4615af0565b5015614efd57600019841461418b578680940193614e6b565b60405162461bcd60e51b815260048101849052601760248201527f416374696f6e20657865637574696f6e206661696c65640000000000000000006044820152606490fd5b614e70565b60405162461bcd60e51b815260048101859052601760248201527f566f74696e6720706572696f64206e6f7420656e6465640000000000000000006044820152606490fd5b60405162461bcd60e51b815260048101859052601960248201527f50726f706f73616c20616c7265616479206578656375746564000000000000006044820152606490fd5b60405162461bcd60e51b8152600481018390526016602482015275141c9bdc1bdcd85b081b9bdd081cdd58d8d95959195960521b6044820152606490fd5b3461023f57602036600319011261023f576004356000908152600960205260409020805460018201546001600160a01b03169161504e6002820161522e565b61505a6003830161522e565b91600481015492600582015460068301546007840154600885015491600986015493600a87015495600b88015497600c015460ff16986040519c8d9c8d5260208d01528b6101c06040819201528c016150b2916152d4565b8b810360608d01526150c3916152d4565b9860808b015260a08a015260c089015260e088015261010087015261012086015260ff8116151561014086015260081c60ff1615156101608501526101808401526101a0830161483a91615314565b90600182811c92168015615142575b602083101461512c57565b634e487b7160e01b600052602260045260246000fd5b91607f1691615121565b61010081019081106001600160401b03821117610b8457604052565b6102a081019081106001600160401b03821117610b8457604052565b60c081019081106001600160401b03821117610b8457604052565b608081019081106001600160401b03821117610b8457604052565b6101e081019081106001600160401b03821117610b8457604052565b61012081019081106001600160401b03821117610b8457604052565b602081019081106001600160401b03821117610b8457604052565b90601f801991011681019081106001600160401b03821117610b8457604052565b906040519182600082549261524284615112565b9081845260019485811690816000146152b1575060011461526e575b505061526c9250038361520d565b565b9093915060005260209081600020936000915b81831061529957505061526c9350820101388061525e565b85548884018501529485019487945091830191615281565b91505061526c94506020925060ff191682840152151560051b820101388061525e565b919082519283825260005b848110615300575050826000602080949584010152601f8019910116010190565b6020818301810151848301820152016152df565b9060078210156119ef5752565b600435906001600160a01b038216820361023f57565b602435906001600160a01b038216820361023f57565b600511156119ef57565b6153d59160a06153c46153b26153a061538e61537c875160c0885260c08801906152d4565b602088015187820360208901526152d4565b604087015186820360408801526152d4565b606086015185820360608701526152d4565b608085015184820360808601526152d4565b9201519060a08184039101526152d4565b90565b6001600160401b038111610b8457601f01601f191660200190565b9291926153ff826153d8565b9161540d604051938461520d565b82948184528183011161023f578281602093846000960137010152565b9080601f8301121561023f578160206153d5933591016153f3565b6001600160401b038111610b845760051b60200190565b9080601f8301121561023f5781359061547482615445565b92615482604051948561520d565b828452602092838086019160051b8301019280841161023f57848301915b8483106154b05750505050505090565b82356001600160401b03811161023f5786916154d18484809489010161542a565b8152019201916154a0565b919060c08382031261023f57604051906154f582615184565b81938035916001600160401b039283811161023f578161551691840161542a565b8452602082013583811161023f578161553091840161542a565b6020850152604082013583811161023f578161554d91840161542a565b6040850152606082013583811161023f578161556a91840161542a565b6060850152608082013583811161023f578161558791840161542a565b608085015260a082013592831161023f5760a0926155a5920161542a565b910152565b9060048210156119ef5752565b906040516155c481615184565b60a06155a5600583956155d68161522e565b85526155e46001820161522e565b60208601526155f56002820161522e565b60408601526156066003820161522e565b60608601526156176004820161522e565b60808601520161522e565b6000546001600160a01b0316330361563657565b606460405162461bcd60e51b815260206004820152602060248201527f4f776e61626c653a2063616c6c6572206973206e6f7420746865206f776e65726044820152fd5b1561568157565b60405162461bcd60e51b815260206004820152601d60248201527f537472696e672065786365656473206d6178696d756d206c656e6774680000006044820152606490fd5b156156cd57565b60405162461bcd60e51b8152602060048201526016602482015275537472696e672063616e6e6f7420626520656d70747960501b6044820152606490fd5b1561571257565b60405162461bcd60e51b815260206004820152600d60248201526c546f6f206d616e79207461677360981b6044820152606490fd5b818110615752575050565b60008155600101615747565b9190601f811161576d57505050565b61526c926000526020600020906020601f840160051c83019310615799575b601f0160051c0190615747565b909150819061578c565b906157ad8161534d565b62ff000082549160101b169062ff00001916179055565b6157ce8154615112565b90816157d8575050565b81601f600093116001146157ea575055565b908083918252615809601f60208420940160051c840160018501615747565b5555565b60ff6002541661581957565b60405162461bcd60e51b815260206004820152601060248201526f14185d5cd8589b194e881c185d5cd95960821b6044820152606490fd5b600260015414615862576002600155565b60405162461bcd60e51b815260206004820152601f60248201527f5265656e7472616e637947756172643a207265656e7472616e742063616c6c006044820152606490fd5b156158ae57565b60405162461bcd60e51b8152602060048201526012602482015271111053c8191bd95cc81b9bdd08195e1a5cdd60721b6044820152606490fd5b156158ef57565b60405162461bcd60e51b815260206004820152601060248201526f111053c81b9bdd081d995c9a599a595960821b6044820152606490fd5b1561592e57565b60405162461bcd60e51b815260206004820152600e60248201526d44414f206e6f742061637469766560901b6044820152606490fd5b1561596b57565b60405162461bcd60e51b815260206004820152601860248201527f4e6f742061206d656d626572206f6620746869732044414f00000000000000006044820152606490fd5b9190820180921161418b57565b156159c457565b60405162461bcd60e51b815260206004820152601760248201527f50726f706f73616c20646f6573206e6f742065786973740000000000000000006044820152606490fd5b9060405191615a178361519f565b8260018060a01b03825416815260016003818401549360209485850152615a406002820161522e565b60408501520190604051938492600092815491615a5c83615112565b80875292828116908115615acf5750600114615a8a575b5050505060609291615a8691038461520d565b0152565b60009081528381209695945091905b818310615ab757509394509192509082010181615a86606038615a73565b86548884018501529586019587945091830191615a99565b60ff191685880152505050151560051b830101905081615a86606038615a73565b3d15615b1b573d90615b01826153d8565b91615b0f604051938461520d565b82523d6000602084013e565b606090565b60009081526006602081905260408220015490916001600160a01b03918216918215615bb657602460209260405194859384926370a0823160e01b84521660048301525afa918215615baa578092615b7757505090565b9091506020823d8211615ba2575b81615b926020938361520d565b81010312615b9f57505190565b80fd5b3d9150615b85565b604051903d90823e3d90fd5b50505090565b15615bc357565b60405162461bcd60e51b815260206004820152600f60248201526e151c985b9cd9995c8819985a5b1959608a1b6044820152606490fdfea2646970667358221220de604059b5fe2a97c8fa18020ba977a548bdd7d319ddb1c1fb64631122af9de364736f6c63430008130033",
  "linkReferences": {},
  "deployedLinkReferences": {}
}