{
  "_format": "hh-sol-artifact-1",
  "contractName": "MockERC20",
  "sourceName": "contracts/MockERC20.sol",
  "abi": [
    {
      "inputs": [
        {
          "internalType": "string",
          "name": "name",
          "type": "string"
        },
        {
          "internalType": "string",
          "name": "symbol",
          "type": "string"
        },
        {
          "internalType": "uint8",
          "name": "decimals_",
          "type": "uint8"
        }
      ],
      "stateMutability": "nonpayable",
      "type": "constructor"
    },
    {
      "anonymous": false,
      "inputs": [
        {
          "indexed": true,
          "internalType": "address",
          "name": "owner",
          "type": "address"
        },
        {
          "indexed": true,
          "internalType": "address",
          "name": "spender",
          "type": "address"
        },
        {
          "indexed": false,
          "internalType": "uint256",
          "name": "value",
          "type": "uint256"
        }
      ],
      "name": "Approval",
      "type": "event"
    },
    {
      "anonymous": false,
      "inputs": [
        {
          "indexed": true,
          "internalType": "address",
          "name": "previousOwner",
          "type": "address"
        },
        {
          "indexed": true,
          "internalType": "address",
          "name": "newOwner",
          "type": "address"
        }
      ],
      "name": "OwnershipTransferred",
      "type": "event"
    },
    {
      "anonymous": false,
      "inputs": [
        {
          "indexed": true,
          "internalType": "address",
          "name": "from",
          "type": "address"
        },
        {
          "indexed": true,
          "internalType": "address",
          "name": "to",
          "type": "address"
        },
        {
          "indexed": false,
          "internalType": "uint256",
          "name": "value",
          "type": "uint256"
        }
      ],
      "name": "Transfer",
      "type": "event"
    },
    {
      "anonymous": false,
      "inputs": [
        {
          "indexed": true,
          "internalType": "address",
          "name": "from",
          "type": "address"
        },
        {
          "indexed": true,
          "internalType": "address",
          "name": "to",
          "type": "address"
        },
        {
          "indexed": false,
          "internalType": "uint256",
          "name": "amount",
          "type": "uint256"
        },
        {
          "indexed": false,
          "internalType": "bytes",
          "name": "data",
          "type": "bytes"
        }
      ],
      "name": "TransferWithData",
      "type": "event"
    },
    {
      "inputs": [
        {
          "internalType": "address",
          "name": "owner",
          "type": "address"
        },
        {
          "internalType": "address",
          "name": "spender",
          "type": "address"
        }
      ],
      "name": "allowance",
      "outputs": [
        {
          "internalType": "uint256",
          "name": "",
          "type": "uint256"
        }
      ],
      "stateMutability": "view",
      "type": "function"
    },
    {
      "inputs": [
        {
          "internalType": "address",
          "name": "spender",
          "type": "address"
        },
        {
          "internalType": "uint256",
          "name": "amount",
          "type": "uint256"
        }
      ],
      "name": "approve",
      "outputs": [
        {
          "internalType": "bool",
          "name": "",
          "type": "bool"
        }
      ],
      "stateMutability": "nonpayable",
      "type": "function"
    },
    {
      "inputs": [
        {
          "internalType": "address",
          "name": "account",
          "type": "address"
        }
      ],
      "name": "balanceOf",
      "outputs": [
        {
          "internalType": "uint256",
          "name": "",
          "type": "uint256"
        }
      ],
      "stateMutability": "view",
      "type": "function"
    },
    {
      "inputs": [
        {
          "internalType": "address[]",
          "name": "recipients",
          "type": "address[]"
        },
        {
          "internalType": "uint256[]",
          "name": "amounts",
          "type": "uint256[]"
        }
      ],
      "name": "batchTransfer",
      "outputs": [
        {
          "internalType": "bool",
          "name": "",
          "type": "bool"
        }
      ],
      "stateMutability": "nonpayable",
      "type": "function"
    },
    {
      "inputs": [
        {
          "internalType": "uint256",
          "name": "amount",
          "type": "uint256"
        }
      ],
      "name": "burn",
      "outputs": [],
      "stateMutability": "nonpayable",
      "type": "function"
    },
    {
      "inputs": [],
      "name": "decimals",
      "outputs": [
        {
          "internalType": "uint8",
          "name": "",
          "type": "uint8"
        }
      ],
      "stateMutability": "view",
      "type": "function"
    },
    {
      "inputs": [
        {
          "internalType": "address",
          "name": "spender",
          "type": "address"
        },
        {
          "internalType": "uint256",
          "name": "subtractedValue",
          "type": "uint256"
        }
      ],
      "name": "decreaseAllowance",
      "outputs": [
        {
          "internalType": "bool",
          "name": "",
          "type": "bool"
        }
      ],
      "stateMutability": "nonpayable",
      "type": "function"
    },
    {
      "inputs": [
        {
          "internalType": "address",
          "name": "tokenAddress",
          "type": "address"
        },
        {
          "internalType": "address",
          "name": "to",
          "type": "address"
        },
        {
          "internalType": "uint256",
          "name": "amount",
          "type": "uint256"
        }
      ],
      "name": "emergencyRecoverTokens",
      "outputs": [],
      "stateMutability": "nonpayable",
      "type": "function"
    },
    {
      "inputs": [
        {
          "internalType": "address",
          "name": "account",
          "type": "address"
        }
      ],
      "name": "getBalancePercentage",
      "outputs": [
        {
          "internalType": "uint256",
          "name": "percentage",
          "type": "uint256"
        }
      ],
      "stateMutability": "view",
      "type": "function"
    },
    {
      "inputs": [],
      "name": "getTokenInfo",
      "outputs": [
        {
          "internalType": "string",
          "name": "tokenName",
          "type": "string"
        },
        {
          "internalType": "string",
          "name": "tokenSymbol",
          "type": "string"
        },
        {
          "internalType": "uint256",
          "name": "supply",
          "type": "uint256"
        },
        {
          "internalType": "uint8",
          "name": "tokenDecimals",
          "type": "uint8"
        }
      ],
      "stateMutability": "view",
      "type": "function"
    },
    {
      "inputs": [
        {
          "internalType": "address",
          "name": "account",
          "type": "address"
        },
        {
          "internalType": "uint256",
          "name": "amount",
          "type": "uint256"
        }
      ],
      "name": "hasSufficientBalance",
      "outputs": [
        {
          "internalType": "bool",
          "name": "",
          "type": "bool"
        }
      ],
      "stateMutability": "view",
      "type": "function"
    },
    {
      "inputs": [
        {
          "internalType": "address",
          "name": "spender",
          "type": "address"
        },
        {
          "internalType": "uint256",
          "name": "addedValue",
          "type": "uint256"
        }
      ],
      "name": "increaseAllowance",
      "outputs": [
        {
          "internalType": "bool",
          "name": "",
          "type": "bool"
        }
      ],
      "stateMutability": "nonpayable",
      "type": "function"
    },
    {
      "inputs": [
        {
          "internalType": "address",
          "name": "to",
          "type": "address"
        },
        {
          "internalType": "uint256",
          "name": "amount",
          "type": "uint256"
        }
      ],
      "name": "mint",
      "outputs": [],
      "stateMutability": "nonpayable",
      "type": "function"
    },
    {
      "inputs": [],
      "name": "name",
      "outputs": [
        {
          "internalType": "string",
          "name": "",
          "type": "string"
        }
      ],
      "stateMutability": "view",
      "type": "function"
    },
    {
      "inputs": [],
      "name": "owner",
      "outputs": [
        {
          "internalType": "address",
          "name": "",
          "type": "address"
        }
      ],
      "stateMutability": "view",
      "type": "function"
    },
    {
      "inputs": [],
      "name": "renounceOwnership",
      "outputs": [],
      "stateMutability": "nonpayable",
      "type": "function"
    },
    {
      "inputs": [],
      "name": "symbol",
      "outputs": [
        {
          "internalType": "string",
          "name": "",
          "type": "string"
        }
      ],
      "stateMutability": "view",
      "type": "function"
    },
    {
      "inputs": [],
      "name": "totalSupply",
      "outputs": [
        {
          "internalType": "uint256",
          "name": "",
          "type": "uint256"
        }
      ],
      "stateMutability": "view",
      "type": "function"
    },
    {
      "inputs": [
        {
          "internalType": "address",
          "name": "to",
          "type": "address"
        },
        {
          "internalType": "uint256",
          "name": "amount",
          "type": "uint256"
        }
      ],
      "name": "transfer",
      "outputs": [
        {
          "internalType": "bool",
          "name": "",
          "type": "bool"
        }
      ],
      "stateMutability": "nonpayable",
      "type": "function"
    },
    {
      "inputs": [
        {
          "internalType": "address",
          "name": "from",
          "type": "address"
        },
        {
          "internalType": "address",
          "name": "to",
          "type": "address"
        },
        {
          "internalType": "uint256",
          "name": "amount",
          "type": "uint256"
        }
      ],
      "name": "transferFrom",
      "outputs": [
        {
          "internalType": "bool",
          "name": "",
          "type": "bool"
        }
      ],
      "stateMutability": "nonpayable",
      "type": "function"
    },
    {
      "inputs": [
        {
          "internalType": "address",
          "name": "newOwner",
          "type": "address"
        }
      ],
      "name": "transferOwnership",
      "outputs": [],
      "stateMutability": "nonpayable",
      "type": "function"
    },
    {
      "inputs": [
        {
          "internalType": "address",
          "name": "to",
          "type": "address"
        },
        {
          "internalType": "uint256",
          "name": "amount",
          "type": "uint256"
        },
        {
          "internalType": "bytes",
          "name": "data",
          "type": "bytes"
        }
      ],
      "name": "transferWithData",
      "outputs": [
        {
          "internalType": "bool",
          "name": "",
          "type": "bool"
        }
      ],
      "stateMutability": "nonpayable",
      "type": "function"
    }
  ],
  "bytecode": "0x60806040523462000388576200156f803803806200001d816200038d565b9283398101606082820312620003885781516001600160401b03908181116200038857826200004e918501620003b3565b906020928385015182811162000388576040916200006e918701620003b3565b9401519360ff851685036200038857825182811162000288576003918254916001958684811c941680156200037d575b8885101462000367578190601f9485811162000311575b508890858311600114620002aa576000926200029e575b505060001982861b1c191690861b1783555b8051938411620002885760049586548681811c911680156200027d575b8282101462000268578381116200021d575b5080928511600114620001af5750938394918492600095620001a3575b50501b92600019911b1c19161790555b60055460405191336001600160a01b0383167f8be0079c531659141344cd1fd0a4f28419497f9722a3daafe3b4186f6b6457e0600080a36001600160a81b03199091163360ff60a01b19161760a09190911b60ff60a01b16176005556111499081620004268239f35b0151935038806200012a565b92919084601f1981168860005285600020956000905b89838310620002025750505010620001e7575b50505050811b0190556200013a565b01519060f884600019921b161c1916905538808080620001d8565b858701518955909701969485019488935090810190620001c5565b87600052816000208480880160051c8201928489106200025e575b0160051c019087905b828110620002515750506200010d565b6000815501879062000241565b9250819262000238565b602288634e487b7160e01b6000525260246000fd5b90607f1690620000fb565b634e487b7160e01b600052604160045260246000fd5b015190503880620000cc565b90889350601f19831691876000528a6000209260005b8c828210620002fa5750508411620002e1575b505050811b018355620000de565b015160001983881b60f8161c19169055388080620002d3565b8385015186558c97909501949384019301620002c0565b90915085600052886000208580850160051c8201928b86106200035d575b918a91869594930160051c01915b8281106200034d575050620000b5565b600081558594508a91016200033d565b925081926200032f565b634e487b7160e01b600052602260045260246000fd5b93607f16936200009e565b600080fd5b6040519190601f01601f191682016001600160401b038111838210176200028857604052565b919080601f84011215620003885782516001600160401b0381116200028857602090620003e9601f8201601f191683016200038d565b92818452828287010111620003885760005b8181106200041157508260009394955001015290565b8581018301518482018401528201620003fb56fe6040608081526004908136101561001557600080fd5b600091823560e01c806306fdde0314610af7578063095ea7b314610acd57806318160ddd14610aae57806323b872dd146109f65780632535f7621461091b578063313ce567146108f657806339509351146108a657806340c10f19146107e057806342966c68146106d257806370a082311461069b578063715018a61461063e57806380b0c3eb1461061157806388d695b2146104f05780638da5cb5b146104c757806395d89b4114610492578063a457c2d7146103eb578063a9059cbb146103ba578063abb1dc4414610355578063d5395d2b1461031a578063dd62ed3e146102c2578063e110976f146101e15763f2fde38b1461011357600080fd5b346101dd5760203660031901126101dd5761012c610b55565b90610135610bd6565b6001600160a01b0391821692831561018b575050600554826bffffffffffffffffffffffff60a01b821617600555167f8be0079c531659141344cd1fd0a4f28419497f9722a3daafe3b4186f6b6457e08380a380f35b906020608492519162461bcd60e51b8352820152602660248201527f4f776e61626c653a206e6577206f776e657220697320746865207a65726f206160448201526564647265737360d01b6064820152fd5b8280fd5b5090346101dd57604460206101f536610b70565b610200949194610bd6565b855163a9059cbb60e01b81526001600160a01b0395861688820152602481019190915293849283918991165af19081156102b857849161027a575b5015610245578280f35b906020606492519162461bcd60e51b8352820152600f60248201526e151c985b9cd9995c8819985a5b1959608a1b6044820152fd5b90506020813d82116102b0575b8161029460209383610c2e565b810103126102ac575180151581036102ac573861023b565b8380fd5b3d9150610287565b82513d86823e3d90fd5b5050346103165780600319360112610316576102dc610b55565b6001600160a01b036024358181169290839003610312579160209491849316825260018552828220908252845220549051908152f35b8480fd5b5080fd5b5050346103165780600319360112610316576020916001600160a01b0361033f610b55565b1681528083528160243591205410159051908152f35b50503461031657816003193601126103165761039f90610373610c66565b9061037c610d51565b6002546103ad60ff60055460a01c16928451968796608088526080880190610b15565b908682036020880152610b15565b9284015260608301520390f35b5050346103165780600319360112610316576020906103e46103da610b55565b6024359033610e28565b5160018152f35b50823461048f578260031936011261048f57610405610b55565b918360243592338152600160205281812060018060a01b038616825260205220549082821061043e576020856103e48585038733610f96565b608490602086519162461bcd60e51b8352820152602560248201527f45524332303a2064656372656173656420616c6c6f77616e63652062656c6f77604482015264207a65726f60d81b6064820152fd5b80fd5b5050346103165781600319360112610316576104c3906104b0610d51565b9051918291602083526020830190610b15565b0390f35b50503461031657816003193601126103165760055490516001600160a01b039091168152602090f35b50346101dd57816003193601126101dd5767ffffffffffffffff928135848111610316576105219036908401610ba5565b60249391939586359081116102ac5761053d9036908401610ba5565b90918181036105b357845b818110610559576020885160018152f35b610564818389611098565b356001600160a01b03811681036105af5761058c90610584838688611098565b359033610e28565b600019811461059d57600101610548565b634e487b7160e01b8652601185528886fd5b8680fd5b865162461bcd60e51b81526020818601526033818a01527f526563697069656e747320616e6420616d6f756e747320617272617973206d756044820152720e6e840d0c2ecca40e6c2daca40d8cadccee8d606b1b6064820152608490fd5b50503461031657602036600319011261031657602090610637610632610b55565b6110be565b9051908152f35b833461048f578060031936011261048f57610657610bd6565b600580546001600160a01b0319811690915581906001600160a01b03167f8be0079c531659141344cd1fd0a4f28419497f9722a3daafe3b4186f6b6457e08280a380f35b5050346103165760203660031901126103165760209181906001600160a01b036106c3610b55565b16815280845220549051908152f35b5090346101dd57602090816003193601126102ac5782359233156107955733855284835281852054908482106107475750917fddf252ad1be2c89b69c2b068fc378daa952ba7f163c4a11628f55a4df523b3ef918486959433875286845203818620558360025403600255519283523392a380f35b825162461bcd60e51b8152908101849052602260248201527f45524332303a206275726e20616d6f756e7420657863656564732062616c616e604482015261636560f01b6064820152608490fd5b82608492519162461bcd60e51b8352820152602160248201527f45524332303a206275726e2066726f6d20746865207a65726f206164647265736044820152607360f81b6064820152fd5b5090346101dd57806003193601126101dd576107fa610b55565b9060243591610807610bd6565b6001600160a01b031692831561086457506020827fddf252ad1be2c89b69c2b068fc378daa952ba7f163c4a11628f55a4df523b3ef9261084a8795600254610e05565b60025585855284835280852082815401905551908152a380f35b6020606492519162461bcd60e51b8352820152601f60248201527f45524332303a206d696e7420746f20746865207a65726f2061646472657373006044820152fd5b5050346103165780600319360112610316576103e46020926108ef6108c9610b55565b338352600186528483206001600160a01b03821684528652918490205460243590610e05565b9033610f96565b50503461031657816003193601126103165760209060ff60055460a01c169051908152f35b50346101dd5760603660031901126101dd57610935610b55565b6024359167ffffffffffffffff91604435918383116105af57366023840112156105af578201359283116109f25736602484840101116109f25760209561097d858333610e28565b8361098c575b86865160018152f35b8360247fe68ca1ec8e8e022357047aae1f96036cbb808c6dc2bbbfbd3bde507ab21098c4948851978852888a89015282898901520160608701376060848601015260018060a01b0316926060813394601f80199101168101030190a33880808080610983565b8580fd5b50823461048f5782610a0736610b70565b6001600160a01b038316855260016020818152858720338852905293909420549394909391928201610a42575b6020866103e4878787610e28565b848210610a6b5750918391610a60602096956103e495033383610f96565b919394819350610a34565b606490602087519162461bcd60e51b8352820152601d60248201527f45524332303a20696e73756666696369656e7420616c6c6f77616e63650000006044820152fd5b5050346103165781600319360112610316576020906002549051908152f35b5050346103165780600319360112610316576020906103e4610aed610b55565b6024359033610f96565b5050346103165781600319360112610316576104c3906104b0610c66565b919082519283825260005b848110610b41575050826000602080949584010152601f8019910116010190565b602081830181015184830182015201610b20565b600435906001600160a01b0382168203610b6b57565b600080fd5b6060906003190112610b6b576001600160a01b03906004358281168103610b6b57916024359081168103610b6b579060443590565b9181601f84011215610b6b5782359167ffffffffffffffff8311610b6b576020808501948460051b010111610b6b57565b6005546001600160a01b03163303610bea57565b606460405162461bcd60e51b815260206004820152602060248201527f4f776e61626c653a2063616c6c6572206973206e6f7420746865206f776e65726044820152fd5b90601f8019910116810190811067ffffffffffffffff821117610c5057604052565b634e487b7160e01b600052604160045260246000fd5b60405190600060035490600182811c90808416938415610d47575b6020948584108114610d335783885287949392918115610d135750600114610cb4575b5050610cb292500383610c2e565b565b9093915060036000527fc2575a0e9e593c00f959f8c92f12db2869c3395a3b0502d05e2516446f71f85b936000915b818310610cfb575050610cb293508201013880610ca4565b85548884018501529485019487945091830191610ce3565b915050610cb294925060ff191682840152151560051b8201013880610ca4565b634e487b7160e01b85526022600452602485fd5b91607f1691610c81565b60405190600060045490600182811c90808416938415610dfb575b6020948584108114610d335783885287949392918115610d135750600114610d9c575050610cb292500383610c2e565b9093915060046000527f8a35acfbc15ff81a39ae7d344fd709f28e8600b4aa8c65c6b64bfe7fe36bd19b936000915b818310610de3575050610cb293508201013880610ca4565b85548884018501529485019487945091830191610dcb565b91607f1691610d6c565b91908201809211610e1257565b634e487b7160e01b600052601160045260246000fd5b6001600160a01b03908116918215610f435716918215610ef257600082815280602052604081205491808310610e9e57604082827fddf252ad1be2c89b69c2b068fc378daa952ba7f163c4a11628f55a4df523b3ef958760209652828652038282205586815220818154019055604051908152a3565b60405162461bcd60e51b815260206004820152602660248201527f45524332303a207472616e7366657220616d6f756e7420657863656564732062604482015265616c616e636560d01b6064820152608490fd5b60405162461bcd60e51b815260206004820152602360248201527f45524332303a207472616e7366657220746f20746865207a65726f206164647260448201526265737360e81b6064820152608490fd5b60405162461bcd60e51b815260206004820152602560248201527f45524332303a207472616e736665722066726f6d20746865207a65726f206164604482015264647265737360d81b6064820152608490fd5b6001600160a01b039081169182156110475716918215610ff75760207f8c5be1e5ebec7d5bd14f71427d1e84f3dd0314c0f7b2291e5b200ac8c7c3b925918360005260018252604060002085600052825280604060002055604051908152a3565b60405162461bcd60e51b815260206004820152602260248201527f45524332303a20617070726f766520746f20746865207a65726f206164647265604482015261737360f01b6064820152608490fd5b60405162461bcd60e51b8152602060048201526024808201527f45524332303a20617070726f76652066726f6d20746865207a65726f206164646044820152637265737360e01b6064820152608490fd5b91908110156110a85760051b0190565b634e487b7160e01b600052603260045260246000fd5b6001600160a01b031660009081526020819052604081205460025491821561110d57612710918281029281840414901517156110f957500490565b634e487b7160e01b81526011600452602490fd5b9150509056fea2646970667358221220a28f52fb9676e03fc95d7062e08f0cfa95342c6a6f47b40daeed34a6785365a264736f6c63430008130033",
  "linkReferences": {},
  "deployedLinkReferences": {}
}